{
  "abi": [
    {
      "inputs": [
        {
          "internalType": "contract IWETH9",
          "name": "_weth",
          "type": "address"
        },
        {
          "internalType": "contract ISwapRouter",
          "name": "_swapRouter",
          "type": "address"
        },
        {
          "internalType": "address",
          "name": "_factory",
          "type": "address"
        },
        {
          "internalType": "bytes32",
          "name": "_pairCodeHash",
          "type": "bytes32"
        },
        {
          "internalType": "contract IStargateRouter",
          "name": "_stargateRouter",
          "type": "address"
        }
      ],
      "stateMutability": "nonpayable",
      "type": "constructor"
    },
    {
      "inputs": [],
      "name": "MustBeGt0",
      "type": "error"
    },
    {
      "inputs": [],
      "name": "NotStgRouter",
      "type": "error"
    },
    {
      "anonymous": false,
      "inputs": [
        {
          "indexed": false,
          "internalType": "address",
          "name": "_token",
          "type": "address"
        },
        {
          "indexed": false,
          "internalType": "uint256",
          "name": "_fee",
          "type": "uint256"
        }
      ],
      "name": "FeePaid",
      "type": "event"
    },
    {
      "anonymous": false,
      "inputs": [
        {
          "indexed": true,
          "internalType": "address",
          "name": "token",
          "type": "address"
        },
        {
          "indexed": false,
          "internalType": "uint256",
          "name": "amountLD",
          "type": "uint256"
        },
        {
          "indexed": false,
          "internalType": "bool",
          "name": "failed",
          "type": "bool"
        },
        {
          "indexed": false,
          "internalType": "bool",
          "name": "dustSent",
          "type": "bool"
        }
      ],
      "name": "ReceivedOnDestination",
      "type": "event"
    },
    {
      "inputs": [],
      "name": "factory",
      "outputs": [
        {
          "internalType": "address",
          "name": "",
          "type": "address"
        }
      ],
      "stateMutability": "view",
      "type": "function"
    },
    {
      "inputs": [],
      "name": "feeCollector",
      "outputs": [
        {
          "internalType": "address",
          "name": "",
          "type": "address"
        }
      ],
      "stateMutability": "view",
      "type": "function"
    },
    {
      "inputs": [
        {
          "internalType": "uint256",
          "name": "amountIn",
          "type": "uint256"
        },
        {
          "internalType": "address",
          "name": "tokenIn",
          "type": "address"
        },
        {
          "internalType": "address",
          "name": "tokenOut",
          "type": "address"
        }
      ],
      "name": "getAmountOut",
      "outputs": [
        {
          "internalType": "uint256",
          "name": "amount",
          "type": "uint256"
        },
        {
          "internalType": "bool",
          "name": "stable",
          "type": "bool"
        }
      ],
      "stateMutability": "view",
      "type": "function"
    },
    {
      "inputs": [
        {
          "internalType": "uint256",
          "name": "amountIn",
          "type": "uint256"
        },
        {
          "components": [
            {
              "internalType": "address",
              "name": "from",
              "type": "address"
            },
            {
              "internalType": "address",
              "name": "to",
              "type": "address"
            },
            {
              "internalType": "bool",
              "name": "stable",
              "type": "bool"
            }
          ],
          "internalType": "struct VelodromeAdapter.route[]",
          "name": "routes",
          "type": "tuple[]"
        }
      ],
      "name": "getAmountsOut",
      "outputs": [
        {
          "internalType": "uint256[]",
          "name": "amounts",
          "type": "uint256[]"
        }
      ],
      "stateMutability": "view",
      "type": "function"
    },
    {
      "inputs": [
        {
          "internalType": "address",
          "name": "pair",
          "type": "address"
        }
      ],
      "name": "isPair",
      "outputs": [
        {
          "internalType": "bool",
          "name": "",
          "type": "bool"
        }
      ],
      "stateMutability": "view",
      "type": "function"
    },
    {
      "inputs": [
        {
          "internalType": "uint8[]",
          "name": "steps",
          "type": "uint8[]"
        },
        {
          "internalType": "bytes[]",
          "name": "data",
          "type": "bytes[]"
        }
      ],
      "name": "optimismSwaps",
      "outputs": [],
      "stateMutability": "payable",
      "type": "function"
    },
    {
      "inputs": [],
      "name": "pairCodeHash",
      "outputs": [
        {
          "internalType": "bytes32",
          "name": "",
          "type": "bytes32"
        }
      ],
      "stateMutability": "view",
      "type": "function"
    },
    {
      "inputs": [
        {
          "internalType": "address",
          "name": "tokenA",
          "type": "address"
        },
        {
          "internalType": "address",
          "name": "tokenB",
          "type": "address"
        },
        {
          "internalType": "bool",
          "name": "stable",
          "type": "bool"
        }
      ],
      "name": "pairFor",
      "outputs": [
        {
          "internalType": "address",
          "name": "pair",
          "type": "address"
        }
      ],
      "stateMutability": "pure",
      "type": "function"
    },
    {
      "inputs": [
        {
          "internalType": "uint16",
          "name": "",
          "type": "uint16"
        },
        {
          "internalType": "bytes",
          "name": "",
          "type": "bytes"
        },
        {
          "internalType": "uint256",
          "name": "",
          "type": "uint256"
        },
        {
          "internalType": "address",
          "name": "_token",
          "type": "address"
        },
        {
          "internalType": "uint256",
          "name": "amountLD",
          "type": "uint256"
        },
        {
          "internalType": "bytes",
          "name": "_payload",
          "type": "bytes"
        }
      ],
      "name": "sgReceive",
      "outputs": [],
      "stateMutability": "nonpayable",
      "type": "function"
    },
    {
      "inputs": [
        {
          "internalType": "address",
          "name": "tokenA",
          "type": "address"
        },
        {
          "internalType": "address",
          "name": "tokenB",
          "type": "address"
        }
      ],
      "name": "sortTokens",
      "outputs": [
        {
          "internalType": "address",
          "name": "token0",
          "type": "address"
        },
        {
          "internalType": "address",
          "name": "token1",
          "type": "address"
        }
      ],
      "stateMutability": "pure",
      "type": "function"
    },
    {
      "inputs": [],
      "name": "stargateRouter",
      "outputs": [
        {
          "internalType": "contract IStargateRouter",
          "name": "",
          "type": "address"
        }
      ],
      "stateMutability": "view",
      "type": "function"
    },
    {
      "inputs": [],
      "name": "swapRouter",
      "outputs": [
        {
          "internalType": "contract ISwapRouter",
          "name": "",
          "type": "address"
        }
      ],
      "stateMutability": "view",
      "type": "function"
    },
    {
      "inputs": [],
      "name": "veloRouter",
      "outputs": [
        {
          "internalType": "address",
          "name": "",
          "type": "address"
        }
      ],
      "stateMutability": "view",
      "type": "function"
    },
    {
      "stateMutability": "payable",
      "type": "receive"
    }
  ],
  "bytecode": {
    "object": "0x61010060405234801561001157600080fd5b50604051620011773803806200117783398101604081905261003291610085565b6001600160a01b03938416608052600080546001600160a01b03191693851693909317909255600155811660a0523360c0521660e0526100f0565b6001600160a01b038116811461008257600080fd5b50565b600080600080600060a0868803121561009d57600080fd5b85516100a88161006d565b60208701519095506100b98161006d565b60408701519094506100ca8161006d565b6060870151608088015191945092506100e28161006d565b809150509295509295909350565b60805160a05160c05160e0516110496200012e60003960005050600061029201526000818161020a015261041d0152600061025e01526110496000f3fe6080604052600436106100c65760003560e01c8063a9e56f3c1161007f578063c415b95c11610059578063c415b95c14610280578063c45a0155146102b4578063d5ef98ea146102d4578063e5e31b13146102fc57600080fd5b8063a9e56f3c146101f8578063ab8236f31461022c578063c31c9c071461024c57600080fd5b80634c1ee03e146100d2578063544caa56146101135780635df63bae146101535780635e1e6325146101695780639881fcb4146101a45780639aab9248146101d457600080fd5b366100cd57005b600080fd5b3480156100de57600080fd5b506100f66100ed3660046108be565b60009392505050565b6040516001600160a01b0390911681526020015b60405180910390f35b34801561011f57600080fd5b5061013361012e366004610909565b61032d565b604080516001600160a01b0393841681529290911660208301520161010a565b610167610161366004610987565b50505050565b005b34801561017557600080fd5b5061018f6101843660046109f3565b600080935093915050565b6040805192835290151560208301520161010a565b3480156101b057600080fd5b506101c76101bf366004610abe565b606092915050565b60405161010a9190610ba8565b3480156101e057600080fd5b506101ea60015481565b60405190815260200161010a565b34801561020457600080fd5b506100f67f000000000000000000000000000000000000000000000000000000000000000081565b34801561023857600080fd5b50610167610247366004610c65565b610412565b34801561025857600080fd5b506100f67f000000000000000000000000000000000000000000000000000000000000000081565b34801561028c57600080fd5b506100f67f000000000000000000000000000000000000000000000000000000000000000081565b3480156102c057600080fd5b506000546100f6906001600160a01b031681565b3480156102e057600080fd5b506100f6739c12939390052919af3155f41bf4160fd3666a6f81565b34801561030857600080fd5b5061031d610317366004610d09565b50600090565b604051901515815260200161010a565b600080826001600160a01b0316846001600160a01b0316036103965760405162461bcd60e51b815260206004820152601b60248201527f526f757465723a204944454e544943414c5f414444524553534553000000000060448201526064015b60405180910390fd5b826001600160a01b0316846001600160a01b0316106103b65782846103b9565b83835b90925090506001600160a01b03821661040b5760405162461bcd60e51b8152602060048201526014602482015273526f757465723a205a45524f5f4144445245535360601b604482015260640161038d565b9250929050565b336001600160a01b037f0000000000000000000000000000000000000000000000000000000000000000161461045b57604051638afe477f60e01b815260040160405180910390fd5b6000806000838060200190518101906104749190610e20565b9250925092506000306001600160a01b0316635df63bae62030d4085856040518463ffffffff1660e01b81526004016104ae929190610f2c565b600060405180830381600088803b1580156104c857600080fd5b5087f1935050505080156104da575060015b610528573d808015610508576040519150601f19603f3d011682016040523d82523d6000602084013e61050d565b606091505b506105226001600160a01b03891686896105df565b60019150505b60004715610584576040516001600160a01b038616904790600081818185875af1925050503d8060008114610579576040519150601f19603f3d011682016040523d82523d6000602084013e61057e565b606091505b50909150505b6040805188815283151560208201528215158183015290516001600160a01b038a16917f7f345d6da48bd1339fd428ff45265a0f01258b14ca09dcf8db0c469f4f732fd3919081900360600190a25050505050505050505050565b604080516001600160a01b038416602482015260448082018490528251808303909101815260649091019091526020810180516001600160e01b031663a9059cbb60e01b179052610631908490610636565b505050565b600061068b826040518060400160405280602081526020017f5361666545524332303a206c6f772d6c6576656c2063616c6c206661696c6564815250856001600160a01b03166107089092919063ffffffff16565b80519091501561063157808060200190518101906106a99190610fc7565b6106315760405162461bcd60e51b815260206004820152602a60248201527f5361666545524332303a204552433230206f7065726174696f6e20646964206e6044820152691bdd081cdd58d8d9595960b21b606482015260840161038d565b6060610717848460008561071f565b949350505050565b6060824710156107805760405162461bcd60e51b815260206004820152602660248201527f416464726573733a20696e73756666696369656e742062616c616e636520666f6044820152651c8818d85b1b60d21b606482015260840161038d565b600080866001600160a01b0316858760405161079c9190610fe4565b60006040518083038185875af1925050503d80600081146107d9576040519150601f19603f3d011682016040523d82523d6000602084013e6107de565b606091505b50915091506107ef878383876107fa565b979650505050505050565b60608315610869578251600003610862576001600160a01b0385163b6108625760405162461bcd60e51b815260206004820152601d60248201527f416464726573733a2063616c6c20746f206e6f6e2d636f6e7472616374000000604482015260640161038d565b5081610717565b610717838381511561087e5781518083602001fd5b8060405162461bcd60e51b815260040161038d9190611000565b6001600160a01b03811681146108ad57600080fd5b50565b80151581146108ad57600080fd5b6000806000606084860312156108d357600080fd5b83356108de81610898565b925060208401356108ee81610898565b915060408401356108fe816108b0565b809150509250925092565b6000806040838503121561091c57600080fd5b823561092781610898565b9150602083013561093781610898565b809150509250929050565b60008083601f84011261095457600080fd5b50813567ffffffffffffffff81111561096c57600080fd5b6020830191508360208260051b850101111561040b57600080fd5b6000806000806040858703121561099d57600080fd5b843567ffffffffffffffff808211156109b557600080fd5b6109c188838901610942565b909650945060208701359150808211156109da57600080fd5b506109e787828801610942565b95989497509550505050565b600080600060608486031215610a0857600080fd5b833592506020840135610a1a81610898565b915060408401356108fe81610898565b634e487b7160e01b600052604160045260246000fd5b6040516060810167ffffffffffffffff81118282101715610a6357610a63610a2a565b60405290565b604051601f8201601f1916810167ffffffffffffffff81118282101715610a9257610a92610a2a565b604052919050565b600067ffffffffffffffff821115610ab457610ab4610a2a565b5060051b60200190565b6000806040808486031215610ad257600080fd5b8335925060208085013567ffffffffffffffff811115610af157600080fd5b8501601f81018713610b0257600080fd5b8035610b15610b1082610a9a565b610a69565b8181526060918202830184019184820191908a841115610b3457600080fd5b938501935b83851015610b975780858c031215610b515760008081fd5b610b59610a40565b8535610b6481610898565b815285870135610b7381610898565b8188015285880135610b84816108b0565b8189015283529384019391850191610b39565b508096505050505050509250929050565b6020808252825182820181905260009190848201906040850190845b81811015610be057835183529284019291840191600101610bc4565b50909695505050505050565b600067ffffffffffffffff821115610c0657610c06610a2a565b50601f01601f191660200190565b600082601f830112610c2557600080fd5b8135610c33610b1082610bec565b818152846020838601011115610c4857600080fd5b816020850160208301376000918101602001919091529392505050565b60008060008060008060c08789031215610c7e57600080fd5b863561ffff81168114610c9057600080fd5b9550602087013567ffffffffffffffff80821115610cad57600080fd5b610cb98a838b01610c14565b96506040890135955060608901359150610cd282610898565b9093506080880135925060a08801359080821115610cef57600080fd5b50610cfc89828a01610c14565b9150509295509295509295565b600060208284031215610d1b57600080fd5b8135610d2681610898565b9392505050565b60005b83811015610d48578181015183820152602001610d30565b838111156101615750506000910152565b600082601f830112610d6a57600080fd5b81516020610d7a610b1083610a9a565b82815260059290921b84018101918181019086841115610d9957600080fd5b8286015b84811015610e1557805167ffffffffffffffff811115610dbd5760008081fd5b8701603f81018913610dcf5760008081fd5b848101516040610de1610b1083610bec565b8281528b82848601011115610df65760008081fd5b610e0583898301848701610d2d565b8652505050918301918301610d9d565b509695505050505050565b600080600060608486031215610e3557600080fd5b8351610e4081610898565b8093505060208085015167ffffffffffffffff80821115610e6057600080fd5b818701915087601f830112610e7457600080fd5b8151610e82610b1082610a9a565b81815260059190911b8301840190848101908a831115610ea157600080fd5b938501935b82851015610ecf57845160ff81168114610ec05760008081fd5b82529385019390850190610ea6565b60408a01519097509450505080831115610ee857600080fd5b5050610ef686828701610d59565b9150509250925092565b60008151808452610f18816020860160208601610d2d565b601f01601f19169290920160200192915050565b604080825283519082018190526000906020906060840190828701845b82811015610f6857815160ff1684529284019290840190600101610f49565b50505083810382850152845180825282820190600581901b8301840187850160005b83811015610fb857601f19868403018552610fa6838351610f00565b94870194925090860190600101610f8a565b50909998505050505050505050565b600060208284031215610fd957600080fd5b8151610d26816108b0565b60008251610ff6818460208701610d2d565b9190910192915050565b602081526000610d266020830184610f0056fea2646970667358221220b7f309c489be0a9aab685c028f1f03c6e69b093ae3b5a44c53b5f5567c185d4c64736f6c634300080f0033",
    "linkReferences": {}
  },
  "methodIdentifiers": {
    "factory()": "c45a0155",
    "feeCollector()": "c415b95c",
    "getAmountOut(uint256,address,address)": "5e1e6325",
    "getAmountsOut(uint256,(address,address,bool)[])": "9881fcb4",
    "isPair(address)": "e5e31b13",
    "optimismSwaps(uint8[],bytes[])": "5df63bae",
    "pairCodeHash()": "9aab9248",
    "pairFor(address,address,bool)": "4c1ee03e",
    "sgReceive(uint16,bytes,uint256,address,uint256,bytes)": "ab8236f3",
    "sortTokens(address,address)": "544caa56",
    "stargateRouter()": "a9e56f3c",
    "swapRouter()": "c31c9c07",
    "veloRouter()": "d5ef98ea"
  },
  "id": 61
}