{
  "abi": [
    {
      "inputs": [
        {
          "internalType": "contract IWETH9",
          "name": "_weth",
          "type": "address"
        },
        {
          "internalType": "address",
          "name": "_feeCollector",
          "type": "address"
        },
        {
          "internalType": "contract ISwapRouter",
          "name": "_swapRouter",
          "type": "address"
        },
        {
          "internalType": "address",
          "name": "_factory",
          "type": "address"
        },
        {
          "internalType": "bytes32",
          "name": "_pairCodeHash",
          "type": "bytes32"
        },
        {
          "internalType": "contract IStargateRouter",
          "name": "_stargateRouter",
          "type": "address"
        }
      ],
      "stateMutability": "nonpayable",
      "type": "constructor"
    },
    {
      "inputs": [],
      "name": "MoreThanZero",
      "type": "error"
    },
    {
      "inputs": [],
      "name": "MustBeGt0",
      "type": "error"
    },
    {
      "inputs": [],
      "name": "NotStgRouter",
      "type": "error"
    },
    {
      "inputs": [],
      "name": "WithdrawFailed",
      "type": "error"
    },
    {
      "anonymous": false,
      "inputs": [
        {
          "indexed": false,
          "internalType": "address",
          "name": "_token",
          "type": "address"
        },
        {
          "indexed": false,
          "internalType": "uint256",
          "name": "_fee",
          "type": "uint256"
        }
      ],
      "name": "FeePaid",
      "type": "event"
    },
    {
      "anonymous": false,
      "inputs": [
        {
          "indexed": true,
          "internalType": "address",
          "name": "token",
          "type": "address"
        },
        {
          "indexed": false,
          "internalType": "uint256",
          "name": "amountLD",
          "type": "uint256"
        },
        {
          "indexed": false,
          "internalType": "bool",
          "name": "failed",
          "type": "bool"
        },
        {
          "indexed": false,
          "internalType": "bool",
          "name": "dustSent",
          "type": "bool"
        }
      ],
      "name": "ReceivedOnDestination",
      "type": "event"
    },
    {
      "anonymous": false,
      "inputs": [
        {
          "indexed": false,
          "internalType": "bool",
          "name": "success",
          "type": "bool"
        }
      ],
      "name": "SuccessfulWithdraw",
      "type": "event"
    },
    {
      "inputs": [],
      "name": "factory",
      "outputs": [
        {
          "internalType": "address",
          "name": "",
          "type": "address"
        }
      ],
      "stateMutability": "view",
      "type": "function"
    },
    {
      "inputs": [],
      "name": "feeCollector",
      "outputs": [
        {
          "internalType": "address",
          "name": "",
          "type": "address"
        }
      ],
      "stateMutability": "view",
      "type": "function"
    },
    {
      "inputs": [
        {
          "internalType": "uint256",
          "name": "amountIn",
          "type": "uint256"
        },
        {
          "internalType": "address",
          "name": "tokenIn",
          "type": "address"
        },
        {
          "internalType": "address",
          "name": "tokenOut",
          "type": "address"
        }
      ],
      "name": "getAmountOut",
      "outputs": [
        {
          "internalType": "uint256",
          "name": "amount",
          "type": "uint256"
        },
        {
          "internalType": "bool",
          "name": "stable",
          "type": "bool"
        }
      ],
      "stateMutability": "view",
      "type": "function"
    },
    {
      "inputs": [
        {
          "internalType": "uint256",
          "name": "amountIn",
          "type": "uint256"
        },
        {
          "components": [
            {
              "internalType": "address",
              "name": "from",
              "type": "address"
            },
            {
              "internalType": "address",
              "name": "to",
              "type": "address"
            },
            {
              "internalType": "bool",
              "name": "stable",
              "type": "bool"
            }
          ],
          "internalType": "struct VelodromeAdapter.route[]",
          "name": "routes",
          "type": "tuple[]"
        }
      ],
      "name": "getAmountsOut",
      "outputs": [
        {
          "internalType": "uint256[]",
          "name": "amounts",
          "type": "uint256[]"
        }
      ],
      "stateMutability": "view",
      "type": "function"
    },
    {
      "inputs": [
        {
          "internalType": "address",
          "name": "pair",
          "type": "address"
        }
      ],
      "name": "isPair",
      "outputs": [
        {
          "internalType": "bool",
          "name": "",
          "type": "bool"
        }
      ],
      "stateMutability": "view",
      "type": "function"
    },
    {
      "inputs": [
        {
          "internalType": "uint8[]",
          "name": "steps",
          "type": "uint8[]"
        },
        {
          "internalType": "bytes[]",
          "name": "data",
          "type": "bytes[]"
        }
      ],
      "name": "optimismSwaps",
      "outputs": [],
      "stateMutability": "payable",
      "type": "function"
    },
    {
      "inputs": [],
      "name": "pairCodeHash",
      "outputs": [
        {
          "internalType": "bytes32",
          "name": "",
          "type": "bytes32"
        }
      ],
      "stateMutability": "view",
      "type": "function"
    },
    {
      "inputs": [
        {
          "internalType": "address",
          "name": "tokenA",
          "type": "address"
        },
        {
          "internalType": "address",
          "name": "tokenB",
          "type": "address"
        },
        {
          "internalType": "bool",
          "name": "stable",
          "type": "bool"
        }
      ],
      "name": "pairFor",
      "outputs": [
        {
          "internalType": "address",
          "name": "pair",
          "type": "address"
        }
      ],
      "stateMutability": "pure",
      "type": "function"
    },
    {
      "inputs": [
        {
          "internalType": "uint16",
          "name": "",
          "type": "uint16"
        },
        {
          "internalType": "bytes",
          "name": "",
          "type": "bytes"
        },
        {
          "internalType": "uint256",
          "name": "",
          "type": "uint256"
        },
        {
          "internalType": "address",
          "name": "_token",
          "type": "address"
        },
        {
          "internalType": "uint256",
          "name": "amountLD",
          "type": "uint256"
        },
        {
          "internalType": "bytes",
          "name": "_payload",
          "type": "bytes"
        }
      ],
      "name": "sgReceive",
      "outputs": [],
      "stateMutability": "nonpayable",
      "type": "function"
    },
    {
      "inputs": [
        {
          "internalType": "address",
          "name": "tokenA",
          "type": "address"
        },
        {
          "internalType": "address",
          "name": "tokenB",
          "type": "address"
        }
      ],
      "name": "sortTokens",
      "outputs": [
        {
          "internalType": "address",
          "name": "token0",
          "type": "address"
        },
        {
          "internalType": "address",
          "name": "token1",
          "type": "address"
        }
      ],
      "stateMutability": "pure",
      "type": "function"
    },
    {
      "inputs": [],
      "name": "stargateRouter",
      "outputs": [
        {
          "internalType": "contract IStargateRouter",
          "name": "",
          "type": "address"
        }
      ],
      "stateMutability": "view",
      "type": "function"
    },
    {
      "inputs": [],
      "name": "swapRouter",
      "outputs": [
        {
          "internalType": "contract ISwapRouter",
          "name": "",
          "type": "address"
        }
      ],
      "stateMutability": "view",
      "type": "function"
    },
    {
      "inputs": [],
      "name": "veloFactory",
      "outputs": [
        {
          "internalType": "address",
          "name": "",
          "type": "address"
        }
      ],
      "stateMutability": "view",
      "type": "function"
    },
    {
      "inputs": [],
      "name": "veloRouter",
      "outputs": [
        {
          "internalType": "address",
          "name": "",
          "type": "address"
        }
      ],
      "stateMutability": "view",
      "type": "function"
    },
    {
      "inputs": [],
      "name": "veloWETH",
      "outputs": [
        {
          "internalType": "contract IWETH",
          "name": "",
          "type": "address"
        }
      ],
      "stateMutability": "view",
      "type": "function"
    },
    {
      "stateMutability": "payable",
      "type": "receive"
    }
  ],
  "bytecode": {
    "object": "0x6101006040523480156200001257600080fd5b50604051620043163803806200431683398101604081905262000035916200008c565b6001600160a01b03938416608052600080546001600160a01b03191693851693909317909255600155811660a05291821660c0521660e05262000114565b6001600160a01b03811681146200008957600080fd5b50565b60008060008060008060c08789031215620000a657600080fd5b8651620000b38162000073565b6020880151909650620000c68162000073565b6040880151909550620000d98162000073565b6060880151909450620000ec8162000073565b608088015160a08901519194509250620001068162000073565b809150509295509295509295565b60805160a05160c05160e05161418262000194600039600081816102aa0152610b2b0152600081816106bf01528181610c1e0152610cb10152600081816102220152818161131f01528181611e710152611e98015260008181610276015281816115f80152818161172e015281816117c701526118b201526141826000f3fe6080604052600436106100ec5760003560e01c8063ab8236f31161008a578063c7f5fd1011610059578063c7f5fd10146102ec578063d5ef98ea14610314578063e5e31b131461033c578063fdc09e071461036c57600080fd5b8063ab8236f314610244578063c31c9c0714610264578063c415b95c14610298578063c45a0155146102cc57600080fd5b80635e1e6325116100c65780635e1e63251461018a5780639881fcb4146101bf5780639aab9248146101ec578063a9e56f3c1461021057600080fd5b80634c1ee03e146100f8578063544caa56146101355780635df63bae1461017557600080fd5b366100f357005b600080fd5b34801561010457600080fd5b50610118610113366004612e1b565b610387565b6040516001600160a01b0390911681526020015b60405180910390f35b34801561014157600080fd5b50610155610150366004612e66565b61044a565b604080516001600160a01b0393841681529290911660208301520161012c565b610188610183366004612ee3565b61052f565b005b34801561019657600080fd5b506101aa6101a5366004612f4e565b610e37565b6040805192835290151560208301520161012c565b3480156101cb57600080fd5b506101df6101da366004613153565b61106b565b60405161012c9190613199565b3480156101f857600080fd5b5061020260015481565b60405190815260200161012c565b34801561021c57600080fd5b506101187f000000000000000000000000000000000000000000000000000000000000000081565b34801561025057600080fd5b5061018861025f366004613267565b611314565b34801561027057600080fd5b506101187f000000000000000000000000000000000000000000000000000000000000000081565b3480156102a457600080fd5b506101187f000000000000000000000000000000000000000000000000000000000000000081565b3480156102d857600080fd5b50600054610118906001600160a01b031681565b3480156102f857600080fd5b506101187325cbddb98b35ab1ff77413456b31ec81a6b6b74681565b34801561032057600080fd5b50610118739c12939390052919af3155f41bf4160fd3666a6f81565b34801561034857600080fd5b5061035c610357366004613301565b6114e1565b604051901515815260200161012c565b34801561037857600080fd5b506101186006602160991b0181565b6000806000610396868661044a565b6040516001600160601b0319606084811b8216602084015283901b16603482015286151560f81b604882015291935091507325cbddb98b35ab1ff77413456b31ec81a6b6b7469060490160408051601f19818403018152908290528051602091820120610428939290917fc1ac28b1c4ebe53c0cff67bab5878c4eb68759bb1e9f73977cd266b247d149f0910161331e565b60408051601f1981840301815291905280516020909101209695505050505050565b600080826001600160a01b0316846001600160a01b0316036104b35760405162461bcd60e51b815260206004820152601b60248201527f526f757465723a204944454e544943414c5f414444524553534553000000000060448201526064015b60405180910390fd5b826001600160a01b0316846001600160a01b0316106104d35782846104d6565b83835b90925090506001600160a01b0382166105285760405162461bcd60e51b8152602060048201526014602482015273526f757465723a205a45524f5f4144445245535360601b60448201526064016104aa565b9250929050565b60005b83811015610e3057600085858381811061054e5761054e613351565b90506020020160208101906105639190613376565b905060001960ff82160161065b5760008085858581811061058657610586613351565b90506020028101906105989190613393565b8101906105a59190613448565b9150915060005b82518110156106535760008282815181106105c9576105c9613351565b6020026020010151116105ef5760405163fe4155c760e01b815260040160405180910390fd5b610641333084848151811061060657610606613351565b602002602001015186858151811061062057610620613351565b60200260200101516001600160a01b0316611566909392919063ffffffff16565b8061064b81613518565b9150506105ac565b505050610e1d565b60011960ff82160161073757600084848481811061067b5761067b613351565b905060200281019061068d9190613393565b81019061069a9190613531565b9050600081116106bd5760405163fe4155c760e01b815260040160405180910390fd5b7f00000000000000000000000000000000000000000000000000000000000000006001600160a01b031663d0e30db0826040518263ffffffff1660e01b81526004016000604051808303818588803b15801561071857600080fd5b505af115801561072c573d6000803e3d6000fd5b505050505050610e1d565b60021960ff8216016107c757600084848481811061075757610757613351565b90506020028101906107699190613393565b810190610776919061355d565b905060005b81518110156107c057600082828151811061079857610798613351565b602002602001015190506107ab816115d7565b505080806107b890613518565b91505061077b565b5050610e1d565b60031960ff8216016108495760008484848181106107e7576107e7613351565b90506020028101906107f99190613393565b8101906108069190613647565b905060005b81518110156107c05761083682828151811061082957610829613351565b60200260200101516117a6565b508061084181613518565b91505061080b565b60041960ff8216016108cb57600084848481811061086957610869613351565b905060200281019061087b9190613393565b8101906108889190613749565b905060005b81518110156107c0576108b88282815181106108ab576108ab613351565b60200260200101516118fc565b50806108c381613518565b91505061088d565b60081960ff8216016109d75760008484848181106108eb576108eb613351565b90506020028101906108fd9190613393565b81019061090a9190613856565b905060005b81518110156107c0576109a2739c12939390052919af3155f41bf4160fd3666a6f83838151811061094257610942613351565b60200260200101516000015184848151811061096057610960613351565b60200260200101516040015160008151811061097e5761097e613351565b6020026020010151600001516001600160a01b0316611adc9092919063ffffffff16565b6109c48282815181106109b7576109b7613351565b6020026020010151611b8e565b50806109cf81613518565b91505061090f565b600a1960ff821601610bbd5760008484848181106109f7576109f7613351565b9050602002810190610a099190613393565b810190610a169190613950565b905060005b81518110156107c0576000828281518110610a3857610a38613351565b60200260200101516000015190506000838381518110610a5a57610a5a613351565b602002602001015160400151905080600003610add576040516370a0823160e01b81523060048201526001600160a01b038316906370a0823190602401602060405180830381865afa158015610ab4573d6000803e3d6000fd5b505050506040513d601f19601f82011682018060405250810190610ad89190613a13565b610adf565b805b90506000848481518110610af557610af5613351565b60200260200101516020015190506000610b0e83611d26565b9050610b1a8184613a2c565b9250610b506001600160a01b0385167f000000000000000000000000000000000000000000000000000000000000000083611d4b565b610b646001600160a01b0385168385611d4b565b604080516001600160a01b0386168152602081018390527f075a2720282fdf622141dae0b048ef90a21a7e57c134c76912d19d006b3b3f6f910160405180910390a1505050508080610bb590613518565b915050610a1b565b600b1960ff821601610dc657600080858585818110610bde57610bde613351565b9050602002810190610bf09190613393565b810190610bfd9190613a3f565b9150915080600003610c96576040516370a0823160e01b81523060048201527f00000000000000000000000000000000000000000000000000000000000000006001600160a01b0316906370a0823190602401602060405180830381865afa158015610c6d573d6000803e3d6000fd5b505050506040513d601f19601f82011682018060405250810190610c919190613a13565b610c98565b805b604051632e1a7d4d60e01b8152600481018290529091507f00000000000000000000000000000000000000000000000000000000000000006001600160a01b031690632e1a7d4d90602401600060405180830381600087803b158015610cfd57600080fd5b505af1158015610d11573d6000803e3d6000fd5b505050506000826001600160a01b03168260405160006040518083038185875af1925050503d8060008114610d62576040519150601f19603f3d011682016040523d82523d6000602084013e610d67565b606091505b5050905080610d8957604051631d42c86760e21b815260040160405180910390fd5b60405181151581527fecd574d247fc5a32601173682b0af34b454b7a0bf3e382d0efb3c6209e9443fa9060200160405180910390a1505050610e1d565b600c1960ff821601610e1d576000806000868686818110610de957610de9613351565b9050602002810190610dfb9190613393565b810190610e089190613b4e565b925092509250610e19838383611d80565b5050505b5080610e2881613518565b915050610532565b5050505050565b6000806000610e4885856001610387565b60405163e5e31b1360e01b81526001600160a01b038216600482015290915060009081907325cbddb98b35ab1ff77413456b31ec81a6b6b7469063e5e31b1390602401602060405180830381865afa158015610ea8573d6000803e3d6000fd5b505050506040513d601f19601f82011682018060405250810190610ecc9190613c5b565b15610f45576040516378a051ad60e11b8152600481018990526001600160a01b03888116602483015284169063f140a35a90604401602060405180830381865afa158015610f1e573d6000803e3d6000fd5b505050506040513d601f19601f82011682018060405250810190610f429190613a13565b91505b610f5187876000610387565b60405163e5e31b1360e01b81526001600160a01b03821660048201529093507325cbddb98b35ab1ff77413456b31ec81a6b6b7469063e5e31b1390602401602060405180830381865afa158015610fac573d6000803e3d6000fd5b505050506040513d601f19601f82011682018060405250810190610fd09190613c5b565b15611049576040516378a051ad60e11b8152600481018990526001600160a01b03888116602483015284169063f140a35a90604401602060405180830381865afa158015611022573d6000803e3d6000fd5b505050506040513d601f19601f820116820180604052508101906110469190613a13565b90505b8082116110585780600061105c565b8160015b94509450505050935093915050565b60606001825110156110b65760405162461bcd60e51b81526020600482015260146024820152730a4deeae8cae47440929cac82989288bea082a8960631b60448201526064016104aa565b81516110c3906001613c78565b6001600160401b038111156110da576110da612f85565b604051908082528060200260200182016040528015611103578160200160208202803683370190505b509050828160008151811061111a5761111a613351565b60200260200101818152505060005b825181101561130d57600061119684838151811061114957611149613351565b60200260200101516000015185848151811061116757611167613351565b60200260200101516020015186858151811061118557611185613351565b602002602001015160400151610387565b60405163e5e31b1360e01b81526001600160a01b03821660048201529091507325cbddb98b35ab1ff77413456b31ec81a6b6b7469063e5e31b1390602401602060405180830381865afa1580156111f1573d6000803e3d6000fd5b505050506040513d601f19601f820116820180604052508101906112159190613c5b565b156112fa57806001600160a01b031663f140a35a84848151811061123b5761123b613351565b602002602001015186858151811061125557611255613351565b6020026020010151600001516040518363ffffffff1660e01b81526004016112909291909182526001600160a01b0316602082015260400190565b602060405180830381865afa1580156112ad573d6000803e3d6000fd5b505050506040513d601f19601f820116820180604052508101906112d19190613a13565b836112dd846001613c78565b815181106112ed576112ed613351565b6020026020010181815250505b508061130581613518565b915050611129565b5092915050565b336001600160a01b037f0000000000000000000000000000000000000000000000000000000000000000161461135d57604051638afe477f60e01b815260040160405180910390fd5b6000806000838060200190518101906113769190613d6a565b9250925092506000306001600160a01b0316635df63bae62030d4085856040518463ffffffff1660e01b81526004016113b0929190613ef7565b600060405180830381600088803b1580156113ca57600080fd5b5087f1935050505080156113dc575060015b61142a573d80801561140a576040519150601f19603f3d011682016040523d82523d6000602084013e61140f565b606091505b506114246001600160a01b0389168689611d4b565b60019150505b60004715611486576040516001600160a01b038616904790600081818185875af1925050503d806000811461147b576040519150601f19603f3d011682016040523d82523d6000602084013e611480565b606091505b50909150505b6040805188815283151560208201528215158183015290516001600160a01b038a16917f7f345d6da48bd1339fd428ff45265a0f01258b14ca09dcf8db0c469f4f732fd3919081900360600190a25050505050505050505050565b60405163e5e31b1360e01b81526001600160a01b03821660048201526000907325cbddb98b35ab1ff77413456b31ec81a6b6b7469063e5e31b1390602401602060405180830381865afa15801561153c573d6000803e3d6000fd5b505050506040513d601f19601f820116820180604052508101906115609190613c5b565b92915050565b6040516001600160a01b03808516602483015283166044820152606481018290526115d19085906323b872dd60e01b906084015b60408051601f198184030181529190526020810180516001600160e01b03166001600160e01b031990931692909217909152611fce565b50505050565b60408181015190516370a0823160e01b8152306004820152600091611673917f0000000000000000000000000000000000000000000000000000000000000000906001600160a01b038316906370a08231906024015b602060405180830381865afa15801561164a573d6000803e3d6000fd5b505050506040513d601f19601f8201168201806040525081019061166e9190613a13565b6120a0565b6040805161010081018252838201516001600160a01b0390811682526060808601518216602080850191825260808089015162ffffff90811687890190815230958801958652429288019283528a5160a08901908152938b015160c08901908152600060e08a01908152995163414bf38960e01b8152895189166004820152955188166024870152905190911660448501529351851660648401525160848301525160a4820152905160c48201529251811660e484015290917f00000000000000000000000000000000000000000000000000000000000000009091169063414bf38990610104015b6020604051808303816000875af115801561177b573d6000803e3d6000fd5b505050506040513d601f19601f8201168201806040525081019061179f9190613a13565b9392505050565b60408181015190516370a0823160e01b8152306004820152600091611800917f0000000000000000000000000000000000000000000000000000000000000000906001600160a01b038316906370a082319060240161162d565b6040805160a08082018352918401519184015160608086015160c08088015160808901516001600160601b031997851b8816928701929092526001600160e81b031960e895861b811660d488015292841b871660d787015290931b1660eb8401521b90911660ee8201526000908061010281016040516020818303038152906040528152602001306001600160a01b0316815260200142815260200184600001518152602001846020015181525090507f00000000000000000000000000000000000000000000000000000000000000006001600160a01b031663c04b8d59826040518263ffffffff1660e01b815260040161175c9190613f25565b60008054825160408401516001548493611923936001600160a01b03909116929091612199565b905080600182516119349190613a2c565b8151811061194457611944613351565b6020026020010151915082602001518210156119a25760405162461bcd60e51b815260206004820152601760248201527f696e73756666696369656e742d616d6f756e742d6f757400000000000000000060448201526064016104aa565b826060015115611ac7576000805460408501518051611ac793611a05936001600160a01b031692916119d6576119d6613351565b602002602001015186604001516001815181106119f5576119f5613351565b6020026020010151600154612325565b8460400151600081518110611a1c57611a1c613351565b60209081029190910101516040516370a0823160e01b81523060048201526001600160a01b03909116906370a0823190602401602060405180830381865afa158015611a6c573d6000803e3d6000fd5b505050506040513d601f19601f82011682018060405250810190611a909190613a13565b8560400151600081518110611aa757611aa7613351565b60200260200101516001600160a01b0316611d4b9092919063ffffffff16565b611ad6818460400151306123ab565b50919050565b604051636eb1769f60e11b81523060048201526001600160a01b038381166024830152600091839186169063dd62ed3e90604401602060405180830381865afa158015611b2d573d6000803e3d6000fd5b505050506040513d601f19601f82011682018060405250810190611b519190613a13565b611b5b9190613c78565b6040516001600160a01b0385166024820152604481018290529091506115d190859063095ea7b360e01b9060640161159a565b6060816060015142811015611bd75760405162461bcd60e51b815260206004820152600f60248201526e149bdd5d195c8e8811561412549151608a1b60448201526064016104aa565b611be98360000151846040015161106b565b915082602001518260018451611bff9190613a2c565b81518110611c0f57611c0f613351565b60200260200101511015611c705760405162461bcd60e51b815260206004820152602260248201527f526f757465723a20494e53554646494349454e545f4f55545055545f414d4f55604482015261139560f21b60648201526084016104aa565b611d178360400151600081518110611c8a57611c8a613351565b60200260200101516000015130611cf78660400151600081518110611cb157611cb1613351565b6020026020010151600001518760400151600081518110611cd457611cd4613351565b602002602001015160200151886040015160008151811061118557611185613351565b85600081518110611d0a57611d0a613351565b6020026020010151612582565b611ad68284604001513061267a565b6000612710611d378361270b613f7d565b611d419190613f94565b6115609083613a2c565b6040516001600160a01b038316602482015260448101829052611d7b90849063a9059cbb60e01b9060640161159a565b505050565b60003411611da15760405163c9935ff960e01b815260040160405180910390fd5b60008361010001518383604051602001611dbd93929190613fb6565b60405160208183030381529060405290508360800151600003611e4d5760208401516040516370a0823160e01b81523060048201526001600160a01b03909116906370a0823190602401602060405180830381865afa158015611e24573d6000803e3d6000fd5b505050506040513d601f19601f82011682018060405250810190611e489190613a13565b611e53565b83608001515b608085018190526020850151611e96916001600160a01b03909116907f000000000000000000000000000000000000000000000000000000000000000090611adc565b7f00000000000000000000000000000000000000000000000000000000000000006001600160a01b0316639fbf10fc47866000015187604001518860600151308a608001518b60a0015160405180606001604052808e610120015181526020018e60c0015181526020018e60e00151604051602001611f28919060609190911b6001600160601b031916815260140190565b6040516020818303038152906040528152508d60e00151604051602001611f62919060609190911b6001600160601b031916815260140190565b6040516020818303038152906040528b6040518b63ffffffff1660e01b8152600401611f9699989796959493929190613ff6565b6000604051808303818588803b158015611faf57600080fd5b505af1158015611fc3573d6000803e3d6000fd5b505050505050505050565b6000612023826040518060400160405280602081526020017f5361666545524332303a206c6f772d6c6576656c2063616c6c206661696c6564815250856001600160a01b03166128c99092919063ffffffff16565b805190915015611d7b57808060200190518101906120419190613c5b565b611d7b5760405162461bcd60e51b815260206004820152602a60248201527f5361666545524332303a204552433230206f7065726174696f6e20646964206e6044820152691bdd081cdd58d8d9595960b21b60648201526084016104aa565b604080516001600160a01b038481166024830152604480830185905283518084039091018152606490920183526020820180516001600160e01b031663095ea7b360e01b17905291516000928392908716916120fc9190614094565b6000604051808303816000865af19150503d8060008114612139576040519150601f19603f3d011682016040523d82523d6000602084013e61213e565b606091505b50915091508180156121685750805115806121685750808060200190518101906121689190613c5b565b610e305760405162461bcd60e51b8152602060048201526002602482015261534160f01b60448201526064016104aa565b60606002835110156121ed5760405162461bcd60e51b815260206004820152601e60248201527f556e697377617056324c6962726172793a20494e56414c49445f50415448000060448201526064016104aa565b82516001600160401b0381111561220657612206612f85565b60405190808252806020026020018201604052801561222f578160200160208202803683370190505b509050838160008151811061224657612246613351565b60200260200101818152505060005b600184516122639190613a2c565b81101561231c576000806122b78887858151811061228357612283613351565b6020026020010151888660016122999190613c78565b815181106122a9576122a9613351565b6020026020010151886128e0565b915091506122df8484815181106122d0576122d0613351565b602002602001015183836129ac565b846122eb856001613c78565b815181106122fb576122fb613351565b6020026020010181815250505050808061231490613518565b915050612255565b50949350505050565b60008060006123348686612acb565b6040516001600160601b0319606084811b8216602084015283901b1660348201529193509150879060480160405160208183030381529060405280519060200120856040516020016123889392919061331e565b60408051601f198184030181529190528051602090910120979650505050505050565b60005b600183516123bc9190613a2c565b8110156115d1576000808483815181106123d8576123d8613351565b6020026020010151858460016123ee9190613c78565b815181106123fe576123fe613351565b60200260200101519150915060006124168383612acb565b509050600087612427866001613c78565b8151811061243757612437613351565b60200260200101519050600080836001600160a01b0316866001600160a01b03161461246557826000612469565b6000835b91509150600060028a5161247d9190613a2c565b881061248957886124b6565b6000546124b6906001600160a01b0316878c6124a68c6002613c78565b815181106119f5576119f5613351565b90506124d960008054906101000a90046001600160a01b03168888600154612325565b6001600160a01b031663022c0d9f84848460006040519080825280601f01601f191660200182016040528015612516576020820181803683370190505b506040518563ffffffff1660e01b815260040161253694939291906140b0565b600060405180830381600087803b15801561255057600080fd5b505af1158015612564573d6000803e3d6000fd5b5050505050505050505050808061257a90613518565b9150506123ae565b6000846001600160a01b03163b1161259957600080fd5b604080516001600160a01b0385811660248301528481166044830152606480830185905283518084039091018152608490920183526020820180516001600160e01b03166323b872dd60e01b17905291516000928392908816916125fd9190614094565b6000604051808303816000865af19150503d806000811461263a576040519150601f19603f3d011682016040523d82523d6000602084013e61263f565b606091505b50915091508180156126695750805115806126695750808060200190518101906126699190613c5b565b61267257600080fd5b505050505050565b60005b82518110156115d15760006126cc84838151811061269d5761269d613351565b6020026020010151600001518584815181106126bb576126bb613351565b60200260200101516020015161044a565b5090506000856126dd846001613c78565b815181106126ed576126ed613351565b60200260200101519050600080836001600160a01b031687868151811061271657612716613351565b6020026020010151600001516001600160a01b0316146127385782600061273c565b6000835b915091506000600188516127509190613a2c565b861061275c57866127cf565b6127cf8861276b886001613c78565b8151811061277b5761277b613351565b602002602001015160000151898860016127959190613c78565b815181106127a5576127a5613351565b6020026020010151602001518a8960016127bf9190613c78565b8151811061118557611185613351565b90506128228887815181106127e6576127e6613351565b60200260200101516000015189888151811061280457612804613351565b6020026020010151602001518a898151811061118557611185613351565b6001600160a01b031663022c0d9f84848460006040519080825280601f01601f19166020018201604052801561285f576020820181803683370190505b506040518563ffffffff1660e01b815260040161287f94939291906140b0565b600060405180830381600087803b15801561289957600080fd5b505af11580156128ad573d6000803e3d6000fd5b50505050505050505080806128c190613518565b91505061267d565b60606128d88484600085612bbb565b949350505050565b60008060006128ef8686612acb565b50905060008061290189898989612325565b6001600160a01b0316630902f1ac6040518163ffffffff1660e01b8152600401606060405180830381865afa15801561293e573d6000803e3d6000fd5b505050506040513d601f19601f8201168201806040525081019061296291906140f4565b506001600160701b031691506001600160701b03169150826001600160a01b0316886001600160a01b03161461299957808261299c565b81815b909a909950975050505050505050565b6000808411612a115760405162461bcd60e51b815260206004820152602b60248201527f556e697377617056324c6962726172793a20494e53554646494349454e545f4960448201526a1394155517d05353d5539560aa1b60648201526084016104aa565b600083118015612a215750600082115b612a7e5760405162461bcd60e51b815260206004820152602860248201527f556e697377617056324c6962726172793a20494e53554646494349454e545f4c604482015267495155494449545960c01b60648201526084016104aa565b6000612a8c856103e5612c8b565b90506000612a9a8285612c8b565b90506000612ab483612aae886103e8612c8b565b90612cf2565b9050612ac08183613f94565b979650505050505050565b600080826001600160a01b0316846001600160a01b031603612b3d5760405162461bcd60e51b815260206004820152602560248201527f556e697377617056324c6962726172793a204944454e544943414c5f41444452604482015264455353455360d81b60648201526084016104aa565b826001600160a01b0316846001600160a01b031610612b5d578284612b60565b83835b90925090506001600160a01b0382166105285760405162461bcd60e51b815260206004820152601e60248201527f556e697377617056324c6962726172793a205a45524f5f41444452455353000060448201526064016104aa565b606082471015612c1c5760405162461bcd60e51b815260206004820152602660248201527f416464726573733a20696e73756666696369656e742062616c616e636520666f6044820152651c8818d85b1b60d21b60648201526084016104aa565b600080866001600160a01b03168587604051612c389190614094565b60006040518083038185875af1925050503d8060008114612c75576040519150601f19603f3d011682016040523d82523d6000602084013e612c7a565b606091505b5091509150612ac087838387612d47565b6000811580612caf57508282612ca18183613f7d565b9250612cad9083613f94565b145b6115605760405162461bcd60e51b815260206004820152601460248201527364732d6d6174682d6d756c2d6f766572666c6f7760601b60448201526064016104aa565b600082612cff8382613c78565b91508110156115605760405162461bcd60e51b815260206004820152601460248201527364732d6d6174682d6164642d6f766572666c6f7760601b60448201526064016104aa565b60608315612db6578251600003612daf576001600160a01b0385163b612daf5760405162461bcd60e51b815260206004820152601d60248201527f416464726573733a2063616c6c20746f206e6f6e2d636f6e747261637400000060448201526064016104aa565b50816128d8565b6128d88383815115612dcb5781518083602001fd5b8060405162461bcd60e51b81526004016104aa9190614139565b6001600160a01b0381168114612dfa57600080fd5b50565b8035612e0881612de5565b919050565b8015158114612dfa57600080fd5b600080600060608486031215612e3057600080fd5b8335612e3b81612de5565b92506020840135612e4b81612de5565b91506040840135612e5b81612e0d565b809150509250925092565b60008060408385031215612e7957600080fd5b8235612e8481612de5565b91506020830135612e9481612de5565b809150509250929050565b60008083601f840112612eb157600080fd5b5081356001600160401b03811115612ec857600080fd5b6020830191508360208260051b850101111561052857600080fd5b60008060008060408587031215612ef957600080fd5b84356001600160401b0380821115612f1057600080fd5b612f1c88838901612e9f565b90965094506020870135915080821115612f3557600080fd5b50612f4287828801612e9f565b95989497509550505050565b600080600060608486031215612f6357600080fd5b833592506020840135612f7581612de5565b91506040840135612e5b81612de5565b634e487b7160e01b600052604160045260246000fd5b604051606081016001600160401b0381118282101715612fbd57612fbd612f85565b60405290565b60405160a081016001600160401b0381118282101715612fbd57612fbd612f85565b60405160e081016001600160401b0381118282101715612fbd57612fbd612f85565b604051608081016001600160401b0381118282101715612fbd57612fbd612f85565b60405161016081016001600160401b0381118282101715612fbd57612fbd612f85565b604051601f8201601f191681016001600160401b038111828210171561307457613074612f85565b604052919050565b60006001600160401b0382111561309557613095612f85565b5060051b60200190565b600082601f8301126130b057600080fd5b813560206130c56130c08361307c565b61304c565b828152606092830285018201928282019190878511156130e457600080fd5b8387015b858110156131465781818a0312156131005760008081fd5b613108612f9b565b813561311381612de5565b81528186013561312281612de5565b8187015260408281013561313581612e0d565b9082015284529284019281016130e8565b5090979650505050505050565b6000806040838503121561316657600080fd5b8235915060208301356001600160401b0381111561318357600080fd5b61318f8582860161309f565b9150509250929050565b6020808252825182820181905260009190848201906040850190845b818110156131d1578351835292840192918401916001016131b5565b50909695505050505050565b803561ffff81168114612e0857600080fd5b60006001600160401b0382111561320857613208612f85565b50601f01601f191660200190565b600082601f83011261322757600080fd5b81356132356130c0826131ef565b81815284602083860101111561324a57600080fd5b816020850160208301376000918101602001919091529392505050565b60008060008060008060c0878903121561328057600080fd5b613289876131dd565b955060208701356001600160401b03808211156132a557600080fd5b6132b18a838b01613216565b965060408901359550606089013591506132ca82612de5565b9093506080880135925060a088013590808211156132e757600080fd5b506132f489828a01613216565b9150509295509295509295565b60006020828403121561331357600080fd5b813561179f81612de5565b6001600160f81b0319815260609390931b6001600160601b03191660018401526015830191909152603582015260550190565b634e487b7160e01b600052603260045260246000fd5b60ff81168114612dfa57600080fd5b60006020828403121561338857600080fd5b813561179f81613367565b6000808335601e198436030181126133aa57600080fd5b8301803591506001600160401b038211156133c457600080fd5b60200191503681900382131561052857600080fd5b600082601f8301126133ea57600080fd5b813560206133fa6130c08361307c565b82815260059290921b8401810191818101908684111561341957600080fd5b8286015b8481101561343d57803561343081612de5565b835291830191830161341d565b509695505050505050565b6000806040838503121561345b57600080fd5b82356001600160401b038082111561347257600080fd5b61347e868387016133d9565b935060209150818501358181111561349557600080fd5b85019050601f810186136134a857600080fd5b80356134b66130c08261307c565b81815260059190911b820183019083810190888311156134d557600080fd5b928401925b828410156134f3578335825292840192908401906134da565b80955050505050509250929050565b634e487b7160e01b600052601160045260246000fd5b60006001820161352a5761352a613502565b5060010190565b60006020828403121561354357600080fd5b5035919050565b803562ffffff81168114612e0857600080fd5b6000602080838503121561357057600080fd5b82356001600160401b0381111561358657600080fd5b8301601f8101851361359757600080fd5b80356135a56130c08261307c565b81815260a091820283018401918482019190888411156135c457600080fd5b938501935b8385101561363b5780858a0312156135e15760008081fd5b6135e9612fc3565b85358152868601358782015260408087013561360481612de5565b9082015260608681013561361781612de5565b90820152608061362887820161354a565b90820152835293840193918501916135c9565b50979650505050505050565b6000602080838503121561365a57600080fd5b82356001600160401b0381111561367057600080fd5b8301601f8101851361368157600080fd5b803561368f6130c08261307c565b81815260e091820283018401918482019190888411156136ae57600080fd5b938501935b8385101561363b5780858a0312156136cb5760008081fd5b6136d3612fe5565b8535815286860135878201526040808701356136ee81612de5565b9082015260608681013561370181612de5565b9082015260808681013561371481612de5565b9082015260a061372587820161354a565b9082015260c061373687820161354a565b90820152835293840193918501916136b3565b6000602080838503121561375c57600080fd5b82356001600160401b038082111561377357600080fd5b818501915085601f83011261378757600080fd5b81356137956130c08261307c565b81815260059190911b830184019084810190888311156137b457600080fd5b8585015b83811015613849578035858111156137cf57600080fd5b86016080818c03601f190112156137e65760008081fd5b6137ee613007565b8882013581526040808301358a830152606080840135898111156138125760008081fd5b6138208f8d838801016133d9565b83850152506080840135935061383584612e0d565b8201929092528452509186019186016137b8565b5098975050505050505050565b6000602080838503121561386957600080fd5b82356001600160401b038082111561388057600080fd5b818501915085601f83011261389457600080fd5b81356138a26130c08261307c565b81815260059190911b830184019084810190888311156138c157600080fd5b8585015b83811015613849578035858111156138dc57600080fd5b86016080818c03601f190112156138f35760008081fd5b6138fb613007565b8882013581526040808301358a8301526060808401358981111561391f5760008081fd5b61392d8f8d8388010161309f565b9284019290925260809390930135928201929092528452509186019186016138c5565b6000602080838503121561396357600080fd5b82356001600160401b0381111561397957600080fd5b8301601f8101851361398a57600080fd5b80356139986130c08261307c565b818152606091820283018401918482019190888411156139b757600080fd5b938501935b8385101561363b5780858a0312156139d45760008081fd5b6139dc612f9b565b85356139e781612de5565b8152858701356139f681612de5565b8188015260408681013590820152835293840193918501916139bc565b600060208284031215613a2557600080fd5b5051919050565b8181038181111561156057611560613502565b60008060408385031215613a5257600080fd5b8235613a5d81612de5565b946020939093013593505050565b600082601f830112613a7c57600080fd5b81356020613a8c6130c08361307c565b82815260059290921b84018101918181019086841115613aab57600080fd5b8286015b8481101561343d578035613ac281613367565b8352918301918301613aaf565b600082601f830112613ae057600080fd5b81356020613af06130c08361307c565b82815260059290921b84018101918181019086841115613b0f57600080fd5b8286015b8481101561343d5780356001600160401b03811115613b325760008081fd5b613b408986838b0101613216565b845250918301918301613b13565b60008060008385036101a0811215613b6557600080fd5b61016080821215613b7557600080fd5b613b7d613029565b9150613b88866131dd565b8252613b9660208701612dfd565b602083015260408601356040830152606086013560608301526080860135608083015260a086013560a083015260c086013560c0830152613bd960e08701612dfd565b60e0830152610100613bec818801612dfd565b90830152610120868101359083015261014080870135908301529093508401356001600160401b0380821115613c2157600080fd5b613c2d87838801613a6b565b9350610180860135915080821115613c4457600080fd5b50613c5186828701613acf565b9150509250925092565b600060208284031215613c6d57600080fd5b815161179f81612e0d565b8082018082111561156057611560613502565b60005b83811015613ca6578181015183820152602001613c8e565b50506000910152565b600082601f830112613cc057600080fd5b81516020613cd06130c08361307c565b82815260059290921b84018101918181019086841115613cef57600080fd5b8286015b8481101561343d5780516001600160401b03811115613d125760008081fd5b8701603f81018913613d245760008081fd5b848101516040613d366130c0836131ef565b8281528b82848601011115613d4b5760008081fd5b613d5a83898301848701613c8b565b8652505050918301918301613cf3565b600080600060608486031215613d7f57600080fd5b8351613d8a81612de5565b809350506020808501516001600160401b0380821115613da957600080fd5b818701915087601f830112613dbd57600080fd5b8151613dcb6130c08261307c565b81815260059190911b8301840190848101908a831115613dea57600080fd5b938501935b82851015613e11578451613e0281613367565b82529385019390850190613def565b60408a01519097509450505080831115613e2a57600080fd5b5050613c5186828701613caf565b600081518084526020808501945080840160005b83811015613e6b57815160ff1687529582019590820190600101613e4c565b509495945050505050565b60008151808452613e8e816020860160208601613c8b565b601f01601f19169290920160200192915050565b600081518084526020808501808196508360051b8101915082860160005b85811015613eea578284038952613ed8848351613e76565b98850198935090840190600101613ec0565b5091979650505050505050565b604081526000613f0a6040830185613e38565b8281036020840152613f1c8185613ea2565b95945050505050565b602081526000825160a06020840152613f4160c0840182613e76565b905060018060a01b0360208501511660408401526040840151606084015260608401516080840152608084015160a08401528091505092915050565b808202811582820484141761156057611560613502565b600082613fb157634e487b7160e01b600052601260045260246000fd5b500490565b6001600160a01b0384168152606060208201819052600090613fda90830185613e38565b8281036040840152613fec8185613ea2565b9695505050505050565b600061012061ffff8c1683528a602084015289604084015260018060a01b03891660608401528760808401528660a08401528060c08401528551818401525060208501516101408301526040850151606061016084015261405b610180840182613e76565b905082810360e084015261406f8186613e76565b90508281036101008401526140848185613e76565b9c9b505050505050505050505050565b600082516140a6818460208701613c8b565b9190910192915050565b84815283602082015260018060a01b0383166040820152608060608201526000613fec6080830184613e76565b80516001600160701b0381168114612e0857600080fd5b60008060006060848603121561410957600080fd5b614112846140dd565b9250614120602085016140dd565b9150604084015163ffffffff81168114612e5b57600080fd5b60208152600061179f6020830184613e7656fea264697066735822122002d6f0725bb834beec5dd96bb7a734224dcfc10850c0d8f8e834955b923a19d264736f6c63430008110033",
    "linkReferences": {}
  },
  "methodIdentifiers": {
    "factory()": "c45a0155",
    "feeCollector()": "c415b95c",
    "getAmountOut(uint256,address,address)": "5e1e6325",
    "getAmountsOut(uint256,(address,address,bool)[])": "9881fcb4",
    "isPair(address)": "e5e31b13",
    "optimismSwaps(uint8[],bytes[])": "5df63bae",
    "pairCodeHash()": "9aab9248",
    "pairFor(address,address,bool)": "4c1ee03e",
    "sgReceive(uint16,bytes,uint256,address,uint256,bytes)": "ab8236f3",
    "sortTokens(address,address)": "544caa56",
    "stargateRouter()": "a9e56f3c",
    "swapRouter()": "c31c9c07",
    "veloFactory()": "c7f5fd10",
    "veloRouter()": "d5ef98ea",
    "veloWETH()": "fdc09e07"
  },
  "id": 20
}