{
  "abi": [
    {
      "inputs": [
        {
          "internalType": "contract IWETH9",
          "name": "_weth",
          "type": "address"
        },
        {
          "internalType": "address",
          "name": "_feeCollector",
          "type": "address"
        },
        {
          "internalType": "contract ISwapRouter",
          "name": "_swapRouter",
          "type": "address"
        },
        {
          "internalType": "address",
          "name": "_factory",
          "type": "address"
        },
        {
          "internalType": "bytes32",
          "name": "_pairCodeHash",
          "type": "bytes32"
        },
        {
          "internalType": "contract IStargateRouter",
          "name": "_stargateRouter",
          "type": "address"
        }
      ],
      "stateMutability": "nonpayable",
      "type": "constructor"
    },
    {
      "inputs": [],
      "name": "MismatchedLengths",
      "type": "error"
    },
    {
      "inputs": [],
      "name": "MoreThanZero",
      "type": "error"
    },
    {
      "inputs": [],
      "name": "NotEnoughGas",
      "type": "error"
    },
    {
      "inputs": [],
      "name": "NotStgRouter",
      "type": "error"
    },
    {
      "inputs": [],
      "name": "WithdrawFailed",
      "type": "error"
    },
    {
      "anonymous": false,
      "inputs": [
        {
          "indexed": false,
          "internalType": "address",
          "name": "_token",
          "type": "address"
        },
        {
          "indexed": false,
          "internalType": "uint256",
          "name": "_fee",
          "type": "uint256"
        }
      ],
      "name": "FeePaid",
      "type": "event"
    },
    {
      "anonymous": false,
      "inputs": [
        {
          "indexed": true,
          "internalType": "address",
          "name": "token",
          "type": "address"
        },
        {
          "indexed": false,
          "internalType": "uint256",
          "name": "amountLD",
          "type": "uint256"
        },
        {
          "indexed": false,
          "internalType": "bool",
          "name": "failed",
          "type": "bool"
        },
        {
          "indexed": false,
          "internalType": "bool",
          "name": "dustSent",
          "type": "bool"
        }
      ],
      "name": "ReceivedOnDestination",
      "type": "event"
    },
    {
      "inputs": [],
      "name": "factory",
      "outputs": [
        {
          "internalType": "address",
          "name": "",
          "type": "address"
        }
      ],
      "stateMutability": "view",
      "type": "function"
    },
    {
      "inputs": [],
      "name": "feeCollector",
      "outputs": [
        {
          "internalType": "address",
          "name": "",
          "type": "address"
        }
      ],
      "stateMutability": "view",
      "type": "function"
    },
    {
      "inputs": [
        {
          "internalType": "uint256",
          "name": "amountIn",
          "type": "uint256"
        },
        {
          "internalType": "address",
          "name": "tokenIn",
          "type": "address"
        },
        {
          "internalType": "address",
          "name": "tokenOut",
          "type": "address"
        }
      ],
      "name": "getAmountOut",
      "outputs": [
        {
          "internalType": "uint256",
          "name": "amount",
          "type": "uint256"
        },
        {
          "internalType": "bool",
          "name": "stable",
          "type": "bool"
        }
      ],
      "stateMutability": "view",
      "type": "function"
    },
    {
      "inputs": [
        {
          "internalType": "uint256",
          "name": "amountIn",
          "type": "uint256"
        },
        {
          "components": [
            {
              "internalType": "address",
              "name": "from",
              "type": "address"
            },
            {
              "internalType": "address",
              "name": "to",
              "type": "address"
            },
            {
              "internalType": "bool",
              "name": "stable",
              "type": "bool"
            }
          ],
          "internalType": "struct VelodromeAdapter.route[]",
          "name": "routes",
          "type": "tuple[]"
        }
      ],
      "name": "getAmountsOut",
      "outputs": [
        {
          "internalType": "uint256[]",
          "name": "amounts",
          "type": "uint256[]"
        }
      ],
      "stateMutability": "view",
      "type": "function"
    },
    {
      "inputs": [
        {
          "components": [
            {
              "internalType": "uint16",
              "name": "dstChainId",
              "type": "uint16"
            },
            {
              "internalType": "address",
              "name": "token",
              "type": "address"
            },
            {
              "internalType": "uint256",
              "name": "srcPoolId",
              "type": "uint256"
            },
            {
              "internalType": "uint256",
              "name": "dstPoolId",
              "type": "uint256"
            },
            {
              "internalType": "uint256",
              "name": "amount",
              "type": "uint256"
            },
            {
              "internalType": "uint256",
              "name": "amountMin",
              "type": "uint256"
            },
            {
              "internalType": "uint256",
              "name": "dustAmount",
              "type": "uint256"
            },
            {
              "internalType": "address",
              "name": "receiver",
              "type": "address"
            },
            {
              "internalType": "address",
              "name": "to",
              "type": "address"
            },
            {
              "internalType": "uint256",
              "name": "gas",
              "type": "uint256"
            },
            {
              "internalType": "bytes32",
              "name": "srcContext",
              "type": "bytes32"
            }
          ],
          "internalType": "struct StargateOptimism.StargateParams",
          "name": "params",
          "type": "tuple"
        },
        {
          "internalType": "bytes",
          "name": "payload",
          "type": "bytes"
        }
      ],
      "name": "getFee",
      "outputs": [
        {
          "internalType": "uint256",
          "name": "_fee",
          "type": "uint256"
        }
      ],
      "stateMutability": "view",
      "type": "function"
    },
    {
      "inputs": [
        {
          "internalType": "address",
          "name": "pair",
          "type": "address"
        }
      ],
      "name": "isPair",
      "outputs": [
        {
          "internalType": "bool",
          "name": "",
          "type": "bool"
        }
      ],
      "stateMutability": "view",
      "type": "function"
    },
    {
      "inputs": [
        {
          "internalType": "uint8[]",
          "name": "steps",
          "type": "uint8[]"
        },
        {
          "internalType": "bytes[]",
          "name": "data",
          "type": "bytes[]"
        }
      ],
      "name": "optimismSwaps",
      "outputs": [],
      "stateMutability": "payable",
      "type": "function"
    },
    {
      "inputs": [],
      "name": "pairCodeHash",
      "outputs": [
        {
          "internalType": "bytes32",
          "name": "",
          "type": "bytes32"
        }
      ],
      "stateMutability": "view",
      "type": "function"
    },
    {
      "inputs": [
        {
          "internalType": "address",
          "name": "tokenA",
          "type": "address"
        },
        {
          "internalType": "address",
          "name": "tokenB",
          "type": "address"
        },
        {
          "internalType": "bool",
          "name": "stable",
          "type": "bool"
        }
      ],
      "name": "pairFor",
      "outputs": [
        {
          "internalType": "address",
          "name": "pair",
          "type": "address"
        }
      ],
      "stateMutability": "pure",
      "type": "function"
    },
    {
      "inputs": [
        {
          "internalType": "uint16",
          "name": "",
          "type": "uint16"
        },
        {
          "internalType": "bytes",
          "name": "",
          "type": "bytes"
        },
        {
          "internalType": "uint256",
          "name": "",
          "type": "uint256"
        },
        {
          "internalType": "address",
          "name": "_token",
          "type": "address"
        },
        {
          "internalType": "uint256",
          "name": "amountLD",
          "type": "uint256"
        },
        {
          "internalType": "bytes",
          "name": "_payload",
          "type": "bytes"
        }
      ],
      "name": "sgReceive",
      "outputs": [],
      "stateMutability": "nonpayable",
      "type": "function"
    },
    {
      "inputs": [
        {
          "internalType": "address",
          "name": "tokenA",
          "type": "address"
        },
        {
          "internalType": "address",
          "name": "tokenB",
          "type": "address"
        }
      ],
      "name": "sortTokens",
      "outputs": [
        {
          "internalType": "address",
          "name": "token0",
          "type": "address"
        },
        {
          "internalType": "address",
          "name": "token1",
          "type": "address"
        }
      ],
      "stateMutability": "pure",
      "type": "function"
    },
    {
      "inputs": [],
      "name": "stargateRouter",
      "outputs": [
        {
          "internalType": "contract IStargateRouter",
          "name": "",
          "type": "address"
        }
      ],
      "stateMutability": "view",
      "type": "function"
    },
    {
      "inputs": [],
      "name": "swapRouter",
      "outputs": [
        {
          "internalType": "contract ISwapRouter",
          "name": "",
          "type": "address"
        }
      ],
      "stateMutability": "view",
      "type": "function"
    },
    {
      "inputs": [],
      "name": "veloFactory",
      "outputs": [
        {
          "internalType": "address",
          "name": "",
          "type": "address"
        }
      ],
      "stateMutability": "view",
      "type": "function"
    },
    {
      "inputs": [],
      "name": "veloRouter",
      "outputs": [
        {
          "internalType": "address",
          "name": "",
          "type": "address"
        }
      ],
      "stateMutability": "view",
      "type": "function"
    },
    {
      "inputs": [],
      "name": "veloWETH",
      "outputs": [
        {
          "internalType": "contract IWETH",
          "name": "",
          "type": "address"
        }
      ],
      "stateMutability": "view",
      "type": "function"
    },
    {
      "stateMutability": "payable",
      "type": "receive"
    }
  ],
  "bytecode": {
    "object": "0x6101006040526002805460ff191660011790553480156200001f57600080fd5b506040516200475538038062004755833981016040819052620000429162000099565b6001600160a01b03938416608052600080546001600160a01b03191693851693909317909255600155811660a05291821660c0521660e05262000121565b6001600160a01b03811681146200009657600080fd5b50565b60008060008060008060c08789031215620000b357600080fd5b8651620000c08162000080565b6020880151909650620000d38162000080565b6040880151909550620000e68162000080565b6060880151909450620000f98162000080565b608088015160a08901519194509250620001138162000080565b809150509295509295509295565b60805160a05160c05160e051614598620001bd600039600081816102d501528181610d350152611edb01526000818161086901528181610c190152610cac01526000818161024d015281816103dd01528181611353015281816120f201526121190152600081816102a10152818161169a0152818161171e015281816118000152818161191c015281816119a00152611a7901526145986000f3fe6080604052600436106100f75760003560e01c8063ab8236f31161008a578063c7f5fd1011610059578063c7f5fd1014610317578063d5ef98ea1461033f578063e5e31b1314610367578063fdc09e071461039757600080fd5b8063ab8236f31461026f578063c31c9c071461028f578063c415b95c146102c3578063c45a0155146102f757600080fd5b80635e1e6325116100c65780635e1e6325146101c35780639881fcb4146101f85780639aab924814610225578063a9e56f3c1461023b57600080fd5b80634285f6e4146101035780634c1ee03e14610136578063544caa561461016e5780635df63bae146101ae57600080fd5b366100fe57005b600080fd5b34801561010f57600080fd5b5061012361011e36600461336a565b6103b2565b6040519081526020015b60405180910390f35b34801561014257600080fd5b506101566101513660046133c8565b6104c3565b6040516001600160a01b03909116815260200161012d565b34801561017a57600080fd5b5061018e610189366004613413565b610586565b604080516001600160a01b0393841681529290911660208301520161012d565b6101c16101bc366004613490565b61066b565b005b3480156101cf57600080fd5b506101e36101de3660046134fb565b610dd8565b6040805192835290151560208301520161012d565b34801561020457600080fd5b50610218610213366004613604565b61100c565b60405161012d9190613640565b34801561023157600080fd5b5061012360015481565b34801561024757600080fd5b506101567f000000000000000000000000000000000000000000000000000000000000000081565b34801561027b57600080fd5b506101c161028a366004613684565b611348565b34801561029b57600080fd5b506101567f000000000000000000000000000000000000000000000000000000000000000081565b3480156102cf57600080fd5b506101567f000000000000000000000000000000000000000000000000000000000000000081565b34801561030357600080fd5b50600054610156906001600160a01b031681565b34801561032357600080fd5b506101567325cbddb98b35ab1ff77413456b31ec81a6b6b74681565b34801561034b57600080fd5b50610156739c12939390052919af3155f41bf4160fd3666a6f81565b34801561037357600080fd5b5061038761038236600461371e565b611500565b604051901515815260200161012d565b3480156103a357600080fd5b506101566006602160991b0181565b6000808360e001516040516020016103ca919061373b565b60405160208183030381529060405290507f00000000000000000000000000000000000000000000000000000000000000006001600160a01b0316630a51236985600001516001848760405180606001604052808b610120015181526020018b60c0015181526020018b60e00151604051602001610448919061373b565b6040516020818303038152906040528152506040518663ffffffff1660e01b815260040161047a9594939291906137cc565b6040805180830381865afa158015610496573d6000803e3d6000fd5b505050506040513d601f19601f820116820180604052508101906104ba9190613824565b50949350505050565b60008060006104d28686610586565b6040516001600160601b0319606084811b8216602084015283901b16603482015286151560f81b604882015291935091507325cbddb98b35ab1ff77413456b31ec81a6b6b7469060490160408051601f19818403018152908290528051602091820120610564939290917fc1ac28b1c4ebe53c0cff67bab5878c4eb68759bb1e9f73977cd266b247d149f09101613848565b60408051601f1981840301815291905280516020909101209695505050505050565b600080826001600160a01b0316846001600160a01b0316036105ef5760405162461bcd60e51b815260206004820152601b60248201527f526f757465723a204944454e544943414c5f414444524553534553000000000060448201526064015b60405180910390fd5b826001600160a01b0316846001600160a01b03161061060f578284610612565b83835b90925090506001600160a01b0382166106645760405162461bcd60e51b8152602060048201526014602482015273526f757465723a205a45524f5f4144445245535360601b60448201526064016105e6565b9250929050565b60025460ff166001146106ad5760405162461bcd60e51b815260206004820152600a6024820152695245454e5452414e435960b01b60448201526064016105e6565b6002805460ff1916811790558281146106d9576040516373f8993760e11b815260040160405180910390fd5b60005b83811015610dc45760008585838181106106f8576106f861387b565b905060200201602081019061070d91906138a0565b905060001960ff821601610805576000808585858181106107305761073061387b565b905060200281019061074291906138bd565b81019061074f9190613972565b9150915060005b82518110156107fd5760008282815181106107735761077361387b565b6020026020010151116107995760405163fe4155c760e01b815260040160405180910390fd5b6107eb33308484815181106107b0576107b061387b565b60200260200101518685815181106107ca576107ca61387b565b60200260200101516001600160a01b0316611585909392919063ffffffff16565b806107f581613a42565b915050610756565b505050610db1565b60011960ff8216016108e15760008484848181106108255761082561387b565b905060200281019061083791906138bd565b8101906108449190613a5b565b9050600081116108675760405163fe4155c760e01b815260040160405180910390fd5b7f00000000000000000000000000000000000000000000000000000000000000006001600160a01b031663d0e30db0826040518263ffffffff1660e01b81526004016000604051808303818588803b1580156108c257600080fd5b505af11580156108d6573d6000803e3d6000fd5b505050505050610db1565b60021960ff8216016109715760008484848181106109015761090161387b565b905060200281019061091391906138bd565b8101906109209190613a87565b905060005b815181101561096a5760008282815181106109425761094261387b565b60200260200101519050610955816115f6565b5050808061096290613a42565b915050610925565b5050610db1565b60031960ff8216016109f35760008484848181106109915761099161387b565b90506020028101906109a391906138bd565b8101906109b09190613b71565b905060005b815181101561096a576109e08282815181106109d3576109d361387b565b6020026020010151611878565b50806109eb81613a42565b9150506109b5565b60041960ff821601610a75576000848484818110610a1357610a1361387b565b9050602002810190610a2591906138bd565b810190610a329190613c73565b905060005b815181101561096a57610a62828281518110610a5557610a5561387b565b6020026020010151611ac3565b5080610a6d81613a42565b915050610a37565b60091960ff821601610af7576000848484818110610a9557610a9561387b565b9050602002810190610aa791906138bd565b810190610ab49190613d80565b905060005b815181101561096a57610ae4828281518110610ad757610ad761387b565b6020026020010151611ca3565b5080610aef81613a42565b915050610ab9565b600d1960ff821601610bb8576000848484818110610b1757610b1761387b565b9050602002810190610b2991906138bd565b810190610b369190613e7a565b905060005b815181101561096a57610ba6828281518110610b5957610b5961387b565b602002602001015160000151838381518110610b7757610b7761387b565b602002602001015160400151848481518110610b9557610b9561387b565b602002602001015160200151611e3a565b80610bb081613a42565b915050610b3b565b600c1960ff821601610d5a57600080858585818110610bd957610bd961387b565b9050602002810190610beb91906138bd565b810190610bf89190613f3d565b9150915080600003610c91576040516370a0823160e01b81523060048201527f00000000000000000000000000000000000000000000000000000000000000006001600160a01b0316906370a0823190602401602060405180830381865afa158015610c68573d6000803e3d6000fd5b505050506040513d601f19601f82011682018060405250810190610c8c9190613f69565b610c93565b805b604051632e1a7d4d60e01b8152600481018290529091507f00000000000000000000000000000000000000000000000000000000000000006001600160a01b031690632e1a7d4d90602401600060405180830381600087803b158015610cf857600080fd5b505af1158015610d0c573d6000803e3d6000fd5b505050506000610d1b82611f5c565b9050610d3083610d2b8385613f82565b611f81565b6107fd7f000000000000000000000000000000000000000000000000000000000000000082611f81565b600e1960ff821601610db1576000806000868686818110610d7d57610d7d61387b565b9050602002810190610d8f91906138bd565b810190610d9c9190614014565b925092509250610dad838383611fd7565b5050505b5080610dbc81613a42565b9150506106dc565b50506002805460ff19166001179055505050565b6000806000610de9858560016104c3565b60405163e5e31b1360e01b81526001600160a01b038216600482015290915060009081907325cbddb98b35ab1ff77413456b31ec81a6b6b7469063e5e31b1390602401602060405180830381865afa158015610e49573d6000803e3d6000fd5b505050506040513d601f19601f82011682018060405250810190610e6d91906140ec565b15610ee6576040516378a051ad60e11b8152600481018990526001600160a01b03888116602483015284169063f140a35a90604401602060405180830381865afa158015610ebf573d6000803e3d6000fd5b505050506040513d601f19601f82011682018060405250810190610ee39190613f69565b91505b610ef2878760006104c3565b60405163e5e31b1360e01b81526001600160a01b03821660048201529093507325cbddb98b35ab1ff77413456b31ec81a6b6b7469063e5e31b1390602401602060405180830381865afa158015610f4d573d6000803e3d6000fd5b505050506040513d601f19601f82011682018060405250810190610f7191906140ec565b15610fea576040516378a051ad60e11b8152600481018990526001600160a01b03888116602483015284169063f140a35a90604401602060405180830381865afa158015610fc3573d6000803e3d6000fd5b505050506040513d601f19601f82011682018060405250810190610fe79190613f69565b90505b808211610ff957806000610ffd565b8160015b94509450505050935093915050565b60606001825110156110575760405162461bcd60e51b81526020600482015260146024820152730a4deeae8cae47440929cac82989288bea082a8960631b60448201526064016105e6565b8151611064906001614109565b6001600160401b0381111561107b5761107b613110565b6040519080825280602002602001820160405280156110a4578160200160208202803683370190505b50905082156110b3578261113b565b816000815181106110c6576110c661387b565b6020908102919091010151516040516370a0823160e01b81523060048201526001600160a01b03909116906370a0823190602401602060405180830381865afa158015611117573d6000803e3d6000fd5b505050506040513d601f19601f8201168201806040525081019061113b9190613f69565b8160008151811061114e5761114e61387b565b60200260200101818152505060005b82518110156113415760006111ca84838151811061117d5761117d61387b565b60200260200101516000015185848151811061119b5761119b61387b565b6020026020010151602001518685815181106111b9576111b961387b565b6020026020010151604001516104c3565b60405163e5e31b1360e01b81526001600160a01b03821660048201529091507325cbddb98b35ab1ff77413456b31ec81a6b6b7469063e5e31b1390602401602060405180830381865afa158015611225573d6000803e3d6000fd5b505050506040513d601f19601f8201168201806040525081019061124991906140ec565b1561132e57806001600160a01b031663f140a35a84848151811061126f5761126f61387b565b60200260200101518685815181106112895761128961387b565b6020026020010151600001516040518363ffffffff1660e01b81526004016112c49291909182526001600160a01b0316602082015260400190565b602060405180830381865afa1580156112e1573d6000803e3d6000fd5b505050506040513d601f19601f820116820180604052508101906113059190613f69565b83611311846001614109565b815181106113215761132161387b565b6020026020010181815250505b508061133981613a42565b91505061115d565b5092915050565b336001600160a01b037f0000000000000000000000000000000000000000000000000000000000000000161461139157604051638afe477f60e01b815260040160405180910390fd5b600080620186a081815a6113a59190613f82565b90506000806000878060200190518101906113c091906141d7565b925092509250845a10156113f2576113e26001600160a01b038b16848b612229565b47156113f2576113f28347611f81565b604051632efb1dd760e11b81523090635df63bae908690611419908690869060040161432e565b600060405180830381600088803b15801561143357600080fd5b5087f193505050508015611445575060015b611493573d808015611473576040519150601f19603f3d011682016040523d82523d6000602084013e611478565b606091505b5061148d6001600160a01b038c16858c612229565b60019750505b47156114a3576114a38347611f81565b604080518a815288151560208201528715158183015290516001600160a01b038c16917f7f345d6da48bd1339fd428ff45265a0f01258b14ca09dcf8db0c469f4f732fd3919081900360600190a250505050505050505050505050565b60405163e5e31b1360e01b81526001600160a01b03821660048201526000907325cbddb98b35ab1ff77413456b31ec81a6b6b7469063e5e31b1390602401602060405180830381865afa15801561155b573d6000803e3d6000fd5b505050506040513d601f19601f8201168201806040525081019061157f91906140ec565b92915050565b6040516001600160a01b03808516602483015283166044820152606481018290526115f09085906323b872dd60e01b906084015b60408051601f198184030181529190526020810180516001600160e01b03166001600160e01b031990931692909217909152612259565b50505050565b805160009015611607578151611675565b60408083015190516370a0823160e01b81523060048201526001600160a01b03909116906370a0823190602401602060405180830381865afa158015611651573d6000803e3d6000fd5b505050506040513d601f19601f820116820180604052508101906116759190613f69565b8083526040808401519051636eb1769f60e11b81523060048201526001600160a01b037f0000000000000000000000000000000000000000000000000000000000000000811660248301529091169063dd62ed3e90604401602060405180830381865afa1580156116ea573d6000803e3d6000fd5b505050506040513d601f19601f8201168201806040525081019061170e9190613f69565b10156117455761174582604001517f000000000000000000000000000000000000000000000000000000000000000060001961232b565b6040805161010081018252838201516001600160a01b0390811682526060808601518216602080850191825260808089015162ffffff90811687890190815230958801958652429288019283528a5160a08901908152938b015160c08901908152600060e08a01908152995163414bf38960e01b8152895189166004820152955188166024870152905190911660448501529351851660648401525160848301525160a4820152905160c48201529251811660e484015290917f00000000000000000000000000000000000000000000000000000000000000009091169063414bf38990610104015b6020604051808303816000875af115801561184d573d6000803e3d6000fd5b505050506040513d601f19601f820116820180604052508101906118719190613f69565b9392505050565b8051600090156118895781516118f7565b60408083015190516370a0823160e01b81523060048201526001600160a01b03909116906370a0823190602401602060405180830381865afa1580156118d3573d6000803e3d6000fd5b505050506040513d601f19601f820116820180604052508101906118f79190613f69565b8083526040808401519051636eb1769f60e11b81523060048201526001600160a01b037f0000000000000000000000000000000000000000000000000000000000000000811660248301529091169063dd62ed3e90604401602060405180830381865afa15801561196c573d6000803e3d6000fd5b505050506040513d601f19601f820116820180604052508101906119909190613f69565b10156119c7576119c782604001517f000000000000000000000000000000000000000000000000000000000000000060001961232b565b6040805160a08082018352918401519184015160608086015160c08088015160808901516001600160601b031997851b8816928701929092526001600160e81b031960e895861b811660d488015292841b871660d787015290931b1660eb8401521b90911660ee8201526000908061010281016040516020818303038152906040528152602001306001600160a01b0316815260200142815260200184600001518152602001846020015181525090507f00000000000000000000000000000000000000000000000000000000000000006001600160a01b031663c04b8d59826040518263ffffffff1660e01b815260040161182e919061435c565b60008054825160408401516001548493611aea936001600160a01b0390911692909161242b565b90508060018251611afb9190613f82565b81518110611b0b57611b0b61387b565b602002602001015191508260200151821015611b695760405162461bcd60e51b815260206004820152601760248201527f696e73756666696369656e742d616d6f756e742d6f757400000000000000000060448201526064016105e6565b826060015115611c8e576000805460408501518051611c8e93611bcc936001600160a01b03169291611b9d57611b9d61387b565b60200260200101518660400151600181518110611bbc57611bbc61387b565b60200260200101516001546125ae565b8460400151600081518110611be357611be361387b565b60209081029190910101516040516370a0823160e01b81523060048201526001600160a01b03909116906370a0823190602401602060405180830381865afa158015611c33573d6000803e3d6000fd5b505050506040513d601f19601f82011682018060405250810190611c579190613f69565b8560400151600081518110611c6e57611c6e61387b565b60200260200101516001600160a01b03166122299092919063ffffffff16565b611c9d81846040015130612634565b50919050565b6060816060015142811015611cec5760405162461bcd60e51b815260206004820152600f60248201526e149bdd5d195c8e8811561412549151608a1b60448201526064016105e6565b611cfe8360000151846040015161100c565b915082602001518260018451611d149190613f82565b81518110611d2457611d2461387b565b60200260200101511015611d855760405162461bcd60e51b815260206004820152602260248201527f526f757465723a20494e53554646494349454e545f4f55545055545f414d4f55604482015261139560f21b60648201526084016105e6565b611e2b8360400151600081518110611d9f57611d9f61387b565b602002602001015160000151611e0b8560400151600081518110611dc557611dc561387b565b6020026020010151600001518660400151600081518110611de857611de861387b565b60200260200101516020015187604001516000815181106111b9576111b961387b565b84600081518110611e1e57611e1e61387b565b602002602001015161280b565b611c9d828460400151306128f3565b81600003611eaf576040516370a0823160e01b81523060048201526001600160a01b038416906370a0823190602401602060405180830381865afa158015611e86573d6000803e3d6000fd5b505050506040513d601f19601f82011682018060405250810190611eaa9190613f69565b611eb1565b815b91506000611ebe83611f5c565b9050611eca8184613f82565b9250611f006001600160a01b0385167f000000000000000000000000000000000000000000000000000000000000000083612229565b611f146001600160a01b0385168385612229565b604080516001600160a01b0386168152602081018390527f075a2720282fdf622141dae0b048ef90a21a7e57c134c76912d19d006b3b3f6f910160405180910390a150505050565b6000612710611f6d8361270b6143b4565b611f7791906143cb565b61157f9083613f82565b600080600080600085875af1905080611fd25760405162461bcd60e51b815260206004820152601360248201527211551217d514905394d1915497d19052531151606a1b60448201526064016105e6565b505050565b8051825114611ff9576040516373f8993760e11b815260040160405180910390fd5b620186a0836101200151101561202257604051636eb14fc360e11b815260040160405180910390fd5b6000836101000151838360405160200161203e939291906143ed565b604051602081830303815290604052905083608001516000036120ce5760208401516040516370a0823160e01b81523060048201526001600160a01b03909116906370a0823190602401602060405180830381865afa1580156120a5573d6000803e3d6000fd5b505050506040513d601f19601f820116820180604052508101906120c99190613f69565b6120d4565b83608001515b608085018190526020850151612117916001600160a01b03909116907f000000000000000000000000000000000000000000000000000000000000000090612b42565b7f00000000000000000000000000000000000000000000000000000000000000006001600160a01b0316639fbf10fc47866000015187604001518860600151338a608001518b60a0015160405180606001604052808e610120015181526020018e60c0015181526020018e60e00151604051602001612196919061373b565b6040516020818303038152906040528152508d60e001516040516020016121bd919061373b565b6040516020818303038152906040528b6040518b63ffffffff1660e01b81526004016121f19998979695949392919061442d565b6000604051808303818588803b15801561220a57600080fd5b505af115801561221e573d6000803e3d6000fd5b505050505050505050565b6040516001600160a01b038316602482015260448101829052611fd290849063a9059cbb60e01b906064016115b9565b60006122ae826040518060400160405280602081526020017f5361666545524332303a206c6f772d6c6576656c2063616c6c206661696c6564815250856001600160a01b0316612bf49092919063ffffffff16565b805190915015611fd257808060200190518101906122cc91906140ec565b611fd25760405162461bcd60e51b815260206004820152602a60248201527f5361666545524332303a204552433230206f7065726174696f6e20646964206e6044820152691bdd081cdd58d8d9595960b21b60648201526084016105e6565b604080516001600160a01b038481166024830152604480830185905283518084039091018152606490920183526020820180516001600160e01b031663095ea7b360e01b179052915160009283929087169161238791906144aa565b6000604051808303816000865af19150503d80600081146123c4576040519150601f19603f3d011682016040523d82523d6000602084013e6123c9565b606091505b50915091508180156123f35750805115806123f35750808060200190518101906123f391906140ec565b6124245760405162461bcd60e51b8152602060048201526002602482015261534160f01b60448201526064016105e6565b5050505050565b606060028351101561247f5760405162461bcd60e51b815260206004820152601e60248201527f556e697377617056324c6962726172793a20494e56414c49445f50415448000060448201526064016105e6565b82516001600160401b0381111561249857612498613110565b6040519080825280602002602001820160405280156124c1578160200160208202803683370190505b50905083816000815181106124d8576124d861387b565b60200260200101818152505060005b600184516124f59190613f82565b8110156104ba57600080612549888785815181106125155761251561387b565b60200260200101518886600161252b9190614109565b8151811061253b5761253b61387b565b602002602001015188612c0b565b915091506125718484815181106125625761256261387b565b60200260200101518383612cd7565b8461257d856001614109565b8151811061258d5761258d61387b565b602002602001018181525050505080806125a690613a42565b9150506124e7565b60008060006125bd8686612df6565b6040516001600160601b0319606084811b8216602084015283901b16603482015291935091508790604801604051602081830303815290604052805190602001208560405160200161261193929190613848565b60408051601f198184030181529190528051602090910120979650505050505050565b60005b600183516126459190613f82565b8110156115f0576000808483815181106126615761266161387b565b6020026020010151858460016126779190614109565b815181106126875761268761387b565b602002602001015191509150600061269f8383612df6565b5090506000876126b0866001614109565b815181106126c0576126c061387b565b60200260200101519050600080836001600160a01b0316866001600160a01b0316146126ee578260006126f2565b6000835b91509150600060028a516127069190613f82565b8810612712578861273f565b60005461273f906001600160a01b0316878c61272f8c6002614109565b81518110611bbc57611bbc61387b565b905061276260008054906101000a90046001600160a01b031688886001546125ae565b6001600160a01b031663022c0d9f84848460006040519080825280601f01601f19166020018201604052801561279f576020820181803683370190505b506040518563ffffffff1660e01b81526004016127bf94939291906144c6565b600060405180830381600087803b1580156127d957600080fd5b505af11580156127ed573d6000803e3d6000fd5b5050505050505050505050808061280390613a42565b915050612637565b6000836001600160a01b03163b1161282257600080fd5b604080516001600160a01b038481166024830152604480830185905283518084039091018152606490920183526020820180516001600160e01b031663a9059cbb60e01b179052915160009283929087169161287e91906144aa565b6000604051808303816000865af19150503d80600081146128bb576040519150601f19603f3d011682016040523d82523d6000602084013e6128c0565b606091505b50915091508180156128ea5750805115806128ea5750808060200190518101906128ea91906140ec565b61242457600080fd5b60005b82518110156115f05760006129458483815181106129165761291661387b565b6020026020010151600001518584815181106129345761293461387b565b602002602001015160200151610586565b509050600085612956846001614109565b815181106129665761296661387b565b60200260200101519050600080836001600160a01b031687868151811061298f5761298f61387b565b6020026020010151600001516001600160a01b0316146129b1578260006129b5565b6000835b915091506000600188516129c99190613f82565b86106129d55786612a48565b612a48886129e4886001614109565b815181106129f4576129f461387b565b60200260200101516000015189886001612a0e9190614109565b81518110612a1e57612a1e61387b565b6020026020010151602001518a896001612a389190614109565b815181106111b9576111b961387b565b9050612a9b888781518110612a5f57612a5f61387b565b602002602001015160000151898881518110612a7d57612a7d61387b565b6020026020010151602001518a89815181106111b9576111b961387b565b6001600160a01b031663022c0d9f84848460006040519080825280601f01601f191660200182016040528015612ad8576020820181803683370190505b506040518563ffffffff1660e01b8152600401612af894939291906144c6565b600060405180830381600087803b158015612b1257600080fd5b505af1158015612b26573d6000803e3d6000fd5b5050505050505050508080612b3a90613a42565b9150506128f6565b604051636eb1769f60e11b81523060048201526001600160a01b038381166024830152600091839186169063dd62ed3e90604401602060405180830381865afa158015612b93573d6000803e3d6000fd5b505050506040513d601f19601f82011682018060405250810190612bb79190613f69565b612bc19190614109565b6040516001600160a01b0385166024820152604481018290529091506115f090859063095ea7b360e01b906064016115b9565b6060612c038484600085612ee6565b949350505050565b6000806000612c1a8686612df6565b509050600080612c2c898989896125ae565b6001600160a01b0316630902f1ac6040518163ffffffff1660e01b8152600401606060405180830381865afa158015612c69573d6000803e3d6000fd5b505050506040513d601f19601f82011682018060405250810190612c8d919061450a565b506001600160701b031691506001600160701b03169150826001600160a01b0316886001600160a01b031614612cc4578082612cc7565b81815b909a909950975050505050505050565b6000808411612d3c5760405162461bcd60e51b815260206004820152602b60248201527f556e697377617056324c6962726172793a20494e53554646494349454e545f4960448201526a1394155517d05353d5539560aa1b60648201526084016105e6565b600083118015612d4c5750600082115b612da95760405162461bcd60e51b815260206004820152602860248201527f556e697377617056324c6962726172793a20494e53554646494349454e545f4c604482015267495155494449545960c01b60648201526084016105e6565b6000612db7856103e5612fb6565b90506000612dc58285612fb6565b90506000612ddf83612dd9886103e8612fb6565b9061301d565b9050612deb81836143cb565b979650505050505050565b600080826001600160a01b0316846001600160a01b031603612e685760405162461bcd60e51b815260206004820152602560248201527f556e697377617056324c6962726172793a204944454e544943414c5f41444452604482015264455353455360d81b60648201526084016105e6565b826001600160a01b0316846001600160a01b031610612e88578284612e8b565b83835b90925090506001600160a01b0382166106645760405162461bcd60e51b815260206004820152601e60248201527f556e697377617056324c6962726172793a205a45524f5f41444452455353000060448201526064016105e6565b606082471015612f475760405162461bcd60e51b815260206004820152602660248201527f416464726573733a20696e73756666696369656e742062616c616e636520666f6044820152651c8818d85b1b60d21b60648201526084016105e6565b600080866001600160a01b03168587604051612f6391906144aa565b60006040518083038185875af1925050503d8060008114612fa0576040519150601f19603f3d011682016040523d82523d6000602084013e612fa5565b606091505b5091509150612deb87838387613072565b6000811580612fda57508282612fcc81836143b4565b9250612fd890836143cb565b145b61157f5760405162461bcd60e51b815260206004820152601460248201527364732d6d6174682d6d756c2d6f766572666c6f7760601b60448201526064016105e6565b60008261302a8382614109565b915081101561157f5760405162461bcd60e51b815260206004820152601460248201527364732d6d6174682d6164642d6f766572666c6f7760601b60448201526064016105e6565b606083156130e15782516000036130da576001600160a01b0385163b6130da5760405162461bcd60e51b815260206004820152601d60248201527f416464726573733a2063616c6c20746f206e6f6e2d636f6e747261637400000060448201526064016105e6565b5081612c03565b612c0383838151156130f65781518083602001fd5b8060405162461bcd60e51b81526004016105e6919061454f565b634e487b7160e01b600052604160045260246000fd5b60405161016081016001600160401b038111828210171561314957613149613110565b60405290565b604051606081016001600160401b038111828210171561314957613149613110565b60405160a081016001600160401b038111828210171561314957613149613110565b60405160e081016001600160401b038111828210171561314957613149613110565b604051608081016001600160401b038111828210171561314957613149613110565b604051601f8201601f191681016001600160401b03811182821017156131ff576131ff613110565b604052919050565b803561ffff8116811461321957600080fd5b919050565b6001600160a01b038116811461323357600080fd5b50565b80356132198161321e565b6000610160828403121561325457600080fd5b61325c613126565b905061326782613207565b815261327560208301613236565b602082015260408201356040820152606082013560608201526080820135608082015260a082013560a082015260c082013560c08201526132b860e08301613236565b60e08201526101006132cb818401613236565b9082015261012082810135908201526101409182013591810191909152919050565b60006001600160401b0382111561330657613306613110565b50601f01601f191660200190565b600082601f83011261332557600080fd5b8135613338613333826132ed565b6131d7565b81815284602083860101111561334d57600080fd5b816020850160208301376000918101602001919091529392505050565b600080610180838503121561337e57600080fd5b6133888484613241565b91506101608301356001600160401b038111156133a457600080fd5b6133b085828601613314565b9150509250929050565b801515811461323357600080fd5b6000806000606084860312156133dd57600080fd5b83356133e88161321e565b925060208401356133f88161321e565b91506040840135613408816133ba565b809150509250925092565b6000806040838503121561342657600080fd5b82356134318161321e565b915060208301356134418161321e565b809150509250929050565b60008083601f84011261345e57600080fd5b5081356001600160401b0381111561347557600080fd5b6020830191508360208260051b850101111561066457600080fd5b600080600080604085870312156134a657600080fd5b84356001600160401b03808211156134bd57600080fd5b6134c98883890161344c565b909650945060208701359150808211156134e257600080fd5b506134ef8782880161344c565b95989497509550505050565b60008060006060848603121561351057600080fd5b8335925060208401356135228161321e565b915060408401356134088161321e565b60006001600160401b0382111561354b5761354b613110565b5060051b60200190565b600082601f83011261356657600080fd5b8135602061357661333383613532565b8281526060928302850182019282820191908785111561359557600080fd5b8387015b858110156135f75781818a0312156135b15760008081fd5b6135b961314f565b81356135c48161321e565b8152818601356135d38161321e565b818701526040828101356135e6816133ba565b908201528452928401928101613599565b5090979650505050505050565b6000806040838503121561361757600080fd5b8235915060208301356001600160401b0381111561363457600080fd5b6133b085828601613555565b6020808252825182820181905260009190848201906040850190845b818110156136785783518352928401929184019160010161365c565b50909695505050505050565b60008060008060008060c0878903121561369d57600080fd5b6136a687613207565b955060208701356001600160401b03808211156136c257600080fd5b6136ce8a838b01613314565b965060408901359550606089013591506136e78261321e565b9093506080880135925060a0880135908082111561370457600080fd5b5061371189828a01613314565b9150509295509295509295565b60006020828403121561373057600080fd5b81356118718161321e565b60609190911b6001600160601b031916815260140190565b60005b8381101561376e578181015183820152602001613756565b50506000910152565b6000815180845261378f816020860160208601613753565b601f01601f19169290920160200192915050565b80518252602081015160208301526000604082015160606040850152612c036060850182613777565b61ffff8616815260ff8516602082015260a0604082015260006137f260a0830186613777565b82810360608401526138048186613777565b9050828103608084015261381881856137a3565b98975050505050505050565b6000806040838503121561383757600080fd5b505080516020909101519092909150565b6001600160f81b0319815260609390931b6001600160601b03191660018401526015830191909152603582015260550190565b634e487b7160e01b600052603260045260246000fd5b60ff8116811461323357600080fd5b6000602082840312156138b257600080fd5b813561187181613891565b6000808335601e198436030181126138d457600080fd5b8301803591506001600160401b038211156138ee57600080fd5b60200191503681900382131561066457600080fd5b600082601f83011261391457600080fd5b8135602061392461333383613532565b82815260059290921b8401810191818101908684111561394357600080fd5b8286015b8481101561396757803561395a8161321e565b8352918301918301613947565b509695505050505050565b6000806040838503121561398557600080fd5b82356001600160401b038082111561399c57600080fd5b6139a886838701613903565b93506020915081850135818111156139bf57600080fd5b85019050601f810186136139d257600080fd5b80356139e061333382613532565b81815260059190911b820183019083810190888311156139ff57600080fd5b928401925b82841015613a1d57833582529284019290840190613a04565b80955050505050509250929050565b634e487b7160e01b600052601160045260246000fd5b600060018201613a5457613a54613a2c565b5060010190565b600060208284031215613a6d57600080fd5b5035919050565b803562ffffff8116811461321957600080fd5b60006020808385031215613a9a57600080fd5b82356001600160401b03811115613ab057600080fd5b8301601f81018513613ac157600080fd5b8035613acf61333382613532565b81815260a09182028301840191848201919088841115613aee57600080fd5b938501935b83851015613b655780858a031215613b0b5760008081fd5b613b13613171565b853581528686013587820152604080870135613b2e8161321e565b90820152606086810135613b418161321e565b908201526080613b52878201613a74565b9082015283529384019391850191613af3565b50979650505050505050565b60006020808385031215613b8457600080fd5b82356001600160401b03811115613b9a57600080fd5b8301601f81018513613bab57600080fd5b8035613bb961333382613532565b81815260e09182028301840191848201919088841115613bd857600080fd5b938501935b83851015613b655780858a031215613bf55760008081fd5b613bfd613193565b853581528686013587820152604080870135613c188161321e565b90820152606086810135613c2b8161321e565b90820152608086810135613c3e8161321e565b9082015260a0613c4f878201613a74565b9082015260c0613c60878201613a74565b9082015283529384019391850191613bdd565b60006020808385031215613c8657600080fd5b82356001600160401b0380821115613c9d57600080fd5b818501915085601f830112613cb157600080fd5b8135613cbf61333382613532565b81815260059190911b83018401908481019088831115613cde57600080fd5b8585015b83811015613d7357803585811115613cf957600080fd5b86016080818c03601f19011215613d105760008081fd5b613d186131b5565b8882013581526040808301358a83015260608084013589811115613d3c5760008081fd5b613d4a8f8d83880101613903565b838501525060808401359350613d5f846133ba565b820192909252845250918601918601613ce2565b5098975050505050505050565b60006020808385031215613d9357600080fd5b82356001600160401b0380821115613daa57600080fd5b818501915085601f830112613dbe57600080fd5b8135613dcc61333382613532565b81815260059190911b83018401908481019088831115613deb57600080fd5b8585015b83811015613d7357803585811115613e0657600080fd5b86016080818c03601f19011215613e1d5760008081fd5b613e256131b5565b8882013581526040808301358a83015260608084013589811115613e495760008081fd5b613e578f8d83880101613555565b928401929092526080939093013592820192909252845250918601918601613def565b60006020808385031215613e8d57600080fd5b82356001600160401b03811115613ea357600080fd5b8301601f81018513613eb457600080fd5b8035613ec261333382613532565b81815260609182028301840191848201919088841115613ee157600080fd5b938501935b83851015613b655780858a031215613efe5760008081fd5b613f0661314f565b8535613f118161321e565b815285870135613f208161321e565b818801526040868101359082015283529384019391850191613ee6565b60008060408385031215613f5057600080fd5b8235613f5b8161321e565b946020939093013593505050565b600060208284031215613f7b57600080fd5b5051919050565b8181038181111561157f5761157f613a2c565b600082601f830112613fa657600080fd5b81356020613fb661333383613532565b82815260059290921b84018101918181019086841115613fd557600080fd5b8286015b848110156139675780356001600160401b03811115613ff85760008081fd5b6140068986838b0101613314565b845250918301918301613fd9565b60008060006101a0848603121561402a57600080fd5b6140348585613241565b92506101608401356001600160401b038082111561405157600080fd5b818601915086601f83011261406557600080fd5b8135602061407561333383613532565b82815260059290921b8401810191818101908a84111561409457600080fd5b948201945b838610156140bb5785356140ac81613891565b82529482019490820190614099565b96505050506101808601359150808211156140d557600080fd5b506140e286828701613f95565b9150509250925092565b6000602082840312156140fe57600080fd5b8151611871816133ba565b8082018082111561157f5761157f613a2c565b600082601f83011261412d57600080fd5b8151602061413d61333383613532565b82815260059290921b8401810191818101908684111561415c57600080fd5b8286015b848110156139675780516001600160401b0381111561417f5760008081fd5b8701603f810189136141915760008081fd5b8481015160406141a3613333836132ed565b8281528b828486010111156141b85760008081fd5b6141c783898301848701613753565b8652505050918301918301614160565b6000806000606084860312156141ec57600080fd5b83516141f78161321e565b809350506020808501516001600160401b038082111561421657600080fd5b818701915087601f83011261422a57600080fd5b815161423861333382613532565b81815260059190911b8301840190848101908a83111561425757600080fd5b938501935b8285101561427e57845161426f81613891565b8252938501939085019061425c565b60408a0151909750945050508083111561429757600080fd5b50506140e28682870161411c565b600081518084526020808501945080840160005b838110156142d857815160ff16875295820195908201906001016142b9565b509495945050505050565b600082825180855260208086019550808260051b84010181860160005b848110156135f757601f1986840301895261431c838351613777565b98840198925090830190600101614300565b60408152600061434160408301856142a5565b828103602084015261435381856142e3565b95945050505050565b602081526000825160a0602084015261437860c0840182613777565b905060018060a01b0360208501511660408401526040840151606084015260608401516080840152608084015160a08401528091505092915050565b808202811582820484141761157f5761157f613a2c565b6000826143e857634e487b7160e01b600052601260045260246000fd5b500490565b6001600160a01b0384168152606060208201819052600090614411908301856142a5565b828103604084015261442381856142e3565b9695505050505050565b600061012061ffff8c1683528a602084015289604084015260018060a01b03891660608401528760808401528660a08401528060c0840152614471818401876137a3565b905082810360e08401526144858186613777565b905082810361010084015261449a8185613777565b9c9b505050505050505050505050565b600082516144bc818460208701613753565b9190910192915050565b84815283602082015260018060a01b03831660408201526080606082015260006144236080830184613777565b80516001600160701b038116811461321957600080fd5b60008060006060848603121561451f57600080fd5b614528846144f3565b9250614536602085016144f3565b9150604084015163ffffffff8116811461340857600080fd5b602081526000611871602083018461377756fea26469706673582212207181c13bd8b5baf53de54836f3a59461a171dc195f389aeada756eb6e4aabfb964736f6c63430008110033",
    "linkReferences": {}
  },
  "methodIdentifiers": {
    "factory()": "c45a0155",
    "feeCollector()": "c415b95c",
    "getAmountOut(uint256,address,address)": "5e1e6325",
    "getAmountsOut(uint256,(address,address,bool)[])": "9881fcb4",
    "getFee((uint16,address,uint256,uint256,uint256,uint256,uint256,address,address,uint256,bytes32),bytes)": "4285f6e4",
    "isPair(address)": "e5e31b13",
    "optimismSwaps(uint8[],bytes[])": "5df63bae",
    "pairCodeHash()": "9aab9248",
    "pairFor(address,address,bool)": "4c1ee03e",
    "sgReceive(uint16,bytes,uint256,address,uint256,bytes)": "ab8236f3",
    "sortTokens(address,address)": "544caa56",
    "stargateRouter()": "a9e56f3c",
    "swapRouter()": "c31c9c07",
    "veloFactory()": "c7f5fd10",
    "veloRouter()": "d5ef98ea",
    "veloWETH()": "fdc09e07"
  },
  "id": 37
}