{
  "abi": [
    {
      "inputs": [
        {
          "internalType": "contract IWETH9",
          "name": "_weth",
          "type": "address"
        },
        {
          "internalType": "address",
          "name": "_feeCollector",
          "type": "address"
        },
        {
          "internalType": "contract ISwapRouter",
          "name": "_swapRouter",
          "type": "address"
        },
        {
          "internalType": "address",
          "name": "_factory",
          "type": "address"
        },
        {
          "internalType": "bytes32",
          "name": "_pairCodeHash",
          "type": "bytes32"
        },
        {
          "internalType": "contract IStargateRouter",
          "name": "_stargateRouter",
          "type": "address"
        }
      ],
      "stateMutability": "nonpayable",
      "type": "constructor"
    },
    {
      "inputs": [],
      "name": "MismatchedLengths",
      "type": "error"
    },
    {
      "inputs": [],
      "name": "MoreThanZero",
      "type": "error"
    },
    {
      "inputs": [],
      "name": "NotEnoughGas",
      "type": "error"
    },
    {
      "inputs": [],
      "name": "NotStgRouter",
      "type": "error"
    },
    {
      "inputs": [],
      "name": "WithdrawFailed",
      "type": "error"
    },
    {
      "anonymous": false,
      "inputs": [
        {
          "indexed": false,
          "internalType": "address",
          "name": "_token",
          "type": "address"
        },
        {
          "indexed": false,
          "internalType": "uint256",
          "name": "_fee",
          "type": "uint256"
        }
      ],
      "name": "FeePaid",
      "type": "event"
    },
    {
      "anonymous": false,
      "inputs": [
        {
          "indexed": true,
          "internalType": "address",
          "name": "token",
          "type": "address"
        },
        {
          "indexed": false,
          "internalType": "uint256",
          "name": "amountLD",
          "type": "uint256"
        },
        {
          "indexed": false,
          "internalType": "bool",
          "name": "failed",
          "type": "bool"
        },
        {
          "indexed": false,
          "internalType": "bool",
          "name": "dustSent",
          "type": "bool"
        }
      ],
      "name": "ReceivedOnDestination",
      "type": "event"
    },
    {
      "inputs": [],
      "name": "factory",
      "outputs": [
        {
          "internalType": "address",
          "name": "",
          "type": "address"
        }
      ],
      "stateMutability": "view",
      "type": "function"
    },
    {
      "inputs": [],
      "name": "feeCollector",
      "outputs": [
        {
          "internalType": "address",
          "name": "",
          "type": "address"
        }
      ],
      "stateMutability": "view",
      "type": "function"
    },
    {
      "inputs": [
        {
          "internalType": "uint256",
          "name": "amountIn",
          "type": "uint256"
        },
        {
          "internalType": "address",
          "name": "tokenIn",
          "type": "address"
        },
        {
          "internalType": "address",
          "name": "tokenOut",
          "type": "address"
        }
      ],
      "name": "getAmountOut",
      "outputs": [
        {
          "internalType": "uint256",
          "name": "amount",
          "type": "uint256"
        },
        {
          "internalType": "bool",
          "name": "stable",
          "type": "bool"
        }
      ],
      "stateMutability": "view",
      "type": "function"
    },
    {
      "inputs": [
        {
          "internalType": "uint256",
          "name": "amountIn",
          "type": "uint256"
        },
        {
          "components": [
            {
              "internalType": "address",
              "name": "from",
              "type": "address"
            },
            {
              "internalType": "address",
              "name": "to",
              "type": "address"
            },
            {
              "internalType": "bool",
              "name": "stable",
              "type": "bool"
            }
          ],
          "internalType": "struct VelodromeAdapter.route[]",
          "name": "routes",
          "type": "tuple[]"
        }
      ],
      "name": "getAmountsOut",
      "outputs": [
        {
          "internalType": "uint256[]",
          "name": "amounts",
          "type": "uint256[]"
        }
      ],
      "stateMutability": "view",
      "type": "function"
    },
    {
      "inputs": [
        {
          "components": [
            {
              "internalType": "uint16",
              "name": "dstChainId",
              "type": "uint16"
            },
            {
              "internalType": "address",
              "name": "token",
              "type": "address"
            },
            {
              "internalType": "uint256",
              "name": "srcPoolId",
              "type": "uint256"
            },
            {
              "internalType": "uint256",
              "name": "dstPoolId",
              "type": "uint256"
            },
            {
              "internalType": "uint256",
              "name": "amount",
              "type": "uint256"
            },
            {
              "internalType": "uint256",
              "name": "amountMin",
              "type": "uint256"
            },
            {
              "internalType": "uint256",
              "name": "dustAmount",
              "type": "uint256"
            },
            {
              "internalType": "address",
              "name": "receiver",
              "type": "address"
            },
            {
              "internalType": "address",
              "name": "to",
              "type": "address"
            },
            {
              "internalType": "uint256",
              "name": "gas",
              "type": "uint256"
            },
            {
              "internalType": "bytes32",
              "name": "srcContext",
              "type": "bytes32"
            }
          ],
          "internalType": "struct StargateOptimism.StargateParams",
          "name": "params",
          "type": "tuple"
        },
        {
          "internalType": "bytes",
          "name": "payload",
          "type": "bytes"
        }
      ],
      "name": "getFee",
      "outputs": [
        {
          "internalType": "uint256",
          "name": "_fee",
          "type": "uint256"
        }
      ],
      "stateMutability": "view",
      "type": "function"
    },
    {
      "inputs": [
        {
          "internalType": "address",
          "name": "pair",
          "type": "address"
        }
      ],
      "name": "isPair",
      "outputs": [
        {
          "internalType": "bool",
          "name": "",
          "type": "bool"
        }
      ],
      "stateMutability": "view",
      "type": "function"
    },
    {
      "inputs": [
        {
          "internalType": "uint8[]",
          "name": "steps",
          "type": "uint8[]"
        },
        {
          "internalType": "bytes[]",
          "name": "data",
          "type": "bytes[]"
        }
      ],
      "name": "optimismSwaps",
      "outputs": [],
      "stateMutability": "payable",
      "type": "function"
    },
    {
      "inputs": [],
      "name": "pairCodeHash",
      "outputs": [
        {
          "internalType": "bytes32",
          "name": "",
          "type": "bytes32"
        }
      ],
      "stateMutability": "view",
      "type": "function"
    },
    {
      "inputs": [
        {
          "internalType": "address",
          "name": "tokenA",
          "type": "address"
        },
        {
          "internalType": "address",
          "name": "tokenB",
          "type": "address"
        },
        {
          "internalType": "bool",
          "name": "stable",
          "type": "bool"
        }
      ],
      "name": "pairFor",
      "outputs": [
        {
          "internalType": "address",
          "name": "pair",
          "type": "address"
        }
      ],
      "stateMutability": "pure",
      "type": "function"
    },
    {
      "inputs": [
        {
          "internalType": "uint16",
          "name": "",
          "type": "uint16"
        },
        {
          "internalType": "bytes",
          "name": "",
          "type": "bytes"
        },
        {
          "internalType": "uint256",
          "name": "",
          "type": "uint256"
        },
        {
          "internalType": "address",
          "name": "_token",
          "type": "address"
        },
        {
          "internalType": "uint256",
          "name": "amountLD",
          "type": "uint256"
        },
        {
          "internalType": "bytes",
          "name": "_payload",
          "type": "bytes"
        }
      ],
      "name": "sgReceive",
      "outputs": [],
      "stateMutability": "nonpayable",
      "type": "function"
    },
    {
      "inputs": [
        {
          "internalType": "address",
          "name": "tokenA",
          "type": "address"
        },
        {
          "internalType": "address",
          "name": "tokenB",
          "type": "address"
        }
      ],
      "name": "sortTokens",
      "outputs": [
        {
          "internalType": "address",
          "name": "token0",
          "type": "address"
        },
        {
          "internalType": "address",
          "name": "token1",
          "type": "address"
        }
      ],
      "stateMutability": "pure",
      "type": "function"
    },
    {
      "inputs": [],
      "name": "stargateRouter",
      "outputs": [
        {
          "internalType": "contract IStargateRouter",
          "name": "",
          "type": "address"
        }
      ],
      "stateMutability": "view",
      "type": "function"
    },
    {
      "inputs": [],
      "name": "swapRouter",
      "outputs": [
        {
          "internalType": "contract ISwapRouter",
          "name": "",
          "type": "address"
        }
      ],
      "stateMutability": "view",
      "type": "function"
    },
    {
      "inputs": [],
      "name": "veloFactory",
      "outputs": [
        {
          "internalType": "address",
          "name": "",
          "type": "address"
        }
      ],
      "stateMutability": "view",
      "type": "function"
    },
    {
      "inputs": [],
      "name": "veloRouter",
      "outputs": [
        {
          "internalType": "address",
          "name": "",
          "type": "address"
        }
      ],
      "stateMutability": "view",
      "type": "function"
    },
    {
      "inputs": [],
      "name": "veloWETH",
      "outputs": [
        {
          "internalType": "contract IWETH",
          "name": "",
          "type": "address"
        }
      ],
      "stateMutability": "view",
      "type": "function"
    },
    {
      "stateMutability": "payable",
      "type": "receive"
    }
  ],
  "bytecode": {
    "object": "0x6101006040526002805460ff191660011790553480156200001f57600080fd5b506040516200451b3803806200451b833981016040819052620000429162000099565b6001600160a01b03938416608052600080546001600160a01b03191693851693909317909255600155811660a05291821660c0521660e05262000121565b6001600160a01b03811681146200009657600080fd5b50565b60008060008060008060c08789031215620000b357600080fd5b8651620000c08162000080565b6020880151909650620000d38162000080565b6040880151909550620000e68162000080565b6060880151909450620000f98162000080565b608088015160a08901519194509250620001138162000080565b809150509295509295509295565b60805160a05160c05160e05161436c620001af600039600081816102d501528181610dbf0152611d5101526000818161086901528181610ca30152610d3601526000818161024d015281816103dd0152818161134a01528181611f680152611f8f0152600081816102a1015281816115f9015281816116dd01528181611761015261183c015261436c6000f3fe6080604052600436106100f75760003560e01c8063ab8236f31161008a578063c7f5fd1011610059578063c7f5fd1014610317578063d5ef98ea1461033f578063e5e31b1314610367578063fdc09e071461039757600080fd5b8063ab8236f31461026f578063c31c9c071461028f578063c415b95c146102c3578063c45a0155146102f757600080fd5b80635e1e6325116100c65780635e1e6325146101c35780639881fcb4146101f85780639aab924814610225578063a9e56f3c1461023b57600080fd5b80634285f6e4146101035780634c1ee03e14610136578063544caa561461016e5780635df63bae146101ae57600080fd5b366100fe57005b600080fd5b34801561010f57600080fd5b5061012361011e36600461313e565b6103b2565b6040519081526020015b60405180910390f35b34801561014257600080fd5b5061015661015136600461319c565b6104c3565b6040516001600160a01b03909116815260200161012d565b34801561017a57600080fd5b5061018e6101893660046131e7565b610586565b604080516001600160a01b0393841681529290911660208301520161012d565b6101c16101bc366004613264565b61066b565b005b3480156101cf57600080fd5b506101e36101de3660046132cf565b610e62565b6040805192835290151560208301520161012d565b34801561020457600080fd5b506102186102133660046133d8565b611096565b60405161012d9190613414565b34801561023157600080fd5b5061012360015481565b34801561024757600080fd5b506101567f000000000000000000000000000000000000000000000000000000000000000081565b34801561027b57600080fd5b506101c161028a366004613458565b61133f565b34801561029b57600080fd5b506101567f000000000000000000000000000000000000000000000000000000000000000081565b3480156102cf57600080fd5b506101567f000000000000000000000000000000000000000000000000000000000000000081565b34801561030357600080fd5b50600054610156906001600160a01b031681565b34801561032357600080fd5b506101567325cbddb98b35ab1ff77413456b31ec81a6b6b74681565b34801561034b57600080fd5b50610156739c12939390052919af3155f41bf4160fd3666a6f81565b34801561037357600080fd5b506103876103823660046134f2565b6114f7565b604051901515815260200161012d565b3480156103a357600080fd5b506101566006602160991b0181565b6000808360e001516040516020016103ca919061350f565b60405160208183030381529060405290507f00000000000000000000000000000000000000000000000000000000000000006001600160a01b0316630a51236985600001516001848760405180606001604052808b610120015181526020018b60c0015181526020018b60e00151604051602001610448919061350f565b6040516020818303038152906040528152506040518663ffffffff1660e01b815260040161047a9594939291906135a0565b6040805180830381865afa158015610496573d6000803e3d6000fd5b505050506040513d601f19601f820116820180604052508101906104ba91906135f8565b50949350505050565b60008060006104d28686610586565b6040516001600160601b0319606084811b8216602084015283901b16603482015286151560f81b604882015291935091507325cbddb98b35ab1ff77413456b31ec81a6b6b7469060490160408051601f19818403018152908290528051602091820120610564939290917fc1ac28b1c4ebe53c0cff67bab5878c4eb68759bb1e9f73977cd266b247d149f0910161361c565b60408051601f1981840301815291905280516020909101209695505050505050565b600080826001600160a01b0316846001600160a01b0316036105ef5760405162461bcd60e51b815260206004820152601b60248201527f526f757465723a204944454e544943414c5f414444524553534553000000000060448201526064015b60405180910390fd5b826001600160a01b0316846001600160a01b03161061060f578284610612565b83835b90925090506001600160a01b0382166106645760405162461bcd60e51b8152602060048201526014602482015273526f757465723a205a45524f5f4144445245535360601b60448201526064016105e6565b9250929050565b60025460ff166001146106ad5760405162461bcd60e51b815260206004820152600a6024820152695245454e5452414e435960b01b60448201526064016105e6565b6002805460ff1916811790558281146106d9576040516373f8993760e11b815260040160405180910390fd5b60005b83811015610e4e5760008585838181106106f8576106f861364f565b905060200201602081019061070d9190613674565b905060001960ff821601610805576000808585858181106107305761073061364f565b90506020028101906107429190613691565b81019061074f9190613746565b9150915060005b82518110156107fd5760008282815181106107735761077361364f565b6020026020010151116107995760405163fe4155c760e01b815260040160405180910390fd5b6107eb33308484815181106107b0576107b061364f565b60200260200101518685815181106107ca576107ca61364f565b60200260200101516001600160a01b031661157c909392919063ffffffff16565b806107f581613816565b915050610756565b505050610e3b565b60011960ff8216016108e15760008484848181106108255761082561364f565b90506020028101906108379190613691565b810190610844919061382f565b9050600081116108675760405163fe4155c760e01b815260040160405180910390fd5b7f00000000000000000000000000000000000000000000000000000000000000006001600160a01b031663d0e30db0826040518263ffffffff1660e01b81526004016000604051808303818588803b1580156108c257600080fd5b505af11580156108d6573d6000803e3d6000fd5b505050505050610e3b565b60021960ff8216016109715760008484848181106109015761090161364f565b90506020028101906109139190613691565b810190610920919061385b565b905060005b815181101561096a5760008282815181106109425761094261364f565b60200260200101519050610955816115ed565b5050808061096290613816565b915050610925565b5050610e3b565b60031960ff8216016109f35760008484848181106109915761099161364f565b90506020028101906109a39190613691565b8101906109b09190613945565b905060005b815181101561096a576109e08282815181106109d3576109d361364f565b6020026020010151611755565b50806109eb81613816565b9150506109b5565b60041960ff821601610a75576000848484818110610a1357610a1361364f565b9050602002810190610a259190613691565b810190610a329190613a47565b905060005b815181101561096a57610a62828281518110610a5557610a5561364f565b6020026020010151611886565b5080610a6d81613816565b915050610a37565b60091960ff821601610b81576000848484818110610a9557610a9561364f565b9050602002810190610aa79190613691565b810190610ab49190613b54565b905060005b815181101561096a57610b4c739c12939390052919af3155f41bf4160fd3666a6f838381518110610aec57610aec61364f565b602002602001015160000151848481518110610b0a57610b0a61364f565b602002602001015160400151600081518110610b2857610b2861364f565b6020026020010151600001516001600160a01b0316611a669092919063ffffffff16565b610b6e828281518110610b6157610b6161364f565b6020026020010151611b18565b5080610b7981613816565b915050610ab9565b600d1960ff821601610c42576000848484818110610ba157610ba161364f565b9050602002810190610bb39190613691565b810190610bc09190613c4e565b905060005b815181101561096a57610c30828281518110610be357610be361364f565b602002602001015160000151838381518110610c0157610c0161364f565b602002602001015160400151848481518110610c1f57610c1f61364f565b602002602001015160200151611cb0565b80610c3a81613816565b915050610bc5565b600c1960ff821601610de457600080858585818110610c6357610c6361364f565b9050602002810190610c759190613691565b810190610c829190613d11565b9150915080600003610d1b576040516370a0823160e01b81523060048201527f00000000000000000000000000000000000000000000000000000000000000006001600160a01b0316906370a0823190602401602060405180830381865afa158015610cf2573d6000803e3d6000fd5b505050506040513d601f19601f82011682018060405250810190610d169190613d3d565b610d1d565b805b604051632e1a7d4d60e01b8152600481018290529091507f00000000000000000000000000000000000000000000000000000000000000006001600160a01b031690632e1a7d4d90602401600060405180830381600087803b158015610d8257600080fd5b505af1158015610d96573d6000803e3d6000fd5b505050506000610da582611dd2565b9050610dba83610db58385613d56565b611df7565b6107fd7f000000000000000000000000000000000000000000000000000000000000000082611df7565b600e1960ff821601610e3b576000806000868686818110610e0757610e0761364f565b9050602002810190610e199190613691565b810190610e269190613de8565b925092509250610e37838383611e4d565b5050505b5080610e4681613816565b9150506106dc565b50506002805460ff19166001179055505050565b6000806000610e73858560016104c3565b60405163e5e31b1360e01b81526001600160a01b038216600482015290915060009081907325cbddb98b35ab1ff77413456b31ec81a6b6b7469063e5e31b1390602401602060405180830381865afa158015610ed3573d6000803e3d6000fd5b505050506040513d601f19601f82011682018060405250810190610ef79190613ec0565b15610f70576040516378a051ad60e11b8152600481018990526001600160a01b03888116602483015284169063f140a35a90604401602060405180830381865afa158015610f49573d6000803e3d6000fd5b505050506040513d601f19601f82011682018060405250810190610f6d9190613d3d565b91505b610f7c878760006104c3565b60405163e5e31b1360e01b81526001600160a01b03821660048201529093507325cbddb98b35ab1ff77413456b31ec81a6b6b7469063e5e31b1390602401602060405180830381865afa158015610fd7573d6000803e3d6000fd5b505050506040513d601f19601f82011682018060405250810190610ffb9190613ec0565b15611074576040516378a051ad60e11b8152600481018990526001600160a01b03888116602483015284169063f140a35a90604401602060405180830381865afa15801561104d573d6000803e3d6000fd5b505050506040513d601f19601f820116820180604052508101906110719190613d3d565b90505b80821161108357806000611087565b8160015b94509450505050935093915050565b60606001825110156110e15760405162461bcd60e51b81526020600482015260146024820152730a4deeae8cae47440929cac82989288bea082a8960631b60448201526064016105e6565b81516110ee906001613edd565b6001600160401b0381111561110557611105612ee4565b60405190808252806020026020018201604052801561112e578160200160208202803683370190505b50905082816000815181106111455761114561364f565b60200260200101818152505060005b82518110156113385760006111c18483815181106111745761117461364f565b6020026020010151600001518584815181106111925761119261364f565b6020026020010151602001518685815181106111b0576111b061364f565b6020026020010151604001516104c3565b60405163e5e31b1360e01b81526001600160a01b03821660048201529091507325cbddb98b35ab1ff77413456b31ec81a6b6b7469063e5e31b1390602401602060405180830381865afa15801561121c573d6000803e3d6000fd5b505050506040513d601f19601f820116820180604052508101906112409190613ec0565b1561132557806001600160a01b031663f140a35a8484815181106112665761126661364f565b60200260200101518685815181106112805761128061364f565b6020026020010151600001516040518363ffffffff1660e01b81526004016112bb9291909182526001600160a01b0316602082015260400190565b602060405180830381865afa1580156112d8573d6000803e3d6000fd5b505050506040513d601f19601f820116820180604052508101906112fc9190613d3d565b83611308846001613edd565b815181106113185761131861364f565b6020026020010181815250505b508061133081613816565b915050611154565b5092915050565b336001600160a01b037f0000000000000000000000000000000000000000000000000000000000000000161461138857604051638afe477f60e01b815260040160405180910390fd5b600080620186a081815a61139c9190613d56565b90506000806000878060200190518101906113b79190613fab565b925092509250845a10156113e9576113d96001600160a01b038b16848b61209f565b47156113e9576113e98347611df7565b604051632efb1dd760e11b81523090635df63bae9086906114109086908690600401614102565b600060405180830381600088803b15801561142a57600080fd5b5087f19350505050801561143c575060015b61148a573d80801561146a576040519150601f19603f3d011682016040523d82523d6000602084013e61146f565b606091505b506114846001600160a01b038c16858c61209f565b60019750505b471561149a5761149a8347611df7565b604080518a815288151560208201528715158183015290516001600160a01b038c16917f7f345d6da48bd1339fd428ff45265a0f01258b14ca09dcf8db0c469f4f732fd3919081900360600190a250505050505050505050505050565b60405163e5e31b1360e01b81526001600160a01b03821660048201526000907325cbddb98b35ab1ff77413456b31ec81a6b6b7469063e5e31b1390602401602060405180830381865afa158015611552573d6000803e3d6000fd5b505050506040513d601f19601f820116820180604052508101906115769190613ec0565b92915050565b6040516001600160a01b03808516602483015283166044820152606481018290526115e79085906323b872dd60e01b906084015b60408051601f198184030181529190526020810180516001600160e01b03166001600160e01b0319909316929092179091526120cf565b50505050565b600061162282604001517f000000000000000000000000000000000000000000000000000000000000000084600001516121a1565b6040805161010081018252838201516001600160a01b0390811682526060808601518216602080850191825260808089015162ffffff90811687890190815230958801958652429288019283528a5160a08901908152938b015160c08901908152600060e08a01908152995163414bf38960e01b8152895189166004820152955188166024870152905190911660448501529351851660648401525160848301525160a4820152905160c48201529251811660e484015290917f00000000000000000000000000000000000000000000000000000000000000009091169063414bf38990610104015b6020604051808303816000875af115801561172a573d6000803e3d6000fd5b505050506040513d601f19601f8201168201806040525081019061174e9190613d3d565b9392505050565b600061178a82604001517f000000000000000000000000000000000000000000000000000000000000000084600001516121a1565b6040805160a08082018352918401519184015160608086015160c08088015160808901516001600160601b031997851b8816928701929092526001600160e81b031960e895861b811660d488015292841b871660d787015290931b1660eb8401521b90911660ee8201526000908061010281016040516020818303038152906040528152602001306001600160a01b0316815260200142815260200184600001518152602001846020015181525090507f00000000000000000000000000000000000000000000000000000000000000006001600160a01b031663c04b8d59826040518263ffffffff1660e01b815260040161170b9190614130565b600080548251604084015160015484936118ad936001600160a01b039091169290916122a1565b905080600182516118be9190613d56565b815181106118ce576118ce61364f565b60200260200101519150826020015182101561192c5760405162461bcd60e51b815260206004820152601760248201527f696e73756666696369656e742d616d6f756e742d6f757400000000000000000060448201526064016105e6565b826060015115611a51576000805460408501518051611a519361198f936001600160a01b031692916119605761196061364f565b6020026020010151866040015160018151811061197f5761197f61364f565b6020026020010151600154612424565b84604001516000815181106119a6576119a661364f565b60209081029190910101516040516370a0823160e01b81523060048201526001600160a01b03909116906370a0823190602401602060405180830381865afa1580156119f6573d6000803e3d6000fd5b505050506040513d601f19601f82011682018060405250810190611a1a9190613d3d565b8560400151600081518110611a3157611a3161364f565b60200260200101516001600160a01b031661209f9092919063ffffffff16565b611a60818460400151306124aa565b50919050565b604051636eb1769f60e11b81523060048201526001600160a01b038381166024830152600091839186169063dd62ed3e90604401602060405180830381865afa158015611ab7573d6000803e3d6000fd5b505050506040513d601f19601f82011682018060405250810190611adb9190613d3d565b611ae59190613edd565b6040516001600160a01b0385166024820152604481018290529091506115e790859063095ea7b360e01b906064016115b0565b6060816060015142811015611b615760405162461bcd60e51b815260206004820152600f60248201526e149bdd5d195c8e8811561412549151608a1b60448201526064016105e6565b611b7383600001518460400151611096565b915082602001518260018451611b899190613d56565b81518110611b9957611b9961364f565b60200260200101511015611bfa5760405162461bcd60e51b815260206004820152602260248201527f526f757465723a20494e53554646494349454e545f4f55545055545f414d4f55604482015261139560f21b60648201526084016105e6565b611ca18360400151600081518110611c1457611c1461364f565b60200260200101516000015130611c818660400151600081518110611c3b57611c3b61364f565b6020026020010151600001518760400151600081518110611c5e57611c5e61364f565b60200260200101516020015188604001516000815181106111b0576111b061364f565b85600081518110611c9457611c9461364f565b6020026020010151612681565b611a6082846040015130612779565b81600003611d25576040516370a0823160e01b81523060048201526001600160a01b038416906370a0823190602401602060405180830381865afa158015611cfc573d6000803e3d6000fd5b505050506040513d601f19601f82011682018060405250810190611d209190613d3d565b611d27565b815b91506000611d3483611dd2565b9050611d408184613d56565b9250611d766001600160a01b0385167f00000000000000000000000000000000000000000000000000000000000000008361209f565b611d8a6001600160a01b038516838561209f565b604080516001600160a01b0386168152602081018390527f075a2720282fdf622141dae0b048ef90a21a7e57c134c76912d19d006b3b3f6f910160405180910390a150505050565b6000612710611de38361270b614188565b611ded919061419f565b6115769083613d56565b600080600080600085875af1905080611e485760405162461bcd60e51b815260206004820152601360248201527211551217d514905394d1915497d19052531151606a1b60448201526064016105e6565b505050565b8051825114611e6f576040516373f8993760e11b815260040160405180910390fd5b620186a08361012001511015611e9857604051636eb14fc360e11b815260040160405180910390fd5b60008361010001518383604051602001611eb4939291906141c1565b60405160208183030381529060405290508360800151600003611f445760208401516040516370a0823160e01b81523060048201526001600160a01b03909116906370a0823190602401602060405180830381865afa158015611f1b573d6000803e3d6000fd5b505050506040513d601f19601f82011682018060405250810190611f3f9190613d3d565b611f4a565b83608001515b608085018190526020850151611f8d916001600160a01b03909116907f000000000000000000000000000000000000000000000000000000000000000090611a66565b7f00000000000000000000000000000000000000000000000000000000000000006001600160a01b0316639fbf10fc47866000015187604001518860600151338a608001518b60a0015160405180606001604052808e610120015181526020018e60c0015181526020018e60e0015160405160200161200c919061350f565b6040516020818303038152906040528152508d60e00151604051602001612033919061350f565b6040516020818303038152906040528b6040518b63ffffffff1660e01b815260040161206799989796959493929190614201565b6000604051808303818588803b15801561208057600080fd5b505af1158015612094573d6000803e3d6000fd5b505050505050505050565b6040516001600160a01b038316602482015260448101829052611e4890849063a9059cbb60e01b906064016115b0565b6000612124826040518060400160405280602081526020017f5361666545524332303a206c6f772d6c6576656c2063616c6c206661696c6564815250856001600160a01b03166129c89092919063ffffffff16565b805190915015611e4857808060200190518101906121429190613ec0565b611e485760405162461bcd60e51b815260206004820152602a60248201527f5361666545524332303a204552433230206f7065726174696f6e20646964206e6044820152691bdd081cdd58d8d9595960b21b60648201526084016105e6565b604080516001600160a01b038481166024830152604480830185905283518084039091018152606490920183526020820180516001600160e01b031663095ea7b360e01b17905291516000928392908716916121fd919061427e565b6000604051808303816000865af19150503d806000811461223a576040519150601f19603f3d011682016040523d82523d6000602084013e61223f565b606091505b50915091508180156122695750805115806122695750808060200190518101906122699190613ec0565b61229a5760405162461bcd60e51b8152602060048201526002602482015261534160f01b60448201526064016105e6565b5050505050565b60606002835110156122f55760405162461bcd60e51b815260206004820152601e60248201527f556e697377617056324c6962726172793a20494e56414c49445f50415448000060448201526064016105e6565b82516001600160401b0381111561230e5761230e612ee4565b604051908082528060200260200182016040528015612337578160200160208202803683370190505b509050838160008151811061234e5761234e61364f565b60200260200101818152505060005b6001845161236b9190613d56565b8110156104ba576000806123bf8887858151811061238b5761238b61364f565b6020026020010151888660016123a19190613edd565b815181106123b1576123b161364f565b6020026020010151886129df565b915091506123e78484815181106123d8576123d861364f565b60200260200101518383612aab565b846123f3856001613edd565b815181106124035761240361364f565b6020026020010181815250505050808061241c90613816565b91505061235d565b60008060006124338686612bca565b6040516001600160601b0319606084811b8216602084015283901b1660348201529193509150879060480160405160208183030381529060405280519060200120856040516020016124879392919061361c565b60408051601f198184030181529190528051602090910120979650505050505050565b60005b600183516124bb9190613d56565b8110156115e7576000808483815181106124d7576124d761364f565b6020026020010151858460016124ed9190613edd565b815181106124fd576124fd61364f565b60200260200101519150915060006125158383612bca565b509050600087612526866001613edd565b815181106125365761253661364f565b60200260200101519050600080836001600160a01b0316866001600160a01b03161461256457826000612568565b6000835b91509150600060028a5161257c9190613d56565b881061258857886125b5565b6000546125b5906001600160a01b0316878c6125a58c6002613edd565b8151811061197f5761197f61364f565b90506125d860008054906101000a90046001600160a01b03168888600154612424565b6001600160a01b031663022c0d9f84848460006040519080825280601f01601f191660200182016040528015612615576020820181803683370190505b506040518563ffffffff1660e01b8152600401612635949392919061429a565b600060405180830381600087803b15801561264f57600080fd5b505af1158015612663573d6000803e3d6000fd5b5050505050505050505050808061267990613816565b9150506124ad565b6000846001600160a01b03163b1161269857600080fd5b604080516001600160a01b0385811660248301528481166044830152606480830185905283518084039091018152608490920183526020820180516001600160e01b03166323b872dd60e01b17905291516000928392908816916126fc919061427e565b6000604051808303816000865af19150503d8060008114612739576040519150601f19603f3d011682016040523d82523d6000602084013e61273e565b606091505b50915091508180156127685750805115806127685750808060200190518101906127689190613ec0565b61277157600080fd5b505050505050565b60005b82518110156115e75760006127cb84838151811061279c5761279c61364f565b6020026020010151600001518584815181106127ba576127ba61364f565b602002602001015160200151610586565b5090506000856127dc846001613edd565b815181106127ec576127ec61364f565b60200260200101519050600080836001600160a01b03168786815181106128155761281561364f565b6020026020010151600001516001600160a01b0316146128375782600061283b565b6000835b9150915060006001885161284f9190613d56565b861061285b57866128ce565b6128ce8861286a886001613edd565b8151811061287a5761287a61364f565b602002602001015160000151898860016128949190613edd565b815181106128a4576128a461364f565b6020026020010151602001518a8960016128be9190613edd565b815181106111b0576111b061364f565b90506129218887815181106128e5576128e561364f565b6020026020010151600001518988815181106129035761290361364f565b6020026020010151602001518a89815181106111b0576111b061364f565b6001600160a01b031663022c0d9f84848460006040519080825280601f01601f19166020018201604052801561295e576020820181803683370190505b506040518563ffffffff1660e01b815260040161297e949392919061429a565b600060405180830381600087803b15801561299857600080fd5b505af11580156129ac573d6000803e3d6000fd5b50505050505050505080806129c090613816565b91505061277c565b60606129d78484600085612cba565b949350505050565b60008060006129ee8686612bca565b509050600080612a0089898989612424565b6001600160a01b0316630902f1ac6040518163ffffffff1660e01b8152600401606060405180830381865afa158015612a3d573d6000803e3d6000fd5b505050506040513d601f19601f82011682018060405250810190612a6191906142de565b506001600160701b031691506001600160701b03169150826001600160a01b0316886001600160a01b031614612a98578082612a9b565b81815b909a909950975050505050505050565b6000808411612b105760405162461bcd60e51b815260206004820152602b60248201527f556e697377617056324c6962726172793a20494e53554646494349454e545f4960448201526a1394155517d05353d5539560aa1b60648201526084016105e6565b600083118015612b205750600082115b612b7d5760405162461bcd60e51b815260206004820152602860248201527f556e697377617056324c6962726172793a20494e53554646494349454e545f4c604482015267495155494449545960c01b60648201526084016105e6565b6000612b8b856103e5612d8a565b90506000612b998285612d8a565b90506000612bb383612bad886103e8612d8a565b90612df1565b9050612bbf818361419f565b979650505050505050565b600080826001600160a01b0316846001600160a01b031603612c3c5760405162461bcd60e51b815260206004820152602560248201527f556e697377617056324c6962726172793a204944454e544943414c5f41444452604482015264455353455360d81b60648201526084016105e6565b826001600160a01b0316846001600160a01b031610612c5c578284612c5f565b83835b90925090506001600160a01b0382166106645760405162461bcd60e51b815260206004820152601e60248201527f556e697377617056324c6962726172793a205a45524f5f41444452455353000060448201526064016105e6565b606082471015612d1b5760405162461bcd60e51b815260206004820152602660248201527f416464726573733a20696e73756666696369656e742062616c616e636520666f6044820152651c8818d85b1b60d21b60648201526084016105e6565b600080866001600160a01b03168587604051612d37919061427e565b60006040518083038185875af1925050503d8060008114612d74576040519150601f19603f3d011682016040523d82523d6000602084013e612d79565b606091505b5091509150612bbf87838387612e46565b6000811580612dae57508282612da08183614188565b9250612dac908361419f565b145b6115765760405162461bcd60e51b815260206004820152601460248201527364732d6d6174682d6d756c2d6f766572666c6f7760601b60448201526064016105e6565b600082612dfe8382613edd565b91508110156115765760405162461bcd60e51b815260206004820152601460248201527364732d6d6174682d6164642d6f766572666c6f7760601b60448201526064016105e6565b60608315612eb5578251600003612eae576001600160a01b0385163b612eae5760405162461bcd60e51b815260206004820152601d60248201527f416464726573733a2063616c6c20746f206e6f6e2d636f6e747261637400000060448201526064016105e6565b50816129d7565b6129d78383815115612eca5781518083602001fd5b8060405162461bcd60e51b81526004016105e69190614323565b634e487b7160e01b600052604160045260246000fd5b60405161016081016001600160401b0381118282101715612f1d57612f1d612ee4565b60405290565b604051606081016001600160401b0381118282101715612f1d57612f1d612ee4565b60405160a081016001600160401b0381118282101715612f1d57612f1d612ee4565b60405160e081016001600160401b0381118282101715612f1d57612f1d612ee4565b604051608081016001600160401b0381118282101715612f1d57612f1d612ee4565b604051601f8201601f191681016001600160401b0381118282101715612fd357612fd3612ee4565b604052919050565b803561ffff81168114612fed57600080fd5b919050565b6001600160a01b038116811461300757600080fd5b50565b8035612fed81612ff2565b6000610160828403121561302857600080fd5b613030612efa565b905061303b82612fdb565b81526130496020830161300a565b602082015260408201356040820152606082013560608201526080820135608082015260a082013560a082015260c082013560c082015261308c60e0830161300a565b60e082015261010061309f81840161300a565b9082015261012082810135908201526101409182013591810191909152919050565b60006001600160401b038211156130da576130da612ee4565b50601f01601f191660200190565b600082601f8301126130f957600080fd5b813561310c613107826130c1565b612fab565b81815284602083860101111561312157600080fd5b816020850160208301376000918101602001919091529392505050565b600080610180838503121561315257600080fd5b61315c8484613015565b91506101608301356001600160401b0381111561317857600080fd5b613184858286016130e8565b9150509250929050565b801515811461300757600080fd5b6000806000606084860312156131b157600080fd5b83356131bc81612ff2565b925060208401356131cc81612ff2565b915060408401356131dc8161318e565b809150509250925092565b600080604083850312156131fa57600080fd5b823561320581612ff2565b9150602083013561321581612ff2565b809150509250929050565b60008083601f84011261323257600080fd5b5081356001600160401b0381111561324957600080fd5b6020830191508360208260051b850101111561066457600080fd5b6000806000806040858703121561327a57600080fd5b84356001600160401b038082111561329157600080fd5b61329d88838901613220565b909650945060208701359150808211156132b657600080fd5b506132c387828801613220565b95989497509550505050565b6000806000606084860312156132e457600080fd5b8335925060208401356132f681612ff2565b915060408401356131dc81612ff2565b60006001600160401b0382111561331f5761331f612ee4565b5060051b60200190565b600082601f83011261333a57600080fd5b8135602061334a61310783613306565b8281526060928302850182019282820191908785111561336957600080fd5b8387015b858110156133cb5781818a0312156133855760008081fd5b61338d612f23565b813561339881612ff2565b8152818601356133a781612ff2565b818701526040828101356133ba8161318e565b90820152845292840192810161336d565b5090979650505050505050565b600080604083850312156133eb57600080fd5b8235915060208301356001600160401b0381111561340857600080fd5b61318485828601613329565b6020808252825182820181905260009190848201906040850190845b8181101561344c57835183529284019291840191600101613430565b50909695505050505050565b60008060008060008060c0878903121561347157600080fd5b61347a87612fdb565b955060208701356001600160401b038082111561349657600080fd5b6134a28a838b016130e8565b965060408901359550606089013591506134bb82612ff2565b9093506080880135925060a088013590808211156134d857600080fd5b506134e589828a016130e8565b9150509295509295509295565b60006020828403121561350457600080fd5b813561174e81612ff2565b60609190911b6001600160601b031916815260140190565b60005b8381101561354257818101518382015260200161352a565b50506000910152565b60008151808452613563816020860160208601613527565b601f01601f19169290920160200192915050565b805182526020810151602083015260006040820151606060408501526129d7606085018261354b565b61ffff8616815260ff8516602082015260a0604082015260006135c660a083018661354b565b82810360608401526135d8818661354b565b905082810360808401526135ec8185613577565b98975050505050505050565b6000806040838503121561360b57600080fd5b505080516020909101519092909150565b6001600160f81b0319815260609390931b6001600160601b03191660018401526015830191909152603582015260550190565b634e487b7160e01b600052603260045260246000fd5b60ff8116811461300757600080fd5b60006020828403121561368657600080fd5b813561174e81613665565b6000808335601e198436030181126136a857600080fd5b8301803591506001600160401b038211156136c257600080fd5b60200191503681900382131561066457600080fd5b600082601f8301126136e857600080fd5b813560206136f861310783613306565b82815260059290921b8401810191818101908684111561371757600080fd5b8286015b8481101561373b57803561372e81612ff2565b835291830191830161371b565b509695505050505050565b6000806040838503121561375957600080fd5b82356001600160401b038082111561377057600080fd5b61377c868387016136d7565b935060209150818501358181111561379357600080fd5b85019050601f810186136137a657600080fd5b80356137b461310782613306565b81815260059190911b820183019083810190888311156137d357600080fd5b928401925b828410156137f1578335825292840192908401906137d8565b80955050505050509250929050565b634e487b7160e01b600052601160045260246000fd5b60006001820161382857613828613800565b5060010190565b60006020828403121561384157600080fd5b5035919050565b803562ffffff81168114612fed57600080fd5b6000602080838503121561386e57600080fd5b82356001600160401b0381111561388457600080fd5b8301601f8101851361389557600080fd5b80356138a361310782613306565b81815260a091820283018401918482019190888411156138c257600080fd5b938501935b838510156139395780858a0312156138df5760008081fd5b6138e7612f45565b85358152868601358782015260408087013561390281612ff2565b9082015260608681013561391581612ff2565b908201526080613926878201613848565b90820152835293840193918501916138c7565b50979650505050505050565b6000602080838503121561395857600080fd5b82356001600160401b0381111561396e57600080fd5b8301601f8101851361397f57600080fd5b803561398d61310782613306565b81815260e091820283018401918482019190888411156139ac57600080fd5b938501935b838510156139395780858a0312156139c95760008081fd5b6139d1612f67565b8535815286860135878201526040808701356139ec81612ff2565b908201526060868101356139ff81612ff2565b90820152608086810135613a1281612ff2565b9082015260a0613a23878201613848565b9082015260c0613a34878201613848565b90820152835293840193918501916139b1565b60006020808385031215613a5a57600080fd5b82356001600160401b0380821115613a7157600080fd5b818501915085601f830112613a8557600080fd5b8135613a9361310782613306565b81815260059190911b83018401908481019088831115613ab257600080fd5b8585015b83811015613b4757803585811115613acd57600080fd5b86016080818c03601f19011215613ae45760008081fd5b613aec612f89565b8882013581526040808301358a83015260608084013589811115613b105760008081fd5b613b1e8f8d838801016136d7565b838501525060808401359350613b338461318e565b820192909252845250918601918601613ab6565b5098975050505050505050565b60006020808385031215613b6757600080fd5b82356001600160401b0380821115613b7e57600080fd5b818501915085601f830112613b9257600080fd5b8135613ba061310782613306565b81815260059190911b83018401908481019088831115613bbf57600080fd5b8585015b83811015613b4757803585811115613bda57600080fd5b86016080818c03601f19011215613bf15760008081fd5b613bf9612f89565b8882013581526040808301358a83015260608084013589811115613c1d5760008081fd5b613c2b8f8d83880101613329565b928401929092526080939093013592820192909252845250918601918601613bc3565b60006020808385031215613c6157600080fd5b82356001600160401b03811115613c7757600080fd5b8301601f81018513613c8857600080fd5b8035613c9661310782613306565b81815260609182028301840191848201919088841115613cb557600080fd5b938501935b838510156139395780858a031215613cd25760008081fd5b613cda612f23565b8535613ce581612ff2565b815285870135613cf481612ff2565b818801526040868101359082015283529384019391850191613cba565b60008060408385031215613d2457600080fd5b8235613d2f81612ff2565b946020939093013593505050565b600060208284031215613d4f57600080fd5b5051919050565b8181038181111561157657611576613800565b600082601f830112613d7a57600080fd5b81356020613d8a61310783613306565b82815260059290921b84018101918181019086841115613da957600080fd5b8286015b8481101561373b5780356001600160401b03811115613dcc5760008081fd5b613dda8986838b01016130e8565b845250918301918301613dad565b60008060006101a08486031215613dfe57600080fd5b613e088585613015565b92506101608401356001600160401b0380821115613e2557600080fd5b818601915086601f830112613e3957600080fd5b81356020613e4961310783613306565b82815260059290921b8401810191818101908a841115613e6857600080fd5b948201945b83861015613e8f578535613e8081613665565b82529482019490820190613e6d565b9650505050610180860135915080821115613ea957600080fd5b50613eb686828701613d69565b9150509250925092565b600060208284031215613ed257600080fd5b815161174e8161318e565b8082018082111561157657611576613800565b600082601f830112613f0157600080fd5b81516020613f1161310783613306565b82815260059290921b84018101918181019086841115613f3057600080fd5b8286015b8481101561373b5780516001600160401b03811115613f535760008081fd5b8701603f81018913613f655760008081fd5b848101516040613f77613107836130c1565b8281528b82848601011115613f8c5760008081fd5b613f9b83898301848701613527565b8652505050918301918301613f34565b600080600060608486031215613fc057600080fd5b8351613fcb81612ff2565b809350506020808501516001600160401b0380821115613fea57600080fd5b818701915087601f830112613ffe57600080fd5b815161400c61310782613306565b81815260059190911b8301840190848101908a83111561402b57600080fd5b938501935b8285101561405257845161404381613665565b82529385019390850190614030565b60408a0151909750945050508083111561406b57600080fd5b5050613eb686828701613ef0565b600081518084526020808501945080840160005b838110156140ac57815160ff168752958201959082019060010161408d565b509495945050505050565b600082825180855260208086019550808260051b84010181860160005b848110156133cb57601f198684030189526140f083835161354b565b988401989250908301906001016140d4565b6040815260006141156040830185614079565b828103602084015261412781856140b7565b95945050505050565b602081526000825160a0602084015261414c60c084018261354b565b905060018060a01b0360208501511660408401526040840151606084015260608401516080840152608084015160a08401528091505092915050565b808202811582820484141761157657611576613800565b6000826141bc57634e487b7160e01b600052601260045260246000fd5b500490565b6001600160a01b03841681526060602082018190526000906141e590830185614079565b82810360408401526141f781856140b7565b9695505050505050565b600061012061ffff8c1683528a602084015289604084015260018060a01b03891660608401528760808401528660a08401528060c084015261424581840187613577565b905082810360e0840152614259818661354b565b905082810361010084015261426e818561354b565b9c9b505050505050505050505050565b60008251614290818460208701613527565b9190910192915050565b84815283602082015260018060a01b03831660408201526080606082015260006141f7608083018461354b565b80516001600160701b0381168114612fed57600080fd5b6000806000606084860312156142f357600080fd5b6142fc846142c7565b925061430a602085016142c7565b9150604084015163ffffffff811681146131dc57600080fd5b60208152600061174e602083018461354b56fea2646970667358221220184572dee5179c7157914d0a1461f640173394b98876dff5003f408d7ec88ff664736f6c63430008110033",
    "linkReferences": {}
  },
  "methodIdentifiers": {
    "factory()": "c45a0155",
    "feeCollector()": "c415b95c",
    "getAmountOut(uint256,address,address)": "5e1e6325",
    "getAmountsOut(uint256,(address,address,bool)[])": "9881fcb4",
    "getFee((uint16,address,uint256,uint256,uint256,uint256,uint256,address,address,uint256,bytes32),bytes)": "4285f6e4",
    "isPair(address)": "e5e31b13",
    "optimismSwaps(uint8[],bytes[])": "5df63bae",
    "pairCodeHash()": "9aab9248",
    "pairFor(address,address,bool)": "4c1ee03e",
    "sgReceive(uint16,bytes,uint256,address,uint256,bytes)": "ab8236f3",
    "sortTokens(address,address)": "544caa56",
    "stargateRouter()": "a9e56f3c",
    "swapRouter()": "c31c9c07",
    "veloFactory()": "c7f5fd10",
    "veloRouter()": "d5ef98ea",
    "veloWETH()": "fdc09e07"
  },
  "id": 26
}