{
  "abi": [
    {
      "inputs": [
        {
          "internalType": "contract IWETH9",
          "name": "_weth",
          "type": "address"
        },
        {
          "internalType": "address",
          "name": "_feeCollector",
          "type": "address"
        },
        {
          "internalType": "contract ISwapRouter",
          "name": "_swapRouter",
          "type": "address"
        },
        {
          "internalType": "address",
          "name": "_factory",
          "type": "address"
        },
        {
          "internalType": "bytes32",
          "name": "_pairCodeHash",
          "type": "bytes32"
        },
        {
          "internalType": "contract IStargateRouter",
          "name": "_stargateRouter",
          "type": "address"
        }
      ],
      "stateMutability": "nonpayable",
      "type": "constructor"
    },
    {
      "inputs": [],
      "name": "MoreThanZero",
      "type": "error"
    },
    {
      "inputs": [],
      "name": "MustBeGt0",
      "type": "error"
    },
    {
      "inputs": [],
      "name": "NotStgRouter",
      "type": "error"
    },
    {
      "inputs": [],
      "name": "WithdrawFailed",
      "type": "error"
    },
    {
      "anonymous": false,
      "inputs": [
        {
          "indexed": false,
          "internalType": "address",
          "name": "_token",
          "type": "address"
        },
        {
          "indexed": false,
          "internalType": "uint256",
          "name": "_fee",
          "type": "uint256"
        }
      ],
      "name": "FeePaid",
      "type": "event"
    },
    {
      "anonymous": false,
      "inputs": [
        {
          "indexed": true,
          "internalType": "address",
          "name": "token",
          "type": "address"
        },
        {
          "indexed": false,
          "internalType": "uint256",
          "name": "amountLD",
          "type": "uint256"
        },
        {
          "indexed": false,
          "internalType": "bool",
          "name": "failed",
          "type": "bool"
        },
        {
          "indexed": false,
          "internalType": "bool",
          "name": "dustSent",
          "type": "bool"
        }
      ],
      "name": "ReceivedOnDestination",
      "type": "event"
    },
    {
      "anonymous": false,
      "inputs": [
        {
          "indexed": false,
          "internalType": "bool",
          "name": "success",
          "type": "bool"
        }
      ],
      "name": "SuccessfulWithdraw",
      "type": "event"
    },
    {
      "inputs": [],
      "name": "factory",
      "outputs": [
        {
          "internalType": "address",
          "name": "",
          "type": "address"
        }
      ],
      "stateMutability": "view",
      "type": "function"
    },
    {
      "inputs": [],
      "name": "feeCollector",
      "outputs": [
        {
          "internalType": "address",
          "name": "",
          "type": "address"
        }
      ],
      "stateMutability": "view",
      "type": "function"
    },
    {
      "inputs": [
        {
          "internalType": "uint256",
          "name": "amountIn",
          "type": "uint256"
        },
        {
          "internalType": "address",
          "name": "tokenIn",
          "type": "address"
        },
        {
          "internalType": "address",
          "name": "tokenOut",
          "type": "address"
        }
      ],
      "name": "getAmountOut",
      "outputs": [
        {
          "internalType": "uint256",
          "name": "amount",
          "type": "uint256"
        },
        {
          "internalType": "bool",
          "name": "stable",
          "type": "bool"
        }
      ],
      "stateMutability": "view",
      "type": "function"
    },
    {
      "inputs": [
        {
          "internalType": "uint256",
          "name": "amountIn",
          "type": "uint256"
        },
        {
          "components": [
            {
              "internalType": "address",
              "name": "from",
              "type": "address"
            },
            {
              "internalType": "address",
              "name": "to",
              "type": "address"
            },
            {
              "internalType": "bool",
              "name": "stable",
              "type": "bool"
            }
          ],
          "internalType": "struct VelodromeAdapter.route[]",
          "name": "routes",
          "type": "tuple[]"
        }
      ],
      "name": "getAmountsOut",
      "outputs": [
        {
          "internalType": "uint256[]",
          "name": "amounts",
          "type": "uint256[]"
        }
      ],
      "stateMutability": "view",
      "type": "function"
    },
    {
      "inputs": [
        {
          "internalType": "address",
          "name": "pair",
          "type": "address"
        }
      ],
      "name": "isPair",
      "outputs": [
        {
          "internalType": "bool",
          "name": "",
          "type": "bool"
        }
      ],
      "stateMutability": "view",
      "type": "function"
    },
    {
      "inputs": [
        {
          "internalType": "uint8[]",
          "name": "steps",
          "type": "uint8[]"
        },
        {
          "internalType": "bytes[]",
          "name": "data",
          "type": "bytes[]"
        }
      ],
      "name": "optimismSwaps",
      "outputs": [],
      "stateMutability": "payable",
      "type": "function"
    },
    {
      "inputs": [],
      "name": "pairCodeHash",
      "outputs": [
        {
          "internalType": "bytes32",
          "name": "",
          "type": "bytes32"
        }
      ],
      "stateMutability": "view",
      "type": "function"
    },
    {
      "inputs": [
        {
          "internalType": "address",
          "name": "tokenA",
          "type": "address"
        },
        {
          "internalType": "address",
          "name": "tokenB",
          "type": "address"
        },
        {
          "internalType": "bool",
          "name": "stable",
          "type": "bool"
        }
      ],
      "name": "pairFor",
      "outputs": [
        {
          "internalType": "address",
          "name": "pair",
          "type": "address"
        }
      ],
      "stateMutability": "pure",
      "type": "function"
    },
    {
      "inputs": [
        {
          "internalType": "uint16",
          "name": "",
          "type": "uint16"
        },
        {
          "internalType": "bytes",
          "name": "",
          "type": "bytes"
        },
        {
          "internalType": "uint256",
          "name": "",
          "type": "uint256"
        },
        {
          "internalType": "address",
          "name": "_token",
          "type": "address"
        },
        {
          "internalType": "uint256",
          "name": "amountLD",
          "type": "uint256"
        },
        {
          "internalType": "bytes",
          "name": "_payload",
          "type": "bytes"
        }
      ],
      "name": "sgReceive",
      "outputs": [],
      "stateMutability": "nonpayable",
      "type": "function"
    },
    {
      "inputs": [
        {
          "internalType": "address",
          "name": "tokenA",
          "type": "address"
        },
        {
          "internalType": "address",
          "name": "tokenB",
          "type": "address"
        }
      ],
      "name": "sortTokens",
      "outputs": [
        {
          "internalType": "address",
          "name": "token0",
          "type": "address"
        },
        {
          "internalType": "address",
          "name": "token1",
          "type": "address"
        }
      ],
      "stateMutability": "pure",
      "type": "function"
    },
    {
      "inputs": [],
      "name": "stargateRouter",
      "outputs": [
        {
          "internalType": "contract IStargateRouter",
          "name": "",
          "type": "address"
        }
      ],
      "stateMutability": "view",
      "type": "function"
    },
    {
      "inputs": [],
      "name": "swapRouter",
      "outputs": [
        {
          "internalType": "contract ISwapRouter",
          "name": "",
          "type": "address"
        }
      ],
      "stateMutability": "view",
      "type": "function"
    },
    {
      "inputs": [],
      "name": "veloFactory",
      "outputs": [
        {
          "internalType": "address",
          "name": "",
          "type": "address"
        }
      ],
      "stateMutability": "view",
      "type": "function"
    },
    {
      "inputs": [],
      "name": "veloRouter",
      "outputs": [
        {
          "internalType": "address",
          "name": "",
          "type": "address"
        }
      ],
      "stateMutability": "view",
      "type": "function"
    },
    {
      "inputs": [],
      "name": "veloWETH",
      "outputs": [
        {
          "internalType": "contract IWETH",
          "name": "",
          "type": "address"
        }
      ],
      "stateMutability": "view",
      "type": "function"
    },
    {
      "stateMutability": "payable",
      "type": "receive"
    }
  ],
  "bytecode": {
    "object": "0x6101006040526002805460ff191660011790553480156200001f57600080fd5b506040516200430f3803806200430f833981016040819052620000429162000099565b6001600160a01b03938416608052600080546001600160a01b03191693851693909317909255600155811660a05291821660c0521660e05262000121565b6001600160a01b03811681146200009657600080fd5b50565b60008060008060008060c08789031215620000b357600080fd5b8651620000c08162000080565b6020880151909650620000d38162000080565b6040880151909550620000e68162000080565b6060880151909450620000f98162000080565b608088015160a08901519194509250620001138162000080565b809150509295509295509295565b60805160a05160c05160e05161416e620001a1600039600081816102aa0152611c7101526000818161070d01528181610b470152610bda0152600081816102220152818161125501528181611de30152611e0a01526000818161027601528181611519015281816115fd01528181611681015261175c015261416e6000f3fe6080604052600436106100ec5760003560e01c8063ab8236f31161008a578063c7f5fd1011610059578063c7f5fd10146102ec578063d5ef98ea14610314578063e5e31b131461033c578063fdc09e071461036c57600080fd5b8063ab8236f314610244578063c31c9c0714610264578063c415b95c14610298578063c45a0155146102cc57600080fd5b80635e1e6325116100c65780635e1e63251461018a5780639881fcb4146101bf5780639aab9248146101ec578063a9e56f3c1461021057600080fd5b80634c1ee03e146100f8578063544caa56146101355780635df63bae1461017557600080fd5b366100f357005b600080fd5b34801561010457600080fd5b50610118610113366004612dee565b610387565b6040516001600160a01b0390911681526020015b60405180910390f35b34801561014157600080fd5b50610155610150366004612e39565b61044a565b604080516001600160a01b0393841681529290911660208301520161012c565b610188610183366004612eb6565b61052f565b005b34801561019657600080fd5b506101aa6101a5366004612f21565b610d6d565b6040805192835290151560208301520161012c565b3480156101cb57600080fd5b506101df6101da366004613126565b610fa1565b60405161012c919061316c565b3480156101f857600080fd5b5061020260015481565b60405190815260200161012c565b34801561021c57600080fd5b506101187f000000000000000000000000000000000000000000000000000000000000000081565b34801561025057600080fd5b5061018861025f36600461323a565b61124a565b34801561027057600080fd5b506101187f000000000000000000000000000000000000000000000000000000000000000081565b3480156102a457600080fd5b506101187f000000000000000000000000000000000000000000000000000000000000000081565b3480156102d857600080fd5b50600054610118906001600160a01b031681565b3480156102f857600080fd5b506101187325cbddb98b35ab1ff77413456b31ec81a6b6b74681565b34801561032057600080fd5b50610118739c12939390052919af3155f41bf4160fd3666a6f81565b34801561034857600080fd5b5061035c6103573660046132d4565b611417565b604051901515815260200161012c565b34801561037857600080fd5b506101186006602160991b0181565b6000806000610396868661044a565b6040516001600160601b0319606084811b8216602084015283901b16603482015286151560f81b604882015291935091507325cbddb98b35ab1ff77413456b31ec81a6b6b7469060490160408051601f19818403018152908290528051602091820120610428939290917fc1ac28b1c4ebe53c0cff67bab5878c4eb68759bb1e9f73977cd266b247d149f091016132f1565b60408051601f1981840301815291905280516020909101209695505050505050565b600080826001600160a01b0316846001600160a01b0316036104b35760405162461bcd60e51b815260206004820152601b60248201527f526f757465723a204944454e544943414c5f414444524553534553000000000060448201526064015b60405180910390fd5b826001600160a01b0316846001600160a01b0316106104d35782846104d6565b83835b90925090506001600160a01b0382166105285760405162461bcd60e51b8152602060048201526014602482015273526f757465723a205a45524f5f4144445245535360601b60448201526064016104aa565b9250929050565b60025460ff166001146105715760405162461bcd60e51b815260206004820152600a6024820152695245454e5452414e435960b01b60448201526064016104aa565b6002805460ff19168117905560005b83811015610d5957600085858381811061059c5761059c613324565b90506020020160208101906105b19190613349565b905060001960ff8216016106a9576000808585858181106105d4576105d4613324565b90506020028101906105e69190613366565b8101906105f3919061341b565b9150915060005b82518110156106a157600082828151811061061757610617613324565b60200260200101511161063d5760405163fe4155c760e01b815260040160405180910390fd5b61068f333084848151811061065457610654613324565b602002602001015186858151811061066e5761066e613324565b60200260200101516001600160a01b031661149c909392919063ffffffff16565b80610699816134eb565b9150506105fa565b505050610d46565b60011960ff8216016107855760008484848181106106c9576106c9613324565b90506020028101906106db9190613366565b8101906106e89190613504565b90506000811161070b5760405163fe4155c760e01b815260040160405180910390fd5b7f00000000000000000000000000000000000000000000000000000000000000006001600160a01b031663d0e30db0826040518263ffffffff1660e01b81526004016000604051808303818588803b15801561076657600080fd5b505af115801561077a573d6000803e3d6000fd5b505050505050610d46565b60021960ff8216016108155760008484848181106107a5576107a5613324565b90506020028101906107b79190613366565b8101906107c49190613530565b905060005b815181101561080e5760008282815181106107e6576107e6613324565b602002602001015190506107f98161150d565b50508080610806906134eb565b9150506107c9565b5050610d46565b60031960ff82160161089757600084848481811061083557610835613324565b90506020028101906108479190613366565b810190610854919061361a565b905060005b815181101561080e5761088482828151811061087757610877613324565b6020026020010151611675565b508061088f816134eb565b915050610859565b60041960ff8216016109195760008484848181106108b7576108b7613324565b90506020028101906108c99190613366565b8101906108d6919061371c565b905060005b815181101561080e576109068282815181106108f9576108f9613324565b60200260200101516117a6565b5080610911816134eb565b9150506108db565b60081960ff821601610a2557600084848481811061093957610939613324565b905060200281019061094b9190613366565b8101906109589190613829565b905060005b815181101561080e576109f0739c12939390052919af3155f41bf4160fd3666a6f83838151811061099057610990613324565b6020026020010151600001518484815181106109ae576109ae613324565b6020026020010151604001516000815181106109cc576109cc613324565b6020026020010151600001516001600160a01b03166119869092919063ffffffff16565b610a12828281518110610a0557610a05613324565b6020026020010151611a38565b5080610a1d816134eb565b91505061095d565b600c1960ff821601610ae6576000848484818110610a4557610a45613324565b9050602002810190610a579190613366565b810190610a649190613923565b905060005b815181101561080e57610ad4828281518110610a8757610a87613324565b602002602001015160000151838381518110610aa557610aa5613324565b602002602001015160400151848481518110610ac357610ac3613324565b602002602001015160200151611bd0565b80610ade816134eb565b915050610a69565b600b1960ff821601610cef57600080858585818110610b0757610b07613324565b9050602002810190610b199190613366565b810190610b2691906139e6565b9150915080600003610bbf576040516370a0823160e01b81523060048201527f00000000000000000000000000000000000000000000000000000000000000006001600160a01b0316906370a0823190602401602060405180830381865afa158015610b96573d6000803e3d6000fd5b505050506040513d601f19601f82011682018060405250810190610bba9190613a12565b610bc1565b805b604051632e1a7d4d60e01b8152600481018290529091507f00000000000000000000000000000000000000000000000000000000000000006001600160a01b031690632e1a7d4d90602401600060405180830381600087803b158015610c2657600080fd5b505af1158015610c3a573d6000803e3d6000fd5b505050506000826001600160a01b03168260405160006040518083038185875af1925050503d8060008114610c8b576040519150601f19603f3d011682016040523d82523d6000602084013e610c90565b606091505b5050905080610cb257604051631d42c86760e21b815260040160405180910390fd5b60405181151581527fecd574d247fc5a32601173682b0af34b454b7a0bf3e382d0efb3c6209e9443fa9060200160405180910390a1505050610d46565b600d1960ff821601610d46576000806000868686818110610d1257610d12613324565b9050602002810190610d249190613366565b810190610d319190613b0e565b925092509250610d42838383611cf2565b5050505b5080610d51816134eb565b915050610580565b50506002805460ff19166001179055505050565b6000806000610d7e85856001610387565b60405163e5e31b1360e01b81526001600160a01b038216600482015290915060009081907325cbddb98b35ab1ff77413456b31ec81a6b6b7469063e5e31b1390602401602060405180830381865afa158015610dde573d6000803e3d6000fd5b505050506040513d601f19601f82011682018060405250810190610e029190613c1b565b15610e7b576040516378a051ad60e11b8152600481018990526001600160a01b03888116602483015284169063f140a35a90604401602060405180830381865afa158015610e54573d6000803e3d6000fd5b505050506040513d601f19601f82011682018060405250810190610e789190613a12565b91505b610e8787876000610387565b60405163e5e31b1360e01b81526001600160a01b03821660048201529093507325cbddb98b35ab1ff77413456b31ec81a6b6b7469063e5e31b1390602401602060405180830381865afa158015610ee2573d6000803e3d6000fd5b505050506040513d601f19601f82011682018060405250810190610f069190613c1b565b15610f7f576040516378a051ad60e11b8152600481018990526001600160a01b03888116602483015284169063f140a35a90604401602060405180830381865afa158015610f58573d6000803e3d6000fd5b505050506040513d601f19601f82011682018060405250810190610f7c9190613a12565b90505b808211610f8e57806000610f92565b8160015b94509450505050935093915050565b6060600182511015610fec5760405162461bcd60e51b81526020600482015260146024820152730a4deeae8cae47440929cac82989288bea082a8960631b60448201526064016104aa565b8151610ff9906001613c38565b6001600160401b0381111561101057611010612f58565b604051908082528060200260200182016040528015611039578160200160208202803683370190505b509050828160008151811061105057611050613324565b60200260200101818152505060005b82518110156112435760006110cc84838151811061107f5761107f613324565b60200260200101516000015185848151811061109d5761109d613324565b6020026020010151602001518685815181106110bb576110bb613324565b602002602001015160400151610387565b60405163e5e31b1360e01b81526001600160a01b03821660048201529091507325cbddb98b35ab1ff77413456b31ec81a6b6b7469063e5e31b1390602401602060405180830381865afa158015611127573d6000803e3d6000fd5b505050506040513d601f19601f8201168201806040525081019061114b9190613c1b565b1561123057806001600160a01b031663f140a35a84848151811061117157611171613324565b602002602001015186858151811061118b5761118b613324565b6020026020010151600001516040518363ffffffff1660e01b81526004016111c69291909182526001600160a01b0316602082015260400190565b602060405180830381865afa1580156111e3573d6000803e3d6000fd5b505050506040513d601f19601f820116820180604052508101906112079190613a12565b83611213846001613c38565b8151811061122357611223613324565b6020026020010181815250505b508061123b816134eb565b91505061105f565b5092915050565b336001600160a01b037f0000000000000000000000000000000000000000000000000000000000000000161461129357604051638afe477f60e01b815260040160405180910390fd5b6000806000838060200190518101906112ac9190613d37565b9250925092506000306001600160a01b0316635df63bae62030d4085856040518463ffffffff1660e01b81526004016112e6929190613ec4565b600060405180830381600088803b15801561130057600080fd5b5087f193505050508015611312575060015b611360573d808015611340576040519150601f19603f3d011682016040523d82523d6000602084013e611345565b606091505b5061135a6001600160a01b0389168689611f40565b60019150505b600047156113bc576040516001600160a01b038616904790600081818185875af1925050503d80600081146113b1576040519150601f19603f3d011682016040523d82523d6000602084013e6113b6565b606091505b50909150505b6040805188815283151560208201528215158183015290516001600160a01b038a16917f7f345d6da48bd1339fd428ff45265a0f01258b14ca09dcf8db0c469f4f732fd3919081900360600190a25050505050505050505050565b60405163e5e31b1360e01b81526001600160a01b03821660048201526000907325cbddb98b35ab1ff77413456b31ec81a6b6b7469063e5e31b1390602401602060405180830381865afa158015611472573d6000803e3d6000fd5b505050506040513d601f19601f820116820180604052508101906114969190613c1b565b92915050565b6040516001600160a01b03808516602483015283166044820152606481018290526115079085906323b872dd60e01b906084015b60408051601f198184030181529190526020810180516001600160e01b03166001600160e01b031990931692909217909152611f75565b50505050565b600061154282604001517f00000000000000000000000000000000000000000000000000000000000000008460000151612047565b6040805161010081018252838201516001600160a01b0390811682526060808601518216602080850191825260808089015162ffffff90811687890190815230958801958652429288019283528a5160a08901908152938b015160c08901908152600060e08a01908152995163414bf38960e01b8152895189166004820152955188166024870152905190911660448501529351851660648401525160848301525160a4820152905160c48201529251811660e484015290917f00000000000000000000000000000000000000000000000000000000000000009091169063414bf38990610104015b6020604051808303816000875af115801561164a573d6000803e3d6000fd5b505050506040513d601f19601f8201168201806040525081019061166e9190613a12565b9392505050565b60006116aa82604001517f00000000000000000000000000000000000000000000000000000000000000008460000151612047565b6040805160a08082018352918401519184015160608086015160c08088015160808901516001600160601b031997851b8816928701929092526001600160e81b031960e895861b811660d488015292841b871660d787015290931b1660eb8401521b90911660ee8201526000908061010281016040516020818303038152906040528152602001306001600160a01b0316815260200142815260200184600001518152602001846020015181525090507f00000000000000000000000000000000000000000000000000000000000000006001600160a01b031663c04b8d59826040518263ffffffff1660e01b815260040161162b9190613ef2565b600080548251604084015160015484936117cd936001600160a01b03909116929091612147565b905080600182516117de9190613f4a565b815181106117ee576117ee613324565b60200260200101519150826020015182101561184c5760405162461bcd60e51b815260206004820152601760248201527f696e73756666696369656e742d616d6f756e742d6f757400000000000000000060448201526064016104aa565b826060015115611971576000805460408501518051611971936118af936001600160a01b0316929161188057611880613324565b6020026020010151866040015160018151811061189f5761189f613324565b60200260200101516001546122d3565b84604001516000815181106118c6576118c6613324565b60209081029190910101516040516370a0823160e01b81523060048201526001600160a01b03909116906370a0823190602401602060405180830381865afa158015611916573d6000803e3d6000fd5b505050506040513d601f19601f8201168201806040525081019061193a9190613a12565b856040015160008151811061195157611951613324565b60200260200101516001600160a01b0316611f409092919063ffffffff16565b61198081846040015130612359565b50919050565b604051636eb1769f60e11b81523060048201526001600160a01b038381166024830152600091839186169063dd62ed3e90604401602060405180830381865afa1580156119d7573d6000803e3d6000fd5b505050506040513d601f19601f820116820180604052508101906119fb9190613a12565b611a059190613c38565b6040516001600160a01b03851660248201526044810182905290915061150790859063095ea7b360e01b906064016114d0565b6060816060015142811015611a815760405162461bcd60e51b815260206004820152600f60248201526e149bdd5d195c8e8811561412549151608a1b60448201526064016104aa565b611a9383600001518460400151610fa1565b915082602001518260018451611aa99190613f4a565b81518110611ab957611ab9613324565b60200260200101511015611b1a5760405162461bcd60e51b815260206004820152602260248201527f526f757465723a20494e53554646494349454e545f4f55545055545f414d4f55604482015261139560f21b60648201526084016104aa565b611bc18360400151600081518110611b3457611b34613324565b60200260200101516000015130611ba18660400151600081518110611b5b57611b5b613324565b6020026020010151600001518760400151600081518110611b7e57611b7e613324565b60200260200101516020015188604001516000815181106110bb576110bb613324565b85600081518110611bb457611bb4613324565b6020026020010151612530565b61198082846040015130612628565b81600003611c45576040516370a0823160e01b81523060048201526001600160a01b038416906370a0823190602401602060405180830381865afa158015611c1c573d6000803e3d6000fd5b505050506040513d601f19601f82011682018060405250810190611c409190613a12565b611c47565b815b91506000611c5483612877565b9050611c608184613f4a565b9250611c966001600160a01b0385167f000000000000000000000000000000000000000000000000000000000000000083611f40565b611caa6001600160a01b0385168385611f40565b604080516001600160a01b0386168152602081018390527f075a2720282fdf622141dae0b048ef90a21a7e57c134c76912d19d006b3b3f6f910160405180910390a150505050565b60003411611d135760405163c9935ff960e01b815260040160405180910390fd5b60008361010001518383604051602001611d2f93929190613f61565b60405160208183030381529060405290508360800151600003611dbf5760208401516040516370a0823160e01b81523060048201526001600160a01b03909116906370a0823190602401602060405180830381865afa158015611d96573d6000803e3d6000fd5b505050506040513d601f19601f82011682018060405250810190611dba9190613a12565b611dc5565b83608001515b608085018190526020850151611e08916001600160a01b03909116907f000000000000000000000000000000000000000000000000000000000000000090611986565b7f00000000000000000000000000000000000000000000000000000000000000006001600160a01b0316639fbf10fc47866000015187604001518860600151308a608001518b60a0015160405180606001604052808e610120015181526020018e60c0015181526020018e60e00151604051602001611e9a919060609190911b6001600160601b031916815260140190565b6040516020818303038152906040528152508d60e00151604051602001611ed4919060609190911b6001600160601b031916815260140190565b6040516020818303038152906040528b6040518b63ffffffff1660e01b8152600401611f0899989796959493929190613fa1565b6000604051808303818588803b158015611f2157600080fd5b505af1158015611f35573d6000803e3d6000fd5b505050505050505050565b6040516001600160a01b038316602482015260448101829052611f7090849063a9059cbb60e01b906064016114d0565b505050565b6000611fca826040518060400160405280602081526020017f5361666545524332303a206c6f772d6c6576656c2063616c6c206661696c6564815250856001600160a01b031661289c9092919063ffffffff16565b805190915015611f705780806020019051810190611fe89190613c1b565b611f705760405162461bcd60e51b815260206004820152602a60248201527f5361666545524332303a204552433230206f7065726174696f6e20646964206e6044820152691bdd081cdd58d8d9595960b21b60648201526084016104aa565b604080516001600160a01b038481166024830152604480830185905283518084039091018152606490920183526020820180516001600160e01b031663095ea7b360e01b17905291516000928392908716916120a3919061403f565b6000604051808303816000865af19150503d80600081146120e0576040519150601f19603f3d011682016040523d82523d6000602084013e6120e5565b606091505b509150915081801561210f57508051158061210f57508080602001905181019061210f9190613c1b565b6121405760405162461bcd60e51b8152602060048201526002602482015261534160f01b60448201526064016104aa565b5050505050565b606060028351101561219b5760405162461bcd60e51b815260206004820152601e60248201527f556e697377617056324c6962726172793a20494e56414c49445f50415448000060448201526064016104aa565b82516001600160401b038111156121b4576121b4612f58565b6040519080825280602002602001820160405280156121dd578160200160208202803683370190505b50905083816000815181106121f4576121f4613324565b60200260200101818152505060005b600184516122119190613f4a565b8110156122ca576000806122658887858151811061223157612231613324565b6020026020010151888660016122479190613c38565b8151811061225757612257613324565b6020026020010151886128b3565b9150915061228d84848151811061227e5761227e613324565b6020026020010151838361297f565b84612299856001613c38565b815181106122a9576122a9613324565b602002602001018181525050505080806122c2906134eb565b915050612203565b50949350505050565b60008060006122e28686612a9e565b6040516001600160601b0319606084811b8216602084015283901b166034820152919350915087906048016040516020818303038152906040528051906020012085604051602001612336939291906132f1565b60408051601f198184030181529190528051602090910120979650505050505050565b60005b6001835161236a9190613f4a565b8110156115075760008084838151811061238657612386613324565b60200260200101518584600161239c9190613c38565b815181106123ac576123ac613324565b60200260200101519150915060006123c48383612a9e565b5090506000876123d5866001613c38565b815181106123e5576123e5613324565b60200260200101519050600080836001600160a01b0316866001600160a01b03161461241357826000612417565b6000835b91509150600060028a5161242b9190613f4a565b88106124375788612464565b600054612464906001600160a01b0316878c6124548c6002613c38565b8151811061189f5761189f613324565b905061248760008054906101000a90046001600160a01b031688886001546122d3565b6001600160a01b031663022c0d9f84848460006040519080825280601f01601f1916602001820160405280156124c4576020820181803683370190505b506040518563ffffffff1660e01b81526004016124e4949392919061405b565b600060405180830381600087803b1580156124fe57600080fd5b505af1158015612512573d6000803e3d6000fd5b50505050505050505050508080612528906134eb565b91505061235c565b6000846001600160a01b03163b1161254757600080fd5b604080516001600160a01b0385811660248301528481166044830152606480830185905283518084039091018152608490920183526020820180516001600160e01b03166323b872dd60e01b17905291516000928392908816916125ab919061403f565b6000604051808303816000865af19150503d80600081146125e8576040519150601f19603f3d011682016040523d82523d6000602084013e6125ed565b606091505b50915091508180156126175750805115806126175750808060200190518101906126179190613c1b565b61262057600080fd5b505050505050565b60005b825181101561150757600061267a84838151811061264b5761264b613324565b60200260200101516000015185848151811061266957612669613324565b60200260200101516020015161044a565b50905060008561268b846001613c38565b8151811061269b5761269b613324565b60200260200101519050600080836001600160a01b03168786815181106126c4576126c4613324565b6020026020010151600001516001600160a01b0316146126e6578260006126ea565b6000835b915091506000600188516126fe9190613f4a565b861061270a578661277d565b61277d88612719886001613c38565b8151811061272957612729613324565b602002602001015160000151898860016127439190613c38565b8151811061275357612753613324565b6020026020010151602001518a89600161276d9190613c38565b815181106110bb576110bb613324565b90506127d088878151811061279457612794613324565b6020026020010151600001518988815181106127b2576127b2613324565b6020026020010151602001518a89815181106110bb576110bb613324565b6001600160a01b031663022c0d9f84848460006040519080825280601f01601f19166020018201604052801561280d576020820181803683370190505b506040518563ffffffff1660e01b815260040161282d949392919061405b565b600060405180830381600087803b15801561284757600080fd5b505af115801561285b573d6000803e3d6000fd5b505050505050505050808061286f906134eb565b91505061262b565b60006127106128888361270b614088565b61289291906140a7565b6114969083613f4a565b60606128ab8484600085612b8e565b949350505050565b60008060006128c28686612a9e565b5090506000806128d4898989896122d3565b6001600160a01b0316630902f1ac6040518163ffffffff1660e01b8152600401606060405180830381865afa158015612911573d6000803e3d6000fd5b505050506040513d601f19601f8201168201806040525081019061293591906140e0565b506001600160701b031691506001600160701b03169150826001600160a01b0316886001600160a01b03161461296c57808261296f565b81815b909a909950975050505050505050565b60008084116129e45760405162461bcd60e51b815260206004820152602b60248201527f556e697377617056324c6962726172793a20494e53554646494349454e545f4960448201526a1394155517d05353d5539560aa1b60648201526084016104aa565b6000831180156129f45750600082115b612a515760405162461bcd60e51b815260206004820152602860248201527f556e697377617056324c6962726172793a20494e53554646494349454e545f4c604482015267495155494449545960c01b60648201526084016104aa565b6000612a5f856103e5612c5e565b90506000612a6d8285612c5e565b90506000612a8783612a81886103e8612c5e565b90612cc5565b9050612a9381836140a7565b979650505050505050565b600080826001600160a01b0316846001600160a01b031603612b105760405162461bcd60e51b815260206004820152602560248201527f556e697377617056324c6962726172793a204944454e544943414c5f41444452604482015264455353455360d81b60648201526084016104aa565b826001600160a01b0316846001600160a01b031610612b30578284612b33565b83835b90925090506001600160a01b0382166105285760405162461bcd60e51b815260206004820152601e60248201527f556e697377617056324c6962726172793a205a45524f5f41444452455353000060448201526064016104aa565b606082471015612bef5760405162461bcd60e51b815260206004820152602660248201527f416464726573733a20696e73756666696369656e742062616c616e636520666f6044820152651c8818d85b1b60d21b60648201526084016104aa565b600080866001600160a01b03168587604051612c0b919061403f565b60006040518083038185875af1925050503d8060008114612c48576040519150601f19603f3d011682016040523d82523d6000602084013e612c4d565b606091505b5091509150612a9387838387612d1a565b6000811580612c8257508282612c748183614088565b9250612c8090836140a7565b145b6114965760405162461bcd60e51b815260206004820152601460248201527364732d6d6174682d6d756c2d6f766572666c6f7760601b60448201526064016104aa565b600082612cd28382613c38565b91508110156114965760405162461bcd60e51b815260206004820152601460248201527364732d6d6174682d6164642d6f766572666c6f7760601b60448201526064016104aa565b60608315612d89578251600003612d82576001600160a01b0385163b612d825760405162461bcd60e51b815260206004820152601d60248201527f416464726573733a2063616c6c20746f206e6f6e2d636f6e747261637400000060448201526064016104aa565b50816128ab565b6128ab8383815115612d9e5781518083602001fd5b8060405162461bcd60e51b81526004016104aa9190614125565b6001600160a01b0381168114612dcd57600080fd5b50565b8035612ddb81612db8565b919050565b8015158114612dcd57600080fd5b600080600060608486031215612e0357600080fd5b8335612e0e81612db8565b92506020840135612e1e81612db8565b91506040840135612e2e81612de0565b809150509250925092565b60008060408385031215612e4c57600080fd5b8235612e5781612db8565b91506020830135612e6781612db8565b809150509250929050565b60008083601f840112612e8457600080fd5b5081356001600160401b03811115612e9b57600080fd5b6020830191508360208260051b850101111561052857600080fd5b60008060008060408587031215612ecc57600080fd5b84356001600160401b0380821115612ee357600080fd5b612eef88838901612e72565b90965094506020870135915080821115612f0857600080fd5b50612f1587828801612e72565b95989497509550505050565b600080600060608486031215612f3657600080fd5b833592506020840135612f4881612db8565b91506040840135612e2e81612db8565b634e487b7160e01b600052604160045260246000fd5b604051606081016001600160401b0381118282101715612f9057612f90612f58565b60405290565b60405160a081016001600160401b0381118282101715612f9057612f90612f58565b60405160e081016001600160401b0381118282101715612f9057612f90612f58565b604051608081016001600160401b0381118282101715612f9057612f90612f58565b60405161016081016001600160401b0381118282101715612f9057612f90612f58565b604051601f8201601f191681016001600160401b038111828210171561304757613047612f58565b604052919050565b60006001600160401b0382111561306857613068612f58565b5060051b60200190565b600082601f83011261308357600080fd5b813560206130986130938361304f565b61301f565b828152606092830285018201928282019190878511156130b757600080fd5b8387015b858110156131195781818a0312156130d35760008081fd5b6130db612f6e565b81356130e681612db8565b8152818601356130f581612db8565b8187015260408281013561310881612de0565b9082015284529284019281016130bb565b5090979650505050505050565b6000806040838503121561313957600080fd5b8235915060208301356001600160401b0381111561315657600080fd5b61316285828601613072565b9150509250929050565b6020808252825182820181905260009190848201906040850190845b818110156131a457835183529284019291840191600101613188565b50909695505050505050565b803561ffff81168114612ddb57600080fd5b60006001600160401b038211156131db576131db612f58565b50601f01601f191660200190565b600082601f8301126131fa57600080fd5b8135613208613093826131c2565b81815284602083860101111561321d57600080fd5b816020850160208301376000918101602001919091529392505050565b60008060008060008060c0878903121561325357600080fd5b61325c876131b0565b955060208701356001600160401b038082111561327857600080fd5b6132848a838b016131e9565b9650604089013595506060890135915061329d82612db8565b9093506080880135925060a088013590808211156132ba57600080fd5b506132c789828a016131e9565b9150509295509295509295565b6000602082840312156132e657600080fd5b813561166e81612db8565b6001600160f81b0319815260609390931b6001600160601b03191660018401526015830191909152603582015260550190565b634e487b7160e01b600052603260045260246000fd5b60ff81168114612dcd57600080fd5b60006020828403121561335b57600080fd5b813561166e8161333a565b6000808335601e1984360301811261337d57600080fd5b8301803591506001600160401b0382111561339757600080fd5b60200191503681900382131561052857600080fd5b600082601f8301126133bd57600080fd5b813560206133cd6130938361304f565b82815260059290921b840181019181810190868411156133ec57600080fd5b8286015b8481101561341057803561340381612db8565b83529183019183016133f0565b509695505050505050565b6000806040838503121561342e57600080fd5b82356001600160401b038082111561344557600080fd5b613451868387016133ac565b935060209150818501358181111561346857600080fd5b85019050601f8101861361347b57600080fd5b80356134896130938261304f565b81815260059190911b820183019083810190888311156134a857600080fd5b928401925b828410156134c6578335825292840192908401906134ad565b80955050505050509250929050565b634e487b7160e01b600052601160045260246000fd5b6000600182016134fd576134fd6134d5565b5060010190565b60006020828403121561351657600080fd5b5035919050565b803562ffffff81168114612ddb57600080fd5b6000602080838503121561354357600080fd5b82356001600160401b0381111561355957600080fd5b8301601f8101851361356a57600080fd5b80356135786130938261304f565b81815260a0918202830184019184820191908884111561359757600080fd5b938501935b8385101561360e5780858a0312156135b45760008081fd5b6135bc612f96565b8535815286860135878201526040808701356135d781612db8565b908201526060868101356135ea81612db8565b9082015260806135fb87820161351d565b908201528352938401939185019161359c565b50979650505050505050565b6000602080838503121561362d57600080fd5b82356001600160401b0381111561364357600080fd5b8301601f8101851361365457600080fd5b80356136626130938261304f565b81815260e0918202830184019184820191908884111561368157600080fd5b938501935b8385101561360e5780858a03121561369e5760008081fd5b6136a6612fb8565b8535815286860135878201526040808701356136c181612db8565b908201526060868101356136d481612db8565b908201526080868101356136e781612db8565b9082015260a06136f887820161351d565b9082015260c061370987820161351d565b9082015283529384019391850191613686565b6000602080838503121561372f57600080fd5b82356001600160401b038082111561374657600080fd5b818501915085601f83011261375a57600080fd5b81356137686130938261304f565b81815260059190911b8301840190848101908883111561378757600080fd5b8585015b8381101561381c578035858111156137a257600080fd5b86016080818c03601f190112156137b95760008081fd5b6137c1612fda565b8882013581526040808301358a830152606080840135898111156137e55760008081fd5b6137f38f8d838801016133ac565b83850152506080840135935061380884612de0565b82019290925284525091860191860161378b565b5098975050505050505050565b6000602080838503121561383c57600080fd5b82356001600160401b038082111561385357600080fd5b818501915085601f83011261386757600080fd5b81356138756130938261304f565b81815260059190911b8301840190848101908883111561389457600080fd5b8585015b8381101561381c578035858111156138af57600080fd5b86016080818c03601f190112156138c65760008081fd5b6138ce612fda565b8882013581526040808301358a830152606080840135898111156138f25760008081fd5b6139008f8d83880101613072565b928401929092526080939093013592820192909252845250918601918601613898565b6000602080838503121561393657600080fd5b82356001600160401b0381111561394c57600080fd5b8301601f8101851361395d57600080fd5b803561396b6130938261304f565b8181526060918202830184019184820191908884111561398a57600080fd5b938501935b8385101561360e5780858a0312156139a75760008081fd5b6139af612f6e565b85356139ba81612db8565b8152858701356139c981612db8565b81880152604086810135908201528352938401939185019161398f565b600080604083850312156139f957600080fd5b8235613a0481612db8565b946020939093013593505050565b600060208284031215613a2457600080fd5b5051919050565b600082601f830112613a3c57600080fd5b81356020613a4c6130938361304f565b82815260059290921b84018101918181019086841115613a6b57600080fd5b8286015b84811015613410578035613a828161333a565b8352918301918301613a6f565b600082601f830112613aa057600080fd5b81356020613ab06130938361304f565b82815260059290921b84018101918181019086841115613acf57600080fd5b8286015b848110156134105780356001600160401b03811115613af25760008081fd5b613b008986838b01016131e9565b845250918301918301613ad3565b60008060008385036101a0811215613b2557600080fd5b61016080821215613b3557600080fd5b613b3d612ffc565b9150613b48866131b0565b8252613b5660208701612dd0565b602083015260408601356040830152606086013560608301526080860135608083015260a086013560a083015260c086013560c0830152613b9960e08701612dd0565b60e0830152610100613bac818801612dd0565b90830152610120868101359083015261014080870135908301529093508401356001600160401b0380821115613be157600080fd5b613bed87838801613a2b565b9350610180860135915080821115613c0457600080fd5b50613c1186828701613a8f565b9150509250925092565b600060208284031215613c2d57600080fd5b815161166e81612de0565b60008219821115613c4b57613c4b6134d5565b500190565b60005b83811015613c6b578181015183820152602001613c53565b838111156115075750506000910152565b600082601f830112613c8d57600080fd5b81516020613c9d6130938361304f565b82815260059290921b84018101918181019086841115613cbc57600080fd5b8286015b848110156134105780516001600160401b03811115613cdf5760008081fd5b8701603f81018913613cf15760008081fd5b848101516040613d03613093836131c2565b8281528b82848601011115613d185760008081fd5b613d2783898301848701613c50565b8652505050918301918301613cc0565b600080600060608486031215613d4c57600080fd5b8351613d5781612db8565b809350506020808501516001600160401b0380821115613d7657600080fd5b818701915087601f830112613d8a57600080fd5b8151613d986130938261304f565b81815260059190911b8301840190848101908a831115613db757600080fd5b938501935b82851015613dde578451613dcf8161333a565b82529385019390850190613dbc565b60408a01519097509450505080831115613df757600080fd5b5050613c1186828701613c7c565b600081518084526020808501945080840160005b83811015613e3857815160ff1687529582019590820190600101613e19565b509495945050505050565b60008151808452613e5b816020860160208601613c50565b601f01601f19169290920160200192915050565b600081518084526020808501808196508360051b8101915082860160005b85811015613eb7578284038952613ea5848351613e43565b98850198935090840190600101613e8d565b5091979650505050505050565b604081526000613ed76040830185613e05565b8281036020840152613ee98185613e6f565b95945050505050565b602081526000825160a06020840152613f0e60c0840182613e43565b905060018060a01b0360208501511660408401526040840151606084015260608401516080840152608084015160a08401528091505092915050565b600082821015613f5c57613f5c6134d5565b500390565b6001600160a01b0384168152606060208201819052600090613f8590830185613e05565b8281036040840152613f978185613e6f565b9695505050505050565b600061012061ffff8c1683528a602084015289604084015260018060a01b03891660608401528760808401528660a08401528060c084015285518184015250602085015161014083015260408501516060610160840152614006610180840182613e43565b905082810360e084015261401a8186613e43565b905082810361010084015261402f8185613e43565b9c9b505050505050505050505050565b60008251614051818460208701613c50565b9190910192915050565b84815283602082015260018060a01b0383166040820152608060608201526000613f976080830184613e43565b60008160001904831182151516156140a2576140a26134d5565b500290565b6000826140c457634e487b7160e01b600052601260045260246000fd5b500490565b80516001600160701b0381168114612ddb57600080fd5b6000806000606084860312156140f557600080fd5b6140fe846140c9565b925061410c602085016140c9565b9150604084015163ffffffff81168114612e2e57600080fd5b60208152600061166e6020830184613e4356fea2646970667358221220b30bf62302ca94db3a99dbf9618960e06c894dab49fafea16959de478036abfc64736f6c634300080f0033",
    "linkReferences": {}
  },
  "methodIdentifiers": {
    "factory()": "c45a0155",
    "feeCollector()": "c415b95c",
    "getAmountOut(uint256,address,address)": "5e1e6325",
    "getAmountsOut(uint256,(address,address,bool)[])": "9881fcb4",
    "isPair(address)": "e5e31b13",
    "optimismSwaps(uint8[],bytes[])": "5df63bae",
    "pairCodeHash()": "9aab9248",
    "pairFor(address,address,bool)": "4c1ee03e",
    "sgReceive(uint16,bytes,uint256,address,uint256,bytes)": "ab8236f3",
    "sortTokens(address,address)": "544caa56",
    "stargateRouter()": "a9e56f3c",
    "swapRouter()": "c31c9c07",
    "veloFactory()": "c7f5fd10",
    "veloRouter()": "d5ef98ea",
    "veloWETH()": "fdc09e07"
  },
  "id": 66
}