{
  "abi": [
    {
      "inputs": [
        {
          "internalType": "contract ERC20",
          "name": "_asset",
          "type": "address"
        },
        {
          "internalType": "string",
          "name": "_name",
          "type": "string"
        },
        {
          "internalType": "string",
          "name": "_symbol",
          "type": "string"
        },
        {
          "internalType": "address",
          "name": "_rewards",
          "type": "address"
        },
        {
          "internalType": "address",
          "name": "_ethPool",
          "type": "address"
        },
        {
          "internalType": "address",
          "name": "_trading",
          "type": "address"
        },
        {
          "internalType": "contract WETH",
          "name": "_weth",
          "type": "address"
        }
      ],
      "stateMutability": "nonpayable",
      "type": "constructor"
    },
    {
      "inputs": [],
      "name": "NotKeeper",
      "type": "error"
    },
    {
      "anonymous": false,
      "inputs": [
        {
          "indexed": true,
          "internalType": "address",
          "name": "owner",
          "type": "address"
        },
        {
          "indexed": true,
          "internalType": "address",
          "name": "spender",
          "type": "address"
        },
        {
          "indexed": false,
          "internalType": "uint256",
          "name": "amount",
          "type": "uint256"
        }
      ],
      "name": "Approval",
      "type": "event"
    },
    {
      "anonymous": false,
      "inputs": [
        {
          "indexed": true,
          "internalType": "address",
          "name": "caller",
          "type": "address"
        },
        {
          "indexed": true,
          "internalType": "address",
          "name": "owner",
          "type": "address"
        },
        {
          "indexed": false,
          "internalType": "uint256",
          "name": "assets",
          "type": "uint256"
        },
        {
          "indexed": false,
          "internalType": "uint256",
          "name": "shares",
          "type": "uint256"
        }
      ],
      "name": "Deposit",
      "type": "event"
    },
    {
      "anonymous": false,
      "inputs": [
        {
          "indexed": true,
          "internalType": "address",
          "name": "from",
          "type": "address"
        },
        {
          "indexed": true,
          "internalType": "address",
          "name": "to",
          "type": "address"
        },
        {
          "indexed": false,
          "internalType": "uint256",
          "name": "amount",
          "type": "uint256"
        }
      ],
      "name": "Transfer",
      "type": "event"
    },
    {
      "anonymous": false,
      "inputs": [
        {
          "indexed": true,
          "internalType": "address",
          "name": "caller",
          "type": "address"
        },
        {
          "indexed": true,
          "internalType": "address",
          "name": "receiver",
          "type": "address"
        },
        {
          "indexed": true,
          "internalType": "address",
          "name": "owner",
          "type": "address"
        },
        {
          "indexed": false,
          "internalType": "uint256",
          "name": "assets",
          "type": "uint256"
        },
        {
          "indexed": false,
          "internalType": "uint256",
          "name": "shares",
          "type": "uint256"
        }
      ],
      "name": "Withdraw",
      "type": "event"
    },
    {
      "inputs": [],
      "name": "DOMAIN_SEPARATOR",
      "outputs": [
        {
          "internalType": "bytes32",
          "name": "",
          "type": "bytes32"
        }
      ],
      "stateMutability": "view",
      "type": "function"
    },
    {
      "inputs": [
        {
          "internalType": "address",
          "name": "",
          "type": "address"
        },
        {
          "internalType": "address",
          "name": "",
          "type": "address"
        }
      ],
      "name": "allowance",
      "outputs": [
        {
          "internalType": "uint256",
          "name": "",
          "type": "uint256"
        }
      ],
      "stateMutability": "view",
      "type": "function"
    },
    {
      "inputs": [
        {
          "internalType": "address",
          "name": "spender",
          "type": "address"
        },
        {
          "internalType": "uint256",
          "name": "amount",
          "type": "uint256"
        }
      ],
      "name": "approve",
      "outputs": [
        {
          "internalType": "bool",
          "name": "",
          "type": "bool"
        }
      ],
      "stateMutability": "nonpayable",
      "type": "function"
    },
    {
      "inputs": [],
      "name": "asset",
      "outputs": [
        {
          "internalType": "contract ERC20",
          "name": "",
          "type": "address"
        }
      ],
      "stateMutability": "view",
      "type": "function"
    },
    {
      "inputs": [
        {
          "internalType": "address",
          "name": "",
          "type": "address"
        }
      ],
      "name": "balanceOf",
      "outputs": [
        {
          "internalType": "uint256",
          "name": "",
          "type": "uint256"
        }
      ],
      "stateMutability": "view",
      "type": "function"
    },
    {
      "inputs": [
        {
          "internalType": "uint256",
          "name": "shares",
          "type": "uint256"
        }
      ],
      "name": "convertToAssets",
      "outputs": [
        {
          "internalType": "uint256",
          "name": "",
          "type": "uint256"
        }
      ],
      "stateMutability": "view",
      "type": "function"
    },
    {
      "inputs": [
        {
          "internalType": "uint256",
          "name": "assets",
          "type": "uint256"
        }
      ],
      "name": "convertToShares",
      "outputs": [
        {
          "internalType": "uint256",
          "name": "",
          "type": "uint256"
        }
      ],
      "stateMutability": "view",
      "type": "function"
    },
    {
      "inputs": [],
      "name": "decimals",
      "outputs": [
        {
          "internalType": "uint8",
          "name": "",
          "type": "uint8"
        }
      ],
      "stateMutability": "view",
      "type": "function"
    },
    {
      "inputs": [
        {
          "internalType": "uint256",
          "name": "assets",
          "type": "uint256"
        },
        {
          "internalType": "address",
          "name": "receiver",
          "type": "address"
        }
      ],
      "name": "deposit",
      "outputs": [
        {
          "internalType": "uint256",
          "name": "shares",
          "type": "uint256"
        }
      ],
      "stateMutability": "nonpayable",
      "type": "function"
    },
    {
      "inputs": [],
      "name": "ethPool",
      "outputs": [
        {
          "internalType": "contract IETHPool",
          "name": "",
          "type": "address"
        }
      ],
      "stateMutability": "view",
      "type": "function"
    },
    {
      "inputs": [
        {
          "internalType": "address",
          "name": "",
          "type": "address"
        }
      ],
      "name": "maxDeposit",
      "outputs": [
        {
          "internalType": "uint256",
          "name": "",
          "type": "uint256"
        }
      ],
      "stateMutability": "view",
      "type": "function"
    },
    {
      "inputs": [
        {
          "internalType": "address",
          "name": "",
          "type": "address"
        }
      ],
      "name": "maxMint",
      "outputs": [
        {
          "internalType": "uint256",
          "name": "",
          "type": "uint256"
        }
      ],
      "stateMutability": "view",
      "type": "function"
    },
    {
      "inputs": [
        {
          "internalType": "address",
          "name": "owner",
          "type": "address"
        }
      ],
      "name": "maxRedeem",
      "outputs": [
        {
          "internalType": "uint256",
          "name": "",
          "type": "uint256"
        }
      ],
      "stateMutability": "view",
      "type": "function"
    },
    {
      "inputs": [
        {
          "internalType": "address",
          "name": "owner",
          "type": "address"
        }
      ],
      "name": "maxWithdraw",
      "outputs": [
        {
          "internalType": "uint256",
          "name": "",
          "type": "uint256"
        }
      ],
      "stateMutability": "view",
      "type": "function"
    },
    {
      "inputs": [
        {
          "internalType": "uint256",
          "name": "shares",
          "type": "uint256"
        },
        {
          "internalType": "address",
          "name": "receiver",
          "type": "address"
        }
      ],
      "name": "mint",
      "outputs": [
        {
          "internalType": "uint256",
          "name": "assets",
          "type": "uint256"
        }
      ],
      "stateMutability": "nonpayable",
      "type": "function"
    },
    {
      "inputs": [],
      "name": "name",
      "outputs": [
        {
          "internalType": "string",
          "name": "",
          "type": "string"
        }
      ],
      "stateMutability": "view",
      "type": "function"
    },
    {
      "inputs": [
        {
          "internalType": "address",
          "name": "",
          "type": "address"
        }
      ],
      "name": "nonces",
      "outputs": [
        {
          "internalType": "uint256",
          "name": "",
          "type": "uint256"
        }
      ],
      "stateMutability": "view",
      "type": "function"
    },
    {
      "inputs": [
        {
          "internalType": "address",
          "name": "owner",
          "type": "address"
        },
        {
          "internalType": "address",
          "name": "spender",
          "type": "address"
        },
        {
          "internalType": "uint256",
          "name": "value",
          "type": "uint256"
        },
        {
          "internalType": "uint256",
          "name": "deadline",
          "type": "uint256"
        },
        {
          "internalType": "uint8",
          "name": "v",
          "type": "uint8"
        },
        {
          "internalType": "bytes32",
          "name": "r",
          "type": "bytes32"
        },
        {
          "internalType": "bytes32",
          "name": "s",
          "type": "bytes32"
        }
      ],
      "name": "permit",
      "outputs": [],
      "stateMutability": "nonpayable",
      "type": "function"
    },
    {
      "inputs": [
        {
          "internalType": "uint256",
          "name": "assets",
          "type": "uint256"
        }
      ],
      "name": "previewDeposit",
      "outputs": [
        {
          "internalType": "uint256",
          "name": "",
          "type": "uint256"
        }
      ],
      "stateMutability": "view",
      "type": "function"
    },
    {
      "inputs": [
        {
          "internalType": "uint256",
          "name": "shares",
          "type": "uint256"
        }
      ],
      "name": "previewMint",
      "outputs": [
        {
          "internalType": "uint256",
          "name": "",
          "type": "uint256"
        }
      ],
      "stateMutability": "view",
      "type": "function"
    },
    {
      "inputs": [
        {
          "internalType": "uint256",
          "name": "shares",
          "type": "uint256"
        }
      ],
      "name": "previewRedeem",
      "outputs": [
        {
          "internalType": "uint256",
          "name": "",
          "type": "uint256"
        }
      ],
      "stateMutability": "view",
      "type": "function"
    },
    {
      "inputs": [
        {
          "internalType": "uint256",
          "name": "assets",
          "type": "uint256"
        }
      ],
      "name": "previewWithdraw",
      "outputs": [
        {
          "internalType": "uint256",
          "name": "",
          "type": "uint256"
        }
      ],
      "stateMutability": "view",
      "type": "function"
    },
    {
      "inputs": [],
      "name": "rebalance",
      "outputs": [],
      "stateMutability": "nonpayable",
      "type": "function"
    },
    {
      "inputs": [
        {
          "internalType": "uint256",
          "name": "shares",
          "type": "uint256"
        },
        {
          "internalType": "address",
          "name": "receiver",
          "type": "address"
        },
        {
          "internalType": "address",
          "name": "owner",
          "type": "address"
        }
      ],
      "name": "redeem",
      "outputs": [
        {
          "internalType": "uint256",
          "name": "assets",
          "type": "uint256"
        }
      ],
      "stateMutability": "nonpayable",
      "type": "function"
    },
    {
      "inputs": [],
      "name": "rewards",
      "outputs": [
        {
          "internalType": "contract IETHRewardsPool",
          "name": "",
          "type": "address"
        }
      ],
      "stateMutability": "view",
      "type": "function"
    },
    {
      "inputs": [],
      "name": "symbol",
      "outputs": [
        {
          "internalType": "string",
          "name": "",
          "type": "string"
        }
      ],
      "stateMutability": "view",
      "type": "function"
    },
    {
      "inputs": [],
      "name": "totalAssets",
      "outputs": [
        {
          "internalType": "uint256",
          "name": "",
          "type": "uint256"
        }
      ],
      "stateMutability": "view",
      "type": "function"
    },
    {
      "inputs": [],
      "name": "totalSupply",
      "outputs": [
        {
          "internalType": "uint256",
          "name": "",
          "type": "uint256"
        }
      ],
      "stateMutability": "view",
      "type": "function"
    },
    {
      "inputs": [],
      "name": "trading",
      "outputs": [
        {
          "internalType": "contract ITrading",
          "name": "",
          "type": "address"
        }
      ],
      "stateMutability": "view",
      "type": "function"
    },
    {
      "inputs": [
        {
          "internalType": "address",
          "name": "to",
          "type": "address"
        },
        {
          "internalType": "uint256",
          "name": "amount",
          "type": "uint256"
        }
      ],
      "name": "transfer",
      "outputs": [
        {
          "internalType": "bool",
          "name": "",
          "type": "bool"
        }
      ],
      "stateMutability": "nonpayable",
      "type": "function"
    },
    {
      "inputs": [
        {
          "internalType": "address",
          "name": "from",
          "type": "address"
        },
        {
          "internalType": "address",
          "name": "to",
          "type": "address"
        },
        {
          "internalType": "uint256",
          "name": "amount",
          "type": "uint256"
        }
      ],
      "name": "transferFrom",
      "outputs": [
        {
          "internalType": "bool",
          "name": "",
          "type": "bool"
        }
      ],
      "stateMutability": "nonpayable",
      "type": "function"
    },
    {
      "inputs": [],
      "name": "weth",
      "outputs": [
        {
          "internalType": "contract WETH",
          "name": "",
          "type": "address"
        }
      ],
      "stateMutability": "view",
      "type": "function"
    },
    {
      "inputs": [
        {
          "internalType": "uint256",
          "name": "assets",
          "type": "uint256"
        },
        {
          "internalType": "address",
          "name": "receiver",
          "type": "address"
        },
        {
          "internalType": "address",
          "name": "owner",
          "type": "address"
        }
      ],
      "name": "withdraw",
      "outputs": [
        {
          "internalType": "uint256",
          "name": "shares",
          "type": "uint256"
        }
      ],
      "stateMutability": "nonpayable",
      "type": "function"
    },
    {
      "stateMutability": "payable",
      "type": "receive"
    }
  ],
  "bytecode": {
    "object": "0x6101806040523480156200001257600080fd5b5060405162001f1b38038062001f1b833981016040819052620000359162000293565b8383838989898181846001600160a01b031663313ce5676040518163ffffffff1660e01b8152600401602060405180830381865afa1580156200007c573d6000803e3d6000fd5b505050506040513d601f19601f82011682018060405250810190620000a291906200036a565b6000620000b0848262000425565b506001620000bf838262000425565b5060ff81166080524660a052620000d562000111565b60c0525050506001600160a01b0392831660e052505092831661010052908216610120528116610140521661016052506200056f945050505050565b60007f8b73c3c69bb8fe3d512ecc4cf759cc79239f7b179b0ffacaa9a75d522b39400f6000604051620001459190620004f1565b6040805191829003822060208301939093528101919091527fc89efdaa54c0f20c7adf612882df0950f5a951637e0307cdcb4c672f298b8bc660608201524660808201523060a082015260c00160405160208183030381529060405280519060200120905090565b6001600160a01b0381168114620001c357600080fd5b50565b634e487b7160e01b600052604160045260246000fd5b600082601f830112620001ee57600080fd5b81516001600160401b03808211156200020b576200020b620001c6565b604051601f8301601f19908116603f01168101908282118183101715620002365762000236620001c6565b816040528381526020925086838588010111156200025357600080fd5b600091505b8382101562000277578582018301518183018401529082019062000258565b83821115620002895760008385830101525b9695505050505050565b600080600080600080600060e0888a031215620002af57600080fd5b8751620002bc81620001ad565b60208901519097506001600160401b0380821115620002da57600080fd5b620002e88b838c01620001dc565b975060408a0151915080821115620002ff57600080fd5b506200030e8a828b01620001dc565b95505060608801516200032181620001ad565b60808901519094506200033481620001ad565b60a08901519093506200034781620001ad565b60c08901519092506200035a81620001ad565b8091505092959891949750929550565b6000602082840312156200037d57600080fd5b815160ff811681146200038f57600080fd5b9392505050565b600181811c90821680620003ab57607f821691505b602082108103620003cc57634e487b7160e01b600052602260045260246000fd5b50919050565b601f8211156200042057600081815260208120601f850160051c81016020861015620003fb5750805b601f850160051c820191505b818110156200041c5782815560010162000407565b5050505b505050565b81516001600160401b03811115620004415762000441620001c6565b620004598162000452845462000396565b84620003d2565b602080601f831160018114620004915760008415620004785750858301515b600019600386901b1c1916600185901b1785556200041c565b600085815260208120601f198616915b82811015620004c257888601518255948401946001909101908401620004a1565b5085821015620004e15787850151600019600388901b60f8161c191681555b5050505050600190811b01905550565b6000808354620005018162000396565b600182811680156200051c5760018114620005325762000563565b60ff198416875282151583028701945062000563565b8760005260208060002060005b858110156200055a5781548a8201529084019082016200053f565b50505082870194505b50929695505050505050565b60805160a05160c05160e0516101005161012051610140516101605161190e6200060d600039600081816103ac015261116d015260008181610668015261148c0152600081816106bc0152611502015260006104e60152600081816103600152818161073b01528181610a9001528181610c7a01528181610dbc015261119701526000610a14015260006109df01526000610305015261190e6000f3fe6080604052600436106101f25760003560e01c80637ecebe001161010d578063c63d75b6116100a0578063d905777e1161006f578063d905777e146105e8578063dd62ed3e1461061e578063ec44acf214610656578063ef8b30f71461068a578063f16673a4146106aa57600080fd5b8063c63d75b6146103ce578063c6e6f59214610588578063ce96cb77146105a8578063d505accf146105c857600080fd5b8063a9059cbb116100dc578063a9059cbb14610508578063b3d7f6b914610528578063b460af9414610548578063ba0876521461056857600080fd5b80637ecebe001461047257806394bf804d1461049f57806395d89b41146104bf5780639ec5a894146104d457600080fd5b80633644e515116101855780634cdad506116101545780634cdad506146103f05780636e553f651461041057806370a08231146104305780637d7c2a1c1461045d57600080fd5b80633644e5151461033957806338d52e0f1461034e5780633fc8cef31461039a578063402d267d146103ce57600080fd5b80630a28a477116101c15780630a28a4771461029d57806318160ddd146102bd57806323b872dd146102d3578063313ce567146102f357600080fd5b806301e1d1141461020857806306fdde031461022b57806307a2d13a1461024d578063095ea7b31461026d57600080fd5b366102035761020134336106de565b005b600080fd5b34801561021457600080fd5b5060005b6040519081526020015b60405180910390f35b34801561023757600080fd5b506102406107c3565b604051610222919061154f565b34801561025957600080fd5b506102186102683660046115a4565b610851565b34801561027957600080fd5b5061028d6102883660046115d9565b610877565b6040519015158152602001610222565b3480156102a957600080fd5b506102186102b83660046115a4565b6108e3565b3480156102c957600080fd5b5061021860025481565b3480156102df57600080fd5b5061028d6102ee366004611603565b6108fb565b3480156102ff57600080fd5b506103277f000000000000000000000000000000000000000000000000000000000000000081565b60405160ff9091168152602001610222565b34801561034557600080fd5b506102186109db565b34801561035a57600080fd5b506103827f000000000000000000000000000000000000000000000000000000000000000081565b6040516001600160a01b039091168152602001610222565b3480156103a657600080fd5b506103827f000000000000000000000000000000000000000000000000000000000000000081565b3480156103da57600080fd5b506102186103e936600461163f565b5060001990565b3480156103fc57600080fd5b5061021861040b3660046115a4565b610a36565b34801561041c57600080fd5b5061021861042b36600461165a565b6106de565b34801561043c57600080fd5b5061021861044b36600461163f565b60036020526000908152604090205481565b34801561046957600080fd5b50610201610a41565b34801561047e57600080fd5b5061021861048d36600461163f565b60056020526000908152604090205481565b3480156104ab57600080fd5b506102186104ba36600461165a565b610a76565b3480156104cb57600080fd5b50610240610b12565b3480156104e057600080fd5b506103827f000000000000000000000000000000000000000000000000000000000000000081565b34801561051457600080fd5b5061028d6105233660046115d9565b610b1f565b34801561053457600080fd5b506102186105433660046115a4565b610b85565b34801561055457600080fd5b50610218610563366004611686565b610b9d565b34801561057457600080fd5b50610218610583366004611686565b610ca1565b34801561059457600080fd5b506102186105a33660046115a4565b610de3565b3480156105b457600080fd5b506102186105c336600461163f565b610dfb565b3480156105d457600080fd5b506102016105e33660046116c2565b610e1d565b3480156105f457600080fd5b5061021861060336600461163f565b6001600160a01b031660009081526003602052604090205490565b34801561062a57600080fd5b50610218610639366004611735565b600460209081526000928352604080842090915290825290205481565b34801561066257600080fd5b506103827f000000000000000000000000000000000000000000000000000000000000000081565b34801561069657600080fd5b506102186106a53660046115a4565b611061565b3480156106b657600080fd5b506103827f000000000000000000000000000000000000000000000000000000000000000081565b60006106e983611061565b90508060000361072e5760405162461bcd60e51b815260206004820152600b60248201526a5a45524f5f53484152455360a81b60448201526064015b60405180910390fd5b6107636001600160a01b037f00000000000000000000000000000000000000000000000000000000000000001633308661106c565b61076d82826110f6565b60408051848152602081018390526001600160a01b0384169133917fdcbc1c05240f31ff3ad067ef1ee35ce4997762752e3a095284754544f4c709d7910160405180910390a36107bd8382611150565b92915050565b600080546107d09061175f565b80601f01602080910402602001604051908101604052809291908181526020018280546107fc9061175f565b80156108495780601f1061081e57610100808354040283529160200191610849565b820191906000526020600020905b81548152906001019060200180831161082c57829003601f168201915b505050505081565b600254600090801561086e5761086983600083611256565b610870565b825b9392505050565b3360008181526004602090815260408083206001600160a01b038716808552925280832085905551919290917f8c5be1e5ebec7d5bd14f71427d1e84f3dd0314c0f7b2291e5b200ac8c7c3b925906108d29086815260200190565b60405180910390a350600192915050565b600254600090801561086e5761086983826000611274565b6001600160a01b038316600090815260046020908152604080832033845290915281205460001981146109575761093283826117af565b6001600160a01b03861660009081526004602090815260408083203384529091529020555b6001600160a01b0385166000908152600360205260408120805485929061097f9084906117af565b90915550506001600160a01b03808516600081815260036020526040908190208054870190555190918716906000805160206118b9833981519152906109c89087815260200190565b60405180910390a3506001949350505050565b60007f00000000000000000000000000000000000000000000000000000000000000004614610a1157610a0c61129a565b905090565b507f000000000000000000000000000000000000000000000000000000000000000090565b60006107bd82610851565b6007546001600160a01b03163314610a6c57604051631ea2564f60e31b815260040160405180910390fd5b610a74611334565b565b6000610a8183610b85565b9050610ab86001600160a01b037f00000000000000000000000000000000000000000000000000000000000000001633308461106c565b610ac282846110f6565b60408051828152602081018590526001600160a01b0384169133917fdcbc1c05240f31ff3ad067ef1ee35ce4997762752e3a095284754544f4c709d7910160405180910390a36107bd8184611150565b600180546107d09061175f565b33600090815260036020526040812080548391908390610b409084906117af565b90915550506001600160a01b038316600081815260036020526040908190208054850190555133906000805160206118b9833981519152906108d29086815260200190565b600254600090801561086e5761086983600083611274565b6000610ba8846108e3565b9050336001600160a01b03831614610c18576001600160a01b03821660009081526004602090815260408083203384529091529020546000198114610c1657610bf182826117af565b6001600160a01b03841660009081526004602090815260408083203384529091529020555b505b610c22828261135a565b60408051858152602081018390526001600160a01b03808516929086169133917ffbde797d201c681b91056529119e0b02407c7bb96a4a2c75c01fc9667232c8db910160405180910390a46108706001600160a01b037f00000000000000000000000000000000000000000000000000000000000000001684866113bc565b6000336001600160a01b03831614610d11576001600160a01b03821660009081526004602090815260408083203384529091529020546000198114610d0f57610cea85826117af565b6001600160a01b03841660009081526004602090815260408083203384529091529020555b505b610d1a84610a36565b905080600003610d5a5760405162461bcd60e51b815260206004820152600b60248201526a5a45524f5f41535345545360a81b6044820152606401610725565b610d64828561135a565b60408051828152602081018690526001600160a01b03808516929086169133917ffbde797d201c681b91056529119e0b02407c7bb96a4a2c75c01fc9667232c8db910160405180910390a46108706001600160a01b037f00000000000000000000000000000000000000000000000000000000000000001684836113bc565b600254600090801561086e5761086983826000611256565b6001600160a01b0381166000908152600360205260408120546107bd90610851565b42841015610e6d5760405162461bcd60e51b815260206004820152601760248201527f5045524d49545f444541444c494e455f455850495245440000000000000000006044820152606401610725565b60006001610e796109db565b6001600160a01b038a811660008181526005602090815260409182902080546001810190915582517f6e71edae12b1b97f4d1f60370fef10105fa2faae0126114a169c64845d6126c98184015280840194909452938d166060840152608083018c905260a083019390935260c08083018b90528151808403909101815260e08301909152805192019190912061190160f01b6101008301526101028201929092526101228101919091526101420160408051601f198184030181528282528051602091820120600084529083018083525260ff871690820152606081018590526080810184905260a0016020604051602081039080840390855afa158015610f85573d6000803e3d6000fd5b5050604051601f1901519150506001600160a01b03811615801590610fbb5750876001600160a01b0316816001600160a01b0316145b610ff85760405162461bcd60e51b815260206004820152600e60248201526d24a72b20a624a22fa9a4a3a722a960911b6044820152606401610725565b6001600160a01b0390811660009081526004602090815260408083208a8516808552908352928190208990555188815291928a16917f8c5be1e5ebec7d5bd14f71427d1e84f3dd0314c0f7b2291e5b200ac8c7c3b925910160405180910390a350505050505050565b60006107bd82610de3565b60006040516323b872dd60e01b81528460048201528360248201528260448201526020600060648360008a5af13d15601f3d11600160005114161716915050806110ef5760405162461bcd60e51b81526020600482015260146024820152731514905394d1915497d19493d357d1905253115160621b6044820152606401610725565b5050505050565b806002600082825461110891906117c6565b90915550506001600160a01b0382166000818152600360209081526040808320805486019055518481526000805160206118b983398151915291015b60405180910390a35050565b6040516370a0823160e01b81523060048201526001600160a01b037f0000000000000000000000000000000000000000000000000000000000000000811691632e1a7d4d917f000000000000000000000000000000000000000000000000000000000000000016906370a0823190602401602060405180830381865afa1580156111de573d6000803e3d6000fd5b505050506040513d601f19601f8201168201806040525081019061120291906117de565b6040518263ffffffff1660e01b815260040161122091815260200190565b600060405180830381600087803b15801561123a57600080fd5b505af115801561124e573d6000803e3d6000fd5b505050505050565b600082600019048411830215820261126d57600080fd5b5091020490565b600082600019048411830215820261128b57600080fd5b50910281810615159190040190565b60007f8b73c3c69bb8fe3d512ecc4cf759cc79239f7b179b0ffacaa9a75d522b39400f60006040516112cc91906117f7565b6040805191829003822060208301939093528101919091527fc89efdaa54c0f20c7adf612882df0950f5a951637e0307cdcb4c672f298b8bc660608201524660808201523060a082015260c00160405160208183030381529060405280519060200120905090565b476000611342600283611896565b905061134d8161143a565b611356816114ec565b5050565b6001600160a01b038216600090815260036020526040812080548392906113829084906117af565b90915550506002805482900390556040518181526000906001600160a01b038416906000805160206118b983398151915290602001611144565b600060405163a9059cbb60e01b8152836004820152826024820152602060006044836000895af13d15601f3d11600160005114161716915050806114345760405162461bcd60e51b815260206004820152600f60248201526e1514905394d1915497d19052531151608a1b6044820152606401610725565b50505050565b806006600082825461144c91906117c6565b90915550506040516339c6e45d60e01b8152661155120b5554d160ca1b6004820152600060248201819052604482015260648101829052608481018290527f00000000000000000000000000000000000000000000000000000000000000006001600160a01b0316906339c6e45d9060a401600060405180830381600087803b1580156114d857600080fd5b505af11580156110ef573d6000803e3d6000fd5b60405163b6b55f2560e01b8152600060048201527f00000000000000000000000000000000000000000000000000000000000000006001600160a01b03169063b6b55f259083906024016000604051808303818588803b15801561123a57600080fd5b600060208083528351808285015260005b8181101561157c57858101830151858201604001528201611560565b8181111561158e576000604083870101525b50601f01601f1916929092016040019392505050565b6000602082840312156115b657600080fd5b5035919050565b80356001600160a01b03811681146115d457600080fd5b919050565b600080604083850312156115ec57600080fd5b6115f5836115bd565b946020939093013593505050565b60008060006060848603121561161857600080fd5b611621846115bd565b925061162f602085016115bd565b9150604084013590509250925092565b60006020828403121561165157600080fd5b610870826115bd565b6000806040838503121561166d57600080fd5b8235915061167d602084016115bd565b90509250929050565b60008060006060848603121561169b57600080fd5b833592506116ab602085016115bd565b91506116b9604085016115bd565b90509250925092565b600080600080600080600060e0888a0312156116dd57600080fd5b6116e6886115bd565b96506116f4602089016115bd565b95506040880135945060608801359350608088013560ff8116811461171857600080fd5b9699959850939692959460a0840135945060c09093013592915050565b6000806040838503121561174857600080fd5b611751836115bd565b915061167d602084016115bd565b600181811c9082168061177357607f821691505b60208210810361179357634e487b7160e01b600052602260045260246000fd5b50919050565b634e487b7160e01b600052601160045260246000fd5b6000828210156117c1576117c1611799565b500390565b600082198211156117d9576117d9611799565b500190565b6000602082840312156117f057600080fd5b5051919050565b600080835481600182811c91508083168061181357607f831692505b6020808410820361183257634e487b7160e01b86526022600452602486fd5b818015611846576001811461185b57611888565b60ff1986168952841515850289019650611888565b60008a81526020902060005b868110156118805781548b820152908501908301611867565b505084890196505b509498975050505050505050565b6000826118b357634e487b7160e01b600052601260045260246000fd5b50049056feddf252ad1be2c89b69c2b068fc378daa952ba7f163c4a11628f55a4df523b3efa264697066735822122065fadda98e42dff0ee5b4494aa833931cf754eb566e4f1c92ade42732fdf324764736f6c634300080f0033",
    "linkReferences": {}
  },
  "methodIdentifiers": {
    "DOMAIN_SEPARATOR()": "3644e515",
    "allowance(address,address)": "dd62ed3e",
    "approve(address,uint256)": "095ea7b3",
    "asset()": "38d52e0f",
    "balanceOf(address)": "70a08231",
    "convertToAssets(uint256)": "07a2d13a",
    "convertToShares(uint256)": "c6e6f592",
    "decimals()": "313ce567",
    "deposit(uint256,address)": "6e553f65",
    "ethPool()": "f16673a4",
    "maxDeposit(address)": "402d267d",
    "maxMint(address)": "c63d75b6",
    "maxRedeem(address)": "d905777e",
    "maxWithdraw(address)": "ce96cb77",
    "mint(uint256,address)": "94bf804d",
    "name()": "06fdde03",
    "nonces(address)": "7ecebe00",
    "permit(address,address,uint256,uint256,uint8,bytes32,bytes32)": "d505accf",
    "previewDeposit(uint256)": "ef8b30f7",
    "previewMint(uint256)": "b3d7f6b9",
    "previewRedeem(uint256)": "4cdad506",
    "previewWithdraw(uint256)": "0a28a477",
    "rebalance()": "7d7c2a1c",
    "redeem(uint256,address,address)": "ba087652",
    "rewards()": "9ec5a894",
    "symbol()": "95d89b41",
    "totalAssets()": "01e1d114",
    "totalSupply()": "18160ddd",
    "trading()": "ec44acf2",
    "transfer(address,uint256)": "a9059cbb",
    "transferFrom(address,address,uint256)": "23b872dd",
    "weth()": "3fc8cef3",
    "withdraw(uint256,address,address)": "b460af94"
  },
  "id": 5
}