{
  "abi": [
    {
      "inputs": [
        {
          "internalType": "contract ERC20",
          "name": "_asset",
          "type": "address"
        },
        {
          "internalType": "string",
          "name": "_name",
          "type": "string"
        },
        {
          "internalType": "string",
          "name": "_symbol",
          "type": "string"
        },
        {
          "internalType": "address",
          "name": "_rewards",
          "type": "address"
        },
        {
          "internalType": "address",
          "name": "_ethPool",
          "type": "address"
        },
        {
          "internalType": "address",
          "name": "_trading",
          "type": "address"
        },
        {
          "internalType": "contract WETH",
          "name": "_weth",
          "type": "address"
        }
      ],
      "stateMutability": "nonpayable",
      "type": "constructor"
    },
    {
      "inputs": [],
      "name": "DepositsClosed",
      "type": "error"
    },
    {
      "inputs": [],
      "name": "NotKeeper",
      "type": "error"
    },
    {
      "inputs": [],
      "name": "WithdrawsClosed",
      "type": "error"
    },
    {
      "anonymous": false,
      "inputs": [
        {
          "indexed": true,
          "internalType": "address",
          "name": "owner",
          "type": "address"
        },
        {
          "indexed": true,
          "internalType": "address",
          "name": "spender",
          "type": "address"
        },
        {
          "indexed": false,
          "internalType": "uint256",
          "name": "amount",
          "type": "uint256"
        }
      ],
      "name": "Approval",
      "type": "event"
    },
    {
      "anonymous": false,
      "inputs": [
        {
          "indexed": true,
          "internalType": "address",
          "name": "caller",
          "type": "address"
        },
        {
          "indexed": true,
          "internalType": "address",
          "name": "owner",
          "type": "address"
        },
        {
          "indexed": false,
          "internalType": "uint256",
          "name": "assets",
          "type": "uint256"
        },
        {
          "indexed": false,
          "internalType": "uint256",
          "name": "shares",
          "type": "uint256"
        }
      ],
      "name": "Deposit",
      "type": "event"
    },
    {
      "anonymous": false,
      "inputs": [
        {
          "indexed": true,
          "internalType": "address",
          "name": "from",
          "type": "address"
        },
        {
          "indexed": true,
          "internalType": "address",
          "name": "to",
          "type": "address"
        },
        {
          "indexed": false,
          "internalType": "uint256",
          "name": "amount",
          "type": "uint256"
        }
      ],
      "name": "Transfer",
      "type": "event"
    },
    {
      "anonymous": false,
      "inputs": [
        {
          "indexed": true,
          "internalType": "address",
          "name": "caller",
          "type": "address"
        },
        {
          "indexed": true,
          "internalType": "address",
          "name": "receiver",
          "type": "address"
        },
        {
          "indexed": true,
          "internalType": "address",
          "name": "owner",
          "type": "address"
        },
        {
          "indexed": false,
          "internalType": "uint256",
          "name": "assets",
          "type": "uint256"
        },
        {
          "indexed": false,
          "internalType": "uint256",
          "name": "shares",
          "type": "uint256"
        }
      ],
      "name": "Withdraw",
      "type": "event"
    },
    {
      "inputs": [],
      "name": "DOMAIN_SEPARATOR",
      "outputs": [
        {
          "internalType": "bytes32",
          "name": "",
          "type": "bytes32"
        }
      ],
      "stateMutability": "view",
      "type": "function"
    },
    {
      "inputs": [
        {
          "internalType": "address",
          "name": "",
          "type": "address"
        },
        {
          "internalType": "address",
          "name": "",
          "type": "address"
        }
      ],
      "name": "allowance",
      "outputs": [
        {
          "internalType": "uint256",
          "name": "",
          "type": "uint256"
        }
      ],
      "stateMutability": "view",
      "type": "function"
    },
    {
      "inputs": [
        {
          "internalType": "address",
          "name": "spender",
          "type": "address"
        },
        {
          "internalType": "uint256",
          "name": "amount",
          "type": "uint256"
        }
      ],
      "name": "approve",
      "outputs": [
        {
          "internalType": "bool",
          "name": "",
          "type": "bool"
        }
      ],
      "stateMutability": "nonpayable",
      "type": "function"
    },
    {
      "inputs": [],
      "name": "asset",
      "outputs": [
        {
          "internalType": "contract ERC20",
          "name": "",
          "type": "address"
        }
      ],
      "stateMutability": "view",
      "type": "function"
    },
    {
      "inputs": [
        {
          "internalType": "address",
          "name": "",
          "type": "address"
        }
      ],
      "name": "balanceOf",
      "outputs": [
        {
          "internalType": "uint256",
          "name": "",
          "type": "uint256"
        }
      ],
      "stateMutability": "view",
      "type": "function"
    },
    {
      "inputs": [
        {
          "internalType": "uint256",
          "name": "shares",
          "type": "uint256"
        }
      ],
      "name": "convertToAssets",
      "outputs": [
        {
          "internalType": "uint256",
          "name": "",
          "type": "uint256"
        }
      ],
      "stateMutability": "view",
      "type": "function"
    },
    {
      "inputs": [
        {
          "internalType": "uint256",
          "name": "assets",
          "type": "uint256"
        }
      ],
      "name": "convertToShares",
      "outputs": [
        {
          "internalType": "uint256",
          "name": "",
          "type": "uint256"
        }
      ],
      "stateMutability": "view",
      "type": "function"
    },
    {
      "inputs": [],
      "name": "decimals",
      "outputs": [
        {
          "internalType": "uint8",
          "name": "",
          "type": "uint8"
        }
      ],
      "stateMutability": "view",
      "type": "function"
    },
    {
      "inputs": [
        {
          "internalType": "uint256",
          "name": "assets",
          "type": "uint256"
        },
        {
          "internalType": "address",
          "name": "receiver",
          "type": "address"
        }
      ],
      "name": "deposit",
      "outputs": [
        {
          "internalType": "uint256",
          "name": "shares",
          "type": "uint256"
        }
      ],
      "stateMutability": "nonpayable",
      "type": "function"
    },
    {
      "inputs": [],
      "name": "ethPool",
      "outputs": [
        {
          "internalType": "contract IETHPool",
          "name": "",
          "type": "address"
        }
      ],
      "stateMutability": "view",
      "type": "function"
    },
    {
      "inputs": [
        {
          "internalType": "address",
          "name": "",
          "type": "address"
        }
      ],
      "name": "maxDeposit",
      "outputs": [
        {
          "internalType": "uint256",
          "name": "",
          "type": "uint256"
        }
      ],
      "stateMutability": "view",
      "type": "function"
    },
    {
      "inputs": [
        {
          "internalType": "address",
          "name": "",
          "type": "address"
        }
      ],
      "name": "maxMint",
      "outputs": [
        {
          "internalType": "uint256",
          "name": "",
          "type": "uint256"
        }
      ],
      "stateMutability": "view",
      "type": "function"
    },
    {
      "inputs": [
        {
          "internalType": "address",
          "name": "owner",
          "type": "address"
        }
      ],
      "name": "maxRedeem",
      "outputs": [
        {
          "internalType": "uint256",
          "name": "",
          "type": "uint256"
        }
      ],
      "stateMutability": "view",
      "type": "function"
    },
    {
      "inputs": [
        {
          "internalType": "address",
          "name": "owner",
          "type": "address"
        }
      ],
      "name": "maxWithdraw",
      "outputs": [
        {
          "internalType": "uint256",
          "name": "",
          "type": "uint256"
        }
      ],
      "stateMutability": "view",
      "type": "function"
    },
    {
      "inputs": [
        {
          "internalType": "uint256",
          "name": "shares",
          "type": "uint256"
        },
        {
          "internalType": "address",
          "name": "receiver",
          "type": "address"
        }
      ],
      "name": "mint",
      "outputs": [
        {
          "internalType": "uint256",
          "name": "assets",
          "type": "uint256"
        }
      ],
      "stateMutability": "nonpayable",
      "type": "function"
    },
    {
      "inputs": [],
      "name": "name",
      "outputs": [
        {
          "internalType": "string",
          "name": "",
          "type": "string"
        }
      ],
      "stateMutability": "view",
      "type": "function"
    },
    {
      "inputs": [
        {
          "internalType": "address",
          "name": "",
          "type": "address"
        }
      ],
      "name": "nonces",
      "outputs": [
        {
          "internalType": "uint256",
          "name": "",
          "type": "uint256"
        }
      ],
      "stateMutability": "view",
      "type": "function"
    },
    {
      "inputs": [
        {
          "internalType": "address",
          "name": "owner",
          "type": "address"
        },
        {
          "internalType": "address",
          "name": "spender",
          "type": "address"
        },
        {
          "internalType": "uint256",
          "name": "value",
          "type": "uint256"
        },
        {
          "internalType": "uint256",
          "name": "deadline",
          "type": "uint256"
        },
        {
          "internalType": "uint8",
          "name": "v",
          "type": "uint8"
        },
        {
          "internalType": "bytes32",
          "name": "r",
          "type": "bytes32"
        },
        {
          "internalType": "bytes32",
          "name": "s",
          "type": "bytes32"
        }
      ],
      "name": "permit",
      "outputs": [],
      "stateMutability": "nonpayable",
      "type": "function"
    },
    {
      "inputs": [
        {
          "internalType": "uint256",
          "name": "assets",
          "type": "uint256"
        }
      ],
      "name": "previewDeposit",
      "outputs": [
        {
          "internalType": "uint256",
          "name": "",
          "type": "uint256"
        }
      ],
      "stateMutability": "view",
      "type": "function"
    },
    {
      "inputs": [
        {
          "internalType": "uint256",
          "name": "shares",
          "type": "uint256"
        }
      ],
      "name": "previewMint",
      "outputs": [
        {
          "internalType": "uint256",
          "name": "",
          "type": "uint256"
        }
      ],
      "stateMutability": "view",
      "type": "function"
    },
    {
      "inputs": [
        {
          "internalType": "uint256",
          "name": "shares",
          "type": "uint256"
        }
      ],
      "name": "previewRedeem",
      "outputs": [
        {
          "internalType": "uint256",
          "name": "",
          "type": "uint256"
        }
      ],
      "stateMutability": "view",
      "type": "function"
    },
    {
      "inputs": [
        {
          "internalType": "uint256",
          "name": "assets",
          "type": "uint256"
        }
      ],
      "name": "previewWithdraw",
      "outputs": [
        {
          "internalType": "uint256",
          "name": "",
          "type": "uint256"
        }
      ],
      "stateMutability": "view",
      "type": "function"
    },
    {
      "inputs": [],
      "name": "rebalance",
      "outputs": [],
      "stateMutability": "nonpayable",
      "type": "function"
    },
    {
      "inputs": [
        {
          "internalType": "uint256",
          "name": "shares",
          "type": "uint256"
        },
        {
          "internalType": "address",
          "name": "receiver",
          "type": "address"
        },
        {
          "internalType": "address",
          "name": "owner",
          "type": "address"
        }
      ],
      "name": "redeem",
      "outputs": [
        {
          "internalType": "uint256",
          "name": "assets",
          "type": "uint256"
        }
      ],
      "stateMutability": "nonpayable",
      "type": "function"
    },
    {
      "inputs": [],
      "name": "rewards",
      "outputs": [
        {
          "internalType": "contract IETHRewardsPool",
          "name": "",
          "type": "address"
        }
      ],
      "stateMutability": "view",
      "type": "function"
    },
    {
      "inputs": [],
      "name": "state",
      "outputs": [
        {
          "internalType": "enum CapPositionHandler.State",
          "name": "",
          "type": "uint8"
        }
      ],
      "stateMutability": "view",
      "type": "function"
    },
    {
      "inputs": [],
      "name": "symbol",
      "outputs": [
        {
          "internalType": "string",
          "name": "",
          "type": "string"
        }
      ],
      "stateMutability": "view",
      "type": "function"
    },
    {
      "inputs": [],
      "name": "totalAssets",
      "outputs": [
        {
          "internalType": "uint256",
          "name": "",
          "type": "uint256"
        }
      ],
      "stateMutability": "view",
      "type": "function"
    },
    {
      "inputs": [],
      "name": "totalSupply",
      "outputs": [
        {
          "internalType": "uint256",
          "name": "",
          "type": "uint256"
        }
      ],
      "stateMutability": "view",
      "type": "function"
    },
    {
      "inputs": [],
      "name": "trading",
      "outputs": [
        {
          "internalType": "contract ITrading",
          "name": "",
          "type": "address"
        }
      ],
      "stateMutability": "view",
      "type": "function"
    },
    {
      "inputs": [
        {
          "internalType": "address",
          "name": "to",
          "type": "address"
        },
        {
          "internalType": "uint256",
          "name": "amount",
          "type": "uint256"
        }
      ],
      "name": "transfer",
      "outputs": [
        {
          "internalType": "bool",
          "name": "",
          "type": "bool"
        }
      ],
      "stateMutability": "nonpayable",
      "type": "function"
    },
    {
      "inputs": [
        {
          "internalType": "address",
          "name": "from",
          "type": "address"
        },
        {
          "internalType": "address",
          "name": "to",
          "type": "address"
        },
        {
          "internalType": "uint256",
          "name": "amount",
          "type": "uint256"
        }
      ],
      "name": "transferFrom",
      "outputs": [
        {
          "internalType": "bool",
          "name": "",
          "type": "bool"
        }
      ],
      "stateMutability": "nonpayable",
      "type": "function"
    },
    {
      "inputs": [],
      "name": "weth",
      "outputs": [
        {
          "internalType": "contract WETH",
          "name": "",
          "type": "address"
        }
      ],
      "stateMutability": "view",
      "type": "function"
    },
    {
      "inputs": [
        {
          "internalType": "uint256",
          "name": "assets",
          "type": "uint256"
        },
        {
          "internalType": "address",
          "name": "receiver",
          "type": "address"
        },
        {
          "internalType": "address",
          "name": "owner",
          "type": "address"
        }
      ],
      "name": "withdraw",
      "outputs": [
        {
          "internalType": "uint256",
          "name": "shares",
          "type": "uint256"
        }
      ],
      "stateMutability": "nonpayable",
      "type": "function"
    },
    {
      "stateMutability": "payable",
      "type": "receive"
    }
  ],
  "bytecode": {
    "object": "0x6101806040523480156200001257600080fd5b5060405162001fb638038062001fb6833981016040819052620000359162000293565b8383838989898181846001600160a01b031663313ce5676040518163ffffffff1660e01b8152600401602060405180830381865afa1580156200007c573d6000803e3d6000fd5b505050506040513d601f19601f82011682018060405250810190620000a291906200036a565b6000620000b0848262000425565b506001620000bf838262000425565b5060ff81166080524660a052620000d562000111565b60c0525050506001600160a01b0392831660e052505092831661010052908216610120528116610140521661016052506200056f945050505050565b60007f8b73c3c69bb8fe3d512ecc4cf759cc79239f7b179b0ffacaa9a75d522b39400f6000604051620001459190620004f1565b6040805191829003822060208301939093528101919091527fc89efdaa54c0f20c7adf612882df0950f5a951637e0307cdcb4c672f298b8bc660608201524660808201523060a082015260c00160405160208183030381529060405280519060200120905090565b6001600160a01b0381168114620001c357600080fd5b50565b634e487b7160e01b600052604160045260246000fd5b600082601f830112620001ee57600080fd5b81516001600160401b03808211156200020b576200020b620001c6565b604051601f8301601f19908116603f01168101908282118183101715620002365762000236620001c6565b816040528381526020925086838588010111156200025357600080fd5b600091505b8382101562000277578582018301518183018401529082019062000258565b83821115620002895760008385830101525b9695505050505050565b600080600080600080600060e0888a031215620002af57600080fd5b8751620002bc81620001ad565b60208901519097506001600160401b0380821115620002da57600080fd5b620002e88b838c01620001dc565b975060408a0151915080821115620002ff57600080fd5b506200030e8a828b01620001dc565b95505060608801516200032181620001ad565b60808901519094506200033481620001ad565b60a08901519093506200034781620001ad565b60c08901519092506200035a81620001ad565b8091505092959891949750929550565b6000602082840312156200037d57600080fd5b815160ff811681146200038f57600080fd5b9392505050565b600181811c90821680620003ab57607f821691505b602082108103620003cc57634e487b7160e01b600052602260045260246000fd5b50919050565b601f8211156200042057600081815260208120601f850160051c81016020861015620003fb5750805b601f850160051c820191505b818110156200041c5782815560010162000407565b5050505b505050565b81516001600160401b03811115620004415762000441620001c6565b620004598162000452845462000396565b84620003d2565b602080601f831160018114620004915760008415620004785750858301515b600019600386901b1c1916600185901b1785556200041c565b600085815260208120601f198616915b82811015620004c257888601518255948401946001909101908401620004a1565b5085821015620004e15787850151600019600388901b60f8161c191681555b5050505050600190811b01905550565b6000808354620005018162000396565b600182811680156200051c5760018114620005325762000563565b60ff198416875282151583028701945062000563565b8760005260208060002060005b858110156200055a5781548a8201529084019082016200053f565b50505082870194505b50929695505050505050565b60805160a05160c05160e051610100516101205161014051610160516119b062000606600039600081816103ad015261134901526000818161069201526115090152600081816106e6015261157f015260006104e901526000818161036101528181610a1b01528181610b2701528181610d480152610ec10152600061095a015260006109250152600061030601526119b06000f3fe6080604052600436106101fd5760003560e01c806394bf804d1161010d578063c63d75b6116100a0578063d905777e1161006f578063d905777e14610612578063dd62ed3e14610648578063ec44acf214610680578063ef8b30f7146106b4578063f16673a4146106d457600080fd5b8063c63d75b6146103cf578063c6e6f592146105b2578063ce96cb77146105d2578063d505accf146105f257600080fd5b8063b3d7f6b9116100dc578063b3d7f6b91461052b578063b460af941461054b578063ba0876521461056b578063c19d93fb1461058b57600080fd5b806394bf804d146104a257806395d89b41146104c25780639ec5a894146104d7578063a9059cbb1461050b57600080fd5b80633644e515116101905780634cdad5061161015f5780634cdad506146103f15780636e553f651461041157806370a08231146104315780637d7c2a1c1461045e5780637ecebe001461047557600080fd5b80633644e5151461033a57806338d52e0f1461034f5780633fc8cef31461039b578063402d267d146103cf57600080fd5b80630a28a477116101cc5780630a28a4771461029e57806318160ddd146102be57806323b872dd146102d4578063313ce567146102f457600080fd5b806301e1d1141461020957806306fdde031461022c57806307a2d13a1461024e578063095ea7b31461026e57600080fd5b3661020457005b600080fd5b34801561021557600080fd5b5060005b6040519081526020015b60405180910390f35b34801561023857600080fd5b50610241610708565b60405161022391906115cc565b34801561025a57600080fd5b50610219610269366004611621565b610796565b34801561027a57600080fd5b5061028e610289366004611656565b6107bc565b6040519015158152602001610223565b3480156102aa57600080fd5b506102196102b9366004611621565b610829565b3480156102ca57600080fd5b5061021960025481565b3480156102e057600080fd5b5061028e6102ef366004611680565b610841565b34801561030057600080fd5b506103287f000000000000000000000000000000000000000000000000000000000000000081565b60405160ff9091168152602001610223565b34801561034657600080fd5b50610219610921565b34801561035b57600080fd5b506103837f000000000000000000000000000000000000000000000000000000000000000081565b6040516001600160a01b039091168152602001610223565b3480156103a757600080fd5b506103837f000000000000000000000000000000000000000000000000000000000000000081565b3480156103db57600080fd5b506102196103ea3660046116bc565b5060001990565b3480156103fd57600080fd5b5061021961040c366004611621565b61097c565b34801561041d57600080fd5b5061021961042c3660046116d7565b610987565b34801561043d57600080fd5b5061021961044c3660046116bc565b60036020526000908152604090205481565b34801561046a57600080fd5b50610473610a9d565b005b34801561048157600080fd5b506102196104903660046116bc565b60056020526000908152604090205481565b3480156104ae57600080fd5b506102196104bd3660046116d7565b610ad7565b3480156104ce57600080fd5b50610241610ba9565b3480156104e357600080fd5b506103837f000000000000000000000000000000000000000000000000000000000000000081565b34801561051757600080fd5b5061028e610526366004611656565b610bb6565b34801561053757600080fd5b50610219610546366004611621565b610c1c565b34801561055757600080fd5b50610219610566366004611703565b610c34565b34801561057757600080fd5b50610219610586366004611703565b610d6f565b34801561059757600080fd5b506007546105a59060ff1681565b6040516102239190611755565b3480156105be57600080fd5b506102196105cd366004611621565b610ee8565b3480156105de57600080fd5b506102196105ed3660046116bc565b610f00565b3480156105fe57600080fd5b5061047361060d36600461177d565b610f22565b34801561061e57600080fd5b5061021961062d3660046116bc565b6001600160a01b031660009081526003602052604090205490565b34801561065457600080fd5b506102196106633660046117f0565b600460209081526000928352604080842090915290825290205481565b34801561068c57600080fd5b506103837f000000000000000000000000000000000000000000000000000000000000000081565b3480156106c057600080fd5b506102196106cf366004611621565b611166565b3480156106e057600080fd5b506103837f000000000000000000000000000000000000000000000000000000000000000081565b600080546107159061181a565b80601f01602080910402602001604051908101604052809291908181526020018280546107419061181a565b801561078e5780601f106107635761010080835404028352916020019161078e565b820191906000526020600020905b81548152906001019060200180831161077157829003601f168201915b505050505081565b60025460009080156107b3576107ae83600083611171565b6107b5565b825b9392505050565b3360008181526004602090815260408083206001600160a01b038716808552925280832085905551919290917f8c5be1e5ebec7d5bd14f71427d1e84f3dd0314c0f7b2291e5b200ac8c7c3b925906108179086815260200190565b60405180910390a35060015b92915050565b60025460009080156107b3576107ae8382600061118f565b6001600160a01b0383166000908152600460209081526040808320338452909152812054600019811461089d57610878838261186a565b6001600160a01b03861660009081526004602090815260408083203384529091529020555b6001600160a01b038516600090815260036020526040812080548592906108c590849061186a565b90915550506001600160a01b038085166000818152600360205260409081902080548701905551909187169060008051602061195b8339815191529061090e9087815260200190565b60405180910390a3506001949350505050565b60007f00000000000000000000000000000000000000000000000000000000000000004614610957576109526111b5565b905090565b507f000000000000000000000000000000000000000000000000000000000000000090565b600061082382610796565b600061099283611166565b9050806000036109d75760405162461bcd60e51b815260206004820152600b60248201526a5a45524f5f53484152455360a81b60448201526064015b60405180910390fd5b600060075460ff1660028111156109f0576109f061173f565b14610a0e576040516301a8ade360e41b815260040160405180910390fd5b610a436001600160a01b037f00000000000000000000000000000000000000000000000000000000000000001633308661124f565b610a4d82826112d9565b60408051848152602081018390526001600160a01b0384169133917fdcbc1c05240f31ff3ad067ef1ee35ce4997762752e3a095284754544f4c709d7910160405180910390a36108238382611333565b60075461010090046001600160a01b03163314610acd57604051631ea2564f60e31b815260040160405180910390fd5b610ad56113b1565b565b60008060075460ff166002811115610af157610af161173f565b14610b0f576040516301a8ade360e41b815260040160405180910390fd5b610b1883610c1c565b9050610b4f6001600160a01b037f00000000000000000000000000000000000000000000000000000000000000001633308461124f565b610b5982846112d9565b60408051828152602081018590526001600160a01b0384169133917fdcbc1c05240f31ff3ad067ef1ee35ce4997762752e3a095284754544f4c709d7910160405180910390a36108238184611333565b600180546107159061181a565b33600090815260036020526040812080548391908390610bd790849061186a565b90915550506001600160a01b0383166000818152600360205260409081902080548501905551339060008051602061195b833981519152906108179086815260200190565b60025460009080156107b3576107ae8360008361118f565b6000600260075460ff166002811115610c4f57610c4f61173f565b14610c6d57604051632f56391160e11b815260040160405180910390fd5b610c7684610829565b9050336001600160a01b03831614610ce6576001600160a01b03821660009081526004602090815260408083203384529091529020546000198114610ce457610cbf828261186a565b6001600160a01b03841660009081526004602090815260408083203384529091529020555b505b610cf082826113d7565b60408051858152602081018390526001600160a01b03808516929086169133917ffbde797d201c681b91056529119e0b02407c7bb96a4a2c75c01fc9667232c8db910160405180910390a46107b56001600160a01b037f0000000000000000000000000000000000000000000000000000000000000000168486611439565b6000600260075460ff166002811115610d8a57610d8a61173f565b14610da857604051632f56391160e11b815260040160405180910390fd5b336001600160a01b03831614610e16576001600160a01b03821660009081526004602090815260408083203384529091529020546000198114610e1457610def858261186a565b6001600160a01b03841660009081526004602090815260408083203384529091529020555b505b610e1f8461097c565b905080600003610e5f5760405162461bcd60e51b815260206004820152600b60248201526a5a45524f5f41535345545360a81b60448201526064016109ce565b610e6982856113d7565b60408051828152602081018690526001600160a01b03808516929086169133917ffbde797d201c681b91056529119e0b02407c7bb96a4a2c75c01fc9667232c8db910160405180910390a46107b56001600160a01b037f0000000000000000000000000000000000000000000000000000000000000000168483611439565b60025460009080156107b3576107ae83826000611171565b6001600160a01b03811660009081526003602052604081205461082390610796565b42841015610f725760405162461bcd60e51b815260206004820152601760248201527f5045524d49545f444541444c494e455f4558504952454400000000000000000060448201526064016109ce565b60006001610f7e610921565b6001600160a01b038a811660008181526005602090815260409182902080546001810190915582517f6e71edae12b1b97f4d1f60370fef10105fa2faae0126114a169c64845d6126c98184015280840194909452938d166060840152608083018c905260a083019390935260c08083018b90528151808403909101815260e08301909152805192019190912061190160f01b6101008301526101028201929092526101228101919091526101420160408051601f198184030181528282528051602091820120600084529083018083525260ff871690820152606081018590526080810184905260a0016020604051602081039080840390855afa15801561108a573d6000803e3d6000fd5b5050604051601f1901519150506001600160a01b038116158015906110c05750876001600160a01b0316816001600160a01b0316145b6110fd5760405162461bcd60e51b815260206004820152600e60248201526d24a72b20a624a22fa9a4a3a722a960911b60448201526064016109ce565b6001600160a01b0390811660009081526004602090815260408083208a8516808552908352928190208990555188815291928a16917f8c5be1e5ebec7d5bd14f71427d1e84f3dd0314c0f7b2291e5b200ac8c7c3b925910160405180910390a350505050505050565b600061082382610ee8565b600082600019048411830215820261118857600080fd5b5091020490565b60008260001904841183021582026111a657600080fd5b50910281810615159190040190565b60007f8b73c3c69bb8fe3d512ecc4cf759cc79239f7b179b0ffacaa9a75d522b39400f60006040516111e79190611881565b6040805191829003822060208301939093528101919091527fc89efdaa54c0f20c7adf612882df0950f5a951637e0307cdcb4c672f298b8bc660608201524660808201523060a082015260c00160405160208183030381529060405280519060200120905090565b60006040516323b872dd60e01b81528460048201528360248201528260448201526020600060648360008a5af13d15601f3d11600160005114161716915050806112d25760405162461bcd60e51b81526020600482015260146024820152731514905394d1915497d19493d357d1905253115160621b60448201526064016109ce565b5050505050565b80600260008282546112eb9190611920565b90915550506001600160a01b03821660008181526003602090815260408083208054860190555184815260008051602061195b83398151915291015b60405180910390a35050565b604051632e1a7d4d60e01b8152600481018390527f00000000000000000000000000000000000000000000000000000000000000006001600160a01b031690632e1a7d4d90602401600060405180830381600087803b15801561139557600080fd5b505af11580156113a9573d6000803e3d6000fd5b505050505050565b4760006113bf600283611938565b90506113ca816114b7565b6113d381611569565b5050565b6001600160a01b038216600090815260036020526040812080548392906113ff90849061186a565b90915550506002805482900390556040518181526000906001600160a01b0384169060008051602061195b83398151915290602001611327565b600060405163a9059cbb60e01b8152836004820152826024820152602060006044836000895af13d15601f3d11600160005114161716915050806114b15760405162461bcd60e51b815260206004820152600f60248201526e1514905394d1915497d19052531151608a1b60448201526064016109ce565b50505050565b80600660008282546114c99190611920565b90915550506040516339c6e45d60e01b8152661155120b5554d160ca1b6004820152600060248201819052604482015260648101829052608481018290527f00000000000000000000000000000000000000000000000000000000000000006001600160a01b0316906339c6e45d9060a401600060405180830381600087803b15801561155557600080fd5b505af11580156112d2573d6000803e3d6000fd5b60405163b6b55f2560e01b8152600060048201527f00000000000000000000000000000000000000000000000000000000000000006001600160a01b03169063b6b55f259083906024016000604051808303818588803b15801561139557600080fd5b600060208083528351808285015260005b818110156115f9578581018301518582016040015282016115dd565b8181111561160b576000604083870101525b50601f01601f1916929092016040019392505050565b60006020828403121561163357600080fd5b5035919050565b80356001600160a01b038116811461165157600080fd5b919050565b6000806040838503121561166957600080fd5b6116728361163a565b946020939093013593505050565b60008060006060848603121561169557600080fd5b61169e8461163a565b92506116ac6020850161163a565b9150604084013590509250925092565b6000602082840312156116ce57600080fd5b6107b58261163a565b600080604083850312156116ea57600080fd5b823591506116fa6020840161163a565b90509250929050565b60008060006060848603121561171857600080fd5b833592506117286020850161163a565b91506117366040850161163a565b90509250925092565b634e487b7160e01b600052602160045260246000fd5b602081016003831061177757634e487b7160e01b600052602160045260246000fd5b91905290565b600080600080600080600060e0888a03121561179857600080fd5b6117a18861163a565b96506117af6020890161163a565b95506040880135945060608801359350608088013560ff811681146117d357600080fd5b9699959850939692959460a0840135945060c09093013592915050565b6000806040838503121561180357600080fd5b61180c8361163a565b91506116fa6020840161163a565b600181811c9082168061182e57607f821691505b60208210810361184e57634e487b7160e01b600052602260045260246000fd5b50919050565b634e487b7160e01b600052601160045260246000fd5b60008282101561187c5761187c611854565b500390565b600080835481600182811c91508083168061189d57607f831692505b602080841082036118bc57634e487b7160e01b86526022600452602486fd5b8180156118d057600181146118e557611912565b60ff1986168952841515850289019650611912565b60008a81526020902060005b8681101561190a5781548b8201529085019083016118f1565b505084890196505b509498975050505050505050565b6000821982111561193357611933611854565b500190565b60008261195557634e487b7160e01b600052601260045260246000fd5b50049056feddf252ad1be2c89b69c2b068fc378daa952ba7f163c4a11628f55a4df523b3efa2646970667358221220630edb9b9187ebe9bc60cafa8e617c411471c8af7882ceff976d6d029b87fd2e64736f6c634300080f0033",
    "linkReferences": {}
  },
  "methodIdentifiers": {
    "DOMAIN_SEPARATOR()": "3644e515",
    "allowance(address,address)": "dd62ed3e",
    "approve(address,uint256)": "095ea7b3",
    "asset()": "38d52e0f",
    "balanceOf(address)": "70a08231",
    "convertToAssets(uint256)": "07a2d13a",
    "convertToShares(uint256)": "c6e6f592",
    "decimals()": "313ce567",
    "deposit(uint256,address)": "6e553f65",
    "ethPool()": "f16673a4",
    "maxDeposit(address)": "402d267d",
    "maxMint(address)": "c63d75b6",
    "maxRedeem(address)": "d905777e",
    "maxWithdraw(address)": "ce96cb77",
    "mint(uint256,address)": "94bf804d",
    "name()": "06fdde03",
    "nonces(address)": "7ecebe00",
    "permit(address,address,uint256,uint256,uint8,bytes32,bytes32)": "d505accf",
    "previewDeposit(uint256)": "ef8b30f7",
    "previewMint(uint256)": "b3d7f6b9",
    "previewRedeem(uint256)": "4cdad506",
    "previewWithdraw(uint256)": "0a28a477",
    "rebalance()": "7d7c2a1c",
    "redeem(uint256,address,address)": "ba087652",
    "rewards()": "9ec5a894",
    "state()": "c19d93fb",
    "symbol()": "95d89b41",
    "totalAssets()": "01e1d114",
    "totalSupply()": "18160ddd",
    "trading()": "ec44acf2",
    "transfer(address,uint256)": "a9059cbb",
    "transferFrom(address,address,uint256)": "23b872dd",
    "weth()": "3fc8cef3",
    "withdraw(uint256,address,address)": "b460af94"
  },
  "id": 60
}