{
  "abi": [
    {
      "inputs": [
        {
          "internalType": "contract ERC20",
          "name": "_asset",
          "type": "address"
        },
        {
          "internalType": "string",
          "name": "_name",
          "type": "string"
        },
        {
          "internalType": "string",
          "name": "_symbol",
          "type": "string"
        },
        {
          "internalType": "address",
          "name": "_rewards",
          "type": "address"
        },
        {
          "internalType": "address",
          "name": "_ethPool",
          "type": "address"
        }
      ],
      "stateMutability": "nonpayable",
      "type": "constructor"
    },
    {
      "inputs": [],
      "name": "NotKeeper",
      "type": "error"
    },
    {
      "anonymous": false,
      "inputs": [
        {
          "indexed": true,
          "internalType": "address",
          "name": "owner",
          "type": "address"
        },
        {
          "indexed": true,
          "internalType": "address",
          "name": "spender",
          "type": "address"
        },
        {
          "indexed": false,
          "internalType": "uint256",
          "name": "amount",
          "type": "uint256"
        }
      ],
      "name": "Approval",
      "type": "event"
    },
    {
      "anonymous": false,
      "inputs": [
        {
          "indexed": true,
          "internalType": "address",
          "name": "caller",
          "type": "address"
        },
        {
          "indexed": true,
          "internalType": "address",
          "name": "owner",
          "type": "address"
        },
        {
          "indexed": false,
          "internalType": "uint256",
          "name": "assets",
          "type": "uint256"
        },
        {
          "indexed": false,
          "internalType": "uint256",
          "name": "shares",
          "type": "uint256"
        }
      ],
      "name": "Deposit",
      "type": "event"
    },
    {
      "anonymous": false,
      "inputs": [
        {
          "indexed": true,
          "internalType": "address",
          "name": "from",
          "type": "address"
        },
        {
          "indexed": true,
          "internalType": "address",
          "name": "to",
          "type": "address"
        },
        {
          "indexed": false,
          "internalType": "uint256",
          "name": "amount",
          "type": "uint256"
        }
      ],
      "name": "Transfer",
      "type": "event"
    },
    {
      "anonymous": false,
      "inputs": [
        {
          "indexed": true,
          "internalType": "address",
          "name": "caller",
          "type": "address"
        },
        {
          "indexed": true,
          "internalType": "address",
          "name": "receiver",
          "type": "address"
        },
        {
          "indexed": true,
          "internalType": "address",
          "name": "owner",
          "type": "address"
        },
        {
          "indexed": false,
          "internalType": "uint256",
          "name": "assets",
          "type": "uint256"
        },
        {
          "indexed": false,
          "internalType": "uint256",
          "name": "shares",
          "type": "uint256"
        }
      ],
      "name": "Withdraw",
      "type": "event"
    },
    {
      "inputs": [],
      "name": "DOMAIN_SEPARATOR",
      "outputs": [
        {
          "internalType": "bytes32",
          "name": "",
          "type": "bytes32"
        }
      ],
      "stateMutability": "view",
      "type": "function"
    },
    {
      "inputs": [
        {
          "internalType": "address",
          "name": "",
          "type": "address"
        },
        {
          "internalType": "address",
          "name": "",
          "type": "address"
        }
      ],
      "name": "allowance",
      "outputs": [
        {
          "internalType": "uint256",
          "name": "",
          "type": "uint256"
        }
      ],
      "stateMutability": "view",
      "type": "function"
    },
    {
      "inputs": [
        {
          "internalType": "address",
          "name": "spender",
          "type": "address"
        },
        {
          "internalType": "uint256",
          "name": "amount",
          "type": "uint256"
        }
      ],
      "name": "approve",
      "outputs": [
        {
          "internalType": "bool",
          "name": "",
          "type": "bool"
        }
      ],
      "stateMutability": "nonpayable",
      "type": "function"
    },
    {
      "inputs": [],
      "name": "asset",
      "outputs": [
        {
          "internalType": "contract ERC20",
          "name": "",
          "type": "address"
        }
      ],
      "stateMutability": "view",
      "type": "function"
    },
    {
      "inputs": [
        {
          "internalType": "address",
          "name": "",
          "type": "address"
        }
      ],
      "name": "balanceOf",
      "outputs": [
        {
          "internalType": "uint256",
          "name": "",
          "type": "uint256"
        }
      ],
      "stateMutability": "view",
      "type": "function"
    },
    {
      "inputs": [
        {
          "internalType": "uint256",
          "name": "shares",
          "type": "uint256"
        }
      ],
      "name": "convertToAssets",
      "outputs": [
        {
          "internalType": "uint256",
          "name": "",
          "type": "uint256"
        }
      ],
      "stateMutability": "view",
      "type": "function"
    },
    {
      "inputs": [
        {
          "internalType": "uint256",
          "name": "assets",
          "type": "uint256"
        }
      ],
      "name": "convertToShares",
      "outputs": [
        {
          "internalType": "uint256",
          "name": "",
          "type": "uint256"
        }
      ],
      "stateMutability": "view",
      "type": "function"
    },
    {
      "inputs": [],
      "name": "decimals",
      "outputs": [
        {
          "internalType": "uint8",
          "name": "",
          "type": "uint8"
        }
      ],
      "stateMutability": "view",
      "type": "function"
    },
    {
      "inputs": [
        {
          "internalType": "uint256",
          "name": "assets",
          "type": "uint256"
        },
        {
          "internalType": "address",
          "name": "receiver",
          "type": "address"
        }
      ],
      "name": "deposit",
      "outputs": [
        {
          "internalType": "uint256",
          "name": "shares",
          "type": "uint256"
        }
      ],
      "stateMutability": "nonpayable",
      "type": "function"
    },
    {
      "inputs": [],
      "name": "ethPool",
      "outputs": [
        {
          "internalType": "contract IETHPool",
          "name": "",
          "type": "address"
        }
      ],
      "stateMutability": "view",
      "type": "function"
    },
    {
      "inputs": [
        {
          "internalType": "address",
          "name": "",
          "type": "address"
        }
      ],
      "name": "maxDeposit",
      "outputs": [
        {
          "internalType": "uint256",
          "name": "",
          "type": "uint256"
        }
      ],
      "stateMutability": "view",
      "type": "function"
    },
    {
      "inputs": [
        {
          "internalType": "address",
          "name": "",
          "type": "address"
        }
      ],
      "name": "maxMint",
      "outputs": [
        {
          "internalType": "uint256",
          "name": "",
          "type": "uint256"
        }
      ],
      "stateMutability": "view",
      "type": "function"
    },
    {
      "inputs": [
        {
          "internalType": "address",
          "name": "owner",
          "type": "address"
        }
      ],
      "name": "maxRedeem",
      "outputs": [
        {
          "internalType": "uint256",
          "name": "",
          "type": "uint256"
        }
      ],
      "stateMutability": "view",
      "type": "function"
    },
    {
      "inputs": [
        {
          "internalType": "address",
          "name": "owner",
          "type": "address"
        }
      ],
      "name": "maxWithdraw",
      "outputs": [
        {
          "internalType": "uint256",
          "name": "",
          "type": "uint256"
        }
      ],
      "stateMutability": "view",
      "type": "function"
    },
    {
      "inputs": [
        {
          "internalType": "uint256",
          "name": "shares",
          "type": "uint256"
        },
        {
          "internalType": "address",
          "name": "receiver",
          "type": "address"
        }
      ],
      "name": "mint",
      "outputs": [
        {
          "internalType": "uint256",
          "name": "assets",
          "type": "uint256"
        }
      ],
      "stateMutability": "nonpayable",
      "type": "function"
    },
    {
      "inputs": [],
      "name": "name",
      "outputs": [
        {
          "internalType": "string",
          "name": "",
          "type": "string"
        }
      ],
      "stateMutability": "view",
      "type": "function"
    },
    {
      "inputs": [
        {
          "internalType": "address",
          "name": "",
          "type": "address"
        }
      ],
      "name": "nonces",
      "outputs": [
        {
          "internalType": "uint256",
          "name": "",
          "type": "uint256"
        }
      ],
      "stateMutability": "view",
      "type": "function"
    },
    {
      "inputs": [
        {
          "internalType": "address",
          "name": "owner",
          "type": "address"
        },
        {
          "internalType": "address",
          "name": "spender",
          "type": "address"
        },
        {
          "internalType": "uint256",
          "name": "value",
          "type": "uint256"
        },
        {
          "internalType": "uint256",
          "name": "deadline",
          "type": "uint256"
        },
        {
          "internalType": "uint8",
          "name": "v",
          "type": "uint8"
        },
        {
          "internalType": "bytes32",
          "name": "r",
          "type": "bytes32"
        },
        {
          "internalType": "bytes32",
          "name": "s",
          "type": "bytes32"
        }
      ],
      "name": "permit",
      "outputs": [],
      "stateMutability": "nonpayable",
      "type": "function"
    },
    {
      "inputs": [
        {
          "internalType": "uint256",
          "name": "assets",
          "type": "uint256"
        }
      ],
      "name": "previewDeposit",
      "outputs": [
        {
          "internalType": "uint256",
          "name": "",
          "type": "uint256"
        }
      ],
      "stateMutability": "view",
      "type": "function"
    },
    {
      "inputs": [
        {
          "internalType": "uint256",
          "name": "shares",
          "type": "uint256"
        }
      ],
      "name": "previewMint",
      "outputs": [
        {
          "internalType": "uint256",
          "name": "",
          "type": "uint256"
        }
      ],
      "stateMutability": "view",
      "type": "function"
    },
    {
      "inputs": [
        {
          "internalType": "uint256",
          "name": "shares",
          "type": "uint256"
        }
      ],
      "name": "previewRedeem",
      "outputs": [
        {
          "internalType": "uint256",
          "name": "",
          "type": "uint256"
        }
      ],
      "stateMutability": "view",
      "type": "function"
    },
    {
      "inputs": [
        {
          "internalType": "uint256",
          "name": "assets",
          "type": "uint256"
        }
      ],
      "name": "previewWithdraw",
      "outputs": [
        {
          "internalType": "uint256",
          "name": "",
          "type": "uint256"
        }
      ],
      "stateMutability": "view",
      "type": "function"
    },
    {
      "inputs": [],
      "name": "provideLp",
      "outputs": [],
      "stateMutability": "payable",
      "type": "function"
    },
    {
      "inputs": [],
      "name": "rebalance",
      "outputs": [],
      "stateMutability": "nonpayable",
      "type": "function"
    },
    {
      "inputs": [
        {
          "internalType": "uint256",
          "name": "shares",
          "type": "uint256"
        },
        {
          "internalType": "address",
          "name": "receiver",
          "type": "address"
        },
        {
          "internalType": "address",
          "name": "owner",
          "type": "address"
        }
      ],
      "name": "redeem",
      "outputs": [
        {
          "internalType": "uint256",
          "name": "assets",
          "type": "uint256"
        }
      ],
      "stateMutability": "nonpayable",
      "type": "function"
    },
    {
      "inputs": [],
      "name": "rewards",
      "outputs": [
        {
          "internalType": "contract IETHRewardsPool",
          "name": "",
          "type": "address"
        }
      ],
      "stateMutability": "view",
      "type": "function"
    },
    {
      "inputs": [],
      "name": "symbol",
      "outputs": [
        {
          "internalType": "string",
          "name": "",
          "type": "string"
        }
      ],
      "stateMutability": "view",
      "type": "function"
    },
    {
      "inputs": [],
      "name": "totalAssets",
      "outputs": [
        {
          "internalType": "uint256",
          "name": "",
          "type": "uint256"
        }
      ],
      "stateMutability": "view",
      "type": "function"
    },
    {
      "inputs": [],
      "name": "totalSupply",
      "outputs": [
        {
          "internalType": "uint256",
          "name": "",
          "type": "uint256"
        }
      ],
      "stateMutability": "view",
      "type": "function"
    },
    {
      "inputs": [
        {
          "internalType": "address",
          "name": "to",
          "type": "address"
        },
        {
          "internalType": "uint256",
          "name": "amount",
          "type": "uint256"
        }
      ],
      "name": "transfer",
      "outputs": [
        {
          "internalType": "bool",
          "name": "",
          "type": "bool"
        }
      ],
      "stateMutability": "nonpayable",
      "type": "function"
    },
    {
      "inputs": [
        {
          "internalType": "address",
          "name": "from",
          "type": "address"
        },
        {
          "internalType": "address",
          "name": "to",
          "type": "address"
        },
        {
          "internalType": "uint256",
          "name": "amount",
          "type": "uint256"
        }
      ],
      "name": "transferFrom",
      "outputs": [
        {
          "internalType": "bool",
          "name": "",
          "type": "bool"
        }
      ],
      "stateMutability": "nonpayable",
      "type": "function"
    },
    {
      "inputs": [
        {
          "internalType": "uint256",
          "name": "assets",
          "type": "uint256"
        },
        {
          "internalType": "address",
          "name": "receiver",
          "type": "address"
        },
        {
          "internalType": "address",
          "name": "owner",
          "type": "address"
        }
      ],
      "name": "withdraw",
      "outputs": [
        {
          "internalType": "uint256",
          "name": "shares",
          "type": "uint256"
        }
      ],
      "stateMutability": "nonpayable",
      "type": "function"
    }
  ],
  "bytecode": {
    "object": "0x6101406040523480156200001257600080fd5b5060405162001c1538038062001c15833981016040819052620000359162000284565b81818686868181846001600160a01b031663313ce5676040518163ffffffff1660e01b8152600401602060405180830381865afa1580156200007b573d6000803e3d6000fd5b505050506040513d601f19601f82011682018060405250810190620000a1919062000330565b6000620000af8482620003eb565b506001620000be8382620003eb565b5060ff81166080524660a052620000d462000102565b60c0525050506001600160a01b0392831660e052505091821661010052166101205250620005359350505050565b60007f8b73c3c69bb8fe3d512ecc4cf759cc79239f7b179b0ffacaa9a75d522b39400f6000604051620001369190620004b7565b6040805191829003822060208301939093528101919091527fc89efdaa54c0f20c7adf612882df0950f5a951637e0307cdcb4c672f298b8bc660608201524660808201523060a082015260c00160405160208183030381529060405280519060200120905090565b6001600160a01b0381168114620001b457600080fd5b50565b634e487b7160e01b600052604160045260246000fd5b600082601f830112620001df57600080fd5b81516001600160401b0380821115620001fc57620001fc620001b7565b604051601f8301601f19908116603f01168101908282118183101715620002275762000227620001b7565b816040528381526020925086838588010111156200024457600080fd5b600091505b8382101562000268578582018301518183018401529082019062000249565b838211156200027a5760008385830101525b9695505050505050565b600080600080600060a086880312156200029d57600080fd5b8551620002aa816200019e565b60208701519095506001600160401b0380821115620002c857600080fd5b620002d689838a01620001cd565b95506040880151915080821115620002ed57600080fd5b50620002fc88828901620001cd565b93505060608601516200030f816200019e565b608087015190925062000322816200019e565b809150509295509295909350565b6000602082840312156200034357600080fd5b815160ff811681146200035557600080fd5b9392505050565b600181811c908216806200037157607f821691505b6020821081036200039257634e487b7160e01b600052602260045260246000fd5b50919050565b601f821115620003e657600081815260208120601f850160051c81016020861015620003c15750805b601f850160051c820191505b81811015620003e257828155600101620003cd565b5050505b505050565b81516001600160401b03811115620004075762000407620001b7565b6200041f816200041884546200035c565b8462000398565b602080601f8311600181146200045757600084156200043e5750858301515b600019600386901b1c1916600185901b178555620003e2565b600085815260208120601f198616915b82811015620004885788860151825594840194600190910190840162000467565b5085821015620004a75787850151600019600388901b60f8161c191681555b5050505050600190811b01905550565b6000808354620004c7816200035c565b60018281168015620004e25760018114620004f85762000529565b60ff198416875282151583028701945062000529565b8760005260208060002060005b85811015620005205781548a82015290840190820162000505565b50505082870194505b50929695505050505050565b60805160a05160c05160e051610100516101205161166d620005a86000396000818161063e0152610fdb015260006104940152600081816103400152818161093c01528181610a0101528181610bde0152610d20015260006108b20152600061087d015260006102e5015261166d6000f3fe6080604052600436106101e35760003560e01c806394bf804d11610102578063c6e6f59211610095578063dd62ed3e11610064578063dd62ed3e146105cc578063e0993bf414610604578063ef8b30f71461060c578063f16673a41461062c57600080fd5b8063c6e6f59214610536578063ce96cb7714610556578063d505accf14610576578063d905777e1461059657600080fd5b8063b3d7f6b9116100d1578063b3d7f6b9146104d6578063b460af94146104f6578063ba08765214610516578063c63d75b61461037a57600080fd5b806394bf804d1461044d57806395d89b411461046d5780639ec5a89414610482578063a9059cbb146104b657600080fd5b80633644e5151161017a5780636e553f65116101495780636e553f65146103bc57806370a08231146103dc5780637d7c2a1c146104095780637ecebe001461042057600080fd5b80633644e5151461031957806338d52e0f1461032e578063402d267d1461037a5780634cdad5061461039c57600080fd5b80630a28a477116101b65780630a28a4771461027d57806318160ddd1461029d57806323b872dd146102b3578063313ce567146102d357600080fd5b806301e1d114146101e857806306fdde031461020b57806307a2d13a1461022d578063095ea7b31461024d575b600080fd5b3480156101f457600080fd5b5060005b6040519081526020015b60405180910390f35b34801561021757600080fd5b50610220610660565b60405161020291906112e9565b34801561023957600080fd5b506101f861024836600461133e565b6106ee565b34801561025957600080fd5b5061026d610268366004611373565b610714565b6040519015158152602001610202565b34801561028957600080fd5b506101f861029836600461133e565b610781565b3480156102a957600080fd5b506101f860025481565b3480156102bf57600080fd5b5061026d6102ce36600461139d565b610799565b3480156102df57600080fd5b506103077f000000000000000000000000000000000000000000000000000000000000000081565b60405160ff9091168152602001610202565b34801561032557600080fd5b506101f8610879565b34801561033a57600080fd5b506103627f000000000000000000000000000000000000000000000000000000000000000081565b6040516001600160a01b039091168152602001610202565b34801561038657600080fd5b506101f86103953660046113d9565b5060001990565b3480156103a857600080fd5b506101f86103b736600461133e565b6108d4565b3480156103c857600080fd5b506101f86103d73660046113f4565b6108df565b3480156103e857600080fd5b506101f86103f73660046113d9565b60036020526000908152604090205481565b34801561041557600080fd5b5061041e6109ba565b005b34801561042c57600080fd5b506101f861043b3660046113d9565b60056020526000908152604090205481565b34801561045957600080fd5b506101f86104683660046113f4565b6109e7565b34801561047957600080fd5b50610220610a76565b34801561048e57600080fd5b506103627f000000000000000000000000000000000000000000000000000000000000000081565b3480156104c257600080fd5b5061026d6104d1366004611373565b610a83565b3480156104e257600080fd5b506101f86104f136600461133e565b610ae9565b34801561050257600080fd5b506101f8610511366004611420565b610b01565b34801561052257600080fd5b506101f8610531366004611420565b610c05565b34801561054257600080fd5b506101f861055136600461133e565b610d47565b34801561056257600080fd5b506101f86105713660046113d9565b610d5f565b34801561058257600080fd5b5061041e61059136600461145c565b610d81565b3480156105a257600080fd5b506101f86105b13660046113d9565b6001600160a01b031660009081526003602052604090205490565b3480156105d857600080fd5b506101f86105e73660046114cf565b600460209081526000928352604080842090915290825290205481565b61041e610fc5565b34801561061857600080fd5b506101f861062736600461133e565b611043565b34801561063857600080fd5b506103627f000000000000000000000000000000000000000000000000000000000000000081565b6000805461066d906114f9565b80601f0160208091040260200160405190810160405280929190818152602001828054610699906114f9565b80156106e65780601f106106bb576101008083540402835291602001916106e6565b820191906000526020600020905b8154815290600101906020018083116106c957829003601f168201915b505050505081565b600254600090801561070b576107068360008361104e565b61070d565b825b9392505050565b3360008181526004602090815260408083206001600160a01b038716808552925280832085905551919290917f8c5be1e5ebec7d5bd14f71427d1e84f3dd0314c0f7b2291e5b200ac8c7c3b9259061076f9086815260200190565b60405180910390a35060015b92915050565b600254600090801561070b576107068382600061106c565b6001600160a01b038316600090815260046020908152604080832033845290915281205460001981146107f5576107d08382611549565b6001600160a01b03861660009081526004602090815260408083203384529091529020555b6001600160a01b0385166000908152600360205260408120805485929061081d908490611549565b90915550506001600160a01b0380851660008181526003602052604090819020805487019055519091871690600080516020611618833981519152906108669087815260200190565b60405180910390a3506001949350505050565b60007f000000000000000000000000000000000000000000000000000000000000000046146108af576108aa611092565b905090565b507f000000000000000000000000000000000000000000000000000000000000000090565b600061077b826106ee565b60006108ea83611043565b90508060000361092f5760405162461bcd60e51b815260206004820152600b60248201526a5a45524f5f53484152455360a81b60448201526064015b60405180910390fd5b6109646001600160a01b037f00000000000000000000000000000000000000000000000000000000000000001633308661112c565b61096e82826111af565b60408051848152602081018390526001600160a01b0384169133917fdcbc1c05240f31ff3ad067ef1ee35ce4997762752e3a095284754544f4c709d791015b60405180910390a361077b565b6006546001600160a01b031633146109e557604051631ea2564f60e31b815260040160405180910390fd5b565b60006109f283610ae9565b9050610a296001600160a01b037f00000000000000000000000000000000000000000000000000000000000000001633308461112c565b610a3382846111af565b60408051828152602081018590526001600160a01b0384169133917fdcbc1c05240f31ff3ad067ef1ee35ce4997762752e3a095284754544f4c709d791016109ad565b6001805461066d906114f9565b33600090815260036020526040812080548391908390610aa4908490611549565b90915550506001600160a01b038316600081815260036020526040908190208054850190555133906000805160206116188339815191529061076f9086815260200190565b600254600090801561070b576107068360008361106c565b6000610b0c84610781565b9050336001600160a01b03831614610b7c576001600160a01b03821660009081526004602090815260408083203384529091529020546000198114610b7a57610b558282611549565b6001600160a01b03841660009081526004602090815260408083203384529091529020555b505b610b868282611209565b60408051858152602081018390526001600160a01b03808516929086169133917ffbde797d201c681b91056529119e0b02407c7bb96a4a2c75c01fc9667232c8db910160405180910390a461070d6001600160a01b037f000000000000000000000000000000000000000000000000000000000000000016848661126b565b6000336001600160a01b03831614610c75576001600160a01b03821660009081526004602090815260408083203384529091529020546000198114610c7357610c4e8582611549565b6001600160a01b03841660009081526004602090815260408083203384529091529020555b505b610c7e846108d4565b905080600003610cbe5760405162461bcd60e51b815260206004820152600b60248201526a5a45524f5f41535345545360a81b6044820152606401610926565b610cc88285611209565b60408051828152602081018690526001600160a01b03808516929086169133917ffbde797d201c681b91056529119e0b02407c7bb96a4a2c75c01fc9667232c8db910160405180910390a461070d6001600160a01b037f000000000000000000000000000000000000000000000000000000000000000016848361126b565b600254600090801561070b576107068382600061104e565b6001600160a01b03811660009081526003602052604081205461077b906106ee565b42841015610dd15760405162461bcd60e51b815260206004820152601760248201527f5045524d49545f444541444c494e455f455850495245440000000000000000006044820152606401610926565b60006001610ddd610879565b6001600160a01b038a811660008181526005602090815260409182902080546001810190915582517f6e71edae12b1b97f4d1f60370fef10105fa2faae0126114a169c64845d6126c98184015280840194909452938d166060840152608083018c905260a083019390935260c08083018b90528151808403909101815260e08301909152805192019190912061190160f01b6101008301526101028201929092526101228101919091526101420160408051601f198184030181528282528051602091820120600084529083018083525260ff871690820152606081018590526080810184905260a0016020604051602081039080840390855afa158015610ee9573d6000803e3d6000fd5b5050604051601f1901519150506001600160a01b03811615801590610f1f5750876001600160a01b0316816001600160a01b0316145b610f5c5760405162461bcd60e51b815260206004820152600e60248201526d24a72b20a624a22fa9a4a3a722a960911b6044820152606401610926565b6001600160a01b0390811660009081526004602090815260408083208a8516808552908352928190208990555188815291928a16917f8c5be1e5ebec7d5bd14f71427d1e84f3dd0314c0f7b2291e5b200ac8c7c3b925910160405180910390a350505050505050565b60405163b6b55f2560e01b8152600060048201527f00000000000000000000000000000000000000000000000000000000000000006001600160a01b03169063b6b55f259034906024016000604051808303818588803b15801561102857600080fd5b505af115801561103c573d6000803e3d6000fd5b5050505050565b600061077b82610d47565b600082600019048411830215820261106557600080fd5b5091020490565b600082600019048411830215820261108357600080fd5b50910281810615159190040190565b60007f8b73c3c69bb8fe3d512ecc4cf759cc79239f7b179b0ffacaa9a75d522b39400f60006040516110c49190611560565b6040805191829003822060208301939093528101919091527fc89efdaa54c0f20c7adf612882df0950f5a951637e0307cdcb4c672f298b8bc660608201524660808201523060a082015260c00160405160208183030381529060405280519060200120905090565b60006040516323b872dd60e01b81528460048201528360248201528260448201526020600060648360008a5af13d15601f3d116001600051141617169150508061103c5760405162461bcd60e51b81526020600482015260146024820152731514905394d1915497d19493d357d1905253115160621b6044820152606401610926565b80600260008282546111c191906115ff565b90915550506001600160a01b03821660008181526003602090815260408083208054860190555184815260008051602061161883398151915291015b60405180910390a35050565b6001600160a01b03821660009081526003602052604081208054839290611231908490611549565b90915550506002805482900390556040518181526000906001600160a01b03841690600080516020611618833981519152906020016111fd565b600060405163a9059cbb60e01b8152836004820152826024820152602060006044836000895af13d15601f3d11600160005114161716915050806112e35760405162461bcd60e51b815260206004820152600f60248201526e1514905394d1915497d19052531151608a1b6044820152606401610926565b50505050565b600060208083528351808285015260005b81811015611316578581018301518582016040015282016112fa565b81811115611328576000604083870101525b50601f01601f1916929092016040019392505050565b60006020828403121561135057600080fd5b5035919050565b80356001600160a01b038116811461136e57600080fd5b919050565b6000806040838503121561138657600080fd5b61138f83611357565b946020939093013593505050565b6000806000606084860312156113b257600080fd5b6113bb84611357565b92506113c960208501611357565b9150604084013590509250925092565b6000602082840312156113eb57600080fd5b61070d82611357565b6000806040838503121561140757600080fd5b8235915061141760208401611357565b90509250929050565b60008060006060848603121561143557600080fd5b8335925061144560208501611357565b915061145360408501611357565b90509250925092565b600080600080600080600060e0888a03121561147757600080fd5b61148088611357565b965061148e60208901611357565b95506040880135945060608801359350608088013560ff811681146114b257600080fd5b9699959850939692959460a0840135945060c09093013592915050565b600080604083850312156114e257600080fd5b6114eb83611357565b915061141760208401611357565b600181811c9082168061150d57607f821691505b60208210810361152d57634e487b7160e01b600052602260045260246000fd5b50919050565b634e487b7160e01b600052601160045260246000fd5b60008282101561155b5761155b611533565b500390565b600080835481600182811c91508083168061157c57607f831692505b6020808410820361159b57634e487b7160e01b86526022600452602486fd5b8180156115af57600181146115c4576115f1565b60ff19861689528415158502890196506115f1565b60008a81526020902060005b868110156115e95781548b8201529085019083016115d0565b505084890196505b509498975050505050505050565b6000821982111561161257611612611533565b50019056feddf252ad1be2c89b69c2b068fc378daa952ba7f163c4a11628f55a4df523b3efa264697066735822122091ccf1619a07fa55797c34e19d6a04dbd6b971226d69877777093a693e2e8ca764736f6c634300080f0033",
    "linkReferences": {}
  },
  "methodIdentifiers": {
    "DOMAIN_SEPARATOR()": "3644e515",
    "allowance(address,address)": "dd62ed3e",
    "approve(address,uint256)": "095ea7b3",
    "asset()": "38d52e0f",
    "balanceOf(address)": "70a08231",
    "convertToAssets(uint256)": "07a2d13a",
    "convertToShares(uint256)": "c6e6f592",
    "decimals()": "313ce567",
    "deposit(uint256,address)": "6e553f65",
    "ethPool()": "f16673a4",
    "maxDeposit(address)": "402d267d",
    "maxMint(address)": "c63d75b6",
    "maxRedeem(address)": "d905777e",
    "maxWithdraw(address)": "ce96cb77",
    "mint(uint256,address)": "94bf804d",
    "name()": "06fdde03",
    "nonces(address)": "7ecebe00",
    "permit(address,address,uint256,uint256,uint8,bytes32,bytes32)": "d505accf",
    "previewDeposit(uint256)": "ef8b30f7",
    "previewMint(uint256)": "b3d7f6b9",
    "previewRedeem(uint256)": "4cdad506",
    "previewWithdraw(uint256)": "0a28a477",
    "provideLp()": "e0993bf4",
    "rebalance()": "7d7c2a1c",
    "redeem(uint256,address,address)": "ba087652",
    "rewards()": "9ec5a894",
    "symbol()": "95d89b41",
    "totalAssets()": "01e1d114",
    "totalSupply()": "18160ddd",
    "transfer(address,uint256)": "a9059cbb",
    "transferFrom(address,address,uint256)": "23b872dd",
    "withdraw(uint256,address,address)": "b460af94"
  },
  "id": 57
}