{
  "abi": [
    {
      "inputs": [
        {
          "internalType": "address",
          "name": "_weth",
          "type": "address"
        },
        {
          "internalType": "contract ISwapRouter",
          "name": "_swapRouter",
          "type": "address"
        },
        {
          "internalType": "address",
          "name": "_sushiFactory",
          "type": "address"
        },
        {
          "internalType": "bytes32",
          "name": "_sushiPairCodeHash",
          "type": "bytes32"
        },
        {
          "internalType": "address",
          "name": "_veloFactory",
          "type": "address"
        },
        {
          "internalType": "address",
          "name": "_veloWeth",
          "type": "address"
        },
        {
          "internalType": "contract IStargateRouter",
          "name": "_stargateRouter",
          "type": "address"
        }
      ],
      "stateMutability": "nonpayable",
      "type": "constructor"
    },
    {
      "inputs": [],
      "name": "MoreThanZero",
      "type": "error"
    },
    {
      "inputs": [],
      "name": "MustBeGt0",
      "type": "error"
    },
    {
      "inputs": [],
      "name": "NotEnoughSteps",
      "type": "error"
    },
    {
      "inputs": [],
      "name": "NotStgRouter",
      "type": "error"
    },
    {
      "anonymous": false,
      "inputs": [
        {
          "indexed": false,
          "internalType": "address",
          "name": "_token",
          "type": "address"
        },
        {
          "indexed": false,
          "internalType": "uint256",
          "name": "_fee",
          "type": "uint256"
        }
      ],
      "name": "FeePaid",
      "type": "event"
    },
    {
      "anonymous": false,
      "inputs": [
        {
          "indexed": true,
          "internalType": "address",
          "name": "token",
          "type": "address"
        },
        {
          "indexed": false,
          "internalType": "uint256",
          "name": "amountLD",
          "type": "uint256"
        },
        {
          "indexed": false,
          "internalType": "bool",
          "name": "failed",
          "type": "bool"
        },
        {
          "indexed": false,
          "internalType": "bool",
          "name": "dustSent",
          "type": "bool"
        }
      ],
      "name": "ReceivedOnDestination",
      "type": "event"
    },
    {
      "inputs": [],
      "name": "factory",
      "outputs": [
        {
          "internalType": "address",
          "name": "",
          "type": "address"
        }
      ],
      "stateMutability": "view",
      "type": "function"
    },
    {
      "inputs": [],
      "name": "feeCollector",
      "outputs": [
        {
          "internalType": "address",
          "name": "",
          "type": "address"
        }
      ],
      "stateMutability": "view",
      "type": "function"
    },
    {
      "inputs": [
        {
          "internalType": "uint256",
          "name": "amountIn",
          "type": "uint256"
        },
        {
          "internalType": "address",
          "name": "tokenIn",
          "type": "address"
        },
        {
          "internalType": "address",
          "name": "tokenOut",
          "type": "address"
        }
      ],
      "name": "getAmountOut",
      "outputs": [
        {
          "internalType": "uint256",
          "name": "amount",
          "type": "uint256"
        },
        {
          "internalType": "bool",
          "name": "stable",
          "type": "bool"
        }
      ],
      "stateMutability": "view",
      "type": "function"
    },
    {
      "inputs": [
        {
          "internalType": "uint256",
          "name": "amountIn",
          "type": "uint256"
        },
        {
          "components": [
            {
              "internalType": "address",
              "name": "from",
              "type": "address"
            },
            {
              "internalType": "address",
              "name": "to",
              "type": "address"
            },
            {
              "internalType": "bool",
              "name": "stable",
              "type": "bool"
            }
          ],
          "internalType": "struct VelodromeAdapter.route[]",
          "name": "routes",
          "type": "tuple[]"
        }
      ],
      "name": "getAmountsOut",
      "outputs": [
        {
          "internalType": "uint256[]",
          "name": "amounts",
          "type": "uint256[]"
        }
      ],
      "stateMutability": "view",
      "type": "function"
    },
    {
      "inputs": [
        {
          "internalType": "address",
          "name": "pair",
          "type": "address"
        }
      ],
      "name": "isPair",
      "outputs": [
        {
          "internalType": "bool",
          "name": "",
          "type": "bool"
        }
      ],
      "stateMutability": "view",
      "type": "function"
    },
    {
      "inputs": [],
      "name": "joeRouter",
      "outputs": [
        {
          "internalType": "contract IJoeRouter02",
          "name": "",
          "type": "address"
        }
      ],
      "stateMutability": "view",
      "type": "function"
    },
    {
      "inputs": [],
      "name": "pairCodeHash",
      "outputs": [
        {
          "internalType": "bytes32",
          "name": "",
          "type": "bytes32"
        }
      ],
      "stateMutability": "view",
      "type": "function"
    },
    {
      "inputs": [
        {
          "internalType": "address",
          "name": "tokenA",
          "type": "address"
        },
        {
          "internalType": "address",
          "name": "tokenB",
          "type": "address"
        },
        {
          "internalType": "bool",
          "name": "stable",
          "type": "bool"
        }
      ],
      "name": "pairFor",
      "outputs": [
        {
          "internalType": "address",
          "name": "pair",
          "type": "address"
        }
      ],
      "stateMutability": "view",
      "type": "function"
    },
    {
      "inputs": [],
      "name": "pancakeRouter",
      "outputs": [
        {
          "internalType": "contract IPancakeRouter02",
          "name": "",
          "type": "address"
        }
      ],
      "stateMutability": "view",
      "type": "function"
    },
    {
      "inputs": [
        {
          "internalType": "uint16",
          "name": "",
          "type": "uint16"
        },
        {
          "internalType": "bytes",
          "name": "",
          "type": "bytes"
        },
        {
          "internalType": "uint256",
          "name": "",
          "type": "uint256"
        },
        {
          "internalType": "address",
          "name": "_token",
          "type": "address"
        },
        {
          "internalType": "uint256",
          "name": "amountLD",
          "type": "uint256"
        },
        {
          "internalType": "bytes",
          "name": "_payload",
          "type": "bytes"
        }
      ],
      "name": "sgReceive",
      "outputs": [],
      "stateMutability": "nonpayable",
      "type": "function"
    },
    {
      "inputs": [
        {
          "internalType": "address",
          "name": "tokenA",
          "type": "address"
        },
        {
          "internalType": "address",
          "name": "tokenB",
          "type": "address"
        }
      ],
      "name": "sortTokens",
      "outputs": [
        {
          "internalType": "address",
          "name": "token0",
          "type": "address"
        },
        {
          "internalType": "address",
          "name": "token1",
          "type": "address"
        }
      ],
      "stateMutability": "pure",
      "type": "function"
    },
    {
      "inputs": [],
      "name": "spookyRouter",
      "outputs": [
        {
          "internalType": "contract IUniswapV2Router02",
          "name": "",
          "type": "address"
        }
      ],
      "stateMutability": "view",
      "type": "function"
    },
    {
      "inputs": [],
      "name": "stargateRouter",
      "outputs": [
        {
          "internalType": "contract IStargateRouter",
          "name": "",
          "type": "address"
        }
      ],
      "stateMutability": "view",
      "type": "function"
    },
    {
      "inputs": [],
      "name": "swapRouter",
      "outputs": [
        {
          "internalType": "contract ISwapRouter",
          "name": "",
          "type": "address"
        }
      ],
      "stateMutability": "view",
      "type": "function"
    },
    {
      "inputs": [
        {
          "internalType": "uint8[]",
          "name": "steps",
          "type": "uint8[]"
        },
        {
          "internalType": "bytes[]",
          "name": "data",
          "type": "bytes[]"
        }
      ],
      "name": "swaps",
      "outputs": [],
      "stateMutability": "payable",
      "type": "function"
    },
    {
      "inputs": [],
      "name": "veloFactory",
      "outputs": [
        {
          "internalType": "address",
          "name": "",
          "type": "address"
        }
      ],
      "stateMutability": "view",
      "type": "function"
    },
    {
      "inputs": [],
      "name": "veloRouter",
      "outputs": [
        {
          "internalType": "address",
          "name": "",
          "type": "address"
        }
      ],
      "stateMutability": "view",
      "type": "function"
    },
    {
      "inputs": [],
      "name": "veloWETH",
      "outputs": [
        {
          "internalType": "contract IWETH",
          "name": "",
          "type": "address"
        }
      ],
      "stateMutability": "view",
      "type": "function"
    },
    {
      "inputs": [],
      "name": "version",
      "outputs": [
        {
          "internalType": "string",
          "name": "_version",
          "type": "string"
        }
      ],
      "stateMutability": "pure",
      "type": "function"
    },
    {
      "inputs": [],
      "name": "weth",
      "outputs": [
        {
          "internalType": "address",
          "name": "",
          "type": "address"
        }
      ],
      "stateMutability": "view",
      "type": "function"
    },
    {
      "stateMutability": "payable",
      "type": "receive"
    }
  ],
  "bytecode": {
    "object": "0x6101406040523480156200001257600080fd5b506040516200487b3803806200487b83398101604081905262000035916200009b565b6001600160a01b03958616608052600080546001600160a01b0319169587169590951790945560019290925591831660a0523360c05290821660e05281166101005216610120526200013a565b6001600160a01b03811681146200009857600080fd5b50565b600080600080600080600060e0888a031215620000b757600080fd5b8751620000c48162000082565b6020890151909750620000d78162000082565b6040890151909650620000ea8162000082565b606089015160808a01519196509450620001048162000082565b60a0890151909350620001178162000082565b60c08901519092506200012a8162000082565b8091505092959891949750929550565b60805160a05160c05160e0516101005161012051614696620001e560003960008181610141015261096c015260006104660152600081816103da015281816105c0015281816106d4015281816114df015261182f015260008181610386015261128f0152600081816102fe01528181611656015281816121ad01526121d40152600081816103520152818161193401528181611a6a01528181611b030152611bee01526146966000f3fe6080604052600436106101235760003560e01c8063a9e56f3c116100a0578063c45a015511610064578063c45a0155146103a8578063c7f5fd10146103c8578063d5ef98ea146103fc578063e5e31b1314610424578063fdc09e071461045457600080fd5b8063a9e56f3c146102ec578063ab8236f314610320578063c21ebd0714610286578063c31c9c0714610340578063c415b95c1461037457600080fd5b80635e1e6325116100e75780635e1e63251461023c57806367375cc8146102715780638ed8ea7e146102865780639881fcb41461029b5780639aab9248146102c857600080fd5b80633fc8cef31461012f5780634c1ee03e14610180578063544caa56146101a057806354fd4d50146101e057806359f571e81461021457600080fd5b3661012a57005b600080fd5b34801561013b57600080fd5b506101637f000000000000000000000000000000000000000000000000000000000000000081565b6040516001600160a01b0390911681526020015b60405180910390f35b34801561018c57600080fd5b5061016361019b366004613185565b610488565b3480156101ac57600080fd5b506101c06101bb3660046131d0565b6104a3565b604080516001600160a01b03938416815292909116602083015201610177565b3480156101ec57600080fd5b5060408051808201825260058152640c0b8c0b8d60da1b602082015290516101779190613261565b34801561022057600080fd5b506101637360ae616a2155ee3d9a68541ba4544862310933d481565b34801561024857600080fd5b5061025c610257366004613274565b610588565b60408051928352901515602083015201610177565b61028461027f3660046132ef565b6107dc565b005b34801561029257600080fd5b50610163600081565b3480156102a757600080fd5b506102bb6102b6366004613528565b611392565b604051610177919061356e565b3480156102d457600080fd5b506102de60015481565b604051908152602001610177565b3480156102f857600080fd5b506101637f000000000000000000000000000000000000000000000000000000000000000081565b34801561032c57600080fd5b5061028461033b36600461363c565b61164b565b34801561034c57600080fd5b506101637f000000000000000000000000000000000000000000000000000000000000000081565b34801561038057600080fd5b506101637f000000000000000000000000000000000000000000000000000000000000000081565b3480156103b457600080fd5b50600054610163906001600160a01b031681565b3480156103d457600080fd5b506101637f000000000000000000000000000000000000000000000000000000000000000081565b34801561040857600080fd5b50610163739c12939390052919af3155f41bf4160fd3666a6f81565b34801561043057600080fd5b5061044461043f3660046136d6565b61180d565b6040519015158152602001610177565b34801561046057600080fd5b506101637f000000000000000000000000000000000000000000000000000000000000000081565b600080600061049786866104a3565b50929695505050505050565b600080826001600160a01b0316846001600160a01b03160361050c5760405162461bcd60e51b815260206004820152601b60248201527f526f757465723a204944454e544943414c5f414444524553534553000000000060448201526064015b60405180910390fd5b826001600160a01b0316846001600160a01b03161061052c57828461052f565b83835b90925090506001600160a01b0382166105815760405162461bcd60e51b8152602060048201526014602482015273526f757465723a205a45524f5f4144445245535360601b6044820152606401610503565b9250929050565b600080600061059985856001610488565b60405163e5e31b1360e01b81526001600160a01b03828116600483015291925060009182917f00000000000000000000000000000000000000000000000000000000000000009091169063e5e31b1390602401602060405180830381865afa158015610609573d6000803e3d6000fd5b505050506040513d601f19601f8201168201806040525081019061062d91906136f3565b156106a6576040516378a051ad60e11b8152600481018990526001600160a01b03888116602483015284169063f140a35a90604401602060405180830381865afa15801561067f573d6000803e3d6000fd5b505050506040513d601f19601f820116820180604052508101906106a39190613710565b91505b6106b287876000610488565b60405163e5e31b1360e01b81526001600160a01b0380831660048301529194507f00000000000000000000000000000000000000000000000000000000000000009091169063e5e31b1390602401602060405180830381865afa15801561071d573d6000803e3d6000fd5b505050506040513d601f19601f8201168201806040525081019061074191906136f3565b156107ba576040516378a051ad60e11b8152600481018990526001600160a01b03888116602483015284169063f140a35a90604401602060405180830381865afa158015610793573d6000803e3d6000fd5b505050506040513d601f19601f820116820180604052508101906107b79190613710565b90505b8082116107c9578060006107cd565b8160015b94509450505050935093915050565b60005b8381101561138b5760008585838181106107fb576107fb613729565b9050602002016020810190610810919061374e565b905060001960ff8216016109085760008085858581811061083357610833613729565b9050602002810190610845919061376b565b8101906108529190613820565b9150915060005b825181101561090057600082828151811061087657610876613729565b60200260200101511161089c5760405163fe4155c760e01b815260040160405180910390fd5b6108ee33308484815181106108b3576108b3613729565b60200260200101518685815181106108cd576108cd613729565b60200260200101516001600160a01b03166118a2909392919063ffffffff16565b806108f8816138f0565b915050610859565b505050611378565b60011960ff8216016109e457600084848481811061092857610928613729565b905060200281019061093a919061376b565b8101906109479190613909565b90506000811161096a5760405163fe4155c760e01b815260040160405180910390fd5b7f00000000000000000000000000000000000000000000000000000000000000006001600160a01b031663d0e30db0826040518263ffffffff1660e01b81526004016000604051808303818588803b1580156109c557600080fd5b505af11580156109d9573d6000803e3d6000fd5b505050505050611378565b60021960ff821601610a74576000848484818110610a0457610a04613729565b9050602002810190610a16919061376b565b810190610a239190613935565b905060005b8151811015610a6d576000828281518110610a4557610a45613729565b60200260200101519050610a5881611913565b50508080610a65906138f0565b915050610a28565b5050611378565b60031960ff821601610af6576000848484818110610a9457610a94613729565b9050602002810190610aa6919061376b565b810190610ab39190613a1f565b905060005b8151811015610a6d57610ae3828281518110610ad657610ad6613729565b6020026020010151611ae2565b5080610aee816138f0565b915050610ab8565b60041960ff821601610b78576000848484818110610b1657610b16613729565b9050602002810190610b28919061376b565b810190610b359190613b21565b905060005b8151811015610a6d57610b65828281518110610b5857610b58613729565b6020026020010151611c38565b5080610b70816138f0565b915050610b3a565b60051960ff821601610d61576000848484818110610b9857610b98613729565b9050602002810190610baa919061376b565b810190610bb79190613c2e565b905060005b8151811015610a6d57610c4b7360ae616a2155ee3d9a68541ba4544862310933d4838381518110610bef57610bef613729565b602002602001015160000151848481518110610c0d57610c0d613729565b602002602001015160400151600081518110610c2b57610c2b613729565b60200260200101516001600160a01b0316611e189092919063ffffffff16565b7360ae616a2155ee3d9a68541ba4544862310933d46001600160a01b03166338ed1739838381518110610c8057610c80613729565b602002602001015160000151848481518110610c9e57610c9e613729565b602002602001015160200151858581518110610cbc57610cbc613729565b60200260200101516040015130878781518110610cdb57610cdb613729565b6020026020010151606001516040518663ffffffff1660e01b8152600401610d07959493929190613d28565b6000604051808303816000875af1158015610d26573d6000803e3d6000fd5b505050506040513d6000823e601f3d908101601f19168201604052610d4e9190810190613d99565b5080610d59816138f0565b915050610bbc565b60061960ff821601610ec8576000848484818110610d8157610d81613729565b9050602002810190610d93919061376b565b810190610da09190613c2e565b905060005b8151811015610a6d57610dc56000838381518110610bef57610bef613729565b60006001600160a01b03166338ed1739838381518110610de757610de7613729565b602002602001015160000151848481518110610e0557610e05613729565b602002602001015160200151858581518110610e2357610e23613729565b60200260200101516040015130878781518110610e4257610e42613729565b6020026020010151606001516040518663ffffffff1660e01b8152600401610e6e959493929190613d28565b6000604051808303816000875af1158015610e8d573d6000803e3d6000fd5b505050506040513d6000823e601f3d908101601f19168201604052610eb59190810190613d99565b5080610ec0816138f0565b915050610da5565b60071960ff82160161102f576000848484818110610ee857610ee8613729565b9050602002810190610efa919061376b565b810190610f079190613c2e565b905060005b8151811015610a6d57610f2c6000838381518110610bef57610bef613729565b60006001600160a01b03166338ed1739838381518110610f4e57610f4e613729565b602002602001015160000151848481518110610f6c57610f6c613729565b602002602001015160200151858581518110610f8a57610f8a613729565b60200260200101516040015130878781518110610fa957610fa9613729565b6020026020010151606001516040518663ffffffff1660e01b8152600401610fd5959493929190613d28565b6000604051808303816000875af1158015610ff4573d6000803e3d6000fd5b505050506040513d6000823e601f3d908101601f1916820160405261101c9190810190613d99565b5080611027816138f0565b915050610f0c565b60081960ff82160161113b57600084848481811061104f5761104f613729565b9050602002810190611061919061376b565b81019061106e9190613e1e565b905060005b8151811015610a6d57611106739c12939390052919af3155f41bf4160fd3666a6f8383815181106110a6576110a6613729565b6020026020010151600001518484815181106110c4576110c4613729565b6020026020010151604001516000815181106110e2576110e2613729565b6020026020010151600001516001600160a01b0316611e189092919063ffffffff16565b61112882828151811061111b5761111b613729565b6020026020010151611eca565b5080611133816138f0565b915050611073565b60091960ff82160161132157600084848481811061115b5761115b613729565b905060200281019061116d919061376b565b81019061117a9190613f18565b905060005b8151811015610a6d57600082828151811061119c5761119c613729565b602002602001015160000151905060008383815181106111be576111be613729565b602002602001015160400151905080600003611241576040516370a0823160e01b81523060048201526001600160a01b038316906370a0823190602401602060405180830381865afa158015611218573d6000803e3d6000fd5b505050506040513d601f19601f8201168201806040525081019061123c9190613710565b611243565b805b9050600084848151811061125957611259613729565b6020026020010151602001519050600061127283612062565b905061127e8184613fdb565b92506112b46001600160a01b0385167f000000000000000000000000000000000000000000000000000000000000000083612087565b6112c86001600160a01b0385168385612087565b604080516001600160a01b0386168152602081018390527f075a2720282fdf622141dae0b048ef90a21a7e57c134c76912d19d006b3b3f6f910160405180910390a1505050508080611319906138f0565b91505061117f565b600a1960ff82160161137857600080600086868681811061134457611344613729565b9050602002810190611356919061376b565b81019061136391906140d5565b9250925092506113748383836120bc565b5050505b5080611383816138f0565b9150506107df565b5050505050565b60606001825110156113dd5760405162461bcd60e51b81526020600482015260146024820152730a4deeae8cae47440929cac82989288bea082a8960631b6044820152606401610503565b81516113ea9060016141e2565b6001600160401b038111156114015761140161335a565b60405190808252806020026020018201604052801561142a578160200160208202803683370190505b509050828160008151811061144157611441613729565b60200260200101818152505060005b82518110156116445760006114bd84838151811061147057611470613729565b60200260200101516000015185848151811061148e5761148e613729565b6020026020010151602001518685815181106114ac576114ac613729565b602002602001015160400151610488565b60405163e5e31b1360e01b81526001600160a01b0380831660048301529192507f00000000000000000000000000000000000000000000000000000000000000009091169063e5e31b1390602401602060405180830381865afa158015611528573d6000803e3d6000fd5b505050506040513d601f19601f8201168201806040525081019061154c91906136f3565b1561163157806001600160a01b031663f140a35a84848151811061157257611572613729565b602002602001015186858151811061158c5761158c613729565b6020026020010151600001516040518363ffffffff1660e01b81526004016115c79291909182526001600160a01b0316602082015260400190565b602060405180830381865afa1580156115e4573d6000803e3d6000fd5b505050506040513d601f19601f820116820180604052508101906116089190613710565b836116148460016141e2565b8151811061162457611624613729565b6020026020010181815250505b508061163c816138f0565b915050611450565b5092915050565b336001600160a01b037f0000000000000000000000000000000000000000000000000000000000000000161461169457604051638afe477f60e01b815260040160405180910390fd5b6000806000838060200190518101906116ad91906142b5565b604051630ce6eb9960e31b8152929550909350915060009030906367375cc8906116dd9086908690600401614416565b600060405180830381600087803b1580156116f757600080fd5b505af1925050508015611708575060015b611756573d808015611736576040519150601f19603f3d011682016040523d82523d6000602084013e61173b565b606091505b506117506001600160a01b0389168689612087565b60019150505b600047156117b2576040516001600160a01b038616904790600081818185875af1925050503d80600081146117a7576040519150601f19603f3d011682016040523d82523d6000602084013e6117ac565b606091505b50909150505b6040805188815283151560208201528215158183015290516001600160a01b038a16917f7f345d6da48bd1339fd428ff45265a0f01258b14ca09dcf8db0c469f4f732fd3919081900360600190a25050505050505050505050565b60405163e5e31b1360e01b81526001600160a01b0382811660048301526000917f00000000000000000000000000000000000000000000000000000000000000009091169063e5e31b1390602401602060405180830381865afa158015611878573d6000803e3d6000fd5b505050506040513d601f19601f8201168201806040525081019061189c91906136f3565b92915050565b6040516001600160a01b038085166024830152831660448201526064810182905261190d9085906323b872dd60e01b906084015b60408051601f198184030181529190526020810180516001600160e01b03166001600160e01b03199093169290921790915261230a565b50505050565b60408181015190516370a0823160e01b81523060048201526000916119af917f0000000000000000000000000000000000000000000000000000000000000000906001600160a01b038316906370a08231906024015b602060405180830381865afa158015611986573d6000803e3d6000fd5b505050506040513d601f19601f820116820180604052508101906119aa9190613710565b6123dc565b6040805161010081018252838201516001600160a01b0390811682526060808601518216602080850191825260808089015162ffffff90811687890190815230958801958652429288019283528a5160a08901908152938b015160c08901908152600060e08a01908152995163414bf38960e01b8152895189166004820152955188166024870152905190911660448501529351851660648401525160848301525160a4820152905160c48201529251811660e484015290917f00000000000000000000000000000000000000000000000000000000000000009091169063414bf38990610104015b6020604051808303816000875af1158015611ab7573d6000803e3d6000fd5b505050506040513d601f19601f82011682018060405250810190611adb9190613710565b9392505050565b60408181015190516370a0823160e01b8152306004820152600091611b3c917f0000000000000000000000000000000000000000000000000000000000000000906001600160a01b038316906370a0823190602401611969565b6040805160a08082018352918401519184015160608086015160c08088015160808901516001600160601b031997851b8816928701929092526001600160e81b031960e895861b811660d488015292841b871660d787015290931b1660eb8401521b90911660ee8201526000908061010281016040516020818303038152906040528152602001306001600160a01b0316815260200142815260200184600001518152602001846020015181525090507f00000000000000000000000000000000000000000000000000000000000000006001600160a01b031663c04b8d59826040518263ffffffff1660e01b8152600401611a989190614444565b60008054825160408401516001548493611c5f936001600160a01b039091169290916124d5565b90508060018251611c709190613fdb565b81518110611c8057611c80613729565b602002602001015191508260200151821015611cde5760405162461bcd60e51b815260206004820152601760248201527f696e73756666696369656e742d616d6f756e742d6f75740000000000000000006044820152606401610503565b826060015115611e03576000805460408501518051611e0393611d41936001600160a01b03169291611d1257611d12613729565b60200260200101518660400151600181518110611d3157611d31613729565b6020026020010151600154612661565b8460400151600081518110611d5857611d58613729565b60209081029190910101516040516370a0823160e01b81523060048201526001600160a01b03909116906370a0823190602401602060405180830381865afa158015611da8573d6000803e3d6000fd5b505050506040513d601f19601f82011682018060405250810190611dcc9190613710565b8560400151600081518110611de357611de3613729565b60200260200101516001600160a01b03166120879092919063ffffffff16565b611e1281846040015130612715565b50919050565b604051636eb1769f60e11b81523060048201526001600160a01b038381166024830152600091839186169063dd62ed3e90604401602060405180830381865afa158015611e69573d6000803e3d6000fd5b505050506040513d601f19601f82011682018060405250810190611e8d9190613710565b611e9791906141e2565b6040516001600160a01b03851660248201526044810182905290915061190d90859063095ea7b360e01b906064016118d6565b6060816060015142811015611f135760405162461bcd60e51b815260206004820152600f60248201526e149bdd5d195c8e8811561412549151608a1b6044820152606401610503565b611f2583600001518460400151611392565b915082602001518260018451611f3b9190613fdb565b81518110611f4b57611f4b613729565b60200260200101511015611fac5760405162461bcd60e51b815260206004820152602260248201527f526f757465723a20494e53554646494349454e545f4f55545055545f414d4f55604482015261139560f21b6064820152608401610503565b6120538360400151600081518110611fc657611fc6613729565b602002602001015160000151306120338660400151600081518110611fed57611fed613729565b602002602001015160000151876040015160008151811061201057612010613729565b60200260200101516020015188604001516000815181106114ac576114ac613729565b8560008151811061204657612046613729565b60200260200101516128ec565b611e12828460400151306129e4565b60006127106120738361270b61449c565b61207d91906144bb565b61189c9083613fdb565b6040516001600160a01b0383166024820152604481018290526120b790849063a9059cbb60e01b906064016118d6565b505050565b600034116120dd5760405163c9935ff960e01b815260040160405180910390fd5b600083610100015183836040516020016120f9939291906144dd565b604051602081830303815290604052905083608001516000036121895760208401516040516370a0823160e01b81523060048201526001600160a01b03909116906370a0823190602401602060405180830381865afa158015612160573d6000803e3d6000fd5b505050506040513d601f19601f820116820180604052508101906121849190613710565b61218f565b83608001515b6080850181905260208501516121d2916001600160a01b03909116907f000000000000000000000000000000000000000000000000000000000000000090611e18565b7f00000000000000000000000000000000000000000000000000000000000000006001600160a01b0316639fbf10fc47866000015187604001518860600151308a608001518b60a0015160405180606001604052808e610120015181526020018e60c0015181526020018e60e00151604051602001612264919060609190911b6001600160601b031916815260140190565b6040516020818303038152906040528152508d60e0015160405160200161229e919060609190911b6001600160601b031916815260140190565b6040516020818303038152906040528b6040518b63ffffffff1660e01b81526004016122d29998979695949392919061451d565b6000604051808303818588803b1580156122eb57600080fd5b505af11580156122ff573d6000803e3d6000fd5b505050505050505050565b600061235f826040518060400160405280602081526020017f5361666545524332303a206c6f772d6c6576656c2063616c6c206661696c6564815250856001600160a01b0316612c339092919063ffffffff16565b8051909150156120b7578080602001905181019061237d91906136f3565b6120b75760405162461bcd60e51b815260206004820152602a60248201527f5361666545524332303a204552433230206f7065726174696f6e20646964206e6044820152691bdd081cdd58d8d9595960b21b6064820152608401610503565b604080516001600160a01b038481166024830152604480830185905283518084039091018152606490920183526020820180516001600160e01b031663095ea7b360e01b179052915160009283929087169161243891906145bb565b6000604051808303816000865af19150503d8060008114612475576040519150601f19603f3d011682016040523d82523d6000602084013e61247a565b606091505b50915091508180156124a45750805115806124a45750808060200190518101906124a491906136f3565b61138b5760405162461bcd60e51b8152602060048201526002602482015261534160f01b6044820152606401610503565b60606002835110156125295760405162461bcd60e51b815260206004820152601e60248201527f556e697377617056324c6962726172793a20494e56414c49445f5041544800006044820152606401610503565b82516001600160401b038111156125425761254261335a565b60405190808252806020026020018201604052801561256b578160200160208202803683370190505b509050838160008151811061258257612582613729565b60200260200101818152505060005b6001845161259f9190613fdb565b811015612658576000806125f3888785815181106125bf576125bf613729565b6020026020010151888660016125d591906141e2565b815181106125e5576125e5613729565b602002602001015188612c4a565b9150915061261b84848151811061260c5761260c613729565b60200260200101518383612d16565b846126278560016141e2565b8151811061263757612637613729565b60200260200101818152505050508080612650906138f0565b915050612591565b50949350505050565b60008060006126708686612e35565b6040516001600160601b0319606084811b8216602084015283901b1660348201529193509150879060480160405160208183030381529060405280519060200120856040516020016126f2939291906001600160f81b0319815260609390931b6001600160601b03191660018401526015830191909152603582015260550190565b60408051601f198184030181529190528051602090910120979650505050505050565b60005b600183516127269190613fdb565b81101561190d5760008084838151811061274257612742613729565b60200260200101518584600161275891906141e2565b8151811061276857612768613729565b60200260200101519150915060006127808383612e35565b5090506000876127918660016141e2565b815181106127a1576127a1613729565b60200260200101519050600080836001600160a01b0316866001600160a01b0316146127cf578260006127d3565b6000835b91509150600060028a516127e79190613fdb565b88106127f35788612820565b600054612820906001600160a01b0316878c6128108c60026141e2565b81518110611d3157611d31613729565b905061284360008054906101000a90046001600160a01b03168888600154612661565b6001600160a01b031663022c0d9f84848460006040519080825280601f01601f191660200182016040528015612880576020820181803683370190505b506040518563ffffffff1660e01b81526004016128a094939291906145d7565b600060405180830381600087803b1580156128ba57600080fd5b505af11580156128ce573d6000803e3d6000fd5b505050505050505050505080806128e4906138f0565b915050612718565b6000846001600160a01b03163b1161290357600080fd5b604080516001600160a01b0385811660248301528481166044830152606480830185905283518084039091018152608490920183526020820180516001600160e01b03166323b872dd60e01b179052915160009283929088169161296791906145bb565b6000604051808303816000865af19150503d80600081146129a4576040519150601f19603f3d011682016040523d82523d6000602084013e6129a9565b606091505b50915091508180156129d35750805115806129d35750808060200190518101906129d391906136f3565b6129dc57600080fd5b505050505050565b60005b825181101561190d576000612a36848381518110612a0757612a07613729565b602002602001015160000151858481518110612a2557612a25613729565b6020026020010151602001516104a3565b509050600085612a478460016141e2565b81518110612a5757612a57613729565b60200260200101519050600080836001600160a01b0316878681518110612a8057612a80613729565b6020026020010151600001516001600160a01b031614612aa257826000612aa6565b6000835b91509150600060018851612aba9190613fdb565b8610612ac65786612b39565b612b3988612ad58860016141e2565b81518110612ae557612ae5613729565b60200260200101516000015189886001612aff91906141e2565b81518110612b0f57612b0f613729565b6020026020010151602001518a896001612b2991906141e2565b815181106114ac576114ac613729565b9050612b8c888781518110612b5057612b50613729565b602002602001015160000151898881518110612b6e57612b6e613729565b6020026020010151602001518a89815181106114ac576114ac613729565b6001600160a01b031663022c0d9f84848460006040519080825280601f01601f191660200182016040528015612bc9576020820181803683370190505b506040518563ffffffff1660e01b8152600401612be994939291906145d7565b600060405180830381600087803b158015612c0357600080fd5b505af1158015612c17573d6000803e3d6000fd5b5050505050505050508080612c2b906138f0565b9150506129e7565b6060612c428484600085612f25565b949350505050565b6000806000612c598686612e35565b509050600080612c6b89898989612661565b6001600160a01b0316630902f1ac6040518163ffffffff1660e01b8152600401606060405180830381865afa158015612ca8573d6000803e3d6000fd5b505050506040513d601f19601f82011682018060405250810190612ccc919061461b565b506001600160701b031691506001600160701b03169150826001600160a01b0316886001600160a01b031614612d03578082612d06565b81815b909a909950975050505050505050565b6000808411612d7b5760405162461bcd60e51b815260206004820152602b60248201527f556e697377617056324c6962726172793a20494e53554646494349454e545f4960448201526a1394155517d05353d5539560aa1b6064820152608401610503565b600083118015612d8b5750600082115b612de85760405162461bcd60e51b815260206004820152602860248201527f556e697377617056324c6962726172793a20494e53554646494349454e545f4c604482015267495155494449545960c01b6064820152608401610503565b6000612df6856103e5612ff5565b90506000612e048285612ff5565b90506000612e1e83612e18886103e8612ff5565b9061305c565b9050612e2a81836144bb565b979650505050505050565b600080826001600160a01b0316846001600160a01b031603612ea75760405162461bcd60e51b815260206004820152602560248201527f556e697377617056324c6962726172793a204944454e544943414c5f41444452604482015264455353455360d81b6064820152608401610503565b826001600160a01b0316846001600160a01b031610612ec7578284612eca565b83835b90925090506001600160a01b0382166105815760405162461bcd60e51b815260206004820152601e60248201527f556e697377617056324c6962726172793a205a45524f5f4144445245535300006044820152606401610503565b606082471015612f865760405162461bcd60e51b815260206004820152602660248201527f416464726573733a20696e73756666696369656e742062616c616e636520666f6044820152651c8818d85b1b60d21b6064820152608401610503565b600080866001600160a01b03168587604051612fa291906145bb565b60006040518083038185875af1925050503d8060008114612fdf576040519150601f19603f3d011682016040523d82523d6000602084013e612fe4565b606091505b5091509150612e2a878383876130b1565b60008115806130195750828261300b818361449c565b925061301790836144bb565b145b61189c5760405162461bcd60e51b815260206004820152601460248201527364732d6d6174682d6d756c2d6f766572666c6f7760601b6044820152606401610503565b60008261306983826141e2565b915081101561189c5760405162461bcd60e51b815260206004820152601460248201527364732d6d6174682d6164642d6f766572666c6f7760601b6044820152606401610503565b60608315613120578251600003613119576001600160a01b0385163b6131195760405162461bcd60e51b815260206004820152601d60248201527f416464726573733a2063616c6c20746f206e6f6e2d636f6e74726163740000006044820152606401610503565b5081612c42565b612c4283838151156131355781518083602001fd5b8060405162461bcd60e51b81526004016105039190613261565b6001600160a01b038116811461316457600080fd5b50565b80356131728161314f565b919050565b801515811461316457600080fd5b60008060006060848603121561319a57600080fd5b83356131a58161314f565b925060208401356131b58161314f565b915060408401356131c581613177565b809150509250925092565b600080604083850312156131e357600080fd5b82356131ee8161314f565b915060208301356131fe8161314f565b809150509250929050565b60005b8381101561322457818101518382015260200161320c565b8381111561190d5750506000910152565b6000815180845261324d816020860160208601613209565b601f01601f19169290920160200192915050565b602081526000611adb6020830184613235565b60008060006060848603121561328957600080fd5b83359250602084013561329b8161314f565b915060408401356131c58161314f565b60008083601f8401126132bd57600080fd5b5081356001600160401b038111156132d457600080fd5b6020830191508360208260051b850101111561058157600080fd5b6000806000806040858703121561330557600080fd5b84356001600160401b038082111561331c57600080fd5b613328888389016132ab565b9096509450602087013591508082111561334157600080fd5b5061334e878288016132ab565b95989497509550505050565b634e487b7160e01b600052604160045260246000fd5b604051606081016001600160401b03811182821017156133925761339261335a565b60405290565b60405160a081016001600160401b03811182821017156133925761339261335a565b60405160e081016001600160401b03811182821017156133925761339261335a565b604051608081016001600160401b03811182821017156133925761339261335a565b60405161016081016001600160401b03811182821017156133925761339261335a565b604051601f8201601f191681016001600160401b03811182821017156134495761344961335a565b604052919050565b60006001600160401b0382111561346a5761346a61335a565b5060051b60200190565b600082601f83011261348557600080fd5b8135602061349a61349583613451565b613421565b828152606092830285018201928282019190878511156134b957600080fd5b8387015b8581101561351b5781818a0312156134d55760008081fd5b6134dd613370565b81356134e88161314f565b8152818601356134f78161314f565b8187015260408281013561350a81613177565b9082015284529284019281016134bd565b5090979650505050505050565b6000806040838503121561353b57600080fd5b8235915060208301356001600160401b0381111561355857600080fd5b61356485828601613474565b9150509250929050565b6020808252825182820181905260009190848201906040850190845b818110156135a65783518352928401929184019160010161358a565b50909695505050505050565b803561ffff8116811461317257600080fd5b60006001600160401b038211156135dd576135dd61335a565b50601f01601f191660200190565b600082601f8301126135fc57600080fd5b813561360a613495826135c4565b81815284602083860101111561361f57600080fd5b816020850160208301376000918101602001919091529392505050565b60008060008060008060c0878903121561365557600080fd5b61365e876135b2565b955060208701356001600160401b038082111561367a57600080fd5b6136868a838b016135eb565b9650604089013595506060890135915061369f8261314f565b9093506080880135925060a088013590808211156136bc57600080fd5b506136c989828a016135eb565b9150509295509295509295565b6000602082840312156136e857600080fd5b8135611adb8161314f565b60006020828403121561370557600080fd5b8151611adb81613177565b60006020828403121561372257600080fd5b5051919050565b634e487b7160e01b600052603260045260246000fd5b60ff8116811461316457600080fd5b60006020828403121561376057600080fd5b8135611adb8161373f565b6000808335601e1984360301811261378257600080fd5b8301803591506001600160401b0382111561379c57600080fd5b60200191503681900382131561058157600080fd5b600082601f8301126137c257600080fd5b813560206137d261349583613451565b82815260059290921b840181019181810190868411156137f157600080fd5b8286015b848110156138155780356138088161314f565b83529183019183016137f5565b509695505050505050565b6000806040838503121561383357600080fd5b82356001600160401b038082111561384a57600080fd5b613856868387016137b1565b935060209150818501358181111561386d57600080fd5b85019050601f8101861361388057600080fd5b803561388e61349582613451565b81815260059190911b820183019083810190888311156138ad57600080fd5b928401925b828410156138cb578335825292840192908401906138b2565b80955050505050509250929050565b634e487b7160e01b600052601160045260246000fd5b600060018201613902576139026138da565b5060010190565b60006020828403121561391b57600080fd5b5035919050565b803562ffffff8116811461317257600080fd5b6000602080838503121561394857600080fd5b82356001600160401b0381111561395e57600080fd5b8301601f8101851361396f57600080fd5b803561397d61349582613451565b81815260a0918202830184019184820191908884111561399c57600080fd5b938501935b83851015613a135780858a0312156139b95760008081fd5b6139c1613398565b8535815286860135878201526040808701356139dc8161314f565b908201526060868101356139ef8161314f565b908201526080613a00878201613922565b90820152835293840193918501916139a1565b50979650505050505050565b60006020808385031215613a3257600080fd5b82356001600160401b03811115613a4857600080fd5b8301601f81018513613a5957600080fd5b8035613a6761349582613451565b81815260e09182028301840191848201919088841115613a8657600080fd5b938501935b83851015613a135780858a031215613aa35760008081fd5b613aab6133ba565b853581528686013587820152604080870135613ac68161314f565b90820152606086810135613ad98161314f565b90820152608086810135613aec8161314f565b9082015260a0613afd878201613922565b9082015260c0613b0e878201613922565b9082015283529384019391850191613a8b565b60006020808385031215613b3457600080fd5b82356001600160401b0380821115613b4b57600080fd5b818501915085601f830112613b5f57600080fd5b8135613b6d61349582613451565b81815260059190911b83018401908481019088831115613b8c57600080fd5b8585015b83811015613c2157803585811115613ba757600080fd5b86016080818c03601f19011215613bbe5760008081fd5b613bc66133dc565b8882013581526040808301358a83015260608084013589811115613bea5760008081fd5b613bf88f8d838801016137b1565b838501525060808401359350613c0d84613177565b820192909252845250918601918601613b90565b5098975050505050505050565b60006020808385031215613c4157600080fd5b82356001600160401b0380821115613c5857600080fd5b818501915085601f830112613c6c57600080fd5b8135613c7a61349582613451565b81815260059190911b83018401908481019088831115613c9957600080fd5b8585015b83811015613c2157803585811115613cb457600080fd5b86016080818c03601f19011215613ccb5760008081fd5b613cd36133dc565b8882013581526040808301358a83015260608084013589811115613cf75760008081fd5b613d058f8d838801016137b1565b928401929092526080939093013592820192909252845250918601918601613c9d565b600060a082018783526020878185015260a0604085015281875180845260c086019150828901935060005b81811015613d785784516001600160a01b031683529383019391830191600101613d53565b50506001600160a01b03969096166060850152505050608001529392505050565b60006020808385031215613dac57600080fd5b82516001600160401b03811115613dc257600080fd5b8301601f81018513613dd357600080fd5b8051613de161349582613451565b81815260059190911b82018301908381019087831115613e0057600080fd5b928401925b82841015612e2a57835182529284019290840190613e05565b60006020808385031215613e3157600080fd5b82356001600160401b0380821115613e4857600080fd5b818501915085601f830112613e5c57600080fd5b8135613e6a61349582613451565b81815260059190911b83018401908481019088831115613e8957600080fd5b8585015b83811015613c2157803585811115613ea457600080fd5b86016080818c03601f19011215613ebb5760008081fd5b613ec36133dc565b8882013581526040808301358a83015260608084013589811115613ee75760008081fd5b613ef58f8d83880101613474565b928401929092526080939093013592820192909252845250918601918601613e8d565b60006020808385031215613f2b57600080fd5b82356001600160401b03811115613f4157600080fd5b8301601f81018513613f5257600080fd5b8035613f6061349582613451565b81815260609182028301840191848201919088841115613f7f57600080fd5b938501935b83851015613a135780858a031215613f9c5760008081fd5b613fa4613370565b8535613faf8161314f565b815285870135613fbe8161314f565b818801526040868101359082015283529384019391850191613f84565b600082821015613fed57613fed6138da565b500390565b600082601f83011261400357600080fd5b8135602061401361349583613451565b82815260059290921b8401810191818101908684111561403257600080fd5b8286015b848110156138155780356140498161373f565b8352918301918301614036565b600082601f83011261406757600080fd5b8135602061407761349583613451565b82815260059290921b8401810191818101908684111561409657600080fd5b8286015b848110156138155780356001600160401b038111156140b95760008081fd5b6140c78986838b01016135eb565b84525091830191830161409a565b60008060008385036101a08112156140ec57600080fd5b610160808212156140fc57600080fd5b6141046133fe565b915061410f866135b2565b825261411d60208701613167565b602083015260408601356040830152606086013560608301526080860135608083015260a086013560a083015260c086013560c083015261416060e08701613167565b60e0830152610100614173818801613167565b90830152610120868101359083015261014080870135908301529093508401356001600160401b03808211156141a857600080fd5b6141b487838801613ff2565b93506101808601359150808211156141cb57600080fd5b506141d886828701614056565b9150509250925092565b600082198211156141f5576141f56138da565b500190565b600082601f83011261420b57600080fd5b8151602061421b61349583613451565b82815260059290921b8401810191818101908684111561423a57600080fd5b8286015b848110156138155780516001600160401b0381111561425d5760008081fd5b8701603f8101891361426f5760008081fd5b848101516040614281613495836135c4565b8281528b828486010111156142965760008081fd5b6142a583898301848701613209565b865250505091830191830161423e565b6000806000606084860312156142ca57600080fd5b83516142d58161314f565b809350506020808501516001600160401b03808211156142f457600080fd5b818701915087601f83011261430857600080fd5b815161431661349582613451565b81815260059190911b8301840190848101908a83111561433557600080fd5b938501935b8285101561435c57845161434d8161373f565b8252938501939085019061433a565b60408a0151909750945050508083111561437557600080fd5b50506141d8868287016141fa565b600081518084526020808501945080840160005b838110156143b657815160ff1687529582019590820190600101614397565b509495945050505050565b600081518084526020808501808196508360051b8101915082860160005b858110156144095782840389526143f7848351613235565b988501989350908401906001016143df565b5091979650505050505050565b6040815260006144296040830185614383565b828103602084015261443b81856143c1565b95945050505050565b602081526000825160a0602084015261446060c0840182613235565b905060018060a01b0360208501511660408401526040840151606084015260608401516080840152608084015160a08401528091505092915050565b60008160001904831182151516156144b6576144b66138da565b500290565b6000826144d857634e487b7160e01b600052601260045260246000fd5b500490565b6001600160a01b038416815260606020820181905260009061450190830185614383565b828103604084015261451381856143c1565b9695505050505050565b600061012061ffff8c1683528a602084015289604084015260018060a01b03891660608401528760808401528660a08401528060c084015285518184015250602085015161014083015260408501516060610160840152614582610180840182613235565b905082810360e08401526145968186613235565b90508281036101008401526145ab8185613235565b9c9b505050505050505050505050565b600082516145cd818460208701613209565b9190910192915050565b84815283602082015260018060a01b03831660408201526080606082015260006145136080830184613235565b80516001600160701b038116811461317257600080fd5b60008060006060848603121561463057600080fd5b61463984614604565b925061464760208501614604565b9150604084015163ffffffff811681146131c557600080fdfea2646970667358221220306bda5bb132d4926392189ce1d1cac4d4e75b2ce1ad67780080a7e22f7197b064736f6c634300080f0033",
    "linkReferences": {}
  },
  "methodIdentifiers": {
    "factory()": "c45a0155",
    "feeCollector()": "c415b95c",
    "getAmountOut(uint256,address,address)": "5e1e6325",
    "getAmountsOut(uint256,(address,address,bool)[])": "9881fcb4",
    "isPair(address)": "e5e31b13",
    "joeRouter()": "59f571e8",
    "pairCodeHash()": "9aab9248",
    "pairFor(address,address,bool)": "4c1ee03e",
    "pancakeRouter()": "c21ebd07",
    "sgReceive(uint16,bytes,uint256,address,uint256,bytes)": "ab8236f3",
    "sortTokens(address,address)": "544caa56",
    "spookyRouter()": "8ed8ea7e",
    "stargateRouter()": "a9e56f3c",
    "swapRouter()": "c31c9c07",
    "swaps(uint8[],bytes[])": "67375cc8",
    "veloFactory()": "c7f5fd10",
    "veloRouter()": "d5ef98ea",
    "veloWETH()": "fdc09e07",
    "version()": "54fd4d50",
    "weth()": "3fc8cef3"
  },
  "id": 31
}