{
  "abi": [
    {
      "inputs": [
        {
          "internalType": "address",
          "name": "_weth",
          "type": "address"
        },
        {
          "internalType": "contract ISwapRouter",
          "name": "_swapRouter",
          "type": "address"
        },
        {
          "internalType": "address",
          "name": "_sushiFactory",
          "type": "address"
        },
        {
          "internalType": "bytes32",
          "name": "_sushiPairCodeHash",
          "type": "bytes32"
        },
        {
          "internalType": "address",
          "name": "_veloFactory",
          "type": "address"
        },
        {
          "internalType": "address",
          "name": "_veloWeth",
          "type": "address"
        },
        {
          "internalType": "contract IStargateRouter",
          "name": "_stargateRouter",
          "type": "address"
        }
      ],
      "stateMutability": "nonpayable",
      "type": "constructor"
    },
    {
      "inputs": [],
      "name": "MoreThanZero",
      "type": "error"
    },
    {
      "inputs": [],
      "name": "MustBeGt0",
      "type": "error"
    },
    {
      "inputs": [],
      "name": "NotEnoughSteps",
      "type": "error"
    },
    {
      "inputs": [],
      "name": "NotStgRouter",
      "type": "error"
    },
    {
      "anonymous": false,
      "inputs": [
        {
          "indexed": false,
          "internalType": "address",
          "name": "_token",
          "type": "address"
        },
        {
          "indexed": false,
          "internalType": "uint256",
          "name": "_fee",
          "type": "uint256"
        }
      ],
      "name": "FeePaid",
      "type": "event"
    },
    {
      "anonymous": false,
      "inputs": [
        {
          "indexed": true,
          "internalType": "address",
          "name": "token",
          "type": "address"
        },
        {
          "indexed": false,
          "internalType": "uint256",
          "name": "amountLD",
          "type": "uint256"
        },
        {
          "indexed": false,
          "internalType": "bool",
          "name": "failed",
          "type": "bool"
        },
        {
          "indexed": false,
          "internalType": "bool",
          "name": "dustSent",
          "type": "bool"
        }
      ],
      "name": "ReceivedOnDestination",
      "type": "event"
    },
    {
      "inputs": [],
      "name": "factory",
      "outputs": [
        {
          "internalType": "address",
          "name": "",
          "type": "address"
        }
      ],
      "stateMutability": "view",
      "type": "function"
    },
    {
      "inputs": [],
      "name": "feeCollector",
      "outputs": [
        {
          "internalType": "address",
          "name": "",
          "type": "address"
        }
      ],
      "stateMutability": "view",
      "type": "function"
    },
    {
      "inputs": [
        {
          "internalType": "uint256",
          "name": "amountIn",
          "type": "uint256"
        },
        {
          "internalType": "address",
          "name": "tokenIn",
          "type": "address"
        },
        {
          "internalType": "address",
          "name": "tokenOut",
          "type": "address"
        }
      ],
      "name": "getAmountOut",
      "outputs": [
        {
          "internalType": "uint256",
          "name": "amount",
          "type": "uint256"
        },
        {
          "internalType": "bool",
          "name": "stable",
          "type": "bool"
        }
      ],
      "stateMutability": "view",
      "type": "function"
    },
    {
      "inputs": [
        {
          "internalType": "uint256",
          "name": "amountIn",
          "type": "uint256"
        },
        {
          "components": [
            {
              "internalType": "address",
              "name": "from",
              "type": "address"
            },
            {
              "internalType": "address",
              "name": "to",
              "type": "address"
            },
            {
              "internalType": "bool",
              "name": "stable",
              "type": "bool"
            }
          ],
          "internalType": "struct VelodromeAdapter.route[]",
          "name": "routes",
          "type": "tuple[]"
        }
      ],
      "name": "getAmountsOut",
      "outputs": [
        {
          "internalType": "uint256[]",
          "name": "amounts",
          "type": "uint256[]"
        }
      ],
      "stateMutability": "view",
      "type": "function"
    },
    {
      "inputs": [
        {
          "internalType": "address",
          "name": "pair",
          "type": "address"
        }
      ],
      "name": "isPair",
      "outputs": [
        {
          "internalType": "bool",
          "name": "",
          "type": "bool"
        }
      ],
      "stateMutability": "view",
      "type": "function"
    },
    {
      "inputs": [],
      "name": "joeRouter",
      "outputs": [
        {
          "internalType": "contract IJoeRouter02",
          "name": "",
          "type": "address"
        }
      ],
      "stateMutability": "view",
      "type": "function"
    },
    {
      "inputs": [],
      "name": "pairCodeHash",
      "outputs": [
        {
          "internalType": "bytes32",
          "name": "",
          "type": "bytes32"
        }
      ],
      "stateMutability": "view",
      "type": "function"
    },
    {
      "inputs": [
        {
          "internalType": "address",
          "name": "tokenA",
          "type": "address"
        },
        {
          "internalType": "address",
          "name": "tokenB",
          "type": "address"
        },
        {
          "internalType": "bool",
          "name": "stable",
          "type": "bool"
        }
      ],
      "name": "pairFor",
      "outputs": [
        {
          "internalType": "address",
          "name": "pair",
          "type": "address"
        }
      ],
      "stateMutability": "view",
      "type": "function"
    },
    {
      "inputs": [],
      "name": "pancakeRouter",
      "outputs": [
        {
          "internalType": "contract IPancakeRouter02",
          "name": "",
          "type": "address"
        }
      ],
      "stateMutability": "view",
      "type": "function"
    },
    {
      "inputs": [
        {
          "internalType": "uint16",
          "name": "",
          "type": "uint16"
        },
        {
          "internalType": "bytes",
          "name": "",
          "type": "bytes"
        },
        {
          "internalType": "uint256",
          "name": "",
          "type": "uint256"
        },
        {
          "internalType": "address",
          "name": "_token",
          "type": "address"
        },
        {
          "internalType": "uint256",
          "name": "amountLD",
          "type": "uint256"
        },
        {
          "internalType": "bytes",
          "name": "_payload",
          "type": "bytes"
        }
      ],
      "name": "sgReceive",
      "outputs": [],
      "stateMutability": "nonpayable",
      "type": "function"
    },
    {
      "inputs": [
        {
          "internalType": "address",
          "name": "tokenA",
          "type": "address"
        },
        {
          "internalType": "address",
          "name": "tokenB",
          "type": "address"
        }
      ],
      "name": "sortTokens",
      "outputs": [
        {
          "internalType": "address",
          "name": "token0",
          "type": "address"
        },
        {
          "internalType": "address",
          "name": "token1",
          "type": "address"
        }
      ],
      "stateMutability": "pure",
      "type": "function"
    },
    {
      "inputs": [],
      "name": "spookyRouter",
      "outputs": [
        {
          "internalType": "contract IUniswapV2Router02",
          "name": "",
          "type": "address"
        }
      ],
      "stateMutability": "view",
      "type": "function"
    },
    {
      "inputs": [],
      "name": "stargateRouter",
      "outputs": [
        {
          "internalType": "contract IStargateRouter",
          "name": "",
          "type": "address"
        }
      ],
      "stateMutability": "view",
      "type": "function"
    },
    {
      "inputs": [],
      "name": "swapRouter",
      "outputs": [
        {
          "internalType": "contract ISwapRouter",
          "name": "",
          "type": "address"
        }
      ],
      "stateMutability": "view",
      "type": "function"
    },
    {
      "inputs": [
        {
          "internalType": "uint8[]",
          "name": "steps",
          "type": "uint8[]"
        },
        {
          "internalType": "bytes[]",
          "name": "data",
          "type": "bytes[]"
        }
      ],
      "name": "swaps",
      "outputs": [],
      "stateMutability": "payable",
      "type": "function"
    },
    {
      "inputs": [],
      "name": "veloFactory",
      "outputs": [
        {
          "internalType": "address",
          "name": "",
          "type": "address"
        }
      ],
      "stateMutability": "view",
      "type": "function"
    },
    {
      "inputs": [],
      "name": "veloRouter",
      "outputs": [
        {
          "internalType": "address",
          "name": "",
          "type": "address"
        }
      ],
      "stateMutability": "view",
      "type": "function"
    },
    {
      "inputs": [],
      "name": "veloWETH",
      "outputs": [
        {
          "internalType": "contract IWETH",
          "name": "",
          "type": "address"
        }
      ],
      "stateMutability": "view",
      "type": "function"
    },
    {
      "inputs": [],
      "name": "version",
      "outputs": [
        {
          "internalType": "string",
          "name": "_version",
          "type": "string"
        }
      ],
      "stateMutability": "pure",
      "type": "function"
    },
    {
      "inputs": [],
      "name": "weth",
      "outputs": [
        {
          "internalType": "address",
          "name": "",
          "type": "address"
        }
      ],
      "stateMutability": "view",
      "type": "function"
    },
    {
      "stateMutability": "payable",
      "type": "receive"
    }
  ],
  "bytecode": {
    "object": "0x6101606040523480156200001257600080fd5b5060405162004a5738038062004a57833981016040819052620000359162000117565b6001600160a01b03868116608052600080546001600160a01b031916878316179055600185905581811660a0523360c052831660e081905260408051631355724960e31b81529051859285929091639aab9248916004808201926020929091908290030181865afa158015620000af573d6000803e3d6000fd5b505050506040513d601f19601f82011682018060405250810190620000d59190620001b6565b610120526001600160a01b0390811661010052979097166101405250620001d095505050505050565b6001600160a01b03811681146200011457600080fd5b50565b600080600080600080600060e0888a0312156200013357600080fd5b87516200014081620000fe565b60208901519097506200015381620000fe565b60408901519096506200016681620000fe565b606089015160808a015191965094506200018081620000fe565b60a08901519093506200019381620000fe565b60c0890151909250620001a681620000fe565b8091505092959891949750929550565b600060208284031215620001c957600080fd5b5051919050565b60805160a05160c05160e0516101005161012051610140516147c362000294600039600081816101410152610a2101526000610505015260006104660152600081816103da015281816104ca01528181610675015281816107890152818161158d01526118dd0152600081816103860152818161133d01526122b40152600081816102d6015281816117040152818161225501526122db015260008181610352015281816119e201528181611b1401528181611bab0152611c9601526147c36000f3fe6080604052600436106101235760003560e01c8063a9e56f3c116100a0578063c45a015511610064578063c45a0155146103a8578063c7f5fd10146103c8578063d5ef98ea146103fc578063e5e31b1314610424578063fdc09e071461045457600080fd5b8063a9e56f3c146102c4578063ab8236f3146102f8578063c21ebd0714610318578063c31c9c0714610340578063c415b95c1461037457600080fd5b80635e1e6325116100e75780635e1e63251461022957806367375cc81461025e5780638ed8ea7e146102145780639881fcb4146102735780639aab9248146102a057600080fd5b80633fc8cef31461012f5780634c1ee03e14610180578063544caa56146101a057806354fd4d50146101e057806359f571e81461021457600080fd5b3661012a57005b600080fd5b34801561013b57600080fd5b506101637f000000000000000000000000000000000000000000000000000000000000000081565b6040516001600160a01b0390911681526020015b60405180910390f35b34801561018c57600080fd5b5061016361019b3660046132a7565b610488565b3480156101ac57600080fd5b506101c06101bb3660046132f2565b610558565b604080516001600160a01b03938416815292909116602083015201610177565b3480156101ec57600080fd5b506040805180820182526005815264302e302e3360d81b602082015290516101779190613383565b34801561022057600080fd5b50610163600081565b34801561023557600080fd5b50610249610244366004613396565b61063d565b60408051928352901515602083015201610177565b61027161026c366004613411565b610891565b005b34801561027f57600080fd5b5061029361028e366004613628565b611440565b604051610177919061366e565b3480156102ac57600080fd5b506102b660015481565b604051908152602001610177565b3480156102d057600080fd5b506101637f000000000000000000000000000000000000000000000000000000000000000081565b34801561030457600080fd5b5061027161031336600461373c565b6116f9565b34801561032457600080fd5b506101637310ed43c718714eb63d5aa57b78b54704e256024e81565b34801561034c57600080fd5b506101637f000000000000000000000000000000000000000000000000000000000000000081565b34801561038057600080fd5b506101637f000000000000000000000000000000000000000000000000000000000000000081565b3480156103b457600080fd5b50600054610163906001600160a01b031681565b3480156103d457600080fd5b506101637f000000000000000000000000000000000000000000000000000000000000000081565b34801561040857600080fd5b50610163739c12939390052919af3155f41bf4160fd3666a6f81565b34801561043057600080fd5b5061044461043f3660046137d6565b6118bb565b6040519015158152602001610177565b34801561046057600080fd5b506101637f000000000000000000000000000000000000000000000000000000000000000081565b60008060006104978686610558565b6040516001600160601b0319606084811b8216602084015283901b16603482015286151560f81b604882015291935091507f000000000000000000000000000000000000000000000000000000000000000090604901604051602081830303815290604052805190602001207f0000000000000000000000000000000000000000000000000000000000000000604051602001610536939291906137f3565b60408051601f1981840301815291905280516020909101209695505050505050565b600080826001600160a01b0316846001600160a01b0316036105c15760405162461bcd60e51b815260206004820152601b60248201527f526f757465723a204944454e544943414c5f414444524553534553000000000060448201526064015b60405180910390fd5b826001600160a01b0316846001600160a01b0316106105e15782846105e4565b83835b90925090506001600160a01b0382166106365760405162461bcd60e51b8152602060048201526014602482015273526f757465723a205a45524f5f4144445245535360601b60448201526064016105b8565b9250929050565b600080600061064e85856001610488565b60405163e5e31b1360e01b81526001600160a01b03828116600483015291925060009182917f00000000000000000000000000000000000000000000000000000000000000009091169063e5e31b1390602401602060405180830381865afa1580156106be573d6000803e3d6000fd5b505050506040513d601f19601f820116820180604052508101906106e29190613826565b1561075b576040516378a051ad60e11b8152600481018990526001600160a01b03888116602483015284169063f140a35a90604401602060405180830381865afa158015610734573d6000803e3d6000fd5b505050506040513d601f19601f820116820180604052508101906107589190613843565b91505b61076787876000610488565b60405163e5e31b1360e01b81526001600160a01b0380831660048301529194507f00000000000000000000000000000000000000000000000000000000000000009091169063e5e31b1390602401602060405180830381865afa1580156107d2573d6000803e3d6000fd5b505050506040513d601f19601f820116820180604052508101906107f69190613826565b1561086f576040516378a051ad60e11b8152600481018990526001600160a01b03888116602483015284169063f140a35a90604401602060405180830381865afa158015610848573d6000803e3d6000fd5b505050506040513d601f19601f8201168201806040525081019061086c9190613843565b90505b80821161087e57806000610882565b8160015b94509450505050935093915050565b60005b838110156114395760008585838181106108b0576108b061385c565b90506020020160208101906108c59190613881565b905060001960ff8216016109bd576000808585858181106108e8576108e861385c565b90506020028101906108fa919061389e565b8101906109079190613953565b9150915060005b82518110156109b557600082828151811061092b5761092b61385c565b6020026020010151116109515760405163fe4155c760e01b815260040160405180910390fd5b6109a333308484815181106109685761096861385c565b60200260200101518685815181106109825761098261385c565b60200260200101516001600160a01b0316611950909392919063ffffffff16565b806109ad81613a23565b91505061090e565b505050611426565b60011960ff821601610a995760008484848181106109dd576109dd61385c565b90506020028101906109ef919061389e565b8101906109fc9190613a3c565b905060008111610a1f5760405163fe4155c760e01b815260040160405180910390fd5b7f00000000000000000000000000000000000000000000000000000000000000006001600160a01b031663d0e30db0826040518263ffffffff1660e01b81526004016000604051808303818588803b158015610a7a57600080fd5b505af1158015610a8e573d6000803e3d6000fd5b505050505050611426565b60021960ff821601610b22576000848484818110610ab957610ab961385c565b9050602002810190610acb919061389e565b810190610ad89190613a68565b905060005b8151811015610b1b57610b08828581518110610afb57610afb61385c565b60200260200101516119c1565b5080610b1381613a23565b915050610add565b5050611426565b60031960ff821601610ba4576000848484818110610b4257610b4261385c565b9050602002810190610b54919061389e565b810190610b619190613b40565b905060005b8151811015610b1b57610b91828281518110610b8457610b8461385c565b6020026020010151611b8a565b5080610b9c81613a23565b915050610b66565b60041960ff821601610c26576000848484818110610bc457610bc461385c565b9050602002810190610bd6919061389e565b810190610be39190613c4e565b905060005b8151811015610b1b57610c13828281518110610c0657610c0661385c565b6020026020010151611ce0565b5080610c1e81613a23565b915050610be8565b60051960ff821601610de9576000848484818110610c4657610c4661385c565b9050602002810190610c58919061389e565b810190610c659190613d5b565b905060005b8151811015610b1b57610ce66000838381518110610c8a57610c8a61385c565b602002602001015160000151848481518110610ca857610ca861385c565b602002602001015160400151600081518110610cc657610cc661385c565b60200260200101516001600160a01b0316611ec09092919063ffffffff16565b60006001600160a01b03166338ed1739838381518110610d0857610d0861385c565b602002602001015160000151848481518110610d2657610d2661385c565b602002602001015160200151858581518110610d4457610d4461385c565b60200260200101516040015130878781518110610d6357610d6361385c565b6020026020010151606001516040518663ffffffff1660e01b8152600401610d8f959493929190613e55565b6000604051808303816000875af1158015610dae573d6000803e3d6000fd5b505050506040513d6000823e601f3d908101601f19168201604052610dd69190810190613ec6565b5080610de181613a23565b915050610c6a565b60061960ff821601610f76576000848484818110610e0957610e0961385c565b9050602002810190610e1b919061389e565b810190610e289190613d5b565b905060005b8151811015610b1b57610e607310ed43c718714eb63d5aa57b78b54704e256024e838381518110610c8a57610c8a61385c565b7310ed43c718714eb63d5aa57b78b54704e256024e6001600160a01b03166338ed1739838381518110610e9557610e9561385c565b602002602001015160000151848481518110610eb357610eb361385c565b602002602001015160200151858581518110610ed157610ed161385c565b60200260200101516040015130878781518110610ef057610ef061385c565b6020026020010151606001516040518663ffffffff1660e01b8152600401610f1c959493929190613e55565b6000604051808303816000875af1158015610f3b573d6000803e3d6000fd5b505050506040513d6000823e601f3d908101601f19168201604052610f639190810190613ec6565b5080610f6e81613a23565b915050610e2d565b60071960ff8216016110dd576000848484818110610f9657610f9661385c565b9050602002810190610fa8919061389e565b810190610fb59190613d5b565b905060005b8151811015610b1b57610fda6000838381518110610c8a57610c8a61385c565b60006001600160a01b03166338ed1739838381518110610ffc57610ffc61385c565b60200260200101516000015184848151811061101a5761101a61385c565b6020026020010151602001518585815181106110385761103861385c565b602002602001015160400151308787815181106110575761105761385c565b6020026020010151606001516040518663ffffffff1660e01b8152600401611083959493929190613e55565b6000604051808303816000875af11580156110a2573d6000803e3d6000fd5b505050506040513d6000823e601f3d908101601f191682016040526110ca9190810190613ec6565b50806110d581613a23565b915050610fba565b60081960ff8216016111e95760008484848181106110fd576110fd61385c565b905060200281019061110f919061389e565b81019061111c9190613f4b565b905060005b8151811015610b1b576111b4739c12939390052919af3155f41bf4160fd3666a6f8383815181106111545761115461385c565b6020026020010151600001518484815181106111725761117261385c565b6020026020010151604001516000815181106111905761119061385c565b6020026020010151600001516001600160a01b0316611ec09092919063ffffffff16565b6111d68282815181106111c9576111c961385c565b6020026020010151611f72565b50806111e181613a23565b915050611121565b60091960ff8216016113cf5760008484848181106112095761120961385c565b905060200281019061121b919061389e565b8101906112289190614045565b905060005b8151811015610b1b57600082828151811061124a5761124a61385c565b6020026020010151600001519050600083838151811061126c5761126c61385c565b6020026020010151604001519050806000036112ef576040516370a0823160e01b81523060048201526001600160a01b038316906370a0823190602401602060405180830381865afa1580156112c6573d6000803e3d6000fd5b505050506040513d601f19601f820116820180604052508101906112ea9190613843565b6112f1565b805b905060008484815181106113075761130761385c565b602002602001015160200151905060006113208361210a565b905061132c8184614108565b92506113626001600160a01b0385167f00000000000000000000000000000000000000000000000000000000000000008361212f565b6113766001600160a01b038516838561212f565b604080516001600160a01b0386168152602081018390527f075a2720282fdf622141dae0b048ef90a21a7e57c134c76912d19d006b3b3f6f910160405180910390a15050505080806113c790613a23565b91505061122d565b600a1960ff8216016114265760008060008686868181106113f2576113f261385c565b9050602002810190611404919061389e565b8101906114119190614202565b925092509250611422838383612164565b5050505b508061143181613a23565b915050610894565b5050505050565b606060018251101561148b5760405162461bcd60e51b81526020600482015260146024820152730a4deeae8cae47440929cac82989288bea082a8960631b60448201526064016105b8565b815161149890600161430f565b6001600160401b038111156114af576114af61347c565b6040519080825280602002602001820160405280156114d8578160200160208202803683370190505b50905082816000815181106114ef576114ef61385c565b60200260200101818152505060005b82518110156116f257600061156b84838151811061151e5761151e61385c565b60200260200101516000015185848151811061153c5761153c61385c565b60200260200101516020015186858151811061155a5761155a61385c565b602002602001015160400151610488565b60405163e5e31b1360e01b81526001600160a01b0380831660048301529192507f00000000000000000000000000000000000000000000000000000000000000009091169063e5e31b1390602401602060405180830381865afa1580156115d6573d6000803e3d6000fd5b505050506040513d601f19601f820116820180604052508101906115fa9190613826565b156116df57806001600160a01b031663f140a35a8484815181106116205761162061385c565b602002602001015186858151811061163a5761163a61385c565b6020026020010151600001516040518363ffffffff1660e01b81526004016116759291909182526001600160a01b0316602082015260400190565b602060405180830381865afa158015611692573d6000803e3d6000fd5b505050506040513d601f19601f820116820180604052508101906116b69190613843565b836116c284600161430f565b815181106116d2576116d261385c565b6020026020010181815250505b50806116ea81613a23565b9150506114fe565b5092915050565b336001600160a01b037f0000000000000000000000000000000000000000000000000000000000000000161461174257604051638afe477f60e01b815260040160405180910390fd5b60008060008380602001905181019061175b91906143e2565b604051630ce6eb9960e31b8152929550909350915060009030906367375cc89061178b9086908690600401614543565b600060405180830381600087803b1580156117a557600080fd5b505af19250505080156117b6575060015b611804573d8080156117e4576040519150601f19603f3d011682016040523d82523d6000602084013e6117e9565b606091505b506117fe6001600160a01b038916868961212f565b60019150505b60004715611860576040516001600160a01b038616904790600081818185875af1925050503d8060008114611855576040519150601f19603f3d011682016040523d82523d6000602084013e61185a565b606091505b50909150505b6040805188815283151560208201528215158183015290516001600160a01b038a16917f7f345d6da48bd1339fd428ff45265a0f01258b14ca09dcf8db0c469f4f732fd3919081900360600190a25050505050505050505050565b60405163e5e31b1360e01b81526001600160a01b0382811660048301526000917f00000000000000000000000000000000000000000000000000000000000000009091169063e5e31b1390602401602060405180830381865afa158015611926573d6000803e3d6000fd5b505050506040513d601f19601f8201168201806040525081019061194a9190613826565b92915050565b6040516001600160a01b03808516602483015283166044820152606481018290526119bb9085906323b872dd60e01b906084015b60408051601f198184030181529190526020810180516001600160e01b03166001600160e01b03199093169290921790915261245a565b50505050565b60208101516040516370a0823160e01b8152306004820152600091611a5d917f0000000000000000000000000000000000000000000000000000000000000000906001600160a01b038316906370a08231906024015b602060405180830381865afa158015611a34573d6000803e3d6000fd5b505050506040513d601f19601f82011682018060405250810190611a589190613843565b61252c565b60408051610100810182526020848101516001600160a01b03908116835285840151811691830191825260608087015162ffffff908116858701908152309286019283524260808701908152895160a08801908152600060c0890181815260e08a01918252995163414bf38960e01b815289518816600482015297518716602489015292519093166044870152925184166064860152915160848501525160a4840152935160c48301529251831660e482015290917f0000000000000000000000000000000000000000000000000000000000000000169063414bf38990610104015b6020604051808303816000875af1158015611b5f573d6000803e3d6000fd5b505050506040513d601f19601f82011682018060405250810190611b839190613843565b9392505050565b60408181015190516370a0823160e01b8152306004820152600091611be4917f0000000000000000000000000000000000000000000000000000000000000000906001600160a01b038316906370a0823190602401611a17565b6040805160a08082018352918401519184015160608086015160c08088015160808901516001600160601b031997851b8816928701929092526001600160e81b031960e895861b811660d488015292841b871660d787015290931b1660eb8401521b90911660ee8201526000908061010281016040516020818303038152906040528152602001306001600160a01b0316815260200142815260200184600001518152602001846020015181525090507f00000000000000000000000000000000000000000000000000000000000000006001600160a01b031663c04b8d59826040518263ffffffff1660e01b8152600401611b409190614571565b60008054825160408401516001548493611d07936001600160a01b03909116929091612625565b90508060018251611d189190614108565b81518110611d2857611d2861385c565b602002602001015191508260200151821015611d865760405162461bcd60e51b815260206004820152601760248201527f696e73756666696369656e742d616d6f756e742d6f757400000000000000000060448201526064016105b8565b826060015115611eab576000805460408501518051611eab93611de9936001600160a01b03169291611dba57611dba61385c565b60200260200101518660400151600181518110611dd957611dd961385c565b60200260200101516001546127b1565b8460400151600081518110611e0057611e0061385c565b60209081029190910101516040516370a0823160e01b81523060048201526001600160a01b03909116906370a0823190602401602060405180830381865afa158015611e50573d6000803e3d6000fd5b505050506040513d601f19601f82011682018060405250810190611e749190613843565b8560400151600081518110611e8b57611e8b61385c565b60200260200101516001600160a01b031661212f9092919063ffffffff16565b611eba81846040015130612837565b50919050565b604051636eb1769f60e11b81523060048201526001600160a01b038381166024830152600091839186169063dd62ed3e90604401602060405180830381865afa158015611f11573d6000803e3d6000fd5b505050506040513d601f19601f82011682018060405250810190611f359190613843565b611f3f919061430f565b6040516001600160a01b0385166024820152604481018290529091506119bb90859063095ea7b360e01b90606401611984565b6060816060015142811015611fbb5760405162461bcd60e51b815260206004820152600f60248201526e149bdd5d195c8e8811561412549151608a1b60448201526064016105b8565b611fcd83600001518460400151611440565b915082602001518260018451611fe39190614108565b81518110611ff357611ff361385c565b602002602001015110156120545760405162461bcd60e51b815260206004820152602260248201527f526f757465723a20494e53554646494349454e545f4f55545055545f414d4f55604482015261139560f21b60648201526084016105b8565b6120fb836040015160008151811061206e5761206e61385c565b602002602001015160000151306120db86604001516000815181106120955761209561385c565b60200260200101516000015187604001516000815181106120b8576120b861385c565b602002602001015160200151886040015160008151811061155a5761155a61385c565b856000815181106120ee576120ee61385c565b6020026020010151612a0e565b611eba82846040015130612b06565b600061271061211b8361270b6145c9565b61212591906145e8565b61194a9083614108565b6040516001600160a01b03831660248201526044810182905261215f90849063a9059cbb60e01b90606401611984565b505050565b600034116121855760405163c9935ff960e01b815260040160405180910390fd5b600083610100015183836040516020016121a19392919061460a565b604051602081830303815290604052905083608001516000036122315760208401516040516370a0823160e01b81523060048201526001600160a01b03909116906370a0823190602401602060405180830381865afa158015612208573d6000803e3d6000fd5b505050506040513d601f19601f8201168201806040525081019061222c9190613843565b612237565b83608001515b60808501819052602085015161227a916001600160a01b03909116907f000000000000000000000000000000000000000000000000000000000000000090611ec0565b6000612289856080015161210a565b9050808560800181815161229d9190614108565b90525060208501516122d9906001600160a01b03167f00000000000000000000000000000000000000000000000000000000000000008361212f565b7f00000000000000000000000000000000000000000000000000000000000000006001600160a01b0316639fbf10fc47876000015188604001518960600151308b608001518c60a0015160405180606001604052808f610120015181526020018f60c0015181526020018f60e0015160405160200161236b919060609190911b6001600160601b031916815260140190565b6040516020818303038152906040528152508e60e001516040516020016123a5919060609190911b6001600160601b031916815260140190565b6040516020818303038152906040528c6040518b63ffffffff1660e01b81526004016123d99998979695949392919061464a565b6000604051808303818588803b1580156123f257600080fd5b505af1158015612406573d6000803e3d6000fd5b50505050602086810151604080516001600160a01b0390921682529181018490527f075a2720282fdf622141dae0b048ef90a21a7e57c134c76912d19d006b3b3f6f92500160405180910390a15050505050565b60006124af826040518060400160405280602081526020017f5361666545524332303a206c6f772d6c6576656c2063616c6c206661696c6564815250856001600160a01b0316612d559092919063ffffffff16565b80519091501561215f57808060200190518101906124cd9190613826565b61215f5760405162461bcd60e51b815260206004820152602a60248201527f5361666545524332303a204552433230206f7065726174696f6e20646964206e6044820152691bdd081cdd58d8d9595960b21b60648201526084016105b8565b604080516001600160a01b038481166024830152604480830185905283518084039091018152606490920183526020820180516001600160e01b031663095ea7b360e01b179052915160009283929087169161258891906146e8565b6000604051808303816000865af19150503d80600081146125c5576040519150601f19603f3d011682016040523d82523d6000602084013e6125ca565b606091505b50915091508180156125f45750805115806125f45750808060200190518101906125f49190613826565b6114395760405162461bcd60e51b8152602060048201526002602482015261534160f01b60448201526064016105b8565b60606002835110156126795760405162461bcd60e51b815260206004820152601e60248201527f556e697377617056324c6962726172793a20494e56414c49445f50415448000060448201526064016105b8565b82516001600160401b038111156126925761269261347c565b6040519080825280602002602001820160405280156126bb578160200160208202803683370190505b50905083816000815181106126d2576126d261385c565b60200260200101818152505060005b600184516126ef9190614108565b8110156127a8576000806127438887858151811061270f5761270f61385c565b602002602001015188866001612725919061430f565b815181106127355761273561385c565b602002602001015188612d6c565b9150915061276b84848151811061275c5761275c61385c565b60200260200101518383612e38565b8461277785600161430f565b815181106127875761278761385c565b602002602001018181525050505080806127a090613a23565b9150506126e1565b50949350505050565b60008060006127c08686612f57565b6040516001600160601b0319606084811b8216602084015283901b166034820152919350915087906048016040516020818303038152906040528051906020012085604051602001612814939291906137f3565b60408051601f198184030181529190528051602090910120979650505050505050565b60005b600183516128489190614108565b8110156119bb576000808483815181106128645761286461385c565b60200260200101518584600161287a919061430f565b8151811061288a5761288a61385c565b60200260200101519150915060006128a28383612f57565b5090506000876128b386600161430f565b815181106128c3576128c361385c565b60200260200101519050600080836001600160a01b0316866001600160a01b0316146128f1578260006128f5565b6000835b91509150600060028a516129099190614108565b88106129155788612942565b600054612942906001600160a01b0316878c6129328c600261430f565b81518110611dd957611dd961385c565b905061296560008054906101000a90046001600160a01b031688886001546127b1565b6001600160a01b031663022c0d9f84848460006040519080825280601f01601f1916602001820160405280156129a2576020820181803683370190505b506040518563ffffffff1660e01b81526004016129c29493929190614704565b600060405180830381600087803b1580156129dc57600080fd5b505af11580156129f0573d6000803e3d6000fd5b50505050505050505050508080612a0690613a23565b91505061283a565b6000846001600160a01b03163b11612a2557600080fd5b604080516001600160a01b0385811660248301528481166044830152606480830185905283518084039091018152608490920183526020820180516001600160e01b03166323b872dd60e01b1790529151600092839290881691612a8991906146e8565b6000604051808303816000865af19150503d8060008114612ac6576040519150601f19603f3d011682016040523d82523d6000602084013e612acb565b606091505b5091509150818015612af5575080511580612af5575080806020019051810190612af59190613826565b612afe57600080fd5b505050505050565b60005b82518110156119bb576000612b58848381518110612b2957612b2961385c565b602002602001015160000151858481518110612b4757612b4761385c565b602002602001015160200151610558565b509050600085612b6984600161430f565b81518110612b7957612b7961385c565b60200260200101519050600080836001600160a01b0316878681518110612ba257612ba261385c565b6020026020010151600001516001600160a01b031614612bc457826000612bc8565b6000835b91509150600060018851612bdc9190614108565b8610612be85786612c5b565b612c5b88612bf788600161430f565b81518110612c0757612c0761385c565b60200260200101516000015189886001612c21919061430f565b81518110612c3157612c3161385c565b6020026020010151602001518a896001612c4b919061430f565b8151811061155a5761155a61385c565b9050612cae888781518110612c7257612c7261385c565b602002602001015160000151898881518110612c9057612c9061385c565b6020026020010151602001518a898151811061155a5761155a61385c565b6001600160a01b031663022c0d9f84848460006040519080825280601f01601f191660200182016040528015612ceb576020820181803683370190505b506040518563ffffffff1660e01b8152600401612d0b9493929190614704565b600060405180830381600087803b158015612d2557600080fd5b505af1158015612d39573d6000803e3d6000fd5b5050505050505050508080612d4d90613a23565b915050612b09565b6060612d648484600085613047565b949350505050565b6000806000612d7b8686612f57565b509050600080612d8d898989896127b1565b6001600160a01b0316630902f1ac6040518163ffffffff1660e01b8152600401606060405180830381865afa158015612dca573d6000803e3d6000fd5b505050506040513d601f19601f82011682018060405250810190612dee9190614748565b506001600160701b031691506001600160701b03169150826001600160a01b0316886001600160a01b031614612e25578082612e28565b81815b909a909950975050505050505050565b6000808411612e9d5760405162461bcd60e51b815260206004820152602b60248201527f556e697377617056324c6962726172793a20494e53554646494349454e545f4960448201526a1394155517d05353d5539560aa1b60648201526084016105b8565b600083118015612ead5750600082115b612f0a5760405162461bcd60e51b815260206004820152602860248201527f556e697377617056324c6962726172793a20494e53554646494349454e545f4c604482015267495155494449545960c01b60648201526084016105b8565b6000612f18856103e5613117565b90506000612f268285613117565b90506000612f4083612f3a886103e8613117565b9061317e565b9050612f4c81836145e8565b979650505050505050565b600080826001600160a01b0316846001600160a01b031603612fc95760405162461bcd60e51b815260206004820152602560248201527f556e697377617056324c6962726172793a204944454e544943414c5f41444452604482015264455353455360d81b60648201526084016105b8565b826001600160a01b0316846001600160a01b031610612fe9578284612fec565b83835b90925090506001600160a01b0382166106365760405162461bcd60e51b815260206004820152601e60248201527f556e697377617056324c6962726172793a205a45524f5f41444452455353000060448201526064016105b8565b6060824710156130a85760405162461bcd60e51b815260206004820152602660248201527f416464726573733a20696e73756666696369656e742062616c616e636520666f6044820152651c8818d85b1b60d21b60648201526084016105b8565b600080866001600160a01b031685876040516130c491906146e8565b60006040518083038185875af1925050503d8060008114613101576040519150601f19603f3d011682016040523d82523d6000602084013e613106565b606091505b5091509150612f4c878383876131d3565b600081158061313b5750828261312d81836145c9565b925061313990836145e8565b145b61194a5760405162461bcd60e51b815260206004820152601460248201527364732d6d6174682d6d756c2d6f766572666c6f7760601b60448201526064016105b8565b60008261318b838261430f565b915081101561194a5760405162461bcd60e51b815260206004820152601460248201527364732d6d6174682d6164642d6f766572666c6f7760601b60448201526064016105b8565b6060831561324257825160000361323b576001600160a01b0385163b61323b5760405162461bcd60e51b815260206004820152601d60248201527f416464726573733a2063616c6c20746f206e6f6e2d636f6e747261637400000060448201526064016105b8565b5081612d64565b612d6483838151156132575781518083602001fd5b8060405162461bcd60e51b81526004016105b89190613383565b6001600160a01b038116811461328657600080fd5b50565b803561329481613271565b919050565b801515811461328657600080fd5b6000806000606084860312156132bc57600080fd5b83356132c781613271565b925060208401356132d781613271565b915060408401356132e781613299565b809150509250925092565b6000806040838503121561330557600080fd5b823561331081613271565b9150602083013561332081613271565b809150509250929050565b60005b8381101561334657818101518382015260200161332e565b838111156119bb5750506000910152565b6000815180845261336f81602086016020860161332b565b601f01601f19169290920160200192915050565b602081526000611b836020830184613357565b6000806000606084860312156133ab57600080fd5b8335925060208401356133bd81613271565b915060408401356132e781613271565b60008083601f8401126133df57600080fd5b5081356001600160401b038111156133f657600080fd5b6020830191508360208260051b850101111561063657600080fd5b6000806000806040858703121561342757600080fd5b84356001600160401b038082111561343e57600080fd5b61344a888389016133cd565b9096509450602087013591508082111561346357600080fd5b50613470878288016133cd565b95989497509550505050565b634e487b7160e01b600052604160045260246000fd5b604051606081016001600160401b03811182821017156134b4576134b461347c565b60405290565b604051608081016001600160401b03811182821017156134b4576134b461347c565b60405160e081016001600160401b03811182821017156134b4576134b461347c565b60405161016081016001600160401b03811182821017156134b4576134b461347c565b604051601f8201601f191681016001600160401b03811182821017156135495761354961347c565b604052919050565b60006001600160401b0382111561356a5761356a61347c565b5060051b60200190565b600082601f83011261358557600080fd5b8135602061359a61359583613551565b613521565b828152606092830285018201928282019190878511156135b957600080fd5b8387015b8581101561361b5781818a0312156135d55760008081fd5b6135dd613492565b81356135e881613271565b8152818601356135f781613271565b8187015260408281013561360a81613299565b9082015284529284019281016135bd565b5090979650505050505050565b6000806040838503121561363b57600080fd5b8235915060208301356001600160401b0381111561365857600080fd5b61366485828601613574565b9150509250929050565b6020808252825182820181905260009190848201906040850190845b818110156136a65783518352928401929184019160010161368a565b50909695505050505050565b803561ffff8116811461329457600080fd5b60006001600160401b038211156136dd576136dd61347c565b50601f01601f191660200190565b600082601f8301126136fc57600080fd5b813561370a613595826136c4565b81815284602083860101111561371f57600080fd5b816020850160208301376000918101602001919091529392505050565b60008060008060008060c0878903121561375557600080fd5b61375e876136b2565b955060208701356001600160401b038082111561377a57600080fd5b6137868a838b016136eb565b9650604089013595506060890135915061379f82613271565b9093506080880135925060a088013590808211156137bc57600080fd5b506137c989828a016136eb565b9150509295509295509295565b6000602082840312156137e857600080fd5b8135611b8381613271565b6001600160f81b0319815260609390931b6001600160601b03191660018401526015830191909152603582015260550190565b60006020828403121561383857600080fd5b8151611b8381613299565b60006020828403121561385557600080fd5b5051919050565b634e487b7160e01b600052603260045260246000fd5b60ff8116811461328657600080fd5b60006020828403121561389357600080fd5b8135611b8381613872565b6000808335601e198436030181126138b557600080fd5b8301803591506001600160401b038211156138cf57600080fd5b60200191503681900382131561063657600080fd5b600082601f8301126138f557600080fd5b8135602061390561359583613551565b82815260059290921b8401810191818101908684111561392457600080fd5b8286015b8481101561394857803561393b81613271565b8352918301918301613928565b509695505050505050565b6000806040838503121561396657600080fd5b82356001600160401b038082111561397d57600080fd5b613989868387016138e4565b93506020915081850135818111156139a057600080fd5b85019050601f810186136139b357600080fd5b80356139c161359582613551565b81815260059190911b820183019083810190888311156139e057600080fd5b928401925b828410156139fe578335825292840192908401906139e5565b80955050505050509250929050565b634e487b7160e01b600052601160045260246000fd5b600060018201613a3557613a35613a0d565b5060010190565b600060208284031215613a4e57600080fd5b5035919050565b803562ffffff8116811461329457600080fd5b60006020808385031215613a7b57600080fd5b82356001600160401b03811115613a9157600080fd5b8301601f81018513613aa257600080fd5b8035613ab061359582613551565b81815260079190911b82018301908381019087831115613acf57600080fd5b928401925b82841015612f4c5760808489031215613aed5760008081fd5b613af56134ba565b8435815285850135613b0681613271565b81870152604085810135613b1981613271565b908201526060613b2a868201613a55565b9082015282526080939093019290840190613ad4565b60006020808385031215613b5357600080fd5b82356001600160401b03811115613b6957600080fd5b8301601f81018513613b7a57600080fd5b8035613b8861359582613551565b81815260e09182028301840191848201919088841115613ba757600080fd5b938501935b83851015613c425780858a031215613bc45760008081fd5b613bcc6134dc565b853581528686013587820152604080870135613be781613271565b90820152606086810135613bfa81613271565b90820152608086810135613c0d81613271565b9082015260a0613c1e878201613a55565b9082015260c0613c2f878201613a55565b9082015283529384019391850191613bac565b50979650505050505050565b60006020808385031215613c6157600080fd5b82356001600160401b0380821115613c7857600080fd5b818501915085601f830112613c8c57600080fd5b8135613c9a61359582613551565b81815260059190911b83018401908481019088831115613cb957600080fd5b8585015b83811015613d4e57803585811115613cd457600080fd5b86016080818c03601f19011215613ceb5760008081fd5b613cf36134ba565b8882013581526040808301358a83015260608084013589811115613d175760008081fd5b613d258f8d838801016138e4565b838501525060808401359350613d3a84613299565b820192909252845250918601918601613cbd565b5098975050505050505050565b60006020808385031215613d6e57600080fd5b82356001600160401b0380821115613d8557600080fd5b818501915085601f830112613d9957600080fd5b8135613da761359582613551565b81815260059190911b83018401908481019088831115613dc657600080fd5b8585015b83811015613d4e57803585811115613de157600080fd5b86016080818c03601f19011215613df85760008081fd5b613e006134ba565b8882013581526040808301358a83015260608084013589811115613e245760008081fd5b613e328f8d838801016138e4565b928401929092526080939093013592820192909252845250918601918601613dca565b600060a082018783526020878185015260a0604085015281875180845260c086019150828901935060005b81811015613ea55784516001600160a01b031683529383019391830191600101613e80565b50506001600160a01b03969096166060850152505050608001529392505050565b60006020808385031215613ed957600080fd5b82516001600160401b03811115613eef57600080fd5b8301601f81018513613f0057600080fd5b8051613f0e61359582613551565b81815260059190911b82018301908381019087831115613f2d57600080fd5b928401925b82841015612f4c57835182529284019290840190613f32565b60006020808385031215613f5e57600080fd5b82356001600160401b0380821115613f7557600080fd5b818501915085601f830112613f8957600080fd5b8135613f9761359582613551565b81815260059190911b83018401908481019088831115613fb657600080fd5b8585015b83811015613d4e57803585811115613fd157600080fd5b86016080818c03601f19011215613fe85760008081fd5b613ff06134ba565b8882013581526040808301358a830152606080840135898111156140145760008081fd5b6140228f8d83880101613574565b928401929092526080939093013592820192909252845250918601918601613fba565b6000602080838503121561405857600080fd5b82356001600160401b0381111561406e57600080fd5b8301601f8101851361407f57600080fd5b803561408d61359582613551565b818152606091820283018401918482019190888411156140ac57600080fd5b938501935b83851015613c425780858a0312156140c95760008081fd5b6140d1613492565b85356140dc81613271565b8152858701356140eb81613271565b8188015260408681013590820152835293840193918501916140b1565b60008282101561411a5761411a613a0d565b500390565b600082601f83011261413057600080fd5b8135602061414061359583613551565b82815260059290921b8401810191818101908684111561415f57600080fd5b8286015b8481101561394857803561417681613872565b8352918301918301614163565b600082601f83011261419457600080fd5b813560206141a461359583613551565b82815260059290921b840181019181810190868411156141c357600080fd5b8286015b848110156139485780356001600160401b038111156141e65760008081fd5b6141f48986838b01016136eb565b8452509183019183016141c7565b60008060008385036101a081121561421957600080fd5b6101608082121561422957600080fd5b6142316134fe565b915061423c866136b2565b825261424a60208701613289565b602083015260408601356040830152606086013560608301526080860135608083015260a086013560a083015260c086013560c083015261428d60e08701613289565b60e08301526101006142a0818801613289565b90830152610120868101359083015261014080870135908301529093508401356001600160401b03808211156142d557600080fd5b6142e18783880161411f565b93506101808601359150808211156142f857600080fd5b5061430586828701614183565b9150509250925092565b6000821982111561432257614322613a0d565b500190565b600082601f83011261433857600080fd5b8151602061434861359583613551565b82815260059290921b8401810191818101908684111561436757600080fd5b8286015b848110156139485780516001600160401b0381111561438a5760008081fd5b8701603f8101891361439c5760008081fd5b8481015160406143ae613595836136c4565b8281528b828486010111156143c35760008081fd5b6143d28389830184870161332b565b865250505091830191830161436b565b6000806000606084860312156143f757600080fd5b835161440281613271565b809350506020808501516001600160401b038082111561442157600080fd5b818701915087601f83011261443557600080fd5b815161444361359582613551565b81815260059190911b8301840190848101908a83111561446257600080fd5b938501935b8285101561448957845161447a81613872565b82529385019390850190614467565b60408a015190975094505050808311156144a257600080fd5b505061430586828701614327565b600081518084526020808501945080840160005b838110156144e357815160ff16875295820195908201906001016144c4565b509495945050505050565b600081518084526020808501808196508360051b8101915082860160005b85811015614536578284038952614524848351613357565b9885019893509084019060010161450c565b5091979650505050505050565b60408152600061455660408301856144b0565b828103602084015261456881856144ee565b95945050505050565b602081526000825160a0602084015261458d60c0840182613357565b905060018060a01b0360208501511660408401526040840151606084015260608401516080840152608084015160a08401528091505092915050565b60008160001904831182151516156145e3576145e3613a0d565b500290565b60008261460557634e487b7160e01b600052601260045260246000fd5b500490565b6001600160a01b038416815260606020820181905260009061462e908301856144b0565b828103604084015261464081856144ee565b9695505050505050565b600061012061ffff8c1683528a602084015289604084015260018060a01b03891660608401528760808401528660a08401528060c0840152855181840152506020850151610140830152604085015160606101608401526146af610180840182613357565b905082810360e08401526146c38186613357565b90508281036101008401526146d88185613357565b9c9b505050505050505050505050565b600082516146fa81846020870161332b565b9190910192915050565b84815283602082015260018060a01b03831660408201526080606082015260006146406080830184613357565b80516001600160701b038116811461329457600080fd5b60008060006060848603121561475d57600080fd5b61476684614731565b925061477460208501614731565b9150604084015163ffffffff811681146132e757600080fdfea2646970667358221220c656488e74f4c799822c72085fae7604a7e711794e5d954cd77122ea77e421a264736f6c634300080f0033",
    "linkReferences": {}
  },
  "methodIdentifiers": {
    "factory()": "c45a0155",
    "feeCollector()": "c415b95c",
    "getAmountOut(uint256,address,address)": "5e1e6325",
    "getAmountsOut(uint256,(address,address,bool)[])": "9881fcb4",
    "isPair(address)": "e5e31b13",
    "joeRouter()": "59f571e8",
    "pairCodeHash()": "9aab9248",
    "pairFor(address,address,bool)": "4c1ee03e",
    "pancakeRouter()": "c21ebd07",
    "sgReceive(uint16,bytes,uint256,address,uint256,bytes)": "ab8236f3",
    "sortTokens(address,address)": "544caa56",
    "spookyRouter()": "8ed8ea7e",
    "stargateRouter()": "a9e56f3c",
    "swapRouter()": "c31c9c07",
    "swaps(uint8[],bytes[])": "67375cc8",
    "veloFactory()": "c7f5fd10",
    "veloRouter()": "d5ef98ea",
    "veloWETH()": "fdc09e07",
    "version()": "54fd4d50",
    "weth()": "3fc8cef3"
  },
  "id": 31
}