{
  "abi": [
    {
      "inputs": [
        {
          "internalType": "address",
          "name": "_weth",
          "type": "address"
        },
        {
          "internalType": "contract ISwapRouter",
          "name": "_swapRouter",
          "type": "address"
        },
        {
          "internalType": "address",
          "name": "_sushiFactory",
          "type": "address"
        },
        {
          "internalType": "bytes32",
          "name": "_sushiPairCodeHash",
          "type": "bytes32"
        },
        {
          "internalType": "address",
          "name": "_veloFactory",
          "type": "address"
        },
        {
          "internalType": "address",
          "name": "_veloWeth",
          "type": "address"
        },
        {
          "internalType": "contract IStargateRouter",
          "name": "_stargateRouter",
          "type": "address"
        }
      ],
      "stateMutability": "nonpayable",
      "type": "constructor"
    },
    {
      "inputs": [],
      "name": "MustBeGt0",
      "type": "error"
    },
    {
      "inputs": [],
      "name": "NotEnoughSteps",
      "type": "error"
    },
    {
      "inputs": [],
      "name": "NotStgRouter",
      "type": "error"
    },
    {
      "anonymous": false,
      "inputs": [
        {
          "indexed": false,
          "internalType": "address",
          "name": "_token",
          "type": "address"
        },
        {
          "indexed": false,
          "internalType": "uint256",
          "name": "_fee",
          "type": "uint256"
        }
      ],
      "name": "FeePaid",
      "type": "event"
    },
    {
      "anonymous": false,
      "inputs": [
        {
          "indexed": true,
          "internalType": "address",
          "name": "token",
          "type": "address"
        },
        {
          "indexed": false,
          "internalType": "uint256",
          "name": "amountLD",
          "type": "uint256"
        },
        {
          "indexed": false,
          "internalType": "bool",
          "name": "failed",
          "type": "bool"
        }
      ],
      "name": "ReceivedOnDestination",
      "type": "event"
    },
    {
      "inputs": [],
      "name": "factory",
      "outputs": [
        {
          "internalType": "address",
          "name": "",
          "type": "address"
        }
      ],
      "stateMutability": "view",
      "type": "function"
    },
    {
      "inputs": [],
      "name": "feeCollector",
      "outputs": [
        {
          "internalType": "address",
          "name": "",
          "type": "address"
        }
      ],
      "stateMutability": "view",
      "type": "function"
    },
    {
      "inputs": [
        {
          "internalType": "uint256",
          "name": "amountIn",
          "type": "uint256"
        },
        {
          "internalType": "address",
          "name": "tokenIn",
          "type": "address"
        },
        {
          "internalType": "address",
          "name": "tokenOut",
          "type": "address"
        }
      ],
      "name": "getAmountOut",
      "outputs": [
        {
          "internalType": "uint256",
          "name": "amount",
          "type": "uint256"
        },
        {
          "internalType": "bool",
          "name": "stable",
          "type": "bool"
        }
      ],
      "stateMutability": "view",
      "type": "function"
    },
    {
      "inputs": [
        {
          "internalType": "uint256",
          "name": "amountIn",
          "type": "uint256"
        },
        {
          "components": [
            {
              "internalType": "address",
              "name": "from",
              "type": "address"
            },
            {
              "internalType": "address",
              "name": "to",
              "type": "address"
            },
            {
              "internalType": "bool",
              "name": "stable",
              "type": "bool"
            }
          ],
          "internalType": "struct VelodromeAdapter.route[]",
          "name": "routes",
          "type": "tuple[]"
        }
      ],
      "name": "getAmountsOut",
      "outputs": [
        {
          "internalType": "uint256[]",
          "name": "amounts",
          "type": "uint256[]"
        }
      ],
      "stateMutability": "view",
      "type": "function"
    },
    {
      "inputs": [
        {
          "internalType": "address",
          "name": "tokenA",
          "type": "address"
        },
        {
          "internalType": "address",
          "name": "tokenB",
          "type": "address"
        },
        {
          "internalType": "bool",
          "name": "stable",
          "type": "bool"
        }
      ],
      "name": "getReserves",
      "outputs": [
        {
          "internalType": "uint256",
          "name": "reserveA",
          "type": "uint256"
        },
        {
          "internalType": "uint256",
          "name": "reserveB",
          "type": "uint256"
        }
      ],
      "stateMutability": "view",
      "type": "function"
    },
    {
      "inputs": [
        {
          "internalType": "address",
          "name": "pair",
          "type": "address"
        }
      ],
      "name": "isPair",
      "outputs": [
        {
          "internalType": "bool",
          "name": "",
          "type": "bool"
        }
      ],
      "stateMutability": "view",
      "type": "function"
    },
    {
      "inputs": [],
      "name": "joeRouter",
      "outputs": [
        {
          "internalType": "contract IJoeRouter02",
          "name": "",
          "type": "address"
        }
      ],
      "stateMutability": "view",
      "type": "function"
    },
    {
      "inputs": [],
      "name": "pairCodeHash",
      "outputs": [
        {
          "internalType": "bytes32",
          "name": "",
          "type": "bytes32"
        }
      ],
      "stateMutability": "view",
      "type": "function"
    },
    {
      "inputs": [
        {
          "internalType": "address",
          "name": "tokenA",
          "type": "address"
        },
        {
          "internalType": "address",
          "name": "tokenB",
          "type": "address"
        },
        {
          "internalType": "bool",
          "name": "stable",
          "type": "bool"
        }
      ],
      "name": "pairFor",
      "outputs": [
        {
          "internalType": "address",
          "name": "pair",
          "type": "address"
        }
      ],
      "stateMutability": "view",
      "type": "function"
    },
    {
      "inputs": [],
      "name": "pancakeRouter",
      "outputs": [
        {
          "internalType": "contract IPancakeRouter02",
          "name": "",
          "type": "address"
        }
      ],
      "stateMutability": "view",
      "type": "function"
    },
    {
      "inputs": [
        {
          "internalType": "address",
          "name": "tokenA",
          "type": "address"
        },
        {
          "internalType": "address",
          "name": "tokenB",
          "type": "address"
        },
        {
          "internalType": "bool",
          "name": "stable",
          "type": "bool"
        },
        {
          "internalType": "uint256",
          "name": "amountADesired",
          "type": "uint256"
        },
        {
          "internalType": "uint256",
          "name": "amountBDesired",
          "type": "uint256"
        }
      ],
      "name": "quoteAddLiquidity",
      "outputs": [
        {
          "internalType": "uint256",
          "name": "amountA",
          "type": "uint256"
        },
        {
          "internalType": "uint256",
          "name": "amountB",
          "type": "uint256"
        },
        {
          "internalType": "uint256",
          "name": "liquidity",
          "type": "uint256"
        }
      ],
      "stateMutability": "view",
      "type": "function"
    },
    {
      "inputs": [
        {
          "internalType": "uint16",
          "name": "",
          "type": "uint16"
        },
        {
          "internalType": "bytes",
          "name": "",
          "type": "bytes"
        },
        {
          "internalType": "uint256",
          "name": "",
          "type": "uint256"
        },
        {
          "internalType": "address",
          "name": "_token",
          "type": "address"
        },
        {
          "internalType": "uint256",
          "name": "amountLD",
          "type": "uint256"
        },
        {
          "internalType": "bytes",
          "name": "_payload",
          "type": "bytes"
        }
      ],
      "name": "sgReceive",
      "outputs": [],
      "stateMutability": "nonpayable",
      "type": "function"
    },
    {
      "inputs": [
        {
          "internalType": "address",
          "name": "tokenA",
          "type": "address"
        },
        {
          "internalType": "address",
          "name": "tokenB",
          "type": "address"
        }
      ],
      "name": "sortTokens",
      "outputs": [
        {
          "internalType": "address",
          "name": "token0",
          "type": "address"
        },
        {
          "internalType": "address",
          "name": "token1",
          "type": "address"
        }
      ],
      "stateMutability": "pure",
      "type": "function"
    },
    {
      "inputs": [],
      "name": "spookyRouter",
      "outputs": [
        {
          "internalType": "contract IUniswapV2Router02",
          "name": "",
          "type": "address"
        }
      ],
      "stateMutability": "view",
      "type": "function"
    },
    {
      "inputs": [],
      "name": "stargateRouter",
      "outputs": [
        {
          "internalType": "contract IStargateRouter",
          "name": "",
          "type": "address"
        }
      ],
      "stateMutability": "view",
      "type": "function"
    },
    {
      "inputs": [],
      "name": "swapRouter",
      "outputs": [
        {
          "internalType": "contract ISwapRouter",
          "name": "",
          "type": "address"
        }
      ],
      "stateMutability": "view",
      "type": "function"
    },
    {
      "inputs": [
        {
          "internalType": "uint8[]",
          "name": "steps",
          "type": "uint8[]"
        },
        {
          "internalType": "bytes[]",
          "name": "data",
          "type": "bytes[]"
        }
      ],
      "name": "swaps",
      "outputs": [],
      "stateMutability": "payable",
      "type": "function"
    },
    {
      "inputs": [],
      "name": "veloFactory",
      "outputs": [
        {
          "internalType": "address",
          "name": "",
          "type": "address"
        }
      ],
      "stateMutability": "view",
      "type": "function"
    },
    {
      "inputs": [],
      "name": "veloRouter",
      "outputs": [
        {
          "internalType": "address",
          "name": "",
          "type": "address"
        }
      ],
      "stateMutability": "view",
      "type": "function"
    },
    {
      "inputs": [],
      "name": "veloWETH",
      "outputs": [
        {
          "internalType": "contract IWETH",
          "name": "",
          "type": "address"
        }
      ],
      "stateMutability": "view",
      "type": "function"
    },
    {
      "inputs": [],
      "name": "version",
      "outputs": [
        {
          "internalType": "string",
          "name": "_version",
          "type": "string"
        }
      ],
      "stateMutability": "pure",
      "type": "function"
    },
    {
      "inputs": [],
      "name": "weth",
      "outputs": [
        {
          "internalType": "address",
          "name": "",
          "type": "address"
        }
      ],
      "stateMutability": "view",
      "type": "function"
    },
    {
      "stateMutability": "payable",
      "type": "receive"
    }
  ],
  "bytecode": {
    "object": "0x6101606040523480156200001257600080fd5b50604051620047a5380380620047a5833981016040819052620000359162000117565b6001600160a01b03868116608052600080546001600160a01b031916878316179055600185905581811660a0523360c052831660e081905260408051631355724960e31b81529051859285929091639aab9248916004808201926020929091908290030181865afa158015620000af573d6000803e3d6000fd5b505050506040513d601f19601f82011682018060405250810190620000d59190620001b6565b610120526001600160a01b0390811661010052979097166101405250620001d095505050505050565b6001600160a01b03811681146200011457600080fd5b50565b600080600080600080600060e0888a0312156200013357600080fd5b87516200014081620000fe565b60208901519097506200015381620000fe565b60408901519096506200016681620000fe565b606089015160808a015191965094506200018081620000fe565b60a08901519093506200019381620000fe565b60c0890151909250620001a681620000fe565b8091505092959891949750929550565b600060208284031215620001c957600080fd5b5051919050565b60805160a05160c05160e05161010051610120516101405161451162000294600039600081816101570152610b670152600061058b015260006104ec01526000818161046001528181610550015281816106fb0152818161080f015281816112a70152818161144b01526117f501526000818161040c015261219301526000818161035c0152818161162a0152818161213401526121ba0152600081816103d8015281816118f701528181611a1c01528181611ab50152611b8501526145116000f3fe6080604052600436106101395760003560e01c80639aab9248116100ab578063c415b95c1161006f578063c415b95c146103fa578063c45a01551461042e578063c7f5fd101461044e578063d5ef98ea14610482578063e5e31b13146104aa578063fdc09e07146104da57600080fd5b80639aab924814610326578063a9e56f3c1461034a578063ab8236f31461037e578063c21ebd071461039e578063c31c9c07146103c657600080fd5b80635e1e6325116100fd5780635e1e63251461023f5780635e60dab51461027457806367375cc8146102a95780638ed8ea7e1461022a5780639881fcb4146102be57806398a0fb3c146102eb57600080fd5b80633fc8cef3146101455780634c1ee03e14610196578063544caa56146101b657806354fd4d50146101f657806359f571e81461022a57600080fd5b3661014057005b600080fd5b34801561015157600080fd5b506101797f000000000000000000000000000000000000000000000000000000000000000081565b6040516001600160a01b0390911681526020015b60405180910390f35b3480156101a257600080fd5b506101796101b13660046132bc565b61050e565b3480156101c257600080fd5b506101d66101d1366004613307565b6105de565b604080516001600160a01b0393841681529290911660208301520161018d565b34801561020257600080fd5b506040805180820182526005815264302e302e3360d81b6020820152905161018d9190613398565b34801561023657600080fd5b50610179600081565b34801561024b57600080fd5b5061025f61025a3660046133ab565b6106c3565b6040805192835290151560208301520161018d565b34801561028057600080fd5b5061029461028f3660046132bc565b610917565b6040805192835260208301919091520161018d565b6102bc6102b73660046135ac565b6109cf565b005b3480156102ca57600080fd5b506102de6102d936600461366d565b61115a565b60405161018d9190613751565b3480156102f757600080fd5b5061030b610306366004613795565b611413565b6040805193845260208401929092529082015260600161018d565b34801561033257600080fd5b5061033c60015481565b60405190815260200161018d565b34801561035657600080fd5b506101797f000000000000000000000000000000000000000000000000000000000000000081565b34801561038a57600080fd5b506102bc610399366004613800565b61161f565b3480156103aa57600080fd5b506101797310ed43c718714eb63d5aa57b78b54704e256024e81565b3480156103d257600080fd5b506101797f000000000000000000000000000000000000000000000000000000000000000081565b34801561040657600080fd5b506101797f000000000000000000000000000000000000000000000000000000000000000081565b34801561043a57600080fd5b50600054610179906001600160a01b031681565b34801561045a57600080fd5b506101797f000000000000000000000000000000000000000000000000000000000000000081565b34801561048e57600080fd5b50610179739c12939390052919af3155f41bf4160fd3666a6f81565b3480156104b657600080fd5b506104ca6104c536600461389c565b6117d3565b604051901515815260200161018d565b3480156104e657600080fd5b506101797f000000000000000000000000000000000000000000000000000000000000000081565b600080600061051d86866105de565b6040516001600160601b0319606084811b8216602084015283901b16603482015286151560f81b604882015291935091507f000000000000000000000000000000000000000000000000000000000000000090604901604051602081830303815290604052805190602001207f00000000000000000000000000000000000000000000000000000000000000006040516020016105bc939291906138b9565b60408051601f1981840301815291905280516020909101209695505050505050565b600080826001600160a01b0316846001600160a01b0316036106475760405162461bcd60e51b815260206004820152601b60248201527f526f757465723a204944454e544943414c5f414444524553534553000000000060448201526064015b60405180910390fd5b826001600160a01b0316846001600160a01b03161061066757828461066a565b83835b90925090506001600160a01b0382166106bc5760405162461bcd60e51b8152602060048201526014602482015273526f757465723a205a45524f5f4144445245535360601b604482015260640161063e565b9250929050565b60008060006106d48585600161050e565b60405163e5e31b1360e01b81526001600160a01b03828116600483015291925060009182917f00000000000000000000000000000000000000000000000000000000000000009091169063e5e31b1390602401602060405180830381865afa158015610744573d6000803e3d6000fd5b505050506040513d601f19601f8201168201806040525081019061076891906138ec565b156107e1576040516378a051ad60e11b8152600481018990526001600160a01b03888116602483015284169063f140a35a90604401602060405180830381865afa1580156107ba573d6000803e3d6000fd5b505050506040513d601f19601f820116820180604052508101906107de9190613909565b91505b6107ed8787600061050e565b60405163e5e31b1360e01b81526001600160a01b0380831660048301529194507f00000000000000000000000000000000000000000000000000000000000000009091169063e5e31b1390602401602060405180830381865afa158015610858573d6000803e3d6000fd5b505050506040513d601f19601f8201168201806040525081019061087c91906138ec565b156108f5576040516378a051ad60e11b8152600481018990526001600160a01b03888116602483015284169063f140a35a90604401602060405180830381865afa1580156108ce573d6000803e3d6000fd5b505050506040513d601f19601f820116820180604052508101906108f29190613909565b90505b80821161090457806000610908565b8160015b94509450505050935093915050565b600080600061092686866105de565b50905060008061093788888861050e565b6001600160a01b0316630902f1ac6040518163ffffffff1660e01b8152600401606060405180830381865afa158015610974573d6000803e3d6000fd5b505050506040513d601f19601f820116820180604052508101906109989190613922565b5091509150826001600160a01b0316886001600160a01b0316146109bd5780826109c0565b81815b90999098509650505050505050565b60018251116109f157604051630113fc4f60e71b815260040160405180910390fd5b60005b8251811015611155576000838281518110610a1157610a11613950565b60200260200101519050600160ff168160ff1603610a7a57600080848481518110610a3e57610a3e613950565b6020026020010151806020019051810190610a599190613971565b9092509050610a736001600160a01b038316333084611868565b5050611142565b60011960ff821601610b2857600080848481518110610a9b57610a9b613950565b6020026020010151806020019051810190610ab69190613a5e565b915091505b8151841015610a7357610b163330838781518110610adb57610adb613950565b6020026020010151858881518110610af557610af5613950565b60200260200101516001600160a01b0316611868909392919063ffffffff16565b83610b2081613acd565b945050610abb565b60021960ff821601610bdf576000838381518110610b4857610b48613950565b6020026020010151806020019051810190610b639190613909565b90507f00000000000000000000000000000000000000000000000000000000000000006001600160a01b031663d0e30db0826040518263ffffffff1660e01b81526004016000604051808303818588803b158015610bc057600080fd5b505af1158015610bd4573d6000803e3d6000fd5b505050505050611142565b60031960ff821601610c37576000806000806000878781518110610c0557610c05613950565b6020026020010151806020019051810190610c209190613af9565b94509450945094509450610bd485858585856118d9565b60041960ff821601610caa576000806000806000806000808a8a81518110610c6157610c61613950565b6020026020010151806020019051810190610c7c9190613b60565b97509750975097509750975097509750610c9c8888888888888888611a97565b505050505050505050611142565b60051960ff821601610d02576000806000806000878781518110610cd057610cd0613950565b6020026020010151806020019051810190610ceb9190613bf5565b94509450945094509450610bd48585858585611c0b565b60061960ff821601610df9576000806000806000878781518110610d2857610d28613950565b6020026020010151806020019051810190610d439190613c5f565b94509450945094509450610d8660008685600081518110610d6657610d66613950565b60200260200101516001600160a01b0316611dd19092919063ffffffff16565b6040516338ed173960e01b81526000906338ed173990610db29088908890889088908890600401613ccd565b6000604051808303816000875af1158015610dd1573d6000803e3d6000fd5b505050506040513d6000823e601f3d908101601f19168201604052610bd49190810190613d3e565b60071960ff821601610eaf576000806000806000878781518110610e1f57610e1f613950565b6020026020010151806020019051810190610e3a9190613c5f565b94509450945094509450610e707310ed43c718714eb63d5aa57b78b54704e256024e8685600081518110610d6657610d66613950565b6040516338ed173960e01b81527310ed43c718714eb63d5aa57b78b54704e256024e906338ed173990610db29088908890889088908890600401613ccd565b60081960ff821601610f29576000806000806000878781518110610ed557610ed5613950565b6020026020010151806020019051810190610ef09190613c5f565b6040516338ed173960e01b8152949950929750909550935091506000906338ed173990610db29088908890889088908890600401613ccd565b60091960ff821601610fd1576000806000806000878781518110610f4f57610f4f613950565b6020026020010151806020019051810190610f6a9190613d72565b94509450945094509450610fc4739c12939390052919af3155f41bf4160fd3666a6f8685600081518110610fa057610fa0613950565b6020026020010151600001516001600160a01b0316611dd19092919063ffffffff16565b610bd48585858585611e83565b600a1960ff8216016110ef576000838381518110610ff157610ff1613950565b602002602001015180602001905181019061100c9190613e79565b90505b8051518310156110e95760008160000151848151811061103157611031613950565b6020026020010151905060008260400151858151811061105357611053613950565b60200260200101519050600061106882611ff7565b90506110748183613f1c565b6020850151909250611091906001600160a01b0385169084612013565b604080516001600160a01b0385168152602081018390527f075a2720282fdf622141dae0b048ef90a21a7e57c134c76912d19d006b3b3f6f910160405180910390a150505082806110e190613acd565b93505061100f565b50611142565b600b1960ff82160161114257600080600085858151811061111257611112613950565b602002602001015180602001905181019061112d919061405d565b92509250925061113e838383612043565b5050505b508061114d81613acd565b9150506109f4565b505050565b60606001825110156111a55760405162461bcd60e51b81526020600482015260146024820152730a4deeae8cae47440929cac82989288bea082a8960631b604482015260640161063e565b81516111b290600161416a565b6001600160401b038111156111c9576111c96133e2565b6040519080825280602002602001820160405280156111f2578160200160208202803683370190505b509050828160008151811061120957611209613950565b60200260200101818152505060005b825181101561140c57600061128584838151811061123857611238613950565b60200260200101516000015185848151811061125657611256613950565b60200260200101516020015186858151811061127457611274613950565b60200260200101516040015161050e565b60405163e5e31b1360e01b81526001600160a01b0380831660048301529192507f00000000000000000000000000000000000000000000000000000000000000009091169063e5e31b1390602401602060405180830381865afa1580156112f0573d6000803e3d6000fd5b505050506040513d601f19601f8201168201806040525081019061131491906138ec565b156113f957806001600160a01b031663f140a35a84848151811061133a5761133a613950565b602002602001015186858151811061135457611354613950565b6020026020010151600001516040518363ffffffff1660e01b815260040161138f9291909182526001600160a01b0316602082015260400190565b602060405180830381865afa1580156113ac573d6000803e3d6000fd5b505050506040513d601f19601f820116820180604052508101906113d09190613909565b836113dc84600161416a565b815181106113ec576113ec613950565b6020026020010181815250505b508061140481613acd565b915050611218565b5092915050565b6040516306801cc360e41b81526001600160a01b038681166004830152858116602483015284151560448301526000918291829182917f00000000000000000000000000000000000000000000000000000000000000001690636801cc3090606401602060405180830381865afa158015611492573d6000803e3d6000fd5b505050506040513d601f19601f820116820180604052508101906114b69190614182565b9050600080806001600160a01b0384161561154057836001600160a01b03166318160ddd6040518163ffffffff1660e01b8152600401602060405180830381865afa158015611509573d6000803e3d6000fd5b505050506040513d601f19601f8201168201806040525081019061152d9190613909565b905061153a8c8c8c610917565b90935091505b8215801561154c575081155b1561157d578896508795506103e861156c611567888a61419f565b612339565b6115769190613f1c565b9450611610565b600061158a8a85856123a9565b90508881116115d2578997509550856115cb846115a7848b61419f565b6115b191906141be565b846115bc858b61419f565b6115c691906141be565b612473565b955061160e565b60006115df8a85876123a9565b985089975088905061160a856115f5858461419f565b6115ff91906141be565b856115bc868c61419f565b9650505b505b50505050955095509592505050565b336001600160a01b037f0000000000000000000000000000000000000000000000000000000000000000161461166857604051638afe477f60e01b815260040160405180910390fd5b60008060008380602001905181019061168191906141e0565b604051630ce6eb9960e31b8152929550909350915060009030906367375cc8906116b190869086906004016142d2565b600060405180830381600087803b1580156116cb57600080fd5b505af19250505080156116dc575060015b61172a573d80801561170a576040519150601f19603f3d011682016040523d82523d6000602084013e61170f565b606091505b506117246001600160a01b0389168689612013565b60019150505b4715611782576040516001600160a01b038516904790600081818185875af1925050503d8060008114611779576040519150601f19603f3d011682016040523d82523d6000602084013e61177e565b606091505b5050505b6040805187815282151560208201526001600160a01b038916917f9dce3c3c57554c8def96dde02f36aa27df20d75f725d07f54fac61ffd61a7cf6910160405180910390a250505050505050505050565b60405163e5e31b1360e01b81526001600160a01b0382811660048301526000917f00000000000000000000000000000000000000000000000000000000000000009091169063e5e31b1390602401602060405180830381865afa15801561183e573d6000803e3d6000fd5b505050506040513d601f19601f8201168201806040525081019061186291906138ec565b92915050565b6040516001600160a01b03808516602483015283166044820152606481018290526118d39085906323b872dd60e01b906084015b60408051601f198184030181529190526020810180516001600160e01b03166001600160e01b03199093169290921790915261248b565b50505050565b6040516370a0823160e01b81523060048201526000906119729086907f0000000000000000000000000000000000000000000000000000000000000000906001600160a01b038316906370a08231906024015b602060405180830381865afa158015611949573d6000803e3d6000fd5b505050506040513d601f19601f8201168201806040525081019061196d9190613909565b61255d565b60408051610100810182526001600160a01b0387811682528681166020830190815262ffffff87811684860190815287841660608601908152426080870190815260a087018e8152600060c0890181815260e08a01918252995163414bf38960e01b815289518916600482015296518816602488015293519094166044860152905185166064850152516084840152905160a4830152935160c48201529251811660e484015290917f00000000000000000000000000000000000000000000000000000000000000009091169063414bf38990610104016020604051808303816000875af1158015611a68573d6000803e3d6000fd5b505050506040513d601f19601f82011682018060405250810190611a8c9190613909565b979650505050505050565b6040516370a0823160e01b8152306004820152600090611aee9088907f0000000000000000000000000000000000000000000000000000000000000000906001600160a01b038316906370a082319060240161192c565b6040805160a0810182526001600160601b031960608a811b821660c08401526001600160e81b031960e889811b821660d48601528b831b841660d786015288901b1660eb84015288811b90911660ee830152825180830360e20181526101028301845282526001600160a01b03858116602084015242838501529082018c9052608082018b9052915163c04b8d5960e01b815290917f0000000000000000000000000000000000000000000000000000000000000000169063c04b8d5990611bba908490600401614300565b6020604051808303816000875af1158015611bd9573d6000803e3d6000fd5b505050506040513d601f19601f82011682018060405250810190611bfd9190613909565b9a9950505050505050505050565b600080611c2f60008054906101000a90046001600160a01b0316888760015461265d565b90508060018251611c409190613f1c565b81518110611c5057611c50613950565b6020026020010151915085821015611caa5760405162461bcd60e51b815260206004820152601760248201527f696e73756666696369656e742d616d6f756e742d6f7574000000000000000000604482015260640161063e565b8215611dbc57600080548651611dbc92611d02926001600160a01b031691899190611cd757611cd7613950565b602002602001015188600181518110611cf257611cf2613950565b60200260200101516001546127e9565b86600081518110611d1557611d15613950565b60209081029190910101516040516370a0823160e01b81523060048201526001600160a01b03909116906370a0823190602401602060405180830381865afa158015611d65573d6000803e3d6000fd5b505050506040513d601f19601f82011682018060405250810190611d899190613909565b87600081518110611d9c57611d9c613950565b60200260200101516001600160a01b03166120139092919063ffffffff16565b611dc781868661286f565b5095945050505050565b604051636eb1769f60e11b81523060048201526001600160a01b038381166024830152600091839186169063dd62ed3e90604401602060405180830381865afa158015611e22573d6000803e3d6000fd5b505050506040513d601f19601f82011682018060405250810190611e469190613909565b611e50919061416a565b6040516001600160a01b0385166024820152604481018290529091506118d390859063095ea7b360e01b9060640161189c565b60608142811015611ec85760405162461bcd60e51b815260206004820152600f60248201526e149bdd5d195c8e8811561412549151608a1b604482015260640161063e565b611ed2878661115a565b9150858260018451611ee49190613f1c565b81518110611ef457611ef4613950565b60200260200101511015611f555760405162461bcd60e51b815260206004820152602260248201527f526f757465723a20494e53554646494349454e545f4f55545055545f414d4f55604482015261139560f21b606482015260840161063e565b611fec85600081518110611f6b57611f6b613950565b60200260200101516000015130611fcc88600081518110611f8e57611f8e613950565b60200260200101516000015189600081518110611fad57611fad613950565b6020026020010151602001518a60008151811061127457611274613950565b85600081518110611fdf57611fdf613950565b6020026020010151612a46565b611dc7828686612b3e565b6000620f4240612009836101f461419f565b61186291906141be565b6040516001600160a01b03831660248201526044810182905261115590849063a9059cbb60e01b9060640161189c565b600034116120645760405163c9935ff960e01b815260040160405180910390fd5b6000836101000151838360405160200161208093929190614358565b604051602081830303815290604052905083608001516000036121105760208401516040516370a0823160e01b81523060048201526001600160a01b03909116906370a0823190602401602060405180830381865afa1580156120e7573d6000803e3d6000fd5b505050506040513d601f19601f8201168201806040525081019061210b9190613909565b612116565b83608001515b608085018190526020850151612159916001600160a01b03909116907f000000000000000000000000000000000000000000000000000000000000000090611dd1565b60006121688560800151611ff7565b9050808560800181815161217c9190613f1c565b90525060208501516121b8906001600160a01b03167f000000000000000000000000000000000000000000000000000000000000000083612013565b7f00000000000000000000000000000000000000000000000000000000000000006001600160a01b0316639fbf10fc47876000015188604001518960600151308b608001518c60a0015160405180606001604052808f610120015181526020018f60c0015181526020018f60e0015160405160200161224a919060609190911b6001600160601b031916815260140190565b6040516020818303038152906040528152508e60e00151604051602001612284919060609190911b6001600160601b031916815260140190565b6040516020818303038152906040528c6040518b63ffffffff1660e01b81526004016122b899989796959493929190614398565b6000604051808303818588803b1580156122d157600080fd5b505af11580156122e5573d6000803e3d6000fd5b50505050602086810151604080516001600160a01b0390921682529181018490527f075a2720282fdf622141dae0b048ef90a21a7e57c134c76912d19d006b3b3f6f92500160405180910390a15050505050565b6000600382111561239a57508060006123536002836141be565b61235e90600161416a565b90505b818110156123945790508060028161237981866141be565b612383919061416a565b61238d91906141be565b9050612361565b50919050565b81156123a4575060015b919050565b60008084116123fa5760405162461bcd60e51b815260206004820152601b60248201527f526f757465723a20494e53554646494349454e545f414d4f554e540000000000604482015260640161063e565b60008311801561240a5750600082115b6124565760405162461bcd60e51b815260206004820152601e60248201527f526f757465723a20494e53554646494349454e545f4c49515549444954590000604482015260640161063e565b82612461838661419f565b61246b91906141be565b949350505050565b60008183106124825781612484565b825b9392505050565b60006124e0826040518060400160405280602081526020017f5361666545524332303a206c6f772d6c6576656c2063616c6c206661696c6564815250856001600160a01b0316612d8d9092919063ffffffff16565b80519091501561115557808060200190518101906124fe91906138ec565b6111555760405162461bcd60e51b815260206004820152602a60248201527f5361666545524332303a204552433230206f7065726174696f6e20646964206e6044820152691bdd081cdd58d8d9595960b21b606482015260840161063e565b604080516001600160a01b038481166024830152604480830185905283518084039091018152606490920183526020820180516001600160e01b031663095ea7b360e01b17905291516000928392908716916125b99190614436565b6000604051808303816000865af19150503d80600081146125f6576040519150601f19603f3d011682016040523d82523d6000602084013e6125fb565b606091505b509150915081801561262557508051158061262557508080602001905181019061262591906138ec565b6126565760405162461bcd60e51b8152602060048201526002602482015261534160f01b604482015260640161063e565b5050505050565b60606002835110156126b15760405162461bcd60e51b815260206004820152601e60248201527f556e697377617056324c6962726172793a20494e56414c49445f504154480000604482015260640161063e565b82516001600160401b038111156126ca576126ca6133e2565b6040519080825280602002602001820160405280156126f3578160200160208202803683370190505b509050838160008151811061270a5761270a613950565b60200260200101818152505060005b600184516127279190613f1c565b8110156127e05760008061277b8887858151811061274757612747613950565b60200260200101518886600161275d919061416a565b8151811061276d5761276d613950565b602002602001015188612d9c565b915091506127a384848151811061279457612794613950565b60200260200101518383612e68565b846127af85600161416a565b815181106127bf576127bf613950565b602002602001018181525050505080806127d890613acd565b915050612719565b50949350505050565b60008060006127f88686612f7c565b6040516001600160601b0319606084811b8216602084015283901b16603482015291935091508790604801604051602081830303815290604052805190602001208560405160200161284c939291906138b9565b60408051601f198184030181529190528051602090910120979650505050505050565b60005b600183516128809190613f1c565b8110156118d35760008084838151811061289c5761289c613950565b6020026020010151858460016128b2919061416a565b815181106128c2576128c2613950565b60200260200101519150915060006128da8383612f7c565b5090506000876128eb86600161416a565b815181106128fb576128fb613950565b60200260200101519050600080836001600160a01b0316866001600160a01b0316146129295782600061292d565b6000835b91509150600060028a516129419190613f1c565b881061294d578861297a565b60005461297a906001600160a01b0316878c61296a8c600261416a565b81518110611cf257611cf2613950565b905061299d60008054906101000a90046001600160a01b031688886001546127e9565b6001600160a01b031663022c0d9f84848460006040519080825280601f01601f1916602001820160405280156129da576020820181803683370190505b506040518563ffffffff1660e01b81526004016129fa9493929190614452565b600060405180830381600087803b158015612a1457600080fd5b505af1158015612a28573d6000803e3d6000fd5b50505050505050505050508080612a3e90613acd565b915050612872565b6000846001600160a01b03163b11612a5d57600080fd5b604080516001600160a01b0385811660248301528481166044830152606480830185905283518084039091018152608490920183526020820180516001600160e01b03166323b872dd60e01b1790529151600092839290881691612ac19190614436565b6000604051808303816000865af19150503d8060008114612afe576040519150601f19603f3d011682016040523d82523d6000602084013e612b03565b606091505b5091509150818015612b2d575080511580612b2d575080806020019051810190612b2d91906138ec565b612b3657600080fd5b505050505050565b60005b82518110156118d3576000612b90848381518110612b6157612b61613950565b602002602001015160000151858481518110612b7f57612b7f613950565b6020026020010151602001516105de565b509050600085612ba184600161416a565b81518110612bb157612bb1613950565b60200260200101519050600080836001600160a01b0316878681518110612bda57612bda613950565b6020026020010151600001516001600160a01b031614612bfc57826000612c00565b6000835b91509150600060018851612c149190613f1c565b8610612c205786612c93565b612c9388612c2f88600161416a565b81518110612c3f57612c3f613950565b60200260200101516000015189886001612c59919061416a565b81518110612c6957612c69613950565b6020026020010151602001518a896001612c83919061416a565b8151811061127457611274613950565b9050612ce6888781518110612caa57612caa613950565b602002602001015160000151898881518110612cc857612cc8613950565b6020026020010151602001518a898151811061127457611274613950565b6001600160a01b031663022c0d9f84848460006040519080825280601f01601f191660200182016040528015612d23576020820181803683370190505b506040518563ffffffff1660e01b8152600401612d439493929190614452565b600060405180830381600087803b158015612d5d57600080fd5b505af1158015612d71573d6000803e3d6000fd5b5050505050505050508080612d8590613acd565b915050612b41565b606061246b848460008561306c565b6000806000612dab8686612f7c565b509050600080612dbd898989896127e9565b6001600160a01b0316630902f1ac6040518163ffffffff1660e01b8152600401606060405180830381865afa158015612dfa573d6000803e3d6000fd5b505050506040513d601f19601f82011682018060405250810190612e1e9190614496565b506001600160701b031691506001600160701b03169150826001600160a01b0316886001600160a01b031614612e55578082612e58565b81815b909a909950975050505050505050565b6000808411612ecd5760405162461bcd60e51b815260206004820152602b60248201527f556e697377617056324c6962726172793a20494e53554646494349454e545f4960448201526a1394155517d05353d5539560aa1b606482015260840161063e565b600083118015612edd5750600082115b612f3a5760405162461bcd60e51b815260206004820152602860248201527f556e697377617056324c6962726172793a20494e53554646494349454e545f4c604482015267495155494449545960c01b606482015260840161063e565b6000612f48856103e561313c565b90506000612f56828561313c565b90506000612f7083612f6a886103e861313c565b906131a3565b9050611a8c81836141be565b600080826001600160a01b0316846001600160a01b031603612fee5760405162461bcd60e51b815260206004820152602560248201527f556e697377617056324c6962726172793a204944454e544943414c5f41444452604482015264455353455360d81b606482015260840161063e565b826001600160a01b0316846001600160a01b03161061300e578284613011565b83835b90925090506001600160a01b0382166106bc5760405162461bcd60e51b815260206004820152601e60248201527f556e697377617056324c6962726172793a205a45524f5f414444524553530000604482015260640161063e565b6060824710156130cd5760405162461bcd60e51b815260206004820152602660248201527f416464726573733a20696e73756666696369656e742062616c616e636520666f6044820152651c8818d85b1b60d21b606482015260840161063e565b600080866001600160a01b031685876040516130e99190614436565b60006040518083038185875af1925050503d8060008114613126576040519150601f19603f3d011682016040523d82523d6000602084013e61312b565b606091505b5091509150611a8c878383876131f8565b600081158061316057508282613152818361419f565b925061315e90836141be565b145b6118625760405162461bcd60e51b815260206004820152601460248201527364732d6d6174682d6d756c2d6f766572666c6f7760601b604482015260640161063e565b6000826131b0838261416a565b91508110156118625760405162461bcd60e51b815260206004820152601460248201527364732d6d6174682d6164642d6f766572666c6f7760601b604482015260640161063e565b60608315613267578251600003613260576001600160a01b0385163b6132605760405162461bcd60e51b815260206004820152601d60248201527f416464726573733a2063616c6c20746f206e6f6e2d636f6e7472616374000000604482015260640161063e565b508161246b565b61246b838381511561327c5781518083602001fd5b8060405162461bcd60e51b815260040161063e9190613398565b6001600160a01b03811681146132ab57600080fd5b50565b80151581146132ab57600080fd5b6000806000606084860312156132d157600080fd5b83356132dc81613296565b925060208401356132ec81613296565b915060408401356132fc816132ae565b809150509250925092565b6000806040838503121561331a57600080fd5b823561332581613296565b9150602083013561333581613296565b809150509250929050565b60005b8381101561335b578181015183820152602001613343565b838111156118d35750506000910152565b60008151808452613384816020860160208601613340565b601f01601f19169290920160200192915050565b602081526000612484602083018461336c565b6000806000606084860312156133c057600080fd5b8335925060208401356133d281613296565b915060408401356132fc81613296565b634e487b7160e01b600052604160045260246000fd5b604051606081016001600160401b038111828210171561341a5761341a6133e2565b60405290565b60405161016081016001600160401b038111828210171561341a5761341a6133e2565b604051601f8201601f191681016001600160401b038111828210171561346b5761346b6133e2565b604052919050565b60006001600160401b0382111561348c5761348c6133e2565b5060051b60200190565b60ff811681146132ab57600080fd5b60006001600160401b038211156134be576134be6133e2565b50601f01601f191660200190565b600082601f8301126134dd57600080fd5b81356134f06134eb826134a5565b613443565b81815284602083860101111561350557600080fd5b816020850160208301376000918101602001919091529392505050565b600082601f83011261353357600080fd5b813560206135436134eb83613473565b82815260059290921b8401810191818101908684111561356257600080fd5b8286015b848110156135a15780356001600160401b038111156135855760008081fd5b6135938986838b01016134cc565b845250918301918301613566565b509695505050505050565b600080604083850312156135bf57600080fd5b82356001600160401b03808211156135d657600080fd5b818501915085601f8301126135ea57600080fd5b813560206135fa6134eb83613473565b82815260059290921b8401810191818101908984111561361957600080fd5b948201945b8386101561364057853561363181613496565b8252948201949082019061361e565b9650508601359250508082111561365657600080fd5b5061366385828601613522565b9150509250929050565b600080604080848603121561368157600080fd5b833592506020808501356001600160401b0381111561369f57600080fd5b8501601f810187136136b057600080fd5b80356136be6134eb82613473565b8181526060918202830184019184820191908a8411156136dd57600080fd5b938501935b838510156137405780858c0312156136fa5760008081fd5b6137026133f8565b853561370d81613296565b81528587013561371c81613296565b818801528588013561372d816132ae565b81890152835293840193918501916136e2565b508096505050505050509250929050565b6020808252825182820181905260009190848201906040850190845b818110156137895783518352928401929184019160010161376d565b50909695505050505050565b600080600080600060a086880312156137ad57600080fd5b85356137b881613296565b945060208601356137c881613296565b935060408601356137d8816132ae565b94979396509394606081013594506080013592915050565b61ffff811681146132ab57600080fd5b60008060008060008060c0878903121561381957600080fd5b8635613824816137f0565b955060208701356001600160401b038082111561384057600080fd5b61384c8a838b016134cc565b9650604089013595506060890135915061386582613296565b9093506080880135925060a0880135908082111561388257600080fd5b5061388f89828a016134cc565b9150509295509295509295565b6000602082840312156138ae57600080fd5b813561248481613296565b6001600160f81b0319815260609390931b6001600160601b03191660018401526015830191909152603582015260550190565b6000602082840312156138fe57600080fd5b8151612484816132ae565b60006020828403121561391b57600080fd5b5051919050565b60008060006060848603121561393757600080fd5b8351925060208401519150604084015190509250925092565b634e487b7160e01b600052603260045260246000fd5b80516123a481613296565b6000806040838503121561398457600080fd5b825161398f81613296565b6020939093015192949293505050565b600082601f8301126139b057600080fd5b815160206139c06134eb83613473565b82815260059290921b840181019181810190868411156139df57600080fd5b8286015b848110156135a15780516139f681613296565b83529183019183016139e3565b600082601f830112613a1457600080fd5b81516020613a246134eb83613473565b82815260059290921b84018101918181019086841115613a4357600080fd5b8286015b848110156135a15780518352918301918301613a47565b60008060408385031215613a7157600080fd5b82516001600160401b0380821115613a8857600080fd5b613a948683870161399f565b93506020850151915080821115613aaa57600080fd5b5061366385828601613a03565b634e487b7160e01b600052601160045260246000fd5b600060018201613adf57613adf613ab7565b5060010190565b805162ffffff811681146123a457600080fd5b600080600080600060a08688031215613b1157600080fd5b855194506020860151613b2381613296565b6040870151909450613b3481613296565b9250613b4260608701613ae6565b91506080860151613b5281613296565b809150509295509295909350565b600080600080600080600080610100898b031215613b7d57600080fd5b88519750602089015196506040890151613b9681613296565b60608a0151909650613ba781613296565b60808a0151909550613bb881613296565b9350613bc660a08a01613ae6565b9250613bd460c08a01613ae6565b915060e0890151613be481613296565b809150509295985092959890939650565b600080600080600060a08688031215613c0d57600080fd5b855194506020860151935060408601516001600160401b03811115613c3157600080fd5b613c3d8882890161399f565b9350506060860151613c4e81613296565b6080870151909250613b52816132ae565b600080600080600060a08688031215613c7757600080fd5b855194506020860151935060408601516001600160401b03811115613c9b57600080fd5b613ca78882890161399f565b9350506060860151613cb881613296565b80925050608086015190509295509295909350565b600060a082018783526020878185015260a0604085015281875180845260c086019150828901935060005b81811015613d1d5784516001600160a01b031683529383019391830191600101613cf8565b50506001600160a01b03969096166060850152505050608001529392505050565b600060208284031215613d5057600080fd5b81516001600160401b03811115613d6657600080fd5b61246b84828501613a03565b600080600080600060a08688031215613d8a57600080fd5b8551945060208087015194506040808801516001600160401b03811115613db057600080fd5b8801601f81018a13613dc157600080fd5b8051613dcf6134eb82613473565b8181526060918202830185019185820191908d841115613dee57600080fd5b938601935b83851015613e515780858f031215613e0b5760008081fd5b613e136133f8565b8551613e1e81613296565b815285880151613e2d81613296565b8189015285870151613e3e816132ae565b8188015283529384019391860191613df3565b819950613e5f818e01613966565b985050505050505050608086015190509295509295909350565b600060208284031215613e8b57600080fd5b81516001600160401b0380821115613ea257600080fd5b9083019060608286031215613eb657600080fd5b613ebe6133f8565b825182811115613ecd57600080fd5b613ed98782860161399f565b8252506020830151613eea81613296565b6020820152604083015182811115613f0157600080fd5b613f0d87828601613a03565b60408301525095945050505050565b600082821015613f2e57613f2e613ab7565b500390565b80516123a4816137f0565b600082601f830112613f4f57600080fd5b81516020613f5f6134eb83613473565b82815260059290921b84018101918181019086841115613f7e57600080fd5b8286015b848110156135a1578051613f9581613496565b8352918301918301613f82565b600082601f830112613fb357600080fd5b81516020613fc36134eb83613473565b82815260059290921b84018101918181019086841115613fe257600080fd5b8286015b848110156135a15780516001600160401b038111156140055760008081fd5b8701603f810189136140175760008081fd5b8481015160406140296134eb836134a5565b8281528b8284860101111561403e5760008081fd5b61404d83898301848701613340565b8652505050918301918301613fe6565b60008060008385036101a081121561407457600080fd5b6101608082121561408457600080fd5b61408c613420565b915061409786613f33565b82526140a560208701613966565b602083015260408601516040830152606086015160608301526080860151608083015260a086015160a083015260c086015160c08301526140e860e08701613966565b60e08301526101006140fb818801613966565b90830152610120868101519083015261014080870151908301528501519093506001600160401b038082111561413057600080fd5b61413c87838801613f3e565b935061018086015191508082111561415357600080fd5b5061416086828701613fa2565b9150509250925092565b6000821982111561417d5761417d613ab7565b500190565b60006020828403121561419457600080fd5b815161248481613296565b60008160001904831182151516156141b9576141b9613ab7565b500290565b6000826141db57634e487b7160e01b600052601260045260246000fd5b500490565b6000806000606084860312156141f557600080fd5b835161420081613296565b60208501519093506001600160401b038082111561421d57600080fd5b61422987838801613f3e565b9350604086015191508082111561415357600080fd5b600081518084526020808501945080840160005b8381101561427257815160ff1687529582019590820190600101614253565b509495945050505050565b600081518084526020808501808196508360051b8101915082860160005b858110156142c55782840389526142b384835161336c565b9885019893509084019060010161429b565b5091979650505050505050565b6040815260006142e5604083018561423f565b82810360208401526142f7818561427d565b95945050505050565b602081526000825160a0602084015261431c60c084018261336c565b905060018060a01b0360208501511660408401526040840151606084015260608401516080840152608084015160a08401528091505092915050565b6001600160a01b038416815260606020820181905260009061437c9083018561423f565b828103604084015261438e818561427d565b9695505050505050565b600061012061ffff8c1683528a602084015289604084015260018060a01b03891660608401528760808401528660a08401528060c0840152855181840152506020850151610140830152604085015160606101608401526143fd61018084018261336c565b905082810360e0840152614411818661336c565b9050828103610100840152614426818561336c565b9c9b505050505050505050505050565b60008251614448818460208701613340565b9190910192915050565b84815283602082015260018060a01b038316604082015260806060820152600061438e608083018461336c565b80516001600160701b03811681146123a457600080fd5b6000806000606084860312156144ab57600080fd5b6144b48461447f565b92506144c26020850161447f565b9150604084015163ffffffff811681146132fc57600080fdfea2646970667358221220a12a434f0ec90b8e500c3adf4b6934e758c832d85fd6f9af563a86d27bc7146864736f6c634300080f0033",
    "linkReferences": {}
  },
  "methodIdentifiers": {
    "factory()": "c45a0155",
    "feeCollector()": "c415b95c",
    "getAmountOut(uint256,address,address)": "5e1e6325",
    "getAmountsOut(uint256,(address,address,bool)[])": "9881fcb4",
    "getReserves(address,address,bool)": "5e60dab5",
    "isPair(address)": "e5e31b13",
    "joeRouter()": "59f571e8",
    "pairCodeHash()": "9aab9248",
    "pairFor(address,address,bool)": "4c1ee03e",
    "pancakeRouter()": "c21ebd07",
    "quoteAddLiquidity(address,address,bool,uint256,uint256)": "98a0fb3c",
    "sgReceive(uint16,bytes,uint256,address,uint256,bytes)": "ab8236f3",
    "sortTokens(address,address)": "544caa56",
    "spookyRouter()": "8ed8ea7e",
    "stargateRouter()": "a9e56f3c",
    "swapRouter()": "c31c9c07",
    "swaps(uint8[],bytes[])": "67375cc8",
    "veloFactory()": "c7f5fd10",
    "veloRouter()": "d5ef98ea",
    "veloWETH()": "fdc09e07",
    "version()": "54fd4d50",
    "weth()": "3fc8cef3"
  },
  "id": 32
}