{
  "abi": [
    {
      "inputs": [
        {
          "internalType": "address",
          "name": "_weth",
          "type": "address"
        },
        {
          "internalType": "contract ISwapRouter",
          "name": "_swapRouter",
          "type": "address"
        },
        {
          "internalType": "address",
          "name": "_factory",
          "type": "address"
        },
        {
          "internalType": "bytes32",
          "name": "_pairCodeHash",
          "type": "bytes32"
        },
        {
          "internalType": "contract IStargateRouter",
          "name": "_stargateRouter",
          "type": "address"
        }
      ],
      "stateMutability": "nonpayable",
      "type": "constructor"
    },
    {
      "inputs": [],
      "name": "MustBeGt0",
      "type": "error"
    },
    {
      "inputs": [],
      "name": "NotStgRouter",
      "type": "error"
    },
    {
      "anonymous": false,
      "inputs": [
        {
          "indexed": true,
          "internalType": "address",
          "name": "token",
          "type": "address"
        },
        {
          "indexed": false,
          "internalType": "uint256",
          "name": "amountLD",
          "type": "uint256"
        },
        {
          "indexed": false,
          "internalType": "bool",
          "name": "failed",
          "type": "bool"
        }
      ],
      "name": "ReceivedOnDestination",
      "type": "event"
    },
    {
      "inputs": [],
      "name": "factory",
      "outputs": [
        {
          "internalType": "address",
          "name": "",
          "type": "address"
        }
      ],
      "stateMutability": "view",
      "type": "function"
    },
    {
      "inputs": [],
      "name": "feeCollector",
      "outputs": [
        {
          "internalType": "address",
          "name": "",
          "type": "address"
        }
      ],
      "stateMutability": "view",
      "type": "function"
    },
    {
      "inputs": [],
      "name": "joeRouter",
      "outputs": [
        {
          "internalType": "contract IJoeRouter02",
          "name": "",
          "type": "address"
        }
      ],
      "stateMutability": "view",
      "type": "function"
    },
    {
      "inputs": [],
      "name": "pairCodeHash",
      "outputs": [
        {
          "internalType": "bytes32",
          "name": "",
          "type": "bytes32"
        }
      ],
      "stateMutability": "view",
      "type": "function"
    },
    {
      "inputs": [],
      "name": "pancakeRouter",
      "outputs": [
        {
          "internalType": "contract IPancakeRouter02",
          "name": "",
          "type": "address"
        }
      ],
      "stateMutability": "view",
      "type": "function"
    },
    {
      "inputs": [
        {
          "internalType": "uint16",
          "name": "",
          "type": "uint16"
        },
        {
          "internalType": "bytes",
          "name": "",
          "type": "bytes"
        },
        {
          "internalType": "uint256",
          "name": "",
          "type": "uint256"
        },
        {
          "internalType": "address",
          "name": "_token",
          "type": "address"
        },
        {
          "internalType": "uint256",
          "name": "amountLD",
          "type": "uint256"
        },
        {
          "internalType": "bytes",
          "name": "_payload",
          "type": "bytes"
        }
      ],
      "name": "sgReceive",
      "outputs": [],
      "stateMutability": "nonpayable",
      "type": "function"
    },
    {
      "inputs": [],
      "name": "spookyRouter",
      "outputs": [
        {
          "internalType": "contract IUniswapV2Router02",
          "name": "",
          "type": "address"
        }
      ],
      "stateMutability": "view",
      "type": "function"
    },
    {
      "inputs": [],
      "name": "stargateRouter",
      "outputs": [
        {
          "internalType": "contract IStargateRouter",
          "name": "",
          "type": "address"
        }
      ],
      "stateMutability": "view",
      "type": "function"
    },
    {
      "inputs": [],
      "name": "swapRouter",
      "outputs": [
        {
          "internalType": "contract ISwapRouter",
          "name": "",
          "type": "address"
        }
      ],
      "stateMutability": "view",
      "type": "function"
    },
    {
      "inputs": [
        {
          "internalType": "uint8[]",
          "name": "steps",
          "type": "uint8[]"
        },
        {
          "internalType": "bytes[]",
          "name": "data",
          "type": "bytes[]"
        }
      ],
      "name": "swaps",
      "outputs": [],
      "stateMutability": "payable",
      "type": "function"
    },
    {
      "inputs": [],
      "name": "version",
      "outputs": [
        {
          "internalType": "string",
          "name": "_version",
          "type": "string"
        }
      ],
      "stateMutability": "pure",
      "type": "function"
    },
    {
      "inputs": [],
      "name": "weth",
      "outputs": [
        {
          "internalType": "address",
          "name": "",
          "type": "address"
        }
      ],
      "stateMutability": "view",
      "type": "function"
    },
    {
      "stateMutability": "payable",
      "type": "receive"
    }
  ],
  "bytecode": {
    "object": "0x6101006040523480156200001257600080fd5b5060405162002c3a38038062002c3a83398101604081905262000035916200008a565b6001600160a01b03938416608052600080546001600160a01b03191693851693909317909255600155811660a0523360c0521660e052620000fe565b6001600160a01b03811681146200008757600080fd5b50565b600080600080600060a08688031215620000a357600080fd5b8551620000b08162000071565b6020870151909550620000c38162000071565b6040870151909450620000d68162000071565b606087015160808801519194509250620000f08162000071565b809150509295509295909350565b60805160a05160c05160e051612ac4620001766000396000818160c901526103b20152600081816102870152610fbd0152600081816101d70152818161082301528181610fe7015261102a01526000818161025301528181610a4501528181610b1401528181610b970152610c530152612ac46000f3fe6080604052600436106100ab5760003560e01c8063a9e56f3c11610064578063a9e56f3c146101c5578063ab8236f3146101f9578063c21ebd0714610219578063c31c9c0714610241578063c415b95c14610275578063c45a0155146102a957600080fd5b80633fc8cef3146100b757806354fd4d501461010857806359f571e81461013c57806367375cc8146101645780638ed8ea7e146101795780639aab9248146101a157600080fd5b366100b257005b600080fd5b3480156100c357600080fd5b506100eb7f000000000000000000000000000000000000000000000000000000000000000081565b6040516001600160a01b0390911681526020015b60405180910390f35b34801561011457600080fd5b506040805180820182526005815264302e302e3160d81b602082015290516100ff9190611d89565b34801561014857600080fd5b506100eb7360ae616a2155ee3d9a68541ba4544862310933d481565b610177610172366004611f4e565b6102c9565b005b34801561018557600080fd5b506100eb73f491e7b69e4244ad4002bc14e878a34207e38c2981565b3480156101ad57600080fd5b506101b760015481565b6040519081526020016100ff565b3480156101d157600080fd5b506100eb7f000000000000000000000000000000000000000000000000000000000000000081565b34801561020557600080fd5b50610177610214366004612034565b610818565b34801561022557600080fd5b506100eb7310ed43c718714eb63d5aa57b78b54704e256024e81565b34801561024d57600080fd5b506100eb7f000000000000000000000000000000000000000000000000000000000000000081565b34801561028157600080fd5b506100eb7f000000000000000000000000000000000000000000000000000000000000000081565b3480156102b557600080fd5b506000546100eb906001600160a01b031681565b600034116102ea5760405163c9935ff960e01b815260040160405180910390fd5b60005b825181101561081357600083828151811061030a5761030a6120d0565b60200260200101519050600160ff168160ff160361037357600080848481518110610337576103376120d0565b602002602001015180602001905181019061035291906120e6565b909250905061036c6001600160a01b0383163330846109cc565b5050610800565b60011960ff82160161042a576000838381518110610393576103936120d0565b60200260200101518060200190518101906103ae9190612114565b90507f00000000000000000000000000000000000000000000000000000000000000006001600160a01b031663d0e30db0826040518263ffffffff1660e01b81526004016000604051808303818588803b15801561040b57600080fd5b505af115801561041f573d6000803e3d6000fd5b505050505050610800565b60021960ff821601610482576000806000806000878781518110610450576104506120d0565b602002602001015180602001905181019061046b9190612145565b9450945094509450945061041f8585858585610a3d565b60031960ff8216016104f5576000806000806000806000808a8a815181106104ac576104ac6120d0565b60200260200101518060200190518101906104c791906121ac565b975097509750975097509750975097506104e78888888888888888610b8f565b505050505050505050610800565b60041960ff82160161054d57600080600080600087878151811061051b5761051b6120d0565b602002602001015180602001905181019061053691906122c0565b9450945094509450945061041f8585858585610cd9565b60051960ff82160161066a576000806000806000878781518110610573576105736120d0565b602002602001015180602001905181019061058e9190612333565b945094509450945094506105e47360ae616a2155ee3d9a68541ba4544862310933d486856000815181106105c4576105c46120d0565b60200260200101516001600160a01b0316610ea49092919063ffffffff16565b6040516338ed173960e01b81527360ae616a2155ee3d9a68541ba4544862310933d4906338ed17399061062390889088908890889088906004016123a1565b6000604051808303816000875af1158015610642573d6000803e3d6000fd5b505050506040513d6000823e601f3d908101601f1916820160405261041f9190810190612412565b60061960ff821601610720576000806000806000878781518110610690576106906120d0565b60200260200101518060200190518101906106ab9190612333565b945094509450945094506106e17310ed43c718714eb63d5aa57b78b54704e256024e86856000815181106105c4576105c46120d0565b6040516338ed173960e01b81527310ed43c718714eb63d5aa57b78b54704e256024e906338ed17399061062390889088908890889088906004016123a1565b60071960ff8216016107ad576000806000806000878781518110610746576107466120d0565b60200260200101518060200190518101906107619190612333565b6040516338ed173960e01b81529499509297509095509350915073f491e7b69e4244ad4002bc14e878a34207e38c29906338ed17399061062390889088908890889088906004016123a1565b60081960ff8216016108005760008060008585815181106107d0576107d06120d0565b60200260200101518060200190518101906107eb91906125c1565b9250925092506107fc838383610f56565b5050505b508061080b816126e4565b9150506102ed565b505050565b336001600160a01b037f0000000000000000000000000000000000000000000000000000000000000000161461086157604051638afe477f60e01b815260040160405180910390fd5b60008060008380602001905181019061087a91906126fd565b604051630ce6eb9960e31b8152929550909350915060009030906367375cc8906108aa90869086906004016127ef565b600060405180830381600087803b1580156108c457600080fd5b505af19250505080156108d5575060015b610923573d808015610903576040519150601f19603f3d011682016040523d82523d6000602084013e610908565b606091505b5061091d6001600160a01b03891686896111e0565b60019150505b471561097b576040516001600160a01b038516904790600081818185875af1925050503d8060008114610972576040519150601f19603f3d011682016040523d82523d6000602084013e610977565b606091505b5050505b6040805187815282151560208201526001600160a01b038916917f9dce3c3c57554c8def96dde02f36aa27df20d75f725d07f54fac61ffd61a7cf6910160405180910390a250505050505050505050565b6040516001600160a01b0380851660248301528316604482015260648101829052610a379085906323b872dd60e01b906084015b60408051601f198184030181529190526020810180516001600160e01b03166001600160e01b031990931692909217909152611210565b50505050565b6000610a6a857f0000000000000000000000000000000000000000000000000000000000000000886112e2565b60408051610100810182526001600160a01b0387811682528681166020830190815262ffffff87811684860190815287841660608601908152426080870190815260a087018e8152600060c0890181815260e08a01918252995163414bf38960e01b815289518916600482015296518816602488015293519094166044860152905185166064850152516084840152905160a4830152935160c48201529251811660e484015290917f00000000000000000000000000000000000000000000000000000000000000009091169063414bf38990610104016020604051808303816000875af1158015610b60573d6000803e3d6000fd5b505050506040513d601f19601f82011682018060405250810190610b849190612114565b979650505050505050565b6000610bbc877f00000000000000000000000000000000000000000000000000000000000000008b6112e2565b6040805160a0810182526001600160601b031960608a811b821660c08401526001600160e81b031960e889811b821660d48601528b831b841660d786015288901b1660eb84015288811b90911660ee830152825180830360e20181526101028301845282526001600160a01b03858116602084015242838501529082018c9052608082018b9052915163c04b8d5960e01b815290917f0000000000000000000000000000000000000000000000000000000000000000169063c04b8d5990610c8890849060040161281d565b6020604051808303816000875af1158015610ca7573d6000803e3d6000fd5b505050506040513d601f19601f82011682018060405250810190610ccb9190612114565b9a9950505050505050505050565b600080610cfd60008054906101000a90046001600160a01b031688876001546113e2565b90508060018251610d0e9190612875565b81518110610d1e57610d1e6120d0565b6020026020010151915085821015610d7d5760405162461bcd60e51b815260206004820152601760248201527f696e73756666696369656e742d616d6f756e742d6f757400000000000000000060448201526064015b60405180910390fd5b8215610e8f57600080548651610e8f92610dd5926001600160a01b031691899190610daa57610daa6120d0565b602002602001015188600181518110610dc557610dc56120d0565b602002602001015160015461156e565b86600081518110610de857610de86120d0565b60209081029190910101516040516370a0823160e01b81523060048201526001600160a01b03909116906370a0823190602401602060405180830381865afa158015610e38573d6000803e3d6000fd5b505050506040513d601f19601f82011682018060405250810190610e5c9190612114565b87600081518110610e6f57610e6f6120d0565b60200260200101516001600160a01b03166111e09092919063ffffffff16565b610e9a818686611622565b5095945050505050565b604051636eb1769f60e11b81523060048201526001600160a01b038381166024830152600091839186169063dd62ed3e90604401602060405180830381865afa158015610ef5573d6000803e3d6000fd5b505050506040513d601f19601f82011682018060405250810190610f199190612114565b610f23919061288c565b6040516001600160a01b038516602482015260448101829052909150610a3790859063095ea7b360e01b90606401610a00565b60008361010001518383604051602001610f72939291906128a4565b60405160208183030381529060405290506000610f9285608001516117f9565b9050808560800151610fa49190612875565b60808601526020850151610fe2906001600160a01b03167f0000000000000000000000000000000000000000000000000000000000000000836111e0565b6110287f0000000000000000000000000000000000000000000000000000000000000000866080015187602001516001600160a01b0316610ea49092919063ffffffff16565b7f00000000000000000000000000000000000000000000000000000000000000006001600160a01b0316639fbf10fc866000015187604001518860600151338a608001516000036110e65760208b01516040516370a0823160e01b81523060048201526001600160a01b03909116906370a0823190602401602060405180830381865afa1580156110bd573d6000803e3d6000fd5b505050506040513d601f19601f820116820180604052508101906110e19190612114565b6110ec565b8a608001515b8b60a0015160405180606001604052808e610120015181526020018e60c0015181526020018e60e00151604051602001611139919060609190911b6001600160601b031916815260140190565b6040516020818303038152906040528152508d60e00151604051602001611173919060609190911b6001600160601b031916815260140190565b6040516020818303038152906040528b6040518a63ffffffff1660e01b81526004016111a7999897969594939291906128e4565b600060405180830381600087803b1580156111c157600080fd5b505af11580156111d5573d6000803e3d6000fd5b505050505050505050565b6040516001600160a01b03831660248201526044810182905261081390849063a9059cbb60e01b90606401610a00565b6000611265826040518060400160405280602081526020017f5361666545524332303a206c6f772d6c6576656c2063616c6c206661696c6564815250856001600160a01b03166118199092919063ffffffff16565b80519091501561081357808060200190518101906112839190612982565b6108135760405162461bcd60e51b815260206004820152602a60248201527f5361666545524332303a204552433230206f7065726174696f6e20646964206e6044820152691bdd081cdd58d8d9595960b21b6064820152608401610d74565b604080516001600160a01b038481166024830152604480830185905283518084039091018152606490920183526020820180516001600160e01b031663095ea7b360e01b179052915160009283929087169161133e919061299d565b6000604051808303816000865af19150503d806000811461137b576040519150601f19603f3d011682016040523d82523d6000602084013e611380565b606091505b50915091508180156113aa5750805115806113aa5750808060200190518101906113aa9190612982565b6113db5760405162461bcd60e51b8152602060048201526002602482015261534160f01b6044820152606401610d74565b5050505050565b60606002835110156114365760405162461bcd60e51b815260206004820152601e60248201527f556e697377617056324c6962726172793a20494e56414c49445f5041544800006044820152606401610d74565b82516001600160401b0381111561144f5761144f611da3565b604051908082528060200260200182016040528015611478578160200160208202803683370190505b509050838160008151811061148f5761148f6120d0565b60200260200101818152505060005b600184516114ac9190612875565b81101561156557600080611500888785815181106114cc576114cc6120d0565b6020026020010151888660016114e2919061288c565b815181106114f2576114f26120d0565b602002602001015188611830565b91509150611528848481518110611519576115196120d0565b602002602001015183836118fc565b8461153485600161288c565b81518110611544576115446120d0565b6020026020010181815250505050808061155d906126e4565b91505061149e565b50949350505050565b600080600061157d8686611a10565b6040516001600160601b0319606084811b8216602084015283901b1660348201529193509150879060480160405160208183030381529060405280519060200120856040516020016115ff939291906001600160f81b0319815260609390931b6001600160601b03191660018401526015830191909152603582015260550190565b60408051601f198184030181529190528051602090910120979650505050505050565b60005b600183516116339190612875565b811015610a375760008084838151811061164f5761164f6120d0565b602002602001015185846001611665919061288c565b81518110611675576116756120d0565b602002602001015191509150600061168d8383611a10565b50905060008761169e86600161288c565b815181106116ae576116ae6120d0565b60200260200101519050600080836001600160a01b0316866001600160a01b0316146116dc578260006116e0565b6000835b91509150600060028a516116f49190612875565b8810611700578861172d565b60005461172d906001600160a01b0316878c61171d8c600261288c565b81518110610dc557610dc56120d0565b905061175060008054906101000a90046001600160a01b0316888860015461156e565b6001600160a01b031663022c0d9f84848460006040519080825280601f01601f19166020018201604052801561178d576020820181803683370190505b506040518563ffffffff1660e01b81526004016117ad94939291906129b9565b600060405180830381600087803b1580156117c757600080fd5b505af11580156117db573d6000803e3d6000fd5b505050505050505050505080806117f1906126e4565b915050611625565b60006127106118098360fa6129e6565b6118139190612a05565b92915050565b60606118288484600085611b07565b949350505050565b600080600061183f8686611a10565b5090506000806118518989898961156e565b6001600160a01b0316630902f1ac6040518163ffffffff1660e01b8152600401606060405180830381865afa15801561188e573d6000803e3d6000fd5b505050506040513d601f19601f820116820180604052508101906118b29190612a3e565b506001600160701b031691506001600160701b03169150826001600160a01b0316886001600160a01b0316146118e95780826118ec565b81815b909a909950975050505050505050565b60008084116119615760405162461bcd60e51b815260206004820152602b60248201527f556e697377617056324c6962726172793a20494e53554646494349454e545f4960448201526a1394155517d05353d5539560aa1b6064820152608401610d74565b6000831180156119715750600082115b6119ce5760405162461bcd60e51b815260206004820152602860248201527f556e697377617056324c6962726172793a20494e53554646494349454e545f4c604482015267495155494449545960c01b6064820152608401610d74565b60006119dc856103e5611bd7565b905060006119ea8285611bd7565b90506000611a04836119fe886103e8611bd7565b90611c3e565b9050610b848183612a05565b600080826001600160a01b0316846001600160a01b031603611a825760405162461bcd60e51b815260206004820152602560248201527f556e697377617056324c6962726172793a204944454e544943414c5f41444452604482015264455353455360d81b6064820152608401610d74565b826001600160a01b0316846001600160a01b031610611aa2578284611aa5565b83835b90925090506001600160a01b038216611b005760405162461bcd60e51b815260206004820152601e60248201527f556e697377617056324c6962726172793a205a45524f5f4144445245535300006044820152606401610d74565b9250929050565b606082471015611b685760405162461bcd60e51b815260206004820152602660248201527f416464726573733a20696e73756666696369656e742062616c616e636520666f6044820152651c8818d85b1b60d21b6064820152608401610d74565b600080866001600160a01b03168587604051611b84919061299d565b60006040518083038185875af1925050503d8060008114611bc1576040519150601f19603f3d011682016040523d82523d6000602084013e611bc6565b606091505b5091509150610b8487838387611c93565b6000811580611bfb57508282611bed81836129e6565b9250611bf99083612a05565b145b6118135760405162461bcd60e51b815260206004820152601460248201527364732d6d6174682d6d756c2d6f766572666c6f7760601b6044820152606401610d74565b600082611c4b838261288c565b91508110156118135760405162461bcd60e51b815260206004820152601460248201527364732d6d6174682d6164642d6f766572666c6f7760601b6044820152606401610d74565b60608315611d02578251600003611cfb576001600160a01b0385163b611cfb5760405162461bcd60e51b815260206004820152601d60248201527f416464726573733a2063616c6c20746f206e6f6e2d636f6e74726163740000006044820152606401610d74565b5081611828565b6118288383815115611d175781518083602001fd5b8060405162461bcd60e51b8152600401610d749190611d89565b60005b83811015611d4c578181015183820152602001611d34565b83811115610a375750506000910152565b60008151808452611d75816020860160208601611d31565b601f01601f19169290920160200192915050565b602081526000611d9c6020830184611d5d565b9392505050565b634e487b7160e01b600052604160045260246000fd5b60405161016081016001600160401b0381118282101715611ddc57611ddc611da3565b60405290565b604051601f8201601f191681016001600160401b0381118282101715611e0a57611e0a611da3565b604052919050565b60006001600160401b03821115611e2b57611e2b611da3565b5060051b60200190565b60ff81168114611e4457600080fd5b50565b60006001600160401b03821115611e6057611e60611da3565b50601f01601f191660200190565b600082601f830112611e7f57600080fd5b8135611e92611e8d82611e47565b611de2565b818152846020838601011115611ea757600080fd5b816020850160208301376000918101602001919091529392505050565b600082601f830112611ed557600080fd5b81356020611ee5611e8d83611e12565b82815260059290921b84018101918181019086841115611f0457600080fd5b8286015b84811015611f435780356001600160401b03811115611f275760008081fd5b611f358986838b0101611e6e565b845250918301918301611f08565b509695505050505050565b60008060408385031215611f6157600080fd5b82356001600160401b0380821115611f7857600080fd5b818501915085601f830112611f8c57600080fd5b81356020611f9c611e8d83611e12565b82815260059290921b84018101918181019089841115611fbb57600080fd5b948201945b83861015611fe2578535611fd381611e35565b82529482019490820190611fc0565b96505086013592505080821115611ff857600080fd5b5061200585828601611ec4565b9150509250929050565b61ffff81168114611e4457600080fd5b6001600160a01b0381168114611e4457600080fd5b60008060008060008060c0878903121561204d57600080fd5b86356120588161200f565b955060208701356001600160401b038082111561207457600080fd5b6120808a838b01611e6e565b965060408901359550606089013591506120998261201f565b9093506080880135925060a088013590808211156120b657600080fd5b506120c389828a01611e6e565b9150509295509295509295565b634e487b7160e01b600052603260045260246000fd5b600080604083850312156120f957600080fd5b82516121048161201f565b6020939093015192949293505050565b60006020828403121561212657600080fd5b5051919050565b805162ffffff8116811461214057600080fd5b919050565b600080600080600060a0868803121561215d57600080fd5b85519450602086015161216f8161201f565b60408701519094506121808161201f565b925061218e6060870161212d565b9150608086015161219e8161201f565b809150509295509295909350565b600080600080600080600080610100898b0312156121c957600080fd5b885197506020890151965060408901516121e28161201f565b60608a01519096506121f38161201f565b60808a01519095506122048161201f565b935061221260a08a0161212d565b925061222060c08a0161212d565b915060e08901516122308161201f565b809150509295985092959890939650565b80516121408161201f565b600082601f83011261225d57600080fd5b8151602061226d611e8d83611e12565b82815260059290921b8401810191818101908684111561228c57600080fd5b8286015b84811015611f435780516122a38161201f565b8352918301918301612290565b8051801515811461214057600080fd5b600080600080600060a086880312156122d857600080fd5b855194506020860151935060408601516001600160401b038111156122fc57600080fd5b6123088882890161224c565b93505060608601516123198161201f565b9150612327608087016122b0565b90509295509295909350565b600080600080600060a0868803121561234b57600080fd5b855194506020860151935060408601516001600160401b0381111561236f57600080fd5b61237b8882890161224c565b935050606086015161238c8161201f565b80925050608086015190509295509295909350565b600060a082018783526020878185015260a0604085015281875180845260c086019150828901935060005b818110156123f15784516001600160a01b0316835293830193918301916001016123cc565b50506001600160a01b03969096166060850152505050608001529392505050565b6000602080838503121561242557600080fd5b82516001600160401b0381111561243b57600080fd5b8301601f8101851361244c57600080fd5b805161245a611e8d82611e12565b81815260059190911b8201830190838101908783111561247957600080fd5b928401925b82841015610b845783518252928401929084019061247e565b80516121408161200f565b600082601f8301126124b357600080fd5b815160206124c3611e8d83611e12565b82815260059290921b840181019181810190868411156124e257600080fd5b8286015b84811015611f435780516124f981611e35565b83529183019183016124e6565b600082601f83011261251757600080fd5b81516020612527611e8d83611e12565b82815260059290921b8401810191818101908684111561254657600080fd5b8286015b84811015611f435780516001600160401b038111156125695760008081fd5b8701603f8101891361257b5760008081fd5b84810151604061258d611e8d83611e47565b8281528b828486010111156125a25760008081fd5b6125b183898301848701611d31565b865250505091830191830161254a565b60008060008385036101a08112156125d857600080fd5b610160808212156125e857600080fd5b6125f0611db9565b91506125fb86612497565b825261260960208701612241565b602083015260408601516040830152606086015160608301526080860151608083015260a086015160a083015260c086015160c083015261264c60e08701612241565b60e083015261010061265f818801612241565b90830152610120868101519083015261014080870151908301528501519093506001600160401b038082111561269457600080fd5b6126a0878388016124a2565b93506101808601519150808211156126b757600080fd5b506126c486828701612506565b9150509250925092565b634e487b7160e01b600052601160045260246000fd5b6000600182016126f6576126f66126ce565b5060010190565b60008060006060848603121561271257600080fd5b835161271d8161201f565b60208501519093506001600160401b038082111561273a57600080fd5b612746878388016124a2565b935060408601519150808211156126b757600080fd5b600081518084526020808501945080840160005b8381101561278f57815160ff1687529582019590820190600101612770565b509495945050505050565b600081518084526020808501808196508360051b8101915082860160005b858110156127e25782840389526127d0848351611d5d565b988501989350908401906001016127b8565b5091979650505050505050565b604081526000612802604083018561275c565b8281036020840152612814818561279a565b95945050505050565b602081526000825160a0602084015261283960c0840182611d5d565b905060018060a01b0360208501511660408401526040840151606084015260608401516080840152608084015160a08401528091505092915050565b600082821015612887576128876126ce565b500390565b6000821982111561289f5761289f6126ce565b500190565b6001600160a01b03841681526060602082018190526000906128c89083018561275c565b82810360408401526128da818561279a565b9695505050505050565b600061012061ffff8c1683528a602084015289604084015260018060a01b03891660608401528760808401528660a08401528060c084015285518184015250602085015161014083015260408501516060610160840152612949610180840182611d5d565b905082810360e084015261295d8186611d5d565b90508281036101008401526129728185611d5d565b9c9b505050505050505050505050565b60006020828403121561299457600080fd5b611d9c826122b0565b600082516129af818460208701611d31565b9190910192915050565b84815283602082015260018060a01b03831660408201526080606082015260006128da6080830184611d5d565b6000816000190483118215151615612a0057612a006126ce565b500290565b600082612a2257634e487b7160e01b600052601260045260246000fd5b500490565b80516001600160701b038116811461214057600080fd5b600080600060608486031215612a5357600080fd5b612a5c84612a27565b9250612a6a60208501612a27565b9150604084015163ffffffff81168114612a8357600080fd5b80915050925092509256fea26469706673582212204177d9a3205b3f8ff792c4128ab54c75f2328cafa60cbcd4029e60aa1e1f0b8964736f6c634300080f0033",
    "linkReferences": {}
  },
  "methodIdentifiers": {
    "factory()": "c45a0155",
    "feeCollector()": "c415b95c",
    "joeRouter()": "59f571e8",
    "pairCodeHash()": "9aab9248",
    "pancakeRouter()": "c21ebd07",
    "sgReceive(uint16,bytes,uint256,address,uint256,bytes)": "ab8236f3",
    "spookyRouter()": "8ed8ea7e",
    "stargateRouter()": "a9e56f3c",
    "swapRouter()": "c31c9c07",
    "swaps(uint8[],bytes[])": "67375cc8",
    "version()": "54fd4d50",
    "weth()": "3fc8cef3"
  },
  "id": 26
}