{
  "abi": [
    {
      "inputs": [
        {
          "internalType": "address",
          "name": "_weth",
          "type": "address"
        },
        {
          "internalType": "contract ISwapRouter",
          "name": "_swapRouter",
          "type": "address"
        },
        {
          "internalType": "address",
          "name": "_factory",
          "type": "address"
        },
        {
          "internalType": "bytes32",
          "name": "_pairCodeHash",
          "type": "bytes32"
        },
        {
          "internalType": "contract IStargateRouter",
          "name": "_stargateRouter",
          "type": "address"
        }
      ],
      "stateMutability": "nonpayable",
      "type": "constructor"
    },
    {
      "inputs": [],
      "name": "MustBeGt0",
      "type": "error"
    },
    {
      "inputs": [],
      "name": "NotStgRouter",
      "type": "error"
    },
    {
      "anonymous": false,
      "inputs": [
        {
          "indexed": true,
          "internalType": "address",
          "name": "token",
          "type": "address"
        },
        {
          "indexed": false,
          "internalType": "uint256",
          "name": "amountLD",
          "type": "uint256"
        },
        {
          "indexed": false,
          "internalType": "bool",
          "name": "failed",
          "type": "bool"
        }
      ],
      "name": "ReceivedOnDestination",
      "type": "event"
    },
    {
      "inputs": [],
      "name": "factory",
      "outputs": [
        {
          "internalType": "address",
          "name": "",
          "type": "address"
        }
      ],
      "stateMutability": "view",
      "type": "function"
    },
    {
      "inputs": [],
      "name": "feeCollector",
      "outputs": [
        {
          "internalType": "address",
          "name": "",
          "type": "address"
        }
      ],
      "stateMutability": "view",
      "type": "function"
    },
    {
      "inputs": [],
      "name": "joeRouter",
      "outputs": [
        {
          "internalType": "contract IJoeRouter02",
          "name": "",
          "type": "address"
        }
      ],
      "stateMutability": "view",
      "type": "function"
    },
    {
      "inputs": [],
      "name": "pairCodeHash",
      "outputs": [
        {
          "internalType": "bytes32",
          "name": "",
          "type": "bytes32"
        }
      ],
      "stateMutability": "view",
      "type": "function"
    },
    {
      "inputs": [],
      "name": "pancakeRouter",
      "outputs": [
        {
          "internalType": "contract IPancakeRouter02",
          "name": "",
          "type": "address"
        }
      ],
      "stateMutability": "view",
      "type": "function"
    },
    {
      "inputs": [
        {
          "internalType": "uint16",
          "name": "",
          "type": "uint16"
        },
        {
          "internalType": "bytes",
          "name": "",
          "type": "bytes"
        },
        {
          "internalType": "uint256",
          "name": "",
          "type": "uint256"
        },
        {
          "internalType": "address",
          "name": "_token",
          "type": "address"
        },
        {
          "internalType": "uint256",
          "name": "amountLD",
          "type": "uint256"
        },
        {
          "internalType": "bytes",
          "name": "_payload",
          "type": "bytes"
        }
      ],
      "name": "sgReceive",
      "outputs": [],
      "stateMutability": "nonpayable",
      "type": "function"
    },
    {
      "inputs": [],
      "name": "spookyRouter",
      "outputs": [
        {
          "internalType": "contract IUniswapV2Router02",
          "name": "",
          "type": "address"
        }
      ],
      "stateMutability": "view",
      "type": "function"
    },
    {
      "inputs": [],
      "name": "stargateRouter",
      "outputs": [
        {
          "internalType": "contract IStargateRouter",
          "name": "",
          "type": "address"
        }
      ],
      "stateMutability": "view",
      "type": "function"
    },
    {
      "inputs": [],
      "name": "swapRouter",
      "outputs": [
        {
          "internalType": "contract ISwapRouter",
          "name": "",
          "type": "address"
        }
      ],
      "stateMutability": "view",
      "type": "function"
    },
    {
      "inputs": [
        {
          "internalType": "uint8[]",
          "name": "steps",
          "type": "uint8[]"
        },
        {
          "internalType": "bytes[]",
          "name": "data",
          "type": "bytes[]"
        }
      ],
      "name": "swaps",
      "outputs": [],
      "stateMutability": "payable",
      "type": "function"
    },
    {
      "inputs": [],
      "name": "weth",
      "outputs": [
        {
          "internalType": "address",
          "name": "",
          "type": "address"
        }
      ],
      "stateMutability": "view",
      "type": "function"
    },
    {
      "stateMutability": "payable",
      "type": "receive"
    }
  ],
  "bytecode": {
    "object": "0x6101006040523480156200001257600080fd5b5060405162002bb738038062002bb783398101604081905262000035916200008a565b6001600160a01b03938416608052600080546001600160a01b03191693851693909317909255600155811660a0523360c0521660e052620000fe565b6001600160a01b03811681146200008757600080fd5b50565b600080600080600060a08688031215620000a357600080fd5b8551620000b08162000071565b6020870151909550620000c38162000071565b6040870151909450620000d68162000071565b606087015160808801519194509250620000f08162000071565b809150509295509295909350565b60805160a05160c05160e051612a41620001766000396000818160be01526103730152600081816102480152610f6e015260008181610198015281816107de01528181610f980152610fdb01526000818161021401528181610a0001528181610acd01528181610b4f0152610c060152612a416000f3fe6080604052600436106100a05760003560e01c8063a9e56f3c11610064578063a9e56f3c14610186578063ab8236f3146101ba578063c21ebd07146101da578063c31c9c0714610202578063c415b95c14610236578063c45a01551461026a57600080fd5b80633fc8cef3146100ac57806359f571e8146100fd57806367375cc8146101255780638ed8ea7e1461013a5780639aab92481461016257600080fd5b366100a757005b600080fd5b3480156100b857600080fd5b506100e07f000000000000000000000000000000000000000000000000000000000000000081565b6040516001600160a01b0390911681526020015b60405180910390f35b34801561010957600080fd5b506100e07360ae616a2155ee3d9a68541ba4544862310933d481565b610138610133366004611e98565b61028a565b005b34801561014657600080fd5b506100e073f491e7b69e4244ad4002bc14e878a34207e38c2981565b34801561016e57600080fd5b5061017860015481565b6040519081526020016100f4565b34801561019257600080fd5b506100e07f000000000000000000000000000000000000000000000000000000000000000081565b3480156101c657600080fd5b506101386101d5366004611f7e565b6107d3565b3480156101e657600080fd5b506100e07310ed43c718714eb63d5aa57b78b54704e256024e81565b34801561020e57600080fd5b506100e07f000000000000000000000000000000000000000000000000000000000000000081565b34801561024257600080fd5b506100e07f000000000000000000000000000000000000000000000000000000000000000081565b34801561027657600080fd5b506000546100e0906001600160a01b031681565b600034116102ab5760405163c9935ff960e01b815260040160405180910390fd5b60005b82518110156107ce5760008382815181106102cb576102cb61201a565b60200260200101519050600160ff168160ff1603610334576000808484815181106102f8576102f861201a565b60200260200101518060200190518101906103139190612030565b909250905061032d6001600160a01b038316333084610987565b50506107bb565b60011960ff8216016103eb5760008383815181106103545761035461201a565b602002602001015180602001905181019061036f919061205e565b90507f00000000000000000000000000000000000000000000000000000000000000006001600160a01b031663d0e30db0826040518263ffffffff1660e01b81526004016000604051808303818588803b1580156103cc57600080fd5b505af11580156103e0573d6000803e3d6000fd5b5050505050506107bb565b60021960ff8216016104485760008060008086868151811061040f5761040f61201a565b602002602001015180602001905181019061042a919061208f565b935093509350935061043e848484846109f8565b50505050506107bb565b60031960ff8216016104b05760008060008060008088888151811061046f5761046f61201a565b602002602001015180602001905181019061048a91906120e1565b9550955095509550955095506104a4868686868686610b47565b505050505050506107bb565b60041960ff8216016105085760008060008060008787815181106104d6576104d661201a565b60200260200101518060200190518101906104f191906121d5565b945094509450945094506103e08585858585610c8a565b60051960ff82160161062557600080600080600087878151811061052e5761052e61201a565b60200260200101518060200190518101906105499190612248565b9450945094509450945061059f7360ae616a2155ee3d9a68541ba4544862310933d4868560008151811061057f5761057f61201a565b60200260200101516001600160a01b0316610e559092919063ffffffff16565b6040516338ed173960e01b81527360ae616a2155ee3d9a68541ba4544862310933d4906338ed1739906105de90889088908890889088906004016122b6565b6000604051808303816000875af11580156105fd573d6000803e3d6000fd5b505050506040513d6000823e601f3d908101601f191682016040526103e09190810190612327565b60061960ff8216016106db57600080600080600087878151811061064b5761064b61201a565b60200260200101518060200190518101906106669190612248565b9450945094509450945061069c7310ed43c718714eb63d5aa57b78b54704e256024e868560008151811061057f5761057f61201a565b6040516338ed173960e01b81527310ed43c718714eb63d5aa57b78b54704e256024e906338ed1739906105de90889088908890889088906004016122b6565b60071960ff8216016107685760008060008060008787815181106107015761070161201a565b602002602001015180602001905181019061071c9190612248565b6040516338ed173960e01b81529499509297509095509350915073f491e7b69e4244ad4002bc14e878a34207e38c29906338ed1739906105de90889088908890889088906004016122b6565b60081960ff8216016107bb57600080600085858151811061078b5761078b61201a565b60200260200101518060200190518101906107a69190612502565b9250925092506107b7838383610f07565b5050505b50806107c681612625565b9150506102ae565b505050565b336001600160a01b037f0000000000000000000000000000000000000000000000000000000000000000161461081c57604051638afe477f60e01b815260040160405180910390fd5b600080600083806020019051810190610835919061263e565b604051630ce6eb9960e31b8152929550909350915060009030906367375cc890610865908690869060040161275c565b600060405180830381600087803b15801561087f57600080fd5b505af1925050508015610890575060015b6108de573d8080156108be576040519150601f19603f3d011682016040523d82523d6000602084013e6108c3565b606091505b506108d86001600160a01b0389168689611191565b60019150505b4715610936576040516001600160a01b038516904790600081818185875af1925050503d806000811461092d576040519150601f19603f3d011682016040523d82523d6000602084013e610932565b606091505b5050505b6040805187815282151560208201526001600160a01b038916917f9dce3c3c57554c8def96dde02f36aa27df20d75f725d07f54fac61ffd61a7cf6910160405180910390a250505050505050505050565b6040516001600160a01b03808516602483015283166044820152606481018290526109f29085906323b872dd60e01b906084015b60408051601f198184030181529190526020810180516001600160e01b03166001600160e01b0319909316929092179091526111c1565b50505050565b6000610a25847f000000000000000000000000000000000000000000000000000000000000000087611293565b60408051610100810182526001600160a01b0386811682528581166020830190815262ffffff8681168486019081523060608601908152426080870190815260a087018d8152600060c0890181815260e08a01918252995163414bf38960e01b815289518916600482015296518816602488015293519094166044860152905185166064850152516084840152905160a4830152935160c48201529251811660e484015290917f00000000000000000000000000000000000000000000000000000000000000009091169063414bf38990610104016020604051808303816000875af1158015610b19573d6000803e3d6000fd5b505050506040513d601f19601f82011682018060405250810190610b3d919061205e565b9695505050505050565b6000610b74867f000000000000000000000000000000000000000000000000000000000000000089611293565b6040805160a0810182526001600160601b0319606089811b821660c08401526001600160e81b031960e888811b821660d48601528a831b841660d786015287901b1660eb84015287811b90911660ee830152825180830360e20181526101028301845282523060208301524282840152810189905260006080820152905163c04b8d5960e01b81526001600160a01b037f0000000000000000000000000000000000000000000000000000000000000000169063c04b8d5990610c3b90849060040161278a565b6020604051808303816000875af1158015610c5a573d6000803e3d6000fd5b505050506040513d601f19601f82011682018060405250810190610c7e919061205e565b98975050505050505050565b600080610cae60008054906101000a90046001600160a01b03168887600154611393565b90508060018251610cbf91906127e2565b81518110610ccf57610ccf61201a565b6020026020010151915085821015610d2e5760405162461bcd60e51b815260206004820152601760248201527f696e73756666696369656e742d616d6f756e742d6f757400000000000000000060448201526064015b60405180910390fd5b8215610e4057600080548651610e4092610d86926001600160a01b031691899190610d5b57610d5b61201a565b602002602001015188600181518110610d7657610d7661201a565b602002602001015160015461151f565b86600081518110610d9957610d9961201a565b60209081029190910101516040516370a0823160e01b81523060048201526001600160a01b03909116906370a0823190602401602060405180830381865afa158015610de9573d6000803e3d6000fd5b505050506040513d601f19601f82011682018060405250810190610e0d919061205e565b87600081518110610e2057610e2061201a565b60200260200101516001600160a01b03166111919092919063ffffffff16565b610e4b8186866115d3565b5095945050505050565b604051636eb1769f60e11b81523060048201526001600160a01b038381166024830152600091839186169063dd62ed3e90604401602060405180830381865afa158015610ea6573d6000803e3d6000fd5b505050506040513d601f19601f82011682018060405250810190610eca919061205e565b610ed491906127f9565b6040516001600160a01b0385166024820152604481018290529091506109f290859063095ea7b360e01b906064016109bb565b60008361010001518383604051602001610f2393929190612811565b60405160208183030381529060405290506000610f4385608001516117aa565b9050808560800151610f5591906127e2565b60808601526020850151610f93906001600160a01b03167f000000000000000000000000000000000000000000000000000000000000000083611191565b610fd97f0000000000000000000000000000000000000000000000000000000000000000866080015187602001516001600160a01b0316610e559092919063ffffffff16565b7f00000000000000000000000000000000000000000000000000000000000000006001600160a01b0316639fbf10fc866000015187604001518860600151338a608001516000036110975760208b01516040516370a0823160e01b81523060048201526001600160a01b03909116906370a0823190602401602060405180830381865afa15801561106e573d6000803e3d6000fd5b505050506040513d601f19601f82011682018060405250810190611092919061205e565b61109d565b8a608001515b8b60a0015160405180606001604052808e610120015181526020018e60c0015181526020018e60e001516040516020016110ea919060609190911b6001600160601b031916815260140190565b6040516020818303038152906040528152508d60e00151604051602001611124919060609190911b6001600160601b031916815260140190565b6040516020818303038152906040528b6040518a63ffffffff1660e01b815260040161115899989796959493929190612847565b600060405180830381600087803b15801561117257600080fd5b505af1158015611186573d6000803e3d6000fd5b505050505050505050565b6040516001600160a01b0383166024820152604481018290526107ce90849063a9059cbb60e01b906064016109bb565b6000611216826040518060400160405280602081526020017f5361666545524332303a206c6f772d6c6576656c2063616c6c206661696c6564815250856001600160a01b03166117ca9092919063ffffffff16565b8051909150156107ce578080602001905181019061123491906128e5565b6107ce5760405162461bcd60e51b815260206004820152602a60248201527f5361666545524332303a204552433230206f7065726174696f6e20646964206e6044820152691bdd081cdd58d8d9595960b21b6064820152608401610d25565b604080516001600160a01b038481166024830152604480830185905283518084039091018152606490920183526020820180516001600160e01b031663095ea7b360e01b17905291516000928392908716916112ef9190612907565b6000604051808303816000865af19150503d806000811461132c576040519150601f19603f3d011682016040523d82523d6000602084013e611331565b606091505b509150915081801561135b57508051158061135b57508080602001905181019061135b91906128e5565b61138c5760405162461bcd60e51b8152602060048201526002602482015261534160f01b6044820152606401610d25565b5050505050565b60606002835110156113e75760405162461bcd60e51b815260206004820152601e60248201527f556e697377617056324c6962726172793a20494e56414c49445f5041544800006044820152606401610d25565b82516001600160401b0381111561140057611400611ced565b604051908082528060200260200182016040528015611429578160200160208202803683370190505b50905083816000815181106114405761144061201a565b60200260200101818152505060005b6001845161145d91906127e2565b811015611516576000806114b18887858151811061147d5761147d61201a565b60200260200101518886600161149391906127f9565b815181106114a3576114a361201a565b6020026020010151886117e1565b915091506114d98484815181106114ca576114ca61201a565b602002602001015183836118ad565b846114e58560016127f9565b815181106114f5576114f561201a565b6020026020010181815250505050808061150e90612625565b91505061144f565b50949350505050565b600080600061152e86866119cc565b6040516001600160601b0319606084811b8216602084015283901b1660348201529193509150879060480160405160208183030381529060405280519060200120856040516020016115b0939291906001600160f81b0319815260609390931b6001600160601b03191660018401526015830191909152603582015260550190565b60408051601f198184030181529190528051602090910120979650505050505050565b60005b600183516115e491906127e2565b8110156109f2576000808483815181106116005761160061201a565b60200260200101518584600161161691906127f9565b815181106116265761162661201a565b602002602001015191509150600061163e83836119cc565b50905060008761164f8660016127f9565b8151811061165f5761165f61201a565b60200260200101519050600080836001600160a01b0316866001600160a01b03161461168d57826000611691565b6000835b91509150600060028a516116a591906127e2565b88106116b157886116de565b6000546116de906001600160a01b0316878c6116ce8c60026127f9565b81518110610d7657610d7661201a565b905061170160008054906101000a90046001600160a01b0316888860015461151f565b6001600160a01b031663022c0d9f84848460006040519080825280601f01601f19166020018201604052801561173e576020820181803683370190505b506040518563ffffffff1660e01b815260040161175e9493929190612923565b600060405180830381600087803b15801561177857600080fd5b505af115801561178c573d6000803e3d6000fd5b505050505050505050505080806117a290612625565b9150506115d6565b60006127106117ba8360fa612950565b6117c4919061296f565b92915050565b60606117d98484600085611ac3565b949350505050565b60008060006117f086866119cc565b5090506000806118028989898961151f565b6001600160a01b0316630902f1ac6040518163ffffffff1660e01b8152600401606060405180830381865afa15801561183f573d6000803e3d6000fd5b505050506040513d601f19601f8201168201806040525081019061186391906129a8565b506001600160701b031691506001600160701b03169150826001600160a01b0316886001600160a01b03161461189a57808261189d565b81815b909a909950975050505050505050565b60008084116119125760405162461bcd60e51b815260206004820152602b60248201527f556e697377617056324c6962726172793a20494e53554646494349454e545f4960448201526a1394155517d05353d5539560aa1b6064820152608401610d25565b6000831180156119225750600082115b61197f5760405162461bcd60e51b815260206004820152602860248201527f556e697377617056324c6962726172793a20494e53554646494349454e545f4c604482015267495155494449545960c01b6064820152608401610d25565b600061198d856103e5611b93565b9050600061199b8285611b93565b905060006119b5836119af886103e8611b93565b90611bfa565b90506119c1818361296f565b979650505050505050565b600080826001600160a01b0316846001600160a01b031603611a3e5760405162461bcd60e51b815260206004820152602560248201527f556e697377617056324c6962726172793a204944454e544943414c5f41444452604482015264455353455360d81b6064820152608401610d25565b826001600160a01b0316846001600160a01b031610611a5e578284611a61565b83835b90925090506001600160a01b038216611abc5760405162461bcd60e51b815260206004820152601e60248201527f556e697377617056324c6962726172793a205a45524f5f4144445245535300006044820152606401610d25565b9250929050565b606082471015611b245760405162461bcd60e51b815260206004820152602660248201527f416464726573733a20696e73756666696369656e742062616c616e636520666f6044820152651c8818d85b1b60d21b6064820152608401610d25565b600080866001600160a01b03168587604051611b409190612907565b60006040518083038185875af1925050503d8060008114611b7d576040519150601f19603f3d011682016040523d82523d6000602084013e611b82565b606091505b50915091506119c187838387611c4f565b6000811580611bb757508282611ba98183612950565b9250611bb5908361296f565b145b6117c45760405162461bcd60e51b815260206004820152601460248201527364732d6d6174682d6d756c2d6f766572666c6f7760601b6044820152606401610d25565b600082611c0783826127f9565b91508110156117c45760405162461bcd60e51b815260206004820152601460248201527364732d6d6174682d6164642d6f766572666c6f7760601b6044820152606401610d25565b60608315611cbe578251600003611cb7576001600160a01b0385163b611cb75760405162461bcd60e51b815260206004820152601d60248201527f416464726573733a2063616c6c20746f206e6f6e2d636f6e74726163740000006044820152606401610d25565b50816117d9565b6117d98383815115611cd35781518083602001fd5b8060405162461bcd60e51b8152600401610d2591906129f8565b634e487b7160e01b600052604160045260246000fd5b60405161016081016001600160401b0381118282101715611d2657611d26611ced565b60405290565b604051601f8201601f191681016001600160401b0381118282101715611d5457611d54611ced565b604052919050565b60006001600160401b03821115611d7557611d75611ced565b5060051b60200190565b60ff81168114611d8e57600080fd5b50565b60006001600160401b03821115611daa57611daa611ced565b50601f01601f191660200190565b600082601f830112611dc957600080fd5b8135611ddc611dd782611d91565b611d2c565b818152846020838601011115611df157600080fd5b816020850160208301376000918101602001919091529392505050565b600082601f830112611e1f57600080fd5b81356020611e2f611dd783611d5c565b82815260059290921b84018101918181019086841115611e4e57600080fd5b8286015b84811015611e8d5780356001600160401b03811115611e715760008081fd5b611e7f8986838b0101611db8565b845250918301918301611e52565b509695505050505050565b60008060408385031215611eab57600080fd5b82356001600160401b0380821115611ec257600080fd5b818501915085601f830112611ed657600080fd5b81356020611ee6611dd783611d5c565b82815260059290921b84018101918181019089841115611f0557600080fd5b948201945b83861015611f2c578535611f1d81611d7f565b82529482019490820190611f0a565b96505086013592505080821115611f4257600080fd5b50611f4f85828601611e0e565b9150509250929050565b61ffff81168114611d8e57600080fd5b6001600160a01b0381168114611d8e57600080fd5b60008060008060008060c08789031215611f9757600080fd5b8635611fa281611f59565b955060208701356001600160401b0380821115611fbe57600080fd5b611fca8a838b01611db8565b96506040890135955060608901359150611fe382611f69565b9093506080880135925060a0880135908082111561200057600080fd5b5061200d89828a01611db8565b9150509295509295509295565b634e487b7160e01b600052603260045260246000fd5b6000806040838503121561204357600080fd5b825161204e81611f69565b6020939093015192949293505050565b60006020828403121561207057600080fd5b5051919050565b805162ffffff8116811461208a57600080fd5b919050565b600080600080608085870312156120a557600080fd5b8451935060208501516120b781611f69565b60408601519093506120c881611f69565b91506120d660608601612077565b905092959194509250565b60008060008060008060c087890312156120fa57600080fd5b86519550602087015161210c81611f69565b604088015190955061211d81611f69565b606088015190945061212e81611f69565b925061213c60808801612077565b915061214a60a08801612077565b90509295509295509295565b805161208a81611f69565b600082601f83011261217257600080fd5b81516020612182611dd783611d5c565b82815260059290921b840181019181810190868411156121a157600080fd5b8286015b84811015611e8d5780516121b881611f69565b83529183019183016121a5565b8051801515811461208a57600080fd5b600080600080600060a086880312156121ed57600080fd5b855194506020860151935060408601516001600160401b0381111561221157600080fd5b61221d88828901612161565b935050606086015161222e81611f69565b915061223c608087016121c5565b90509295509295909350565b600080600080600060a0868803121561226057600080fd5b855194506020860151935060408601516001600160401b0381111561228457600080fd5b61229088828901612161565b93505060608601516122a181611f69565b80925050608086015190509295509295909350565b600060a082018783526020878185015260a0604085015281875180845260c086019150828901935060005b818110156123065784516001600160a01b0316835293830193918301916001016122e1565b50506001600160a01b03969096166060850152505050608001529392505050565b6000602080838503121561233a57600080fd5b82516001600160401b0381111561235057600080fd5b8301601f8101851361236157600080fd5b805161236f611dd782611d5c565b81815260059190911b8201830190838101908783111561238e57600080fd5b928401925b828410156119c157835182529284019290840190612393565b805161208a81611f59565b600082601f8301126123c857600080fd5b815160206123d8611dd783611d5c565b82815260059290921b840181019181810190868411156123f757600080fd5b8286015b84811015611e8d57805161240e81611d7f565b83529183019183016123fb565b60005b8381101561243657818101518382015260200161241e565b838111156109f25750506000910152565b600082601f83011261245857600080fd5b81516020612468611dd783611d5c565b82815260059290921b8401810191818101908684111561248757600080fd5b8286015b84811015611e8d5780516001600160401b038111156124aa5760008081fd5b8701603f810189136124bc5760008081fd5b8481015160406124ce611dd783611d91565b8281528b828486010111156124e35760008081fd5b6124f28389830184870161241b565b865250505091830191830161248b565b60008060008385036101a081121561251957600080fd5b6101608082121561252957600080fd5b612531611d03565b915061253c866123ac565b825261254a60208701612156565b602083015260408601516040830152606086015160608301526080860151608083015260a086015160a083015260c086015160c083015261258d60e08701612156565b60e08301526101006125a0818801612156565b90830152610120868101519083015261014080870151908301528501519093506001600160401b03808211156125d557600080fd5b6125e1878388016123b7565b93506101808601519150808211156125f857600080fd5b5061260586828701612447565b9150509250925092565b634e487b7160e01b600052601160045260246000fd5b6000600182016126375761263761260f565b5060010190565b60008060006060848603121561265357600080fd5b835161265e81611f69565b60208501519093506001600160401b038082111561267b57600080fd5b612687878388016123b7565b935060408601519150808211156125f857600080fd5b600081518084526020808501945080840160005b838110156126d057815160ff16875295820195908201906001016126b1565b509495945050505050565b600081518084526126f381602086016020860161241b565b601f01601f19169290920160200192915050565b600081518084526020808501808196508360051b8101915082860160005b8581101561274f57828403895261273d8483516126db565b98850198935090840190600101612725565b5091979650505050505050565b60408152600061276f604083018561269d565b82810360208401526127818185612707565b95945050505050565b602081526000825160a060208401526127a660c08401826126db565b905060018060a01b0360208501511660408401526040840151606084015260608401516080840152608084015160a08401528091505092915050565b6000828210156127f4576127f461260f565b500390565b6000821982111561280c5761280c61260f565b500190565b6001600160a01b03841681526060602082018190526000906128359083018561269d565b8281036040840152610b3d8185612707565b600061012061ffff8c1683528a602084015289604084015260018060a01b03891660608401528760808401528660a08401528060c0840152855181840152506020850151610140830152604085015160606101608401526128ac6101808401826126db565b905082810360e08401526128c081866126db565b90508281036101008401526128d581856126db565b9c9b505050505050505050505050565b6000602082840312156128f757600080fd5b612900826121c5565b9392505050565b6000825161291981846020870161241b565b9190910192915050565b84815283602082015260018060a01b0383166040820152608060608201526000610b3d60808301846126db565b600081600019048311821515161561296a5761296a61260f565b500290565b60008261298c57634e487b7160e01b600052601260045260246000fd5b500490565b80516001600160701b038116811461208a57600080fd5b6000806000606084860312156129bd57600080fd5b6129c684612991565b92506129d460208501612991565b9150604084015163ffffffff811681146129ed57600080fd5b809150509250925092565b60208152600061290060208301846126db56fea2646970667358221220254693e9d9007eb88af1701ba8ab5950ea062593f47eb0d2ba2594445f6a84cc64736f6c634300080f0033",
    "linkReferences": {}
  },
  "methodIdentifiers": {
    "factory()": "c45a0155",
    "feeCollector()": "c415b95c",
    "joeRouter()": "59f571e8",
    "pairCodeHash()": "9aab9248",
    "pancakeRouter()": "c21ebd07",
    "sgReceive(uint16,bytes,uint256,address,uint256,bytes)": "ab8236f3",
    "spookyRouter()": "8ed8ea7e",
    "stargateRouter()": "a9e56f3c",
    "swapRouter()": "c31c9c07",
    "swaps(uint8[],bytes[])": "67375cc8",
    "weth()": "3fc8cef3"
  },
  "id": 47
}