{
  "abi": [
    {
      "inputs": [
        {
          "internalType": "address",
          "name": "_weth",
          "type": "address"
        },
        {
          "internalType": "contract ISwapRouter",
          "name": "_swapRouter",
          "type": "address"
        },
        {
          "internalType": "address",
          "name": "_sushiFactory",
          "type": "address"
        },
        {
          "internalType": "bytes32",
          "name": "_sushiPairCodeHash",
          "type": "bytes32"
        },
        {
          "internalType": "contract IStargateRouter",
          "name": "_stargateRouter",
          "type": "address"
        }
      ],
      "stateMutability": "nonpayable",
      "type": "constructor"
    },
    {
      "inputs": [],
      "name": "MoreThanZero",
      "type": "error"
    },
    {
      "inputs": [],
      "name": "MustBeGt0",
      "type": "error"
    },
    {
      "inputs": [],
      "name": "NotEnoughSteps",
      "type": "error"
    },
    {
      "inputs": [],
      "name": "NotStgRouter",
      "type": "error"
    },
    {
      "anonymous": false,
      "inputs": [
        {
          "indexed": false,
          "internalType": "address",
          "name": "_token",
          "type": "address"
        },
        {
          "indexed": false,
          "internalType": "uint256",
          "name": "_fee",
          "type": "uint256"
        }
      ],
      "name": "FeePaid",
      "type": "event"
    },
    {
      "anonymous": false,
      "inputs": [
        {
          "indexed": true,
          "internalType": "address",
          "name": "token",
          "type": "address"
        },
        {
          "indexed": false,
          "internalType": "uint256",
          "name": "amountLD",
          "type": "uint256"
        },
        {
          "indexed": false,
          "internalType": "bool",
          "name": "failed",
          "type": "bool"
        },
        {
          "indexed": false,
          "internalType": "bool",
          "name": "dustSent",
          "type": "bool"
        }
      ],
      "name": "ReceivedOnDestination",
      "type": "event"
    },
    {
      "inputs": [],
      "name": "factory",
      "outputs": [
        {
          "internalType": "address",
          "name": "",
          "type": "address"
        }
      ],
      "stateMutability": "view",
      "type": "function"
    },
    {
      "inputs": [],
      "name": "feeCollector",
      "outputs": [
        {
          "internalType": "address",
          "name": "",
          "type": "address"
        }
      ],
      "stateMutability": "view",
      "type": "function"
    },
    {
      "inputs": [
        {
          "internalType": "uint256",
          "name": "amountIn",
          "type": "uint256"
        },
        {
          "internalType": "address",
          "name": "tokenIn",
          "type": "address"
        },
        {
          "internalType": "address",
          "name": "tokenOut",
          "type": "address"
        }
      ],
      "name": "getAmountOut",
      "outputs": [
        {
          "internalType": "uint256",
          "name": "amount",
          "type": "uint256"
        },
        {
          "internalType": "bool",
          "name": "stable",
          "type": "bool"
        }
      ],
      "stateMutability": "view",
      "type": "function"
    },
    {
      "inputs": [
        {
          "internalType": "uint256",
          "name": "amountIn",
          "type": "uint256"
        },
        {
          "components": [
            {
              "internalType": "address",
              "name": "from",
              "type": "address"
            },
            {
              "internalType": "address",
              "name": "to",
              "type": "address"
            },
            {
              "internalType": "bool",
              "name": "stable",
              "type": "bool"
            }
          ],
          "internalType": "struct VelodromeAdapter.route[]",
          "name": "routes",
          "type": "tuple[]"
        }
      ],
      "name": "getAmountsOut",
      "outputs": [
        {
          "internalType": "uint256[]",
          "name": "amounts",
          "type": "uint256[]"
        }
      ],
      "stateMutability": "view",
      "type": "function"
    },
    {
      "inputs": [
        {
          "internalType": "address",
          "name": "pair",
          "type": "address"
        }
      ],
      "name": "isPair",
      "outputs": [
        {
          "internalType": "bool",
          "name": "",
          "type": "bool"
        }
      ],
      "stateMutability": "view",
      "type": "function"
    },
    {
      "inputs": [],
      "name": "joeRouter",
      "outputs": [
        {
          "internalType": "contract IJoeRouter02",
          "name": "",
          "type": "address"
        }
      ],
      "stateMutability": "view",
      "type": "function"
    },
    {
      "inputs": [],
      "name": "pairCodeHash",
      "outputs": [
        {
          "internalType": "bytes32",
          "name": "",
          "type": "bytes32"
        }
      ],
      "stateMutability": "view",
      "type": "function"
    },
    {
      "inputs": [
        {
          "internalType": "address",
          "name": "tokenA",
          "type": "address"
        },
        {
          "internalType": "address",
          "name": "tokenB",
          "type": "address"
        },
        {
          "internalType": "bool",
          "name": "stable",
          "type": "bool"
        }
      ],
      "name": "pairFor",
      "outputs": [
        {
          "internalType": "address",
          "name": "pair",
          "type": "address"
        }
      ],
      "stateMutability": "pure",
      "type": "function"
    },
    {
      "inputs": [],
      "name": "pancakeRouter",
      "outputs": [
        {
          "internalType": "contract IPancakeRouter02",
          "name": "",
          "type": "address"
        }
      ],
      "stateMutability": "view",
      "type": "function"
    },
    {
      "inputs": [
        {
          "internalType": "uint16",
          "name": "",
          "type": "uint16"
        },
        {
          "internalType": "bytes",
          "name": "",
          "type": "bytes"
        },
        {
          "internalType": "uint256",
          "name": "",
          "type": "uint256"
        },
        {
          "internalType": "address",
          "name": "_token",
          "type": "address"
        },
        {
          "internalType": "uint256",
          "name": "amountLD",
          "type": "uint256"
        },
        {
          "internalType": "bytes",
          "name": "_payload",
          "type": "bytes"
        }
      ],
      "name": "sgReceive",
      "outputs": [],
      "stateMutability": "nonpayable",
      "type": "function"
    },
    {
      "inputs": [
        {
          "internalType": "address",
          "name": "tokenA",
          "type": "address"
        },
        {
          "internalType": "address",
          "name": "tokenB",
          "type": "address"
        }
      ],
      "name": "sortTokens",
      "outputs": [
        {
          "internalType": "address",
          "name": "token0",
          "type": "address"
        },
        {
          "internalType": "address",
          "name": "token1",
          "type": "address"
        }
      ],
      "stateMutability": "pure",
      "type": "function"
    },
    {
      "inputs": [],
      "name": "spookyRouter",
      "outputs": [
        {
          "internalType": "contract IUniswapV2Router02",
          "name": "",
          "type": "address"
        }
      ],
      "stateMutability": "view",
      "type": "function"
    },
    {
      "inputs": [],
      "name": "stargateRouter",
      "outputs": [
        {
          "internalType": "contract IStargateRouter",
          "name": "",
          "type": "address"
        }
      ],
      "stateMutability": "view",
      "type": "function"
    },
    {
      "inputs": [],
      "name": "swapRouter",
      "outputs": [
        {
          "internalType": "contract ISwapRouter",
          "name": "",
          "type": "address"
        }
      ],
      "stateMutability": "view",
      "type": "function"
    },
    {
      "inputs": [
        {
          "internalType": "uint8[]",
          "name": "steps",
          "type": "uint8[]"
        },
        {
          "internalType": "bytes[]",
          "name": "data",
          "type": "bytes[]"
        }
      ],
      "name": "swaps",
      "outputs": [],
      "stateMutability": "payable",
      "type": "function"
    },
    {
      "inputs": [],
      "name": "veloRouter",
      "outputs": [
        {
          "internalType": "address",
          "name": "",
          "type": "address"
        }
      ],
      "stateMutability": "view",
      "type": "function"
    },
    {
      "inputs": [],
      "name": "version",
      "outputs": [
        {
          "internalType": "string",
          "name": "_version",
          "type": "string"
        }
      ],
      "stateMutability": "pure",
      "type": "function"
    },
    {
      "inputs": [],
      "name": "weth",
      "outputs": [
        {
          "internalType": "address",
          "name": "",
          "type": "address"
        }
      ],
      "stateMutability": "view",
      "type": "function"
    },
    {
      "inputs": [
        {
          "internalType": "uint256",
          "name": "amountIn",
          "type": "uint256"
        },
        {
          "internalType": "address",
          "name": "tokenIn",
          "type": "address"
        },
        {
          "internalType": "address",
          "name": "tokenOut",
          "type": "address"
        }
      ],
      "name": "xcalGetAmountOut",
      "outputs": [
        {
          "internalType": "uint256",
          "name": "amount",
          "type": "uint256"
        },
        {
          "internalType": "bool",
          "name": "stable",
          "type": "bool"
        }
      ],
      "stateMutability": "view",
      "type": "function"
    },
    {
      "inputs": [
        {
          "internalType": "uint256",
          "name": "amountIn",
          "type": "uint256"
        },
        {
          "components": [
            {
              "internalType": "address",
              "name": "from",
              "type": "address"
            },
            {
              "internalType": "address",
              "name": "to",
              "type": "address"
            },
            {
              "internalType": "bool",
              "name": "stable",
              "type": "bool"
            }
          ],
          "internalType": "struct VelodromeAdapter.route[]",
          "name": "routes",
          "type": "tuple[]"
        }
      ],
      "name": "xcalGetAmountsOut",
      "outputs": [
        {
          "internalType": "uint256[]",
          "name": "amounts",
          "type": "uint256[]"
        }
      ],
      "stateMutability": "view",
      "type": "function"
    },
    {
      "inputs": [
        {
          "internalType": "address",
          "name": "pair",
          "type": "address"
        }
      ],
      "name": "xcalIsPair",
      "outputs": [
        {
          "internalType": "bool",
          "name": "",
          "type": "bool"
        }
      ],
      "stateMutability": "view",
      "type": "function"
    },
    {
      "inputs": [
        {
          "internalType": "address",
          "name": "tokenA",
          "type": "address"
        },
        {
          "internalType": "address",
          "name": "tokenB",
          "type": "address"
        },
        {
          "internalType": "bool",
          "name": "stable",
          "type": "bool"
        }
      ],
      "name": "xcalPairFor",
      "outputs": [
        {
          "internalType": "address",
          "name": "pair",
          "type": "address"
        }
      ],
      "stateMutability": "pure",
      "type": "function"
    },
    {
      "stateMutability": "payable",
      "type": "receive"
    }
  ],
  "bytecode": {
    "object": "0x6101006040523480156200001257600080fd5b5060405162004cd438038062004cd483398101604081905262000035916200008a565b6001600160a01b03938416608052600080546001600160a01b03191693851693909317909255600155811660a0523360c0521660e052620000fe565b6001600160a01b03811681146200008757600080fd5b50565b600080600080600060a08688031215620000a357600080fd5b8551620000b08162000071565b6020870151909550620000c38162000071565b6040870151909450620000d68162000071565b606087015160808801519194509250620000f08162000071565b809150509295509295909350565b60805160a05160c05160e051614b5d6200017760003960008181610157015261096d015260008181610439015261133c0152600081816103b10152818161183b015281816123f9015261242001526000818161040501528181611a8401528181611bba01528181611c530152611d3e0152614b5d6000f3fe6080604052600436106101395760003560e01c80639881fcb4116100ab578063c21ebd071161006f578063c21ebd0714610316578063c31c9c07146103f3578063c415b95c14610427578063c45a01551461045b578063d5ef98ea1461047b578063e5e31b13146104a357600080fd5b80639881fcb41461032b5780639aab92481461035b5780639e1011c31461037f578063a9e56f3c1461039f578063ab8236f3146103d357600080fd5b806359f571e8116100fd57806359f571e8146102635780635e1e63251461028b57806367375cc8146102b15780637aee2064146102c6578063850899b4146102f65780638ed8ea7e1461031657600080fd5b80633fc8cef3146101455780634c1ee03e1461019657806351785acb146101ba578063544caa56146101ef57806354fd4d501461022f57600080fd5b3661014057005b600080fd5b34801561015157600080fd5b506101797f000000000000000000000000000000000000000000000000000000000000000081565b6040516001600160a01b0390911681526020015b60405180910390f35b3480156101a257600080fd5b506101796101b13660046135c3565b60009392505050565b3480156101c657600080fd5b506101da6101d536600461360e565b6104c4565b6040805192835290151560208301520161018d565b3480156101fb57600080fd5b5061020f61020a366004613645565b6106f8565b604080516001600160a01b0393841681529290911660208301520161018d565b34801561023b57600080fd5b5060408051808201825260058152640c0b8c0b8d60da1b6020820152905161018d91906136d6565b34801561026f57600080fd5b5061017973d7f655e3376ce2d7a2b08ff01eb3b1023191a90181565b34801561029757600080fd5b506101da6102a636600461360e565b600080935093915050565b6102c46102bf36600461372d565b6107dd565b005b3480156102d257600080fd5b506102e66102e1366004613798565b61143f565b604051901515815260200161018d565b34801561030257600080fd5b506101796103113660046135c3565b6114c4565b34801561032257600080fd5b50610179600081565b34801561033757600080fd5b5061034e610346366004613983565b606092915050565b60405161018d91906139c9565b34801561036757600080fd5b5061037160015481565b60405190815260200161018d565b34801561038b57600080fd5b5061034e61039a366004613983565b611587565b3480156103ab57600080fd5b506101797f000000000000000000000000000000000000000000000000000000000000000081565b3480156103df57600080fd5b506102c46103ee366004613a97565b611830565b3480156103ff57600080fd5b506101797f000000000000000000000000000000000000000000000000000000000000000081565b34801561043357600080fd5b506101797f000000000000000000000000000000000000000000000000000000000000000081565b34801561046757600080fd5b50600054610179906001600160a01b031681565b34801561048757600080fd5b50610179739c12939390052919af3155f41bf4160fd3666a6f81565b3480156104af57600080fd5b506102e66104be366004613798565b50600090565b60008060006104d5858560016114c4565b60405163e5e31b1360e01b81526001600160a01b0382166004820152909150600090819073d158bd9e8b6efd3ca76830b66715aa2b7bad22189063e5e31b1390602401602060405180830381865afa158015610535573d6000803e3d6000fd5b505050506040513d601f19601f820116820180604052508101906105599190613b31565b156105d2576040516378a051ad60e11b8152600481018990526001600160a01b03888116602483015284169063f140a35a90604401602060405180830381865afa1580156105ab573d6000803e3d6000fd5b505050506040513d601f19601f820116820180604052508101906105cf9190613b4e565b91505b6105de878760006114c4565b60405163e5e31b1360e01b81526001600160a01b038216600482015290935073d158bd9e8b6efd3ca76830b66715aa2b7bad22189063e5e31b1390602401602060405180830381865afa158015610639573d6000803e3d6000fd5b505050506040513d601f19601f8201168201806040525081019061065d9190613b31565b156106d6576040516378a051ad60e11b8152600481018990526001600160a01b03888116602483015284169063f140a35a90604401602060405180830381865afa1580156106af573d6000803e3d6000fd5b505050506040513d601f19601f820116820180604052508101906106d39190613b4e565b90505b8082116106e5578060006106e9565b8160015b94509450505050935093915050565b600080826001600160a01b0316846001600160a01b0316036107615760405162461bcd60e51b815260206004820152601b60248201527f526f757465723a204944454e544943414c5f414444524553534553000000000060448201526064015b60405180910390fd5b826001600160a01b0316846001600160a01b031610610781578284610784565b83835b90925090506001600160a01b0382166107d65760405162461bcd60e51b8152602060048201526014602482015273526f757465723a205a45524f5f4144445245535360601b6044820152606401610758565b9250929050565b60005b838110156114385760008585838181106107fc576107fc613b67565b90506020020160208101906108119190613b8c565b905060001960ff8216016109095760008085858581811061083457610834613b67565b90506020028101906108469190613ba9565b8101906108539190613c5e565b9150915060005b825181101561090157600082828151811061087757610877613b67565b60200260200101511161089d5760405163fe4155c760e01b815260040160405180910390fd5b6108ef33308484815181106108b4576108b4613b67565b60200260200101518685815181106108ce576108ce613b67565b60200260200101516001600160a01b03166119f2909392919063ffffffff16565b806108f981613d2e565b91505061085a565b505050611425565b60011960ff8216016109e557600084848481811061092957610929613b67565b905060200281019061093b9190613ba9565b8101906109489190613d47565b90506000811161096b5760405163fe4155c760e01b815260040160405180910390fd5b7f00000000000000000000000000000000000000000000000000000000000000006001600160a01b031663d0e30db0826040518263ffffffff1660e01b81526004016000604051808303818588803b1580156109c657600080fd5b505af11580156109da573d6000803e3d6000fd5b505050505050611425565b60021960ff821601610a75576000848484818110610a0557610a05613b67565b9050602002810190610a179190613ba9565b810190610a249190613d73565b905060005b8151811015610a6e576000828281518110610a4657610a46613b67565b60200260200101519050610a5981611a63565b50508080610a6690613d2e565b915050610a29565b5050611425565b60031960ff821601610af7576000848484818110610a9557610a95613b67565b9050602002810190610aa79190613ba9565b810190610ab49190613e5d565b905060005b8151811015610a6e57610ae4828281518110610ad757610ad7613b67565b6020026020010151611c32565b5080610aef81613d2e565b915050610ab9565b60041960ff821601610b79576000848484818110610b1757610b17613b67565b9050602002810190610b299190613ba9565b810190610b369190613f5f565b905060005b8151811015610a6e57610b66828281518110610b5957610b59613b67565b6020026020010151611d88565b5080610b7181613d2e565b915050610b3b565b60051960ff821601610d62576000848484818110610b9957610b99613b67565b9050602002810190610bab9190613ba9565b810190610bb8919061406c565b905060005b8151811015610a6e57610c4c73d7f655e3376ce2d7a2b08ff01eb3b1023191a901838381518110610bf057610bf0613b67565b602002602001015160000151848481518110610c0e57610c0e613b67565b602002602001015160400151600081518110610c2c57610c2c613b67565b60200260200101516001600160a01b0316611f689092919063ffffffff16565b73d7f655e3376ce2d7a2b08ff01eb3b1023191a9016001600160a01b03166338ed1739838381518110610c8157610c81613b67565b602002602001015160000151848481518110610c9f57610c9f613b67565b602002602001015160200151858581518110610cbd57610cbd613b67565b60200260200101516040015130878781518110610cdc57610cdc613b67565b6020026020010151606001516040518663ffffffff1660e01b8152600401610d08959493929190614166565b6000604051808303816000875af1158015610d27573d6000803e3d6000fd5b505050506040513d6000823e601f3d908101601f19168201604052610d4f91908101906141d7565b5080610d5a81613d2e565b915050610bbd565b60061960ff821601610ec9576000848484818110610d8257610d82613b67565b9050602002810190610d949190613ba9565b810190610da1919061406c565b905060005b8151811015610a6e57610dc66000838381518110610bf057610bf0613b67565b60006001600160a01b03166338ed1739838381518110610de857610de8613b67565b602002602001015160000151848481518110610e0657610e06613b67565b602002602001015160200151858581518110610e2457610e24613b67565b60200260200101516040015130878781518110610e4357610e43613b67565b6020026020010151606001516040518663ffffffff1660e01b8152600401610e6f959493929190614166565b6000604051808303816000875af1158015610e8e573d6000803e3d6000fd5b505050506040513d6000823e601f3d908101601f19168201604052610eb691908101906141d7565b5080610ec181613d2e565b915050610da6565b60071960ff821601611030576000848484818110610ee957610ee9613b67565b9050602002810190610efb9190613ba9565b810190610f08919061406c565b905060005b8151811015610a6e57610f2d6000838381518110610bf057610bf0613b67565b60006001600160a01b03166338ed1739838381518110610f4f57610f4f613b67565b602002602001015160000151848481518110610f6d57610f6d613b67565b602002602001015160200151858581518110610f8b57610f8b613b67565b60200260200101516040015130878781518110610faa57610faa613b67565b6020026020010151606001516040518663ffffffff1660e01b8152600401610fd6959493929190614166565b6000604051808303816000875af1158015610ff5573d6000803e3d6000fd5b505050506040513d6000823e601f3d908101601f1916820160405261101d91908101906141d7565b508061102881613d2e565b915050610f0d565b60081960ff82160161113c57600084848481811061105057611050613b67565b90506020028101906110629190613ba9565b81019061106f9190614322565b905060005b8151811015610a6e57611107739c12939390052919af3155f41bf4160fd3666a6f8383815181106110a7576110a7613b67565b6020026020010151600001518484815181106110c5576110c5613b67565b6020026020010151604001516000815181106110e3576110e3613b67565b6020026020010151600001516001600160a01b0316611f689092919063ffffffff16565b61112982828151811061111c5761111c613b67565b602002602001015161201a565b508061113481613d2e565b915050611074565b60091960ff8216016111e857600084848481811061115c5761115c613b67565b905060200281019061116e9190613ba9565b81019061117b9190614322565b905060005b8151811015610a6e576111b3738e72bf5a45f800e182362bdf906dfb13d5d5cb5d8383815181106110a7576110a7613b67565b6111d58282815181106111c8576111c8613b67565b6020026020010151612171565b50806111e081613d2e565b915050611180565b600a1960ff8216016113ce57600084848481811061120857611208613b67565b905060200281019061121a9190613ba9565b810190611227919061436a565b905060005b8151811015610a6e57600082828151811061124957611249613b67565b6020026020010151600001519050600083838151811061126b5761126b613b67565b6020026020010151604001519050806000036112ee576040516370a0823160e01b81523060048201526001600160a01b038316906370a0823190602401602060405180830381865afa1580156112c5573d6000803e3d6000fd5b505050506040513d601f19601f820116820180604052508101906112e99190613b4e565b6112f0565b805b9050600084848151811061130657611306613b67565b6020026020010151602001519050600061131f836122ae565b905061132b818461442d565b92506113616001600160a01b0385167f0000000000000000000000000000000000000000000000000000000000000000836122d3565b6113756001600160a01b03851683856122d3565b604080516001600160a01b0386168152602081018390527f075a2720282fdf622141dae0b048ef90a21a7e57c134c76912d19d006b3b3f6f910160405180910390a15050505080806113c690613d2e565b91505061122c565b600b1960ff8216016114255760008060008686868181106113f1576113f1613b67565b90506020028101906114039190613ba9565b8101906114109190614527565b925092509250611421838383612308565b5050505b508061143081613d2e565b9150506107e0565b5050505050565b60405163e5e31b1360e01b81526001600160a01b038216600482015260009073d158bd9e8b6efd3ca76830b66715aa2b7bad22189063e5e31b1390602401602060405180830381865afa15801561149a573d6000803e3d6000fd5b505050506040513d601f19601f820116820180604052508101906114be9190613b31565b92915050565b60008060006114d386866106f8565b6040516001600160601b0319606084811b8216602084015283901b16603482015286151560f81b6048820152919350915073d158bd9e8b6efd3ca76830b66715aa2b7bad22189060490160408051601f19818403018152908290528051602091820120611565939290917f5a3af0c2a37128debd77e4b5ead274797ab83517588883bccc90813a35706cd39101614634565b60408051601f1981840301815291905280516020909101209695505050505050565b60606001825110156115d25760405162461bcd60e51b81526020600482015260146024820152730a4deeae8cae47440929cac82989288bea082a8960631b6044820152606401610758565b81516115df906001614667565b6001600160401b038111156115f6576115f66137b5565b60405190808252806020026020018201604052801561161f578160200160208202803683370190505b509050828160008151811061163657611636613b67565b60200260200101818152505060005b82518110156118295760006116b284838151811061166557611665613b67565b60200260200101516000015185848151811061168357611683613b67565b6020026020010151602001518685815181106116a1576116a1613b67565b6020026020010151604001516114c4565b60405163e5e31b1360e01b81526001600160a01b038216600482015290915073d158bd9e8b6efd3ca76830b66715aa2b7bad22189063e5e31b1390602401602060405180830381865afa15801561170d573d6000803e3d6000fd5b505050506040513d601f19601f820116820180604052508101906117319190613b31565b1561181657806001600160a01b031663f140a35a84848151811061175757611757613b67565b602002602001015186858151811061177157611771613b67565b6020026020010151600001516040518363ffffffff1660e01b81526004016117ac9291909182526001600160a01b0316602082015260400190565b602060405180830381865afa1580156117c9573d6000803e3d6000fd5b505050506040513d601f19601f820116820180604052508101906117ed9190613b4e565b836117f9846001614667565b8151811061180957611809613b67565b6020026020010181815250505b508061182181613d2e565b915050611645565b5092915050565b336001600160a01b037f0000000000000000000000000000000000000000000000000000000000000000161461187957604051638afe477f60e01b815260040160405180910390fd5b600080600083806020019051810190611892919061473a565b604051630ce6eb9960e31b8152929550909350915060009030906367375cc8906118c2908690869060040161489b565b600060405180830381600087803b1580156118dc57600080fd5b505af19250505080156118ed575060015b61193b573d80801561191b576040519150601f19603f3d011682016040523d82523d6000602084013e611920565b606091505b506119356001600160a01b03891686896122d3565b60019150505b60004715611997576040516001600160a01b038616904790600081818185875af1925050503d806000811461198c576040519150601f19603f3d011682016040523d82523d6000602084013e611991565b606091505b50909150505b6040805188815283151560208201528215158183015290516001600160a01b038a16917f7f345d6da48bd1339fd428ff45265a0f01258b14ca09dcf8db0c469f4f732fd3919081900360600190a25050505050505050505050565b6040516001600160a01b0380851660248301528316604482015260648101829052611a5d9085906323b872dd60e01b906084015b60408051601f198184030181529190526020810180516001600160e01b03166001600160e01b031990931692909217909152612556565b50505050565b60408181015190516370a0823160e01b8152306004820152600091611aff917f0000000000000000000000000000000000000000000000000000000000000000906001600160a01b038316906370a08231906024015b602060405180830381865afa158015611ad6573d6000803e3d6000fd5b505050506040513d601f19601f82011682018060405250810190611afa9190613b4e565b612628565b6040805161010081018252838201516001600160a01b0390811682526060808601518216602080850191825260808089015162ffffff90811687890190815230958801958652429288019283528a5160a08901908152938b015160c08901908152600060e08a01908152995163414bf38960e01b8152895189166004820152955188166024870152905190911660448501529351851660648401525160848301525160a4820152905160c48201529251811660e484015290917f00000000000000000000000000000000000000000000000000000000000000009091169063414bf38990610104015b6020604051808303816000875af1158015611c07573d6000803e3d6000fd5b505050506040513d601f19601f82011682018060405250810190611c2b9190613b4e565b9392505050565b60408181015190516370a0823160e01b8152306004820152600091611c8c917f0000000000000000000000000000000000000000000000000000000000000000906001600160a01b038316906370a0823190602401611ab9565b6040805160a08082018352918401519184015160608086015160c08088015160808901516001600160601b031997851b8816928701929092526001600160e81b031960e895861b811660d488015292841b871660d787015290931b1660eb8401521b90911660ee8201526000908061010281016040516020818303038152906040528152602001306001600160a01b0316815260200142815260200184600001518152602001846020015181525090507f00000000000000000000000000000000000000000000000000000000000000006001600160a01b031663c04b8d59826040518263ffffffff1660e01b8152600401611be891906148c9565b60008054825160408401516001548493611daf936001600160a01b03909116929091612721565b90508060018251611dc0919061442d565b81518110611dd057611dd0613b67565b602002602001015191508260200151821015611e2e5760405162461bcd60e51b815260206004820152601760248201527f696e73756666696369656e742d616d6f756e742d6f75740000000000000000006044820152606401610758565b826060015115611f53576000805460408501518051611f5393611e91936001600160a01b03169291611e6257611e62613b67565b60200260200101518660400151600181518110611e8157611e81613b67565b60200260200101516001546128ad565b8460400151600081518110611ea857611ea8613b67565b60209081029190910101516040516370a0823160e01b81523060048201526001600160a01b03909116906370a0823190602401602060405180830381865afa158015611ef8573d6000803e3d6000fd5b505050506040513d601f19601f82011682018060405250810190611f1c9190613b4e565b8560400151600081518110611f3357611f33613b67565b60200260200101516001600160a01b03166122d39092919063ffffffff16565b611f6281846040015130612933565b50919050565b604051636eb1769f60e11b81523060048201526001600160a01b038381166024830152600091839186169063dd62ed3e90604401602060405180830381865afa158015611fb9573d6000803e3d6000fd5b505050506040513d601f19601f82011682018060405250810190611fdd9190613b4e565b611fe79190614667565b6040516001600160a01b038516602482015260448101829052909150611a5d90859063095ea7b360e01b90606401611a26565b60608160600151428110156120635760405162461bcd60e51b815260206004820152600f60248201526e149bdd5d195c8e8811561412549151608a1b6044820152606401610758565b606091508260200151826001845161207b919061442d565b8151811061208b5761208b613b67565b602002602001015110156120b15760405162461bcd60e51b815260040161075890614921565b61216283604001516000815181106120cb576120cb613b67565b6020026020010151600001513061214286604001516000815181106120f2576120f2613b67565b602002602001015160000151876040015160008151811061211557612115613b67565b602002602001015160200151886040015160008151811061213857612138613b67565b5060009392505050565b8560008151811061215557612155613b67565b6020026020010151612b0a565b611f6282846040015130612c02565b60608160600151428110156121ba5760405162461bcd60e51b815260206004820152600f60248201526e149bdd5d195c8e8811561412549151608a1b6044820152606401610758565b6121cc83600001518460400151611587565b9150826020015182600184516121e2919061442d565b815181106121f2576121f2613b67565b602002602001015110156122185760405162461bcd60e51b815260040161075890614921565b61229f836040015160008151811061223257612232613b67565b60200260200101516000015130612142866040015160008151811061225957612259613b67565b602002602001015160000151876040015160008151811061227c5761227c613b67565b60200260200101516020015188604001516000815181106116a1576116a1613b67565b611f6282846040015130612e51565b60006127106122bf8361270b614963565b6122c99190614982565b6114be908361442d565b6040516001600160a01b03831660248201526044810182905261230390849063a9059cbb60e01b90606401611a26565b505050565b600034116123295760405163c9935ff960e01b815260040160405180910390fd5b60008361010001518383604051602001612345939291906149a4565b604051602081830303815290604052905083608001516000036123d55760208401516040516370a0823160e01b81523060048201526001600160a01b03909116906370a0823190602401602060405180830381865afa1580156123ac573d6000803e3d6000fd5b505050506040513d601f19601f820116820180604052508101906123d09190613b4e565b6123db565b83608001515b60808501819052602085015161241e916001600160a01b03909116907f000000000000000000000000000000000000000000000000000000000000000090611f68565b7f00000000000000000000000000000000000000000000000000000000000000006001600160a01b0316639fbf10fc47866000015187604001518860600151308a608001518b60a0015160405180606001604052808e610120015181526020018e60c0015181526020018e60e001516040516020016124b0919060609190911b6001600160601b031916815260140190565b6040516020818303038152906040528152508d60e001516040516020016124ea919060609190911b6001600160601b031916815260140190565b6040516020818303038152906040528b6040518b63ffffffff1660e01b815260040161251e999897969594939291906149e4565b6000604051808303818588803b15801561253757600080fd5b505af115801561254b573d6000803e3d6000fd5b505050505050505050565b60006125ab826040518060400160405280602081526020017f5361666545524332303a206c6f772d6c6576656c2063616c6c206661696c6564815250856001600160a01b03166130719092919063ffffffff16565b80519091501561230357808060200190518101906125c99190613b31565b6123035760405162461bcd60e51b815260206004820152602a60248201527f5361666545524332303a204552433230206f7065726174696f6e20646964206e6044820152691bdd081cdd58d8d9595960b21b6064820152608401610758565b604080516001600160a01b038481166024830152604480830185905283518084039091018152606490920183526020820180516001600160e01b031663095ea7b360e01b17905291516000928392908716916126849190614a82565b6000604051808303816000865af19150503d80600081146126c1576040519150601f19603f3d011682016040523d82523d6000602084013e6126c6565b606091505b50915091508180156126f05750805115806126f05750808060200190518101906126f09190613b31565b6114385760405162461bcd60e51b8152602060048201526002602482015261534160f01b6044820152606401610758565b60606002835110156127755760405162461bcd60e51b815260206004820152601e60248201527f556e697377617056324c6962726172793a20494e56414c49445f5041544800006044820152606401610758565b82516001600160401b0381111561278e5761278e6137b5565b6040519080825280602002602001820160405280156127b7578160200160208202803683370190505b50905083816000815181106127ce576127ce613b67565b60200260200101818152505060005b600184516127eb919061442d565b8110156128a45760008061283f8887858151811061280b5761280b613b67565b6020026020010151888660016128219190614667565b8151811061283157612831613b67565b602002602001015188613088565b9150915061286784848151811061285857612858613b67565b60200260200101518383613154565b84612873856001614667565b8151811061288357612883613b67565b6020026020010181815250505050808061289c90613d2e565b9150506127dd565b50949350505050565b60008060006128bc8686613273565b6040516001600160601b0319606084811b8216602084015283901b16603482015291935091508790604801604051602081830303815290604052805190602001208560405160200161291093929190614634565b60408051601f198184030181529190528051602090910120979650505050505050565b60005b60018351612944919061442d565b811015611a5d5760008084838151811061296057612960613b67565b6020026020010151858460016129769190614667565b8151811061298657612986613b67565b602002602001015191509150600061299e8383613273565b5090506000876129af866001614667565b815181106129bf576129bf613b67565b60200260200101519050600080836001600160a01b0316866001600160a01b0316146129ed578260006129f1565b6000835b91509150600060028a51612a05919061442d565b8810612a115788612a3e565b600054612a3e906001600160a01b0316878c612a2e8c6002614667565b81518110611e8157611e81613b67565b9050612a6160008054906101000a90046001600160a01b031688886001546128ad565b6001600160a01b031663022c0d9f84848460006040519080825280601f01601f191660200182016040528015612a9e576020820181803683370190505b506040518563ffffffff1660e01b8152600401612abe9493929190614a9e565b600060405180830381600087803b158015612ad857600080fd5b505af1158015612aec573d6000803e3d6000fd5b50505050505050505050508080612b0290613d2e565b915050612936565b6000846001600160a01b03163b11612b2157600080fd5b604080516001600160a01b0385811660248301528481166044830152606480830185905283518084039091018152608490920183526020820180516001600160e01b03166323b872dd60e01b1790529151600092839290881691612b859190614a82565b6000604051808303816000865af19150503d8060008114612bc2576040519150601f19603f3d011682016040523d82523d6000602084013e612bc7565b606091505b5091509150818015612bf1575080511580612bf1575080806020019051810190612bf19190613b31565b612bfa57600080fd5b505050505050565b60005b8251811015611a5d576000612c54848381518110612c2557612c25613b67565b602002602001015160000151858481518110612c4357612c43613b67565b6020026020010151602001516106f8565b509050600085612c65846001614667565b81518110612c7557612c75613b67565b60200260200101519050600080836001600160a01b0316878681518110612c9e57612c9e613b67565b6020026020010151600001516001600160a01b031614612cc057826000612cc4565b6000835b91509150600060018851612cd8919061442d565b8610612ce45786612d57565b612d5788612cf3886001614667565b81518110612d0357612d03613b67565b60200260200101516000015189886001612d1d9190614667565b81518110612d2d57612d2d613b67565b6020026020010151602001518a896001612d479190614667565b8151811061213857612138613b67565b9050612daa888781518110612d6e57612d6e613b67565b602002602001015160000151898881518110612d8c57612d8c613b67565b6020026020010151602001518a898151811061213857612138613b67565b6001600160a01b031663022c0d9f84848460006040519080825280601f01601f191660200182016040528015612de7576020820181803683370190505b506040518563ffffffff1660e01b8152600401612e079493929190614a9e565b600060405180830381600087803b158015612e2157600080fd5b505af1158015612e35573d6000803e3d6000fd5b5050505050505050508080612e4990613d2e565b915050612c05565b60005b8251811015611a5d576000612e74848381518110612c2557612c25613b67565b509050600085612e85846001614667565b81518110612e9557612e95613b67565b60200260200101519050600080836001600160a01b0316878681518110612ebe57612ebe613b67565b6020026020010151600001516001600160a01b031614612ee057826000612ee4565b6000835b91509150600060018851612ef8919061442d565b8610612f045786612f77565b612f7788612f13886001614667565b81518110612f2357612f23613b67565b60200260200101516000015189886001612f3d9190614667565b81518110612f4d57612f4d613b67565b6020026020010151602001518a896001612f679190614667565b815181106116a1576116a1613b67565b9050612fca888781518110612f8e57612f8e613b67565b602002602001015160000151898881518110612fac57612fac613b67565b6020026020010151602001518a89815181106116a1576116a1613b67565b6001600160a01b031663022c0d9f84848460006040519080825280601f01601f191660200182016040528015613007576020820181803683370190505b506040518563ffffffff1660e01b81526004016130279493929190614a9e565b600060405180830381600087803b15801561304157600080fd5b505af1158015613055573d6000803e3d6000fd5b505050505050505050808061306990613d2e565b915050612e54565b60606130808484600085613363565b949350505050565b60008060006130978686613273565b5090506000806130a9898989896128ad565b6001600160a01b0316630902f1ac6040518163ffffffff1660e01b8152600401606060405180830381865afa1580156130e6573d6000803e3d6000fd5b505050506040513d601f19601f8201168201806040525081019061310a9190614ae2565b506001600160701b031691506001600160701b03169150826001600160a01b0316886001600160a01b031614613141578082613144565b81815b909a909950975050505050505050565b60008084116131b95760405162461bcd60e51b815260206004820152602b60248201527f556e697377617056324c6962726172793a20494e53554646494349454e545f4960448201526a1394155517d05353d5539560aa1b6064820152608401610758565b6000831180156131c95750600082115b6132265760405162461bcd60e51b815260206004820152602860248201527f556e697377617056324c6962726172793a20494e53554646494349454e545f4c604482015267495155494449545960c01b6064820152608401610758565b6000613234856103e5613433565b905060006132428285613433565b9050600061325c83613256886103e8613433565b9061349a565b90506132688183614982565b979650505050505050565b600080826001600160a01b0316846001600160a01b0316036132e55760405162461bcd60e51b815260206004820152602560248201527f556e697377617056324c6962726172793a204944454e544943414c5f41444452604482015264455353455360d81b6064820152608401610758565b826001600160a01b0316846001600160a01b031610613305578284613308565b83835b90925090506001600160a01b0382166107d65760405162461bcd60e51b815260206004820152601e60248201527f556e697377617056324c6962726172793a205a45524f5f4144445245535300006044820152606401610758565b6060824710156133c45760405162461bcd60e51b815260206004820152602660248201527f416464726573733a20696e73756666696369656e742062616c616e636520666f6044820152651c8818d85b1b60d21b6064820152608401610758565b600080866001600160a01b031685876040516133e09190614a82565b60006040518083038185875af1925050503d806000811461341d576040519150601f19603f3d011682016040523d82523d6000602084013e613422565b606091505b5091509150613268878383876134ef565b6000811580613457575082826134498183614963565b92506134559083614982565b145b6114be5760405162461bcd60e51b815260206004820152601460248201527364732d6d6174682d6d756c2d6f766572666c6f7760601b6044820152606401610758565b6000826134a78382614667565b91508110156114be5760405162461bcd60e51b815260206004820152601460248201527364732d6d6174682d6164642d6f766572666c6f7760601b6044820152606401610758565b6060831561355e578251600003613557576001600160a01b0385163b6135575760405162461bcd60e51b815260206004820152601d60248201527f416464726573733a2063616c6c20746f206e6f6e2d636f6e74726163740000006044820152606401610758565b5081613080565b61308083838151156135735781518083602001fd5b8060405162461bcd60e51b815260040161075891906136d6565b6001600160a01b03811681146135a257600080fd5b50565b80356135b08161358d565b919050565b80151581146135a257600080fd5b6000806000606084860312156135d857600080fd5b83356135e38161358d565b925060208401356135f38161358d565b91506040840135613603816135b5565b809150509250925092565b60008060006060848603121561362357600080fd5b8335925060208401356136358161358d565b915060408401356136038161358d565b6000806040838503121561365857600080fd5b82356136638161358d565b915060208301356136738161358d565b809150509250929050565b60005b83811015613699578181015183820152602001613681565b83811115611a5d5750506000910152565b600081518084526136c281602086016020860161367e565b601f01601f19169290920160200192915050565b602081526000611c2b60208301846136aa565b60008083601f8401126136fb57600080fd5b5081356001600160401b0381111561371257600080fd5b6020830191508360208260051b85010111156107d657600080fd5b6000806000806040858703121561374357600080fd5b84356001600160401b038082111561375a57600080fd5b613766888389016136e9565b9096509450602087013591508082111561377f57600080fd5b5061378c878288016136e9565b95989497509550505050565b6000602082840312156137aa57600080fd5b8135611c2b8161358d565b634e487b7160e01b600052604160045260246000fd5b604051606081016001600160401b03811182821017156137ed576137ed6137b5565b60405290565b60405160a081016001600160401b03811182821017156137ed576137ed6137b5565b60405160e081016001600160401b03811182821017156137ed576137ed6137b5565b604051608081016001600160401b03811182821017156137ed576137ed6137b5565b60405161016081016001600160401b03811182821017156137ed576137ed6137b5565b604051601f8201601f191681016001600160401b03811182821017156138a4576138a46137b5565b604052919050565b60006001600160401b038211156138c5576138c56137b5565b5060051b60200190565b600082601f8301126138e057600080fd5b813560206138f56138f0836138ac565b61387c565b8281526060928302850182019282820191908785111561391457600080fd5b8387015b858110156139765781818a0312156139305760008081fd5b6139386137cb565b81356139438161358d565b8152818601356139528161358d565b81870152604082810135613965816135b5565b908201528452928401928101613918565b5090979650505050505050565b6000806040838503121561399657600080fd5b8235915060208301356001600160401b038111156139b357600080fd5b6139bf858286016138cf565b9150509250929050565b6020808252825182820181905260009190848201906040850190845b81811015613a01578351835292840192918401916001016139e5565b50909695505050505050565b803561ffff811681146135b057600080fd5b60006001600160401b03821115613a3857613a386137b5565b50601f01601f191660200190565b600082601f830112613a5757600080fd5b8135613a656138f082613a1f565b818152846020838601011115613a7a57600080fd5b816020850160208301376000918101602001919091529392505050565b60008060008060008060c08789031215613ab057600080fd5b613ab987613a0d565b955060208701356001600160401b0380821115613ad557600080fd5b613ae18a838b01613a46565b96506040890135955060608901359150613afa8261358d565b9093506080880135925060a08801359080821115613b1757600080fd5b50613b2489828a01613a46565b9150509295509295509295565b600060208284031215613b4357600080fd5b8151611c2b816135b5565b600060208284031215613b6057600080fd5b5051919050565b634e487b7160e01b600052603260045260246000fd5b60ff811681146135a257600080fd5b600060208284031215613b9e57600080fd5b8135611c2b81613b7d565b6000808335601e19843603018112613bc057600080fd5b8301803591506001600160401b03821115613bda57600080fd5b6020019150368190038213156107d657600080fd5b600082601f830112613c0057600080fd5b81356020613c106138f0836138ac565b82815260059290921b84018101918181019086841115613c2f57600080fd5b8286015b84811015613c53578035613c468161358d565b8352918301918301613c33565b509695505050505050565b60008060408385031215613c7157600080fd5b82356001600160401b0380821115613c8857600080fd5b613c9486838701613bef565b9350602091508185013581811115613cab57600080fd5b85019050601f81018613613cbe57600080fd5b8035613ccc6138f0826138ac565b81815260059190911b82018301908381019088831115613ceb57600080fd5b928401925b82841015613d0957833582529284019290840190613cf0565b80955050505050509250929050565b634e487b7160e01b600052601160045260246000fd5b600060018201613d4057613d40613d18565b5060010190565b600060208284031215613d5957600080fd5b5035919050565b803562ffffff811681146135b057600080fd5b60006020808385031215613d8657600080fd5b82356001600160401b03811115613d9c57600080fd5b8301601f81018513613dad57600080fd5b8035613dbb6138f0826138ac565b81815260a09182028301840191848201919088841115613dda57600080fd5b938501935b83851015613e515780858a031215613df75760008081fd5b613dff6137f3565b853581528686013587820152604080870135613e1a8161358d565b90820152606086810135613e2d8161358d565b908201526080613e3e878201613d60565b9082015283529384019391850191613ddf565b50979650505050505050565b60006020808385031215613e7057600080fd5b82356001600160401b03811115613e8657600080fd5b8301601f81018513613e9757600080fd5b8035613ea56138f0826138ac565b81815260e09182028301840191848201919088841115613ec457600080fd5b938501935b83851015613e515780858a031215613ee15760008081fd5b613ee9613815565b853581528686013587820152604080870135613f048161358d565b90820152606086810135613f178161358d565b90820152608086810135613f2a8161358d565b9082015260a0613f3b878201613d60565b9082015260c0613f4c878201613d60565b9082015283529384019391850191613ec9565b60006020808385031215613f7257600080fd5b82356001600160401b0380821115613f8957600080fd5b818501915085601f830112613f9d57600080fd5b8135613fab6138f0826138ac565b81815260059190911b83018401908481019088831115613fca57600080fd5b8585015b8381101561405f57803585811115613fe557600080fd5b86016080818c03601f19011215613ffc5760008081fd5b614004613837565b8882013581526040808301358a830152606080840135898111156140285760008081fd5b6140368f8d83880101613bef565b83850152506080840135935061404b846135b5565b820192909252845250918601918601613fce565b5098975050505050505050565b6000602080838503121561407f57600080fd5b82356001600160401b038082111561409657600080fd5b818501915085601f8301126140aa57600080fd5b81356140b86138f0826138ac565b81815260059190911b830184019084810190888311156140d757600080fd5b8585015b8381101561405f578035858111156140f257600080fd5b86016080818c03601f190112156141095760008081fd5b614111613837565b8882013581526040808301358a830152606080840135898111156141355760008081fd5b6141438f8d83880101613bef565b9284019290925260809390930135928201929092528452509186019186016140db565b600060a082018783526020878185015260a0604085015281875180845260c086019150828901935060005b818110156141b65784516001600160a01b031683529383019391830191600101614191565b50506001600160a01b03969096166060850152505050608001529392505050565b600060208083850312156141ea57600080fd5b82516001600160401b0381111561420057600080fd5b8301601f8101851361421157600080fd5b805161421f6138f0826138ac565b81815260059190911b8201830190838101908783111561423e57600080fd5b928401925b8284101561326857835182529284019290840190614243565b600061426a6138f0846138ac565b8381529050602080820190600585901b84018681111561428957600080fd5b845b818110156143175780356001600160401b03808211156142ab5760008081fd5b908701906080828b0312156142c05760008081fd5b6142c8613837565b823581528583013586820152604080840135838111156142e85760008081fd5b6142f48d8287016138cf565b91830191909152506060928301359281019290925250845292820192820161428b565b505050509392505050565b60006020828403121561433457600080fd5b81356001600160401b0381111561434a57600080fd5b8201601f8101841361435b57600080fd5b6130808482356020840161425c565b6000602080838503121561437d57600080fd5b82356001600160401b0381111561439357600080fd5b8301601f810185136143a457600080fd5b80356143b26138f0826138ac565b818152606091820283018401918482019190888411156143d157600080fd5b938501935b83851015613e515780858a0312156143ee5760008081fd5b6143f66137cb565b85356144018161358d565b8152858701356144108161358d565b8188015260408681013590820152835293840193918501916143d6565b60008282101561443f5761443f613d18565b500390565b600082601f83011261445557600080fd5b813560206144656138f0836138ac565b82815260059290921b8401810191818101908684111561448457600080fd5b8286015b84811015613c5357803561449b81613b7d565b8352918301918301614488565b600082601f8301126144b957600080fd5b813560206144c96138f0836138ac565b82815260059290921b840181019181810190868411156144e857600080fd5b8286015b84811015613c535780356001600160401b0381111561450b5760008081fd5b6145198986838b0101613a46565b8452509183019183016144ec565b60008060008385036101a081121561453e57600080fd5b6101608082121561454e57600080fd5b614556613859565b915061456186613a0d565b825261456f602087016135a5565b602083015260408601356040830152606086013560608301526080860135608083015260a086013560a083015260c086013560c08301526145b260e087016135a5565b60e08301526101006145c58188016135a5565b90830152610120868101359083015261014080870135908301529093508401356001600160401b03808211156145fa57600080fd5b61460687838801614444565b935061018086013591508082111561461d57600080fd5b5061462a868287016144a8565b9150509250925092565b6001600160f81b0319815260609390931b6001600160601b03191660018401526015830191909152603582015260550190565b6000821982111561467a5761467a613d18565b500190565b600082601f83011261469057600080fd5b815160206146a06138f0836138ac565b82815260059290921b840181019181810190868411156146bf57600080fd5b8286015b84811015613c535780516001600160401b038111156146e25760008081fd5b8701603f810189136146f45760008081fd5b8481015160406147066138f083613a1f565b8281528b8284860101111561471b5760008081fd5b61472a8389830184870161367e565b86525050509183019183016146c3565b60008060006060848603121561474f57600080fd5b835161475a8161358d565b809350506020808501516001600160401b038082111561477957600080fd5b818701915087601f83011261478d57600080fd5b815161479b6138f0826138ac565b81815260059190911b8301840190848101908a8311156147ba57600080fd5b938501935b828510156147e15784516147d281613b7d565b825293850193908501906147bf565b60408a015190975094505050808311156147fa57600080fd5b505061462a8682870161467f565b600081518084526020808501945080840160005b8381101561483b57815160ff168752958201959082019060010161481c565b509495945050505050565b600081518084526020808501808196508360051b8101915082860160005b8581101561488e57828403895261487c8483516136aa565b98850198935090840190600101614864565b5091979650505050505050565b6040815260006148ae6040830185614808565b82810360208401526148c08185614846565b95945050505050565b602081526000825160a060208401526148e560c08401826136aa565b905060018060a01b0360208501511660408401526040840151606084015260608401516080840152608084015160a08401528091505092915050565b60208082526022908201527f526f757465723a20494e53554646494349454e545f4f55545055545f414d4f55604082015261139560f21b606082015260800190565b600081600019048311821515161561497d5761497d613d18565b500290565b60008261499f57634e487b7160e01b600052601260045260246000fd5b500490565b6001600160a01b03841681526060602082018190526000906149c890830185614808565b82810360408401526149da8185614846565b9695505050505050565b600061012061ffff8c1683528a602084015289604084015260018060a01b03891660608401528760808401528660a08401528060c084015285518184015250602085015161014083015260408501516060610160840152614a496101808401826136aa565b905082810360e0840152614a5d81866136aa565b9050828103610100840152614a7281856136aa565b9c9b505050505050505050505050565b60008251614a9481846020870161367e565b9190910192915050565b84815283602082015260018060a01b03831660408201526080606082015260006149da60808301846136aa565b80516001600160701b03811681146135b057600080fd5b600080600060608486031215614af757600080fd5b614b0084614acb565b9250614b0e60208501614acb565b9150604084015163ffffffff8116811461360357600080fdfea264697066735822122071bba3043a18a6dc34665b4eb672827510a3a65695fc8ae88a36162c61c24bdd64736f6c634300080f0033",
    "linkReferences": {}
  },
  "methodIdentifiers": {
    "factory()": "c45a0155",
    "feeCollector()": "c415b95c",
    "getAmountOut(uint256,address,address)": "5e1e6325",
    "getAmountsOut(uint256,(address,address,bool)[])": "9881fcb4",
    "isPair(address)": "e5e31b13",
    "joeRouter()": "59f571e8",
    "pairCodeHash()": "9aab9248",
    "pairFor(address,address,bool)": "4c1ee03e",
    "pancakeRouter()": "c21ebd07",
    "sgReceive(uint16,bytes,uint256,address,uint256,bytes)": "ab8236f3",
    "sortTokens(address,address)": "544caa56",
    "spookyRouter()": "8ed8ea7e",
    "stargateRouter()": "a9e56f3c",
    "swapRouter()": "c31c9c07",
    "swaps(uint8[],bytes[])": "67375cc8",
    "veloRouter()": "d5ef98ea",
    "version()": "54fd4d50",
    "weth()": "3fc8cef3",
    "xcalGetAmountOut(uint256,address,address)": "51785acb",
    "xcalGetAmountsOut(uint256,(address,address,bool)[])": "9e1011c3",
    "xcalIsPair(address)": "7aee2064",
    "xcalPairFor(address,address,bool)": "850899b4"
  },
  "id": 31
}