{
  "abi": [
    {
      "inputs": [
        {
          "internalType": "address",
          "name": "_weth",
          "type": "address"
        },
        {
          "internalType": "contract ISwapRouter",
          "name": "_swapRouter",
          "type": "address"
        },
        {
          "internalType": "address",
          "name": "_sushiFactory",
          "type": "address"
        },
        {
          "internalType": "bytes32",
          "name": "_sushiPairCodeHash",
          "type": "bytes32"
        },
        {
          "internalType": "address",
          "name": "_veloFactory",
          "type": "address"
        },
        {
          "internalType": "address",
          "name": "_veloWeth",
          "type": "address"
        },
        {
          "internalType": "contract IStargateRouter",
          "name": "_stargateRouter",
          "type": "address"
        }
      ],
      "stateMutability": "nonpayable",
      "type": "constructor"
    },
    {
      "inputs": [],
      "name": "MustBeGt0",
      "type": "error"
    },
    {
      "inputs": [],
      "name": "NotStgRouter",
      "type": "error"
    },
    {
      "anonymous": false,
      "inputs": [
        {
          "indexed": false,
          "internalType": "uint256",
          "name": "_fee",
          "type": "uint256"
        }
      ],
      "name": "FeePaid",
      "type": "event"
    },
    {
      "anonymous": false,
      "inputs": [
        {
          "indexed": true,
          "internalType": "address",
          "name": "token",
          "type": "address"
        },
        {
          "indexed": false,
          "internalType": "uint256",
          "name": "amountLD",
          "type": "uint256"
        },
        {
          "indexed": false,
          "internalType": "bool",
          "name": "failed",
          "type": "bool"
        }
      ],
      "name": "ReceivedOnDestination",
      "type": "event"
    },
    {
      "inputs": [],
      "name": "factory",
      "outputs": [
        {
          "internalType": "address",
          "name": "",
          "type": "address"
        }
      ],
      "stateMutability": "view",
      "type": "function"
    },
    {
      "inputs": [],
      "name": "feeCollector",
      "outputs": [
        {
          "internalType": "address",
          "name": "",
          "type": "address"
        }
      ],
      "stateMutability": "view",
      "type": "function"
    },
    {
      "inputs": [
        {
          "internalType": "uint256",
          "name": "amountIn",
          "type": "uint256"
        },
        {
          "internalType": "address",
          "name": "tokenIn",
          "type": "address"
        },
        {
          "internalType": "address",
          "name": "tokenOut",
          "type": "address"
        }
      ],
      "name": "getAmountOut",
      "outputs": [
        {
          "internalType": "uint256",
          "name": "amount",
          "type": "uint256"
        },
        {
          "internalType": "bool",
          "name": "stable",
          "type": "bool"
        }
      ],
      "stateMutability": "view",
      "type": "function"
    },
    {
      "inputs": [
        {
          "internalType": "uint256",
          "name": "amountIn",
          "type": "uint256"
        },
        {
          "components": [
            {
              "internalType": "address",
              "name": "from",
              "type": "address"
            },
            {
              "internalType": "address",
              "name": "to",
              "type": "address"
            },
            {
              "internalType": "bool",
              "name": "stable",
              "type": "bool"
            }
          ],
          "internalType": "struct VelodromeAdapter.route[]",
          "name": "routes",
          "type": "tuple[]"
        }
      ],
      "name": "getAmountsOut",
      "outputs": [
        {
          "internalType": "uint256[]",
          "name": "amounts",
          "type": "uint256[]"
        }
      ],
      "stateMutability": "view",
      "type": "function"
    },
    {
      "inputs": [
        {
          "internalType": "address",
          "name": "tokenA",
          "type": "address"
        },
        {
          "internalType": "address",
          "name": "tokenB",
          "type": "address"
        },
        {
          "internalType": "bool",
          "name": "stable",
          "type": "bool"
        }
      ],
      "name": "getReserves",
      "outputs": [
        {
          "internalType": "uint256",
          "name": "reserveA",
          "type": "uint256"
        },
        {
          "internalType": "uint256",
          "name": "reserveB",
          "type": "uint256"
        }
      ],
      "stateMutability": "view",
      "type": "function"
    },
    {
      "inputs": [
        {
          "internalType": "address",
          "name": "pair",
          "type": "address"
        }
      ],
      "name": "isPair",
      "outputs": [
        {
          "internalType": "bool",
          "name": "",
          "type": "bool"
        }
      ],
      "stateMutability": "view",
      "type": "function"
    },
    {
      "inputs": [],
      "name": "joeRouter",
      "outputs": [
        {
          "internalType": "contract IJoeRouter02",
          "name": "",
          "type": "address"
        }
      ],
      "stateMutability": "view",
      "type": "function"
    },
    {
      "inputs": [],
      "name": "pairCodeHash",
      "outputs": [
        {
          "internalType": "bytes32",
          "name": "",
          "type": "bytes32"
        }
      ],
      "stateMutability": "view",
      "type": "function"
    },
    {
      "inputs": [
        {
          "internalType": "address",
          "name": "tokenA",
          "type": "address"
        },
        {
          "internalType": "address",
          "name": "tokenB",
          "type": "address"
        },
        {
          "internalType": "bool",
          "name": "stable",
          "type": "bool"
        }
      ],
      "name": "pairFor",
      "outputs": [
        {
          "internalType": "address",
          "name": "pair",
          "type": "address"
        }
      ],
      "stateMutability": "view",
      "type": "function"
    },
    {
      "inputs": [],
      "name": "pancakeRouter",
      "outputs": [
        {
          "internalType": "contract IPancakeRouter02",
          "name": "",
          "type": "address"
        }
      ],
      "stateMutability": "view",
      "type": "function"
    },
    {
      "inputs": [
        {
          "internalType": "address",
          "name": "tokenA",
          "type": "address"
        },
        {
          "internalType": "address",
          "name": "tokenB",
          "type": "address"
        },
        {
          "internalType": "bool",
          "name": "stable",
          "type": "bool"
        },
        {
          "internalType": "uint256",
          "name": "amountADesired",
          "type": "uint256"
        },
        {
          "internalType": "uint256",
          "name": "amountBDesired",
          "type": "uint256"
        }
      ],
      "name": "quoteAddLiquidity",
      "outputs": [
        {
          "internalType": "uint256",
          "name": "amountA",
          "type": "uint256"
        },
        {
          "internalType": "uint256",
          "name": "amountB",
          "type": "uint256"
        },
        {
          "internalType": "uint256",
          "name": "liquidity",
          "type": "uint256"
        }
      ],
      "stateMutability": "view",
      "type": "function"
    },
    {
      "inputs": [
        {
          "internalType": "uint16",
          "name": "",
          "type": "uint16"
        },
        {
          "internalType": "bytes",
          "name": "",
          "type": "bytes"
        },
        {
          "internalType": "uint256",
          "name": "",
          "type": "uint256"
        },
        {
          "internalType": "address",
          "name": "_token",
          "type": "address"
        },
        {
          "internalType": "uint256",
          "name": "amountLD",
          "type": "uint256"
        },
        {
          "internalType": "bytes",
          "name": "_payload",
          "type": "bytes"
        }
      ],
      "name": "sgReceive",
      "outputs": [],
      "stateMutability": "nonpayable",
      "type": "function"
    },
    {
      "inputs": [
        {
          "internalType": "address",
          "name": "tokenA",
          "type": "address"
        },
        {
          "internalType": "address",
          "name": "tokenB",
          "type": "address"
        }
      ],
      "name": "sortTokens",
      "outputs": [
        {
          "internalType": "address",
          "name": "token0",
          "type": "address"
        },
        {
          "internalType": "address",
          "name": "token1",
          "type": "address"
        }
      ],
      "stateMutability": "pure",
      "type": "function"
    },
    {
      "inputs": [],
      "name": "spookyRouter",
      "outputs": [
        {
          "internalType": "contract IUniswapV2Router02",
          "name": "",
          "type": "address"
        }
      ],
      "stateMutability": "view",
      "type": "function"
    },
    {
      "inputs": [],
      "name": "stargateRouter",
      "outputs": [
        {
          "internalType": "contract IStargateRouter",
          "name": "",
          "type": "address"
        }
      ],
      "stateMutability": "view",
      "type": "function"
    },
    {
      "inputs": [],
      "name": "swapRouter",
      "outputs": [
        {
          "internalType": "contract ISwapRouter",
          "name": "",
          "type": "address"
        }
      ],
      "stateMutability": "view",
      "type": "function"
    },
    {
      "inputs": [
        {
          "internalType": "uint8[]",
          "name": "steps",
          "type": "uint8[]"
        },
        {
          "internalType": "bytes[]",
          "name": "data",
          "type": "bytes[]"
        }
      ],
      "name": "swaps",
      "outputs": [],
      "stateMutability": "payable",
      "type": "function"
    },
    {
      "inputs": [],
      "name": "veloFactory",
      "outputs": [
        {
          "internalType": "address",
          "name": "",
          "type": "address"
        }
      ],
      "stateMutability": "view",
      "type": "function"
    },
    {
      "inputs": [],
      "name": "veloWETH",
      "outputs": [
        {
          "internalType": "contract IWETH",
          "name": "",
          "type": "address"
        }
      ],
      "stateMutability": "view",
      "type": "function"
    },
    {
      "inputs": [],
      "name": "version",
      "outputs": [
        {
          "internalType": "string",
          "name": "_version",
          "type": "string"
        }
      ],
      "stateMutability": "pure",
      "type": "function"
    },
    {
      "inputs": [],
      "name": "weth",
      "outputs": [
        {
          "internalType": "address",
          "name": "",
          "type": "address"
        }
      ],
      "stateMutability": "view",
      "type": "function"
    },
    {
      "stateMutability": "payable",
      "type": "receive"
    }
  ],
  "bytecode": {
    "object": "0x6101606040523480156200001257600080fd5b506040516200456138038062004561833981016040819052620000359162000117565b6001600160a01b03868116608052600080546001600160a01b031916878316179055600185905581811660a0523360c052831660e081905260408051631355724960e31b81529051859285929091639aab9248916004808201926020929091908290030181865afa158015620000af573d6000803e3d6000fd5b505050506040513d601f19601f82011682018060405250810190620000d59190620001b6565b610120526001600160a01b0390811661010052979097166101405250620001d095505050505050565b6001600160a01b03811681146200011457600080fd5b50565b600080600080600080600060e0888a0312156200013357600080fd5b87516200014081620000fe565b60208901519097506200015381620000fe565b60408901519096506200016681620000fe565b606089015160808a015191965094506200018081620000fe565b60a08901519093506200019381620000fe565b60c0890151909250620001a681620000fe565b8091505092959891949750929550565b600060208284031215620001c957600080fd5b5051919050565b60805160a05160c05160e0516101005161012051610140516142c66200029b6000396000818161014c0152610b5501526000610558015260006104b90152600081816104550152818161051d015281816106c8015281816107dc0152818161116c0152818161131001526116ba01526000818161040101528181610a5b0152610ad4015260008181610379015281816114ef01528181611ffb015261203e0152600081816103cd01528181611807015281816119a501528181611a280152611b5701526142c66000f3fe60806040526004361061012e5760003560e01c806398a0fb3c116100ab578063c31c9c071161006f578063c31c9c07146103bb578063c415b95c146103ef578063c45a015514610423578063c7f5fd1014610443578063e5e31b1314610477578063fdc09e07146104a757600080fd5b806398a0fb3c146103085780639aab924814610343578063a9e56f3c14610367578063ab8236f31461039b578063c21ebd07146102c657600080fd5b80635e1e6325116100f25780635e1e6325146102475780635e60dab51461027c57806367375cc8146102b15780638ed8ea7e146102c65780639881fcb4146102db57600080fd5b80633fc8cef31461013a5780634c1ee03e1461018b578063544caa56146101ab57806354fd4d50146101eb57806359f571e81461021f57600080fd5b3661013557005b600080fd5b34801561014657600080fd5b5061016e7f000000000000000000000000000000000000000000000000000000000000000081565b6040516001600160a01b0390911681526020015b60405180910390f35b34801561019757600080fd5b5061016e6101a6366004613177565b6104db565b3480156101b757600080fd5b506101cb6101c63660046131c2565b6105ab565b604080516001600160a01b03938416815292909116602083015201610182565b3480156101f757600080fd5b506040805180820182526005815264302e302e3160d81b602082015290516101829190613253565b34801561022b57600080fd5b5061016e73d7f655e3376ce2d7a2b08ff01eb3b1023191a90181565b34801561025357600080fd5b50610267610262366004613266565b610690565b60408051928352901515602083015201610182565b34801561028857600080fd5b5061029c610297366004613177565b6108e4565b60408051928352602083019190915201610182565b6102c46102bf366004613467565b61099c565b005b3480156102d257600080fd5b5061016e600081565b3480156102e757600080fd5b506102fb6102f6366004613528565b61101f565b604051610182919061360c565b34801561031457600080fd5b50610328610323366004613650565b6112d8565b60408051938452602084019290925290820152606001610182565b34801561034f57600080fd5b5061035960015481565b604051908152602001610182565b34801561037357600080fd5b5061016e7f000000000000000000000000000000000000000000000000000000000000000081565b3480156103a757600080fd5b506102c46103b63660046136bb565b6114e4565b3480156103c757600080fd5b5061016e7f000000000000000000000000000000000000000000000000000000000000000081565b3480156103fb57600080fd5b5061016e7f000000000000000000000000000000000000000000000000000000000000000081565b34801561042f57600080fd5b5060005461016e906001600160a01b031681565b34801561044f57600080fd5b5061016e7f000000000000000000000000000000000000000000000000000000000000000081565b34801561048357600080fd5b50610497610492366004613757565b611698565b6040519015158152602001610182565b3480156104b357600080fd5b5061016e7f000000000000000000000000000000000000000000000000000000000000000081565b60008060006104ea86866105ab565b6040516001600160601b0319606084811b8216602084015283901b16603482015286151560f81b604882015291935091507f000000000000000000000000000000000000000000000000000000000000000090604901604051602081830303815290604052805190602001207f000000000000000000000000000000000000000000000000000000000000000060405160200161058993929190613774565b60408051601f1981840301815291905280516020909101209695505050505050565b600080826001600160a01b0316846001600160a01b0316036106145760405162461bcd60e51b815260206004820152601b60248201527f526f757465723a204944454e544943414c5f414444524553534553000000000060448201526064015b60405180910390fd5b826001600160a01b0316846001600160a01b031610610634578284610637565b83835b90925090506001600160a01b0382166106895760405162461bcd60e51b8152602060048201526014602482015273526f757465723a205a45524f5f4144445245535360601b604482015260640161060b565b9250929050565b60008060006106a1858560016104db565b60405163e5e31b1360e01b81526001600160a01b03828116600483015291925060009182917f00000000000000000000000000000000000000000000000000000000000000009091169063e5e31b1390602401602060405180830381865afa158015610711573d6000803e3d6000fd5b505050506040513d601f19601f8201168201806040525081019061073591906137a7565b156107ae576040516378a051ad60e11b8152600481018990526001600160a01b03888116602483015284169063f140a35a90604401602060405180830381865afa158015610787573d6000803e3d6000fd5b505050506040513d601f19601f820116820180604052508101906107ab91906137c4565b91505b6107ba878760006104db565b60405163e5e31b1360e01b81526001600160a01b0380831660048301529194507f00000000000000000000000000000000000000000000000000000000000000009091169063e5e31b1390602401602060405180830381865afa158015610825573d6000803e3d6000fd5b505050506040513d601f19601f8201168201806040525081019061084991906137a7565b156108c2576040516378a051ad60e11b8152600481018990526001600160a01b03888116602483015284169063f140a35a90604401602060405180830381865afa15801561089b573d6000803e3d6000fd5b505050506040513d601f19601f820116820180604052508101906108bf91906137c4565b90505b8082116108d1578060006108d5565b8160015b94509450505050935093915050565b60008060006108f386866105ab565b5090506000806109048888886104db565b6001600160a01b0316630902f1ac6040518163ffffffff1660e01b8152600401606060405180830381865afa158015610941573d6000803e3d6000fd5b505050506040513d601f19601f8201168201806040525081019061096591906137dd565b5091509150826001600160a01b0316886001600160a01b03161461098a57808261098d565b81815b90999098509650505050505050565b600034116109bd5760405163c9935ff960e01b815260040160405180910390fd5b60005b825181101561101a5760008382815181106109dd576109dd61380b565b60200260200101519050600160ff168160ff1603610a8857600080848481518110610a0a57610a0a61380b565b6020026020010151806020019051810190610a25919061382c565b9092509050610a3f6001600160a01b03831633308461172d565b6000610a4a8261179e565b9050610a806001600160a01b0384167f0000000000000000000000000000000000000000000000000000000000000000836117b9565b505050611007565b60011960ff821601610c07576000838381518110610aa857610aa861380b565b6020026020010151806020019051810190610ac391906137c4565b90506000610ad08261179e565b90507f00000000000000000000000000000000000000000000000000000000000000006001600160a01b03168160405160006040518083038185875af1925050503d8060008114610b3d576040519150601f19603f3d011682016040523d82523d6000602084013e610b42565b606091505b5050508082610b519190613870565b91507f00000000000000000000000000000000000000000000000000000000000000006001600160a01b031663d0e30db0836040518263ffffffff1660e01b81526004016000604051808303818588803b158015610bae57600080fd5b505af1158015610bc2573d6000803e3d6000fd5b50505050507f69e27f80547602d16208b028c44d20f25956e1fb7d0f51d62aa02f392426f37181604051610bf891815260200190565b60405180910390a15050611007565b60021960ff821601610c6a576000806000806000878781518110610c2d57610c2d61380b565b6020026020010151806020019051810190610c48919061389a565b94509450945094509450610c5f85858585856117e9565b505050505050611007565b60031960ff821601610cdd576000806000806000806000808a8a81518110610c9457610c9461380b565b6020026020010151806020019051810190610caf9190613901565b97509750975097509750975097509750610ccf8888888888888888611a20565b505050505050505050611007565b60041960ff821601610d35576000806000806000878781518110610d0357610d0361380b565b6020026020010151806020019051810190610d1e91906139fa565b94509450945094509450610c5f8585858585611bdd565b60051960ff821601610e52576000806000806000878781518110610d5b57610d5b61380b565b6020026020010151806020019051810190610d769190613a64565b94509450945094509450610dcc73d7f655e3376ce2d7a2b08ff01eb3b1023191a9018685600081518110610dac57610dac61380b565b60200260200101516001600160a01b0316611da39092919063ffffffff16565b6040516338ed173960e01b815273d7f655e3376ce2d7a2b08ff01eb3b1023191a901906338ed173990610e0b9088908890889088908890600401613ad2565b6000604051808303816000875af1158015610e2a573d6000803e3d6000fd5b505050506040513d6000823e601f3d908101601f19168201604052610c5f9190810190613b43565b60061960ff821601610ee2576000806000806000878781518110610e7857610e7861380b565b6020026020010151806020019051810190610e939190613a64565b94509450945094509450610eb660008685600081518110610dac57610dac61380b565b6040516338ed173960e01b81526000906338ed173990610e0b9088908890889088908890600401613ad2565b60071960ff821601610f5c576000806000806000878781518110610f0857610f0861380b565b6020026020010151806020019051810190610f239190613a64565b6040516338ed173960e01b8152949950929750909550935091506000906338ed173990610e0b9088908890889088908890600401613ad2565b60081960ff821601610fb4576000806000806000878781518110610f8257610f8261380b565b6020026020010151806020019051810190610f9d9190613bc8565b94509450945094509450610c5f8585858585611e55565b60091960ff821601611007576000806000858581518110610fd757610fd761380b565b6020026020010151806020019051810190610ff29190613df9565b925092509250611003838383611fc9565b5050505b508061101281613f06565b9150506109c0565b505050565b606060018251101561106a5760405162461bcd60e51b81526020600482015260146024820152730a4deeae8cae47440929cac82989288bea082a8960631b604482015260640161060b565b8151611077906001613f1f565b6001600160401b0381111561108e5761108e61329d565b6040519080825280602002602001820160405280156110b7578160200160208202803683370190505b50905082816000815181106110ce576110ce61380b565b60200260200101818152505060005b82518110156112d157600061114a8483815181106110fd576110fd61380b565b60200260200101516000015185848151811061111b5761111b61380b565b6020026020010151602001518685815181106111395761113961380b565b6020026020010151604001516104db565b60405163e5e31b1360e01b81526001600160a01b0380831660048301529192507f00000000000000000000000000000000000000000000000000000000000000009091169063e5e31b1390602401602060405180830381865afa1580156111b5573d6000803e3d6000fd5b505050506040513d601f19601f820116820180604052508101906111d991906137a7565b156112be57806001600160a01b031663f140a35a8484815181106111ff576111ff61380b565b60200260200101518685815181106112195761121961380b565b6020026020010151600001516040518363ffffffff1660e01b81526004016112549291909182526001600160a01b0316602082015260400190565b602060405180830381865afa158015611271573d6000803e3d6000fd5b505050506040513d601f19601f8201168201806040525081019061129591906137c4565b836112a1846001613f1f565b815181106112b1576112b161380b565b6020026020010181815250505b50806112c981613f06565b9150506110dd565b5092915050565b6040516306801cc360e41b81526001600160a01b038681166004830152858116602483015284151560448301526000918291829182917f00000000000000000000000000000000000000000000000000000000000000001690636801cc3090606401602060405180830381865afa158015611357573d6000803e3d6000fd5b505050506040513d601f19601f8201168201806040525081019061137b9190613f37565b9050600080806001600160a01b0384161561140557836001600160a01b03166318160ddd6040518163ffffffff1660e01b8152600401602060405180830381865afa1580156113ce573d6000803e3d6000fd5b505050506040513d601f19601f820116820180604052508101906113f291906137c4565b90506113ff8c8c8c6108e4565b90935091505b82158015611411575081155b15611442578896508795506103e861143161142c888a613f54565b6121f4565b61143b9190613870565b94506114d5565b600061144f8a8585612264565b9050888111611497578997509550856114908461146c848b613f54565b6114769190613f73565b84611481858b613f54565b61148b9190613f73565b61232e565b95506114d3565b60006114a48a8587612264565b98508997508890506114cf856114ba8584613f54565b6114c49190613f73565b85611481868c613f54565b9650505b505b50505050955095509592505050565b336001600160a01b037f0000000000000000000000000000000000000000000000000000000000000000161461152d57604051638afe477f60e01b815260040160405180910390fd5b6000806000838060200190518101906115469190613f95565b604051630ce6eb9960e31b8152929550909350915060009030906367375cc8906115769086908690600401614087565b600060405180830381600087803b15801561159057600080fd5b505af19250505080156115a1575060015b6115ef573d8080156115cf576040519150601f19603f3d011682016040523d82523d6000602084013e6115d4565b606091505b506115e96001600160a01b03891686896117b9565b60019150505b4715611647576040516001600160a01b038516904790600081818185875af1925050503d806000811461163e576040519150601f19603f3d011682016040523d82523d6000602084013e611643565b606091505b5050505b6040805187815282151560208201526001600160a01b038916917f9dce3c3c57554c8def96dde02f36aa27df20d75f725d07f54fac61ffd61a7cf6910160405180910390a250505050505050505050565b60405163e5e31b1360e01b81526001600160a01b0382811660048301526000917f00000000000000000000000000000000000000000000000000000000000000009091169063e5e31b1390602401602060405180830381865afa158015611703573d6000803e3d6000fd5b505050506040513d601f19601f8201168201806040525081019061172791906137a7565b92915050565b6040516001600160a01b03808516602483015283166044820152606481018290526117989085906323b872dd60e01b906084015b60408051601f198184030181529190526020810180516001600160e01b03166001600160e01b031990931692909217909152612346565b50505050565b60006127106117af836101f4613f54565b6117279190613f73565b6040516001600160a01b03831660248201526044810182905261101a90849063a9059cbb60e01b90606401611761565b6040516370a0823160e01b81523060048201526000906118819086907f0000000000000000000000000000000000000000000000000000000000000000906001600160a01b038316906370a0823190602401602060405180830381865afa158015611858573d6000803e3d6000fd5b505050506040513d601f19601f8201168201806040525081019061187c91906137c4565b612418565b60408051610100810182526001600160a01b03878116808352878216602084015262ffffff871683850152908516606083015242608083015291516370a0823160e01b815230600482015260009260a08301916370a0823190602401602060405180830381865afa1580156118fa573d6000803e3d6000fd5b505050506040513d601f19601f8201168201806040525081019061191e91906137c4565b815260006020808301829052604092830191909152815163414bf38960e01b815283516001600160a01b03908116600483015291840151821660248201529183015162ffffff1660448301526060830151811660648301526080830151608483015260a083015160a483015260c083015160c483015260e0830151811660e48301529192507f00000000000000000000000000000000000000000000000000000000000000009091169063414bf38990610104016020604051808303816000875af11580156119f1573d6000803e3d6000fd5b505050506040513d601f19601f82011682018060405250810190611a1591906137c4565b979650505050505050565b6000611a4d877f00000000000000000000000000000000000000000000000000000000000000008b612418565b6040805160a081019091526001600160601b0319606089811b821660c08401526001600160e81b031960e888811b821660d48601528a831b841660d786015287901b1660eb84015287901b1660ee82015260009080610102810160408051601f198184030181529181529082526001600160a01b038087166020840152428383015290516370a0823160e01b8152306004820152606090920191908b16906370a0823190602401602060405180830381865afa158015611b11573d6000803e3d6000fd5b505050506040513d601f19601f82011682018060405250810190611b3591906137c4565b81526020018a905260405163c04b8d5960e01b81529091506001600160a01b037f0000000000000000000000000000000000000000000000000000000000000000169063c04b8d5990611b8c9084906004016140b5565b6020604051808303816000875af1158015611bab573d6000803e3d6000fd5b505050506040513d601f19601f82011682018060405250810190611bcf91906137c4565b9a9950505050505050505050565b600080611c0160008054906101000a90046001600160a01b03168887600154612518565b90508060018251611c129190613870565b81518110611c2257611c2261380b565b6020026020010151915085821015611c7c5760405162461bcd60e51b815260206004820152601760248201527f696e73756666696369656e742d616d6f756e742d6f7574000000000000000000604482015260640161060b565b8215611d8e57600080548651611d8e92611cd4926001600160a01b031691899190611ca957611ca961380b565b602002602001015188600181518110611cc457611cc461380b565b60200260200101516001546126a4565b86600081518110611ce757611ce761380b565b60209081029190910101516040516370a0823160e01b81523060048201526001600160a01b03909116906370a0823190602401602060405180830381865afa158015611d37573d6000803e3d6000fd5b505050506040513d601f19601f82011682018060405250810190611d5b91906137c4565b87600081518110611d6e57611d6e61380b565b60200260200101516001600160a01b03166117b99092919063ffffffff16565b611d9981868661272a565b5095945050505050565b604051636eb1769f60e11b81523060048201526001600160a01b038381166024830152600091839186169063dd62ed3e90604401602060405180830381865afa158015611df4573d6000803e3d6000fd5b505050506040513d601f19601f82011682018060405250810190611e1891906137c4565b611e229190613f1f565b6040516001600160a01b03851660248201526044810182905290915061179890859063095ea7b360e01b90606401611761565b60608142811015611e9a5760405162461bcd60e51b815260206004820152600f60248201526e149bdd5d195c8e8811561412549151608a1b604482015260640161060b565b611ea4878661101f565b9150858260018451611eb69190613870565b81518110611ec657611ec661380b565b60200260200101511015611f275760405162461bcd60e51b815260206004820152602260248201527f526f757465723a20494e53554646494349454e545f4f55545055545f414d4f55604482015261139560f21b606482015260840161060b565b611fbe85600081518110611f3d57611f3d61380b565b60200260200101516000015133611f9e88600081518110611f6057611f6061380b565b60200260200101516000015189600081518110611f7f57611f7f61380b565b6020026020010151602001518a6000815181106111395761113961380b565b85600081518110611fb157611fb161380b565b6020026020010151612901565b611d998286866129f9565b60008361010001518383604051602001611fe59392919061410d565b604051602081830303815290604052905061203c7f0000000000000000000000000000000000000000000000000000000000000000856080015186602001516001600160a01b0316611da39092919063ffffffff16565b7f00000000000000000000000000000000000000000000000000000000000000006001600160a01b0316639fbf10fc47866000015187604001518860600151308a608001516000036120fb5760208b01516040516370a0823160e01b81523060048201526001600160a01b03909116906370a0823190602401602060405180830381865afa1580156120d2573d6000803e3d6000fd5b505050506040513d601f19601f820116820180604052508101906120f691906137c4565b612101565b8a608001515b8b60a0015160405180606001604052808e610120015181526020018e60c0015181526020018e60e0015160405160200161214e919060609190911b6001600160601b031916815260140190565b6040516020818303038152906040528152508d60e00151604051602001612188919060609190911b6001600160601b031916815260140190565b6040516020818303038152906040528b6040518b63ffffffff1660e01b81526004016121bc9998979695949392919061414d565b6000604051808303818588803b1580156121d557600080fd5b505af11580156121e9573d6000803e3d6000fd5b505050505050505050565b60006003821115612255575080600061220e600283613f73565b612219906001613f1f565b90505b8181101561224f579050806002816122348186613f73565b61223e9190613f1f565b6122489190613f73565b905061221c565b50919050565b811561225f575060015b919050565b60008084116122b55760405162461bcd60e51b815260206004820152601b60248201527f526f757465723a20494e53554646494349454e545f414d4f554e540000000000604482015260640161060b565b6000831180156122c55750600082115b6123115760405162461bcd60e51b815260206004820152601e60248201527f526f757465723a20494e53554646494349454e545f4c49515549444954590000604482015260640161060b565b8261231c8386613f54565b6123269190613f73565b949350505050565b600081831061233d578161233f565b825b9392505050565b600061239b826040518060400160405280602081526020017f5361666545524332303a206c6f772d6c6576656c2063616c6c206661696c6564815250856001600160a01b0316612c489092919063ffffffff16565b80519091501561101a57808060200190518101906123b991906137a7565b61101a5760405162461bcd60e51b815260206004820152602a60248201527f5361666545524332303a204552433230206f7065726174696f6e20646964206e6044820152691bdd081cdd58d8d9595960b21b606482015260840161060b565b604080516001600160a01b038481166024830152604480830185905283518084039091018152606490920183526020820180516001600160e01b031663095ea7b360e01b179052915160009283929087169161247491906141eb565b6000604051808303816000865af19150503d80600081146124b1576040519150601f19603f3d011682016040523d82523d6000602084013e6124b6565b606091505b50915091508180156124e05750805115806124e05750808060200190518101906124e091906137a7565b6125115760405162461bcd60e51b8152602060048201526002602482015261534160f01b604482015260640161060b565b5050505050565b606060028351101561256c5760405162461bcd60e51b815260206004820152601e60248201527f556e697377617056324c6962726172793a20494e56414c49445f504154480000604482015260640161060b565b82516001600160401b038111156125855761258561329d565b6040519080825280602002602001820160405280156125ae578160200160208202803683370190505b50905083816000815181106125c5576125c561380b565b60200260200101818152505060005b600184516125e29190613870565b81101561269b57600080612636888785815181106126025761260261380b565b6020026020010151888660016126189190613f1f565b815181106126285761262861380b565b602002602001015188612c57565b9150915061265e84848151811061264f5761264f61380b565b60200260200101518383612d23565b8461266a856001613f1f565b8151811061267a5761267a61380b565b6020026020010181815250505050808061269390613f06565b9150506125d4565b50949350505050565b60008060006126b38686612e37565b6040516001600160601b0319606084811b8216602084015283901b16603482015291935091508790604801604051602081830303815290604052805190602001208560405160200161270793929190613774565b60408051601f198184030181529190528051602090910120979650505050505050565b60005b6001835161273b9190613870565b811015611798576000808483815181106127575761275761380b565b60200260200101518584600161276d9190613f1f565b8151811061277d5761277d61380b565b60200260200101519150915060006127958383612e37565b5090506000876127a6866001613f1f565b815181106127b6576127b661380b565b60200260200101519050600080836001600160a01b0316866001600160a01b0316146127e4578260006127e8565b6000835b91509150600060028a516127fc9190613870565b88106128085788612835565b600054612835906001600160a01b0316878c6128258c6002613f1f565b81518110611cc457611cc461380b565b905061285860008054906101000a90046001600160a01b031688886001546126a4565b6001600160a01b031663022c0d9f84848460006040519080825280601f01601f191660200182016040528015612895576020820181803683370190505b506040518563ffffffff1660e01b81526004016128b59493929190614207565b600060405180830381600087803b1580156128cf57600080fd5b505af11580156128e3573d6000803e3d6000fd5b505050505050505050505080806128f990613f06565b91505061272d565b6000846001600160a01b03163b1161291857600080fd5b604080516001600160a01b0385811660248301528481166044830152606480830185905283518084039091018152608490920183526020820180516001600160e01b03166323b872dd60e01b179052915160009283929088169161297c91906141eb565b6000604051808303816000865af19150503d80600081146129b9576040519150601f19603f3d011682016040523d82523d6000602084013e6129be565b606091505b50915091508180156129e85750805115806129e85750808060200190518101906129e891906137a7565b6129f157600080fd5b505050505050565b60005b8251811015611798576000612a4b848381518110612a1c57612a1c61380b565b602002602001015160000151858481518110612a3a57612a3a61380b565b6020026020010151602001516105ab565b509050600085612a5c846001613f1f565b81518110612a6c57612a6c61380b565b60200260200101519050600080836001600160a01b0316878681518110612a9557612a9561380b565b6020026020010151600001516001600160a01b031614612ab757826000612abb565b6000835b91509150600060018851612acf9190613870565b8610612adb5786612b4e565b612b4e88612aea886001613f1f565b81518110612afa57612afa61380b565b60200260200101516000015189886001612b149190613f1f565b81518110612b2457612b2461380b565b6020026020010151602001518a896001612b3e9190613f1f565b815181106111395761113961380b565b9050612ba1888781518110612b6557612b6561380b565b602002602001015160000151898881518110612b8357612b8361380b565b6020026020010151602001518a89815181106111395761113961380b565b6001600160a01b031663022c0d9f84848460006040519080825280601f01601f191660200182016040528015612bde576020820181803683370190505b506040518563ffffffff1660e01b8152600401612bfe9493929190614207565b600060405180830381600087803b158015612c1857600080fd5b505af1158015612c2c573d6000803e3d6000fd5b5050505050505050508080612c4090613f06565b9150506129fc565b60606123268484600085612f27565b6000806000612c668686612e37565b509050600080612c78898989896126a4565b6001600160a01b0316630902f1ac6040518163ffffffff1660e01b8152600401606060405180830381865afa158015612cb5573d6000803e3d6000fd5b505050506040513d601f19601f82011682018060405250810190612cd9919061424b565b506001600160701b031691506001600160701b03169150826001600160a01b0316886001600160a01b031614612d10578082612d13565b81815b909a909950975050505050505050565b6000808411612d885760405162461bcd60e51b815260206004820152602b60248201527f556e697377617056324c6962726172793a20494e53554646494349454e545f4960448201526a1394155517d05353d5539560aa1b606482015260840161060b565b600083118015612d985750600082115b612df55760405162461bcd60e51b815260206004820152602860248201527f556e697377617056324c6962726172793a20494e53554646494349454e545f4c604482015267495155494449545960c01b606482015260840161060b565b6000612e03856103e5612ff7565b90506000612e118285612ff7565b90506000612e2b83612e25886103e8612ff7565b9061305e565b9050611a158183613f73565b600080826001600160a01b0316846001600160a01b031603612ea95760405162461bcd60e51b815260206004820152602560248201527f556e697377617056324c6962726172793a204944454e544943414c5f41444452604482015264455353455360d81b606482015260840161060b565b826001600160a01b0316846001600160a01b031610612ec9578284612ecc565b83835b90925090506001600160a01b0382166106895760405162461bcd60e51b815260206004820152601e60248201527f556e697377617056324c6962726172793a205a45524f5f414444524553530000604482015260640161060b565b606082471015612f885760405162461bcd60e51b815260206004820152602660248201527f416464726573733a20696e73756666696369656e742062616c616e636520666f6044820152651c8818d85b1b60d21b606482015260840161060b565b600080866001600160a01b03168587604051612fa491906141eb565b60006040518083038185875af1925050503d8060008114612fe1576040519150601f19603f3d011682016040523d82523d6000602084013e612fe6565b606091505b5091509150611a15878383876130b3565b600081158061301b5750828261300d8183613f54565b92506130199083613f73565b145b6117275760405162461bcd60e51b815260206004820152601460248201527364732d6d6174682d6d756c2d6f766572666c6f7760601b604482015260640161060b565b60008261306b8382613f1f565b91508110156117275760405162461bcd60e51b815260206004820152601460248201527364732d6d6174682d6164642d6f766572666c6f7760601b604482015260640161060b565b6060831561312257825160000361311b576001600160a01b0385163b61311b5760405162461bcd60e51b815260206004820152601d60248201527f416464726573733a2063616c6c20746f206e6f6e2d636f6e7472616374000000604482015260640161060b565b5081612326565b61232683838151156131375781518083602001fd5b8060405162461bcd60e51b815260040161060b9190613253565b6001600160a01b038116811461316657600080fd5b50565b801515811461316657600080fd5b60008060006060848603121561318c57600080fd5b833561319781613151565b925060208401356131a781613151565b915060408401356131b781613169565b809150509250925092565b600080604083850312156131d557600080fd5b82356131e081613151565b915060208301356131f081613151565b809150509250929050565b60005b838110156132165781810151838201526020016131fe565b838111156117985750506000910152565b6000815180845261323f8160208601602086016131fb565b601f01601f19169290920160200192915050565b60208152600061233f6020830184613227565b60008060006060848603121561327b57600080fd5b83359250602084013561328d81613151565b915060408401356131b781613151565b634e487b7160e01b600052604160045260246000fd5b604051606081016001600160401b03811182821017156132d5576132d561329d565b60405290565b60405161016081016001600160401b03811182821017156132d5576132d561329d565b604051601f8201601f191681016001600160401b03811182821017156133265761332661329d565b604052919050565b60006001600160401b038211156133475761334761329d565b5060051b60200190565b60ff8116811461316657600080fd5b60006001600160401b038211156133795761337961329d565b50601f01601f191660200190565b600082601f83011261339857600080fd5b81356133ab6133a682613360565b6132fe565b8181528460208386010111156133c057600080fd5b816020850160208301376000918101602001919091529392505050565b600082601f8301126133ee57600080fd5b813560206133fe6133a68361332e565b82815260059290921b8401810191818101908684111561341d57600080fd5b8286015b8481101561345c5780356001600160401b038111156134405760008081fd5b61344e8986838b0101613387565b845250918301918301613421565b509695505050505050565b6000806040838503121561347a57600080fd5b82356001600160401b038082111561349157600080fd5b818501915085601f8301126134a557600080fd5b813560206134b56133a68361332e565b82815260059290921b840181019181810190898411156134d457600080fd5b948201945b838610156134fb5785356134ec81613351565b825294820194908201906134d9565b9650508601359250508082111561351157600080fd5b5061351e858286016133dd565b9150509250929050565b600080604080848603121561353c57600080fd5b833592506020808501356001600160401b0381111561355a57600080fd5b8501601f8101871361356b57600080fd5b80356135796133a68261332e565b8181526060918202830184019184820191908a84111561359857600080fd5b938501935b838510156135fb5780858c0312156135b55760008081fd5b6135bd6132b3565b85356135c881613151565b8152858701356135d781613151565b81880152858801356135e881613169565b818901528352938401939185019161359d565b508096505050505050509250929050565b6020808252825182820181905260009190848201906040850190845b8181101561364457835183529284019291840191600101613628565b50909695505050505050565b600080600080600060a0868803121561366857600080fd5b853561367381613151565b9450602086013561368381613151565b9350604086013561369381613169565b94979396509394606081013594506080013592915050565b61ffff8116811461316657600080fd5b60008060008060008060c087890312156136d457600080fd5b86356136df816136ab565b955060208701356001600160401b03808211156136fb57600080fd5b6137078a838b01613387565b9650604089013595506060890135915061372082613151565b9093506080880135925060a0880135908082111561373d57600080fd5b5061374a89828a01613387565b9150509295509295509295565b60006020828403121561376957600080fd5b813561233f81613151565b6001600160f81b0319815260609390931b6001600160601b03191660018401526015830191909152603582015260550190565b6000602082840312156137b957600080fd5b815161233f81613169565b6000602082840312156137d657600080fd5b5051919050565b6000806000606084860312156137f257600080fd5b8351925060208401519150604084015190509250925092565b634e487b7160e01b600052603260045260246000fd5b805161225f81613151565b6000806040838503121561383f57600080fd5b825161384a81613151565b6020939093015192949293505050565b634e487b7160e01b600052601160045260246000fd5b6000828210156138825761388261385a565b500390565b805162ffffff8116811461225f57600080fd5b600080600080600060a086880312156138b257600080fd5b8551945060208601516138c481613151565b60408701519094506138d581613151565b92506138e360608701613887565b915060808601516138f381613151565b809150509295509295909350565b600080600080600080600080610100898b03121561391e57600080fd5b8851975060208901519650604089015161393781613151565b60608a015190965061394881613151565b60808a015190955061395981613151565b935061396760a08a01613887565b925061397560c08a01613887565b915060e089015161398581613151565b809150509295985092959890939650565b600082601f8301126139a757600080fd5b815160206139b76133a68361332e565b82815260059290921b840181019181810190868411156139d657600080fd5b8286015b8481101561345c5780516139ed81613151565b83529183019183016139da565b600080600080600060a08688031215613a1257600080fd5b855194506020860151935060408601516001600160401b03811115613a3657600080fd5b613a4288828901613996565b9350506060860151613a5381613151565b60808701519092506138f381613169565b600080600080600060a08688031215613a7c57600080fd5b855194506020860151935060408601516001600160401b03811115613aa057600080fd5b613aac88828901613996565b9350506060860151613abd81613151565b80925050608086015190509295509295909350565b600060a082018783526020878185015260a0604085015281875180845260c086019150828901935060005b81811015613b225784516001600160a01b031683529383019391830191600101613afd565b50506001600160a01b03969096166060850152505050608001529392505050565b60006020808385031215613b5657600080fd5b82516001600160401b03811115613b6c57600080fd5b8301601f81018513613b7d57600080fd5b8051613b8b6133a68261332e565b81815260059190911b82018301908381019087831115613baa57600080fd5b928401925b82841015611a1557835182529284019290840190613baf565b600080600080600060a08688031215613be057600080fd5b8551945060208087015194506040808801516001600160401b03811115613c0657600080fd5b8801601f81018a13613c1757600080fd5b8051613c256133a68261332e565b8181526060918202830185019185820191908d841115613c4457600080fd5b938601935b83851015613ca75780858f031215613c615760008081fd5b613c696132b3565b8551613c7481613151565b815285880151613c8381613151565b8189015285870151613c9481613169565b8188015283529384019391860191613c49565b819950613cb5818e01613821565b985050505050505050608086015190509295509295909350565b805161225f816136ab565b600082601f830112613ceb57600080fd5b81516020613cfb6133a68361332e565b82815260059290921b84018101918181019086841115613d1a57600080fd5b8286015b8481101561345c578051613d3181613351565b8352918301918301613d1e565b600082601f830112613d4f57600080fd5b81516020613d5f6133a68361332e565b82815260059290921b84018101918181019086841115613d7e57600080fd5b8286015b8481101561345c5780516001600160401b03811115613da15760008081fd5b8701603f81018913613db35760008081fd5b848101516040613dc56133a683613360565b8281528b82848601011115613dda5760008081fd5b613de9838983018487016131fb565b8652505050918301918301613d82565b60008060008385036101a0811215613e1057600080fd5b61016080821215613e2057600080fd5b613e286132db565b9150613e3386613ccf565b8252613e4160208701613821565b602083015260408601516040830152606086015160608301526080860151608083015260a086015160a083015260c086015160c0830152613e8460e08701613821565b60e0830152610100613e97818801613821565b90830152610120868101519083015261014080870151908301528501519093506001600160401b0380821115613ecc57600080fd5b613ed887838801613cda565b9350610180860151915080821115613eef57600080fd5b50613efc86828701613d3e565b9150509250925092565b600060018201613f1857613f1861385a565b5060010190565b60008219821115613f3257613f3261385a565b500190565b600060208284031215613f4957600080fd5b815161233f81613151565b6000816000190483118215151615613f6e57613f6e61385a565b500290565b600082613f9057634e487b7160e01b600052601260045260246000fd5b500490565b600080600060608486031215613faa57600080fd5b8351613fb581613151565b60208501519093506001600160401b0380821115613fd257600080fd5b613fde87838801613cda565b93506040860151915080821115613eef57600080fd5b600081518084526020808501945080840160005b8381101561402757815160ff1687529582019590820190600101614008565b509495945050505050565b600081518084526020808501808196508360051b8101915082860160005b8581101561407a578284038952614068848351613227565b98850198935090840190600101614050565b5091979650505050505050565b60408152600061409a6040830185613ff4565b82810360208401526140ac8185614032565b95945050505050565b602081526000825160a060208401526140d160c0840182613227565b905060018060a01b0360208501511660408401526040840151606084015260608401516080840152608084015160a08401528091505092915050565b6001600160a01b038416815260606020820181905260009061413190830185613ff4565b82810360408401526141438185614032565b9695505050505050565b600061012061ffff8c1683528a602084015289604084015260018060a01b03891660608401528760808401528660a08401528060c0840152855181840152506020850151610140830152604085015160606101608401526141b2610180840182613227565b905082810360e08401526141c68186613227565b90508281036101008401526141db8185613227565b9c9b505050505050505050505050565b600082516141fd8184602087016131fb565b9190910192915050565b84815283602082015260018060a01b03831660408201526080606082015260006141436080830184613227565b80516001600160701b038116811461225f57600080fd5b60008060006060848603121561426057600080fd5b61426984614234565b925061427760208501614234565b9150604084015163ffffffff811681146131b757600080fdfea2646970667358221220fd7c4fbabac050a5d1260e598162ea24ca06911f327e4a81af471cec68c54e9d64736f6c634300080f0033",
    "linkReferences": {}
  },
  "methodIdentifiers": {
    "factory()": "c45a0155",
    "feeCollector()": "c415b95c",
    "getAmountOut(uint256,address,address)": "5e1e6325",
    "getAmountsOut(uint256,(address,address,bool)[])": "9881fcb4",
    "getReserves(address,address,bool)": "5e60dab5",
    "isPair(address)": "e5e31b13",
    "joeRouter()": "59f571e8",
    "pairCodeHash()": "9aab9248",
    "pairFor(address,address,bool)": "4c1ee03e",
    "pancakeRouter()": "c21ebd07",
    "quoteAddLiquidity(address,address,bool,uint256,uint256)": "98a0fb3c",
    "sgReceive(uint16,bytes,uint256,address,uint256,bytes)": "ab8236f3",
    "sortTokens(address,address)": "544caa56",
    "spookyRouter()": "8ed8ea7e",
    "stargateRouter()": "a9e56f3c",
    "swapRouter()": "c31c9c07",
    "swaps(uint8[],bytes[])": "67375cc8",
    "veloFactory()": "c7f5fd10",
    "veloWETH()": "fdc09e07",
    "version()": "54fd4d50",
    "weth()": "3fc8cef3"
  },
  "id": 32
}