{
  "abi": [
    {
      "inputs": [
        {
          "internalType": "address",
          "name": "_weth",
          "type": "address"
        },
        {
          "internalType": "contract ISwapRouter",
          "name": "_swapRouter",
          "type": "address"
        },
        {
          "internalType": "address",
          "name": "_sushiFactory",
          "type": "address"
        },
        {
          "internalType": "bytes32",
          "name": "_sushiPairCodeHash",
          "type": "bytes32"
        },
        {
          "internalType": "address",
          "name": "_veloFactory",
          "type": "address"
        },
        {
          "internalType": "address",
          "name": "_veloWeth",
          "type": "address"
        },
        {
          "internalType": "contract IStargateRouter",
          "name": "_stargateRouter",
          "type": "address"
        }
      ],
      "stateMutability": "nonpayable",
      "type": "constructor"
    },
    {
      "inputs": [],
      "name": "MoreThanZero",
      "type": "error"
    },
    {
      "inputs": [],
      "name": "MustBeGt0",
      "type": "error"
    },
    {
      "inputs": [],
      "name": "NotEnoughSteps",
      "type": "error"
    },
    {
      "inputs": [],
      "name": "NotStgRouter",
      "type": "error"
    },
    {
      "anonymous": false,
      "inputs": [
        {
          "indexed": false,
          "internalType": "address",
          "name": "_token",
          "type": "address"
        },
        {
          "indexed": false,
          "internalType": "uint256",
          "name": "_fee",
          "type": "uint256"
        }
      ],
      "name": "FeePaid",
      "type": "event"
    },
    {
      "anonymous": false,
      "inputs": [
        {
          "indexed": true,
          "internalType": "address",
          "name": "token",
          "type": "address"
        },
        {
          "indexed": false,
          "internalType": "uint256",
          "name": "amountLD",
          "type": "uint256"
        },
        {
          "indexed": false,
          "internalType": "bool",
          "name": "failed",
          "type": "bool"
        },
        {
          "indexed": false,
          "internalType": "bool",
          "name": "dustSent",
          "type": "bool"
        }
      ],
      "name": "ReceivedOnDestination",
      "type": "event"
    },
    {
      "inputs": [],
      "name": "factory",
      "outputs": [
        {
          "internalType": "address",
          "name": "",
          "type": "address"
        }
      ],
      "stateMutability": "view",
      "type": "function"
    },
    {
      "inputs": [],
      "name": "feeCollector",
      "outputs": [
        {
          "internalType": "address",
          "name": "",
          "type": "address"
        }
      ],
      "stateMutability": "view",
      "type": "function"
    },
    {
      "inputs": [
        {
          "internalType": "uint256",
          "name": "amountIn",
          "type": "uint256"
        },
        {
          "internalType": "address",
          "name": "tokenIn",
          "type": "address"
        },
        {
          "internalType": "address",
          "name": "tokenOut",
          "type": "address"
        }
      ],
      "name": "getAmountOut",
      "outputs": [
        {
          "internalType": "uint256",
          "name": "amount",
          "type": "uint256"
        },
        {
          "internalType": "bool",
          "name": "stable",
          "type": "bool"
        }
      ],
      "stateMutability": "view",
      "type": "function"
    },
    {
      "inputs": [
        {
          "internalType": "uint256",
          "name": "amountIn",
          "type": "uint256"
        },
        {
          "components": [
            {
              "internalType": "address",
              "name": "from",
              "type": "address"
            },
            {
              "internalType": "address",
              "name": "to",
              "type": "address"
            },
            {
              "internalType": "bool",
              "name": "stable",
              "type": "bool"
            }
          ],
          "internalType": "struct VelodromeAdapter.route[]",
          "name": "routes",
          "type": "tuple[]"
        }
      ],
      "name": "getAmountsOut",
      "outputs": [
        {
          "internalType": "uint256[]",
          "name": "amounts",
          "type": "uint256[]"
        }
      ],
      "stateMutability": "view",
      "type": "function"
    },
    {
      "inputs": [
        {
          "internalType": "address",
          "name": "tokenA",
          "type": "address"
        },
        {
          "internalType": "address",
          "name": "tokenB",
          "type": "address"
        },
        {
          "internalType": "bool",
          "name": "stable",
          "type": "bool"
        }
      ],
      "name": "getReserves",
      "outputs": [
        {
          "internalType": "uint256",
          "name": "reserveA",
          "type": "uint256"
        },
        {
          "internalType": "uint256",
          "name": "reserveB",
          "type": "uint256"
        }
      ],
      "stateMutability": "view",
      "type": "function"
    },
    {
      "inputs": [
        {
          "internalType": "address",
          "name": "pair",
          "type": "address"
        }
      ],
      "name": "isPair",
      "outputs": [
        {
          "internalType": "bool",
          "name": "",
          "type": "bool"
        }
      ],
      "stateMutability": "view",
      "type": "function"
    },
    {
      "inputs": [],
      "name": "joeRouter",
      "outputs": [
        {
          "internalType": "contract IJoeRouter02",
          "name": "",
          "type": "address"
        }
      ],
      "stateMutability": "view",
      "type": "function"
    },
    {
      "inputs": [],
      "name": "pairCodeHash",
      "outputs": [
        {
          "internalType": "bytes32",
          "name": "",
          "type": "bytes32"
        }
      ],
      "stateMutability": "view",
      "type": "function"
    },
    {
      "inputs": [
        {
          "internalType": "address",
          "name": "tokenA",
          "type": "address"
        },
        {
          "internalType": "address",
          "name": "tokenB",
          "type": "address"
        },
        {
          "internalType": "bool",
          "name": "stable",
          "type": "bool"
        }
      ],
      "name": "pairFor",
      "outputs": [
        {
          "internalType": "address",
          "name": "pair",
          "type": "address"
        }
      ],
      "stateMutability": "view",
      "type": "function"
    },
    {
      "inputs": [],
      "name": "pancakeRouter",
      "outputs": [
        {
          "internalType": "contract IPancakeRouter02",
          "name": "",
          "type": "address"
        }
      ],
      "stateMutability": "view",
      "type": "function"
    },
    {
      "inputs": [
        {
          "internalType": "address",
          "name": "tokenA",
          "type": "address"
        },
        {
          "internalType": "address",
          "name": "tokenB",
          "type": "address"
        },
        {
          "internalType": "bool",
          "name": "stable",
          "type": "bool"
        },
        {
          "internalType": "uint256",
          "name": "amountADesired",
          "type": "uint256"
        },
        {
          "internalType": "uint256",
          "name": "amountBDesired",
          "type": "uint256"
        }
      ],
      "name": "quoteAddLiquidity",
      "outputs": [
        {
          "internalType": "uint256",
          "name": "amountA",
          "type": "uint256"
        },
        {
          "internalType": "uint256",
          "name": "amountB",
          "type": "uint256"
        },
        {
          "internalType": "uint256",
          "name": "liquidity",
          "type": "uint256"
        }
      ],
      "stateMutability": "view",
      "type": "function"
    },
    {
      "inputs": [
        {
          "internalType": "uint16",
          "name": "",
          "type": "uint16"
        },
        {
          "internalType": "bytes",
          "name": "",
          "type": "bytes"
        },
        {
          "internalType": "uint256",
          "name": "",
          "type": "uint256"
        },
        {
          "internalType": "address",
          "name": "_token",
          "type": "address"
        },
        {
          "internalType": "uint256",
          "name": "amountLD",
          "type": "uint256"
        },
        {
          "internalType": "bytes",
          "name": "_payload",
          "type": "bytes"
        }
      ],
      "name": "sgReceive",
      "outputs": [],
      "stateMutability": "nonpayable",
      "type": "function"
    },
    {
      "inputs": [
        {
          "internalType": "address",
          "name": "tokenA",
          "type": "address"
        },
        {
          "internalType": "address",
          "name": "tokenB",
          "type": "address"
        }
      ],
      "name": "sortTokens",
      "outputs": [
        {
          "internalType": "address",
          "name": "token0",
          "type": "address"
        },
        {
          "internalType": "address",
          "name": "token1",
          "type": "address"
        }
      ],
      "stateMutability": "pure",
      "type": "function"
    },
    {
      "inputs": [],
      "name": "spookyRouter",
      "outputs": [
        {
          "internalType": "contract IUniswapV2Router02",
          "name": "",
          "type": "address"
        }
      ],
      "stateMutability": "view",
      "type": "function"
    },
    {
      "inputs": [],
      "name": "stargateRouter",
      "outputs": [
        {
          "internalType": "contract IStargateRouter",
          "name": "",
          "type": "address"
        }
      ],
      "stateMutability": "view",
      "type": "function"
    },
    {
      "inputs": [],
      "name": "swapRouter",
      "outputs": [
        {
          "internalType": "contract ISwapRouter",
          "name": "",
          "type": "address"
        }
      ],
      "stateMutability": "view",
      "type": "function"
    },
    {
      "inputs": [
        {
          "internalType": "uint8[]",
          "name": "steps",
          "type": "uint8[]"
        },
        {
          "internalType": "bytes[]",
          "name": "data",
          "type": "bytes[]"
        }
      ],
      "name": "swaps",
      "outputs": [],
      "stateMutability": "payable",
      "type": "function"
    },
    {
      "inputs": [],
      "name": "veloFactory",
      "outputs": [
        {
          "internalType": "address",
          "name": "",
          "type": "address"
        }
      ],
      "stateMutability": "view",
      "type": "function"
    },
    {
      "inputs": [],
      "name": "veloRouter",
      "outputs": [
        {
          "internalType": "address",
          "name": "",
          "type": "address"
        }
      ],
      "stateMutability": "view",
      "type": "function"
    },
    {
      "inputs": [],
      "name": "veloWETH",
      "outputs": [
        {
          "internalType": "contract IWETH",
          "name": "",
          "type": "address"
        }
      ],
      "stateMutability": "view",
      "type": "function"
    },
    {
      "inputs": [],
      "name": "version",
      "outputs": [
        {
          "internalType": "string",
          "name": "_version",
          "type": "string"
        }
      ],
      "stateMutability": "pure",
      "type": "function"
    },
    {
      "inputs": [],
      "name": "weth",
      "outputs": [
        {
          "internalType": "address",
          "name": "",
          "type": "address"
        }
      ],
      "stateMutability": "view",
      "type": "function"
    },
    {
      "stateMutability": "payable",
      "type": "receive"
    }
  ],
  "bytecode": {
    "object": "0x6101606040523480156200001257600080fd5b5060405162004e7738038062004e77833981016040819052620000359162000117565b6001600160a01b03868116608052600080546001600160a01b031916878316179055600185905581811660a0523360c052831660e081905260408051631355724960e31b81529051859285929091639aab9248916004808201926020929091908290030181865afa158015620000af573d6000803e3d6000fd5b505050506040513d601f19601f82011682018060405250810190620000d59190620001b6565b610120526001600160a01b0390811661010052979097166101405250620001d095505050505050565b6001600160a01b03811681146200011457600080fd5b50565b600080600080600080600060e0888a0312156200013357600080fd5b87516200014081620000fe565b60208901519097506200015381620000fe565b60408901519096506200016681620000fe565b606089015160808a015191965094506200018081620000fe565b60a08901519093506200019381620000fe565b60c0890151909250620001a681620000fe565b8091505092959891949750929550565b600060208284031215620001c957600080fd5b5051919050565b60805160a05160c05160e051610100516101205161014051614bdc6200029b600039600081816101570152610b4d0152600061058b015260006104ec01526000818161046001528181610550015281816106fb0152818161080f0152818161164d015281816117f10152611ba901526000818161040c015281816113fe015261257b01526000818161035c015281816119d00152818161251c01526125a20152600081816103d801528181611cae01528181611de001528181611e770152611f620152614bdc6000f3fe6080604052600436106101395760003560e01c80639aab9248116100ab578063c415b95c1161006f578063c415b95c146103fa578063c45a01551461042e578063c7f5fd101461044e578063d5ef98ea14610482578063e5e31b13146104aa578063fdc09e07146104da57600080fd5b80639aab924814610326578063a9e56f3c1461034a578063ab8236f31461037e578063c21ebd071461039e578063c31c9c07146103c657600080fd5b80635e1e6325116100fd5780635e1e63251461023f5780635e60dab51461027457806367375cc8146102a95780638ed8ea7e1461022a5780639881fcb4146102be57806398a0fb3c146102eb57600080fd5b80633fc8cef3146101455780634c1ee03e14610196578063544caa56146101b657806354fd4d50146101f657806359f571e81461022a57600080fd5b3661014057005b600080fd5b34801561015157600080fd5b506101797f000000000000000000000000000000000000000000000000000000000000000081565b6040516001600160a01b0390911681526020015b60405180910390f35b3480156101a257600080fd5b506101796101b13660046136a7565b61050e565b3480156101c257600080fd5b506101d66101d13660046136f2565b6105de565b604080516001600160a01b0393841681529290911660208301520161018d565b34801561020257600080fd5b506040805180820182526005815264302e302e3360d81b6020820152905161018d9190613783565b34801561023657600080fd5b50610179600081565b34801561024b57600080fd5b5061025f61025a366004613796565b6106c3565b6040805192835290151560208301520161018d565b34801561028057600080fd5b5061029461028f3660046136a7565b610917565b6040805192835260208301919091520161018d565b6102bc6102b73660046139db565b6109cf565b005b3480156102ca57600080fd5b506102de6102d9366004613a9c565b611500565b60405161018d9190613b80565b3480156102f757600080fd5b5061030b610306366004613bc4565b6117b9565b6040805193845260208401929092529082015260600161018d565b34801561033257600080fd5b5061033c60015481565b60405190815260200161018d565b34801561035657600080fd5b506101797f000000000000000000000000000000000000000000000000000000000000000081565b34801561038a57600080fd5b506102bc610399366004613c2f565b6119c5565b3480156103aa57600080fd5b506101797310ed43c718714eb63d5aa57b78b54704e256024e81565b3480156103d257600080fd5b506101797f000000000000000000000000000000000000000000000000000000000000000081565b34801561040657600080fd5b506101797f000000000000000000000000000000000000000000000000000000000000000081565b34801561043a57600080fd5b50600054610179906001600160a01b031681565b34801561045a57600080fd5b506101797f000000000000000000000000000000000000000000000000000000000000000081565b34801561048e57600080fd5b50610179739c12939390052919af3155f41bf4160fd3666a6f81565b3480156104b657600080fd5b506104ca6104c5366004613ccb565b611b87565b604051901515815260200161018d565b3480156104e657600080fd5b506101797f000000000000000000000000000000000000000000000000000000000000000081565b600080600061051d86866105de565b6040516001600160601b0319606084811b8216602084015283901b16603482015286151560f81b604882015291935091507f000000000000000000000000000000000000000000000000000000000000000090604901604051602081830303815290604052805190602001207f00000000000000000000000000000000000000000000000000000000000000006040516020016105bc93929190613ce8565b60408051601f1981840301815291905280516020909101209695505050505050565b600080826001600160a01b0316846001600160a01b0316036106475760405162461bcd60e51b815260206004820152601b60248201527f526f757465723a204944454e544943414c5f414444524553534553000000000060448201526064015b60405180910390fd5b826001600160a01b0316846001600160a01b03161061066757828461066a565b83835b90925090506001600160a01b0382166106bc5760405162461bcd60e51b8152602060048201526014602482015273526f757465723a205a45524f5f4144445245535360601b604482015260640161063e565b9250929050565b60008060006106d48585600161050e565b60405163e5e31b1360e01b81526001600160a01b03828116600483015291925060009182917f00000000000000000000000000000000000000000000000000000000000000009091169063e5e31b1390602401602060405180830381865afa158015610744573d6000803e3d6000fd5b505050506040513d601f19601f820116820180604052508101906107689190613d1b565b156107e1576040516378a051ad60e11b8152600481018990526001600160a01b03888116602483015284169063f140a35a90604401602060405180830381865afa1580156107ba573d6000803e3d6000fd5b505050506040513d601f19601f820116820180604052508101906107de9190613d38565b91505b6107ed8787600061050e565b60405163e5e31b1360e01b81526001600160a01b0380831660048301529194507f00000000000000000000000000000000000000000000000000000000000000009091169063e5e31b1390602401602060405180830381865afa158015610858573d6000803e3d6000fd5b505050506040513d601f19601f8201168201806040525081019061087c9190613d1b565b156108f5576040516378a051ad60e11b8152600481018990526001600160a01b03888116602483015284169063f140a35a90604401602060405180830381865afa1580156108ce573d6000803e3d6000fd5b505050506040513d601f19601f820116820180604052508101906108f29190613d38565b90505b80821161090457806000610908565b8160015b94509450505050935093915050565b600080600061092686866105de565b50905060008061093788888861050e565b6001600160a01b0316630902f1ac6040518163ffffffff1660e01b8152600401606060405180830381865afa158015610974573d6000803e3d6000fd5b505050506040513d601f19601f820116820180604052508101906109989190613d51565b5091509150826001600160a01b0316886001600160a01b0316146109bd5780826109c0565b81815b90999098509650505050505050565b60005b82518110156114fb5760008382815181106109ef576109ef613d7f565b60200260200101519050600160ff168160ff1603610aed57600080848481518110610a1c57610a1c613d7f565b6020026020010151806020019051810190610a379190613e5f565b9150915060005b8251811015610ae5576000828281518110610a5b57610a5b613d7f565b602002602001015111610a815760405163fe4155c760e01b815260040160405180910390fd5b610ad33330848481518110610a9857610a98613d7f565b6020026020010151868581518110610ab257610ab2613d7f565b60200260200101516001600160a01b0316611c1c909392919063ffffffff16565b80610add81613ece565b915050610a3e565b5050506114e8565b60011960ff821601610bc5576000838381518110610b0d57610b0d613d7f565b6020026020010151806020019051810190610b289190613d38565b905060008111610b4b5760405163fe4155c760e01b815260040160405180910390fd5b7f00000000000000000000000000000000000000000000000000000000000000006001600160a01b031663d0e30db0826040518263ffffffff1660e01b81526004016000604051808303818588803b158015610ba657600080fd5b505af1158015610bba573d6000803e3d6000fd5b5050505050506114e8565b60021960ff821601610c4a576000838381518110610be557610be5613d7f565b6020026020010151806020019051810190610c009190613efa565b905060005b8151811015610c4357610c30828581518110610c2357610c23613d7f565b6020026020010151611c8d565b5080610c3b81613ece565b915050610c05565b50506114e8565b60031960ff821601610cc8576000838381518110610c6a57610c6a613d7f565b6020026020010151806020019051810190610c859190613fd2565b905060005b8151811015610c4357610cb5828281518110610ca857610ca8613d7f565b6020026020010151611e56565b5080610cc081613ece565b915050610c8a565b60041960ff821601610d46576000838381518110610ce857610ce8613d7f565b6020026020010151806020019051810190610d0391906140e0565b905060005b8151811015610c4357610d33828281518110610d2657610d26613d7f565b6020026020010151611fac565b5080610d3e81613ece565b915050610d08565b60051960ff821601610f05576000838381518110610d6657610d66613d7f565b6020026020010151806020019051810190610d8191906141ed565b905060005b8151811015610c4357610e026000838381518110610da657610da6613d7f565b602002602001015160000151848481518110610dc457610dc4613d7f565b602002602001015160400151600081518110610de257610de2613d7f565b60200260200101516001600160a01b031661218c9092919063ffffffff16565b60006001600160a01b03166338ed1739838381518110610e2457610e24613d7f565b602002602001015160000151848481518110610e4257610e42613d7f565b602002602001015160200151858581518110610e6057610e60613d7f565b60200260200101516040015130878781518110610e7f57610e7f613d7f565b6020026020010151606001516040518663ffffffff1660e01b8152600401610eab9594939291906142e7565b6000604051808303816000875af1158015610eca573d6000803e3d6000fd5b505050506040513d6000823e601f3d908101601f19168201604052610ef29190810190614358565b5080610efd81613ece565b915050610d86565b60061960ff82160161108e576000838381518110610f2557610f25613d7f565b6020026020010151806020019051810190610f4091906141ed565b905060005b8151811015610c4357610f787310ed43c718714eb63d5aa57b78b54704e256024e838381518110610da657610da6613d7f565b7310ed43c718714eb63d5aa57b78b54704e256024e6001600160a01b03166338ed1739838381518110610fad57610fad613d7f565b602002602001015160000151848481518110610fcb57610fcb613d7f565b602002602001015160200151858581518110610fe957610fe9613d7f565b6020026020010151604001513087878151811061100857611008613d7f565b6020026020010151606001516040518663ffffffff1660e01b81526004016110349594939291906142e7565b6000604051808303816000875af1158015611053573d6000803e3d6000fd5b505050506040513d6000823e601f3d908101601f1916820160405261107b9190810190614358565b508061108681613ece565b915050610f45565b60071960ff8216016111f15760008383815181106110ae576110ae613d7f565b60200260200101518060200190518101906110c991906141ed565b905060005b8151811015610c43576110ee6000838381518110610da657610da6613d7f565b60006001600160a01b03166338ed173983838151811061111057611110613d7f565b60200260200101516000015184848151811061112e5761112e613d7f565b60200260200101516020015185858151811061114c5761114c613d7f565b6020026020010151604001513087878151811061116b5761116b613d7f565b6020026020010151606001516040518663ffffffff1660e01b81526004016111979594939291906142e7565b6000604051808303816000875af11580156111b6573d6000803e3d6000fd5b505050506040513d6000823e601f3d908101601f191682016040526111de9190810190614358565b50806111e981613ece565b9150506110ce565b60081960ff8216016112f957600083838151811061121157611211613d7f565b602002602001015180602001905181019061122c919061438c565b905060005b8151811015610c43576112c4739c12939390052919af3155f41bf4160fd3666a6f83838151811061126457611264613d7f565b60200260200101516000015184848151811061128257611282613d7f565b6020026020010151604001516000815181106112a0576112a0613d7f565b6020026020010151600001516001600160a01b031661218c9092919063ffffffff16565b6112e68282815181106112d9576112d9613d7f565b602002602001015161223e565b50806112f181613ece565b915050611231565b60091960ff82160161149557600083838151811061131957611319613d7f565b60200260200101518060200190518101906113349190614541565b905060005b815151811015610c435760008260000151828151811061135b5761135b613d7f565b60209081029190910101516040516370a0823160e01b81523060048201529091506000906001600160a01b038316906370a0823190602401602060405180830381865afa1580156113b0573d6000803e3d6000fd5b505050506040513d601f19601f820116820180604052508101906113d49190613d38565b905060006113e1826123d6565b90506113ed81836145e4565b91506114236001600160a01b0384167f0000000000000000000000000000000000000000000000000000000000000000836123fb565b602085015161143d906001600160a01b03851690846123fb565b604080516001600160a01b0385168152602081018390527f075a2720282fdf622141dae0b048ef90a21a7e57c134c76912d19d006b3b3f6f910160405180910390a1505050808061148d90613ece565b915050611339565b600a1960ff8216016114e85760008060008585815181106114b8576114b8613d7f565b60200260200101518060200190518101906114d39190614725565b9250925092506114e483838361242b565b5050505b50806114f381613ece565b9150506109d2565b505050565b606060018251101561154b5760405162461bcd60e51b81526020600482015260146024820152730a4deeae8cae47440929cac82989288bea082a8960631b604482015260640161063e565b8151611558906001614832565b6001600160401b0381111561156f5761156f6137cd565b604051908082528060200260200182016040528015611598578160200160208202803683370190505b50905082816000815181106115af576115af613d7f565b60200260200101818152505060005b82518110156117b257600061162b8483815181106115de576115de613d7f565b6020026020010151600001518584815181106115fc576115fc613d7f565b60200260200101516020015186858151811061161a5761161a613d7f565b60200260200101516040015161050e565b60405163e5e31b1360e01b81526001600160a01b0380831660048301529192507f00000000000000000000000000000000000000000000000000000000000000009091169063e5e31b1390602401602060405180830381865afa158015611696573d6000803e3d6000fd5b505050506040513d601f19601f820116820180604052508101906116ba9190613d1b565b1561179f57806001600160a01b031663f140a35a8484815181106116e0576116e0613d7f565b60200260200101518685815181106116fa576116fa613d7f565b6020026020010151600001516040518363ffffffff1660e01b81526004016117359291909182526001600160a01b0316602082015260400190565b602060405180830381865afa158015611752573d6000803e3d6000fd5b505050506040513d601f19601f820116820180604052508101906117769190613d38565b83611782846001614832565b8151811061179257611792613d7f565b6020026020010181815250505b50806117aa81613ece565b9150506115be565b5092915050565b6040516306801cc360e41b81526001600160a01b038681166004830152858116602483015284151560448301526000918291829182917f00000000000000000000000000000000000000000000000000000000000000001690636801cc3090606401602060405180830381865afa158015611838573d6000803e3d6000fd5b505050506040513d601f19601f8201168201806040525081019061185c919061484a565b9050600080806001600160a01b038416156118e657836001600160a01b03166318160ddd6040518163ffffffff1660e01b8152600401602060405180830381865afa1580156118af573d6000803e3d6000fd5b505050506040513d601f19601f820116820180604052508101906118d39190613d38565b90506118e08c8c8c610917565b90935091505b821580156118f2575081155b15611923578896508795506103e861191261190d888a614867565b612721565b61191c91906145e4565b94506119b6565b60006119308a858561278b565b9050888111611978578997509550856119718461194d848b614867565b6119579190614886565b84611962858b614867565b61196c9190614886565b612855565b95506119b4565b60006119858a858761278b565b98508997508890506119b08561199b8584614867565b6119a59190614886565b85611962868c614867565b9650505b505b50505050955095509592505050565b336001600160a01b037f00000000000000000000000000000000000000000000000000000000000000001614611a0e57604051638afe477f60e01b815260040160405180910390fd5b600080600083806020019051810190611a2791906148a8565b604051630ce6eb9960e31b8152929550909350915060009030906367375cc890611a57908690869060040161499d565b600060405180830381600087803b158015611a7157600080fd5b505af1925050508015611a82575060015b611ad0573d808015611ab0576040519150601f19603f3d011682016040523d82523d6000602084013e611ab5565b606091505b50611aca6001600160a01b03891686896123fb565b60019150505b60004715611b2c576040516001600160a01b038616904790600081818185875af1925050503d8060008114611b21576040519150601f19603f3d011682016040523d82523d6000602084013e611b26565b606091505b50909150505b6040805188815283151560208201528215158183015290516001600160a01b038a16917f7f345d6da48bd1339fd428ff45265a0f01258b14ca09dcf8db0c469f4f732fd3919081900360600190a25050505050505050505050565b60405163e5e31b1360e01b81526001600160a01b0382811660048301526000917f00000000000000000000000000000000000000000000000000000000000000009091169063e5e31b1390602401602060405180830381865afa158015611bf2573d6000803e3d6000fd5b505050506040513d601f19601f82011682018060405250810190611c169190613d1b565b92915050565b6040516001600160a01b0380851660248301528316604482015260648101829052611c879085906323b872dd60e01b906084015b60408051601f198184030181529190526020810180516001600160e01b03166001600160e01b03199093169290921790915261286b565b50505050565b60208101516040516370a0823160e01b8152306004820152600091611d29917f0000000000000000000000000000000000000000000000000000000000000000906001600160a01b038316906370a08231906024015b602060405180830381865afa158015611d00573d6000803e3d6000fd5b505050506040513d601f19601f82011682018060405250810190611d249190613d38565b61293d565b60408051610100810182526020848101516001600160a01b03908116835285840151811691830191825260608087015162ffffff908116858701908152309286019283524260808701908152895160a08801908152600060c0890181815260e08a01918252995163414bf38960e01b815289518816600482015297518716602489015292519093166044870152925184166064860152915160848501525160a4840152935160c48301529251831660e482015290917f0000000000000000000000000000000000000000000000000000000000000000169063414bf38990610104015b6020604051808303816000875af1158015611e2b573d6000803e3d6000fd5b505050506040513d601f19601f82011682018060405250810190611e4f9190613d38565b9392505050565b60408181015190516370a0823160e01b8152306004820152600091611eb0917f0000000000000000000000000000000000000000000000000000000000000000906001600160a01b038316906370a0823190602401611ce3565b6040805160a08082018352918401519184015160608086015160c08088015160808901516001600160601b031997851b8816928701929092526001600160e81b031960e895861b811660d488015292841b871660d787015290931b1660eb8401521b90911660ee8201526000908061010281016040516020818303038152906040528152602001306001600160a01b0316815260200142815260200184600001518152602001846020015181525090507f00000000000000000000000000000000000000000000000000000000000000006001600160a01b031663c04b8d59826040518263ffffffff1660e01b8152600401611e0c91906149cb565b60008054825160408401516001548493611fd3936001600160a01b03909116929091612a3d565b90508060018251611fe491906145e4565b81518110611ff457611ff4613d7f565b6020026020010151915082602001518210156120525760405162461bcd60e51b815260206004820152601760248201527f696e73756666696369656e742d616d6f756e742d6f7574000000000000000000604482015260640161063e565b826060015115612177576000805460408501518051612177936120b5936001600160a01b0316929161208657612086613d7f565b602002602001015186604001516001815181106120a5576120a5613d7f565b6020026020010151600154612bc9565b84604001516000815181106120cc576120cc613d7f565b60209081029190910101516040516370a0823160e01b81523060048201526001600160a01b03909116906370a0823190602401602060405180830381865afa15801561211c573d6000803e3d6000fd5b505050506040513d601f19601f820116820180604052508101906121409190613d38565b856040015160008151811061215757612157613d7f565b60200260200101516001600160a01b03166123fb9092919063ffffffff16565b61218681846040015130612c4f565b50919050565b604051636eb1769f60e11b81523060048201526001600160a01b038381166024830152600091839186169063dd62ed3e90604401602060405180830381865afa1580156121dd573d6000803e3d6000fd5b505050506040513d601f19601f820116820180604052508101906122019190613d38565b61220b9190614832565b6040516001600160a01b038516602482015260448101829052909150611c8790859063095ea7b360e01b90606401611c50565b60608160600151428110156122875760405162461bcd60e51b815260206004820152600f60248201526e149bdd5d195c8e8811561412549151608a1b604482015260640161063e565b61229983600001518460400151611500565b9150826020015182600184516122af91906145e4565b815181106122bf576122bf613d7f565b602002602001015110156123205760405162461bcd60e51b815260206004820152602260248201527f526f757465723a20494e53554646494349454e545f4f55545055545f414d4f55604482015261139560f21b606482015260840161063e565b6123c7836040015160008151811061233a5761233a613d7f565b602002602001015160000151306123a7866040015160008151811061236157612361613d7f565b602002602001015160000151876040015160008151811061238457612384613d7f565b602002602001015160200151886040015160008151811061161a5761161a613d7f565b856000815181106123ba576123ba613d7f565b6020026020010151612e26565b61218682846040015130612f1e565b60006127106123e78361270b614867565b6123f19190614886565b611c1690836145e4565b6040516001600160a01b0383166024820152604481018290526114fb90849063a9059cbb60e01b90606401611c50565b6000341161244c5760405163c9935ff960e01b815260040160405180910390fd5b6000836101000151838360405160200161246893929190614a23565b604051602081830303815290604052905083608001516000036124f85760208401516040516370a0823160e01b81523060048201526001600160a01b03909116906370a0823190602401602060405180830381865afa1580156124cf573d6000803e3d6000fd5b505050506040513d601f19601f820116820180604052508101906124f39190613d38565b6124fe565b83608001515b608085018190526020850151612541916001600160a01b03909116907f00000000000000000000000000000000000000000000000000000000000000009061218c565b600061255085608001516123d6565b9050808560800181815161256491906145e4565b90525060208501516125a0906001600160a01b03167f0000000000000000000000000000000000000000000000000000000000000000836123fb565b7f00000000000000000000000000000000000000000000000000000000000000006001600160a01b0316639fbf10fc47876000015188604001518960600151308b608001518c60a0015160405180606001604052808f610120015181526020018f60c0015181526020018f60e00151604051602001612632919060609190911b6001600160601b031916815260140190565b6040516020818303038152906040528152508e60e0015160405160200161266c919060609190911b6001600160601b031916815260140190565b6040516020818303038152906040528c6040518b63ffffffff1660e01b81526004016126a099989796959493929190614a63565b6000604051808303818588803b1580156126b957600080fd5b505af11580156126cd573d6000803e3d6000fd5b50505050602086810151604080516001600160a01b0390921682529181018490527f075a2720282fdf622141dae0b048ef90a21a7e57c134c76912d19d006b3b3f6f92500160405180910390a15050505050565b6000600382111561277c575080600061273b600283614886565b612746906001614832565b90505b81811015612186579050806002816127618186614886565b61276b9190614832565b6127759190614886565b9050612749565b8115612786575060015b919050565b60008084116127dc5760405162461bcd60e51b815260206004820152601b60248201527f526f757465723a20494e53554646494349454e545f414d4f554e540000000000604482015260640161063e565b6000831180156127ec5750600082115b6128385760405162461bcd60e51b815260206004820152601e60248201527f526f757465723a20494e53554646494349454e545f4c49515549444954590000604482015260640161063e565b826128438386614867565b61284d9190614886565b949350505050565b60008183106128645781611e4f565b5090919050565b60006128c0826040518060400160405280602081526020017f5361666545524332303a206c6f772d6c6576656c2063616c6c206661696c6564815250856001600160a01b031661316d9092919063ffffffff16565b8051909150156114fb57808060200190518101906128de9190613d1b565b6114fb5760405162461bcd60e51b815260206004820152602a60248201527f5361666545524332303a204552433230206f7065726174696f6e20646964206e6044820152691bdd081cdd58d8d9595960b21b606482015260840161063e565b604080516001600160a01b038481166024830152604480830185905283518084039091018152606490920183526020820180516001600160e01b031663095ea7b360e01b17905291516000928392908716916129999190614b01565b6000604051808303816000865af19150503d80600081146129d6576040519150601f19603f3d011682016040523d82523d6000602084013e6129db565b606091505b5091509150818015612a05575080511580612a05575080806020019051810190612a059190613d1b565b612a365760405162461bcd60e51b8152602060048201526002602482015261534160f01b604482015260640161063e565b5050505050565b6060600283511015612a915760405162461bcd60e51b815260206004820152601e60248201527f556e697377617056324c6962726172793a20494e56414c49445f504154480000604482015260640161063e565b82516001600160401b03811115612aaa57612aaa6137cd565b604051908082528060200260200182016040528015612ad3578160200160208202803683370190505b5090508381600081518110612aea57612aea613d7f565b60200260200101818152505060005b60018451612b0791906145e4565b811015612bc057600080612b5b88878581518110612b2757612b27613d7f565b602002602001015188866001612b3d9190614832565b81518110612b4d57612b4d613d7f565b60200260200101518861317c565b91509150612b83848481518110612b7457612b74613d7f565b60200260200101518383613248565b84612b8f856001614832565b81518110612b9f57612b9f613d7f565b60200260200101818152505050508080612bb890613ece565b915050612af9565b50949350505050565b6000806000612bd88686613367565b6040516001600160601b0319606084811b8216602084015283901b166034820152919350915087906048016040516020818303038152906040528051906020012085604051602001612c2c93929190613ce8565b60408051601f198184030181529190528051602090910120979650505050505050565b60005b60018351612c6091906145e4565b811015611c8757600080848381518110612c7c57612c7c613d7f565b602002602001015185846001612c929190614832565b81518110612ca257612ca2613d7f565b6020026020010151915091506000612cba8383613367565b509050600087612ccb866001614832565b81518110612cdb57612cdb613d7f565b60200260200101519050600080836001600160a01b0316866001600160a01b031614612d0957826000612d0d565b6000835b91509150600060028a51612d2191906145e4565b8810612d2d5788612d5a565b600054612d5a906001600160a01b0316878c612d4a8c6002614832565b815181106120a5576120a5613d7f565b9050612d7d60008054906101000a90046001600160a01b03168888600154612bc9565b6001600160a01b031663022c0d9f84848460006040519080825280601f01601f191660200182016040528015612dba576020820181803683370190505b506040518563ffffffff1660e01b8152600401612dda9493929190614b1d565b600060405180830381600087803b158015612df457600080fd5b505af1158015612e08573d6000803e3d6000fd5b50505050505050505050508080612e1e90613ece565b915050612c52565b6000846001600160a01b03163b11612e3d57600080fd5b604080516001600160a01b0385811660248301528481166044830152606480830185905283518084039091018152608490920183526020820180516001600160e01b03166323b872dd60e01b1790529151600092839290881691612ea19190614b01565b6000604051808303816000865af19150503d8060008114612ede576040519150601f19603f3d011682016040523d82523d6000602084013e612ee3565b606091505b5091509150818015612f0d575080511580612f0d575080806020019051810190612f0d9190613d1b565b612f1657600080fd5b505050505050565b60005b8251811015611c87576000612f70848381518110612f4157612f41613d7f565b602002602001015160000151858481518110612f5f57612f5f613d7f565b6020026020010151602001516105de565b509050600085612f81846001614832565b81518110612f9157612f91613d7f565b60200260200101519050600080836001600160a01b0316878681518110612fba57612fba613d7f565b6020026020010151600001516001600160a01b031614612fdc57826000612fe0565b6000835b91509150600060018851612ff491906145e4565b86106130005786613073565b6130738861300f886001614832565b8151811061301f5761301f613d7f565b602002602001015160000151898860016130399190614832565b8151811061304957613049613d7f565b6020026020010151602001518a8960016130639190614832565b8151811061161a5761161a613d7f565b90506130c688878151811061308a5761308a613d7f565b6020026020010151600001518988815181106130a8576130a8613d7f565b6020026020010151602001518a898151811061161a5761161a613d7f565b6001600160a01b031663022c0d9f84848460006040519080825280601f01601f191660200182016040528015613103576020820181803683370190505b506040518563ffffffff1660e01b81526004016131239493929190614b1d565b600060405180830381600087803b15801561313d57600080fd5b505af1158015613151573d6000803e3d6000fd5b505050505050505050808061316590613ece565b915050612f21565b606061284d8484600085613457565b600080600061318b8686613367565b50905060008061319d89898989612bc9565b6001600160a01b0316630902f1ac6040518163ffffffff1660e01b8152600401606060405180830381865afa1580156131da573d6000803e3d6000fd5b505050506040513d601f19601f820116820180604052508101906131fe9190614b61565b506001600160701b031691506001600160701b03169150826001600160a01b0316886001600160a01b031614613235578082613238565b81815b909a909950975050505050505050565b60008084116132ad5760405162461bcd60e51b815260206004820152602b60248201527f556e697377617056324c6962726172793a20494e53554646494349454e545f4960448201526a1394155517d05353d5539560aa1b606482015260840161063e565b6000831180156132bd5750600082115b61331a5760405162461bcd60e51b815260206004820152602860248201527f556e697377617056324c6962726172793a20494e53554646494349454e545f4c604482015267495155494449545960c01b606482015260840161063e565b6000613328856103e5613527565b905060006133368285613527565b905060006133508361334a886103e8613527565b9061358e565b905061335c8183614886565b979650505050505050565b600080826001600160a01b0316846001600160a01b0316036133d95760405162461bcd60e51b815260206004820152602560248201527f556e697377617056324c6962726172793a204944454e544943414c5f41444452604482015264455353455360d81b606482015260840161063e565b826001600160a01b0316846001600160a01b0316106133f95782846133fc565b83835b90925090506001600160a01b0382166106bc5760405162461bcd60e51b815260206004820152601e60248201527f556e697377617056324c6962726172793a205a45524f5f414444524553530000604482015260640161063e565b6060824710156134b85760405162461bcd60e51b815260206004820152602660248201527f416464726573733a20696e73756666696369656e742062616c616e636520666f6044820152651c8818d85b1b60d21b606482015260840161063e565b600080866001600160a01b031685876040516134d49190614b01565b60006040518083038185875af1925050503d8060008114613511576040519150601f19603f3d011682016040523d82523d6000602084013e613516565b606091505b509150915061335c878383876135e3565b600081158061354b5750828261353d8183614867565b92506135499083614886565b145b611c165760405162461bcd60e51b815260206004820152601460248201527364732d6d6174682d6d756c2d6f766572666c6f7760601b604482015260640161063e565b60008261359b8382614832565b9150811015611c165760405162461bcd60e51b815260206004820152601460248201527364732d6d6174682d6164642d6f766572666c6f7760601b604482015260640161063e565b6060831561365257825160000361364b576001600160a01b0385163b61364b5760405162461bcd60e51b815260206004820152601d60248201527f416464726573733a2063616c6c20746f206e6f6e2d636f6e7472616374000000604482015260640161063e565b508161284d565b61284d83838151156136675781518083602001fd5b8060405162461bcd60e51b815260040161063e9190613783565b6001600160a01b038116811461369657600080fd5b50565b801515811461369657600080fd5b6000806000606084860312156136bc57600080fd5b83356136c781613681565b925060208401356136d781613681565b915060408401356136e781613699565b809150509250925092565b6000806040838503121561370557600080fd5b823561371081613681565b9150602083013561372081613681565b809150509250929050565b60005b8381101561374657818101518382015260200161372e565b83811115611c875750506000910152565b6000815180845261376f81602086016020860161372b565b601f01601f19169290920160200192915050565b602081526000611e4f6020830184613757565b6000806000606084860312156137ab57600080fd5b8335925060208401356137bd81613681565b915060408401356136e781613681565b634e487b7160e01b600052604160045260246000fd5b604051606081016001600160401b0381118282101715613805576138056137cd565b60405290565b604051608081016001600160401b0381118282101715613805576138056137cd565b60405160e081016001600160401b0381118282101715613805576138056137cd565b60405161016081016001600160401b0381118282101715613805576138056137cd565b604051601f8201601f191681016001600160401b038111828210171561389a5761389a6137cd565b604052919050565b60006001600160401b038211156138bb576138bb6137cd565b5060051b60200190565b60ff8116811461369657600080fd5b60006001600160401b038211156138ed576138ed6137cd565b50601f01601f191660200190565b600082601f83011261390c57600080fd5b813561391f61391a826138d4565b613872565b81815284602083860101111561393457600080fd5b816020850160208301376000918101602001919091529392505050565b600082601f83011261396257600080fd5b8135602061397261391a836138a2565b82815260059290921b8401810191818101908684111561399157600080fd5b8286015b848110156139d05780356001600160401b038111156139b45760008081fd5b6139c28986838b01016138fb565b845250918301918301613995565b509695505050505050565b600080604083850312156139ee57600080fd5b82356001600160401b0380821115613a0557600080fd5b818501915085601f830112613a1957600080fd5b81356020613a2961391a836138a2565b82815260059290921b84018101918181019089841115613a4857600080fd5b948201945b83861015613a6f578535613a60816138c5565b82529482019490820190613a4d565b96505086013592505080821115613a8557600080fd5b50613a9285828601613951565b9150509250929050565b6000806040808486031215613ab057600080fd5b833592506020808501356001600160401b03811115613ace57600080fd5b8501601f81018713613adf57600080fd5b8035613aed61391a826138a2565b8181526060918202830184019184820191908a841115613b0c57600080fd5b938501935b83851015613b6f5780858c031215613b295760008081fd5b613b316137e3565b8535613b3c81613681565b815285870135613b4b81613681565b8188015285880135613b5c81613699565b8189015283529384019391850191613b11565b508096505050505050509250929050565b6020808252825182820181905260009190848201906040850190845b81811015613bb857835183529284019291840191600101613b9c565b50909695505050505050565b600080600080600060a08688031215613bdc57600080fd5b8535613be781613681565b94506020860135613bf781613681565b93506040860135613c0781613699565b94979396509394606081013594506080013592915050565b61ffff8116811461369657600080fd5b60008060008060008060c08789031215613c4857600080fd5b8635613c5381613c1f565b955060208701356001600160401b0380821115613c6f57600080fd5b613c7b8a838b016138fb565b96506040890135955060608901359150613c9482613681565b9093506080880135925060a08801359080821115613cb157600080fd5b50613cbe89828a016138fb565b9150509295509295509295565b600060208284031215613cdd57600080fd5b8135611e4f81613681565b6001600160f81b0319815260609390931b6001600160601b03191660018401526015830191909152603582015260550190565b600060208284031215613d2d57600080fd5b8151611e4f81613699565b600060208284031215613d4a57600080fd5b5051919050565b600080600060608486031215613d6657600080fd5b8351925060208401519150604084015190509250925092565b634e487b7160e01b600052603260045260246000fd5b805161278681613681565b600082601f830112613db157600080fd5b81516020613dc161391a836138a2565b82815260059290921b84018101918181019086841115613de057600080fd5b8286015b848110156139d0578051613df781613681565b8352918301918301613de4565b600082601f830112613e1557600080fd5b81516020613e2561391a836138a2565b82815260059290921b84018101918181019086841115613e4457600080fd5b8286015b848110156139d05780518352918301918301613e48565b60008060408385031215613e7257600080fd5b82516001600160401b0380821115613e8957600080fd5b613e9586838701613da0565b93506020850151915080821115613eab57600080fd5b50613a9285828601613e04565b634e487b7160e01b600052601160045260246000fd5b600060018201613ee057613ee0613eb8565b5060010190565b805162ffffff8116811461278657600080fd5b60006020808385031215613f0d57600080fd5b82516001600160401b03811115613f2357600080fd5b8301601f81018513613f3457600080fd5b8051613f4261391a826138a2565b81815260079190911b82018301908381019087831115613f6157600080fd5b928401925b8284101561335c5760808489031215613f7f5760008081fd5b613f8761380b565b8451815285850151613f9881613681565b81870152604085810151613fab81613681565b908201526060613fbc868201613ee7565b9082015282526080939093019290840190613f66565b60006020808385031215613fe557600080fd5b82516001600160401b03811115613ffb57600080fd5b8301601f8101851361400c57600080fd5b805161401a61391a826138a2565b81815260e0918202830184019184820191908884111561403957600080fd5b938501935b838510156140d45780858a0312156140565760008081fd5b61405e61382d565b85518152868601518782015260408087015161407981613681565b9082015260608681015161408c81613681565b9082015260808681015161409f81613681565b9082015260a06140b0878201613ee7565b9082015260c06140c1878201613ee7565b908201528352938401939185019161403e565b50979650505050505050565b600060208083850312156140f357600080fd5b82516001600160401b038082111561410a57600080fd5b818501915085601f83011261411e57600080fd5b815161412c61391a826138a2565b81815260059190911b8301840190848101908883111561414b57600080fd5b8585015b838110156141e05780518581111561416657600080fd5b86016080818c03601f1901121561417d5760008081fd5b61418561380b565b8882015181526040808301518a830152606080840151898111156141a95760008081fd5b6141b78f8d83880101613da0565b8385015250608084015193506141cc84613699565b82019290925284525091860191860161414f565b5098975050505050505050565b6000602080838503121561420057600080fd5b82516001600160401b038082111561421757600080fd5b818501915085601f83011261422b57600080fd5b815161423961391a826138a2565b81815260059190911b8301840190848101908883111561425857600080fd5b8585015b838110156141e05780518581111561427357600080fd5b86016080818c03601f1901121561428a5760008081fd5b61429261380b565b8882015181526040808301518a830152606080840151898111156142b65760008081fd5b6142c48f8d83880101613da0565b92840192909252608093909301519282019290925284525091860191860161425c565b600060a082018783526020878185015260a0604085015281875180845260c086019150828901935060005b818110156143375784516001600160a01b031683529383019391830191600101614312565b50506001600160a01b03969096166060850152505050608001529392505050565b60006020828403121561436a57600080fd5b81516001600160401b0381111561438057600080fd5b61284d84828501613e04565b60006020828403121561439e57600080fd5b81516001600160401b038111156143b457600080fd5b83601f82850101126143c557600080fd5b808301516143d561391a826138a2565b8082825260208201915060208360051b85880101019250868311156143f957600080fd5b6020848701015b838110156139d05780516001600160401b0381111561441e57600080fd5b878601016080818a03601f1901121561443657600080fd5b61443e61380b565b602082015181526040820151602082015260608201516001600160401b0381111561446857600080fd5b8a603f828501011261447957600080fd5b6020818401015161448c61391a826138a2565b80828252602082019150604060608402858801010192508d8311156144b057600080fd5b928501604001925b8284101561451f576060848f0312156144d057600080fd5b6144d86137e3565b84516144e381613681565b815260208501516144f381613681565b6020820152604085015161450681613699565b60408201528252606093909301926020909101906144b8565b6040850152505050608091909101516060820152835260209283019201614400565b60006020828403121561455357600080fd5b81516001600160401b038082111561456a57600080fd5b908301906060828603121561457e57600080fd5b6145866137e3565b82518281111561459557600080fd5b6145a187828601613da0565b82525060208301516145b281613681565b60208201526040830151828111156145c957600080fd5b6145d587828601613e04565b60408301525095945050505050565b6000828210156145f6576145f6613eb8565b500390565b805161278681613c1f565b600082601f83011261461757600080fd5b8151602061462761391a836138a2565b82815260059290921b8401810191818101908684111561464657600080fd5b8286015b848110156139d057805161465d816138c5565b835291830191830161464a565b600082601f83011261467b57600080fd5b8151602061468b61391a836138a2565b82815260059290921b840181019181810190868411156146aa57600080fd5b8286015b848110156139d05780516001600160401b038111156146cd5760008081fd5b8701603f810189136146df5760008081fd5b8481015160406146f161391a836138d4565b8281528b828486010111156147065760008081fd5b6147158389830184870161372b565b86525050509183019183016146ae565b60008060008385036101a081121561473c57600080fd5b6101608082121561474c57600080fd5b61475461384f565b915061475f866145fb565b825261476d60208701613d95565b602083015260408601516040830152606086015160608301526080860151608083015260a086015160a083015260c086015160c08301526147b060e08701613d95565b60e08301526101006147c3818801613d95565b90830152610120868101519083015261014080870151908301528501519093506001600160401b03808211156147f857600080fd5b61480487838801614606565b935061018086015191508082111561481b57600080fd5b506148288682870161466a565b9150509250925092565b6000821982111561484557614845613eb8565b500190565b60006020828403121561485c57600080fd5b8151611e4f81613681565b600081600019048311821515161561488157614881613eb8565b500290565b6000826148a357634e487b7160e01b600052601260045260246000fd5b500490565b6000806000606084860312156148bd57600080fd5b83516148c881613681565b60208501519093506001600160401b03808211156148e557600080fd5b6148f187838801614606565b9350604086015191508082111561481b57600080fd5b600081518084526020808501945080840160005b8381101561493a57815160ff168752958201959082019060010161491b565b509495945050505050565b600082825180855260208086019550808260051b84010181860160005b8481101561499057601f1986840301895261497e838351613757565b98840198925090830190600101614962565b5090979650505050505050565b6040815260006149b06040830185614907565b82810360208401526149c28185614945565b95945050505050565b602081526000825160a060208401526149e760c0840182613757565b905060018060a01b0360208501511660408401526040840151606084015260608401516080840152608084015160a08401528091505092915050565b6001600160a01b0384168152606060208201819052600090614a4790830185614907565b8281036040840152614a598185614945565b9695505050505050565b600061012061ffff8c1683528a602084015289604084015260018060a01b03891660608401528760808401528660a08401528060c084015285518184015250602085015161014083015260408501516060610160840152614ac8610180840182613757565b905082810360e0840152614adc8186613757565b9050828103610100840152614af18185613757565b9c9b505050505050505050505050565b60008251614b1381846020870161372b565b9190910192915050565b84815283602082015260018060a01b0383166040820152608060608201526000614a596080830184613757565b80516001600160701b038116811461278657600080fd5b600080600060608486031215614b7657600080fd5b614b7f84614b4a565b9250614b8d60208501614b4a565b9150604084015163ffffffff811681146136e757600080fdfea26469706673582212208e12bda991a025c2c1189d3ee0ee097fd1f0b3fb13060a3e8b3c63dcf21fe30564736f6c634300080f0033",
    "linkReferences": {}
  },
  "methodIdentifiers": {
    "factory()": "c45a0155",
    "feeCollector()": "c415b95c",
    "getAmountOut(uint256,address,address)": "5e1e6325",
    "getAmountsOut(uint256,(address,address,bool)[])": "9881fcb4",
    "getReserves(address,address,bool)": "5e60dab5",
    "isPair(address)": "e5e31b13",
    "joeRouter()": "59f571e8",
    "pairCodeHash()": "9aab9248",
    "pairFor(address,address,bool)": "4c1ee03e",
    "pancakeRouter()": "c21ebd07",
    "quoteAddLiquidity(address,address,bool,uint256,uint256)": "98a0fb3c",
    "sgReceive(uint16,bytes,uint256,address,uint256,bytes)": "ab8236f3",
    "sortTokens(address,address)": "544caa56",
    "spookyRouter()": "8ed8ea7e",
    "stargateRouter()": "a9e56f3c",
    "swapRouter()": "c31c9c07",
    "swaps(uint8[],bytes[])": "67375cc8",
    "veloFactory()": "c7f5fd10",
    "veloRouter()": "d5ef98ea",
    "veloWETH()": "fdc09e07",
    "version()": "54fd4d50",
    "weth()": "3fc8cef3"
  },
  "id": 32
}