{
  "abi": [
    {
      "inputs": [
        {
          "internalType": "address",
          "name": "_weth",
          "type": "address"
        },
        {
          "internalType": "contract ISwapRouter",
          "name": "_swapRouter",
          "type": "address"
        },
        {
          "internalType": "address",
          "name": "_factory",
          "type": "address"
        },
        {
          "internalType": "bytes32",
          "name": "_pairCodeHash",
          "type": "bytes32"
        },
        {
          "internalType": "contract IStargateRouter",
          "name": "_stargateRouter",
          "type": "address"
        }
      ],
      "stateMutability": "nonpayable",
      "type": "constructor"
    },
    {
      "inputs": [],
      "name": "MustBeGt0",
      "type": "error"
    },
    {
      "inputs": [],
      "name": "NotStgRouter",
      "type": "error"
    },
    {
      "anonymous": false,
      "inputs": [
        {
          "indexed": true,
          "internalType": "address",
          "name": "token",
          "type": "address"
        },
        {
          "indexed": false,
          "internalType": "uint256",
          "name": "amountLD",
          "type": "uint256"
        },
        {
          "indexed": false,
          "internalType": "bool",
          "name": "failed",
          "type": "bool"
        }
      ],
      "name": "ReceivedOnDestination",
      "type": "event"
    },
    {
      "inputs": [],
      "name": "factory",
      "outputs": [
        {
          "internalType": "address",
          "name": "",
          "type": "address"
        }
      ],
      "stateMutability": "view",
      "type": "function"
    },
    {
      "inputs": [],
      "name": "feeCollector",
      "outputs": [
        {
          "internalType": "address",
          "name": "",
          "type": "address"
        }
      ],
      "stateMutability": "view",
      "type": "function"
    },
    {
      "inputs": [],
      "name": "joeRouter",
      "outputs": [
        {
          "internalType": "contract IJoeRouter02",
          "name": "",
          "type": "address"
        }
      ],
      "stateMutability": "view",
      "type": "function"
    },
    {
      "inputs": [],
      "name": "pairCodeHash",
      "outputs": [
        {
          "internalType": "bytes32",
          "name": "",
          "type": "bytes32"
        }
      ],
      "stateMutability": "view",
      "type": "function"
    },
    {
      "inputs": [],
      "name": "pancakeRouter",
      "outputs": [
        {
          "internalType": "contract IPancakeRouter02",
          "name": "",
          "type": "address"
        }
      ],
      "stateMutability": "view",
      "type": "function"
    },
    {
      "inputs": [
        {
          "internalType": "uint16",
          "name": "",
          "type": "uint16"
        },
        {
          "internalType": "bytes",
          "name": "",
          "type": "bytes"
        },
        {
          "internalType": "uint256",
          "name": "",
          "type": "uint256"
        },
        {
          "internalType": "address",
          "name": "_token",
          "type": "address"
        },
        {
          "internalType": "uint256",
          "name": "amountLD",
          "type": "uint256"
        },
        {
          "internalType": "bytes",
          "name": "_payload",
          "type": "bytes"
        }
      ],
      "name": "sgReceive",
      "outputs": [],
      "stateMutability": "nonpayable",
      "type": "function"
    },
    {
      "inputs": [],
      "name": "spookyRouter",
      "outputs": [
        {
          "internalType": "contract IUniswapV2Router02",
          "name": "",
          "type": "address"
        }
      ],
      "stateMutability": "view",
      "type": "function"
    },
    {
      "inputs": [],
      "name": "stargateRouter",
      "outputs": [
        {
          "internalType": "contract IStargateRouter",
          "name": "",
          "type": "address"
        }
      ],
      "stateMutability": "view",
      "type": "function"
    },
    {
      "inputs": [],
      "name": "swapRouter",
      "outputs": [
        {
          "internalType": "contract ISwapRouter",
          "name": "",
          "type": "address"
        }
      ],
      "stateMutability": "view",
      "type": "function"
    },
    {
      "inputs": [
        {
          "internalType": "uint8[]",
          "name": "steps",
          "type": "uint8[]"
        },
        {
          "internalType": "bytes[]",
          "name": "data",
          "type": "bytes[]"
        }
      ],
      "name": "swaps",
      "outputs": [],
      "stateMutability": "payable",
      "type": "function"
    },
    {
      "inputs": [],
      "name": "version",
      "outputs": [
        {
          "internalType": "string",
          "name": "_version",
          "type": "string"
        }
      ],
      "stateMutability": "pure",
      "type": "function"
    },
    {
      "inputs": [],
      "name": "weth",
      "outputs": [
        {
          "internalType": "address",
          "name": "",
          "type": "address"
        }
      ],
      "stateMutability": "view",
      "type": "function"
    },
    {
      "stateMutability": "payable",
      "type": "receive"
    }
  ],
  "bytecode": {
    "object": "0x6101006040523480156200001257600080fd5b5060405162002b0e38038062002b0e83398101604081905262000035916200008a565b6001600160a01b03938416608052600080546001600160a01b03191693851693909317909255600155811660a0523360c0521660e052620000fe565b6001600160a01b03811681146200008757600080fd5b50565b600080600080600060a08688031215620000a357600080fd5b8551620000b08162000071565b6020870151909550620000c38162000071565b6040870151909450620000d68162000071565b606087015160808801519194509250620000f08162000071565b809150509295509295909350565b60805160a05160c05160e051612998620001766000396000818160c9015261034f0152600081816102240152610e9101526000818161019c015281816106f701528181610ebb0152610efe0152600081816101f001528181610919015281816109e801528181610a6b0152610b2701526129986000f3fe6080604052600436106100ab5760003560e01c8063a9e56f3c11610064578063a9e56f3c1461018a578063ab8236f3146101be578063c21ebd071461013c578063c31c9c07146101de578063c415b95c14610212578063c45a01551461024657600080fd5b80633fc8cef3146100b757806354fd4d501461010857806359f571e81461013c57806367375cc8146101515780638ed8ea7e1461013c5780639aab92481461016657600080fd5b366100b257005b600080fd5b3480156100c357600080fd5b506100eb7f000000000000000000000000000000000000000000000000000000000000000081565b6040516001600160a01b0390911681526020015b60405180910390f35b34801561011457600080fd5b506040805180820182526005815264302e302e3160d81b602082015290516100ff9190611c5d565b34801561014857600080fd5b506100eb600081565b61016461015f366004611e22565b610266565b005b34801561017257600080fd5b5061017c60015481565b6040519081526020016100ff565b34801561019657600080fd5b506100eb7f000000000000000000000000000000000000000000000000000000000000000081565b3480156101ca57600080fd5b506101646101d9366004611f08565b6106ec565b3480156101ea57600080fd5b506100eb7f000000000000000000000000000000000000000000000000000000000000000081565b34801561021e57600080fd5b506100eb7f000000000000000000000000000000000000000000000000000000000000000081565b34801561025257600080fd5b506000546100eb906001600160a01b031681565b600034116102875760405163c9935ff960e01b815260040160405180910390fd5b60005b82518110156106e75760008382815181106102a7576102a7611fa4565b60200260200101519050600160ff168160ff1603610310576000808484815181106102d4576102d4611fa4565b60200260200101518060200190518101906102ef9190611fba565b90925090506103096001600160a01b0383163330846108a0565b50506106d4565b60011960ff8216016103c757600083838151811061033057610330611fa4565b602002602001015180602001905181019061034b9190611fe8565b90507f00000000000000000000000000000000000000000000000000000000000000006001600160a01b031663d0e30db0826040518263ffffffff1660e01b81526004016000604051808303818588803b1580156103a857600080fd5b505af11580156103bc573d6000803e3d6000fd5b5050505050506106d4565b60021960ff82160161041f5760008060008060008787815181106103ed576103ed611fa4565b60200260200101518060200190518101906104089190612019565b945094509450945094506103bc8585858585610911565b60031960ff821601610492576000806000806000806000808a8a8151811061044957610449611fa4565b60200260200101518060200190518101906104649190612080565b975097509750975097509750975097506104848888888888888888610a63565b5050505050505050506106d4565b60041960ff8216016104ea5760008060008060008787815181106104b8576104b8611fa4565b60200260200101518060200190518101906104d39190612194565b945094509450945094506103bc8585858585610bad565b60051960ff8216016105e157600080600080600087878151811061051057610510611fa4565b602002602001015180602001905181019061052b9190612207565b9450945094509450945061056e6000868560008151811061054e5761054e611fa4565b60200260200101516001600160a01b0316610d789092919063ffffffff16565b6040516338ed173960e01b81526000906338ed17399061059a9088908890889088908890600401612275565b6000604051808303816000875af11580156105b9573d6000803e3d6000fd5b505050506040513d6000823e601f3d908101601f191682016040526103bc91908101906122e6565b60061960ff82160161060757600080600080600087878151811061051057610510611fa4565b60071960ff82160161068157600080600080600087878151811061062d5761062d611fa4565b60200260200101518060200190518101906106489190612207565b6040516338ed173960e01b8152949950929750909550935091506000906338ed17399061059a9088908890889088908890600401612275565b60081960ff8216016106d45760008060008585815181106106a4576106a4611fa4565b60200260200101518060200190518101906106bf9190612495565b9250925092506106d0838383610e2a565b5050505b50806106df816125b8565b91505061028a565b505050565b336001600160a01b037f0000000000000000000000000000000000000000000000000000000000000000161461073557604051638afe477f60e01b815260040160405180910390fd5b60008060008380602001905181019061074e91906125d1565b604051630ce6eb9960e31b8152929550909350915060009030906367375cc89061077e90869086906004016126c3565b600060405180830381600087803b15801561079857600080fd5b505af19250505080156107a9575060015b6107f7573d8080156107d7576040519150601f19603f3d011682016040523d82523d6000602084013e6107dc565b606091505b506107f16001600160a01b03891686896110b4565b60019150505b471561084f576040516001600160a01b038516904790600081818185875af1925050503d8060008114610846576040519150601f19603f3d011682016040523d82523d6000602084013e61084b565b606091505b5050505b6040805187815282151560208201526001600160a01b038916917f9dce3c3c57554c8def96dde02f36aa27df20d75f725d07f54fac61ffd61a7cf6910160405180910390a250505050505050505050565b6040516001600160a01b038085166024830152831660448201526064810182905261090b9085906323b872dd60e01b906084015b60408051601f198184030181529190526020810180516001600160e01b03166001600160e01b0319909316929092179091526110e4565b50505050565b600061093e857f0000000000000000000000000000000000000000000000000000000000000000886111b6565b60408051610100810182526001600160a01b0387811682528681166020830190815262ffffff87811684860190815287841660608601908152426080870190815260a087018e8152600060c0890181815260e08a01918252995163414bf38960e01b815289518916600482015296518816602488015293519094166044860152905185166064850152516084840152905160a4830152935160c48201529251811660e484015290917f00000000000000000000000000000000000000000000000000000000000000009091169063414bf38990610104016020604051808303816000875af1158015610a34573d6000803e3d6000fd5b505050506040513d601f19601f82011682018060405250810190610a589190611fe8565b979650505050505050565b6000610a90877f00000000000000000000000000000000000000000000000000000000000000008b6111b6565b6040805160a0810182526001600160601b031960608a811b821660c08401526001600160e81b031960e889811b821660d48601528b831b841660d786015288901b1660eb84015288811b90911660ee830152825180830360e20181526101028301845282526001600160a01b03858116602084015242838501529082018c9052608082018b9052915163c04b8d5960e01b815290917f0000000000000000000000000000000000000000000000000000000000000000169063c04b8d5990610b5c9084906004016126f1565b6020604051808303816000875af1158015610b7b573d6000803e3d6000fd5b505050506040513d601f19601f82011682018060405250810190610b9f9190611fe8565b9a9950505050505050505050565b600080610bd160008054906101000a90046001600160a01b031688876001546112b6565b90508060018251610be29190612749565b81518110610bf257610bf2611fa4565b6020026020010151915085821015610c515760405162461bcd60e51b815260206004820152601760248201527f696e73756666696369656e742d616d6f756e742d6f757400000000000000000060448201526064015b60405180910390fd5b8215610d6357600080548651610d6392610ca9926001600160a01b031691899190610c7e57610c7e611fa4565b602002602001015188600181518110610c9957610c99611fa4565b6020026020010151600154611442565b86600081518110610cbc57610cbc611fa4565b60209081029190910101516040516370a0823160e01b81523060048201526001600160a01b03909116906370a0823190602401602060405180830381865afa158015610d0c573d6000803e3d6000fd5b505050506040513d601f19601f82011682018060405250810190610d309190611fe8565b87600081518110610d4357610d43611fa4565b60200260200101516001600160a01b03166110b49092919063ffffffff16565b610d6e8186866114f6565b5095945050505050565b604051636eb1769f60e11b81523060048201526001600160a01b038381166024830152600091839186169063dd62ed3e90604401602060405180830381865afa158015610dc9573d6000803e3d6000fd5b505050506040513d601f19601f82011682018060405250810190610ded9190611fe8565b610df79190612760565b6040516001600160a01b03851660248201526044810182905290915061090b90859063095ea7b360e01b906064016108d4565b60008361010001518383604051602001610e4693929190612778565b60405160208183030381529060405290506000610e6685608001516116cd565b9050808560800151610e789190612749565b60808601526020850151610eb6906001600160a01b03167f0000000000000000000000000000000000000000000000000000000000000000836110b4565b610efc7f0000000000000000000000000000000000000000000000000000000000000000866080015187602001516001600160a01b0316610d789092919063ffffffff16565b7f00000000000000000000000000000000000000000000000000000000000000006001600160a01b0316639fbf10fc866000015187604001518860600151338a60800151600003610fba5760208b01516040516370a0823160e01b81523060048201526001600160a01b03909116906370a0823190602401602060405180830381865afa158015610f91573d6000803e3d6000fd5b505050506040513d601f19601f82011682018060405250810190610fb59190611fe8565b610fc0565b8a608001515b8b60a0015160405180606001604052808e610120015181526020018e60c0015181526020018e60e0015160405160200161100d919060609190911b6001600160601b031916815260140190565b6040516020818303038152906040528152508d60e00151604051602001611047919060609190911b6001600160601b031916815260140190565b6040516020818303038152906040528b6040518a63ffffffff1660e01b815260040161107b999897969594939291906127b8565b600060405180830381600087803b15801561109557600080fd5b505af11580156110a9573d6000803e3d6000fd5b505050505050505050565b6040516001600160a01b0383166024820152604481018290526106e790849063a9059cbb60e01b906064016108d4565b6000611139826040518060400160405280602081526020017f5361666545524332303a206c6f772d6c6576656c2063616c6c206661696c6564815250856001600160a01b03166116ed9092919063ffffffff16565b8051909150156106e757808060200190518101906111579190612856565b6106e75760405162461bcd60e51b815260206004820152602a60248201527f5361666545524332303a204552433230206f7065726174696f6e20646964206e6044820152691bdd081cdd58d8d9595960b21b6064820152608401610c48565b604080516001600160a01b038481166024830152604480830185905283518084039091018152606490920183526020820180516001600160e01b031663095ea7b360e01b17905291516000928392908716916112129190612871565b6000604051808303816000865af19150503d806000811461124f576040519150601f19603f3d011682016040523d82523d6000602084013e611254565b606091505b509150915081801561127e57508051158061127e57508080602001905181019061127e9190612856565b6112af5760405162461bcd60e51b8152602060048201526002602482015261534160f01b6044820152606401610c48565b5050505050565b606060028351101561130a5760405162461bcd60e51b815260206004820152601e60248201527f556e697377617056324c6962726172793a20494e56414c49445f5041544800006044820152606401610c48565b82516001600160401b0381111561132357611323611c77565b60405190808252806020026020018201604052801561134c578160200160208202803683370190505b509050838160008151811061136357611363611fa4565b60200260200101818152505060005b600184516113809190612749565b811015611439576000806113d4888785815181106113a0576113a0611fa4565b6020026020010151888660016113b69190612760565b815181106113c6576113c6611fa4565b602002602001015188611704565b915091506113fc8484815181106113ed576113ed611fa4565b602002602001015183836117d0565b84611408856001612760565b8151811061141857611418611fa4565b60200260200101818152505050508080611431906125b8565b915050611372565b50949350505050565b600080600061145186866118e4565b6040516001600160601b0319606084811b8216602084015283901b1660348201529193509150879060480160405160208183030381529060405280519060200120856040516020016114d3939291906001600160f81b0319815260609390931b6001600160601b03191660018401526015830191909152603582015260550190565b60408051601f198184030181529190528051602090910120979650505050505050565b60005b600183516115079190612749565b81101561090b5760008084838151811061152357611523611fa4565b6020026020010151858460016115399190612760565b8151811061154957611549611fa4565b602002602001015191509150600061156183836118e4565b509050600087611572866001612760565b8151811061158257611582611fa4565b60200260200101519050600080836001600160a01b0316866001600160a01b0316146115b0578260006115b4565b6000835b91509150600060028a516115c89190612749565b88106115d45788611601565b600054611601906001600160a01b0316878c6115f18c6002612760565b81518110610c9957610c99611fa4565b905061162460008054906101000a90046001600160a01b03168888600154611442565b6001600160a01b031663022c0d9f84848460006040519080825280601f01601f191660200182016040528015611661576020820181803683370190505b506040518563ffffffff1660e01b8152600401611681949392919061288d565b600060405180830381600087803b15801561169b57600080fd5b505af11580156116af573d6000803e3d6000fd5b505050505050505050505080806116c5906125b8565b9150506114f9565b60006127106116dd8360196128ba565b6116e791906128d9565b92915050565b60606116fc84846000856119db565b949350505050565b600080600061171386866118e4565b50905060008061172589898989611442565b6001600160a01b0316630902f1ac6040518163ffffffff1660e01b8152600401606060405180830381865afa158015611762573d6000803e3d6000fd5b505050506040513d601f19601f820116820180604052508101906117869190612912565b506001600160701b031691506001600160701b03169150826001600160a01b0316886001600160a01b0316146117bd5780826117c0565b81815b909a909950975050505050505050565b60008084116118355760405162461bcd60e51b815260206004820152602b60248201527f556e697377617056324c6962726172793a20494e53554646494349454e545f4960448201526a1394155517d05353d5539560aa1b6064820152608401610c48565b6000831180156118455750600082115b6118a25760405162461bcd60e51b815260206004820152602860248201527f556e697377617056324c6962726172793a20494e53554646494349454e545f4c604482015267495155494449545960c01b6064820152608401610c48565b60006118b0856103e5611aab565b905060006118be8285611aab565b905060006118d8836118d2886103e8611aab565b90611b12565b9050610a5881836128d9565b600080826001600160a01b0316846001600160a01b0316036119565760405162461bcd60e51b815260206004820152602560248201527f556e697377617056324c6962726172793a204944454e544943414c5f41444452604482015264455353455360d81b6064820152608401610c48565b826001600160a01b0316846001600160a01b031610611976578284611979565b83835b90925090506001600160a01b0382166119d45760405162461bcd60e51b815260206004820152601e60248201527f556e697377617056324c6962726172793a205a45524f5f4144445245535300006044820152606401610c48565b9250929050565b606082471015611a3c5760405162461bcd60e51b815260206004820152602660248201527f416464726573733a20696e73756666696369656e742062616c616e636520666f6044820152651c8818d85b1b60d21b6064820152608401610c48565b600080866001600160a01b03168587604051611a589190612871565b60006040518083038185875af1925050503d8060008114611a95576040519150601f19603f3d011682016040523d82523d6000602084013e611a9a565b606091505b5091509150610a5887838387611b67565b6000811580611acf57508282611ac181836128ba565b9250611acd90836128d9565b145b6116e75760405162461bcd60e51b815260206004820152601460248201527364732d6d6174682d6d756c2d6f766572666c6f7760601b6044820152606401610c48565b600082611b1f8382612760565b91508110156116e75760405162461bcd60e51b815260206004820152601460248201527364732d6d6174682d6164642d6f766572666c6f7760601b6044820152606401610c48565b60608315611bd6578251600003611bcf576001600160a01b0385163b611bcf5760405162461bcd60e51b815260206004820152601d60248201527f416464726573733a2063616c6c20746f206e6f6e2d636f6e74726163740000006044820152606401610c48565b50816116fc565b6116fc8383815115611beb5781518083602001fd5b8060405162461bcd60e51b8152600401610c489190611c5d565b60005b83811015611c20578181015183820152602001611c08565b8381111561090b5750506000910152565b60008151808452611c49816020860160208601611c05565b601f01601f19169290920160200192915050565b602081526000611c706020830184611c31565b9392505050565b634e487b7160e01b600052604160045260246000fd5b60405161016081016001600160401b0381118282101715611cb057611cb0611c77565b60405290565b604051601f8201601f191681016001600160401b0381118282101715611cde57611cde611c77565b604052919050565b60006001600160401b03821115611cff57611cff611c77565b5060051b60200190565b60ff81168114611d1857600080fd5b50565b60006001600160401b03821115611d3457611d34611c77565b50601f01601f191660200190565b600082601f830112611d5357600080fd5b8135611d66611d6182611d1b565b611cb6565b818152846020838601011115611d7b57600080fd5b816020850160208301376000918101602001919091529392505050565b600082601f830112611da957600080fd5b81356020611db9611d6183611ce6565b82815260059290921b84018101918181019086841115611dd857600080fd5b8286015b84811015611e175780356001600160401b03811115611dfb5760008081fd5b611e098986838b0101611d42565b845250918301918301611ddc565b509695505050505050565b60008060408385031215611e3557600080fd5b82356001600160401b0380821115611e4c57600080fd5b818501915085601f830112611e6057600080fd5b81356020611e70611d6183611ce6565b82815260059290921b84018101918181019089841115611e8f57600080fd5b948201945b83861015611eb6578535611ea781611d09565b82529482019490820190611e94565b96505086013592505080821115611ecc57600080fd5b50611ed985828601611d98565b9150509250929050565b61ffff81168114611d1857600080fd5b6001600160a01b0381168114611d1857600080fd5b60008060008060008060c08789031215611f2157600080fd5b8635611f2c81611ee3565b955060208701356001600160401b0380821115611f4857600080fd5b611f548a838b01611d42565b96506040890135955060608901359150611f6d82611ef3565b9093506080880135925060a08801359080821115611f8a57600080fd5b50611f9789828a01611d42565b9150509295509295509295565b634e487b7160e01b600052603260045260246000fd5b60008060408385031215611fcd57600080fd5b8251611fd881611ef3565b6020939093015192949293505050565b600060208284031215611ffa57600080fd5b5051919050565b805162ffffff8116811461201457600080fd5b919050565b600080600080600060a0868803121561203157600080fd5b85519450602086015161204381611ef3565b604087015190945061205481611ef3565b925061206260608701612001565b9150608086015161207281611ef3565b809150509295509295909350565b600080600080600080600080610100898b03121561209d57600080fd5b885197506020890151965060408901516120b681611ef3565b60608a01519096506120c781611ef3565b60808a01519095506120d881611ef3565b93506120e660a08a01612001565b92506120f460c08a01612001565b915060e089015161210481611ef3565b809150509295985092959890939650565b805161201481611ef3565b600082601f83011261213157600080fd5b81516020612141611d6183611ce6565b82815260059290921b8401810191818101908684111561216057600080fd5b8286015b84811015611e1757805161217781611ef3565b8352918301918301612164565b8051801515811461201457600080fd5b600080600080600060a086880312156121ac57600080fd5b855194506020860151935060408601516001600160401b038111156121d057600080fd5b6121dc88828901612120565b93505060608601516121ed81611ef3565b91506121fb60808701612184565b90509295509295909350565b600080600080600060a0868803121561221f57600080fd5b855194506020860151935060408601516001600160401b0381111561224357600080fd5b61224f88828901612120565b935050606086015161226081611ef3565b80925050608086015190509295509295909350565b600060a082018783526020878185015260a0604085015281875180845260c086019150828901935060005b818110156122c55784516001600160a01b0316835293830193918301916001016122a0565b50506001600160a01b03969096166060850152505050608001529392505050565b600060208083850312156122f957600080fd5b82516001600160401b0381111561230f57600080fd5b8301601f8101851361232057600080fd5b805161232e611d6182611ce6565b81815260059190911b8201830190838101908783111561234d57600080fd5b928401925b82841015610a5857835182529284019290840190612352565b805161201481611ee3565b600082601f83011261238757600080fd5b81516020612397611d6183611ce6565b82815260059290921b840181019181810190868411156123b657600080fd5b8286015b84811015611e175780516123cd81611d09565b83529183019183016123ba565b600082601f8301126123eb57600080fd5b815160206123fb611d6183611ce6565b82815260059290921b8401810191818101908684111561241a57600080fd5b8286015b84811015611e175780516001600160401b0381111561243d5760008081fd5b8701603f8101891361244f5760008081fd5b848101516040612461611d6183611d1b565b8281528b828486010111156124765760008081fd5b61248583898301848701611c05565b865250505091830191830161241e565b60008060008385036101a08112156124ac57600080fd5b610160808212156124bc57600080fd5b6124c4611c8d565b91506124cf8661236b565b82526124dd60208701612115565b602083015260408601516040830152606086015160608301526080860151608083015260a086015160a083015260c086015160c083015261252060e08701612115565b60e0830152610100612533818801612115565b90830152610120868101519083015261014080870151908301528501519093506001600160401b038082111561256857600080fd5b61257487838801612376565b935061018086015191508082111561258b57600080fd5b50612598868287016123da565b9150509250925092565b634e487b7160e01b600052601160045260246000fd5b6000600182016125ca576125ca6125a2565b5060010190565b6000806000606084860312156125e657600080fd5b83516125f181611ef3565b60208501519093506001600160401b038082111561260e57600080fd5b61261a87838801612376565b9350604086015191508082111561258b57600080fd5b600081518084526020808501945080840160005b8381101561266357815160ff1687529582019590820190600101612644565b509495945050505050565b600081518084526020808501808196508360051b8101915082860160005b858110156126b65782840389526126a4848351611c31565b9885019893509084019060010161268c565b5091979650505050505050565b6040815260006126d66040830185612630565b82810360208401526126e8818561266e565b95945050505050565b602081526000825160a0602084015261270d60c0840182611c31565b905060018060a01b0360208501511660408401526040840151606084015260608401516080840152608084015160a08401528091505092915050565b60008282101561275b5761275b6125a2565b500390565b60008219821115612773576127736125a2565b500190565b6001600160a01b038416815260606020820181905260009061279c90830185612630565b82810360408401526127ae818561266e565b9695505050505050565b600061012061ffff8c1683528a602084015289604084015260018060a01b03891660608401528760808401528660a08401528060c08401528551818401525060208501516101408301526040850151606061016084015261281d610180840182611c31565b905082810360e08401526128318186611c31565b90508281036101008401526128468185611c31565b9c9b505050505050505050505050565b60006020828403121561286857600080fd5b611c7082612184565b60008251612883818460208701611c05565b9190910192915050565b84815283602082015260018060a01b03831660408201526080606082015260006127ae6080830184611c31565b60008160001904831182151516156128d4576128d46125a2565b500290565b6000826128f657634e487b7160e01b600052601260045260246000fd5b500490565b80516001600160701b038116811461201457600080fd5b60008060006060848603121561292757600080fd5b612930846128fb565b925061293e602085016128fb565b9150604084015163ffffffff8116811461295757600080fd5b80915050925092509256fea264697066735822122003ec3e747d80fbb5b854cfb95849a22cbb84367a8bfd8af16ca277b6a441166464736f6c634300080f0033",
    "linkReferences": {}
  },
  "methodIdentifiers": {
    "factory()": "c45a0155",
    "feeCollector()": "c415b95c",
    "joeRouter()": "59f571e8",
    "pairCodeHash()": "9aab9248",
    "pancakeRouter()": "c21ebd07",
    "sgReceive(uint16,bytes,uint256,address,uint256,bytes)": "ab8236f3",
    "spookyRouter()": "8ed8ea7e",
    "stargateRouter()": "a9e56f3c",
    "swapRouter()": "c31c9c07",
    "swaps(uint8[],bytes[])": "67375cc8",
    "version()": "54fd4d50",
    "weth()": "3fc8cef3"
  },
  "id": 26
}