{
  "abi": [
    {
      "inputs": [
        {
          "internalType": "contract IWETH9",
          "name": "_weth",
          "type": "address"
        },
        {
          "internalType": "address",
          "name": "_joeRouter",
          "type": "address"
        },
        {
          "internalType": "address",
          "name": "_joeLBRouter",
          "type": "address"
        },
        {
          "internalType": "address",
          "name": "_feeCollector",
          "type": "address"
        },
        {
          "internalType": "address",
          "name": "_factory",
          "type": "address"
        },
        {
          "internalType": "bytes32",
          "name": "_pairCodeHash",
          "type": "bytes32"
        },
        {
          "internalType": "contract IStargateRouter",
          "name": "_stargateRouter",
          "type": "address"
        }
      ],
      "stateMutability": "nonpayable",
      "type": "constructor"
    },
    {
      "inputs": [],
      "name": "MismatchedLengths",
      "type": "error"
    },
    {
      "inputs": [],
      "name": "MoreThanZero",
      "type": "error"
    },
    {
      "inputs": [],
      "name": "NotEnoughGas",
      "type": "error"
    },
    {
      "inputs": [],
      "name": "NotStgRouter",
      "type": "error"
    },
    {
      "inputs": [],
      "name": "WithdrawFailed",
      "type": "error"
    },
    {
      "anonymous": false,
      "inputs": [
        {
          "indexed": false,
          "internalType": "address",
          "name": "_token",
          "type": "address"
        },
        {
          "indexed": false,
          "internalType": "uint256",
          "name": "_fee",
          "type": "uint256"
        }
      ],
      "name": "FeePaid",
      "type": "event"
    },
    {
      "anonymous": false,
      "inputs": [
        {
          "indexed": true,
          "internalType": "address",
          "name": "token",
          "type": "address"
        },
        {
          "indexed": false,
          "internalType": "uint256",
          "name": "amountLD",
          "type": "uint256"
        },
        {
          "indexed": false,
          "internalType": "bool",
          "name": "failed",
          "type": "bool"
        },
        {
          "indexed": false,
          "internalType": "bool",
          "name": "dustSent",
          "type": "bool"
        }
      ],
      "name": "ReceivedOnDestination",
      "type": "event"
    },
    {
      "inputs": [
        {
          "internalType": "uint8[]",
          "name": "steps",
          "type": "uint8[]"
        },
        {
          "internalType": "bytes[]",
          "name": "data",
          "type": "bytes[]"
        }
      ],
      "name": "avaxSwaps",
      "outputs": [],
      "stateMutability": "payable",
      "type": "function"
    },
    {
      "inputs": [],
      "name": "factory",
      "outputs": [
        {
          "internalType": "address",
          "name": "",
          "type": "address"
        }
      ],
      "stateMutability": "view",
      "type": "function"
    },
    {
      "inputs": [],
      "name": "feeCollector",
      "outputs": [
        {
          "internalType": "address",
          "name": "",
          "type": "address"
        }
      ],
      "stateMutability": "view",
      "type": "function"
    },
    {
      "inputs": [
        {
          "components": [
            {
              "internalType": "uint16",
              "name": "dstChainId",
              "type": "uint16"
            },
            {
              "internalType": "address",
              "name": "token",
              "type": "address"
            },
            {
              "internalType": "uint256",
              "name": "srcPoolId",
              "type": "uint256"
            },
            {
              "internalType": "uint256",
              "name": "dstPoolId",
              "type": "uint256"
            },
            {
              "internalType": "uint256",
              "name": "amount",
              "type": "uint256"
            },
            {
              "internalType": "uint256",
              "name": "amountMin",
              "type": "uint256"
            },
            {
              "internalType": "uint256",
              "name": "dustAmount",
              "type": "uint256"
            },
            {
              "internalType": "address",
              "name": "receiver",
              "type": "address"
            },
            {
              "internalType": "address",
              "name": "to",
              "type": "address"
            },
            {
              "internalType": "uint256",
              "name": "gas",
              "type": "uint256"
            },
            {
              "internalType": "bytes32",
              "name": "srcContext",
              "type": "bytes32"
            }
          ],
          "internalType": "struct StargateAvax.StargateParams",
          "name": "params",
          "type": "tuple"
        },
        {
          "internalType": "bytes",
          "name": "payload",
          "type": "bytes"
        }
      ],
      "name": "getFee",
      "outputs": [
        {
          "internalType": "uint256",
          "name": "_fee",
          "type": "uint256"
        }
      ],
      "stateMutability": "view",
      "type": "function"
    },
    {
      "inputs": [],
      "name": "pairCodeHash",
      "outputs": [
        {
          "internalType": "bytes32",
          "name": "",
          "type": "bytes32"
        }
      ],
      "stateMutability": "view",
      "type": "function"
    },
    {
      "inputs": [
        {
          "internalType": "uint16",
          "name": "",
          "type": "uint16"
        },
        {
          "internalType": "bytes",
          "name": "",
          "type": "bytes"
        },
        {
          "internalType": "uint256",
          "name": "",
          "type": "uint256"
        },
        {
          "internalType": "address",
          "name": "_token",
          "type": "address"
        },
        {
          "internalType": "uint256",
          "name": "amountLD",
          "type": "uint256"
        },
        {
          "internalType": "bytes",
          "name": "_payload",
          "type": "bytes"
        }
      ],
      "name": "sgReceive",
      "outputs": [],
      "stateMutability": "nonpayable",
      "type": "function"
    },
    {
      "inputs": [],
      "name": "stargateRouter",
      "outputs": [
        {
          "internalType": "contract IStargateRouter",
          "name": "",
          "type": "address"
        }
      ],
      "stateMutability": "view",
      "type": "function"
    },
    {
      "stateMutability": "payable",
      "type": "receive"
    }
  ],
  "bytecode": {
    "object": "0x6101206040526002805460ff191660011790553480156200001f57600080fd5b50604051620036b8380380620036b883398101604081905262000042916200009e565b600080546001600160a01b0319166001600160a01b03948516179055600191909155811660805293841660a05291831660c052821660e05216610100526200013d565b6001600160a01b03811681146200009b57600080fd5b50565b600080600080600080600060e0888a031215620000ba57600080fd5b8751620000c78162000085565b6020890151909750620000da8162000085565b6040890151909650620000ed8162000085565b6060890151909550620001008162000085565b6080890151909450620001138162000085565b60a089015160c08a015191945092506200012d8162000085565b8091505092959891949750929550565b60805160a05160c05160e051610100516134ea620001ce6000396000818161015c015281816108e8015261121a015260008181610a2f0152610af7015260008181610c4a0152610cd901526000818161066a015281816107cc015261085f01526000818160db015281816101c9015281816102ba01528181611639015281816116cf015261175101526134ea6000f3fe6080604052600436106100745760003560e01c8063ab8236f31161004e578063ab8236f314610115578063b2817fd514610137578063c415b95c1461014a578063c45a01551461017e57600080fd5b80634285f6e4146100805780639aab9248146100b3578063a9e56f3c146100c957600080fd5b3661007b57005b600080fd5b34801561008c57600080fd5b506100a061009b36600461247a565b61019e565b6040519081526020015b60405180910390f35b3480156100bf57600080fd5b506100a060015481565b3480156100d557600080fd5b506100fd7f000000000000000000000000000000000000000000000000000000000000000081565b6040516001600160a01b0390911681526020016100aa565b34801561012157600080fd5b506101356101303660046124ca565b6102af565b005b6101356101453660046125a8565b610467565b34801561015657600080fd5b506100fd7f000000000000000000000000000000000000000000000000000000000000000081565b34801561018a57600080fd5b506000546100fd906001600160a01b031681565b6000808360e001516040516020016101b69190612613565b60405160208183030381529060405290507f00000000000000000000000000000000000000000000000000000000000000006001600160a01b0316630a51236985600001516001848760405180606001604052808b610120015181526020018b60c0015181526020018b60e001516040516020016102349190612613565b6040516020818303038152906040528152506040518663ffffffff1660e01b81526004016102669594939291906126a4565b6040805180830381865afa158015610282573d6000803e3d6000fd5b505050506040513d601f19601f820116820180604052508101906102a691906126fc565b50949350505050565b336001600160a01b037f000000000000000000000000000000000000000000000000000000000000000016146102f857604051638afe477f60e01b815260040160405180910390fd5b600080620186a081815a61030c9190612736565b90506000806000878060200190518101906103279190612841565b925092509250845a1015610359576103496001600160a01b038b16848b610e77565b4715610359576103598347610edf565b60405163b2817fd560e01b8152309063b2817fd590869061038090869086906004016129ac565b600060405180830381600088803b15801561039a57600080fd5b5087f1935050505080156103ac575060015b6103fa573d8080156103da576040519150601f19603f3d011682016040523d82523d6000602084013e6103df565b606091505b506103f46001600160a01b038c16858c610e77565b60019750505b471561040a5761040a8347610edf565b604080518a815288151560208201528715158183015290516001600160a01b038c16917f7f345d6da48bd1339fd428ff45265a0f01258b14ca09dcf8db0c469f4f732fd3919081900360600190a250505050505050505050505050565b60025460ff166001146104ae5760405162461bcd60e51b815260206004820152600a6024820152695245454e5452414e435960b01b60448201526064015b60405180910390fd5b6002805460ff1916811790558281146104da576040516373f8993760e11b815260040160405180910390fd5b60005b83811015610e635760008585838181106104f9576104f96129da565b905060200201602081019061050e91906129f0565b905060001960ff82160161060657600080858585818110610531576105316129da565b90506020028101906105439190612a14565b8101906105509190612b19565b9150915060005b82518110156105fe576000828281518110610574576105746129da565b60200260200101511161059a5760405163fe4155c760e01b815260040160405180910390fd5b6105ec33308484815181106105b1576105b16129da565b60200260200101518685815181106105cb576105cb6129da565b60200260200101516001600160a01b0316610f30909392919063ffffffff16565b806105f681612b72565b915050610557565b505050610e50565b60011960ff8216016106e2576000848484818110610626576106266129da565b90506020028101906106389190612a14565b8101906106459190612b8b565b9050600081116106685760405163fe4155c760e01b815260040160405180910390fd5b7f00000000000000000000000000000000000000000000000000000000000000006001600160a01b031663d0e30db0826040518263ffffffff1660e01b81526004016000604051808303818588803b1580156106c357600080fd5b505af11580156106d7573d6000803e3d6000fd5b505050505050610e50565b60041960ff82160161076b576000848484818110610702576107026129da565b90506020028101906107149190612a14565b8101906107219190612bb2565b905060005b815181101561076457610751828281518110610744576107446129da565b6020026020010151610f6e565b508061075c81612b72565b915050610726565b5050610e50565b600c1960ff82160161090d5760008085858581811061078c5761078c6129da565b905060200281019061079e9190612a14565b8101906107ab9190612cbf565b9150915080600003610844576040516370a0823160e01b81523060048201527f00000000000000000000000000000000000000000000000000000000000000006001600160a01b0316906370a0823190602401602060405180830381865afa15801561081b573d6000803e3d6000fd5b505050506040513d601f19601f8201168201806040525081019061083f9190612ceb565b610846565b805b604051632e1a7d4d60e01b8152600481018290529091507f00000000000000000000000000000000000000000000000000000000000000006001600160a01b031690632e1a7d4d90602401600060405180830381600087803b1580156108ab57600080fd5b505af11580156108bf573d6000803e3d6000fd5b5050505060006108ce8261114e565b90506108e3836108de8385612736565b610edf565b6105fe7f000000000000000000000000000000000000000000000000000000000000000082610edf565b600d1960ff8216016109ce57600084848481811061092d5761092d6129da565b905060200281019061093f9190612a14565b81019061094c9190612d04565b905060005b8151811015610764576109bc82828151811061096f5761096f6129da565b60200260200101516000015183838151811061098d5761098d6129da565b6020026020010151604001518484815181106109ab576109ab6129da565b602002602001015160200151611179565b806109c681612b72565b915050610951565b600b1960ff821601610bf85760408051602081019091526060815260008585858181106109fd576109fd6129da565b9050602002810190610a0f9190612a14565b810190610a1c9190612dd3565b905060005b81518110156105fe57610abc7f0000000000000000000000000000000000000000000000000000000000000000838381518110610a6057610a606129da565b602002602001015160000151848481518110610a7e57610a7e6129da565b602002602001015160600151600081518110610a9c57610a9c6129da565b60200260200101516001600160a01b031661129b9092919063ffffffff16565b6000828281518110610ad057610ad06129da565b6020026020010151606001519050610ae98182516113b0565b845282516001600160a01b037f00000000000000000000000000000000000000000000000000000000000000001690636d0ff49590859085908110610b3057610b306129da565b602002602001015160000151858581518110610b4e57610b4e6129da565b602002602001015160200151868681518110610b6c57610b6c6129da565b602002602001015160400151886000015130426040518763ffffffff1660e01b8152600401610ba096959493929190612ee5565b6020604051808303816000875af1158015610bbf573d6000803e3d6000fd5b505050506040513d601f19601f82011682018060405250810190610be39190612ceb565b50508080610bf090612b72565b915050610a21565b600a1960ff821601610df9576000848484818110610c1857610c186129da565b9050602002810190610c2a9190612a14565b810190610c379190612f8e565b905060005b815181101561076457610cd77f0000000000000000000000000000000000000000000000000000000000000000838381518110610c7b57610c7b6129da565b602002602001015160000151848481518110610c9957610c996129da565b602002602001015160400151600081518110610cb757610cb76129da565b60200260200101516001600160a01b03166114619092919063ffffffff16565b7f00000000000000000000000000000000000000000000000000000000000000006001600160a01b03166338ed1739838381518110610d1857610d186129da565b602002602001015160000151848481518110610d3657610d366129da565b602002602001015160200151858581518110610d5457610d546129da565b60200260200101516040015130878781518110610d7357610d736129da565b6020026020010151606001516040518663ffffffff1660e01b8152600401610d9f959493929190613088565b6000604051808303816000875af1158015610dbe573d6000803e3d6000fd5b505050506040513d6000823e601f3d908101601f19168201604052610de691908101906130f9565b5080610df181612b72565b915050610c3c565b600e1960ff821601610e50576000806000868686818110610e1c57610e1c6129da565b9050602002810190610e2e9190612a14565b810190610e3b91906131fd565b925092509250610e4c838383611513565b5050505b5080610e5b81612b72565b9150506104dd565b50506002805460ff19166001179055505050565b6040516001600160a01b038316602482015260448101829052610eda90849063a9059cbb60e01b906064015b60408051601f198184030181529190526020810180516001600160e01b03166001600160e01b031990931692909217909152611861565b505050565b600080600080600085875af1905080610eda5760405162461bcd60e51b815260206004820152601360248201527211551217d514905394d1915497d19052531151606a1b60448201526064016104a5565b6040516001600160a01b0380851660248301528316604482015260648101829052610f689085906323b872dd60e01b90608401610ea3565b50505050565b60008054825160408401516001548493610f95936001600160a01b03909116929091611933565b90508060018251610fa69190612736565b81518110610fb657610fb66129da565b6020026020010151915082602001518210156110145760405162461bcd60e51b815260206004820152601760248201527f696e73756666696369656e742d616d6f756e742d6f757400000000000000000060448201526064016104a5565b82606001511561113957600080546040850151805161113993611077936001600160a01b03169291611048576110486129da565b60200260200101518660400151600181518110611067576110676129da565b6020026020010151600154611ab6565b846040015160008151811061108e5761108e6129da565b60209081029190910101516040516370a0823160e01b81523060048201526001600160a01b03909116906370a0823190602401602060405180830381865afa1580156110de573d6000803e3d6000fd5b505050506040513d601f19601f820116820180604052508101906111029190612ceb565b8560400151600081518110611119576111196129da565b60200260200101516001600160a01b0316610e779092919063ffffffff16565b61114881846040015130611b6a565b50919050565b600061271061115f8361270b6132cb565b61116991906132e2565b6111739083612736565b92915050565b816000036111ee576040516370a0823160e01b81523060048201526001600160a01b038416906370a0823190602401602060405180830381865afa1580156111c5573d6000803e3d6000fd5b505050506040513d601f19601f820116820180604052508101906111e99190612ceb565b6111f0565b815b915060006111fd8361114e565b90506112098184612736565b925061123f6001600160a01b0385167f000000000000000000000000000000000000000000000000000000000000000083610e77565b6112536001600160a01b0385168385610e77565b604080516001600160a01b0386168152602081018390527f075a2720282fdf622141dae0b048ef90a21a7e57c134c76912d19d006b3b3f6f910160405180910390a150505050565b8015806113155750604051636eb1769f60e11b81523060048201526001600160a01b03838116602483015284169063dd62ed3e90604401602060405180830381865afa1580156112ef573d6000803e3d6000fd5b505050506040513d601f19601f820116820180604052508101906113139190612ceb565b155b6113805760405162461bcd60e51b815260206004820152603660248201527f5361666545524332303a20617070726f76652066726f6d206e6f6e2d7a65726f60448201527520746f206e6f6e2d7a65726f20616c6c6f77616e636560501b60648201526084016104a5565b6040516001600160a01b038316602482015260448101829052610eda90849063095ea7b360e01b90606401610ea3565b60606000826001600160401b038111156113cc576113cc612264565b6040519080825280602002602001820160405280156113f5578160200160208202803683370190505b50905060005b8381101561145957848181518110611415576114156129da565b602002602001015182828151811061142f5761142f6129da565b6001600160a01b03909216602092830291909101909101528061145181612b72565b9150506113fb565b509392505050565b604051636eb1769f60e11b81523060048201526001600160a01b038381166024830152600091839186169063dd62ed3e90604401602060405180830381865afa1580156114b2573d6000803e3d6000fd5b505050506040513d601f19601f820116820180604052508101906114d69190612ceb565b6114e09190613304565b6040516001600160a01b038516602482015260448101829052909150610f6890859063095ea7b360e01b90606401610ea3565b8051825114611535576040516373f8993760e11b815260040160405180910390fd5b620186a0836101200151101561155e57604051636eb14fc360e11b815260040160405180910390fd5b6000836101000151838360405160200161157a93929190613317565b6040516020818303038152906040529050836080015160000361160a5760208401516040516370a0823160e01b81523060048201526001600160a01b03909116906370a0823190602401602060405180830381865afa1580156115e1573d6000803e3d6000fd5b505050506040513d601f19601f820116820180604052508101906116059190612ceb565b611610565b83608001515b608085018190526020850151604051636eb1769f60e11b81523060048201526001600160a01b037f0000000000000000000000000000000000000000000000000000000000000000811660248301529091169063dd62ed3e90604401602060405180830381865afa158015611689573d6000803e3d6000fd5b505050506040513d601f19601f820116820180604052508101906116ad9190612ceb565b101561174f57602084015160405163095ea7b360e01b81526001600160a01b037f00000000000000000000000000000000000000000000000000000000000000008116600483015260001960248301529091169063095ea7b3906044016020604051808303816000875af1158015611729573d6000803e3d6000fd5b505050506040513d601f19601f8201168201806040525081019061174d9190613357565b505b7f00000000000000000000000000000000000000000000000000000000000000006001600160a01b0316639fbf10fc47866000015187604001518860600151338a608001518b60a0015160405180606001604052808e610120015181526020018e60c0015181526020018e60e001516040516020016117ce9190612613565b6040516020818303038152906040528152508d60e001516040516020016117f59190612613565b6040516020818303038152906040528b6040518b63ffffffff1660e01b815260040161182999989796959493929190613374565b6000604051808303818588803b15801561184257600080fd5b505af1158015611856573d6000803e3d6000fd5b505050505050505050565b60006118b6826040518060400160405280602081526020017f5361666545524332303a206c6f772d6c6576656c2063616c6c206661696c6564815250856001600160a01b0316611d419092919063ffffffff16565b805190915015610eda57808060200190518101906118d49190613357565b610eda5760405162461bcd60e51b815260206004820152602a60248201527f5361666545524332303a204552433230206f7065726174696f6e20646964206e6044820152691bdd081cdd58d8d9595960b21b60648201526084016104a5565b60606002835110156119875760405162461bcd60e51b815260206004820152601e60248201527f556e697377617056324c6962726172793a20494e56414c49445f50415448000060448201526064016104a5565b82516001600160401b038111156119a0576119a0612264565b6040519080825280602002602001820160405280156119c9578160200160208202803683370190505b50905083816000815181106119e0576119e06129da565b60200260200101818152505060005b600184516119fd9190612736565b8110156102a657600080611a5188878581518110611a1d57611a1d6129da565b602002602001015188866001611a339190613304565b81518110611a4357611a436129da565b602002602001015188611d58565b91509150611a79848481518110611a6a57611a6a6129da565b60200260200101518383611e24565b84611a85856001613304565b81518110611a9557611a956129da565b60200260200101818152505050508080611aae90612b72565b9150506119ef565b6000806000611ac58686611f43565b6040516001600160601b0319606084811b8216602084015283901b166034820152919350915087906048016040516020818303038152906040528051906020012085604051602001611b47939291906001600160f81b0319815260609390931b6001600160601b03191660018401526015830191909152603582015260550190565b60408051601f198184030181529190528051602090910120979650505050505050565b60005b60018351611b7b9190612736565b811015610f6857600080848381518110611b9757611b976129da565b602002602001015185846001611bad9190613304565b81518110611bbd57611bbd6129da565b6020026020010151915091506000611bd58383611f43565b509050600087611be6866001613304565b81518110611bf657611bf66129da565b60200260200101519050600080836001600160a01b0316866001600160a01b031614611c2457826000611c28565b6000835b91509150600060028a51611c3c9190612736565b8810611c485788611c75565b600054611c75906001600160a01b0316878c611c658c6002613304565b81518110611067576110676129da565b9050611c9860008054906101000a90046001600160a01b03168888600154611ab6565b6001600160a01b031663022c0d9f84848460006040519080825280601f01601f191660200182016040528015611cd5576020820181803683370190505b506040518563ffffffff1660e01b8152600401611cf594939291906133f1565b600060405180830381600087803b158015611d0f57600080fd5b505af1158015611d23573d6000803e3d6000fd5b50505050505050505050508080611d3990612b72565b915050611b6d565b6060611d50848460008561203a565b949350505050565b6000806000611d678686611f43565b509050600080611d7989898989611ab6565b6001600160a01b0316630902f1ac6040518163ffffffff1660e01b8152600401606060405180830381865afa158015611db6573d6000803e3d6000fd5b505050506040513d601f19601f82011682018060405250810190611dda9190613435565b506001600160701b031691506001600160701b03169150826001600160a01b0316886001600160a01b031614611e11578082611e14565b81815b909a909950975050505050505050565b6000808411611e895760405162461bcd60e51b815260206004820152602b60248201527f556e697377617056324c6962726172793a20494e53554646494349454e545f4960448201526a1394155517d05353d5539560aa1b60648201526084016104a5565b600083118015611e995750600082115b611ef65760405162461bcd60e51b815260206004820152602860248201527f556e697377617056324c6962726172793a20494e53554646494349454e545f4c604482015267495155494449545960c01b60648201526084016104a5565b6000611f04856103e561210a565b90506000611f12828561210a565b90506000611f2c83611f26886103e861210a565b90612171565b9050611f3881836132e2565b979650505050505050565b600080826001600160a01b0316846001600160a01b031603611fb55760405162461bcd60e51b815260206004820152602560248201527f556e697377617056324c6962726172793a204944454e544943414c5f41444452604482015264455353455360d81b60648201526084016104a5565b826001600160a01b0316846001600160a01b031610611fd5578284611fd8565b83835b90925090506001600160a01b0382166120335760405162461bcd60e51b815260206004820152601e60248201527f556e697377617056324c6962726172793a205a45524f5f41444452455353000060448201526064016104a5565b9250929050565b60608247101561209b5760405162461bcd60e51b815260206004820152602660248201527f416464726573733a20696e73756666696369656e742062616c616e636520666f6044820152651c8818d85b1b60d21b60648201526084016104a5565b600080866001600160a01b031685876040516120b79190613485565b60006040518083038185875af1925050503d80600081146120f4576040519150601f19603f3d011682016040523d82523d6000602084013e6120f9565b606091505b5091509150611f38878383876121c6565b600081158061212e5750828261212081836132cb565b925061212c90836132e2565b145b6111735760405162461bcd60e51b815260206004820152601460248201527364732d6d6174682d6d756c2d6f766572666c6f7760601b60448201526064016104a5565b60008261217e8382613304565b91508110156111735760405162461bcd60e51b815260206004820152601460248201527364732d6d6174682d6164642d6f766572666c6f7760601b60448201526064016104a5565b6060831561223557825160000361222e576001600160a01b0385163b61222e5760405162461bcd60e51b815260206004820152601d60248201527f416464726573733a2063616c6c20746f206e6f6e2d636f6e747261637400000060448201526064016104a5565b5081611d50565b611d50838381511561224a5781518083602001fd5b8060405162461bcd60e51b81526004016104a591906134a1565b634e487b7160e01b600052604160045260246000fd5b60405161016081016001600160401b038111828210171561229d5761229d612264565b60405290565b604051608081016001600160401b038111828210171561229d5761229d612264565b604051606081016001600160401b038111828210171561229d5761229d612264565b604051601f8201601f191681016001600160401b038111828210171561230f5761230f612264565b604052919050565b803561ffff8116811461232957600080fd5b919050565b6001600160a01b038116811461234357600080fd5b50565b80356123298161232e565b6000610160828403121561236457600080fd5b61236c61227a565b905061237782612317565b815261238560208301612346565b602082015260408201356040820152606082013560608201526080820135608082015260a082013560a082015260c082013560c08201526123c860e08301612346565b60e08201526101006123db818401612346565b9082015261012082810135908201526101409182013591810191909152919050565b60006001600160401b0382111561241657612416612264565b50601f01601f191660200190565b600082601f83011261243557600080fd5b8135612448612443826123fd565b6122e7565b81815284602083860101111561245d57600080fd5b816020850160208301376000918101602001919091529392505050565b600080610180838503121561248e57600080fd5b6124988484612351565b91506101608301356001600160401b038111156124b457600080fd5b6124c085828601612424565b9150509250929050565b60008060008060008060c087890312156124e357600080fd5b6124ec87612317565b955060208701356001600160401b038082111561250857600080fd5b6125148a838b01612424565b9650604089013595506060890135915061252d8261232e565b9093506080880135925060a0880135908082111561254a57600080fd5b5061255789828a01612424565b9150509295509295509295565b60008083601f84011261257657600080fd5b5081356001600160401b0381111561258d57600080fd5b6020830191508360208260051b850101111561203357600080fd5b600080600080604085870312156125be57600080fd5b84356001600160401b03808211156125d557600080fd5b6125e188838901612564565b909650945060208701359150808211156125fa57600080fd5b5061260787828801612564565b95989497509550505050565b60609190911b6001600160601b031916815260140190565b60005b8381101561264657818101518382015260200161262e565b50506000910152565b6000815180845261266781602086016020860161262b565b601f01601f19169290920160200192915050565b80518252602081015160208301526000604082015160606040850152611d50606085018261264f565b61ffff8616815260ff8516602082015260a0604082015260006126ca60a083018661264f565b82810360608401526126dc818661264f565b905082810360808401526126f0818561267b565b98975050505050505050565b6000806040838503121561270f57600080fd5b505080516020909101519092909150565b634e487b7160e01b600052601160045260246000fd5b8181038181111561117357611173612720565b60006001600160401b0382111561276257612762612264565b5060051b60200190565b60ff8116811461234357600080fd5b600082601f83011261278c57600080fd5b8151602061279c61244383612749565b82815260059290921b840181019181810190868411156127bb57600080fd5b8286015b848110156128365780516001600160401b038111156127de5760008081fd5b8701603f810189136127f05760008081fd5b848101516040612802612443836123fd565b8281528b828486010111156128175760008081fd5b6128268389830184870161262b565b86525050509183019183016127bf565b509695505050505050565b60008060006060848603121561285657600080fd5b83516128618161232e565b809350506020808501516001600160401b038082111561288057600080fd5b818701915087601f83011261289457600080fd5b81516128a261244382612749565b81815260059190911b8301840190848101908a8311156128c157600080fd5b938501935b828510156128e85784516128d98161276c565b825293850193908501906128c6565b60408a0151909750945050508083111561290157600080fd5b505061290f8682870161277b565b9150509250925092565b600081518084526020808501945080840160005b8381101561294c57815160ff168752958201959082019060010161292d565b509495945050505050565b600081518084526020808501808196508360051b8101915082860160005b8581101561299f57828403895261298d84835161264f565b98850198935090840190600101612975565b5091979650505050505050565b6040815260006129bf6040830185612919565b82810360208401526129d18185612957565b95945050505050565b634e487b7160e01b600052603260045260246000fd5b600060208284031215612a0257600080fd5b8135612a0d8161276c565b9392505050565b6000808335601e19843603018112612a2b57600080fd5b8301803591506001600160401b03821115612a4557600080fd5b60200191503681900382131561203357600080fd5b600082601f830112612a6b57600080fd5b81356020612a7b61244383612749565b82815260059290921b84018101918181019086841115612a9a57600080fd5b8286015b84811015612836578035612ab18161232e565b8352918301918301612a9e565b600082601f830112612acf57600080fd5b81356020612adf61244383612749565b82815260059290921b84018101918181019086841115612afe57600080fd5b8286015b848110156128365780358352918301918301612b02565b60008060408385031215612b2c57600080fd5b82356001600160401b0380821115612b4357600080fd5b612b4f86838701612a5a565b93506020850135915080821115612b6557600080fd5b506124c085828601612abe565b600060018201612b8457612b84612720565b5060010190565b600060208284031215612b9d57600080fd5b5035919050565b801515811461234357600080fd5b60006020808385031215612bc557600080fd5b82356001600160401b0380821115612bdc57600080fd5b818501915085601f830112612bf057600080fd5b8135612bfe61244382612749565b81815260059190911b83018401908481019088831115612c1d57600080fd5b8585015b83811015612cb257803585811115612c3857600080fd5b86016080818c03601f19011215612c4f5760008081fd5b612c576122a3565b8882013581526040808301358a83015260608084013589811115612c7b5760008081fd5b612c898f8d83880101612a5a565b838501525060808401359350612c9e84612ba4565b820192909252845250918601918601612c21565b5098975050505050505050565b60008060408385031215612cd257600080fd5b8235612cdd8161232e565b946020939093013593505050565b600060208284031215612cfd57600080fd5b5051919050565b60006020808385031215612d1757600080fd5b82356001600160401b03811115612d2d57600080fd5b8301601f81018513612d3e57600080fd5b8035612d4c61244382612749565b81815260609182028301840191848201919088841115612d6b57600080fd5b938501935b83851015612dc75780858a031215612d885760008081fd5b612d906122c5565b8535612d9b8161232e565b815285870135612daa8161232e565b818801526040868101359082015283529384019391850191612d70565b50979650505050505050565b60006020808385031215612de657600080fd5b82356001600160401b0380821115612dfd57600080fd5b818501915085601f830112612e1157600080fd5b8135612e1f61244382612749565b81815260059190911b83018401908481019088831115612e3e57600080fd5b8585015b83811015612cb257803585811115612e5957600080fd5b86016080818c03601f19011215612e705760008081fd5b612e786122a3565b8882013581526040808301358a83015260608084013589811115612e9c5760008081fd5b612eaa8f8d83880101612abe565b83850152506080840135915088821115612ec45760008081fd5b612ed28e8c84870101612a5a565b9083015250845250918601918601612e42565b600060c082018883526020888185015260c0604085015281885180845260e086019150828a01935060005b81811015612f2c57845183529383019391830191600101612f10565b50508481036060860152875180825290820192508188019060005b81811015612f6c5782516001600160a01b031685529383019391830191600101612f47565b505050506001600160a01b039490941660808301525060a00152949350505050565b60006020808385031215612fa157600080fd5b82356001600160401b0380821115612fb857600080fd5b818501915085601f830112612fcc57600080fd5b8135612fda61244382612749565b81815260059190911b83018401908481019088831115612ff957600080fd5b8585015b83811015612cb25780358581111561301457600080fd5b86016080818c03601f1901121561302b5760008081fd5b6130336122a3565b8882013581526040808301358a830152606080840135898111156130575760008081fd5b6130658f8d83880101612a5a565b928401929092526080939093013592820192909252845250918601918601612ffd565b600060a082018783526020878185015260a0604085015281875180845260c086019150828901935060005b818110156130d85784516001600160a01b0316835293830193918301916001016130b3565b50506001600160a01b03969096166060850152505050608001529392505050565b6000602080838503121561310c57600080fd5b82516001600160401b0381111561312257600080fd5b8301601f8101851361313357600080fd5b805161314161244382612749565b81815260059190911b8201830190838101908783111561316057600080fd5b928401925b82841015611f3857835182529284019290840190613165565b600082601f83011261318f57600080fd5b8135602061319f61244383612749565b82815260059290921b840181019181810190868411156131be57600080fd5b8286015b848110156128365780356001600160401b038111156131e15760008081fd5b6131ef8986838b0101612424565b8452509183019183016131c2565b60008060006101a0848603121561321357600080fd5b61321d8585612351565b92506101608401356001600160401b038082111561323a57600080fd5b818601915086601f83011261324e57600080fd5b8135602061325e61244383612749565b82815260059290921b8401810191818101908a84111561327d57600080fd5b948201945b838610156132a45785356132958161276c565b82529482019490820190613282565b96505050506101808601359150808211156132be57600080fd5b5061290f8682870161317e565b808202811582820484141761117357611173612720565b6000826132ff57634e487b7160e01b600052601260045260246000fd5b500490565b8082018082111561117357611173612720565b6001600160a01b038416815260606020820181905260009061333b90830185612919565b828103604084015261334d8185612957565b9695505050505050565b60006020828403121561336957600080fd5b8151612a0d81612ba4565b600061012061ffff8c1683528a602084015289604084015260018060a01b03891660608401528760808401528660a08401528060c08401526133b88184018761267b565b905082810360e08401526133cc818661264f565b90508281036101008401526133e1818561264f565b9c9b505050505050505050505050565b84815283602082015260018060a01b038316604082015260806060820152600061334d608083018461264f565b80516001600160701b038116811461232957600080fd5b60008060006060848603121561344a57600080fd5b6134538461341e565b92506134616020850161341e565b9150604084015163ffffffff8116811461347a57600080fd5b809150509250925092565b6000825161349781846020870161262b565b9190910192915050565b602081526000612a0d602083018461264f56fea26469706673582212202a8f0f4d3ef60e8f8fae83437b2027bd841a0d8d043c156a9d7be190eacdfc6e64736f6c63430008110033",
    "linkReferences": {}
  },
  "methodIdentifiers": {
    "avaxSwaps(uint8[],bytes[])": "b2817fd5",
    "factory()": "c45a0155",
    "feeCollector()": "c415b95c",
    "getFee((uint16,address,uint256,uint256,uint256,uint256,uint256,address,address,uint256,bytes32),bytes)": "4285f6e4",
    "pairCodeHash()": "9aab9248",
    "sgReceive(uint16,bytes,uint256,address,uint256,bytes)": "ab8236f3",
    "stargateRouter()": "a9e56f3c"
  },
  "id": 52
}