{
  "abi": [
    {
      "inputs": [
        {
          "internalType": "contract IStargateRouter",
          "name": "_stargateRouter",
          "type": "address"
        }
      ],
      "stateMutability": "nonpayable",
      "type": "constructor"
    },
    {
      "inputs": [],
      "name": "MustBeGt0",
      "type": "error"
    },
    {
      "inputs": [],
      "name": "NotStgRouter",
      "type": "error"
    },
    {
      "anonymous": false,
      "inputs": [
        {
          "indexed": false,
          "internalType": "address",
          "name": "_token",
          "type": "address"
        },
        {
          "indexed": false,
          "internalType": "uint256",
          "name": "_fee",
          "type": "uint256"
        }
      ],
      "name": "FeePaid",
      "type": "event"
    },
    {
      "anonymous": false,
      "inputs": [
        {
          "indexed": true,
          "internalType": "address",
          "name": "token",
          "type": "address"
        },
        {
          "indexed": false,
          "internalType": "uint256",
          "name": "amountLD",
          "type": "uint256"
        },
        {
          "indexed": false,
          "internalType": "bool",
          "name": "failed",
          "type": "bool"
        },
        {
          "indexed": false,
          "internalType": "bool",
          "name": "dustSent",
          "type": "bool"
        }
      ],
      "name": "ReceivedOnDestination",
      "type": "event"
    },
    {
      "inputs": [
        {
          "internalType": "uint8[]",
          "name": "steps",
          "type": "uint8[]"
        },
        {
          "internalType": "bytes[]",
          "name": "data",
          "type": "bytes[]"
        }
      ],
      "name": "avaxSwaps",
      "outputs": [],
      "stateMutability": "payable",
      "type": "function"
    },
    {
      "inputs": [],
      "name": "feeCollector",
      "outputs": [
        {
          "internalType": "address",
          "name": "",
          "type": "address"
        }
      ],
      "stateMutability": "view",
      "type": "function"
    },
    {
      "inputs": [
        {
          "internalType": "uint16",
          "name": "",
          "type": "uint16"
        },
        {
          "internalType": "bytes",
          "name": "",
          "type": "bytes"
        },
        {
          "internalType": "uint256",
          "name": "",
          "type": "uint256"
        },
        {
          "internalType": "address",
          "name": "_token",
          "type": "address"
        },
        {
          "internalType": "uint256",
          "name": "amountLD",
          "type": "uint256"
        },
        {
          "internalType": "bytes",
          "name": "_payload",
          "type": "bytes"
        }
      ],
      "name": "sgReceive",
      "outputs": [],
      "stateMutability": "nonpayable",
      "type": "function"
    },
    {
      "inputs": [],
      "name": "stargateRouter",
      "outputs": [
        {
          "internalType": "contract IStargateRouter",
          "name": "",
          "type": "address"
        }
      ],
      "stateMutability": "view",
      "type": "function"
    },
    {
      "stateMutability": "payable",
      "type": "receive"
    }
  ],
  "bytecode": {
    "object": "0x60c060405234801561001057600080fd5b50604051610bb7380380610bb783398101604081905261002f91610044565b6001600160a01b03166080523360a052610074565b60006020828403121561005657600080fd5b81516001600160a01b038116811461006d57600080fd5b9392505050565b60805160a051610b1961009e600039600060e7015260008181606101526101140152610b196000f3fe6080604052600436106100435760003560e01c8063a9e56f3c1461004f578063ab8236f31461009f578063b2817fd5146100c1578063c415b95c146100d557600080fd5b3661004a57005b600080fd5b34801561005b57600080fd5b506100837f000000000000000000000000000000000000000000000000000000000000000081565b6040516001600160a01b03909116815260200160405180910390f35b3480156100ab57600080fd5b506100bf6100ba366004610671565b610109565b005b6100bf6100cf366004610761565b50505050565b3480156100e157600080fd5b506100837f000000000000000000000000000000000000000000000000000000000000000081565b336001600160a01b037f0000000000000000000000000000000000000000000000000000000000000000161461015257604051638afe477f60e01b815260040160405180910390fd5b60008060008380602001905181019061016b91906108e4565b9250925092506000306001600160a01b031663b2817fd562030d4085856040518463ffffffff1660e01b81526004016101a59291906109f0565b600060405180830381600088803b1580156101bf57600080fd5b5087f1935050505080156101d1575060015b61021f573d8080156101ff576040519150601f19603f3d011682016040523d82523d6000602084013e610204565b606091505b506102196001600160a01b03891686896102d6565b60019150505b6000471561027b576040516001600160a01b038616904790600081818185875af1925050503d8060008114610270576040519150601f19603f3d011682016040523d82523d6000602084013e610275565b606091505b50909150505b6040805188815283151560208201528215158183015290516001600160a01b038a16917f7f345d6da48bd1339fd428ff45265a0f01258b14ca09dcf8db0c469f4f732fd3919081900360600190a25050505050505050505050565b604080516001600160a01b038416602482015260448082018490528251808303909101815260649091019091526020810180516001600160e01b031663a9059cbb60e01b17905261032890849061032d565b505050565b6000610382826040518060400160405280602081526020017f5361666545524332303a206c6f772d6c6576656c2063616c6c206661696c6564815250856001600160a01b03166104049092919063ffffffff16565b80519091501561032857808060200190518101906103a09190610a8b565b6103285760405162461bcd60e51b815260206004820152602a60248201527f5361666545524332303a204552433230206f7065726174696f6e20646964206e6044820152691bdd081cdd58d8d9595960b21b60648201526084015b60405180910390fd5b6060610413848460008561041b565b949350505050565b60608247101561047c5760405162461bcd60e51b815260206004820152602660248201527f416464726573733a20696e73756666696369656e742062616c616e636520666f6044820152651c8818d85b1b60d21b60648201526084016103fb565b600080866001600160a01b031685876040516104989190610ab4565b60006040518083038185875af1925050503d80600081146104d5576040519150601f19603f3d011682016040523d82523d6000602084013e6104da565b606091505b50915091506104eb878383876104f6565b979650505050505050565b6060831561056557825160000361055e576001600160a01b0385163b61055e5760405162461bcd60e51b815260206004820152601d60248201527f416464726573733a2063616c6c20746f206e6f6e2d636f6e747261637400000060448201526064016103fb565b5081610413565b610413838381511561057a5781518083602001fd5b8060405162461bcd60e51b81526004016103fb9190610ad0565b634e487b7160e01b600052604160045260246000fd5b604051601f8201601f1916810167ffffffffffffffff811182821017156105d3576105d3610594565b604052919050565b600067ffffffffffffffff8211156105f5576105f5610594565b50601f01601f191660200190565b600082601f83011261061457600080fd5b8135610627610622826105db565b6105aa565b81815284602083860101111561063c57600080fd5b816020850160208301376000918101602001919091529392505050565b6001600160a01b038116811461066e57600080fd5b50565b60008060008060008060c0878903121561068a57600080fd5b863561ffff8116811461069c57600080fd5b9550602087013567ffffffffffffffff808211156106b957600080fd5b6106c58a838b01610603565b965060408901359550606089013591506106de82610659565b9093506080880135925060a088013590808211156106fb57600080fd5b5061070889828a01610603565b9150509295509295509295565b60008083601f84011261072757600080fd5b50813567ffffffffffffffff81111561073f57600080fd5b6020830191508360208260051b850101111561075a57600080fd5b9250929050565b6000806000806040858703121561077757600080fd5b843567ffffffffffffffff8082111561078f57600080fd5b61079b88838901610715565b909650945060208701359150808211156107b457600080fd5b506107c187828801610715565b95989497509550505050565b600067ffffffffffffffff8211156107e7576107e7610594565b5060051b60200190565b60005b8381101561080c5781810151838201526020016107f4565b838111156100cf5750506000910152565b600082601f83011261082e57600080fd5b8151602061083e610622836107cd565b82815260059290921b8401810191818101908684111561085d57600080fd5b8286015b848110156108d957805167ffffffffffffffff8111156108815760008081fd5b8701603f810189136108935760008081fd5b8481015160406108a5610622836105db565b8281528b828486010111156108ba5760008081fd5b6108c9838983018487016107f1565b8652505050918301918301610861565b509695505050505050565b6000806000606084860312156108f957600080fd5b835161090481610659565b8093505060208085015167ffffffffffffffff8082111561092457600080fd5b818701915087601f83011261093857600080fd5b8151610946610622826107cd565b81815260059190911b8301840190848101908a83111561096557600080fd5b938501935b8285101561099357845160ff811681146109845760008081fd5b8252938501939085019061096a565b60408a015190975094505050808311156109ac57600080fd5b50506109ba8682870161081d565b9150509250925092565b600081518084526109dc8160208601602086016107f1565b601f01601f19169290920160200192915050565b604080825283519082018190526000906020906060840190828701845b82811015610a2c57815160ff1684529284019290840190600101610a0d565b50505083810382850152845180825282820190600581901b8301840187850160005b83811015610a7c57601f19868403018552610a6a8383516109c4565b94870194925090860190600101610a4e565b50909998505050505050505050565b600060208284031215610a9d57600080fd5b81518015158114610aad57600080fd5b9392505050565b60008251610ac68184602087016107f1565b9190910192915050565b602081526000610aad60208301846109c456fea26469706673582212206216e6842e04bdf46ee5922819692e00f229398d93752814d60f45ccff12e61664736f6c634300080f0033",
    "linkReferences": {}
  },
  "methodIdentifiers": {
    "avaxSwaps(uint8[],bytes[])": "b2817fd5",
    "feeCollector()": "c415b95c",
    "sgReceive(uint16,bytes,uint256,address,uint256,bytes)": "ab8236f3",
    "stargateRouter()": "a9e56f3c"
  },
  "id": 49
}