{
  "abi": [
    {
      "inputs": [
        {
          "internalType": "contract IWETH9",
          "name": "_weth",
          "type": "address"
        },
        {
          "internalType": "address",
          "name": "_joeRouter",
          "type": "address"
        },
        {
          "internalType": "address",
          "name": "_joeLBRouter",
          "type": "address"
        },
        {
          "internalType": "address",
          "name": "_feeCollector",
          "type": "address"
        },
        {
          "internalType": "address",
          "name": "_factory",
          "type": "address"
        },
        {
          "internalType": "bytes32",
          "name": "_pairCodeHash",
          "type": "bytes32"
        },
        {
          "internalType": "contract IStargateRouter",
          "name": "_stargateRouter",
          "type": "address"
        }
      ],
      "stateMutability": "nonpayable",
      "type": "constructor"
    },
    {
      "inputs": [],
      "name": "MoreThanZero",
      "type": "error"
    },
    {
      "inputs": [],
      "name": "MustBeGt0",
      "type": "error"
    },
    {
      "inputs": [],
      "name": "NotStgRouter",
      "type": "error"
    },
    {
      "inputs": [],
      "name": "WithdrawFailed",
      "type": "error"
    },
    {
      "anonymous": false,
      "inputs": [
        {
          "indexed": false,
          "internalType": "address",
          "name": "_token",
          "type": "address"
        },
        {
          "indexed": false,
          "internalType": "uint256",
          "name": "_fee",
          "type": "uint256"
        }
      ],
      "name": "FeePaid",
      "type": "event"
    },
    {
      "anonymous": false,
      "inputs": [
        {
          "indexed": true,
          "internalType": "address",
          "name": "token",
          "type": "address"
        },
        {
          "indexed": false,
          "internalType": "uint256",
          "name": "amountLD",
          "type": "uint256"
        },
        {
          "indexed": false,
          "internalType": "bool",
          "name": "failed",
          "type": "bool"
        },
        {
          "indexed": false,
          "internalType": "bool",
          "name": "dustSent",
          "type": "bool"
        }
      ],
      "name": "ReceivedOnDestination",
      "type": "event"
    },
    {
      "inputs": [
        {
          "internalType": "uint8[]",
          "name": "steps",
          "type": "uint8[]"
        },
        {
          "internalType": "bytes[]",
          "name": "data",
          "type": "bytes[]"
        }
      ],
      "name": "avaxSwaps",
      "outputs": [],
      "stateMutability": "payable",
      "type": "function"
    },
    {
      "inputs": [],
      "name": "factory",
      "outputs": [
        {
          "internalType": "address",
          "name": "",
          "type": "address"
        }
      ],
      "stateMutability": "view",
      "type": "function"
    },
    {
      "inputs": [],
      "name": "feeCollector",
      "outputs": [
        {
          "internalType": "address",
          "name": "",
          "type": "address"
        }
      ],
      "stateMutability": "view",
      "type": "function"
    },
    {
      "inputs": [],
      "name": "pairCodeHash",
      "outputs": [
        {
          "internalType": "bytes32",
          "name": "",
          "type": "bytes32"
        }
      ],
      "stateMutability": "view",
      "type": "function"
    },
    {
      "inputs": [
        {
          "internalType": "uint16",
          "name": "",
          "type": "uint16"
        },
        {
          "internalType": "bytes",
          "name": "",
          "type": "bytes"
        },
        {
          "internalType": "uint256",
          "name": "",
          "type": "uint256"
        },
        {
          "internalType": "address",
          "name": "_token",
          "type": "address"
        },
        {
          "internalType": "uint256",
          "name": "amountLD",
          "type": "uint256"
        },
        {
          "internalType": "bytes",
          "name": "_payload",
          "type": "bytes"
        }
      ],
      "name": "sgReceive",
      "outputs": [],
      "stateMutability": "nonpayable",
      "type": "function"
    },
    {
      "inputs": [],
      "name": "stargateRouter",
      "outputs": [
        {
          "internalType": "contract IStargateRouter",
          "name": "",
          "type": "address"
        }
      ],
      "stateMutability": "view",
      "type": "function"
    },
    {
      "stateMutability": "payable",
      "type": "receive"
    }
  ],
  "bytecode": {
    "object": "0x6101206040526002805460ff191660011790553480156200001f57600080fd5b50604051620034353803806200343583398101604081905262000042916200009e565b600080546001600160a01b0319166001600160a01b03948516179055600191909155811660805293841660a05291831660c052821660e05216610100526200013d565b6001600160a01b03811681146200009b57600080fd5b50565b600080600080600080600060e0888a031215620000ba57600080fd5b8751620000c78162000085565b6020890151909750620000da8162000085565b6040890151909650620000ed8162000085565b6060890151909550620001008162000085565b6080890151909450620001138162000085565b60a089015160c08a015191945092506200012d8162000085565b8091505092959891949750929550565b60805160a05160c05160e05161010051613275620001c060003960008181610121015261107101526000818161090201526109ca015260008181610b1d0152610bac01526000818161051301528181610675015261070801526000818160a00152818161016e01528181611468015281816114fe015261158001526132756000f3fe6080604052600436106100595760003560e01c80639aab924814610065578063a9e56f3c1461008e578063ab8236f3146100da578063b2817fd5146100fc578063c415b95c1461010f578063c45a01551461014357600080fd5b3661006057005b600080fd5b34801561007157600080fd5b5061007b60015481565b6040519081526020015b60405180910390f35b34801561009a57600080fd5b506100c27f000000000000000000000000000000000000000000000000000000000000000081565b6040516001600160a01b039091168152602001610085565b3480156100e657600080fd5b506100fa6100f5366004612251565b610163565b005b6100fa61010a36600461232f565b610330565b34801561011b57600080fd5b506100c27f000000000000000000000000000000000000000000000000000000000000000081565b34801561014f57600080fd5b506000546100c2906001600160a01b031681565b336001600160a01b037f000000000000000000000000000000000000000000000000000000000000000016146101ac57604051638afe477f60e01b815260040160405180910390fd5b6000806000838060200190518101906101c591906124b6565b9250925092506000306001600160a01b031663b2817fd562030d4085856040518463ffffffff1660e01b81526004016101ff92919061264a565b600060405180830381600088803b15801561021957600080fd5b5087f19350505050801561022b575060015b610279573d808015610259576040519150601f19603f3d011682016040523d82523d6000602084013e61025e565b606091505b506102736001600160a01b0389168689610d4a565b60019150505b600047156102d5576040516001600160a01b038616904790600081818185875af1925050503d80600081146102ca576040519150601f19603f3d011682016040523d82523d6000602084013e6102cf565b606091505b50909150505b6040805188815283151560208201528215158183015290516001600160a01b038a16917f7f345d6da48bd1339fd428ff45265a0f01258b14ca09dcf8db0c469f4f732fd3919081900360600190a25050505050505050505050565b60025460ff166001146103775760405162461bcd60e51b815260206004820152600a6024820152695245454e5452414e435960b01b60448201526064015b60405180910390fd5b6002805460ff19168117905560005b83811015610d365760008585838181106103a2576103a2612678565b90506020020160208101906103b7919061268e565b905060001960ff8216016104af576000808585858181106103da576103da612678565b90506020028101906103ec91906126b2565b8101906103f991906127b7565b9150915060005b82518110156104a757600082828151811061041d5761041d612678565b6020026020010151116104435760405163fe4155c760e01b815260040160405180910390fd5b610495333084848151811061045a5761045a612678565b602002602001015186858151811061047457610474612678565b60200260200101516001600160a01b0316610db2909392919063ffffffff16565b8061049f81612830565b915050610400565b505050610d23565b60011960ff82160161058b5760008484848181106104cf576104cf612678565b90506020028101906104e191906126b2565b8101906104ee9190612849565b9050600081116105115760405163fe4155c760e01b815260040160405180910390fd5b7f00000000000000000000000000000000000000000000000000000000000000006001600160a01b031663d0e30db0826040518263ffffffff1660e01b81526004016000604051808303818588803b15801561056c57600080fd5b505af1158015610580573d6000803e3d6000fd5b505050505050610d23565b60041960ff8216016106145760008484848181106105ab576105ab612678565b90506020028101906105bd91906126b2565b8101906105ca9190612870565b905060005b815181101561060d576105fa8282815181106105ed576105ed612678565b6020026020010151610df0565b508061060581612830565b9150506105cf565b5050610d23565b600c1960ff8216016107e05760008085858581811061063557610635612678565b905060200281019061064791906126b2565b810190610654919061297d565b91509150806000036106ed576040516370a0823160e01b81523060048201527f00000000000000000000000000000000000000000000000000000000000000006001600160a01b0316906370a0823190602401602060405180830381865afa1580156106c4573d6000803e3d6000fd5b505050506040513d601f19601f820116820180604052508101906106e891906129a9565b6106ef565b805b604051632e1a7d4d60e01b8152600481018290529091507f00000000000000000000000000000000000000000000000000000000000000006001600160a01b031690632e1a7d4d90602401600060405180830381600087803b15801561075457600080fd5b505af1158015610768573d6000803e3d6000fd5b505050506000826001600160a01b03168260405160006040518083038185875af1925050503d80600081146107b9576040519150601f19603f3d011682016040523d82523d6000602084013e6107be565b606091505b50509050806104a757604051631d42c86760e21b815260040160405180910390fd5b600d1960ff8216016108a157600084848481811061080057610800612678565b905060200281019061081291906126b2565b81019061081f91906129c2565b905060005b815181101561060d5761088f82828151811061084257610842612678565b60200260200101516000015183838151811061086057610860612678565b60200260200101516040015184848151811061087e5761087e612678565b602002602001015160200151610fd0565b8061089981612830565b915050610824565b600b1960ff821601610acb5760408051602081019091526060815260008585858181106108d0576108d0612678565b90506020028101906108e291906126b2565b8101906108ef9190612a91565b905060005b81518110156104a75761098f7f000000000000000000000000000000000000000000000000000000000000000083838151811061093357610933612678565b60200260200101516000015184848151811061095157610951612678565b60200260200101516060015160008151811061096f5761096f612678565b60200260200101516001600160a01b03166110f29092919063ffffffff16565b60008282815181106109a3576109a3612678565b60200260200101516060015190506109bc818251611207565b845282516001600160a01b037f00000000000000000000000000000000000000000000000000000000000000001690636d0ff49590859085908110610a0357610a03612678565b602002602001015160000151858581518110610a2157610a21612678565b602002602001015160200151868681518110610a3f57610a3f612678565b602002602001015160400151886000015130426040518763ffffffff1660e01b8152600401610a7396959493929190612ba3565b6020604051808303816000875af1158015610a92573d6000803e3d6000fd5b505050506040513d601f19601f82011682018060405250810190610ab691906129a9565b50508080610ac390612830565b9150506108f4565b600a1960ff821601610ccc576000848484818110610aeb57610aeb612678565b9050602002810190610afd91906126b2565b810190610b0a9190612c4c565b905060005b815181101561060d57610baa7f0000000000000000000000000000000000000000000000000000000000000000838381518110610b4e57610b4e612678565b602002602001015160000151848481518110610b6c57610b6c612678565b602002602001015160400151600081518110610b8a57610b8a612678565b60200260200101516001600160a01b03166112ba9092919063ffffffff16565b7f00000000000000000000000000000000000000000000000000000000000000006001600160a01b03166338ed1739838381518110610beb57610beb612678565b602002602001015160000151848481518110610c0957610c09612678565b602002602001015160200151858581518110610c2757610c27612678565b60200260200101516040015130878781518110610c4657610c46612678565b6020026020010151606001516040518663ffffffff1660e01b8152600401610c72959493929190612d46565b6000604051808303816000875af1158015610c91573d6000803e3d6000fd5b505050506040513d6000823e601f3d908101601f19168201604052610cb99190810190612db7565b5080610cc481612830565b915050610b0f565b600e1960ff821601610d23576000806000868686818110610cef57610cef612678565b9050602002810190610d0191906126b2565b810190610d0e9190612f1f565b925092509250610d1f83838361136c565b5050505b5080610d2e81612830565b915050610386565b50506002805460ff19166001179055505050565b6040516001600160a01b038316602482015260448101829052610dad90849063a9059cbb60e01b906064015b60408051601f198184030181529190526020810180516001600160e01b03166001600160e01b0319909316929092179091526116b6565b505050565b6040516001600160a01b0380851660248301528316604482015260648101829052610dea9085906323b872dd60e01b90608401610d76565b50505050565b60008054825160408401516001548493610e17936001600160a01b03909116929091611788565b90508060018251610e289190613022565b81518110610e3857610e38612678565b602002602001015191508260200151821015610e965760405162461bcd60e51b815260206004820152601760248201527f696e73756666696369656e742d616d6f756e742d6f7574000000000000000000604482015260640161036e565b826060015115610fbb576000805460408501518051610fbb93610ef9936001600160a01b03169291610eca57610eca612678565b60200260200101518660400151600181518110610ee957610ee9612678565b6020026020010151600154611914565b8460400151600081518110610f1057610f10612678565b60209081029190910101516040516370a0823160e01b81523060048201526001600160a01b03909116906370a0823190602401602060405180830381865afa158015610f60573d6000803e3d6000fd5b505050506040513d601f19601f82011682018060405250810190610f8491906129a9565b8560400151600081518110610f9b57610f9b612678565b60200260200101516001600160a01b0316610d4a9092919063ffffffff16565b610fca818460400151306119c8565b50919050565b81600003611045576040516370a0823160e01b81523060048201526001600160a01b038416906370a0823190602401602060405180830381865afa15801561101c573d6000803e3d6000fd5b505050506040513d601f19601f8201168201806040525081019061104091906129a9565b611047565b815b9150600061105483611b9f565b90506110608184613022565b92506110966001600160a01b0385167f000000000000000000000000000000000000000000000000000000000000000083610d4a565b6110aa6001600160a01b0385168385610d4a565b604080516001600160a01b0386168152602081018390527f075a2720282fdf622141dae0b048ef90a21a7e57c134c76912d19d006b3b3f6f910160405180910390a150505050565b80158061116c5750604051636eb1769f60e11b81523060048201526001600160a01b03838116602483015284169063dd62ed3e90604401602060405180830381865afa158015611146573d6000803e3d6000fd5b505050506040513d601f19601f8201168201806040525081019061116a91906129a9565b155b6111d75760405162461bcd60e51b815260206004820152603660248201527f5361666545524332303a20617070726f76652066726f6d206e6f6e2d7a65726f60448201527520746f206e6f6e2d7a65726f20616c6c6f77616e636560501b606482015260840161036e565b6040516001600160a01b038316602482015260448101829052610dad90849063095ea7b360e01b90606401610d76565b60606000826001600160401b03811115611223576112236120fe565b60405190808252806020026020018201604052801561124c578160200160208202803683370190505b50905060005b838110156112b05784818151811061126c5761126c612678565b602002602001015182828151811061128657611286612678565b6001600160a01b0390921660209283029190910190910152806112a881612830565b915050611252565b5090505b92915050565b604051636eb1769f60e11b81523060048201526001600160a01b038381166024830152600091839186169063dd62ed3e90604401602060405180830381865afa15801561130b573d6000803e3d6000fd5b505050506040513d601f19601f8201168201806040525081019061132f91906129a9565b6113399190613035565b6040516001600160a01b038516602482015260448101829052909150610dea90859063095ea7b360e01b90606401610d76565b6000341161138d5760405163c9935ff960e01b815260040160405180910390fd5b600083610100015183836040516020016113a993929190613048565b604051602081830303815290604052905083608001516000036114395760208401516040516370a0823160e01b81523060048201526001600160a01b03909116906370a0823190602401602060405180830381865afa158015611410573d6000803e3d6000fd5b505050506040513d601f19601f8201168201806040525081019061143491906129a9565b61143f565b83608001515b608085018190526020850151604051636eb1769f60e11b81523060048201526001600160a01b037f0000000000000000000000000000000000000000000000000000000000000000811660248301529091169063dd62ed3e90604401602060405180830381865afa1580156114b8573d6000803e3d6000fd5b505050506040513d601f19601f820116820180604052508101906114dc91906129a9565b101561157e57602084015160405163095ea7b360e01b81526001600160a01b037f00000000000000000000000000000000000000000000000000000000000000008116600483015260001960248301529091169063095ea7b3906044016020604051808303816000875af1158015611558573d6000803e3d6000fd5b505050506040513d601f19601f8201168201806040525081019061157c9190613088565b505b7f00000000000000000000000000000000000000000000000000000000000000006001600160a01b0316639fbf10fc47866000015187604001518860600151308a608001518b60a0015160405180606001604052808e610120015181526020018e60c0015181526020018e60e00151604051602001611610919060609190911b6001600160601b031916815260140190565b6040516020818303038152906040528152508d60e0015160405160200161164a919060609190911b6001600160601b031916815260140190565b6040516020818303038152906040528b6040518b63ffffffff1660e01b815260040161167e999897969594939291906130a5565b6000604051808303818588803b15801561169757600080fd5b505af11580156116ab573d6000803e3d6000fd5b505050505050505050565b600061170b826040518060400160405280602081526020017f5361666545524332303a206c6f772d6c6576656c2063616c6c206661696c6564815250856001600160a01b0316611bc49092919063ffffffff16565b805190915015610dad57808060200190518101906117299190613088565b610dad5760405162461bcd60e51b815260206004820152602a60248201527f5361666545524332303a204552433230206f7065726174696f6e20646964206e6044820152691bdd081cdd58d8d9595960b21b606482015260840161036e565b60606002835110156117dc5760405162461bcd60e51b815260206004820152601e60248201527f556e697377617056324c6962726172793a20494e56414c49445f504154480000604482015260640161036e565b82516001600160401b038111156117f5576117f56120fe565b60405190808252806020026020018201604052801561181e578160200160208202803683370190505b509050838160008151811061183557611835612678565b60200260200101818152505060005b600184516118529190613022565b81101561190b576000806118a68887858151811061187257611872612678565b6020026020010151888660016118889190613035565b8151811061189857611898612678565b602002602001015188611bdb565b915091506118ce8484815181106118bf576118bf612678565b60200260200101518383611ca7565b846118da856001613035565b815181106118ea576118ea612678565b6020026020010181815250505050808061190390612830565b915050611844565b50949350505050565b60008060006119238686611dc6565b6040516001600160601b0319606084811b8216602084015283901b1660348201529193509150879060480160405160208183030381529060405280519060200120856040516020016119a5939291906001600160f81b0319815260609390931b6001600160601b03191660018401526015830191909152603582015260550190565b60408051601f198184030181529190528051602090910120979650505050505050565b60005b600183516119d99190613022565b811015610dea576000808483815181106119f5576119f5612678565b602002602001015185846001611a0b9190613035565b81518110611a1b57611a1b612678565b6020026020010151915091506000611a338383611dc6565b509050600087611a44866001613035565b81518110611a5457611a54612678565b60200260200101519050600080836001600160a01b0316866001600160a01b031614611a8257826000611a86565b6000835b91509150600060028a51611a9a9190613022565b8810611aa65788611ad3565b600054611ad3906001600160a01b0316878c611ac38c6002613035565b81518110610ee957610ee9612678565b9050611af660008054906101000a90046001600160a01b03168888600154611914565b6001600160a01b031663022c0d9f84848460006040519080825280601f01601f191660200182016040528015611b33576020820181803683370190505b506040518563ffffffff1660e01b8152600401611b539493929190613143565b600060405180830381600087803b158015611b6d57600080fd5b505af1158015611b81573d6000803e3d6000fd5b50505050505050505050508080611b9790612830565b9150506119cb565b6000612710611bb08361270b613170565b611bba9190613187565b6112b49083613022565b6060611bd38484600085611ebd565b949350505050565b6000806000611bea8686611dc6565b509050600080611bfc89898989611914565b6001600160a01b0316630902f1ac6040518163ffffffff1660e01b8152600401606060405180830381865afa158015611c39573d6000803e3d6000fd5b505050506040513d601f19601f82011682018060405250810190611c5d91906131c0565b506001600160701b031691506001600160701b03169150826001600160a01b0316886001600160a01b031614611c94578082611c97565b81815b909a909950975050505050505050565b6000808411611d0c5760405162461bcd60e51b815260206004820152602b60248201527f556e697377617056324c6962726172793a20494e53554646494349454e545f4960448201526a1394155517d05353d5539560aa1b606482015260840161036e565b600083118015611d1c5750600082115b611d795760405162461bcd60e51b815260206004820152602860248201527f556e697377617056324c6962726172793a20494e53554646494349454e545f4c604482015267495155494449545960c01b606482015260840161036e565b6000611d87856103e5611f8d565b90506000611d958285611f8d565b90506000611daf83611da9886103e8611f8d565b90611ff4565b9050611dbb8183613187565b979650505050505050565b600080826001600160a01b0316846001600160a01b031603611e385760405162461bcd60e51b815260206004820152602560248201527f556e697377617056324c6962726172793a204944454e544943414c5f41444452604482015264455353455360d81b606482015260840161036e565b826001600160a01b0316846001600160a01b031610611e58578284611e5b565b83835b90925090506001600160a01b038216611eb65760405162461bcd60e51b815260206004820152601e60248201527f556e697377617056324c6962726172793a205a45524f5f414444524553530000604482015260640161036e565b9250929050565b606082471015611f1e5760405162461bcd60e51b815260206004820152602660248201527f416464726573733a20696e73756666696369656e742062616c616e636520666f6044820152651c8818d85b1b60d21b606482015260840161036e565b600080866001600160a01b03168587604051611f3a9190613210565b60006040518083038185875af1925050503d8060008114611f77576040519150601f19603f3d011682016040523d82523d6000602084013e611f7c565b606091505b5091509150611dbb87838387612049565b6000811580611fb157508282611fa38183613170565b9250611faf9083613187565b145b6112b45760405162461bcd60e51b815260206004820152601460248201527364732d6d6174682d6d756c2d6f766572666c6f7760601b604482015260640161036e565b6000826120018382613035565b91508110156112b45760405162461bcd60e51b815260206004820152601460248201527364732d6d6174682d6164642d6f766572666c6f7760601b604482015260640161036e565b606083156120b85782516000036120b1576001600160a01b0385163b6120b15760405162461bcd60e51b815260206004820152601d60248201527f416464726573733a2063616c6c20746f206e6f6e2d636f6e7472616374000000604482015260640161036e565b5081611bd3565b611bd383838151156120cd5781518083602001fd5b8060405162461bcd60e51b815260040161036e919061322c565b803561ffff811681146120f957600080fd5b919050565b634e487b7160e01b600052604160045260246000fd5b604051608081016001600160401b0381118282101715612136576121366120fe565b60405290565b604051606081016001600160401b0381118282101715612136576121366120fe565b60405161016081016001600160401b0381118282101715612136576121366120fe565b604051601f8201601f191681016001600160401b03811182821017156121a9576121a96120fe565b604052919050565b60006001600160401b038211156121ca576121ca6120fe565b50601f01601f191660200190565b600082601f8301126121e957600080fd5b81356121fc6121f7826121b1565b612181565b81815284602083860101111561221157600080fd5b816020850160208301376000918101602001919091529392505050565b6001600160a01b038116811461224357600080fd5b50565b80356120f98161222e565b60008060008060008060c0878903121561226a57600080fd5b612273876120e7565b955060208701356001600160401b038082111561228f57600080fd5b61229b8a838b016121d8565b965060408901359550606089013591506122b48261222e565b9093506080880135925060a088013590808211156122d157600080fd5b506122de89828a016121d8565b9150509295509295509295565b60008083601f8401126122fd57600080fd5b5081356001600160401b0381111561231457600080fd5b6020830191508360208260051b8501011115611eb657600080fd5b6000806000806040858703121561234557600080fd5b84356001600160401b038082111561235c57600080fd5b612368888389016122eb565b9096509450602087013591508082111561238157600080fd5b5061238e878288016122eb565b95989497509550505050565b60006001600160401b038211156123b3576123b36120fe565b5060051b60200190565b60ff8116811461224357600080fd5b60005b838110156123e75781810151838201526020016123cf565b50506000910152565b600082601f83011261240157600080fd5b815160206124116121f78361239a565b82815260059290921b8401810191818101908684111561243057600080fd5b8286015b848110156124ab5780516001600160401b038111156124535760008081fd5b8701603f810189136124655760008081fd5b8481015160406124776121f7836121b1565b8281528b8284860101111561248c5760008081fd5b61249b838983018487016123cc565b8652505050918301918301612434565b509695505050505050565b6000806000606084860312156124cb57600080fd5b83516124d68161222e565b809350506020808501516001600160401b03808211156124f557600080fd5b818701915087601f83011261250957600080fd5b81516125176121f78261239a565b81815260059190911b8301840190848101908a83111561253657600080fd5b938501935b8285101561255d57845161254e816123bd565b8252938501939085019061253b565b60408a0151909750945050508083111561257657600080fd5b5050612584868287016123f0565b9150509250925092565b600081518084526020808501945080840160005b838110156125c157815160ff16875295820195908201906001016125a2565b509495945050505050565b600081518084526125e48160208601602086016123cc565b601f01601f19169290920160200192915050565b6000815180845260208085019450848260051b860182860160005b8581101561263d57838303895261262b8383516125cc565b98850198925090840190600101612613565b5090979650505050505050565b60408152600061265d604083018561258e565b828103602084015261266f81856125f8565b95945050505050565b634e487b7160e01b600052603260045260246000fd5b6000602082840312156126a057600080fd5b81356126ab816123bd565b9392505050565b6000808335601e198436030181126126c957600080fd5b8301803591506001600160401b038211156126e357600080fd5b602001915036819003821315611eb657600080fd5b600082601f83011261270957600080fd5b813560206127196121f78361239a565b82815260059290921b8401810191818101908684111561273857600080fd5b8286015b848110156124ab57803561274f8161222e565b835291830191830161273c565b600082601f83011261276d57600080fd5b8135602061277d6121f78361239a565b82815260059290921b8401810191818101908684111561279c57600080fd5b8286015b848110156124ab57803583529183019183016127a0565b600080604083850312156127ca57600080fd5b82356001600160401b03808211156127e157600080fd5b6127ed868387016126f8565b9350602085013591508082111561280357600080fd5b506128108582860161275c565b9150509250929050565b634e487b7160e01b600052601160045260246000fd5b6000600182016128425761284261281a565b5060010190565b60006020828403121561285b57600080fd5b5035919050565b801515811461224357600080fd5b6000602080838503121561288357600080fd5b82356001600160401b038082111561289a57600080fd5b818501915085601f8301126128ae57600080fd5b81356128bc6121f78261239a565b81815260059190911b830184019084810190888311156128db57600080fd5b8585015b83811015612970578035858111156128f657600080fd5b86016080818c03601f1901121561290d5760008081fd5b612915612114565b8882013581526040808301358a830152606080840135898111156129395760008081fd5b6129478f8d838801016126f8565b83850152506080840135935061295c84612862565b8201929092528452509186019186016128df565b5098975050505050505050565b6000806040838503121561299057600080fd5b823561299b8161222e565b946020939093013593505050565b6000602082840312156129bb57600080fd5b5051919050565b600060208083850312156129d557600080fd5b82356001600160401b038111156129eb57600080fd5b8301601f810185136129fc57600080fd5b8035612a0a6121f78261239a565b81815260609182028301840191848201919088841115612a2957600080fd5b938501935b83851015612a855780858a031215612a465760008081fd5b612a4e61213c565b8535612a598161222e565b815285870135612a688161222e565b818801526040868101359082015283529384019391850191612a2e565b50979650505050505050565b60006020808385031215612aa457600080fd5b82356001600160401b0380821115612abb57600080fd5b818501915085601f830112612acf57600080fd5b8135612add6121f78261239a565b81815260059190911b83018401908481019088831115612afc57600080fd5b8585015b8381101561297057803585811115612b1757600080fd5b86016080818c03601f19011215612b2e5760008081fd5b612b36612114565b8882013581526040808301358a83015260608084013589811115612b5a5760008081fd5b612b688f8d8388010161275c565b83850152506080840135915088821115612b825760008081fd5b612b908e8c848701016126f8565b9083015250845250918601918601612b00565b600060c082018883526020888185015260c0604085015281885180845260e086019150828a01935060005b81811015612bea57845183529383019391830191600101612bce565b50508481036060860152875180825290820192508188019060005b81811015612c2a5782516001600160a01b031685529383019391830191600101612c05565b505050506001600160a01b039490941660808301525060a00152949350505050565b60006020808385031215612c5f57600080fd5b82356001600160401b0380821115612c7657600080fd5b818501915085601f830112612c8a57600080fd5b8135612c986121f78261239a565b81815260059190911b83018401908481019088831115612cb757600080fd5b8585015b8381101561297057803585811115612cd257600080fd5b86016080818c03601f19011215612ce95760008081fd5b612cf1612114565b8882013581526040808301358a83015260608084013589811115612d155760008081fd5b612d238f8d838801016126f8565b928401929092526080939093013592820192909252845250918601918601612cbb565b600060a082018783526020878185015260a0604085015281875180845260c086019150828901935060005b81811015612d965784516001600160a01b031683529383019391830191600101612d71565b50506001600160a01b03969096166060850152505050608001529392505050565b60006020808385031215612dca57600080fd5b82516001600160401b03811115612de057600080fd5b8301601f81018513612df157600080fd5b8051612dff6121f78261239a565b81815260059190911b82018301908381019087831115612e1e57600080fd5b928401925b82841015611dbb57835182529284019290840190612e23565b600082601f830112612e4d57600080fd5b81356020612e5d6121f78361239a565b82815260059290921b84018101918181019086841115612e7c57600080fd5b8286015b848110156124ab578035612e93816123bd565b8352918301918301612e80565b600082601f830112612eb157600080fd5b81356020612ec16121f78361239a565b82815260059290921b84018101918181019086841115612ee057600080fd5b8286015b848110156124ab5780356001600160401b03811115612f035760008081fd5b612f118986838b01016121d8565b845250918301918301612ee4565b60008060008385036101a0811215612f3657600080fd5b61016080821215612f4657600080fd5b612f4e61215e565b9150612f59866120e7565b8252612f6760208701612246565b602083015260408601356040830152606086013560608301526080860135608083015260a086013560a083015260c086013560c0830152612faa60e08701612246565b60e0830152610100612fbd818801612246565b90830152610120868101359083015261014080870135908301529093508401356001600160401b0380821115612ff257600080fd5b612ffe87838801612e3c565b935061018086013591508082111561301557600080fd5b5061258486828701612ea0565b818103818111156112b4576112b461281a565b808201808211156112b4576112b461281a565b6001600160a01b038416815260606020820181905260009061306c9083018561258e565b828103604084015261307e81856125f8565b9695505050505050565b60006020828403121561309a57600080fd5b81516126ab81612862565b600061012061ffff8c1683528a602084015289604084015260018060a01b03891660608401528760808401528660a08401528060c08401528551818401525060208501516101408301526040850151606061016084015261310a6101808401826125cc565b905082810360e084015261311e81866125cc565b905082810361010084015261313381856125cc565b9c9b505050505050505050505050565b84815283602082015260018060a01b038316604082015260806060820152600061307e60808301846125cc565b80820281158282048414176112b4576112b461281a565b6000826131a457634e487b7160e01b600052601260045260246000fd5b500490565b80516001600160701b03811681146120f957600080fd5b6000806000606084860312156131d557600080fd5b6131de846131a9565b92506131ec602085016131a9565b9150604084015163ffffffff8116811461320557600080fd5b809150509250925092565b600082516132228184602087016123cc565b9190910192915050565b6020815260006126ab60208301846125cc56fea26469706673582212202dc0ec369acdd611159c34c22d33c3612365ea96ab8a7509e8b04ddd1057f54964736f6c63430008110033",
    "linkReferences": {}
  },
  "methodIdentifiers": {
    "avaxSwaps(uint8[],bytes[])": "b2817fd5",
    "factory()": "c45a0155",
    "feeCollector()": "c415b95c",
    "pairCodeHash()": "9aab9248",
    "sgReceive(uint16,bytes,uint256,address,uint256,bytes)": "ab8236f3",
    "stargateRouter()": "a9e56f3c"
  },
  "id": 54
}