{
  "abi": [
    {
      "inputs": [
        {
          "internalType": "contract IWETH9",
          "name": "_weth",
          "type": "address"
        },
        {
          "internalType": "address",
          "name": "_joeRouter",
          "type": "address"
        },
        {
          "internalType": "address",
          "name": "_joeLBRouter",
          "type": "address"
        },
        {
          "internalType": "address",
          "name": "_feeCollector",
          "type": "address"
        },
        {
          "internalType": "address",
          "name": "_factory",
          "type": "address"
        },
        {
          "internalType": "bytes32",
          "name": "_pairCodeHash",
          "type": "bytes32"
        },
        {
          "internalType": "contract IStargateRouter",
          "name": "_stargateRouter",
          "type": "address"
        }
      ],
      "stateMutability": "nonpayable",
      "type": "constructor"
    },
    {
      "inputs": [],
      "name": "MismatchedLengths",
      "type": "error"
    },
    {
      "inputs": [],
      "name": "MoreThanZero",
      "type": "error"
    },
    {
      "inputs": [],
      "name": "NotEnoughGas",
      "type": "error"
    },
    {
      "inputs": [],
      "name": "NotStgRouter",
      "type": "error"
    },
    {
      "inputs": [],
      "name": "WithdrawFailed",
      "type": "error"
    },
    {
      "anonymous": false,
      "inputs": [
        {
          "indexed": false,
          "internalType": "address",
          "name": "_token",
          "type": "address"
        },
        {
          "indexed": false,
          "internalType": "uint256",
          "name": "_fee",
          "type": "uint256"
        }
      ],
      "name": "FeePaid",
      "type": "event"
    },
    {
      "anonymous": false,
      "inputs": [
        {
          "indexed": true,
          "internalType": "address",
          "name": "token",
          "type": "address"
        },
        {
          "indexed": false,
          "internalType": "uint256",
          "name": "amountLD",
          "type": "uint256"
        },
        {
          "indexed": false,
          "internalType": "bool",
          "name": "failed",
          "type": "bool"
        },
        {
          "indexed": false,
          "internalType": "bool",
          "name": "dustSent",
          "type": "bool"
        }
      ],
      "name": "ReceivedOnDestination",
      "type": "event"
    },
    {
      "inputs": [
        {
          "internalType": "uint8[]",
          "name": "steps",
          "type": "uint8[]"
        },
        {
          "internalType": "bytes[]",
          "name": "data",
          "type": "bytes[]"
        }
      ],
      "name": "avaxSwaps",
      "outputs": [],
      "stateMutability": "payable",
      "type": "function"
    },
    {
      "inputs": [],
      "name": "factory",
      "outputs": [
        {
          "internalType": "address",
          "name": "",
          "type": "address"
        }
      ],
      "stateMutability": "view",
      "type": "function"
    },
    {
      "inputs": [],
      "name": "feeCollector",
      "outputs": [
        {
          "internalType": "address",
          "name": "",
          "type": "address"
        }
      ],
      "stateMutability": "view",
      "type": "function"
    },
    {
      "inputs": [
        {
          "components": [
            {
              "internalType": "uint16",
              "name": "dstChainId",
              "type": "uint16"
            },
            {
              "internalType": "address",
              "name": "token",
              "type": "address"
            },
            {
              "internalType": "uint256",
              "name": "srcPoolId",
              "type": "uint256"
            },
            {
              "internalType": "uint256",
              "name": "dstPoolId",
              "type": "uint256"
            },
            {
              "internalType": "uint256",
              "name": "amount",
              "type": "uint256"
            },
            {
              "internalType": "uint256",
              "name": "amountMin",
              "type": "uint256"
            },
            {
              "internalType": "uint256",
              "name": "dustAmount",
              "type": "uint256"
            },
            {
              "internalType": "address",
              "name": "receiver",
              "type": "address"
            },
            {
              "internalType": "address",
              "name": "to",
              "type": "address"
            },
            {
              "internalType": "uint256",
              "name": "gas",
              "type": "uint256"
            },
            {
              "internalType": "bytes32",
              "name": "srcContext",
              "type": "bytes32"
            }
          ],
          "internalType": "struct StargateAvax.StargateParams",
          "name": "params",
          "type": "tuple"
        },
        {
          "internalType": "bytes",
          "name": "payload",
          "type": "bytes"
        }
      ],
      "name": "getFee",
      "outputs": [
        {
          "internalType": "uint256",
          "name": "_fee",
          "type": "uint256"
        }
      ],
      "stateMutability": "view",
      "type": "function"
    },
    {
      "inputs": [],
      "name": "pairCodeHash",
      "outputs": [
        {
          "internalType": "bytes32",
          "name": "",
          "type": "bytes32"
        }
      ],
      "stateMutability": "view",
      "type": "function"
    },
    {
      "inputs": [
        {
          "internalType": "uint16",
          "name": "",
          "type": "uint16"
        },
        {
          "internalType": "bytes",
          "name": "",
          "type": "bytes"
        },
        {
          "internalType": "uint256",
          "name": "",
          "type": "uint256"
        },
        {
          "internalType": "address",
          "name": "_token",
          "type": "address"
        },
        {
          "internalType": "uint256",
          "name": "amountLD",
          "type": "uint256"
        },
        {
          "internalType": "bytes",
          "name": "_payload",
          "type": "bytes"
        }
      ],
      "name": "sgReceive",
      "outputs": [],
      "stateMutability": "nonpayable",
      "type": "function"
    },
    {
      "inputs": [],
      "name": "stargateRouter",
      "outputs": [
        {
          "internalType": "contract IStargateRouter",
          "name": "",
          "type": "address"
        }
      ],
      "stateMutability": "view",
      "type": "function"
    },
    {
      "stateMutability": "payable",
      "type": "receive"
    }
  ],
  "bytecode": {
    "object": "0x6101206040526002805460ff191660011790553480156200001f57600080fd5b50604051620039683803806200396883398101604081905262000042916200009e565b600080546001600160a01b0319166001600160a01b03948516179055600191909155811660805293841660a05291831660c052821660e05216610100526200013d565b6001600160a01b03811681146200009b57600080fd5b50565b600080600080600080600060e0888a031215620000ba57600080fd5b8751620000c78162000085565b6020890151909750620000da8162000085565b6040890151909650620000ed8162000085565b6060890151909550620001008162000085565b6080890151909450620001138162000085565b60a089015160c08a015191945092506200012d8162000085565b8091505092959891949750929550565b60805160a05160c05160e0516101005161378c620001dc6000396000818161015c015281816108e801526115d4015260008181610bae01528181610c2d0152610cda015260008181610fac0152818161102b015261107f01526000818161066a015281816107cc015261085f01526000818160db015281816101c9015281816102ba015281816118de0152818161197401526119f6015261378c6000f3fe6080604052600436106100745760003560e01c8063ab8236f31161004e578063ab8236f314610115578063b2817fd514610137578063c415b95c1461014a578063c45a01551461017e57600080fd5b80634285f6e4146100805780639aab9248146100b3578063a9e56f3c146100c957600080fd5b3661007b57005b600080fd5b34801561008c57600080fd5b506100a061009b36600461271f565b61019e565b6040519081526020015b60405180910390f35b3480156100bf57600080fd5b506100a060015481565b3480156100d557600080fd5b506100fd7f000000000000000000000000000000000000000000000000000000000000000081565b6040516001600160a01b0390911681526020016100aa565b34801561012157600080fd5b5061013561013036600461276f565b6102af565b005b61013561014536600461284d565b610467565b34801561015657600080fd5b506100fd7f000000000000000000000000000000000000000000000000000000000000000081565b34801561018a57600080fd5b506000546100fd906001600160a01b031681565b6000808360e001516040516020016101b691906128b8565b60405160208183030381529060405290507f00000000000000000000000000000000000000000000000000000000000000006001600160a01b0316630a51236985600001516001848760405180606001604052808b610120015181526020018b60c0015181526020018b60e0015160405160200161023491906128b8565b6040516020818303038152906040528152506040518663ffffffff1660e01b8152600401610266959493929190612949565b6040805180830381865afa158015610282573d6000803e3d6000fd5b505050506040513d601f19601f820116820180604052508101906102a691906129a1565b50949350505050565b336001600160a01b037f000000000000000000000000000000000000000000000000000000000000000016146102f857604051638afe477f60e01b815260040160405180910390fd5b600080620186a081815a61030c91906129db565b90506000806000878060200190518101906103279190612ae6565b925092509250845a1015610359576103496001600160a01b038b16848b61121d565b4715610359576103598347611285565b60405163b2817fd560e01b8152309063b2817fd59086906103809086908690600401612c4e565b600060405180830381600088803b15801561039a57600080fd5b5087f1935050505080156103ac575060015b6103fa573d8080156103da576040519150601f19603f3d011682016040523d82523d6000602084013e6103df565b606091505b506103f46001600160a01b038c16858c61121d565b60019750505b471561040a5761040a8347611285565b604080518a815288151560208201528715158183015290516001600160a01b038c16917f7f345d6da48bd1339fd428ff45265a0f01258b14ca09dcf8db0c469f4f732fd3919081900360600190a250505050505050505050505050565b60025460ff166001146104ae5760405162461bcd60e51b815260206004820152600a6024820152695245454e5452414e435960b01b60448201526064015b60405180910390fd5b6002805460ff1916811790558281146104da576040516373f8993760e11b815260040160405180910390fd5b60005b838110156112095760008585838181106104f9576104f9612c7c565b905060200201602081019061050e9190612c92565b905060001960ff8216016106065760008085858581811061053157610531612c7c565b90506020028101906105439190612cb6565b8101906105509190612dbb565b9150915060005b82518110156105fe57600082828151811061057457610574612c7c565b60200260200101511161059a5760405163fe4155c760e01b815260040160405180910390fd5b6105ec33308484815181106105b1576105b1612c7c565b60200260200101518685815181106105cb576105cb612c7c565b60200260200101516001600160a01b03166112d6909392919063ffffffff16565b806105f681612e14565b915050610557565b5050506111f6565b60011960ff8216016106e257600084848481811061062657610626612c7c565b90506020028101906106389190612cb6565b8101906106459190612e2d565b9050600081116106685760405163fe4155c760e01b815260040160405180910390fd5b7f00000000000000000000000000000000000000000000000000000000000000006001600160a01b031663d0e30db0826040518263ffffffff1660e01b81526004016000604051808303818588803b1580156106c357600080fd5b505af11580156106d7573d6000803e3d6000fd5b5050505050506111f6565b60041960ff82160161076b57600084848481811061070257610702612c7c565b90506020028101906107149190612cb6565b8101906107219190612e54565b905060005b81518110156107645761075182828151811061074457610744612c7c565b6020026020010151611314565b508061075c81612e14565b915050610726565b50506111f6565b600c1960ff82160161090d5760008085858581811061078c5761078c612c7c565b905060200281019061079e9190612cb6565b8101906107ab9190612f61565b9150915080600003610844576040516370a0823160e01b81523060048201527f00000000000000000000000000000000000000000000000000000000000000006001600160a01b0316906370a0823190602401602060405180830381865afa15801561081b573d6000803e3d6000fd5b505050506040513d601f19601f8201168201806040525081019061083f9190612f8d565b610846565b805b604051632e1a7d4d60e01b8152600481018290529091507f00000000000000000000000000000000000000000000000000000000000000006001600160a01b031690632e1a7d4d90602401600060405180830381600087803b1580156108ab57600080fd5b505af11580156108bf573d6000803e3d6000fd5b5050505060006108ce82611508565b90506108e3836108de83856129db565b611285565b6105fe7f000000000000000000000000000000000000000000000000000000000000000082611285565b600d1960ff8216016109ce57600084848481811061092d5761092d612c7c565b905060200281019061093f9190612cb6565b81019061094c9190612fa6565b905060005b8151811015610764576109bc82828151811061096f5761096f612c7c565b60200260200101516000015183838151811061098d5761098d612c7c565b6020026020010151604001518484815181106109ab576109ab612c7c565b602002602001015160200151611533565b806109c681612e14565b915050610951565b600b1960ff821601610ddb5760408051602081019091526060815260008585858181106109fd576109fd612c7c565b9050602002810190610a0f9190612cb6565b810190610a1c9190613075565b905060005b81518110156105fe57818181518110610a3c57610a3c612c7c565b602002602001015160000151600014610a7257818181518110610a6157610a61612c7c565b602002602001015160000151610b16565b818181518110610a8457610a84612c7c565b602002602001015160600151600081518110610aa257610aa2612c7c565b60209081029190910101516040516370a0823160e01b81523060048201526001600160a01b03909116906370a0823190602401602060405180830381865afa158015610af2573d6000803e3d6000fd5b505050506040513d601f19601f82011682018060405250810190610b169190612f8d565b828281518110610b2857610b28612c7c565b60200260200101516000018181525050818181518110610b4a57610b4a612c7c565b602002602001015160000151828281518110610b6857610b68612c7c565b602002602001015160600151600081518110610b8657610b86612c7c565b6020908102919091010151604051636eb1769f60e11b81523060048201526001600160a01b037f0000000000000000000000000000000000000000000000000000000000000000811660248301529091169063dd62ed3e90604401602060405180830381865afa158015610bfe573d6000803e3d6000fd5b505050506040513d601f19601f82011682018060405250810190610c229190612f8d565b1015610c9f57610c9f7f0000000000000000000000000000000000000000000000000000000000000000600019848481518110610c6157610c61612c7c565b602002602001015160600151600081518110610c7f57610c7f612c7c565b60200260200101516001600160a01b03166116559092919063ffffffff16565b6000828281518110610cb357610cb3612c7c565b6020026020010151606001519050610ccc818251611707565b845282516001600160a01b037f00000000000000000000000000000000000000000000000000000000000000001690636d0ff49590859085908110610d1357610d13612c7c565b602002602001015160000151858581518110610d3157610d31612c7c565b602002602001015160200151868681518110610d4f57610d4f612c7c565b602002602001015160400151886000015130426040518763ffffffff1660e01b8152600401610d8396959493929190613187565b6020604051808303816000875af1158015610da2573d6000803e3d6000fd5b505050506040513d601f19601f82011682018060405250810190610dc69190612f8d565b50508080610dd390612e14565b915050610a21565b600a1960ff82160161119f576000848484818110610dfb57610dfb612c7c565b9050602002810190610e0d9190612cb6565b810190610e1a9190613230565b905060005b815181101561076457818181518110610e3a57610e3a612c7c565b602002602001015160000151600014610e7057818181518110610e5f57610e5f612c7c565b602002602001015160000151610f14565b818181518110610e8257610e82612c7c565b602002602001015160400151600081518110610ea057610ea0612c7c565b60209081029190910101516040516370a0823160e01b81523060048201526001600160a01b03909116906370a0823190602401602060405180830381865afa158015610ef0573d6000803e3d6000fd5b505050506040513d601f19601f82011682018060405250810190610f149190612f8d565b828281518110610f2657610f26612c7c565b60200260200101516000018181525050818181518110610f4857610f48612c7c565b602002602001015160000151828281518110610f6657610f66612c7c565b602002602001015160400151600081518110610f8457610f84612c7c565b6020908102919091010151604051636eb1769f60e11b81523060048201526001600160a01b037f0000000000000000000000000000000000000000000000000000000000000000811660248301529091169063dd62ed3e90604401602060405180830381865afa158015610ffc573d6000803e3d6000fd5b505050506040513d601f19601f820116820180604052508101906110209190612f8d565b101561107d5761107d7f000000000000000000000000000000000000000000000000000000000000000060001984848151811061105f5761105f612c7c565b602002602001015160400151600081518110610c7f57610c7f612c7c565b7f00000000000000000000000000000000000000000000000000000000000000006001600160a01b03166338ed17398383815181106110be576110be612c7c565b6020026020010151600001518484815181106110dc576110dc612c7c565b6020026020010151602001518585815181106110fa576110fa612c7c565b6020026020010151604001513087878151811061111957611119612c7c565b6020026020010151606001516040518663ffffffff1660e01b815260040161114595949392919061332a565b6000604051808303816000875af1158015611164573d6000803e3d6000fd5b505050506040513d6000823e601f3d908101601f1916820160405261118c919081019061339b565b508061119781612e14565b915050610e1f565b600e1960ff8216016111f65760008060008686868181106111c2576111c2612c7c565b90506020028101906111d49190612cb6565b8101906111e1919061349f565b9250925092506111f28383836117b8565b5050505b508061120181612e14565b9150506104dd565b50506002805460ff19166001179055505050565b6040516001600160a01b03831660248201526044810182905261128090849063a9059cbb60e01b906064015b60408051601f198184030181529190526020810180516001600160e01b03166001600160e01b031990931692909217909152611b06565b505050565b600080600080600085875af19050806112805760405162461bcd60e51b815260206004820152601360248201527211551217d514905394d1915497d19052531151606a1b60448201526064016104a5565b6040516001600160a01b038085166024830152831660448201526064810182905261130e9085906323b872dd60e01b90608401611249565b50505050565b8051600090156113255781516113b0565b816040015160008151811061133c5761133c612c7c565b60209081029190910101516040516370a0823160e01b81523060048201526001600160a01b03909116906370a0823190602401602060405180830381865afa15801561138c573d6000803e3d6000fd5b505050506040513d601f19601f820116820180604052508101906113b09190612f8d565b80835260008054604085015160015492936113d9936001600160a01b0390931692909190611bd8565b905080600182516113ea91906129db565b815181106113fa576113fa612c7c565b6020026020010151915082602001518210156114585760405162461bcd60e51b815260206004820152601760248201527f696e73756666696369656e742d616d6f756e742d6f757400000000000000000060448201526064016104a5565b8260600151156114f35760008054604085015180516114f3936114bb936001600160a01b0316929161148c5761148c612c7c565b602002602001015186604001516001815181106114ab576114ab612c7c565b6020026020010151600154611d5b565b8451604086015180516000906114d3576114d3612c7c565b60200260200101516001600160a01b031661121d9092919063ffffffff16565b61150281846040015130611e0f565b50919050565b60006127106115198361270b61356d565b6115239190613584565b61152d90836129db565b92915050565b816000036115a8576040516370a0823160e01b81523060048201526001600160a01b038416906370a0823190602401602060405180830381865afa15801561157f573d6000803e3d6000fd5b505050506040513d601f19601f820116820180604052508101906115a39190612f8d565b6115aa565b815b915060006115b783611508565b90506115c381846129db565b92506115f96001600160a01b0385167f00000000000000000000000000000000000000000000000000000000000000008361121d565b61160d6001600160a01b038516838561121d565b604080516001600160a01b0386168152602081018390527f075a2720282fdf622141dae0b048ef90a21a7e57c134c76912d19d006b3b3f6f910160405180910390a150505050565b604051636eb1769f60e11b81523060048201526001600160a01b038381166024830152600091839186169063dd62ed3e90604401602060405180830381865afa1580156116a6573d6000803e3d6000fd5b505050506040513d601f19601f820116820180604052508101906116ca9190612f8d565b6116d491906135a6565b6040516001600160a01b03851660248201526044810182905290915061130e90859063095ea7b360e01b90606401611249565b60606000826001600160401b0381111561172357611723612509565b60405190808252806020026020018201604052801561174c578160200160208202803683370190505b50905060005b838110156117b05784818151811061176c5761176c612c7c565b602002602001015182828151811061178657611786612c7c565b6001600160a01b0390921660209283029190910190910152806117a881612e14565b915050611752565b509392505050565b80518251146117da576040516373f8993760e11b815260040160405180910390fd5b620186a0836101200151101561180357604051636eb14fc360e11b815260040160405180910390fd5b6000836101000151838360405160200161181f939291906135b9565b604051602081830303815290604052905083608001516000036118af5760208401516040516370a0823160e01b81523060048201526001600160a01b03909116906370a0823190602401602060405180830381865afa158015611886573d6000803e3d6000fd5b505050506040513d601f19601f820116820180604052508101906118aa9190612f8d565b6118b5565b83608001515b608085018190526020850151604051636eb1769f60e11b81523060048201526001600160a01b037f0000000000000000000000000000000000000000000000000000000000000000811660248301529091169063dd62ed3e90604401602060405180830381865afa15801561192e573d6000803e3d6000fd5b505050506040513d601f19601f820116820180604052508101906119529190612f8d565b10156119f457602084015160405163095ea7b360e01b81526001600160a01b037f00000000000000000000000000000000000000000000000000000000000000008116600483015260001960248301529091169063095ea7b3906044016020604051808303816000875af11580156119ce573d6000803e3d6000fd5b505050506040513d601f19601f820116820180604052508101906119f291906135f9565b505b7f00000000000000000000000000000000000000000000000000000000000000006001600160a01b0316639fbf10fc47866000015187604001518860600151338a608001518b60a0015160405180606001604052808e610120015181526020018e60c0015181526020018e60e00151604051602001611a7391906128b8565b6040516020818303038152906040528152508d60e00151604051602001611a9a91906128b8565b6040516020818303038152906040528b6040518b63ffffffff1660e01b8152600401611ace99989796959493929190613616565b6000604051808303818588803b158015611ae757600080fd5b505af1158015611afb573d6000803e3d6000fd5b505050505050505050565b6000611b5b826040518060400160405280602081526020017f5361666545524332303a206c6f772d6c6576656c2063616c6c206661696c6564815250856001600160a01b0316611fe69092919063ffffffff16565b8051909150156112805780806020019051810190611b7991906135f9565b6112805760405162461bcd60e51b815260206004820152602a60248201527f5361666545524332303a204552433230206f7065726174696f6e20646964206e6044820152691bdd081cdd58d8d9595960b21b60648201526084016104a5565b6060600283511015611c2c5760405162461bcd60e51b815260206004820152601e60248201527f556e697377617056324c6962726172793a20494e56414c49445f50415448000060448201526064016104a5565b82516001600160401b03811115611c4557611c45612509565b604051908082528060200260200182016040528015611c6e578160200160208202803683370190505b5090508381600081518110611c8557611c85612c7c565b60200260200101818152505060005b60018451611ca291906129db565b8110156102a657600080611cf688878581518110611cc257611cc2612c7c565b602002602001015188866001611cd891906135a6565b81518110611ce857611ce8612c7c565b602002602001015188611ffd565b91509150611d1e848481518110611d0f57611d0f612c7c565b602002602001015183836120c9565b84611d2a8560016135a6565b81518110611d3a57611d3a612c7c565b60200260200101818152505050508080611d5390612e14565b915050611c94565b6000806000611d6a86866121e8565b6040516001600160601b0319606084811b8216602084015283901b166034820152919350915087906048016040516020818303038152906040528051906020012085604051602001611dec939291906001600160f81b0319815260609390931b6001600160601b03191660018401526015830191909152603582015260550190565b60408051601f198184030181529190528051602090910120979650505050505050565b60005b60018351611e2091906129db565b81101561130e57600080848381518110611e3c57611e3c612c7c565b602002602001015185846001611e5291906135a6565b81518110611e6257611e62612c7c565b6020026020010151915091506000611e7a83836121e8565b509050600087611e8b8660016135a6565b81518110611e9b57611e9b612c7c565b60200260200101519050600080836001600160a01b0316866001600160a01b031614611ec957826000611ecd565b6000835b91509150600060028a51611ee191906129db565b8810611eed5788611f1a565b600054611f1a906001600160a01b0316878c611f0a8c60026135a6565b815181106114ab576114ab612c7c565b9050611f3d60008054906101000a90046001600160a01b03168888600154611d5b565b6001600160a01b031663022c0d9f84848460006040519080825280601f01601f191660200182016040528015611f7a576020820181803683370190505b506040518563ffffffff1660e01b8152600401611f9a9493929190613693565b600060405180830381600087803b158015611fb457600080fd5b505af1158015611fc8573d6000803e3d6000fd5b50505050505050505050508080611fde90612e14565b915050611e12565b6060611ff584846000856122df565b949350505050565b600080600061200c86866121e8565b50905060008061201e89898989611d5b565b6001600160a01b0316630902f1ac6040518163ffffffff1660e01b8152600401606060405180830381865afa15801561205b573d6000803e3d6000fd5b505050506040513d601f19601f8201168201806040525081019061207f91906136d7565b506001600160701b031691506001600160701b03169150826001600160a01b0316886001600160a01b0316146120b65780826120b9565b81815b909a909950975050505050505050565b600080841161212e5760405162461bcd60e51b815260206004820152602b60248201527f556e697377617056324c6962726172793a20494e53554646494349454e545f4960448201526a1394155517d05353d5539560aa1b60648201526084016104a5565b60008311801561213e5750600082115b61219b5760405162461bcd60e51b815260206004820152602860248201527f556e697377617056324c6962726172793a20494e53554646494349454e545f4c604482015267495155494449545960c01b60648201526084016104a5565b60006121a9856103e56123af565b905060006121b782856123af565b905060006121d1836121cb886103e86123af565b90612416565b90506121dd8183613584565b979650505050505050565b600080826001600160a01b0316846001600160a01b03160361225a5760405162461bcd60e51b815260206004820152602560248201527f556e697377617056324c6962726172793a204944454e544943414c5f41444452604482015264455353455360d81b60648201526084016104a5565b826001600160a01b0316846001600160a01b03161061227a57828461227d565b83835b90925090506001600160a01b0382166122d85760405162461bcd60e51b815260206004820152601e60248201527f556e697377617056324c6962726172793a205a45524f5f41444452455353000060448201526064016104a5565b9250929050565b6060824710156123405760405162461bcd60e51b815260206004820152602660248201527f416464726573733a20696e73756666696369656e742062616c616e636520666f6044820152651c8818d85b1b60d21b60648201526084016104a5565b600080866001600160a01b0316858760405161235c9190613727565b60006040518083038185875af1925050503d8060008114612399576040519150601f19603f3d011682016040523d82523d6000602084013e61239e565b606091505b50915091506121dd8783838761246b565b60008115806123d3575082826123c5818361356d565b92506123d19083613584565b145b61152d5760405162461bcd60e51b815260206004820152601460248201527364732d6d6174682d6d756c2d6f766572666c6f7760601b60448201526064016104a5565b60008261242383826135a6565b915081101561152d5760405162461bcd60e51b815260206004820152601460248201527364732d6d6174682d6164642d6f766572666c6f7760601b60448201526064016104a5565b606083156124da5782516000036124d3576001600160a01b0385163b6124d35760405162461bcd60e51b815260206004820152601d60248201527f416464726573733a2063616c6c20746f206e6f6e2d636f6e747261637400000060448201526064016104a5565b5081611ff5565b611ff583838151156124ef5781518083602001fd5b8060405162461bcd60e51b81526004016104a59190613743565b634e487b7160e01b600052604160045260246000fd5b60405161016081016001600160401b038111828210171561254257612542612509565b60405290565b604051608081016001600160401b038111828210171561254257612542612509565b604051606081016001600160401b038111828210171561254257612542612509565b604051601f8201601f191681016001600160401b03811182821017156125b4576125b4612509565b604052919050565b803561ffff811681146125ce57600080fd5b919050565b6001600160a01b03811681146125e857600080fd5b50565b80356125ce816125d3565b6000610160828403121561260957600080fd5b61261161251f565b905061261c826125bc565b815261262a602083016125eb565b602082015260408201356040820152606082013560608201526080820135608082015260a082013560a082015260c082013560c082015261266d60e083016125eb565b60e08201526101006126808184016125eb565b9082015261012082810135908201526101409182013591810191909152919050565b60006001600160401b038211156126bb576126bb612509565b50601f01601f191660200190565b600082601f8301126126da57600080fd5b81356126ed6126e8826126a2565b61258c565b81815284602083860101111561270257600080fd5b816020850160208301376000918101602001919091529392505050565b600080610180838503121561273357600080fd5b61273d84846125f6565b91506101608301356001600160401b0381111561275957600080fd5b612765858286016126c9565b9150509250929050565b60008060008060008060c0878903121561278857600080fd5b612791876125bc565b955060208701356001600160401b03808211156127ad57600080fd5b6127b98a838b016126c9565b965060408901359550606089013591506127d2826125d3565b9093506080880135925060a088013590808211156127ef57600080fd5b506127fc89828a016126c9565b9150509295509295509295565b60008083601f84011261281b57600080fd5b5081356001600160401b0381111561283257600080fd5b6020830191508360208260051b85010111156122d857600080fd5b6000806000806040858703121561286357600080fd5b84356001600160401b038082111561287a57600080fd5b61288688838901612809565b9096509450602087013591508082111561289f57600080fd5b506128ac87828801612809565b95989497509550505050565b60609190911b6001600160601b031916815260140190565b60005b838110156128eb5781810151838201526020016128d3565b50506000910152565b6000815180845261290c8160208601602086016128d0565b601f01601f19169290920160200192915050565b80518252602081015160208301526000604082015160606040850152611ff560608501826128f4565b61ffff8616815260ff8516602082015260a06040820152600061296f60a08301866128f4565b828103606084015261298181866128f4565b905082810360808401526129958185612920565b98975050505050505050565b600080604083850312156129b457600080fd5b505080516020909101519092909150565b634e487b7160e01b600052601160045260246000fd5b8181038181111561152d5761152d6129c5565b60006001600160401b03821115612a0757612a07612509565b5060051b60200190565b60ff811681146125e857600080fd5b600082601f830112612a3157600080fd5b81516020612a416126e8836129ee565b82815260059290921b84018101918181019086841115612a6057600080fd5b8286015b84811015612adb5780516001600160401b03811115612a835760008081fd5b8701603f81018913612a955760008081fd5b848101516040612aa76126e8836126a2565b8281528b82848601011115612abc5760008081fd5b612acb838983018487016128d0565b8652505050918301918301612a64565b509695505050505050565b600080600060608486031215612afb57600080fd5b8351612b06816125d3565b809350506020808501516001600160401b0380821115612b2557600080fd5b818701915087601f830112612b3957600080fd5b8151612b476126e8826129ee565b81815260059190911b8301840190848101908a831115612b6657600080fd5b938501935b82851015612b8d578451612b7e81612a11565b82529385019390850190612b6b565b60408a01519097509450505080831115612ba657600080fd5b5050612bb486828701612a20565b9150509250925092565b600081518084526020808501945080840160005b83811015612bf157815160ff1687529582019590820190600101612bd2565b509495945050505050565b6000815180845260208085019450848260051b860182860160005b85811015612c41578383038952612c2f8383516128f4565b98850198925090840190600101612c17565b5090979650505050505050565b604081526000612c616040830185612bbe565b8281036020840152612c738185612bfc565b95945050505050565b634e487b7160e01b600052603260045260246000fd5b600060208284031215612ca457600080fd5b8135612caf81612a11565b9392505050565b6000808335601e19843603018112612ccd57600080fd5b8301803591506001600160401b03821115612ce757600080fd5b6020019150368190038213156122d857600080fd5b600082601f830112612d0d57600080fd5b81356020612d1d6126e8836129ee565b82815260059290921b84018101918181019086841115612d3c57600080fd5b8286015b84811015612adb578035612d53816125d3565b8352918301918301612d40565b600082601f830112612d7157600080fd5b81356020612d816126e8836129ee565b82815260059290921b84018101918181019086841115612da057600080fd5b8286015b84811015612adb5780358352918301918301612da4565b60008060408385031215612dce57600080fd5b82356001600160401b0380821115612de557600080fd5b612df186838701612cfc565b93506020850135915080821115612e0757600080fd5b5061276585828601612d60565b600060018201612e2657612e266129c5565b5060010190565b600060208284031215612e3f57600080fd5b5035919050565b80151581146125e857600080fd5b60006020808385031215612e6757600080fd5b82356001600160401b0380821115612e7e57600080fd5b818501915085601f830112612e9257600080fd5b8135612ea06126e8826129ee565b81815260059190911b83018401908481019088831115612ebf57600080fd5b8585015b83811015612f5457803585811115612eda57600080fd5b86016080818c03601f19011215612ef15760008081fd5b612ef9612548565b8882013581526040808301358a83015260608084013589811115612f1d5760008081fd5b612f2b8f8d83880101612cfc565b838501525060808401359350612f4084612e46565b820192909252845250918601918601612ec3565b5098975050505050505050565b60008060408385031215612f7457600080fd5b8235612f7f816125d3565b946020939093013593505050565b600060208284031215612f9f57600080fd5b5051919050565b60006020808385031215612fb957600080fd5b82356001600160401b03811115612fcf57600080fd5b8301601f81018513612fe057600080fd5b8035612fee6126e8826129ee565b8181526060918202830184019184820191908884111561300d57600080fd5b938501935b838510156130695780858a03121561302a5760008081fd5b61303261256a565b853561303d816125d3565b81528587013561304c816125d3565b818801526040868101359082015283529384019391850191613012565b50979650505050505050565b6000602080838503121561308857600080fd5b82356001600160401b038082111561309f57600080fd5b818501915085601f8301126130b357600080fd5b81356130c16126e8826129ee565b81815260059190911b830184019084810190888311156130e057600080fd5b8585015b83811015612f54578035858111156130fb57600080fd5b86016080818c03601f190112156131125760008081fd5b61311a612548565b8882013581526040808301358a8301526060808401358981111561313e5760008081fd5b61314c8f8d83880101612d60565b838501525060808401359150888211156131665760008081fd5b6131748e8c84870101612cfc565b90830152508452509186019186016130e4565b600060c082018883526020888185015260c0604085015281885180845260e086019150828a01935060005b818110156131ce578451835293830193918301916001016131b2565b50508481036060860152875180825290820192508188019060005b8181101561320e5782516001600160a01b0316855293830193918301916001016131e9565b505050506001600160a01b039490941660808301525060a00152949350505050565b6000602080838503121561324357600080fd5b82356001600160401b038082111561325a57600080fd5b818501915085601f83011261326e57600080fd5b813561327c6126e8826129ee565b81815260059190911b8301840190848101908883111561329b57600080fd5b8585015b83811015612f54578035858111156132b657600080fd5b86016080818c03601f190112156132cd5760008081fd5b6132d5612548565b8882013581526040808301358a830152606080840135898111156132f95760008081fd5b6133078f8d83880101612cfc565b92840192909252608093909301359282019290925284525091860191860161329f565b600060a082018783526020878185015260a0604085015281875180845260c086019150828901935060005b8181101561337a5784516001600160a01b031683529383019391830191600101613355565b50506001600160a01b03969096166060850152505050608001529392505050565b600060208083850312156133ae57600080fd5b82516001600160401b038111156133c457600080fd5b8301601f810185136133d557600080fd5b80516133e36126e8826129ee565b81815260059190911b8201830190838101908783111561340257600080fd5b928401925b828410156121dd57835182529284019290840190613407565b600082601f83011261343157600080fd5b813560206134416126e8836129ee565b82815260059290921b8401810191818101908684111561346057600080fd5b8286015b84811015612adb5780356001600160401b038111156134835760008081fd5b6134918986838b01016126c9565b845250918301918301613464565b60008060006101a084860312156134b557600080fd5b6134bf85856125f6565b92506101608401356001600160401b03808211156134dc57600080fd5b818601915086601f8301126134f057600080fd5b813560206135006126e8836129ee565b82815260059290921b8401810191818101908a84111561351f57600080fd5b948201945b8386101561354657853561353781612a11565b82529482019490820190613524565b965050505061018086013591508082111561356057600080fd5b50612bb486828701613420565b808202811582820484141761152d5761152d6129c5565b6000826135a157634e487b7160e01b600052601260045260246000fd5b500490565b8082018082111561152d5761152d6129c5565b6001600160a01b03841681526060602082018190526000906135dd90830185612bbe565b82810360408401526135ef8185612bfc565b9695505050505050565b60006020828403121561360b57600080fd5b8151612caf81612e46565b600061012061ffff8c1683528a602084015289604084015260018060a01b03891660608401528760808401528660a08401528060c084015261365a81840187612920565b905082810360e084015261366e81866128f4565b905082810361010084015261368381856128f4565b9c9b505050505050505050505050565b84815283602082015260018060a01b03831660408201526080606082015260006135ef60808301846128f4565b80516001600160701b03811681146125ce57600080fd5b6000806000606084860312156136ec57600080fd5b6136f5846136c0565b9250613703602085016136c0565b9150604084015163ffffffff8116811461371c57600080fd5b809150509250925092565b600082516137398184602087016128d0565b9190910192915050565b602081526000612caf60208301846128f456fea2646970667358221220a25a09bbfa07257e810a5e855588d099d5bf2069b8154786325cc27a2857d1e964736f6c63430008110033",
    "linkReferences": {}
  },
  "methodIdentifiers": {
    "avaxSwaps(uint8[],bytes[])": "b2817fd5",
    "factory()": "c45a0155",
    "feeCollector()": "c415b95c",
    "getFee((uint16,address,uint256,uint256,uint256,uint256,uint256,address,address,uint256,bytes32),bytes)": "4285f6e4",
    "pairCodeHash()": "9aab9248",
    "sgReceive(uint16,bytes,uint256,address,uint256,bytes)": "ab8236f3",
    "stargateRouter()": "a9e56f3c"
  },
  "id": 34
}