{
  "abi": [
    {
      "inputs": [
        {
          "internalType": "contract IWETH9",
          "name": "_weth",
          "type": "address"
        },
        {
          "internalType": "address",
          "name": "_joeRouter",
          "type": "address"
        },
        {
          "internalType": "address",
          "name": "_feeCollector",
          "type": "address"
        },
        {
          "internalType": "address",
          "name": "_factory",
          "type": "address"
        },
        {
          "internalType": "bytes32",
          "name": "_pairCodeHash",
          "type": "bytes32"
        },
        {
          "internalType": "contract IStargateRouter",
          "name": "_stargateRouter",
          "type": "address"
        }
      ],
      "stateMutability": "nonpayable",
      "type": "constructor"
    },
    {
      "inputs": [],
      "name": "MoreThanZero",
      "type": "error"
    },
    {
      "inputs": [],
      "name": "MustBeGt0",
      "type": "error"
    },
    {
      "inputs": [],
      "name": "NotStgRouter",
      "type": "error"
    },
    {
      "inputs": [],
      "name": "WithdrawFailed",
      "type": "error"
    },
    {
      "anonymous": false,
      "inputs": [
        {
          "indexed": false,
          "internalType": "address",
          "name": "_token",
          "type": "address"
        },
        {
          "indexed": false,
          "internalType": "uint256",
          "name": "_fee",
          "type": "uint256"
        }
      ],
      "name": "FeePaid",
      "type": "event"
    },
    {
      "anonymous": false,
      "inputs": [
        {
          "indexed": true,
          "internalType": "address",
          "name": "token",
          "type": "address"
        },
        {
          "indexed": false,
          "internalType": "uint256",
          "name": "amountLD",
          "type": "uint256"
        },
        {
          "indexed": false,
          "internalType": "bool",
          "name": "failed",
          "type": "bool"
        },
        {
          "indexed": false,
          "internalType": "bool",
          "name": "dustSent",
          "type": "bool"
        }
      ],
      "name": "ReceivedOnDestination",
      "type": "event"
    },
    {
      "inputs": [
        {
          "internalType": "uint8[]",
          "name": "steps",
          "type": "uint8[]"
        },
        {
          "internalType": "bytes[]",
          "name": "data",
          "type": "bytes[]"
        }
      ],
      "name": "avaxSwaps",
      "outputs": [],
      "stateMutability": "payable",
      "type": "function"
    },
    {
      "inputs": [],
      "name": "factory",
      "outputs": [
        {
          "internalType": "address",
          "name": "",
          "type": "address"
        }
      ],
      "stateMutability": "view",
      "type": "function"
    },
    {
      "inputs": [],
      "name": "feeCollector",
      "outputs": [
        {
          "internalType": "address",
          "name": "",
          "type": "address"
        }
      ],
      "stateMutability": "view",
      "type": "function"
    },
    {
      "inputs": [],
      "name": "pairCodeHash",
      "outputs": [
        {
          "internalType": "bytes32",
          "name": "",
          "type": "bytes32"
        }
      ],
      "stateMutability": "view",
      "type": "function"
    },
    {
      "inputs": [
        {
          "internalType": "uint16",
          "name": "",
          "type": "uint16"
        },
        {
          "internalType": "bytes",
          "name": "",
          "type": "bytes"
        },
        {
          "internalType": "uint256",
          "name": "",
          "type": "uint256"
        },
        {
          "internalType": "address",
          "name": "_token",
          "type": "address"
        },
        {
          "internalType": "uint256",
          "name": "amountLD",
          "type": "uint256"
        },
        {
          "internalType": "bytes",
          "name": "_payload",
          "type": "bytes"
        }
      ],
      "name": "sgReceive",
      "outputs": [],
      "stateMutability": "nonpayable",
      "type": "function"
    },
    {
      "inputs": [],
      "name": "stargateRouter",
      "outputs": [
        {
          "internalType": "contract IStargateRouter",
          "name": "",
          "type": "address"
        }
      ],
      "stateMutability": "view",
      "type": "function"
    },
    {
      "stateMutability": "payable",
      "type": "receive"
    }
  ],
  "bytecode": {
    "object": "0x6101006040523480156200001257600080fd5b5060405162002cf538038062002cf583398101604081905262000035916200008b565b600080546001600160a01b0319166001600160a01b03948516179055600191909155811660805292831660a05290821660c0521660e05262000113565b6001600160a01b03811681146200008857600080fd5b50565b60008060008060008060c08789031215620000a557600080fd5b8651620000b28162000072565b6020880151909650620000c58162000072565b6040880151909550620000d88162000072565b6060880151909450620000eb8162000072565b608088015160a08901519194509250620001058162000072565b809150509295509295509295565b60805160a05160c05160e051612b786200017d6000396000818161012101526108e1015260008181610a180152610aa70152600081816104c00152818161062201526106b501526000818160a00152818161016e01528181610f8b0152610fb20152612b786000f3fe6080604052600436106100595760003560e01c80639aab924814610065578063a9e56f3c1461008e578063ab8236f3146100da578063b2817fd5146100fc578063c415b95c1461010f578063c45a01551461014357600080fd5b3661006057005b600080fd5b34801561007157600080fd5b5061007b60015481565b6040519081526020015b60405180910390f35b34801561009a57600080fd5b506100c27f000000000000000000000000000000000000000000000000000000000000000081565b6040516001600160a01b039091168152602001610085565b3480156100e657600080fd5b506100fa6100f5366004611d10565b610163565b005b6100fa61010a366004611dee565b610330565b34801561011b57600080fd5b506100c27f000000000000000000000000000000000000000000000000000000000000000081565b34801561014f57600080fd5b506000546100c2906001600160a01b031681565b336001600160a01b037f000000000000000000000000000000000000000000000000000000000000000016146101ac57604051638afe477f60e01b815260040160405180910390fd5b6000806000838060200190518101906101c59190611f75565b9250925092506000306001600160a01b031663b2817fd562030d4085856040518463ffffffff1660e01b81526004016101ff92919061210c565b600060405180830381600088803b15801561021957600080fd5b5087f19350505050801561022b575060015b610279573d808015610259576040519150601f19603f3d011682016040523d82523d6000602084013e61025e565b606091505b506102736001600160a01b0389168689610be4565b60019150505b600047156102d5576040516001600160a01b038616904790600081818185875af1925050503d80600081146102ca576040519150601f19603f3d011682016040523d82523d6000602084013e6102cf565b606091505b50909150505b6040805188815283151560208201528215158183015290516001600160a01b038a16917f7f345d6da48bd1339fd428ff45265a0f01258b14ca09dcf8db0c469f4f732fd3919081900360600190a25050505050505050505050565b60005b83811015610bdd57600085858381811061034f5761034f61213a565b90506020020160208101906103649190612150565b905060001960ff82160161045c576000808585858181106103875761038761213a565b90506020028101906103999190612174565b8101906103a6919061221e565b9150915060005b82518110156104545760008282815181106103ca576103ca61213a565b6020026020010151116103f05760405163fe4155c760e01b815260040160405180910390fd5b61044233308484815181106104075761040761213a565b60200260200101518685815181106104215761042161213a565b60200260200101516001600160a01b0316610c4c909392919063ffffffff16565b8061044c816122ee565b9150506103ad565b505050610bca565b60011960ff82160161053857600084848481811061047c5761047c61213a565b905060200281019061048e9190612174565b81019061049b9190612307565b9050600081116104be5760405163fe4155c760e01b815260040160405180910390fd5b7f00000000000000000000000000000000000000000000000000000000000000006001600160a01b031663d0e30db0826040518263ffffffff1660e01b81526004016000604051808303818588803b15801561051957600080fd5b505af115801561052d573d6000803e3d6000fd5b505050505050610bca565b60041960ff8216016105c15760008484848181106105585761055861213a565b905060200281019061056a9190612174565b810190610577919061232e565b905060005b81518110156105ba576105a782828151811061059a5761059a61213a565b6020026020010151610c8a565b50806105b2816122ee565b91505061057c565b5050610bca565b60061960ff82160161078d576000808585858181106105e2576105e261213a565b90506020028101906105f49190612174565b810190610601919061243b565b915091508060000361069a576040516370a0823160e01b81523060048201527f00000000000000000000000000000000000000000000000000000000000000006001600160a01b0316906370a0823190602401602060405180830381865afa158015610671573d6000803e3d6000fd5b505050506040513d601f19601f820116820180604052508101906106959190612467565b61069c565b805b604051632e1a7d4d60e01b8152600481018290529091507f00000000000000000000000000000000000000000000000000000000000000006001600160a01b031690632e1a7d4d90602401600060405180830381600087803b15801561070157600080fd5b505af1158015610715573d6000803e3d6000fd5b505050506000826001600160a01b03168260405160006040518083038185875af1925050503d8060008114610766576040519150601f19603f3d011682016040523d82523d6000602084013e61076b565b606091505b505090508061045457604051631d42c86760e21b815260040160405180910390fd5b60071960ff8216016109735760008484848181106107ad576107ad61213a565b90506020028101906107bf9190612174565b8101906107cc9190612480565b905060005b81518110156105ba5760008282815181106107ee576107ee61213a565b602002602001015160000151905060008383815181106108105761081061213a565b602002602001015160400151905080600003610893576040516370a0823160e01b81523060048201526001600160a01b038316906370a0823190602401602060405180830381865afa15801561086a573d6000803e3d6000fd5b505050506040513d601f19601f8201168201806040525081019061088e9190612467565b610895565b805b905060008484815181106108ab576108ab61213a565b602002602001015160200151905060006108c483610e6f565b90506108d0818461254f565b92506109066001600160a01b0385167f000000000000000000000000000000000000000000000000000000000000000083610be4565b61091a6001600160a01b0385168385610be4565b604080516001600160a01b0386168152602081018390527f075a2720282fdf622141dae0b048ef90a21a7e57c134c76912d19d006b3b3f6f910160405180910390a150505050808061096b906122ee565b9150506107d1565b60081960ff8216016109c65760008060008686868181106109965761099661213a565b90506020028101906109a89190612174565b8101906109b59190612645565b925092509250610454838383610e9a565b60091960ff821601610bca5760008484848181106109e6576109e661213a565b90506020028101906109f89190612174565b810190610a059190612748565b905060005b8151811015610bc757610aa57f0000000000000000000000000000000000000000000000000000000000000000838381518110610a4957610a4961213a565b602002602001015160000151848481518110610a6757610a6761213a565b602002602001015160400151600081518110610a8557610a8561213a565b60200260200101516001600160a01b03166110e89092919063ffffffff16565b7f00000000000000000000000000000000000000000000000000000000000000006001600160a01b03166338ed1739838381518110610ae657610ae661213a565b602002602001015160000151848481518110610b0457610b0461213a565b602002602001015160200151858581518110610b2257610b2261213a565b60200260200101516040015130878781518110610b4157610b4161213a565b6020026020010151606001516040518663ffffffff1660e01b8152600401610b6d959493929190612842565b6000604051808303816000875af1158015610b8c573d6000803e3d6000fd5b505050506040513d6000823e601f3d908101601f19168201604052610bb491908101906128b3565b5080610bbf816122ee565b915050610a0a565b50505b5080610bd5816122ee565b915050610333565b5050505050565b6040516001600160a01b038316602482015260448101829052610c4790849063a9059cbb60e01b906064015b60408051601f198184030181529190526020810180516001600160e01b03166001600160e01b03199093169290921790915261119a565b505050565b6040516001600160a01b0380851660248301528316604482015260648101829052610c849085906323b872dd60e01b90608401610c10565b50505050565b60008054825160408401516001548493610cb1936001600160a01b0390911692909161126c565b90508060018251610cc2919061254f565b81518110610cd257610cd261213a565b602002602001015191508260200151821015610d355760405162461bcd60e51b815260206004820152601760248201527f696e73756666696369656e742d616d6f756e742d6f757400000000000000000060448201526064015b60405180910390fd5b826060015115610e5a576000805460408501518051610e5a93610d98936001600160a01b03169291610d6957610d6961213a565b60200260200101518660400151600181518110610d8857610d8861213a565b60200260200101516001546113f8565b8460400151600081518110610daf57610daf61213a565b60209081029190910101516040516370a0823160e01b81523060048201526001600160a01b03909116906370a0823190602401602060405180830381865afa158015610dff573d6000803e3d6000fd5b505050506040513d601f19601f82011682018060405250810190610e239190612467565b8560400151600081518110610e3a57610e3a61213a565b60200260200101516001600160a01b0316610be49092919063ffffffff16565b610e69818460400151306114ac565b50919050565b6000612710610e808361270b612938565b610e8a919061294f565b610e94908361254f565b92915050565b60003411610ebb5760405163c9935ff960e01b815260040160405180910390fd5b60008361010001518383604051602001610ed793929190612971565b60405160208183030381529060405290508360800151600003610f675760208401516040516370a0823160e01b81523060048201526001600160a01b03909116906370a0823190602401602060405180830381865afa158015610f3e573d6000803e3d6000fd5b505050506040513d601f19601f82011682018060405250810190610f629190612467565b610f6d565b83608001515b608085018190526020850151610fb0916001600160a01b03909116907f0000000000000000000000000000000000000000000000000000000000000000906110e8565b7f00000000000000000000000000000000000000000000000000000000000000006001600160a01b0316639fbf10fc47866000015187604001518860600151308a608001518b60a0015160405180606001604052808e610120015181526020018e60c0015181526020018e60e00151604051602001611042919060609190911b6001600160601b031916815260140190565b6040516020818303038152906040528152508d60e0015160405160200161107c919060609190911b6001600160601b031916815260140190565b6040516020818303038152906040528b6040518b63ffffffff1660e01b81526004016110b0999897969594939291906129b1565b6000604051808303818588803b1580156110c957600080fd5b505af11580156110dd573d6000803e3d6000fd5b505050505050505050565b604051636eb1769f60e11b81523060048201526001600160a01b038381166024830152600091839186169063dd62ed3e90604401602060405180830381865afa158015611139573d6000803e3d6000fd5b505050506040513d601f19601f8201168201806040525081019061115d9190612467565b6111679190612a4f565b6040516001600160a01b038516602482015260448101829052909150610c8490859063095ea7b360e01b90606401610c10565b60006111ef826040518060400160405280602081526020017f5361666545524332303a206c6f772d6c6576656c2063616c6c206661696c6564815250856001600160a01b03166116839092919063ffffffff16565b805190915015610c47578080602001905181019061120d9190612a62565b610c475760405162461bcd60e51b815260206004820152602a60248201527f5361666545524332303a204552433230206f7065726174696f6e20646964206e6044820152691bdd081cdd58d8d9595960b21b6064820152608401610d2c565b60606002835110156112c05760405162461bcd60e51b815260206004820152601e60248201527f556e697377617056324c6962726172793a20494e56414c49445f5041544800006044820152606401610d2c565b82516001600160401b038111156112d9576112d9611bbd565b604051908082528060200260200182016040528015611302578160200160208202803683370190505b50905083816000815181106113195761131961213a565b60200260200101818152505060005b60018451611336919061254f565b8110156113ef5760008061138a888785815181106113565761135661213a565b60200260200101518886600161136c9190612a4f565b8151811061137c5761137c61213a565b60200260200101518861169a565b915091506113b28484815181106113a3576113a361213a565b60200260200101518383611766565b846113be856001612a4f565b815181106113ce576113ce61213a565b602002602001018181525050505080806113e7906122ee565b915050611328565b50949350505050565b60008060006114078686611885565b6040516001600160601b0319606084811b8216602084015283901b166034820152919350915087906048016040516020818303038152906040528051906020012085604051602001611489939291906001600160f81b0319815260609390931b6001600160601b03191660018401526015830191909152603582015260550190565b60408051601f198184030181529190528051602090910120979650505050505050565b60005b600183516114bd919061254f565b811015610c84576000808483815181106114d9576114d961213a565b6020026020010151858460016114ef9190612a4f565b815181106114ff576114ff61213a565b60200260200101519150915060006115178383611885565b509050600087611528866001612a4f565b815181106115385761153861213a565b60200260200101519050600080836001600160a01b0316866001600160a01b0316146115665782600061156a565b6000835b91509150600060028a5161157e919061254f565b881061158a57886115b7565b6000546115b7906001600160a01b0316878c6115a78c6002612a4f565b81518110610d8857610d8861213a565b90506115da60008054906101000a90046001600160a01b031688886001546113f8565b6001600160a01b031663022c0d9f84848460006040519080825280601f01601f191660200182016040528015611617576020820181803683370190505b506040518563ffffffff1660e01b81526004016116379493929190612a7f565b600060405180830381600087803b15801561165157600080fd5b505af1158015611665573d6000803e3d6000fd5b5050505050505050505050808061167b906122ee565b9150506114af565b6060611692848460008561197c565b949350505050565b60008060006116a98686611885565b5090506000806116bb898989896113f8565b6001600160a01b0316630902f1ac6040518163ffffffff1660e01b8152600401606060405180830381865afa1580156116f8573d6000803e3d6000fd5b505050506040513d601f19601f8201168201806040525081019061171c9190612ac3565b506001600160701b031691506001600160701b03169150826001600160a01b0316886001600160a01b031614611753578082611756565b81815b909a909950975050505050505050565b60008084116117cb5760405162461bcd60e51b815260206004820152602b60248201527f556e697377617056324c6962726172793a20494e53554646494349454e545f4960448201526a1394155517d05353d5539560aa1b6064820152608401610d2c565b6000831180156117db5750600082115b6118385760405162461bcd60e51b815260206004820152602860248201527f556e697377617056324c6962726172793a20494e53554646494349454e545f4c604482015267495155494449545960c01b6064820152608401610d2c565b6000611846856103e5611a4c565b905060006118548285611a4c565b9050600061186e83611868886103e8611a4c565b90611ab3565b905061187a818361294f565b979650505050505050565b600080826001600160a01b0316846001600160a01b0316036118f75760405162461bcd60e51b815260206004820152602560248201527f556e697377617056324c6962726172793a204944454e544943414c5f41444452604482015264455353455360d81b6064820152608401610d2c565b826001600160a01b0316846001600160a01b03161061191757828461191a565b83835b90925090506001600160a01b0382166119755760405162461bcd60e51b815260206004820152601e60248201527f556e697377617056324c6962726172793a205a45524f5f4144445245535300006044820152606401610d2c565b9250929050565b6060824710156119dd5760405162461bcd60e51b815260206004820152602660248201527f416464726573733a20696e73756666696369656e742062616c616e636520666f6044820152651c8818d85b1b60d21b6064820152608401610d2c565b600080866001600160a01b031685876040516119f99190612b13565b60006040518083038185875af1925050503d8060008114611a36576040519150601f19603f3d011682016040523d82523d6000602084013e611a3b565b606091505b509150915061187a87838387611b08565b6000811580611a7057508282611a628183612938565b9250611a6e908361294f565b145b610e945760405162461bcd60e51b815260206004820152601460248201527364732d6d6174682d6d756c2d6f766572666c6f7760601b6044820152606401610d2c565b600082611ac08382612a4f565b9150811015610e945760405162461bcd60e51b815260206004820152601460248201527364732d6d6174682d6164642d6f766572666c6f7760601b6044820152606401610d2c565b60608315611b77578251600003611b70576001600160a01b0385163b611b705760405162461bcd60e51b815260206004820152601d60248201527f416464726573733a2063616c6c20746f206e6f6e2d636f6e74726163740000006044820152606401610d2c565b5081611692565b6116928383815115611b8c5781518083602001fd5b8060405162461bcd60e51b8152600401610d2c9190612b2f565b803561ffff81168114611bb857600080fd5b919050565b634e487b7160e01b600052604160045260246000fd5b604051608081016001600160401b0381118282101715611bf557611bf5611bbd565b60405290565b604051606081016001600160401b0381118282101715611bf557611bf5611bbd565b60405161016081016001600160401b0381118282101715611bf557611bf5611bbd565b604051601f8201601f191681016001600160401b0381118282101715611c6857611c68611bbd565b604052919050565b60006001600160401b03821115611c8957611c89611bbd565b50601f01601f191660200190565b600082601f830112611ca857600080fd5b8135611cbb611cb682611c70565b611c40565b818152846020838601011115611cd057600080fd5b816020850160208301376000918101602001919091529392505050565b6001600160a01b0381168114611d0257600080fd5b50565b8035611bb881611ced565b60008060008060008060c08789031215611d2957600080fd5b611d3287611ba6565b955060208701356001600160401b0380821115611d4e57600080fd5b611d5a8a838b01611c97565b96506040890135955060608901359150611d7382611ced565b9093506080880135925060a08801359080821115611d9057600080fd5b50611d9d89828a01611c97565b9150509295509295509295565b60008083601f840112611dbc57600080fd5b5081356001600160401b03811115611dd357600080fd5b6020830191508360208260051b850101111561197557600080fd5b60008060008060408587031215611e0457600080fd5b84356001600160401b0380821115611e1b57600080fd5b611e2788838901611daa565b90965094506020870135915080821115611e4057600080fd5b50611e4d87828801611daa565b95989497509550505050565b60006001600160401b03821115611e7257611e72611bbd565b5060051b60200190565b60ff81168114611d0257600080fd5b60005b83811015611ea6578181015183820152602001611e8e565b50506000910152565b600082601f830112611ec057600080fd5b81516020611ed0611cb683611e59565b82815260059290921b84018101918181019086841115611eef57600080fd5b8286015b84811015611f6a5780516001600160401b03811115611f125760008081fd5b8701603f81018913611f245760008081fd5b848101516040611f36611cb683611c70565b8281528b82848601011115611f4b5760008081fd5b611f5a83898301848701611e8b565b8652505050918301918301611ef3565b509695505050505050565b600080600060608486031215611f8a57600080fd5b8351611f9581611ced565b809350506020808501516001600160401b0380821115611fb457600080fd5b818701915087601f830112611fc857600080fd5b8151611fd6611cb682611e59565b81815260059190911b8301840190848101908a831115611ff557600080fd5b938501935b8285101561201c57845161200d81611e7c565b82529385019390850190611ffa565b60408a0151909750945050508083111561203557600080fd5b505061204386828701611eaf565b9150509250925092565b600081518084526020808501945080840160005b8381101561208057815160ff1687529582019590820190600101612061565b509495945050505050565b600081518084526120a3816020860160208601611e8b565b601f01601f19169290920160200192915050565b600081518084526020808501808196508360051b8101915082860160005b858110156120ff5782840389526120ed84835161208b565b988501989350908401906001016120d5565b5091979650505050505050565b60408152600061211f604083018561204d565b828103602084015261213181856120b7565b95945050505050565b634e487b7160e01b600052603260045260246000fd5b60006020828403121561216257600080fd5b813561216d81611e7c565b9392505050565b6000808335601e1984360301811261218b57600080fd5b8301803591506001600160401b038211156121a557600080fd5b60200191503681900382131561197557600080fd5b600082601f8301126121cb57600080fd5b813560206121db611cb683611e59565b82815260059290921b840181019181810190868411156121fa57600080fd5b8286015b84811015611f6a57803561221181611ced565b83529183019183016121fe565b6000806040838503121561223157600080fd5b82356001600160401b038082111561224857600080fd5b612254868387016121ba565b935060209150818501358181111561226b57600080fd5b85019050601f8101861361227e57600080fd5b803561228c611cb682611e59565b81815260059190911b820183019083810190888311156122ab57600080fd5b928401925b828410156122c9578335825292840192908401906122b0565b80955050505050509250929050565b634e487b7160e01b600052601160045260246000fd5b600060018201612300576123006122d8565b5060010190565b60006020828403121561231957600080fd5b5035919050565b8015158114611d0257600080fd5b6000602080838503121561234157600080fd5b82356001600160401b038082111561235857600080fd5b818501915085601f83011261236c57600080fd5b813561237a611cb682611e59565b81815260059190911b8301840190848101908883111561239957600080fd5b8585015b8381101561242e578035858111156123b457600080fd5b86016080818c03601f190112156123cb5760008081fd5b6123d3611bd3565b8882013581526040808301358a830152606080840135898111156123f75760008081fd5b6124058f8d838801016121ba565b83850152506080840135935061241a84612320565b82019290925284525091860191860161239d565b5098975050505050505050565b6000806040838503121561244e57600080fd5b823561245981611ced565b946020939093013593505050565b60006020828403121561247957600080fd5b5051919050565b6000602080838503121561249357600080fd5b82356001600160401b038111156124a957600080fd5b8301601f810185136124ba57600080fd5b80356124c8611cb682611e59565b818152606091820283018401918482019190888411156124e757600080fd5b938501935b838510156125435780858a0312156125045760008081fd5b61250c611bfb565b853561251781611ced565b81528587013561252681611ced565b8188015260408681013590820152835293840193918501916124ec565b50979650505050505050565b81810381811115610e9457610e946122d8565b600082601f83011261257357600080fd5b81356020612583611cb683611e59565b82815260059290921b840181019181810190868411156125a257600080fd5b8286015b84811015611f6a5780356125b981611e7c565b83529183019183016125a6565b600082601f8301126125d757600080fd5b813560206125e7611cb683611e59565b82815260059290921b8401810191818101908684111561260657600080fd5b8286015b84811015611f6a5780356001600160401b038111156126295760008081fd5b6126378986838b0101611c97565b84525091830191830161260a565b60008060008385036101a081121561265c57600080fd5b6101608082121561266c57600080fd5b612674611c1d565b915061267f86611ba6565b825261268d60208701611d05565b602083015260408601356040830152606086013560608301526080860135608083015260a086013560a083015260c086013560c08301526126d060e08701611d05565b60e08301526101006126e3818801611d05565b90830152610120868101359083015261014080870135908301529093508401356001600160401b038082111561271857600080fd5b61272487838801612562565b935061018086013591508082111561273b57600080fd5b50612043868287016125c6565b6000602080838503121561275b57600080fd5b82356001600160401b038082111561277257600080fd5b818501915085601f83011261278657600080fd5b8135612794611cb682611e59565b81815260059190911b830184019084810190888311156127b357600080fd5b8585015b8381101561242e578035858111156127ce57600080fd5b86016080818c03601f190112156127e55760008081fd5b6127ed611bd3565b8882013581526040808301358a830152606080840135898111156128115760008081fd5b61281f8f8d838801016121ba565b9284019290925260809390930135928201929092528452509186019186016127b7565b600060a082018783526020878185015260a0604085015281875180845260c086019150828901935060005b818110156128925784516001600160a01b03168352938301939183019160010161286d565b50506001600160a01b03969096166060850152505050608001529392505050565b600060208083850312156128c657600080fd5b82516001600160401b038111156128dc57600080fd5b8301601f810185136128ed57600080fd5b80516128fb611cb682611e59565b81815260059190911b8201830190838101908783111561291a57600080fd5b928401925b8284101561187a5783518252928401929084019061291f565b8082028115828204841417610e9457610e946122d8565b60008261296c57634e487b7160e01b600052601260045260246000fd5b500490565b6001600160a01b03841681526060602082018190526000906129959083018561204d565b82810360408401526129a781856120b7565b9695505050505050565b600061012061ffff8c1683528a602084015289604084015260018060a01b03891660608401528760808401528660a08401528060c084015285518184015250602085015161014083015260408501516060610160840152612a1661018084018261208b565b905082810360e0840152612a2a818661208b565b9050828103610100840152612a3f818561208b565b9c9b505050505050505050505050565b80820180821115610e9457610e946122d8565b600060208284031215612a7457600080fd5b815161216d81612320565b84815283602082015260018060a01b03831660408201526080606082015260006129a7608083018461208b565b80516001600160701b0381168114611bb857600080fd5b600080600060608486031215612ad857600080fd5b612ae184612aac565b9250612aef60208501612aac565b9150604084015163ffffffff81168114612b0857600080fd5b809150509250925092565b60008251612b25818460208701611e8b565b9190910192915050565b60208152600061216d602083018461208b56fea2646970667358221220a3bc7d96863584d910f503138c273c0eb21b50374b53978bf75e0222af8b505b64736f6c63430008110033",
    "linkReferences": {}
  },
  "methodIdentifiers": {
    "avaxSwaps(uint8[],bytes[])": "b2817fd5",
    "factory()": "c45a0155",
    "feeCollector()": "c415b95c",
    "pairCodeHash()": "9aab9248",
    "sgReceive(uint16,bytes,uint256,address,uint256,bytes)": "ab8236f3",
    "stargateRouter()": "a9e56f3c"
  },
  "id": 35
}