{
  "abi": [
    {
      "inputs": [
        {
          "internalType": "contract IStargateRouter",
          "name": "_stargateRouter",
          "type": "address"
        }
      ],
      "stateMutability": "nonpayable",
      "type": "constructor"
    },
    {
      "inputs": [],
      "name": "NotStgRouter",
      "type": "error"
    },
    {
      "anonymous": false,
      "inputs": [
        {
          "indexed": true,
          "internalType": "address",
          "name": "token",
          "type": "address"
        },
        {
          "indexed": false,
          "internalType": "uint256",
          "name": "amountLD",
          "type": "uint256"
        },
        {
          "indexed": false,
          "internalType": "bool",
          "name": "failed",
          "type": "bool"
        }
      ],
      "name": "ReceivedOnDestination",
      "type": "event"
    },
    {
      "inputs": [],
      "name": "feeCollector",
      "outputs": [
        {
          "internalType": "address",
          "name": "",
          "type": "address"
        }
      ],
      "stateMutability": "view",
      "type": "function"
    },
    {
      "inputs": [
        {
          "internalType": "uint16",
          "name": "",
          "type": "uint16"
        },
        {
          "internalType": "bytes",
          "name": "",
          "type": "bytes"
        },
        {
          "internalType": "uint256",
          "name": "",
          "type": "uint256"
        },
        {
          "internalType": "address",
          "name": "_token",
          "type": "address"
        },
        {
          "internalType": "uint256",
          "name": "amountLD",
          "type": "uint256"
        },
        {
          "internalType": "bytes",
          "name": "_payload",
          "type": "bytes"
        }
      ],
      "name": "sgReceive",
      "outputs": [],
      "stateMutability": "nonpayable",
      "type": "function"
    },
    {
      "inputs": [],
      "name": "stargateRouter",
      "outputs": [
        {
          "internalType": "contract IStargateRouter",
          "name": "",
          "type": "address"
        }
      ],
      "stateMutability": "view",
      "type": "function"
    },
    {
      "inputs": [
        {
          "components": [
            {
              "internalType": "uint16",
              "name": "dstChainId",
              "type": "uint16"
            },
            {
              "internalType": "address",
              "name": "token",
              "type": "address"
            },
            {
              "internalType": "uint256",
              "name": "srcPoolId",
              "type": "uint256"
            },
            {
              "internalType": "uint256",
              "name": "dstPoolId",
              "type": "uint256"
            },
            {
              "internalType": "uint256",
              "name": "amount",
              "type": "uint256"
            },
            {
              "internalType": "uint256",
              "name": "amountMin",
              "type": "uint256"
            },
            {
              "internalType": "uint256",
              "name": "dustAmount",
              "type": "uint256"
            },
            {
              "internalType": "address",
              "name": "receiver",
              "type": "address"
            },
            {
              "internalType": "address",
              "name": "to",
              "type": "address"
            },
            {
              "internalType": "uint256",
              "name": "gas",
              "type": "uint256"
            },
            {
              "internalType": "bytes32",
              "name": "srcContext",
              "type": "bytes32"
            }
          ],
          "internalType": "struct StargateTestor.StargateParams",
          "name": "params",
          "type": "tuple"
        }
      ],
      "name": "stargateSwap",
      "outputs": [],
      "stateMutability": "payable",
      "type": "function"
    }
  ],
  "bytecode": {
    "object": "0x60c060405234801561001057600080fd5b50604051610b8e380380610b8e83398101604081905261002f91610044565b6001600160a01b03166080523360a052610074565b60006020828403121561005657600080fd5b81516001600160a01b038116811461006d57600080fd5b9392505050565b60805160a051610ae96100a5600039600060f301526000818160560152818161017f01526101c20152610ae96000f3fe60806040526004361061003f5760003560e01c8063a9e56f3c14610044578063ab8236f314610094578063c415b95c146100e1578063f473684a14610115575b600080fd5b34801561005057600080fd5b506100787f000000000000000000000000000000000000000000000000000000000000000081565b6040516001600160a01b03909116815260200160405180910390f35b3480156100a057600080fd5b506100df6100af3660046107e4565b505060408051808201909152601081526f3cb7ba903430bb32903634b33a37b33360811b60209091015250505050565b005b3480156100ed57600080fd5b506100787f000000000000000000000000000000000000000000000000000000000000000081565b6100df61012336600461087b565b61014b3330836080015184602001516001600160a01b031661035a909392919063ffffffff16565b610100810151604080516001600160a01b0390921660208301526000910160405160208183030381529060405290506101c07f0000000000000000000000000000000000000000000000000000000000000000836080015184602001516001600160a01b03166103cb9092919063ffffffff16565b7f00000000000000000000000000000000000000000000000000000000000000006001600160a01b0316639fbf10fc3484600001518560400151866060015133886080015160000361027f5760208901516040516370a0823160e01b81523060048201526001600160a01b03909116906370a0823190602401602060405180830381865afa158015610256573d6000803e3d6000fd5b505050506040513d601f19601f8201168201806040525081019061027a9190610926565b610285565b88608001515b8960a00151604051806060016040528062030d4081526020016000815260200160405180604001604052806002815260200161060f60f31b8152508152508b60e001516040516020016102f0919060609190911b6bffffffffffffffffffffffff1916815260140190565b6040516020818303038152906040528b6040518b63ffffffff1660e01b815260040161032499989796959493929190610997565b6000604051808303818588803b15801561033d57600080fd5b505af1158015610351573d6000803e3d6000fd5b50505050505050565b6040516001600160a01b03808516602483015283166044820152606481018290526103c59085906323b872dd60e01b906084015b60408051601f198184030181529190526020810180516001600160e01b03166001600160e01b03199093169290921790915261047d565b50505050565b604051636eb1769f60e11b81523060048201526001600160a01b038381166024830152600091839186169063dd62ed3e90604401602060405180830381865afa15801561041c573d6000803e3d6000fd5b505050506040513d601f19601f820116820180604052508101906104409190610926565b61044a9190610a35565b6040516001600160a01b0385166024820152604481018290529091506103c590859063095ea7b360e01b9060640161038e565b60006104d2826040518060400160405280602081526020017f5361666545524332303a206c6f772d6c6576656c2063616c6c206661696c6564815250856001600160a01b03166105599092919063ffffffff16565b80519091501561055457808060200190518101906104f09190610a5b565b6105545760405162461bcd60e51b815260206004820152602a60248201527f5361666545524332303a204552433230206f7065726174696f6e20646964206e6044820152691bdd081cdd58d8d9595960b21b60648201526084015b60405180910390fd5b505050565b60606105688484600085610570565b949350505050565b6060824710156105d15760405162461bcd60e51b815260206004820152602660248201527f416464726573733a20696e73756666696369656e742062616c616e636520666f6044820152651c8818d85b1b60d21b606482015260840161054b565b600080866001600160a01b031685876040516105ed9190610a84565b60006040518083038185875af1925050503d806000811461062a576040519150601f19603f3d011682016040523d82523d6000602084013e61062f565b606091505b50915091506106408783838761064b565b979650505050505050565b606083156106ba5782516000036106b3576001600160a01b0385163b6106b35760405162461bcd60e51b815260206004820152601d60248201527f416464726573733a2063616c6c20746f206e6f6e2d636f6e7472616374000000604482015260640161054b565b5081610568565b61056883838151156106cf5781518083602001fd5b8060405162461bcd60e51b815260040161054b9190610aa0565b803561ffff811681146106fb57600080fd5b919050565b634e487b7160e01b600052604160045260246000fd5b604051610160810167ffffffffffffffff8111828210171561073a5761073a610700565b60405290565b600082601f83011261075157600080fd5b813567ffffffffffffffff8082111561076c5761076c610700565b604051601f8301601f19908116603f0116810190828211818310171561079457610794610700565b816040528381528660208588010111156107ad57600080fd5b836020870160208301376000602085830101528094505050505092915050565b80356001600160a01b03811681146106fb57600080fd5b60008060008060008060c087890312156107fd57600080fd5b610806876106e9565b9550602087013567ffffffffffffffff8082111561082357600080fd5b61082f8a838b01610740565b96506040890135955061084460608a016107cd565b94506080890135935060a089013591508082111561086157600080fd5b5061086e89828a01610740565b9150509295509295509295565b6000610160828403121561088e57600080fd5b610896610716565b61089f836106e9565b81526108ad602084016107cd565b602082015260408301356040820152606083013560608201526080830135608082015260a083013560a082015260c083013560c08201526108f060e084016107cd565b60e08201526101006109038185016107cd565b908201526101208381013590820152610140928301359281019290925250919050565b60006020828403121561093857600080fd5b5051919050565b60005b8381101561095a578181015183820152602001610942565b838111156103c55750506000910152565b6000815180845261098381602086016020860161093f565b601f01601f19169290920160200192915050565b600061012061ffff8c1683528a602084015289604084015260018060a01b03891660608401528760808401528660a08401528060c0840152855181840152506020850151610140830152604085015160606101608401526109fc61018084018261096b565b905082810360e0840152610a10818661096b565b9050828103610100840152610a25818561096b565b9c9b505050505050505050505050565b60008219821115610a5657634e487b7160e01b600052601160045260246000fd5b500190565b600060208284031215610a6d57600080fd5b81518015158114610a7d57600080fd5b9392505050565b60008251610a9681846020870161093f565b9190910192915050565b602081526000610a7d602083018461096b56fea2646970667358221220bd61bc27202ba03a89c812bc018f45b788e41d838c1f43ccbf92de54a2d7aac364736f6c634300080f0033",
    "linkReferences": {}
  },
  "methodIdentifiers": {
    "feeCollector()": "c415b95c",
    "sgReceive(uint16,bytes,uint256,address,uint256,bytes)": "ab8236f3",
    "stargateRouter()": "a9e56f3c",
    "stargateSwap((uint16,address,uint256,uint256,uint256,uint256,uint256,address,address,uint256,bytes32))": "f473684a"
  },
  "id": 62
}