{
  "abi": [
    {
      "inputs": [
        {
          "internalType": "bytes",
          "name": "_configData",
          "type": "bytes"
        },
        {
          "internalType": "bytes",
          "name": "_immutables",
          "type": "bytes"
        },
        {
          "internalType": "uint256",
          "name": "_maxLTV",
          "type": "uint256"
        },
        {
          "internalType": "uint256",
          "name": "_liquidationFee",
          "type": "uint256"
        },
        {
          "internalType": "uint256",
          "name": "_maturityDate",
          "type": "uint256"
        },
        {
          "internalType": "uint256",
          "name": "_penaltyRate",
          "type": "uint256"
        },
        {
          "internalType": "bool",
          "name": "_isBorrowerWhitelistActive",
          "type": "bool"
        },
        {
          "internalType": "bool",
          "name": "_isLenderWhitelistActive",
          "type": "bool"
        }
      ],
      "stateMutability": "nonpayable",
      "type": "constructor"
    },
    {
      "inputs": [],
      "name": "AlreadyInitialized",
      "type": "error"
    },
    {
      "inputs": [],
      "name": "BadProtocolFee",
      "type": "error"
    },
    {
      "inputs": [],
      "name": "BadSwapper",
      "type": "error"
    },
    {
      "inputs": [],
      "name": "BorrowerSolvent",
      "type": "error"
    },
    {
      "inputs": [],
      "name": "BorrowerWhitelistRequired",
      "type": "error"
    },
    {
      "inputs": [
        {
          "internalType": "uint256",
          "name": "_borrow",
          "type": "uint256"
        },
        {
          "internalType": "uint256",
          "name": "_collateral",
          "type": "uint256"
        },
        {
          "internalType": "uint256",
          "name": "_exchangeRate",
          "type": "uint256"
        }
      ],
      "name": "Insolvent",
      "type": "error"
    },
    {
      "inputs": [
        {
          "internalType": "uint256",
          "name": "_assets",
          "type": "uint256"
        },
        {
          "internalType": "uint256",
          "name": "_request",
          "type": "uint256"
        }
      ],
      "name": "InsufficientAssetsInContract",
      "type": "error"
    },
    {
      "inputs": [
        {
          "internalType": "address",
          "name": "_expected",
          "type": "address"
        },
        {
          "internalType": "address",
          "name": "_actual",
          "type": "address"
        }
      ],
      "name": "InvalidPath",
      "type": "error"
    },
    {
      "inputs": [],
      "name": "NameEmpty",
      "type": "error"
    },
    {
      "inputs": [],
      "name": "NotDeployer",
      "type": "error"
    },
    {
      "inputs": [
        {
          "internalType": "address",
          "name": "_address",
          "type": "address"
        }
      ],
      "name": "NotOnWhitelist",
      "type": "error"
    },
    {
      "inputs": [],
      "name": "OnlyApprovedBorrowers",
      "type": "error"
    },
    {
      "inputs": [],
      "name": "OnlyApprovedLenders",
      "type": "error"
    },
    {
      "inputs": [],
      "name": "OnlyTimeLock",
      "type": "error"
    },
    {
      "inputs": [
        {
          "internalType": "address",
          "name": "_oracle",
          "type": "address"
        }
      ],
      "name": "OracleLTEZero",
      "type": "error"
    },
    {
      "inputs": [
        {
          "internalType": "uint256",
          "name": "_blockTimestamp",
          "type": "uint256"
        },
        {
          "internalType": "uint256",
          "name": "_deadline",
          "type": "uint256"
        }
      ],
      "name": "PastDeadline",
      "type": "error"
    },
    {
      "inputs": [],
      "name": "PastMaturity",
      "type": "error"
    },
    {
      "inputs": [],
      "name": "PriceTooLarge",
      "type": "error"
    },
    {
      "inputs": [],
      "name": "ProtocolOrOwnerOnly",
      "type": "error"
    },
    {
      "inputs": [
        {
          "internalType": "uint256",
          "name": "_minOut",
          "type": "uint256"
        },
        {
          "internalType": "uint256",
          "name": "_actual",
          "type": "uint256"
        }
      ],
      "name": "SlippageTooHigh",
      "type": "error"
    },
    {
      "anonymous": false,
      "inputs": [
        {
          "indexed": true,
          "internalType": "address",
          "name": "_sender",
          "type": "address"
        },
        {
          "indexed": true,
          "internalType": "address",
          "name": "_borrower",
          "type": "address"
        },
        {
          "indexed": false,
          "internalType": "uint256",
          "name": "_collateralAmount",
          "type": "uint256"
        }
      ],
      "name": "AddCollateral",
      "type": "event"
    },
    {
      "anonymous": false,
      "inputs": [
        {
          "indexed": false,
          "internalType": "uint256",
          "name": "_interestEarned",
          "type": "uint256"
        },
        {
          "indexed": false,
          "internalType": "uint256",
          "name": "_rate",
          "type": "uint256"
        },
        {
          "indexed": false,
          "internalType": "uint256",
          "name": "_deltaTime",
          "type": "uint256"
        },
        {
          "indexed": false,
          "internalType": "uint256",
          "name": "_feesAmount",
          "type": "uint256"
        },
        {
          "indexed": false,
          "internalType": "uint256",
          "name": "_feesShare",
          "type": "uint256"
        }
      ],
      "name": "AddInterest",
      "type": "event"
    },
    {
      "anonymous": false,
      "inputs": [
        {
          "indexed": true,
          "internalType": "address",
          "name": "owner",
          "type": "address"
        },
        {
          "indexed": true,
          "internalType": "address",
          "name": "spender",
          "type": "address"
        },
        {
          "indexed": false,
          "internalType": "uint256",
          "name": "value",
          "type": "uint256"
        }
      ],
      "name": "Approval",
      "type": "event"
    },
    {
      "anonymous": false,
      "inputs": [
        {
          "indexed": true,
          "internalType": "address",
          "name": "_borrower",
          "type": "address"
        },
        {
          "indexed": true,
          "internalType": "address",
          "name": "_receiver",
          "type": "address"
        },
        {
          "indexed": false,
          "internalType": "uint256",
          "name": "_borrowAmount",
          "type": "uint256"
        },
        {
          "indexed": false,
          "internalType": "uint256",
          "name": "_sharesAdded",
          "type": "uint256"
        }
      ],
      "name": "BorrowAsset",
      "type": "event"
    },
    {
      "anonymous": false,
      "inputs": [
        {
          "indexed": false,
          "internalType": "uint32",
          "name": "_newFee",
          "type": "uint32"
        }
      ],
      "name": "ChangeFee",
      "type": "event"
    },
    {
      "anonymous": false,
      "inputs": [
        {
          "indexed": true,
          "internalType": "address",
          "name": "caller",
          "type": "address"
        },
        {
          "indexed": true,
          "internalType": "address",
          "name": "owner",
          "type": "address"
        },
        {
          "indexed": false,
          "internalType": "uint256",
          "name": "assets",
          "type": "uint256"
        },
        {
          "indexed": false,
          "internalType": "uint256",
          "name": "shares",
          "type": "uint256"
        }
      ],
      "name": "Deposit",
      "type": "event"
    },
    {
      "anonymous": false,
      "inputs": [
        {
          "indexed": true,
          "internalType": "address",
          "name": "_borrower",
          "type": "address"
        },
        {
          "indexed": false,
          "internalType": "uint256",
          "name": "_collateralForLiquidator",
          "type": "uint256"
        },
        {
          "indexed": false,
          "internalType": "uint256",
          "name": "_sharesToLiquidate",
          "type": "uint256"
        },
        {
          "indexed": false,
          "internalType": "uint256",
          "name": "_amountLiquidatorToRepay",
          "type": "uint256"
        },
        {
          "indexed": false,
          "internalType": "uint256",
          "name": "_sharesToAdjust",
          "type": "uint256"
        },
        {
          "indexed": false,
          "internalType": "uint256",
          "name": "_amountToAdjust",
          "type": "uint256"
        }
      ],
      "name": "Liquidate",
      "type": "event"
    },
    {
      "anonymous": false,
      "inputs": [
        {
          "indexed": true,
          "internalType": "address",
          "name": "previousOwner",
          "type": "address"
        },
        {
          "indexed": true,
          "internalType": "address",
          "name": "newOwner",
          "type": "address"
        }
      ],
      "name": "OwnershipTransferred",
      "type": "event"
    },
    {
      "anonymous": false,
      "inputs": [
        {
          "indexed": false,
          "internalType": "address",
          "name": "account",
          "type": "address"
        }
      ],
      "name": "Paused",
      "type": "event"
    },
    {
      "anonymous": false,
      "inputs": [
        {
          "indexed": true,
          "internalType": "address",
          "name": "_sender",
          "type": "address"
        },
        {
          "indexed": false,
          "internalType": "uint256",
          "name": "_collateralAmount",
          "type": "uint256"
        },
        {
          "indexed": true,
          "internalType": "address",
          "name": "_receiver",
          "type": "address"
        },
        {
          "indexed": true,
          "internalType": "address",
          "name": "_borrower",
          "type": "address"
        }
      ],
      "name": "RemoveCollateral",
      "type": "event"
    },
    {
      "anonymous": false,
      "inputs": [
        {
          "indexed": true,
          "internalType": "address",
          "name": "_payer",
          "type": "address"
        },
        {
          "indexed": true,
          "internalType": "address",
          "name": "_borrower",
          "type": "address"
        },
        {
          "indexed": false,
          "internalType": "uint256",
          "name": "_amountToRepay",
          "type": "uint256"
        },
        {
          "indexed": false,
          "internalType": "uint256",
          "name": "_shares",
          "type": "uint256"
        }
      ],
      "name": "RepayAsset",
      "type": "event"
    },
    {
      "anonymous": false,
      "inputs": [
        {
          "indexed": true,
          "internalType": "address",
          "name": "_address",
          "type": "address"
        },
        {
          "indexed": false,
          "internalType": "bool",
          "name": "_approval",
          "type": "bool"
        }
      ],
      "name": "SetApprovedLender",
      "type": "event"
    },
    {
      "anonymous": false,
      "inputs": [
        {
          "indexed": false,
          "internalType": "address",
          "name": "_swapper",
          "type": "address"
        },
        {
          "indexed": false,
          "internalType": "bool",
          "name": "_approval",
          "type": "bool"
        }
      ],
      "name": "SetSwapper",
      "type": "event"
    },
    {
      "anonymous": false,
      "inputs": [
        {
          "indexed": false,
          "internalType": "address",
          "name": "_oldAddress",
          "type": "address"
        },
        {
          "indexed": false,
          "internalType": "address",
          "name": "_newAddress",
          "type": "address"
        }
      ],
      "name": "SetTimeLock",
      "type": "event"
    },
    {
      "anonymous": false,
      "inputs": [
        {
          "indexed": true,
          "internalType": "address",
          "name": "from",
          "type": "address"
        },
        {
          "indexed": true,
          "internalType": "address",
          "name": "to",
          "type": "address"
        },
        {
          "indexed": false,
          "internalType": "uint256",
          "name": "value",
          "type": "uint256"
        }
      ],
      "name": "Transfer",
      "type": "event"
    },
    {
      "anonymous": false,
      "inputs": [
        {
          "indexed": false,
          "internalType": "address",
          "name": "account",
          "type": "address"
        }
      ],
      "name": "Unpaused",
      "type": "event"
    },
    {
      "anonymous": false,
      "inputs": [
        {
          "indexed": false,
          "internalType": "uint256",
          "name": "_rate",
          "type": "uint256"
        }
      ],
      "name": "UpdateExchangeRate",
      "type": "event"
    },
    {
      "anonymous": false,
      "inputs": [
        {
          "indexed": false,
          "internalType": "uint256",
          "name": "_ratePerSec",
          "type": "uint256"
        },
        {
          "indexed": false,
          "internalType": "uint256",
          "name": "_deltaTime",
          "type": "uint256"
        },
        {
          "indexed": false,
          "internalType": "uint256",
          "name": "_utilizationRate",
          "type": "uint256"
        },
        {
          "indexed": false,
          "internalType": "uint256",
          "name": "_newRatePerSec",
          "type": "uint256"
        }
      ],
      "name": "UpdateRate",
      "type": "event"
    },
    {
      "anonymous": false,
      "inputs": [
        {
          "indexed": true,
          "internalType": "address",
          "name": "caller",
          "type": "address"
        },
        {
          "indexed": true,
          "internalType": "address",
          "name": "receiver",
          "type": "address"
        },
        {
          "indexed": true,
          "internalType": "address",
          "name": "owner",
          "type": "address"
        },
        {
          "indexed": false,
          "internalType": "uint256",
          "name": "assets",
          "type": "uint256"
        },
        {
          "indexed": false,
          "internalType": "uint256",
          "name": "shares",
          "type": "uint256"
        }
      ],
      "name": "Withdraw",
      "type": "event"
    },
    {
      "anonymous": false,
      "inputs": [
        {
          "indexed": false,
          "internalType": "uint128",
          "name": "_shares",
          "type": "uint128"
        },
        {
          "indexed": false,
          "internalType": "address",
          "name": "_recipient",
          "type": "address"
        },
        {
          "indexed": false,
          "internalType": "uint256",
          "name": "_amountToTransfer",
          "type": "uint256"
        }
      ],
      "name": "WithdrawFees",
      "type": "event"
    },
    {
      "inputs": [],
      "name": "CIRCUIT_BREAKER_ADDRESS",
      "outputs": [
        {
          "internalType": "address",
          "name": "",
          "type": "address"
        }
      ],
      "stateMutability": "view",
      "type": "function"
    },
    {
      "inputs": [],
      "name": "COMPTROLLER_ADDRESS",
      "outputs": [
        {
          "internalType": "address",
          "name": "",
          "type": "address"
        }
      ],
      "stateMutability": "view",
      "type": "function"
    },
    {
      "inputs": [],
      "name": "DEPLOYER_ADDRESS",
      "outputs": [
        {
          "internalType": "address",
          "name": "",
          "type": "address"
        }
      ],
      "stateMutability": "view",
      "type": "function"
    },
    {
      "inputs": [],
      "name": "FRAXLEND_WHITELIST_ADDRESS",
      "outputs": [
        {
          "internalType": "address",
          "name": "",
          "type": "address"
        }
      ],
      "stateMutability": "view",
      "type": "function"
    },
    {
      "inputs": [],
      "name": "TIME_LOCK_ADDRESS",
      "outputs": [
        {
          "internalType": "address",
          "name": "",
          "type": "address"
        }
      ],
      "stateMutability": "view",
      "type": "function"
    },
    {
      "inputs": [
        {
          "internalType": "uint256",
          "name": "_collateralAmount",
          "type": "uint256"
        },
        {
          "internalType": "address",
          "name": "_borrower",
          "type": "address"
        }
      ],
      "name": "addCollateral",
      "outputs": [],
      "stateMutability": "nonpayable",
      "type": "function"
    },
    {
      "inputs": [],
      "name": "addInterest",
      "outputs": [
        {
          "internalType": "uint256",
          "name": "_interestEarned",
          "type": "uint256"
        },
        {
          "internalType": "uint256",
          "name": "_feesAmount",
          "type": "uint256"
        },
        {
          "internalType": "uint256",
          "name": "_feesShare",
          "type": "uint256"
        },
        {
          "internalType": "uint64",
          "name": "_newRate",
          "type": "uint64"
        }
      ],
      "stateMutability": "nonpayable",
      "type": "function"
    },
    {
      "inputs": [
        {
          "internalType": "address",
          "name": "owner",
          "type": "address"
        },
        {
          "internalType": "address",
          "name": "spender",
          "type": "address"
        }
      ],
      "name": "allowance",
      "outputs": [
        {
          "internalType": "uint256",
          "name": "",
          "type": "uint256"
        }
      ],
      "stateMutability": "view",
      "type": "function"
    },
    {
      "inputs": [
        {
          "internalType": "address",
          "name": "spender",
          "type": "address"
        },
        {
          "internalType": "uint256",
          "name": "amount",
          "type": "uint256"
        }
      ],
      "name": "approve",
      "outputs": [
        {
          "internalType": "bool",
          "name": "",
          "type": "bool"
        }
      ],
      "stateMutability": "nonpayable",
      "type": "function"
    },
    {
      "inputs": [
        {
          "internalType": "address",
          "name": "",
          "type": "address"
        }
      ],
      "name": "approvedBorrowers",
      "outputs": [
        {
          "internalType": "bool",
          "name": "",
          "type": "bool"
        }
      ],
      "stateMutability": "view",
      "type": "function"
    },
    {
      "inputs": [
        {
          "internalType": "address",
          "name": "",
          "type": "address"
        }
      ],
      "name": "approvedLenders",
      "outputs": [
        {
          "internalType": "bool",
          "name": "",
          "type": "bool"
        }
      ],
      "stateMutability": "view",
      "type": "function"
    },
    {
      "inputs": [],
      "name": "asset",
      "outputs": [
        {
          "internalType": "address",
          "name": "",
          "type": "address"
        }
      ],
      "stateMutability": "view",
      "type": "function"
    },
    {
      "inputs": [
        {
          "internalType": "address",
          "name": "account",
          "type": "address"
        }
      ],
      "name": "balanceOf",
      "outputs": [
        {
          "internalType": "uint256",
          "name": "",
          "type": "uint256"
        }
      ],
      "stateMutability": "view",
      "type": "function"
    },
    {
      "inputs": [
        {
          "internalType": "uint256",
          "name": "_borrowAmount",
          "type": "uint256"
        },
        {
          "internalType": "uint256",
          "name": "_collateralAmount",
          "type": "uint256"
        },
        {
          "internalType": "address",
          "name": "_receiver",
          "type": "address"
        }
      ],
      "name": "borrowAsset",
      "outputs": [
        {
          "internalType": "uint256",
          "name": "_shares",
          "type": "uint256"
        }
      ],
      "stateMutability": "nonpayable",
      "type": "function"
    },
    {
      "inputs": [],
      "name": "borrowerWhitelistActive",
      "outputs": [
        {
          "internalType": "bool",
          "name": "",
          "type": "bool"
        }
      ],
      "stateMutability": "view",
      "type": "function"
    },
    {
      "inputs": [
        {
          "internalType": "uint32",
          "name": "_newFee",
          "type": "uint32"
        }
      ],
      "name": "changeFee",
      "outputs": [],
      "stateMutability": "nonpayable",
      "type": "function"
    },
    {
      "inputs": [],
      "name": "cleanLiquidationFee",
      "outputs": [
        {
          "internalType": "uint256",
          "name": "",
          "type": "uint256"
        }
      ],
      "stateMutability": "view",
      "type": "function"
    },
    {
      "inputs": [],
      "name": "collateralContract",
      "outputs": [
        {
          "internalType": "contract IERC20",
          "name": "",
          "type": "address"
        }
      ],
      "stateMutability": "view",
      "type": "function"
    },
    {
      "inputs": [],
      "name": "currentRateInfo",
      "outputs": [
        {
          "internalType": "uint64",
          "name": "lastBlock",
          "type": "uint64"
        },
        {
          "internalType": "uint64",
          "name": "feeToProtocolRate",
          "type": "uint64"
        },
        {
          "internalType": "uint64",
          "name": "lastTimestamp",
          "type": "uint64"
        },
        {
          "internalType": "uint64",
          "name": "ratePerSec",
          "type": "uint64"
        }
      ],
      "stateMutability": "view",
      "type": "function"
    },
    {
      "inputs": [],
      "name": "decimals",
      "outputs": [
        {
          "internalType": "uint8",
          "name": "",
          "type": "uint8"
        }
      ],
      "stateMutability": "pure",
      "type": "function"
    },
    {
      "inputs": [
        {
          "internalType": "address",
          "name": "spender",
          "type": "address"
        },
        {
          "internalType": "uint256",
          "name": "subtractedValue",
          "type": "uint256"
        }
      ],
      "name": "decreaseAllowance",
      "outputs": [
        {
          "internalType": "bool",
          "name": "",
          "type": "bool"
        }
      ],
      "stateMutability": "nonpayable",
      "type": "function"
    },
    {
      "inputs": [
        {
          "internalType": "uint256",
          "name": "_amount",
          "type": "uint256"
        },
        {
          "internalType": "address",
          "name": "_receiver",
          "type": "address"
        }
      ],
      "name": "deposit",
      "outputs": [
        {
          "internalType": "uint256",
          "name": "_sharesReceived",
          "type": "uint256"
        }
      ],
      "stateMutability": "nonpayable",
      "type": "function"
    },
    {
      "inputs": [],
      "name": "dirtyLiquidationFee",
      "outputs": [
        {
          "internalType": "uint256",
          "name": "",
          "type": "uint256"
        }
      ],
      "stateMutability": "view",
      "type": "function"
    },
    {
      "inputs": [],
      "name": "exchangeRateInfo",
      "outputs": [
        {
          "internalType": "uint32",
          "name": "lastTimestamp",
          "type": "uint32"
        },
        {
          "internalType": "uint224",
          "name": "exchangeRate",
          "type": "uint224"
        }
      ],
      "stateMutability": "view",
      "type": "function"
    },
    {
      "inputs": [],
      "name": "getConstants",
      "outputs": [
        {
          "internalType": "uint256",
          "name": "_LTV_PRECISION",
          "type": "uint256"
        },
        {
          "internalType": "uint256",
          "name": "_LIQ_PRECISION",
          "type": "uint256"
        },
        {
          "internalType": "uint256",
          "name": "_UTIL_PREC",
          "type": "uint256"
        },
        {
          "internalType": "uint256",
          "name": "_FEE_PRECISION",
          "type": "uint256"
        },
        {
          "internalType": "uint256",
          "name": "_EXCHANGE_PRECISION",
          "type": "uint256"
        },
        {
          "internalType": "uint64",
          "name": "_DEFAULT_INT",
          "type": "uint64"
        },
        {
          "internalType": "uint16",
          "name": "_DEFAULT_PROTOCOL_FEE",
          "type": "uint16"
        },
        {
          "internalType": "uint256",
          "name": "_MAX_PROTOCOL_FEE",
          "type": "uint256"
        }
      ],
      "stateMutability": "pure",
      "type": "function"
    },
    {
      "inputs": [],
      "name": "getImmutableAddressBool",
      "outputs": [
        {
          "internalType": "address",
          "name": "_assetContract",
          "type": "address"
        },
        {
          "internalType": "address",
          "name": "_collateralContract",
          "type": "address"
        },
        {
          "internalType": "address",
          "name": "_oracleMultiply",
          "type": "address"
        },
        {
          "internalType": "address",
          "name": "_oracleDivide",
          "type": "address"
        },
        {
          "internalType": "address",
          "name": "_rateContract",
          "type": "address"
        },
        {
          "internalType": "address",
          "name": "_DEPLOYER_CONTRACT",
          "type": "address"
        },
        {
          "internalType": "address",
          "name": "_COMPTROLLER_ADDRESS",
          "type": "address"
        },
        {
          "internalType": "address",
          "name": "_MugenLending_WHITELIST",
          "type": "address"
        },
        {
          "internalType": "bool",
          "name": "_borrowerWhitelistActive",
          "type": "bool"
        },
        {
          "internalType": "bool",
          "name": "_lenderWhitelistActive",
          "type": "bool"
        }
      ],
      "stateMutability": "view",
      "type": "function"
    },
    {
      "inputs": [],
      "name": "getImmutableUint256",
      "outputs": [
        {
          "internalType": "uint256",
          "name": "_oracleNormalization",
          "type": "uint256"
        },
        {
          "internalType": "uint256",
          "name": "_maxLTV",
          "type": "uint256"
        },
        {
          "internalType": "uint256",
          "name": "_cleanLiquidationFee",
          "type": "uint256"
        },
        {
          "internalType": "uint256",
          "name": "_maturityDate",
          "type": "uint256"
        },
        {
          "internalType": "uint256",
          "name": "_penaltyRate",
          "type": "uint256"
        }
      ],
      "stateMutability": "view",
      "type": "function"
    },
    {
      "inputs": [],
      "name": "getPairAccounting",
      "outputs": [
        {
          "internalType": "uint128",
          "name": "_totalAssetAmount",
          "type": "uint128"
        },
        {
          "internalType": "uint128",
          "name": "_totalAssetShares",
          "type": "uint128"
        },
        {
          "internalType": "uint128",
          "name": "_totalBorrowAmount",
          "type": "uint128"
        },
        {
          "internalType": "uint128",
          "name": "_totalBorrowShares",
          "type": "uint128"
        },
        {
          "internalType": "uint256",
          "name": "_totalCollateral",
          "type": "uint256"
        }
      ],
      "stateMutability": "view",
      "type": "function"
    },
    {
      "inputs": [
        {
          "internalType": "address",
          "name": "_address",
          "type": "address"
        }
      ],
      "name": "getUserSnapshot",
      "outputs": [
        {
          "internalType": "uint256",
          "name": "_userAssetShares",
          "type": "uint256"
        },
        {
          "internalType": "uint256",
          "name": "_userBorrowShares",
          "type": "uint256"
        },
        {
          "internalType": "uint256",
          "name": "_userCollateralBalance",
          "type": "uint256"
        }
      ],
      "stateMutability": "view",
      "type": "function"
    },
    {
      "inputs": [
        {
          "internalType": "address",
          "name": "spender",
          "type": "address"
        },
        {
          "internalType": "uint256",
          "name": "addedValue",
          "type": "uint256"
        }
      ],
      "name": "increaseAllowance",
      "outputs": [
        {
          "internalType": "bool",
          "name": "",
          "type": "bool"
        }
      ],
      "stateMutability": "nonpayable",
      "type": "function"
    },
    {
      "inputs": [
        {
          "internalType": "string",
          "name": "_name",
          "type": "string"
        },
        {
          "internalType": "address[]",
          "name": "_approvedBorrowers",
          "type": "address[]"
        },
        {
          "internalType": "address[]",
          "name": "_approvedLenders",
          "type": "address[]"
        },
        {
          "internalType": "bytes",
          "name": "_rateInitCallData",
          "type": "bytes"
        }
      ],
      "name": "initialize",
      "outputs": [],
      "stateMutability": "nonpayable",
      "type": "function"
    },
    {
      "inputs": [],
      "name": "lenderWhitelistActive",
      "outputs": [
        {
          "internalType": "bool",
          "name": "",
          "type": "bool"
        }
      ],
      "stateMutability": "view",
      "type": "function"
    },
    {
      "inputs": [
        {
          "internalType": "uint128",
          "name": "_sharesToLiquidate",
          "type": "uint128"
        },
        {
          "internalType": "uint256",
          "name": "_deadline",
          "type": "uint256"
        },
        {
          "internalType": "address",
          "name": "_borrower",
          "type": "address"
        }
      ],
      "name": "liquidate",
      "outputs": [
        {
          "internalType": "uint256",
          "name": "_collateralForLiquidator",
          "type": "uint256"
        }
      ],
      "stateMutability": "nonpayable",
      "type": "function"
    },
    {
      "inputs": [],
      "name": "maturityDate",
      "outputs": [
        {
          "internalType": "uint256",
          "name": "",
          "type": "uint256"
        }
      ],
      "stateMutability": "view",
      "type": "function"
    },
    {
      "inputs": [],
      "name": "maxLTV",
      "outputs": [
        {
          "internalType": "uint256",
          "name": "",
          "type": "uint256"
        }
      ],
      "stateMutability": "view",
      "type": "function"
    },
    {
      "inputs": [],
      "name": "name",
      "outputs": [
        {
          "internalType": "string",
          "name": "",
          "type": "string"
        }
      ],
      "stateMutability": "view",
      "type": "function"
    },
    {
      "inputs": [],
      "name": "oracleDivide",
      "outputs": [
        {
          "internalType": "address",
          "name": "",
          "type": "address"
        }
      ],
      "stateMutability": "view",
      "type": "function"
    },
    {
      "inputs": [],
      "name": "oracleMultiply",
      "outputs": [
        {
          "internalType": "address",
          "name": "",
          "type": "address"
        }
      ],
      "stateMutability": "view",
      "type": "function"
    },
    {
      "inputs": [],
      "name": "oracleNormalization",
      "outputs": [
        {
          "internalType": "uint256",
          "name": "",
          "type": "uint256"
        }
      ],
      "stateMutability": "view",
      "type": "function"
    },
    {
      "inputs": [],
      "name": "owner",
      "outputs": [
        {
          "internalType": "address",
          "name": "",
          "type": "address"
        }
      ],
      "stateMutability": "view",
      "type": "function"
    },
    {
      "inputs": [],
      "name": "pause",
      "outputs": [],
      "stateMutability": "nonpayable",
      "type": "function"
    },
    {
      "inputs": [],
      "name": "paused",
      "outputs": [
        {
          "internalType": "bool",
          "name": "",
          "type": "bool"
        }
      ],
      "stateMutability": "view",
      "type": "function"
    },
    {
      "inputs": [],
      "name": "penaltyRate",
      "outputs": [
        {
          "internalType": "uint256",
          "name": "",
          "type": "uint256"
        }
      ],
      "stateMutability": "view",
      "type": "function"
    },
    {
      "inputs": [],
      "name": "rateContract",
      "outputs": [
        {
          "internalType": "contract IRateCalculator",
          "name": "",
          "type": "address"
        }
      ],
      "stateMutability": "view",
      "type": "function"
    },
    {
      "inputs": [],
      "name": "rateInitCallData",
      "outputs": [
        {
          "internalType": "bytes",
          "name": "",
          "type": "bytes"
        }
      ],
      "stateMutability": "view",
      "type": "function"
    },
    {
      "inputs": [
        {
          "internalType": "uint256",
          "name": "_shares",
          "type": "uint256"
        },
        {
          "internalType": "address",
          "name": "_receiver",
          "type": "address"
        },
        {
          "internalType": "address",
          "name": "_owner",
          "type": "address"
        }
      ],
      "name": "redeem",
      "outputs": [
        {
          "internalType": "uint256",
          "name": "_amountToReturn",
          "type": "uint256"
        }
      ],
      "stateMutability": "nonpayable",
      "type": "function"
    },
    {
      "inputs": [
        {
          "internalType": "uint256",
          "name": "_collateralAmount",
          "type": "uint256"
        },
        {
          "internalType": "address",
          "name": "_receiver",
          "type": "address"
        }
      ],
      "name": "removeCollateral",
      "outputs": [],
      "stateMutability": "nonpayable",
      "type": "function"
    },
    {
      "inputs": [],
      "name": "renounceOwnership",
      "outputs": [],
      "stateMutability": "nonpayable",
      "type": "function"
    },
    {
      "inputs": [
        {
          "internalType": "uint256",
          "name": "_shares",
          "type": "uint256"
        },
        {
          "internalType": "address",
          "name": "_borrower",
          "type": "address"
        }
      ],
      "name": "repayAsset",
      "outputs": [
        {
          "internalType": "uint256",
          "name": "_amountToRepay",
          "type": "uint256"
        }
      ],
      "stateMutability": "nonpayable",
      "type": "function"
    },
    {
      "inputs": [
        {
          "internalType": "address",
          "name": "_swapper",
          "type": "address"
        },
        {
          "internalType": "bool",
          "name": "_approval",
          "type": "bool"
        }
      ],
      "name": "setSwapper",
      "outputs": [],
      "stateMutability": "nonpayable",
      "type": "function"
    },
    {
      "inputs": [
        {
          "internalType": "address",
          "name": "_newAddress",
          "type": "address"
        }
      ],
      "name": "setTimeLock",
      "outputs": [],
      "stateMutability": "nonpayable",
      "type": "function"
    },
    {
      "inputs": [
        {
          "internalType": "address",
          "name": "",
          "type": "address"
        }
      ],
      "name": "swappers",
      "outputs": [
        {
          "internalType": "bool",
          "name": "",
          "type": "bool"
        }
      ],
      "stateMutability": "view",
      "type": "function"
    },
    {
      "inputs": [],
      "name": "symbol",
      "outputs": [
        {
          "internalType": "string",
          "name": "",
          "type": "string"
        }
      ],
      "stateMutability": "view",
      "type": "function"
    },
    {
      "inputs": [
        {
          "internalType": "uint256",
          "name": "_shares",
          "type": "uint256"
        },
        {
          "internalType": "bool",
          "name": "_roundUp",
          "type": "bool"
        }
      ],
      "name": "toAssetAmount",
      "outputs": [
        {
          "internalType": "uint256",
          "name": "",
          "type": "uint256"
        }
      ],
      "stateMutability": "view",
      "type": "function"
    },
    {
      "inputs": [
        {
          "internalType": "uint256",
          "name": "_amount",
          "type": "uint256"
        },
        {
          "internalType": "bool",
          "name": "_roundUp",
          "type": "bool"
        }
      ],
      "name": "toAssetShares",
      "outputs": [
        {
          "internalType": "uint256",
          "name": "",
          "type": "uint256"
        }
      ],
      "stateMutability": "view",
      "type": "function"
    },
    {
      "inputs": [
        {
          "internalType": "uint256",
          "name": "_shares",
          "type": "uint256"
        },
        {
          "internalType": "bool",
          "name": "_roundUp",
          "type": "bool"
        }
      ],
      "name": "toBorrowAmount",
      "outputs": [
        {
          "internalType": "uint256",
          "name": "",
          "type": "uint256"
        }
      ],
      "stateMutability": "view",
      "type": "function"
    },
    {
      "inputs": [
        {
          "internalType": "uint256",
          "name": "_amount",
          "type": "uint256"
        },
        {
          "internalType": "bool",
          "name": "_roundUp",
          "type": "bool"
        }
      ],
      "name": "toBorrowShares",
      "outputs": [
        {
          "internalType": "uint256",
          "name": "",
          "type": "uint256"
        }
      ],
      "stateMutability": "view",
      "type": "function"
    },
    {
      "inputs": [],
      "name": "totalAsset",
      "outputs": [
        {
          "internalType": "uint128",
          "name": "amount",
          "type": "uint128"
        },
        {
          "internalType": "uint128",
          "name": "shares",
          "type": "uint128"
        }
      ],
      "stateMutability": "view",
      "type": "function"
    },
    {
      "inputs": [],
      "name": "totalBorrow",
      "outputs": [
        {
          "internalType": "uint128",
          "name": "amount",
          "type": "uint128"
        },
        {
          "internalType": "uint128",
          "name": "shares",
          "type": "uint128"
        }
      ],
      "stateMutability": "view",
      "type": "function"
    },
    {
      "inputs": [],
      "name": "totalCollateral",
      "outputs": [
        {
          "internalType": "uint256",
          "name": "",
          "type": "uint256"
        }
      ],
      "stateMutability": "view",
      "type": "function"
    },
    {
      "inputs": [],
      "name": "totalSupply",
      "outputs": [
        {
          "internalType": "uint256",
          "name": "",
          "type": "uint256"
        }
      ],
      "stateMutability": "view",
      "type": "function"
    },
    {
      "inputs": [
        {
          "internalType": "address",
          "name": "to",
          "type": "address"
        },
        {
          "internalType": "uint256",
          "name": "amount",
          "type": "uint256"
        }
      ],
      "name": "transfer",
      "outputs": [
        {
          "internalType": "bool",
          "name": "",
          "type": "bool"
        }
      ],
      "stateMutability": "nonpayable",
      "type": "function"
    },
    {
      "inputs": [
        {
          "internalType": "address",
          "name": "from",
          "type": "address"
        },
        {
          "internalType": "address",
          "name": "to",
          "type": "address"
        },
        {
          "internalType": "uint256",
          "name": "amount",
          "type": "uint256"
        }
      ],
      "name": "transferFrom",
      "outputs": [
        {
          "internalType": "bool",
          "name": "",
          "type": "bool"
        }
      ],
      "stateMutability": "nonpayable",
      "type": "function"
    },
    {
      "inputs": [
        {
          "internalType": "address",
          "name": "newOwner",
          "type": "address"
        }
      ],
      "name": "transferOwnership",
      "outputs": [],
      "stateMutability": "nonpayable",
      "type": "function"
    },
    {
      "inputs": [],
      "name": "unpause",
      "outputs": [],
      "stateMutability": "nonpayable",
      "type": "function"
    },
    {
      "inputs": [],
      "name": "updateExchangeRate",
      "outputs": [
        {
          "internalType": "uint256",
          "name": "_exchangeRate",
          "type": "uint256"
        }
      ],
      "stateMutability": "nonpayable",
      "type": "function"
    },
    {
      "inputs": [
        {
          "internalType": "address",
          "name": "",
          "type": "address"
        }
      ],
      "name": "userBorrowShares",
      "outputs": [
        {
          "internalType": "uint256",
          "name": "",
          "type": "uint256"
        }
      ],
      "stateMutability": "view",
      "type": "function"
    },
    {
      "inputs": [
        {
          "internalType": "address",
          "name": "",
          "type": "address"
        }
      ],
      "name": "userCollateralBalance",
      "outputs": [
        {
          "internalType": "uint256",
          "name": "",
          "type": "uint256"
        }
      ],
      "stateMutability": "view",
      "type": "function"
    },
    {
      "inputs": [],
      "name": "version",
      "outputs": [
        {
          "internalType": "string",
          "name": "",
          "type": "string"
        }
      ],
      "stateMutability": "view",
      "type": "function"
    },
    {
      "inputs": [
        {
          "internalType": "uint128",
          "name": "_shares",
          "type": "uint128"
        },
        {
          "internalType": "address",
          "name": "_recipient",
          "type": "address"
        }
      ],
      "name": "withdrawFees",
      "outputs": [
        {
          "internalType": "uint256",
          "name": "_amountToTransfer",
          "type": "uint256"
        }
      ],
      "stateMutability": "nonpayable",
      "type": "function"
    }
  ],
  "bytecode": {
    "object": "0x6102e060405260056102a0908152640312e302e360dc1b6102c052600890620000299082620005b0565b503480156200003757600080fd5b5060405162005599380380620055998339810160408190526200005a9162000749565b604080516020808201835260008083528351918201909352828152825460ff19169092556001805589918991899189918991899189918991906200009e33620004b9565b6006620000ac8382620005b0565b506007620000bb8282620005b0565b5050506000806000808a806020019051810190620000da919062000817565b9350935093509350336001600160a01b03166101a0816001600160a01b031681525050836001600160a01b03166101c0816001600160a01b031681525050826001600160a01b03166101e0816001600160a01b03168152505081600b60006101000a8154816001600160a01b0302191690836001600160a01b03160217905550806001600160a01b0316610200816001600160a01b031681525050505050506000806000806000808d80602001905181019062000198919062000874565b50955095509550955095509550856001600160a01b03166080816001600160a01b031681525050846001600160a01b031660a0816001600160a01b031681525050600061ffff16600d60000160086101000a8154816001600160401b0302191690836001600160401b031602179055508a6101408181525050620186a08b62015f906200022691906200091c565b6200023291906200094a565b61016052620186a08c1080159062000248575087155b156200026757604051631d74772960e31b815260040160405180910390fd5b6101208c9052610200516001600160a01b03851615801590620002f457506040516373015f9360e11b81526001600160a01b03868116600483015282169063e602bf2690602401602060405180830381865afa158015620002cc573d6000803e3d6000fd5b505050506040513d601f19601f82011682018060405250810190620002f291906200096d565b155b156200032357604051630f19dca360e01b81526001600160a01b03861660048201526024015b60405180910390fd5b6001600160a01b03841615801590620003a657506040516373015f9360e11b81526001600160a01b03858116600483015282169063e602bf2690602401602060405180830381865afa1580156200037e573d6000803e3d6000fd5b505050506040513d601f19601f82011682018060405250810190620003a491906200096d565b155b15620003d157604051630f19dca360e01b81526001600160a01b03851660048201526024016200031a565b6001600160a01b0385811660c05284811660e05261010084905260405163f3a51aa160e01b815283821660048201529082169063f3a51aa190602401602060405180830381865afa1580156200042b573d6000803e3d6000fd5b505050506040513d601f19601f820116820180604052508101906200045191906200096d565b6200047b57604051630f19dca360e01b81526001600160a01b03831660048201526024016200031a565b506001600160a01b031661018052505050509115156102605215156102805250610220919091526102405250620009929a5050505050505050505050565b600280546001600160a01b038381166001600160a01b0319831681179093556040519116919082907f8be0079c531659141344cd1fd0a4f28419497f9722a3daafe3b4186f6b6457e090600090a35050565b634e487b7160e01b600052604160045260246000fd5b600181811c908216806200053657607f821691505b6020821081036200055757634e487b7160e01b600052602260045260246000fd5b50919050565b601f821115620005ab57600081815260208120601f850160051c81016020861015620005865750805b601f850160051c820191505b81811015620005a75782815560010162000592565b5050505b505050565b81516001600160401b03811115620005cc57620005cc6200050b565b620005e481620005dd845462000521565b846200055d565b602080601f8311600181146200061c5760008415620006035750858301515b600019600386901b1c1916600185901b178555620005a7565b600085815260208120601f198616915b828110156200064d578886015182559484019460019091019084016200062c565b50858210156200066c5787850151600019600388901b60f8161c191681555b5050505050600190811b01905550565b600082601f8301126200068e57600080fd5b81516001600160401b0380821115620006ab57620006ab6200050b565b604051601f8301601f19908116603f01168101908282118183101715620006d657620006d66200050b565b81604052838152602092508683858801011115620006f357600080fd5b600091505b83821015620007175785820183015181830184015290820190620006f8565b83821115620007295760008385830101525b9695505050505050565b805180151581146200074457600080fd5b919050565b600080600080600080600080610100898b0312156200076757600080fd5b88516001600160401b03808211156200077f57600080fd5b6200078d8c838d016200067c565b995060208b0151915080821115620007a457600080fd5b50620007b38b828c016200067c565b97505060408901519550606089015194506080890151935060a08901519250620007e060c08a0162000733565b9150620007f060e08a0162000733565b90509295985092959890939650565b80516001600160a01b03811681146200074457600080fd5b600080600080608085870312156200082e57600080fd5b6200083985620007ff565b93506200084960208601620007ff565b92506200085960408601620007ff565b91506200086960608601620007ff565b905092959194509250565b600080600080600080600060e0888a0312156200089057600080fd5b6200089b88620007ff565b9650620008ab60208901620007ff565b9550620008bb60408901620007ff565b9450620008cb60608901620007ff565b935060808801519250620008e260a08901620007ff565b60c08901519092506001600160401b03811115620008ff57600080fd5b6200090d8a828b016200067c565b91505092959891949750929550565b60008160001904831182151516156200094557634e487b7160e01b600052601160045260246000fd5b500290565b6000826200096857634e487b7160e01b600052601260045260246000fd5b500490565b6000602082840312156200098057600080fd5b6200098b8262000733565b9392505050565b60805160a05160c05160e05161010051610120516101405161016051610180516101a0516101c0516101e0516102005161022051610240516102605161028051614a1862000b81600039600081816106d901526107b101526000818161051d01526106b0015260008181610c7a0152610e86015260008181610c530152610e600152600081816106860152610d0101526000818161065e01528181610d80015281816110de01526116f6015260008181610a6101526116c201526000818161063601528181610c190152818161174201526118f701526000818161060e01528181610cda01528181611a8a01526127e301526000818161078a01526114510152600081816104de01528181610e3801526113e6015260008181610d3b01528181610e120152818161324a0152613341015260008181610b0c01528181610def015261240501526000818161041b015281816105e6015281816122ef0152818161232001526123c50152600081816105bc01528181610a14015281816121dc0152818161220d01526122b201526000818161059401528181610b46015281816118680152818161343901526137ca01526000818161056f0152818161070b0152818161189a01528181611f3e01528181612f0201528181613172015281816136da0152613ad90152614a186000f3fe608060405234801561001057600080fd5b50600436106104115760003560e01c806394e301e011610220578063c936c62411610130578063e5f13b16116100b8578063f384bd0511610087578063f384bd0514610d36578063f9557ccb14610d5d578063fbaa8b8514610d7b578063fbbbf94c14610da2578063fea10d5d14610de957600080fd5b8063e5f13b1614610cc2578063eee2421914610cd5578063ef14900d14610cfc578063f2fde38b14610d2357600080fd5b8063d41ddc96116100ff578063d41ddc9614610c3b578063d59624b414610c4e578063d6b7494f14610c75578063daf33f2a14610c9c578063dd62ed3e14610caf57600080fd5b8063c936c62414610b70578063cadac47914610b93578063cdd72d5214610ba6578063d2a156e014610c1457600080fd5b8063ad0c3bb5116101b3578063ba08765211610182578063ba08765214610af4578063c10c92a114610b07578063c270a54414610b2e578063c6e1c7c914610b41578063c7be978614610b6857600080fd5b8063ad0c3bb514610a5c578063afa85de614610a83578063b5af306214610aa6578063b68d0a0914610ac657600080fd5b80639a295e73116101ef5780639a295e73146109bf5780639bdff2e614610a0f578063a457c2d714610a36578063a9059cbb14610a4957600080fd5b806394e301e01461092c57806395d14ca81461093f57806395d89b41146109a457806399024fc1146109ac57600080fd5b80634732428c1161032657806370a08231116102ae5780638285ef401161027d5780638285ef401461089f5780638456cb59146108dd578063891682d2146108e55780638cad7fbe146108f85780638da5cb5b1461091b57600080fd5b806370a0823114610848578063715018a614610871578063721b0a47146108795780638142dd531461088c57600080fd5b806354fd4d50116102f557806354fd4d50146107fc57806356968f97146108045780635c975abb14610817578063657a409c146108225780636e553f651461083557600080fd5b80634732428c146107855780634962e494146107ac5780634ac8eb5f146107d35780634fd422df146107dc57600080fd5b806323b872dd116103a95780633950935111610378578063395093511461072f5780633d417d2d146107425780633f2617cb146107555780633f4ba83a1461076a578063404ffa7a1461077257600080fd5b806323b872dd1461053f578063313ce5671461055257806336fad62d1461056157806338d52e0f1461070957600080fd5b80630d09365c116103e55780630d09365c146104a857806311a2e4bc146104d957806318160ddd146105005780632165d72f1461051857600080fd5b806253f7331461041657806302ce728f1461045a57806306fdde0314610470578063095ea7b314610485575b600080fd5b61043d7f000000000000000000000000000000000000000000000000000000000000000081565b6040516001600160a01b0390911681526020015b60405180910390f35b610462610eb2565b604051908152602001610451565b610478610ed2565b60405161045191906140e0565b61049861049336600461410a565b610f64565b6040519015158152602001610451565b6104b0610f7e565b604080519485526020850193909352918301526001600160401b03166060820152608001610451565b6104627f000000000000000000000000000000000000000000000000000000000000000081565b600f54600160801b90046001600160801b0316610462565b6104987f000000000000000000000000000000000000000000000000000000000000000081565b61049861054d366004614134565b610fab565b60405160128152602001610451565b604080516001600160a01b037f0000000000000000000000000000000000000000000000000000000000000000811682527f0000000000000000000000000000000000000000000000000000000000000000811660208301527f00000000000000000000000000000000000000000000000000000000000000008116928201929092527f0000000000000000000000000000000000000000000000000000000000000000821660608201527f0000000000000000000000000000000000000000000000000000000000000000821660808201527f0000000000000000000000000000000000000000000000000000000000000000821660a08201527f0000000000000000000000000000000000000000000000000000000000000000821660c08201527f00000000000000000000000000000000000000000000000000000000000000009190911660e08201527f000000000000000000000000000000000000000000000000000000000000000015156101008201527f0000000000000000000000000000000000000000000000000000000000000000151561012082015261014001610451565b7f000000000000000000000000000000000000000000000000000000000000000061043d565b61049861073d36600461410a565b610fd1565b610462610750366004614170565b610ff3565b6107686107633660046141aa565b611068565b005b6107686110d3565b6104626107803660046141e1565b61114b565b6104627f000000000000000000000000000000000000000000000000000000000000000081565b6104987f000000000000000000000000000000000000000000000000000000000000000081565b61046260115481565b6104626107ea366004614206565b60136020526000908152604090205481565b610478611181565b6104626108123660046141e1565b61120f565b60005460ff16610498565b600b5461043d906001600160a01b031681565b610462610843366004614170565b611245565b610462610856366004614206565b6001600160a01b031660009081526003602052604090205490565b6107686112b7565b610462610887366004614238565b6112c9565b61076861089a366004614274565b6115ec565b6010546108bd906001600160801b0380821691600160801b90041682565b604080516001600160801b03938416815292909116602083015201610451565b6107686116b7565b6107686108f3366004614206565b611797565b610498610906366004614206565b600a6020526000908152604090205460ff1681565b6002546001600160a01b031661043d565b61046261093a3660046141e1565b61182b565b600d54610971906001600160401b0380821691600160401b8104821691600160801b8204811691600160c01b90041684565b604080516001600160401b0395861681529385166020850152918416918301919091529091166060820152608001610451565b610478611861565b6107686109ba366004614326565b6118ec565b60408051620186a0808252602082018190529181018290526060810191909152670de0b6b3a7640000608082015263096ba6c460a0820152600060c082015261c35060e082015261010001610451565b61043d7f000000000000000000000000000000000000000000000000000000000000000081565b610498610a4436600461410a565b611b21565b610498610a5736600461410a565b611ba7565b61043d7f000000000000000000000000000000000000000000000000000000000000000081565b610498610a91366004614206565b60156020526000908152604090205460ff1681565b610462610ab4366004614206565b60126020526000908152604090205481565b610ad9610ad4366004614206565b611bb5565b60408051938452602084019290925290820152606001610451565b610462610b023660046143e9565b611c0a565b6104627f000000000000000000000000000000000000000000000000000000000000000081565b610462610b3c3660046141e1565b611c7f565b61043d7f000000000000000000000000000000000000000000000000000000000000000081565b610478611cb5565b610498610b7e366004614206565b60146020526000908152604090205460ff1681565b610768610ba1366004614170565b611cc2565b604080518082018252600f546001600160801b03808216808452600160801b928390048216602094850181905285518087018752601054808516808352959004909316928501839052601154865192835294820152938401919091526060830152608082015260a001610451565b61043d7f000000000000000000000000000000000000000000000000000000000000000081565b610768610c49366004614170565b611cee565b6104627f000000000000000000000000000000000000000000000000000000000000000081565b6104627f000000000000000000000000000000000000000000000000000000000000000081565b610462610caa36600461441c565b611e02565b610462610cbd366004614446565b611fc0565b610462610cd0366004614462565b611feb565b61043d7f000000000000000000000000000000000000000000000000000000000000000081565b61043d7f000000000000000000000000000000000000000000000000000000000000000081565b610768610d31366004614206565b6120ad565b6104627f000000000000000000000000000000000000000000000000000000000000000081565b600f546108bd906001600160801b0380821691600160801b90041682565b61043d7f000000000000000000000000000000000000000000000000000000000000000081565b600e54610dc59063ffffffff81169064010000000090046001600160e01b031682565b6040805163ffffffff90931683526001600160e01b03909116602083015201610451565b604080517f000000000000000000000000000000000000000000000000000000000000000081527f000000000000000000000000000000000000000000000000000000000000000060208201527f0000000000000000000000000000000000000000000000000000000000000000918101919091527f000000000000000000000000000000000000000000000000000000000000000060608201527f0000000000000000000000000000000000000000000000000000000000000000608082015260a001610451565b6000610ebc612126565b610ec461217f565b9050610ecf60018055565b90565b6060600c8054610ee19061448e565b80601f0160208091040260200160405190810160405280929190818152602001828054610f0d9061448e565b8015610f5a5780601f10610f2f57610100808354040283529160200191610f5a565b820191906000526020600020905b815481529060010190602001808311610f3d57829003601f168201915b5050505050905090565b600033610f728185856124bb565b60019150505b92915050565b600080600080610f8c612126565b610f946125e0565b9350935093509350610fa560018055565b90919293565b600033610fb9858285612b29565b610fc4858585612ba3565b60019150505b9392505050565b600033610f72818585610fe48383611fc0565b610fee91906144de565b6124bb565b6000610ffd612126565b6110056125e0565b5050604080518082019091526010546001600160801b038082168352600160801b909104166020820152915061103f905081856001612d4e565b915061105e8161104e84612dea565b61105787612dea565b3387612e57565b50610f7860018055565b611070612f8d565b6001600160a01b0382166000818152600a6020908152604091829020805460ff19168515159081179091558251938452908301527fea1eefb4fd58778d7b274fe54045a9feeec8f2847899c2e71126d3a74d486da5910160405180910390a15050565b336001600160a01b037f0000000000000000000000000000000000000000000000000000000000000000161480159061111757506002546001600160a01b03163314155b1561113557604051638f5b12a760e01b815260040160405180910390fd5b61113d6125e0565b50505050611149612fe7565b565b60408051808201909152600f546001600160801b038082168352600160801b909104166020820152600090610fca908484612d4e565b6008805461118e9061448e565b80601f01602080910402602001604051908101604052809291908181526020018280546111ba9061448e565b80156112075780601f106111dc57610100808354040283529160200191611207565b820191906000526020600020905b8154815290600101906020018083116111ea57829003601f168201915b505050505081565b60408051808201909152600f546001600160801b038082168352600160801b909104166020820152600090610fca908484613039565b600061124f612126565b6112576130ae565b61125f6125e0565b505060408051808201909152600f546001600160801b038082168352600160801b9091041660208201529150611299905081856000613039565b915061105e816112a886612dea565b6112b185612dea565b866130f4565b6112bf612f8d565b61114960006131f4565b60006112d36130ae565b6112db612126565b8242111561130a57604051635ba2a8d560e01b8152426004820152602481018490526044015b60405180910390fd5b6113126125e0565b50505050600061132061217f565b905061132c8382613246565b1561134a57604051633af2cafd60e11b815260040160405180910390fd5b6040805180820182526010546001600160801b038082168352600160801b909104166020808301919091526001600160a01b03861660009081526012825283812054601390925292832054919290916113a290612dea565b9050600080670de0b6b3a7640000866113c5876001600160801b038e1685612d4e565b6113cf91906144f6565b6113d99190614515565b90506000620186a061140b7f0000000000000000000000000000000000000000000000000000000000000000826144de565b61141590846144f6565b61141f9190614515565b905061142a8161336c565b6114338661336c565b61143d9190614537565b9250600083131561148f57620186a06114767f0000000000000000000000000000000000000000000000000000000000000000826144de565b61148090846144f6565b61148a9190614515565b611491565b845b9750600091506114b690506114b1866001600160801b038d166001612d4e565b612dea565b905060008060008413611555576114cd8c86614576565b91506001600160801b03821615611555576114f66114b1886001600160801b0385166000612d4e565b9050808760000181815161150a9190614576565b6001600160801b03908116909152600f8054849350909160009161153091859116614576565b92506101000a8154816001600160801b0302191690836001600160801b031602179055505b604080518a81526001600160801b038e811660208301528581168284015284811660608301528316608082015290516001600160a01b038c16917f35f432a64bd3767447a456650432406c6cacb885819947a202216eeea6820ecf919081900360a00190a2506115d186836115ca848f61459e565b338d612e57565b6115dc88338b6133d6565b50505050505050610fca60018055565b6115f46130ae565b600b546001600160a01b0316331461161f57604051633b6b86b160e01b815260040160405180910390fd5b61c3508163ffffffff1611156116485760405163da0afa5760e01b815260040160405180910390fd5b6116506125e0565b5050600d80546fffffffffffffffff0000000000000000191663ffffffff8516600160401b8102919091179091556040519081527f58a58c712558f3d6e20bed57421eb8f73048d881dea9e5bb80efb37c49680d1c9250602001905060405180910390a150565b336001600160a01b037f000000000000000000000000000000000000000000000000000000000000000016148015906117195750336001600160a01b037f00000000000000000000000000000000000000000000000000000000000000001614155b801561173057506002546001600160a01b03163314155b80156117655750336001600160a01b037f00000000000000000000000000000000000000000000000000000000000000001614155b1561178357604051638f5b12a760e01b815260040160405180910390fd5b61178b6125e0565b505050506111496134bc565b600b546001600160a01b031633146117c257604051633b6b86b160e01b815260040160405180910390fd5b600b54604080516001600160a01b03928316815291831660208301527f582d6cc2f042c43e00e0dd5c187f575daac294216d2afa075d9e1e27b0a40a94910160405180910390a1600b80546001600160a01b0319166001600160a01b0392909216919091179055565b604080518082019091526010546001600160801b038082168352600160801b909104166020820152600090610fca908484612d4e565b60606118957f00000000000000000000000000000000000000000000000000000000000000006001600160a01b03166134f9565b6118c77f00000000000000000000000000000000000000000000000000000000000000006001600160a01b03166134f9565b6040516020016118d89291906145c9565b604051602081830303815290604052905090565b336001600160a01b037f0000000000000000000000000000000000000000000000000000000000000000161461193557604051638b906c9760e01b815260040160405180910390fd5b600087900361195757604051631ff3ed9d60e01b815260040160405180910390fd5b600c80546119649061448e565b1590506119835760405162dc149f60e41b815260040160405180910390fd5b600c611990888a83614686565b5060005b85811015611a01576001601460008989858181106119b4576119b4614746565b90506020020160208101906119c99190614206565b6001600160a01b031681526020810191909152604001600020805460ff19169115159190911790556119fa8161475c565b9050611994565b5060005b83811015611a7257600160156000878785818110611a2557611a25614746565b9050602002016020810190611a3a9190614206565b6001600160a01b031681526020810191909152604001600020805460ff1916911515919091179055611a6b8161475c565b9050611a05565b5060405163453f31d560e01b81526001600160a01b037f0000000000000000000000000000000000000000000000000000000000000000169063453f31d590611ac19085908590600401614775565b60006040518083038186803b158015611ad957600080fd5b505afa158015611aed573d6000803e3d6000fd5b5060099250611b0191508390508483614686565b50611b0a6125e0565b50505050611b1661217f565b505050505050505050565b60003381611b2f8286611fc0565b905083811015611b8f5760405162461bcd60e51b815260206004820152602560248201527f45524332303a2064656372656173656420616c6c6f77616e63652062656c6f77604482015264207a65726f60d81b6064820152608401611301565b611b9c82868684036124bb565b506001949350505050565b600033610f72818585612ba3565b6000806000611bd9846001600160a01b031660009081526003602052604090205490565b6001600160a01b03909416600090815260136020908152604080832054601290925290912054949590949350915050565b6000611c14612126565b611c1c6125e0565b505060408051808201909152600f546001600160801b038082168352600160801b9091041660208201529150611c56905081866000612d4e565b9150611c7581611c6584612dea565b611c6e88612dea565b87876135b4565b50610fca60018055565b604080518082019091526010546001600160801b038082168352600160801b909104166020820152600090610fca908484613039565b6009805461118e9061448e565b611cca612126565b611cd26125e0565b50505050611ce1338383613767565b611cea60018055565b5050565b611cf6612126565b33611cff6125e0565b505033600090815260136020526040902054159150611d24905057611d2261217f565b505b611d2f8383336133d6565b600e54611d4e90829064010000000090046001600160e01b0316613246565b611df8576001600160a01b0381166000908152601360209081526040918290205482518084019093526010546001600160801b038082168552600160801b9091041691830191909152611da391906001612d4e565b6001600160a01b0382166000908152601260205260409081902054600e549151633b49de0f60e21b81526004810193909352602483015264010000000090046001600160e01b03166044820152606401611301565b50611cea60018055565b6000611e0c612f8d565b604080518082018252600f546001600160801b038082168352600160801b91829004811660208085019190915284518086019095526010548083168652929092048116918401919091529091908516600003611e75573060009081526003602052604090205494505b611e8a826001600160801b0387166001612d4e565b92506000611e988383613837565b905083811015611ec5576040516362ddb6d760e11b81526004810182905260248101859052604401611301565b8383600001818151611ed79190614576565b6001600160801b0316905250602083018051879190611ef7908390614576565b6001600160801b03908116909152611f13915030908816613857565b825160208401516001600160801b03908116600160801b02911617600f55611f656001600160a01b037f0000000000000000000000000000000000000000000000000000000000000000168686613988565b604080516001600160801b03881681526001600160a01b03871660208201529081018590527f14f6e172cd596e9f9c5d24e2d4010daa24f8f65f9274b259b66517b306c617b99060600160405180910390a150505092915050565b6001600160a01b03918216600090815260046020908152604080832093909416825291909152205490565b6000611ff56130ae565b611ffd612126565b336120066125e0565b5050505061201261217f565b50831561202457612024338533613767565b61203661203086612dea565b84613993565b600e5490925061205890829064010000000090046001600160e01b0316613246565b611c75576001600160a01b0381166000908152601360209081526040918290205482518084019093526010546001600160801b038082168552600160801b9091041691830191909152611da391906001612d4e565b6120b5612f8d565b6001600160a01b03811661211a5760405162461bcd60e51b815260206004820152602660248201527f4f776e61626c653a206e6577206f776e657220697320746865207a65726f206160448201526564647265737360d01b6064820152608401611301565b612123816131f4565b50565b6002600154036121785760405162461bcd60e51b815260206004820152601f60248201527f5265656e7472616e637947756172643a207265656e7472616e742063616c6c006044820152606401611301565b6002600155565b60408051808201909152600e5463ffffffff81168083526401000000009091046001600160e01b03166020830152600091904290036121ca57602001516001600160e01b0316919050565b6ec097ce7bc90715b34b9f10000000007f00000000000000000000000000000000000000000000000000000000000000006001600160a01b0316156122ed5760007f00000000000000000000000000000000000000000000000000000000000000006001600160a01b031663feaf968c6040518163ffffffff1660e01b815260040160a060405180830381865afa158015612269573d6000803e3d6000fd5b505050506040513d601f19601f8201168201806040525081019061228d91906147be565b505050915050600081136122df576040516322ad99db60e21b81526001600160a01b037f0000000000000000000000000000000000000000000000000000000000000000166004820152602401611301565b6122e981836144f6565b9150505b7f00000000000000000000000000000000000000000000000000000000000000006001600160a01b0316156124005760007f00000000000000000000000000000000000000000000000000000000000000006001600160a01b031663feaf968c6040518163ffffffff1660e01b815260040160a060405180830381865afa15801561237c573d6000803e3d6000fd5b505050506040513d601f19601f820116820180604052508101906123a091906147be565b505050915050600081136123f2576040516322ad99db60e21b81526001600160a01b037f0000000000000000000000000000000000000000000000000000000000000000166004820152602401611301565b6123fc8183614515565b9150505b61242a7f000000000000000000000000000000000000000000000000000000000000000082614515565b92506001600160e01b038311156124545760405163057b0e2160e41b815260040160405180910390fd5b6001600160e01b0383166020830181905263ffffffff421680845264010000000090910217600e556040517f4fc1b45960547ee95894b08a284c3c066cf5aca706a7420639c42c3ec2e118a4906124ae9085815260200190565b60405180910390a1505090565b6001600160a01b03831661251d5760405162461bcd60e51b8152602060048201526024808201527f45524332303a20617070726f76652066726f6d20746865207a65726f206164646044820152637265737360e01b6064820152608401611301565b6001600160a01b03821661257e5760405162461bcd60e51b815260206004820152602260248201527f45524332303a20617070726f766520746f20746865207a65726f206164647265604482015261737360f01b6064820152608401611301565b6001600160a01b0383811660008181526004602090815260408083209487168084529482529182902085905590518481527f8c5be1e5ebec7d5bd14f71427d1e84f3dd0314c0f7b2291e5b200ac8c7c3b92591015b60405180910390a3505050565b60408051608081018252600d546001600160401b038082168352600160401b820481166020840152600160801b82048116938301849052600160c01b9091041660608201526000918291829182919042900361264157606001519050610fa5565b604080518082018252600f546001600160801b038082168352600160801b918290048116602080850191909152845180860190955260105480831686529290920416908301819052909190158061269a575060005460ff165b156127285760005460ff166126b45763096ba6c460608401525b6001600160401b0342811660408501819052438216808652600d8054602088015160608901518616600160c01b026001600160c01b03600160801b909602959095166001600160801b0391909616600160401b026001600160801b0319909216909317179190911692909217179055612b20565b600083604001516001600160401b031642612743919061480e565b835183519192506000916001600160801b03918216916127679116620186a06144f6565b6127719190614515565b905060008560600151838388600001516001600160401b031643612795919061480e565b604080516001600160401b0390951660208601528401929092526060830152608082015260a00160408051601f1981840301815290829052631b54c1a360e01b825291506001600160a01b037f00000000000000000000000000000000000000000000000000000000000000001690631b54c1a39061281b908490600990600401614825565b602060405180830381865afa158015612838573d6000803e3d6000fd5b505050506040513d601f19601f8201168201806040525081019061285c91906148c0565b606080880151604080516001600160401b03928316815260208101889052908101869052908316918101919091529097507fc63977c8e2362a31182dc8e89a52252f9836922738e0abcfc0de6924972eafe59060800160405180910390a16001600160401b038088166060880181905242821660408901524390911687528451670de0b6b3a764000091906128fa906001600160801b0316866144f6565b61290491906144f6565b61290e9190614515565b8451909a506001600160801b03906129289082168c6144de565b1115801561294b575084516001600160801b03906129489082168c6144de565b11155b15612a87578984600001818151612962919061459e565b6001600160801b031690525084518a90869061297f90839061459e565b6001600160801b031690525060208601516001600160401b031615612a2a57620186a086602001516001600160401b03168b6129bb91906144f6565b6129c59190614515565b85519099506129de908a906001600160801b031661480e565b60208601516129f6906001600160801b03168b6144f6565b612a009190614515565b97508785602001818151612a14919061459e565b6001600160801b0316905250612a2a3089613b60565b606080870151604080518d81526001600160401b03909216602083015281018590529081018a9052608081018990527f50225349cc7e3814c4fa5fe6baef7a3c4cac55e92c64b1f4a5d1ba55e65dcc829060a00160405180910390a15b505082516020808501516001600160801b03908116600160801b90810293821693909317600f558651600d80548985015160408b015160608c01516001600160401b03908116600160c01b026001600160c01b039282168a0292909216928116600160401b026001600160801b031994909416951694909417919091178416179190911790558451918501518116909202911617601055505b50505090919293565b6000612b358484611fc0565b90506000198114612b9d5781811015612b905760405162461bcd60e51b815260206004820152601d60248201527f45524332303a20696e73756666696369656e7420616c6c6f77616e63650000006044820152606401611301565b612b9d84848484036124bb565b50505050565b6001600160a01b038316612c075760405162461bcd60e51b815260206004820152602560248201527f45524332303a207472616e736665722066726f6d20746865207a65726f206164604482015264647265737360d81b6064820152608401611301565b6001600160a01b038216612c695760405162461bcd60e51b815260206004820152602360248201527f45524332303a207472616e7366657220746f20746865207a65726f206164647260448201526265737360e81b6064820152608401611301565b6001600160a01b03831660009081526003602052604090205481811015612ce15760405162461bcd60e51b815260206004820152602660248201527f45524332303a207472616e7366657220616d6f756e7420657863656564732062604482015265616c616e636560d01b6064820152608401611301565b6001600160a01b0380851660008181526003602052604080822086860390559286168082529083902080548601905591517fddf252ad1be2c89b69c2b068fc378daa952ba7f163c4a11628f55a4df523b3ef90612d419086815260200190565b60405180910390a3612b9d565b600083602001516001600160801b0316600003612d6c575081610fca565b602084015184516001600160801b0391821691612d8a9116856144f6565b612d949190614515565b9050818015612dd257508284600001516001600160801b031685602001516001600160801b031683612dc691906144f6565b612dd09190614515565b105b15610fca57612de28160016144de565b949350505050565b60006001600160801b03821115612e535760405162461bcd60e51b815260206004820152602760248201527f53616665436173743a2076616c756520646f65736e27742066697420696e20316044820152663238206269747360c81b6064820152608401611301565b5090565b8385600001818151612e699190614576565b6001600160801b0316905250602085018051849190612e89908390614576565b6001600160801b039081169091526001600160a01b03831660009081526013602052604081208054928716935091612ec290849061480e565b9091555050845160208601516001600160801b03908116600160801b029116176010556001600160a01b0382163014612f3357612f336001600160a01b037f00000000000000000000000000000000000000000000000000000000000000001683306001600160801b038816613c21565b604080516001600160801b038087168252851660208201526001600160a01b0380841692908516917f9dc1449a0ff0c152e18e8289d865b47acc6e1b76b1ecb239c13d6ee22a9206a7910160405180910390a35050505050565b6002546001600160a01b031633146111495760405162461bcd60e51b815260206004820181905260248201527f4f776e61626c653a2063616c6c6572206973206e6f7420746865206f776e65726044820152606401611301565b612fef613c2d565b6000805460ff191690557f5db9ee0a495bf2e6ff9c91a7834c1ba4fdd244a5e8aa4e537bd38aeae4b073aa335b6040516001600160a01b03909116815260200160405180910390a1565b82516000906001600160801b03168103613054575081610fca565b835160208501516001600160801b03918216916130729116856144f6565b61307c9190614515565b9050818015612dd257508284602001516001600160801b031685600001516001600160801b031683612dc691906144f6565b60005460ff16156111495760405162461bcd60e51b815260206004820152601060248201526f14185d5cd8589b194e881c185d5cd95960821b6044820152606401611301565b8284600001818151613106919061459e565b6001600160801b031690525060208401805183919061312690839061459e565b6001600160801b03908116909152613142915082908416613b60565b835160208501516001600160801b03908116600160801b0291811691909117600f5561319e906001600160a01b037f00000000000000000000000000000000000000000000000000000000000000001690339030908716613c21565b604080516001600160801b038086168252841660208201526001600160a01b0383169133917fdcbc1c05240f31ff3ad067ef1ee35ce4997762752e3a095284754544f4c709d7910160405180910390a350505050565b600280546001600160a01b038381166001600160a01b0319831681179093556040519116919082907f8be0079c531659141344cd1fd0a4f28419497f9722a3daafe3b4186f6b6457e090600090a35050565b60007f000000000000000000000000000000000000000000000000000000000000000060000361327857506001610f78565b6001600160a01b03831660009081526013602090815260408083205481518083019092526010546001600160801b038082168452600160801b90910416928201929092526132c7916001612d4e565b9050806000036132db576001915050610f78565b6001600160a01b0384166000908152601260205260408120549081900361330757600092505050610f78565b600081620186a0670de0b6b3a764000061332188876144f6565b61332b9190614515565b61333591906144f6565b61333f9190614515565b7f000000000000000000000000000000000000000000000000000000000000000010159695505050505050565b60006001600160ff1b03821115612e535760405162461bcd60e51b815260206004820152602860248201527f53616665436173743a2076616c756520646f65736e27742066697420696e2061604482015267371034b73a191a9b60c11b6064820152608401611301565b6001600160a01b038116600090815260126020526040812080548592906133fe90849061480e565b925050819055508260116000828254613417919061480e565b90915550506001600160a01b0382163014613460576134606001600160a01b037f0000000000000000000000000000000000000000000000000000000000000000168385613988565b806001600160a01b0316826001600160a01b0316336001600160a01b03167fbc290bb45104f73cf92115c9603987c3f8fd30c182a13603d8cffa49b5f59952866040516134af91815260200190565b60405180910390a4505050565b6134c46130ae565b6000805460ff191660011790557f62e78cea01bee320cd4e420270b5ea74000d11b0c9f74754ebdbfc544b05a25861301c3390565b60408051600481526024810182526020810180516001600160e01b03166395d89b4160e01b179052905160609160009182916001600160a01b0386169161354091906148e9565b600060405180830381855afa9150503d806000811461357b576040519150601f19603f3d011682016040523d82523d6000602084013e613580565b606091505b5091509150816135ab57604051806040016040528060038152602001623f3f3f60e81b815250612de2565b612de281613c76565b336001600160a01b038216146135f55760006135d08233611fc0565b905060001981146135f3576135f38233610fee6001600160801b0388168561480e565b505b604080518082019091526010546001600160801b038082168352600160801b90910416602082015260009061362b908790613837565b9050846001600160801b0316811015613669576040516362ddb6d760e11b8152600481018290526001600160801b0386166024820152604401611301565b848660000181815161367b9190614576565b6001600160801b031690525060208601805185919061369b908390614576565b6001600160801b03908116909152875160208901518216600160801b0290821617600f556136cd915083908616613857565b61370a6001600160a01b037f000000000000000000000000000000000000000000000000000000000000000016846001600160801b038816613988565b604080516001600160801b038088168252861660208201526001600160a01b03808516929086169133917ffbde797d201c681b91056529119e0b02407c7bb96a4a2c75c01fc9667232c8db910160405180910390a4505050505050565b6001600160a01b0381166000908152601260205260408120805484929061378f9084906144de565b9250508190555081601160008282546137a891906144de565b90915550506001600160a01b03831630146137f2576137f26001600160a01b037f000000000000000000000000000000000000000000000000000000000000000016843085613c21565b806001600160a01b0316836001600160a01b03167fa32435755c235de2976ed44a75a2f85cb01faf0c894f639fe0c32bb9455fea8f846040516125d391815260200190565b8051825160009161384791614576565b6001600160801b03169392505050565b6001600160a01b0382166138b75760405162461bcd60e51b815260206004820152602160248201527f45524332303a206275726e2066726f6d20746865207a65726f206164647265736044820152607360f81b6064820152608401611301565b6001600160a01b0382166000908152600360205260409020548181101561392b5760405162461bcd60e51b815260206004820152602260248201527f45524332303a206275726e20616d6f756e7420657863656564732062616c616e604482015261636560f01b6064820152608401611301565b6001600160a01b03831660008181526003602090815260408083208686039055600580548790039055518581529192917fddf252ad1be2c89b69c2b068fc378daa952ba7f163c4a11628f55a4df523b3ef91016125d3565b505050565b613983838383613df8565b6040805180820182526010546001600160801b038082168352600160801b9182900481166020808501919091528451808601909552600f54808316865292909204169083015260009182906139e89083613837565b9050846001600160801b0316811015613a26576040516362ddb6d760e11b8152600481018290526001600160801b0386166024820152604401611301565b613a3b826001600160801b0387166001613039565b92508482600001818151613a4f919061459e565b6001600160801b0316905250602082018051849190613a6f90839061459e565b6001600160801b0390811690915283516020808601518316600160801b0291909216176010553360009081526013909152604081208054869350909190613ab79084906144de565b90915550506001600160a01b0384163014613b0957613b096001600160a01b037f000000000000000000000000000000000000000000000000000000000000000016856001600160801b038816613988565b604080516001600160801b0387168152602081018590526001600160a01b0386169133917f01348584ec81ac7acd52b7d66d9ade986dd909f3d513881c190fc31c90527efe910160405180910390a3505092915050565b6001600160a01b038216613bb65760405162461bcd60e51b815260206004820152601f60248201527f45524332303a206d696e7420746f20746865207a65726f2061646472657373006044820152606401611301565b8060056000828254613bc891906144de565b90915550506001600160a01b0382166000818152600360209081526040808320805486019055518481527fddf252ad1be2c89b69c2b068fc378daa952ba7f163c4a11628f55a4df523b3ef910160405180910390a35050565b612b9d84848484613e5b565b60005460ff166111495760405162461bcd60e51b815260206004820152601460248201527314185d5cd8589b194e881b9bdd081c185d5cd95960621b6044820152606401611301565b60606040825110613c955781806020019051810190610f789190614905565b8151602003613dd45760005b60208160ff16108015613cd65750828160ff1681518110613cc457613cc4614746565b01602001516001600160f81b03191615155b15613ced5780613ce5816149a6565b915050613ca1565b60008160ff166001600160401b03811115613d0a57613d0a614622565b6040519080825280601f01601f191660200182016040528015613d34576020820181803683370190505b509050600091505b60208260ff16108015613d715750838260ff1681518110613d5f57613d5f614746565b01602001516001600160f81b03191615155b15610fca57838260ff1681518110613d8b57613d8b614746565b602001015160f81c60f81b818360ff1681518110613dab57613dab614746565b60200101906001600160f81b031916908160001a90535081613dcc816149a6565b925050613d3c565b50506040805180820190915260038152623f3f3f60e81b602082015290565b919050565b6040516001600160a01b03831660248201526044810182905261398390849063a9059cbb60e01b906064015b60408051601f198184030181529190526020810180516001600160e01b03166001600160e01b031990931692909217909152613e93565b6040516001600160a01b0380851660248301528316604482015260648101829052612b9d9085906323b872dd60e01b90608401613e24565b6000613ee8826040518060400160405280602081526020017f5361666545524332303a206c6f772d6c6576656c2063616c6c206661696c6564815250856001600160a01b0316613f659092919063ffffffff16565b8051909150156139835780806020019051810190613f0691906149c5565b6139835760405162461bcd60e51b815260206004820152602a60248201527f5361666545524332303a204552433230206f7065726174696f6e20646964206e6044820152691bdd081cdd58d8d9595960b21b6064820152608401611301565b6060612de2848460008585600080866001600160a01b03168587604051613f8c91906148e9565b60006040518083038185875af1925050503d8060008114613fc9576040519150601f19603f3d011682016040523d82523d6000602084013e613fce565b606091505b5091509150613fdf87838387613fea565b979650505050505050565b60608315614059578251600003614052576001600160a01b0385163b6140525760405162461bcd60e51b815260206004820152601d60248201527f416464726573733a2063616c6c20746f206e6f6e2d636f6e74726163740000006044820152606401611301565b5081612de2565b612de2838381511561406e5781518083602001fd5b8060405162461bcd60e51b815260040161130191906140e0565b60005b838110156140a357818101518382015260200161408b565b83811115612b9d5750506000910152565b600081518084526140cc816020860160208601614088565b601f01601f19169290920160200192915050565b602081526000610fca60208301846140b4565b80356001600160a01b0381168114613df357600080fd5b6000806040838503121561411d57600080fd5b614126836140f3565b946020939093013593505050565b60008060006060848603121561414957600080fd5b614152846140f3565b9250614160602085016140f3565b9150604084013590509250925092565b6000806040838503121561418357600080fd5b82359150614193602084016140f3565b90509250929050565b801515811461212357600080fd5b600080604083850312156141bd57600080fd5b6141c6836140f3565b915060208301356141d68161419c565b809150509250929050565b600080604083850312156141f457600080fd5b8235915060208301356141d68161419c565b60006020828403121561421857600080fd5b610fca826140f3565b80356001600160801b0381168114613df357600080fd5b60008060006060848603121561424d57600080fd5b61425684614221565b92506020840135915061426b604085016140f3565b90509250925092565b60006020828403121561428657600080fd5b813563ffffffff81168114610fca57600080fd5b60008083601f8401126142ac57600080fd5b5081356001600160401b038111156142c357600080fd5b6020830191508360208285010111156142db57600080fd5b9250929050565b60008083601f8401126142f457600080fd5b5081356001600160401b0381111561430b57600080fd5b6020830191508360208260051b85010111156142db57600080fd5b6000806000806000806000806080898b03121561434257600080fd5b88356001600160401b038082111561435957600080fd5b6143658c838d0161429a565b909a50985060208b013591508082111561437e57600080fd5b61438a8c838d016142e2565b909850965060408b01359150808211156143a357600080fd5b6143af8c838d016142e2565b909650945060608b01359150808211156143c857600080fd5b506143d58b828c0161429a565b999c989b5096995094979396929594505050565b6000806000606084860312156143fe57600080fd5b8335925061440e602085016140f3565b915061426b604085016140f3565b6000806040838503121561442f57600080fd5b61443883614221565b9150614193602084016140f3565b6000806040838503121561445957600080fd5b614438836140f3565b60008060006060848603121561447757600080fd5b833592506020840135915061426b604085016140f3565b600181811c908216806144a257607f821691505b6020821081036144c257634e487b7160e01b600052602260045260246000fd5b50919050565b634e487b7160e01b600052601160045260246000fd5b600082198211156144f1576144f16144c8565b500190565b6000816000190483118215151615614510576145106144c8565b500290565b60008261453257634e487b7160e01b600052601260045260246000fd5b500490565b60008083128015600160ff1b850184121615614555576145556144c8565b6001600160ff1b0384018313811615614570576145706144c8565b50500390565b60006001600160801b0383811690831681811015614596576145966144c8565b039392505050565b60006001600160801b038083168185168083038211156145c0576145c06144c8565b01949350505050565b70026bab3b2b72632b73234b733ab1890169607d1b8152600083516145f5816011850160208801614088565b602f60f81b6011918401918201528351614616816012840160208801614088565b01601201949350505050565b634e487b7160e01b600052604160045260246000fd5b601f82111561398357600081815260208120601f850160051c8101602086101561465f5750805b601f850160051c820191505b8181101561467e5782815560010161466b565b505050505050565b6001600160401b0383111561469d5761469d614622565b6146b1836146ab835461448e565b83614638565b6000601f8411600181146146e557600085156146cd5750838201355b600019600387901b1c1916600186901b17835561473f565b600083815260209020601f19861690835b8281101561471657868501358255602094850194600190920191016146f6565b50868210156147335760001960f88860031b161c19848701351681555b505060018560011b0183555b5050505050565b634e487b7160e01b600052603260045260246000fd5b60006001820161476e5761476e6144c8565b5060010190565b60208152816020820152818360408301376000818301604090810191909152601f909201601f19160101919050565b805169ffffffffffffffffffff81168114613df357600080fd5b600080600080600060a086880312156147d657600080fd5b6147df866147a4565b9450602086015193506040860151925060608601519150614802608087016147a4565b90509295509295909350565b600082821015614820576148206144c8565b500390565b60408152600061483860408301856140b4565b6020838203818501526000855461484e8161448e565b808552600182811680156148695760018114614883576148b1565b60ff1984168787015282151560051b8701860194506148b1565b896000528560002060005b848110156148a957815489820189015290830190870161488e565b880187019550505b50929998505050505050505050565b6000602082840312156148d257600080fd5b81516001600160401b0381168114610fca57600080fd5b600082516148fb818460208701614088565b9190910192915050565b60006020828403121561491757600080fd5b81516001600160401b038082111561492e57600080fd5b818401915084601f83011261494257600080fd5b81518181111561495457614954614622565b604051601f8201601f19908116603f0116810190838211818310171561497c5761497c614622565b8160405282815287602084870101111561499557600080fd5b613fdf836020830160208801614088565b600060ff821660ff81036149bc576149bc6144c8565b60010192915050565b6000602082840312156149d757600080fd5b8151610fca8161419c56fea2646970667358221220250eb9ece07ed22db9ba5124cd446188d669c83df56f3bb655c225ba2dd6c1d264736f6c634300080f0033",
    "linkReferences": {}
  },
  "methodIdentifiers": {
    "CIRCUIT_BREAKER_ADDRESS()": "ad0c3bb5",
    "COMPTROLLER_ADDRESS()": "fbaa8b85",
    "DEPLOYER_ADDRESS()": "d2a156e0",
    "FRAXLEND_WHITELIST_ADDRESS()": "ef14900d",
    "TIME_LOCK_ADDRESS()": "657a409c",
    "addCollateral(uint256,address)": "cadac479",
    "addInterest()": "0d09365c",
    "allowance(address,address)": "dd62ed3e",
    "approve(address,uint256)": "095ea7b3",
    "approvedBorrowers(address)": "c936c624",
    "approvedLenders(address)": "afa85de6",
    "asset()": "38d52e0f",
    "balanceOf(address)": "70a08231",
    "borrowAsset(uint256,uint256,address)": "e5f13b16",
    "borrowerWhitelistActive()": "2165d72f",
    "changeFee(uint32)": "8142dd53",
    "cleanLiquidationFee()": "11a2e4bc",
    "collateralContract()": "c6e1c7c9",
    "currentRateInfo()": "95d14ca8",
    "decimals()": "313ce567",
    "decreaseAllowance(address,uint256)": "a457c2d7",
    "deposit(uint256,address)": "6e553f65",
    "dirtyLiquidationFee()": "4732428c",
    "exchangeRateInfo()": "fbbbf94c",
    "getConstants()": "9a295e73",
    "getImmutableAddressBool()": "36fad62d",
    "getImmutableUint256()": "fea10d5d",
    "getPairAccounting()": "cdd72d52",
    "getUserSnapshot(address)": "b68d0a09",
    "increaseAllowance(address,uint256)": "39509351",
    "initialize(string,address[],address[],bytes)": "99024fc1",
    "lenderWhitelistActive()": "4962e494",
    "liquidate(uint128,uint256,address)": "721b0a47",
    "maturityDate()": "d59624b4",
    "maxLTV()": "f384bd05",
    "name()": "06fdde03",
    "oracleDivide()": "0053f733",
    "oracleMultiply()": "9bdff2e6",
    "oracleNormalization()": "c10c92a1",
    "owner()": "8da5cb5b",
    "pause()": "8456cb59",
    "paused()": "5c975abb",
    "penaltyRate()": "d6b7494f",
    "rateContract()": "eee24219",
    "rateInitCallData()": "c7be9786",
    "redeem(uint256,address,address)": "ba087652",
    "removeCollateral(uint256,address)": "d41ddc96",
    "renounceOwnership()": "715018a6",
    "repayAsset(uint256,address)": "3d417d2d",
    "setSwapper(address,bool)": "3f2617cb",
    "setTimeLock(address)": "891682d2",
    "swappers(address)": "8cad7fbe",
    "symbol()": "95d89b41",
    "toAssetAmount(uint256,bool)": "404ffa7a",
    "toAssetShares(uint256,bool)": "56968f97",
    "toBorrowAmount(uint256,bool)": "94e301e0",
    "toBorrowShares(uint256,bool)": "c270a544",
    "totalAsset()": "f9557ccb",
    "totalBorrow()": "8285ef40",
    "totalCollateral()": "4ac8eb5f",
    "totalSupply()": "18160ddd",
    "transfer(address,uint256)": "a9059cbb",
    "transferFrom(address,address,uint256)": "23b872dd",
    "transferOwnership(address)": "f2fde38b",
    "unpause()": "3f4ba83a",
    "updateExchangeRate()": "02ce728f",
    "userBorrowShares(address)": "4fd422df",
    "userCollateralBalance(address)": "b5af3062",
    "version()": "54fd4d50",
    "withdrawFees(uint128,address)": "daf33f2a"
  },
  "id": 76
}