{
  "abi": [
    {
      "inputs": [],
      "stateMutability": "nonpayable",
      "type": "constructor"
    },
    {
      "inputs": [],
      "name": "TransactionFailed",
      "type": "error"
    },
    {
      "anonymous": false,
      "inputs": [
        {
          "indexed": true,
          "internalType": "address",
          "name": "previousOwner",
          "type": "address"
        },
        {
          "indexed": true,
          "internalType": "address",
          "name": "newOwner",
          "type": "address"
        }
      ],
      "name": "OwnershipTransferred",
      "type": "event"
    },
    {
      "inputs": [],
      "name": "owner",
      "outputs": [
        {
          "internalType": "address",
          "name": "",
          "type": "address"
        }
      ],
      "stateMutability": "view",
      "type": "function"
    },
    {
      "inputs": [],
      "name": "renounceOwnership",
      "outputs": [],
      "stateMutability": "nonpayable",
      "type": "function"
    },
    {
      "inputs": [
        {
          "internalType": "address",
          "name": "newOwner",
          "type": "address"
        }
      ],
      "name": "transferOwnership",
      "outputs": [],
      "stateMutability": "nonpayable",
      "type": "function"
    },
    {
      "inputs": [
        {
          "internalType": "contract IERC20",
          "name": "_token",
          "type": "address"
        }
      ],
      "name": "withdraw",
      "outputs": [],
      "stateMutability": "nonpayable",
      "type": "function"
    },
    {
      "inputs": [],
      "name": "withdrawNative",
      "outputs": [],
      "stateMutability": "nonpayable",
      "type": "function"
    },
    {
      "stateMutability": "payable",
      "type": "receive"
    }
  ],
  "bytecode": {
    "object": "0x608060405234801561001057600080fd5b5061001a3361001f565b61006f565b600080546001600160a01b038381166001600160a01b0319831681178455604051919092169283917f8be0079c531659141344cd1fd0a4f28419497f9722a3daafe3b4186f6b6457e09190a35050565b61071a8061007e6000396000f3fe60806040526004361061004e5760003560e01c806350431ce41461005a57806351cff8d914610071578063715018a6146100915780638da5cb5b146100a6578063f2fde38b146100d257600080fd5b3661005557005b600080fd5b34801561006657600080fd5b5061006f6100f2565b005b34801561007d57600080fd5b5061006f61008c366004610612565b610177565b34801561009d57600080fd5b5061006f610210565b3480156100b257600080fd5b50600054604080516001600160a01b039092168252519081900360200190f35b3480156100de57600080fd5b5061006f6100ed366004610612565b610224565b6100fa61029f565b600080546040516001600160a01b03909116914791839083908381818185875af1925050503d806000811461014b576040519150601f19603f3d011682016040523d82523d6000602084013e610150565b606091505b5050905080610172576040516317f2c34560e31b815260040160405180910390fd5b505050565b61017f61029f565b61020d6101946000546001600160a01b031690565b6040516370a0823160e01b81523060048201526001600160a01b038416906370a0823190602401602060405180830381865afa1580156101d8573d6000803e3d6000fd5b505050506040513d601f19601f820116820180604052508101906101fc9190610636565b6001600160a01b03841691906102f9565b50565b61021861029f565b610222600061034b565b565b61022c61029f565b6001600160a01b0381166102965760405162461bcd60e51b815260206004820152602660248201527f4f776e61626c653a206e6577206f776e657220697320746865207a65726f206160448201526564647265737360d01b60648201526084015b60405180910390fd5b61020d8161034b565b6000546001600160a01b031633146102225760405162461bcd60e51b815260206004820181905260248201527f4f776e61626c653a2063616c6c6572206973206e6f7420746865206f776e6572604482015260640161028d565b604080516001600160a01b038416602482015260448082018490528251808303909101815260649091019091526020810180516001600160e01b031663a9059cbb60e01b17905261017290849061039b565b600080546001600160a01b038381166001600160a01b0319831681178455604051919092169283917f8be0079c531659141344cd1fd0a4f28419497f9722a3daafe3b4186f6b6457e09190a35050565b60006103f0826040518060400160405280602081526020017f5361666545524332303a206c6f772d6c6576656c2063616c6c206661696c6564815250856001600160a01b031661046d9092919063ffffffff16565b805190915015610172578080602001905181019061040e919061064f565b6101725760405162461bcd60e51b815260206004820152602a60248201527f5361666545524332303a204552433230206f7065726174696f6e20646964206e6044820152691bdd081cdd58d8d9595960b21b606482015260840161028d565b606061047c8484600085610484565b949350505050565b6060824710156104e55760405162461bcd60e51b815260206004820152602660248201527f416464726573733a20696e73756666696369656e742062616c616e636520666f6044820152651c8818d85b1b60d21b606482015260840161028d565b600080866001600160a01b031685876040516105019190610695565b60006040518083038185875af1925050503d806000811461053e576040519150601f19603f3d011682016040523d82523d6000602084013e610543565b606091505b50915091506105548783838761055f565b979650505050505050565b606083156105ce5782516000036105c7576001600160a01b0385163b6105c75760405162461bcd60e51b815260206004820152601d60248201527f416464726573733a2063616c6c20746f206e6f6e2d636f6e7472616374000000604482015260640161028d565b508161047c565b61047c83838151156105e35781518083602001fd5b8060405162461bcd60e51b815260040161028d91906106b1565b6001600160a01b038116811461020d57600080fd5b60006020828403121561062457600080fd5b813561062f816105fd565b9392505050565b60006020828403121561064857600080fd5b5051919050565b60006020828403121561066157600080fd5b8151801515811461062f57600080fd5b60005b8381101561068c578181015183820152602001610674565b50506000910152565b600082516106a7818460208701610671565b9190910192915050565b60208152600082518060208401526106d0816040850160208701610671565b601f01601f1916919091016040019291505056fea2646970667358221220a9bb34b014b71d60eb5aca69417b8f5e3a9eb3ea60cbe74b2450b34712df8ae564736f6c63430008110033",
    "linkReferences": {}
  },
  "methodIdentifiers": {
    "owner()": "8da5cb5b",
    "renounceOwnership()": "715018a6",
    "transferOwnership(address)": "f2fde38b",
    "withdraw(address)": "51cff8d9",
    "withdrawNative()": "50431ce4"
  },
  "id": 53
}