{
  "abi": [
    {
      "inputs": [],
      "stateMutability": "nonpayable",
      "type": "constructor"
    },
    {
      "inputs": [],
      "name": "TransactionFailed",
      "type": "error"
    },
    {
      "anonymous": false,
      "inputs": [
        {
          "indexed": true,
          "internalType": "address",
          "name": "previousOwner",
          "type": "address"
        },
        {
          "indexed": true,
          "internalType": "address",
          "name": "newOwner",
          "type": "address"
        }
      ],
      "name": "OwnershipTransferred",
      "type": "event"
    },
    {
      "inputs": [],
      "name": "owner",
      "outputs": [
        {
          "internalType": "address",
          "name": "",
          "type": "address"
        }
      ],
      "stateMutability": "view",
      "type": "function"
    },
    {
      "inputs": [],
      "name": "renounceOwnership",
      "outputs": [],
      "stateMutability": "nonpayable",
      "type": "function"
    },
    {
      "inputs": [
        {
          "internalType": "address",
          "name": "newOwner",
          "type": "address"
        }
      ],
      "name": "transferOwnership",
      "outputs": [],
      "stateMutability": "nonpayable",
      "type": "function"
    },
    {
      "inputs": [
        {
          "internalType": "contract IERC20",
          "name": "_token",
          "type": "address"
        }
      ],
      "name": "withdraw",
      "outputs": [],
      "stateMutability": "nonpayable",
      "type": "function"
    },
    {
      "inputs": [],
      "name": "withdrawNative",
      "outputs": [],
      "stateMutability": "nonpayable",
      "type": "function"
    },
    {
      "stateMutability": "payable",
      "type": "receive"
    }
  ],
  "bytecode": {
    "object": "0x608060405234801561001057600080fd5b5061001a3361001f565b61006f565b600080546001600160a01b038381166001600160a01b0319831681178455604051919092169283917f8be0079c531659141344cd1fd0a4f28419497f9722a3daafe3b4186f6b6457e09190a35050565b61070e8061007e6000396000f3fe60806040526004361061004e5760003560e01c806350431ce41461005a57806351cff8d914610071578063715018a6146100915780638da5cb5b146100a6578063f2fde38b146100d257600080fd5b3661005557005b600080fd5b34801561006657600080fd5b5061006f6100f2565b005b34801561007d57600080fd5b5061006f61008c366004610606565b610115565b34801561009d57600080fd5b5061006f6101ae565b3480156100b257600080fd5b50600054604080516001600160a01b039092168252519081900360200190f35b3480156100de57600080fd5b5061006f6100ed366004610606565b6101c2565b6100fa61023d565b6000546001600160a01b0316476101118282610297565b5050565b61011d61023d565b6101ab6101326000546001600160a01b031690565b6040516370a0823160e01b81523060048201526001600160a01b038416906370a0823190602401602060405180830381865afa158015610176573d6000803e3d6000fd5b505050506040513d601f19601f8201168201806040525081019061019a919061062a565b6001600160a01b03841691906102ed565b50565b6101b661023d565b6101c0600061033f565b565b6101ca61023d565b6001600160a01b0381166102345760405162461bcd60e51b815260206004820152602660248201527f4f776e61626c653a206e6577206f776e657220697320746865207a65726f206160448201526564647265737360d01b60648201526084015b60405180910390fd5b6101ab8161033f565b6000546001600160a01b031633146101c05760405162461bcd60e51b815260206004820181905260248201527f4f776e61626c653a2063616c6c6572206973206e6f7420746865206f776e6572604482015260640161022b565b600080600080600085875af19050806102e85760405162461bcd60e51b815260206004820152601360248201527211551217d514905394d1915497d19052531151606a1b604482015260640161022b565b505050565b604080516001600160a01b038416602482015260448082018490528251808303909101815260649091019091526020810180516001600160e01b031663a9059cbb60e01b1790526102e890849061038f565b600080546001600160a01b038381166001600160a01b0319831681178455604051919092169283917f8be0079c531659141344cd1fd0a4f28419497f9722a3daafe3b4186f6b6457e09190a35050565b60006103e4826040518060400160405280602081526020017f5361666545524332303a206c6f772d6c6576656c2063616c6c206661696c6564815250856001600160a01b03166104619092919063ffffffff16565b8051909150156102e857808060200190518101906104029190610643565b6102e85760405162461bcd60e51b815260206004820152602a60248201527f5361666545524332303a204552433230206f7065726174696f6e20646964206e6044820152691bdd081cdd58d8d9595960b21b606482015260840161022b565b60606104708484600085610478565b949350505050565b6060824710156104d95760405162461bcd60e51b815260206004820152602660248201527f416464726573733a20696e73756666696369656e742062616c616e636520666f6044820152651c8818d85b1b60d21b606482015260840161022b565b600080866001600160a01b031685876040516104f59190610689565b60006040518083038185875af1925050503d8060008114610532576040519150601f19603f3d011682016040523d82523d6000602084013e610537565b606091505b509150915061054887838387610553565b979650505050505050565b606083156105c25782516000036105bb576001600160a01b0385163b6105bb5760405162461bcd60e51b815260206004820152601d60248201527f416464726573733a2063616c6c20746f206e6f6e2d636f6e7472616374000000604482015260640161022b565b5081610470565b61047083838151156105d75781518083602001fd5b8060405162461bcd60e51b815260040161022b91906106a5565b6001600160a01b03811681146101ab57600080fd5b60006020828403121561061857600080fd5b8135610623816105f1565b9392505050565b60006020828403121561063c57600080fd5b5051919050565b60006020828403121561065557600080fd5b8151801515811461062357600080fd5b60005b83811015610680578181015183820152602001610668565b50506000910152565b6000825161069b818460208701610665565b9190910192915050565b60208152600082518060208401526106c4816040850160208701610665565b601f01601f1916919091016040019291505056fea2646970667358221220734daad2020936c1208f8b7bf5fad2c9b28974443422251b0958931bc7b71c5864736f6c63430008110033",
    "linkReferences": {}
  },
  "methodIdentifiers": {
    "owner()": "8da5cb5b",
    "renounceOwnership()": "715018a6",
    "transferOwnership(address)": "f2fde38b",
    "withdraw(address)": "51cff8d9",
    "withdrawNative()": "50431ce4"
  },
  "id": 62
}