{
  "abi": [
    {
      "inputs": [
        {
          "internalType": "address",
          "name": "_stakingToken",
          "type": "address"
        },
        {
          "internalType": "address",
          "name": "_rewardsToken",
          "type": "address"
        }
      ],
      "stateMutability": "nonpayable",
      "type": "constructor"
    },
    {
      "inputs": [],
      "name": "FeeNotSet",
      "type": "error"
    },
    {
      "inputs": [],
      "name": "NotYield",
      "type": "error"
    },
    {
      "inputs": [],
      "name": "TRANSFER_FAILED",
      "type": "error"
    },
    {
      "inputs": [],
      "name": "ZeroRewards",
      "type": "error"
    },
    {
      "anonymous": false,
      "inputs": [
        {
          "indexed": true,
          "internalType": "address",
          "name": "_caller",
          "type": "address"
        },
        {
          "indexed": false,
          "internalType": "uint256",
          "name": "_wethClaimed",
          "type": "uint256"
        },
        {
          "indexed": false,
          "internalType": "uint256",
          "name": "_mgnCompounded",
          "type": "uint256"
        }
      ],
      "name": "Compounded",
      "type": "event"
    },
    {
      "anonymous": false,
      "inputs": [
        {
          "indexed": true,
          "internalType": "address",
          "name": "_caller",
          "type": "address"
        },
        {
          "indexed": false,
          "internalType": "uint24",
          "name": "_fee",
          "type": "uint24"
        }
      ],
      "name": "FeeSet",
      "type": "event"
    },
    {
      "anonymous": false,
      "inputs": [
        {
          "indexed": true,
          "internalType": "address",
          "name": "previousOwner",
          "type": "address"
        },
        {
          "indexed": true,
          "internalType": "address",
          "name": "newOwner",
          "type": "address"
        }
      ],
      "name": "OwnershipTransferred",
      "type": "event"
    },
    {
      "anonymous": false,
      "inputs": [
        {
          "indexed": false,
          "internalType": "address",
          "name": "account",
          "type": "address"
        }
      ],
      "name": "Paused",
      "type": "event"
    },
    {
      "anonymous": false,
      "inputs": [
        {
          "indexed": false,
          "internalType": "address",
          "name": "token",
          "type": "address"
        },
        {
          "indexed": false,
          "internalType": "uint256",
          "name": "amount",
          "type": "uint256"
        }
      ],
      "name": "Recovered",
      "type": "event"
    },
    {
      "anonymous": false,
      "inputs": [
        {
          "indexed": false,
          "internalType": "uint256",
          "name": "reward",
          "type": "uint256"
        }
      ],
      "name": "RewardAdded",
      "type": "event"
    },
    {
      "anonymous": false,
      "inputs": [
        {
          "indexed": true,
          "internalType": "address",
          "name": "user",
          "type": "address"
        },
        {
          "indexed": false,
          "internalType": "uint256",
          "name": "reward",
          "type": "uint256"
        }
      ],
      "name": "RewardPaid",
      "type": "event"
    },
    {
      "anonymous": false,
      "inputs": [
        {
          "indexed": false,
          "internalType": "uint256",
          "name": "newDuration",
          "type": "uint256"
        }
      ],
      "name": "RewardsDurationUpdated",
      "type": "event"
    },
    {
      "anonymous": false,
      "inputs": [
        {
          "indexed": true,
          "internalType": "address",
          "name": "user",
          "type": "address"
        },
        {
          "indexed": false,
          "internalType": "uint256",
          "name": "amount",
          "type": "uint256"
        }
      ],
      "name": "Staked",
      "type": "event"
    },
    {
      "anonymous": false,
      "inputs": [
        {
          "indexed": false,
          "internalType": "address",
          "name": "account",
          "type": "address"
        }
      ],
      "name": "Unpaused",
      "type": "event"
    },
    {
      "anonymous": false,
      "inputs": [
        {
          "indexed": true,
          "internalType": "address",
          "name": "user",
          "type": "address"
        },
        {
          "indexed": false,
          "internalType": "uint256",
          "name": "amount",
          "type": "uint256"
        }
      ],
      "name": "Withdrawn",
      "type": "event"
    },
    {
      "anonymous": false,
      "inputs": [
        {
          "indexed": true,
          "internalType": "address",
          "name": "caller",
          "type": "address"
        },
        {
          "indexed": true,
          "internalType": "address",
          "name": "_yieldDistributor",
          "type": "address"
        }
      ],
      "name": "YieldDistributorSet",
      "type": "event"
    },
    {
      "inputs": [
        {
          "internalType": "address",
          "name": "account",
          "type": "address"
        }
      ],
      "name": "balanceOf",
      "outputs": [
        {
          "internalType": "uint256",
          "name": "",
          "type": "uint256"
        }
      ],
      "stateMutability": "view",
      "type": "function"
    },
    {
      "inputs": [
        {
          "internalType": "uint256",
          "name": "amount",
          "type": "uint256"
        }
      ],
      "name": "compound",
      "outputs": [
        {
          "internalType": "uint256",
          "name": "",
          "type": "uint256"
        }
      ],
      "stateMutability": "nonpayable",
      "type": "function"
    },
    {
      "inputs": [
        {
          "internalType": "address",
          "name": "account",
          "type": "address"
        }
      ],
      "name": "earned",
      "outputs": [
        {
          "internalType": "uint256",
          "name": "",
          "type": "uint256"
        }
      ],
      "stateMutability": "view",
      "type": "function"
    },
    {
      "inputs": [],
      "name": "exit",
      "outputs": [],
      "stateMutability": "nonpayable",
      "type": "function"
    },
    {
      "inputs": [],
      "name": "getReward",
      "outputs": [
        {
          "internalType": "uint256",
          "name": "",
          "type": "uint256"
        }
      ],
      "stateMutability": "nonpayable",
      "type": "function"
    },
    {
      "inputs": [],
      "name": "getRewardForDuration",
      "outputs": [
        {
          "internalType": "uint256",
          "name": "",
          "type": "uint256"
        }
      ],
      "stateMutability": "view",
      "type": "function"
    },
    {
      "inputs": [
        {
          "internalType": "uint256",
          "name": "_rewards",
          "type": "uint256"
        }
      ],
      "name": "issuanceRate",
      "outputs": [],
      "stateMutability": "nonpayable",
      "type": "function"
    },
    {
      "inputs": [],
      "name": "lastTimeRewardApplicable",
      "outputs": [
        {
          "internalType": "uint256",
          "name": "",
          "type": "uint256"
        }
      ],
      "stateMutability": "view",
      "type": "function"
    },
    {
      "inputs": [],
      "name": "lastUpdateTime",
      "outputs": [
        {
          "internalType": "uint256",
          "name": "",
          "type": "uint256"
        }
      ],
      "stateMutability": "view",
      "type": "function"
    },
    {
      "inputs": [],
      "name": "owner",
      "outputs": [
        {
          "internalType": "address",
          "name": "",
          "type": "address"
        }
      ],
      "stateMutability": "view",
      "type": "function"
    },
    {
      "inputs": [],
      "name": "pause",
      "outputs": [],
      "stateMutability": "nonpayable",
      "type": "function"
    },
    {
      "inputs": [],
      "name": "paused",
      "outputs": [
        {
          "internalType": "bool",
          "name": "",
          "type": "bool"
        }
      ],
      "stateMutability": "view",
      "type": "function"
    },
    {
      "inputs": [],
      "name": "periodFinish",
      "outputs": [
        {
          "internalType": "uint256",
          "name": "",
          "type": "uint256"
        }
      ],
      "stateMutability": "view",
      "type": "function"
    },
    {
      "inputs": [],
      "name": "renounceOwnership",
      "outputs": [],
      "stateMutability": "nonpayable",
      "type": "function"
    },
    {
      "inputs": [],
      "name": "rewardPerToken",
      "outputs": [
        {
          "internalType": "uint256",
          "name": "",
          "type": "uint256"
        }
      ],
      "stateMutability": "view",
      "type": "function"
    },
    {
      "inputs": [],
      "name": "rewardPerTokenStored",
      "outputs": [
        {
          "internalType": "uint256",
          "name": "",
          "type": "uint256"
        }
      ],
      "stateMutability": "view",
      "type": "function"
    },
    {
      "inputs": [],
      "name": "rewardRate",
      "outputs": [
        {
          "internalType": "uint256",
          "name": "",
          "type": "uint256"
        }
      ],
      "stateMutability": "view",
      "type": "function"
    },
    {
      "inputs": [
        {
          "internalType": "address",
          "name": "",
          "type": "address"
        }
      ],
      "name": "rewards",
      "outputs": [
        {
          "internalType": "uint256",
          "name": "",
          "type": "uint256"
        }
      ],
      "stateMutability": "view",
      "type": "function"
    },
    {
      "inputs": [],
      "name": "rewardsDuration",
      "outputs": [
        {
          "internalType": "uint256",
          "name": "",
          "type": "uint256"
        }
      ],
      "stateMutability": "view",
      "type": "function"
    },
    {
      "inputs": [],
      "name": "rewardsToken",
      "outputs": [
        {
          "internalType": "contract IERC20",
          "name": "",
          "type": "address"
        }
      ],
      "stateMutability": "view",
      "type": "function"
    },
    {
      "inputs": [
        {
          "internalType": "address",
          "name": "_yield",
          "type": "address"
        }
      ],
      "name": "setYield",
      "outputs": [],
      "stateMutability": "nonpayable",
      "type": "function"
    },
    {
      "inputs": [
        {
          "internalType": "uint256",
          "name": "amount",
          "type": "uint256"
        }
      ],
      "name": "stake",
      "outputs": [],
      "stateMutability": "nonpayable",
      "type": "function"
    },
    {
      "inputs": [],
      "name": "stakingToken",
      "outputs": [
        {
          "internalType": "contract IERC20",
          "name": "",
          "type": "address"
        }
      ],
      "stateMutability": "view",
      "type": "function"
    },
    {
      "inputs": [],
      "name": "totalSupply",
      "outputs": [
        {
          "internalType": "uint256",
          "name": "",
          "type": "uint256"
        }
      ],
      "stateMutability": "view",
      "type": "function"
    },
    {
      "inputs": [
        {
          "internalType": "address",
          "name": "newOwner",
          "type": "address"
        }
      ],
      "name": "transferOwnership",
      "outputs": [],
      "stateMutability": "nonpayable",
      "type": "function"
    },
    {
      "inputs": [],
      "name": "unpause",
      "outputs": [],
      "stateMutability": "nonpayable",
      "type": "function"
    },
    {
      "inputs": [
        {
          "internalType": "address",
          "name": "",
          "type": "address"
        }
      ],
      "name": "userRewardPerTokenPaid",
      "outputs": [
        {
          "internalType": "uint256",
          "name": "",
          "type": "uint256"
        }
      ],
      "stateMutability": "view",
      "type": "function"
    },
    {
      "inputs": [
        {
          "internalType": "uint256",
          "name": "amount",
          "type": "uint256"
        }
      ],
      "name": "withdraw",
      "outputs": [],
      "stateMutability": "nonpayable",
      "type": "function"
    },
    {
      "inputs": [],
      "name": "yieldDistributor",
      "outputs": [
        {
          "internalType": "address",
          "name": "",
          "type": "address"
        }
      ],
      "stateMutability": "view",
      "type": "function"
    }
  ],
  "bytecode": {
    "object": "0x60806040526000600455600060055562278d0060065534801561002157600080fd5b50604051620014f1380380620014f1833981016040819052610042916100ff565b600160005561005033610091565b6001805460ff60a01b19169055600280546001600160a01b039283166001600160a01b03199182161790915560038054939092169216919091179055610132565b600180546001600160a01b038381166001600160a01b0319831681179093556040519116919082907f8be0079c531659141344cd1fd0a4f28419497f9722a3daafe3b4186f6b6457e090600090a35050565b80516001600160a01b03811681146100fa57600080fd5b919050565b6000806040838503121561011257600080fd5b61011b836100e3565b9150610129602084016100e3565b90509250929050565b6113af80620001426000396000f3fe608060405234801561001057600080fd5b50600436106101ce5760003560e01c80638456cb5911610104578063c8f33c91116100a2578063df136d6511610071578063df136d651461039d578063e9fad8ee146103a6578063ebe2b12b146103ae578063f2fde38b146103b757600080fd5b8063c8f33c9114610366578063cd3daf9d1461036f578063d1af0c7d14610377578063d95edafe1461038a57600080fd5b8063a38c2c3d116100de578063a38c2c3d1461031a578063a694fc3a1461032d578063aa5f7e2614610340578063aba9c6281461035357600080fd5b80638456cb59146102e15780638b876347146102e95780638da5cb5b1461030957600080fd5b80633f4ba83a11610171578063715018a61161014b578063715018a61461029d57806372f702f3146102a55780637b0a47ee146102d057806380faa57d146102d957600080fd5b80633f4ba83a1461024f5780635c975abb1461025757806370a082311461027457600080fd5b80631c1f78eb116101ad5780631c1f78eb146102215780632e1a7d4d14610229578063386a95251461023e5780633d18b9121461024757600080fd5b80628cc262146101d35780630700037d146101f957806318160ddd14610219575b600080fd5b6101e66101e1366004611226565b6103ca565b6040519081526020015b60405180910390f35b6101e6610207366004611226565b600c6020526000908152604090205481565b600a546101e6565b6101e6610447565b61023c610237366004611256565b61045e565b005b6101e660065481565b6101e66105a6565b61023c610690565b600154600160a01b900460ff1660405190151581526020016101f0565b6101e6610282366004611226565b6001600160a01b03166000908152600d602052604090205490565b61023c6106a2565b6003546102b8906001600160a01b031681565b6040516001600160a01b0390911681526020016101f0565b6101e660055481565b6101e66106b4565b61023c6106cb565b6101e66102f7366004611226565b600b6020526000908152604090205481565b6001546001600160a01b03166102b8565b6009546102b8906001600160a01b031681565b61023c61033b366004611256565b6106db565b6101e661034e366004611256565b610818565b61023c610361366004611256565b6108cd565b6101e660075481565b6101e6610aaf565b6002546102b8906001600160a01b031681565b61023c610398366004611226565b610b10565b6101e660085481565b61023c610b64565b6101e660045481565b61023c6103c5366004611226565b610b85565b6001600160a01b0381166000908152600c6020908152604080832054600b909252822054670de0b6b3a764000090610400610aaf565b61040a9190611285565b6001600160a01b0385166000908152600d602052604090205461042d9190611298565b61043791906112af565b61044191906112d1565b92915050565b60006006546005546104599190611298565b905090565b610466610bfb565b3361046f610aaf565b60085561047a6106b4565b6007556001600160a01b038116156104c157610495816103ca565b6001600160a01b0382166000908152600c6020908152604080832093909355600854600b909152919020555b6000821161050a5760405162461bcd60e51b8152602060048201526011602482015270043616e6e6f74207769746864726177203607c1b60448201526064015b60405180910390fd5b81600a546105189190611285565b600a55336000908152600d6020526040902054610536908390611285565b336000818152600d6020526040902091909155600354610562916001600160a01b039091169084610c54565b60405182815233907f7084f5476618d8e60b11ef0d7d3f06914655adb8793e28ff7f018d4c76d505d5906020015b60405180910390a2506105a36001600055565b50565b60006105b0610bfb565b336105b9610aaf565b6008556105c46106b4565b6007556001600160a01b0381161561060b576105df816103ca565b6001600160a01b0382166000908152600c6020908152604080832093909355600854600b909152919020555b336000908152600c6020526040902054801561068057336000818152600c602052604081205560025461064a916001600160a01b039091169083610c54565b60405181815233907fe2403640ba68fed3a2f88b7557551d1993f84b99bb10ff833f0cf8db0c5e04869060200160405180910390a25b91505061068d6001600055565b90565b610698610cbc565b6106a0610d16565b565b6106aa610cbc565b6106a06000610d6b565b600060045442106106c6575060045490565b504290565b6106d3610cbc565b6106a0610dbd565b6106e3610bfb565b6106eb610e00565b336106f4610aaf565b6008556106ff6106b4565b6007556001600160a01b038116156107465761071a816103ca565b6001600160a01b0382166000908152600c6020908152604080832093909355600854600b909152919020555b600082116107875760405162461bcd60e51b815260206004820152600e60248201526d043616e6e6f74207374616b6520360941b6044820152606401610501565b81600a600082825461079991906112d1565b9091555050336000908152600d60205260409020546107b99083906112d1565b336000818152600d60205260409020919091556003546107e6916001600160a01b03909116903085610e4d565b60405182815233907f9e71bc8eea02a63969f509818f2dafb9254532904319f9dbda79b67bd34a5f3d90602001610590565b600033610823610aaf565b60085561082e6106b4565b6007556001600160a01b0381161561087557610849816103ca565b6001600160a01b0382166000908152600c6020908152604080832093909355600854600b909152919020555b600061087f6105a6565b905061088b8133610e8b565b604080518281526020810183905233917f820cea42e8517cf1ec6d4e9db93909255f07c45f7eb0a7c7b5a0f8bdcfc2e5bf910160405180910390a29392505050565b6108d5610bfb565b60006108df610aaf565b6008556108ea6106b4565b6007556001600160a01b0381161561093157610905816103ca565b6001600160a01b0382166000908152600c6020908152604080832093909355600854600b909152919020555b6009546001600160a01b0316331461095c5760405163b1db9f0f60e01b815260040160405180910390fd5b6000821161099b5760405162461bcd60e51b815260206004820152600c60248201526b5a65726f207265776172647360a01b6044820152606401610501565b600a546000036109e45760405162461bcd60e51b8152602060048201526014602482015273784d474e3a5556533a5a45524f5f535550504c5960601b6044820152606401610501565b6004544210610a02576006546109fa90836112af565b600555610a44565b600042600454610a129190611285565b9050600060055482610a249190611298565b600654909150610a3482866112d1565b610a3e91906112af565b60055550505b600254610a5c906001600160a01b0316333085610e4d565b426007819055600654610a6e916112d1565b6004556040518281527fde88a922e0d3b88b24e9623efeb464919c6bf9f66857a65e2bfcf2ce87a9433d9060200160405180910390a1506105a36001600055565b6000600a54600003610ac2575060085490565b600a54600554600754610ad36106b4565b610add9190611285565b610ae79190611298565b610af990670de0b6b3a7640000611298565b610b0391906112af565b60085461045991906112d1565b610b18610cbc565b600980546001600160a01b0319166001600160a01b03831690811790915560405133907f5e8f9bfa8d6ad6c68a276d44c68aea3eb9a1c515990e2f397c9e02d1302ede4e90600090a350565b336000908152600d6020526040902054610b7d9061045e565b6105a36105a6565b610b8d610cbc565b6001600160a01b038116610bf25760405162461bcd60e51b815260206004820152602660248201527f4f776e61626c653a206e6577206f776e657220697320746865207a65726f206160448201526564647265737360d01b6064820152608401610501565b6105a381610d6b565b600260005403610c4d5760405162461bcd60e51b815260206004820152601f60248201527f5265656e7472616e637947756172643a207265656e7472616e742063616c6c006044820152606401610501565b6002600055565b6040516001600160a01b038316602482015260448101829052610cb790849063a9059cbb60e01b906064015b60408051601f198184030181529190526020810180516001600160e01b03166001600160e01b031990931692909217909152610f74565b505050565b6001546001600160a01b031633146106a05760405162461bcd60e51b815260206004820181905260248201527f4f776e61626c653a2063616c6c6572206973206e6f7420746865206f776e65726044820152606401610501565b610d1e611046565b6001805460ff60a01b191690557f5db9ee0a495bf2e6ff9c91a7834c1ba4fdd244a5e8aa4e537bd38aeae4b073aa335b6040516001600160a01b03909116815260200160405180910390a1565b600180546001600160a01b038381166001600160a01b0319831681179093556040519116919082907f8be0079c531659141344cd1fd0a4f28419497f9722a3daafe3b4186f6b6457e090600090a35050565b610dc5610e00565b6001805460ff60a01b1916600160a01b1790557f62e78cea01bee320cd4e420270b5ea74000d11b0c9f74754ebdbfc544b05a258610d4e3390565b600154600160a01b900460ff16156106a05760405162461bcd60e51b815260206004820152601060248201526f14185d5cd8589b194e881c185d5cd95960821b6044820152606401610501565b6040516001600160a01b0380851660248301528316604482015260648101829052610e859085906323b872dd60e01b90608401610c80565b50505050565b610e93610bfb565b60008211610ed45760405162461bcd60e51b815260206004820152600e60248201526d043616e6e6f74207374616b6520360941b6044820152606401610501565b81600a6000828254610ee691906112d1565b90915550506001600160a01b0381166000908152600d6020526040902054610f0f9083906112d1565b6001600160a01b0382166000818152600d6020526040908190209290925590517f9e71bc8eea02a63969f509818f2dafb9254532904319f9dbda79b67bd34a5f3d90610f5e9085815260200190565b60405180910390a2610f706001600055565b5050565b6000610fc9826040518060400160405280602081526020017f5361666545524332303a206c6f772d6c6576656c2063616c6c206661696c6564815250856001600160a01b03166110969092919063ffffffff16565b805190915015610cb75780806020019051810190610fe791906112e4565b610cb75760405162461bcd60e51b815260206004820152602a60248201527f5361666545524332303a204552433230206f7065726174696f6e20646964206e6044820152691bdd081cdd58d8d9595960b21b6064820152608401610501565b600154600160a01b900460ff166106a05760405162461bcd60e51b815260206004820152601460248201527314185d5cd8589b194e881b9bdd081c185d5cd95960621b6044820152606401610501565b60606110a584846000856110ad565b949350505050565b60608247101561110e5760405162461bcd60e51b815260206004820152602660248201527f416464726573733a20696e73756666696369656e742062616c616e636520666f6044820152651c8818d85b1b60d21b6064820152608401610501565b600080866001600160a01b0316858760405161112a919061132a565b60006040518083038185875af1925050503d8060008114611167576040519150601f19603f3d011682016040523d82523d6000602084013e61116c565b606091505b509150915061117d87838387611188565b979650505050505050565b606083156111f75782516000036111f0576001600160a01b0385163b6111f05760405162461bcd60e51b815260206004820152601d60248201527f416464726573733a2063616c6c20746f206e6f6e2d636f6e74726163740000006044820152606401610501565b50816110a5565b6110a5838381511561120c5781518083602001fd5b8060405162461bcd60e51b81526004016105019190611346565b60006020828403121561123857600080fd5b81356001600160a01b038116811461124f57600080fd5b9392505050565b60006020828403121561126857600080fd5b5035919050565b634e487b7160e01b600052601160045260246000fd5b818103818111156104415761044161126f565b80820281158282048414176104415761044161126f565b6000826112cc57634e487b7160e01b600052601260045260246000fd5b500490565b808201808211156104415761044161126f565b6000602082840312156112f657600080fd5b8151801515811461124f57600080fd5b60005b83811015611321578181015183820152602001611309565b50506000910152565b6000825161133c818460208701611306565b9190910192915050565b6020815260008251806020840152611365816040850160208701611306565b601f01601f1916919091016040019291505056fea2646970667358221220cda426ee03ad3e370f8897ca5deeef3e5850ceee4e236822286fd2459770436a64736f6c63430008110033",
    "linkReferences": {}
  },
  "methodIdentifiers": {
    "balanceOf(address)": "70a08231",
    "compound(uint256)": "aa5f7e26",
    "earned(address)": "008cc262",
    "exit()": "e9fad8ee",
    "getReward()": "3d18b912",
    "getRewardForDuration()": "1c1f78eb",
    "issuanceRate(uint256)": "aba9c628",
    "lastTimeRewardApplicable()": "80faa57d",
    "lastUpdateTime()": "c8f33c91",
    "owner()": "8da5cb5b",
    "pause()": "8456cb59",
    "paused()": "5c975abb",
    "periodFinish()": "ebe2b12b",
    "renounceOwnership()": "715018a6",
    "rewardPerToken()": "cd3daf9d",
    "rewardPerTokenStored()": "df136d65",
    "rewardRate()": "7b0a47ee",
    "rewards(address)": "0700037d",
    "rewardsDuration()": "386a9525",
    "rewardsToken()": "d1af0c7d",
    "setYield(address)": "d95edafe",
    "stake(uint256)": "a694fc3a",
    "stakingToken()": "72f702f3",
    "totalSupply()": "18160ddd",
    "transferOwnership(address)": "f2fde38b",
    "unpause()": "3f4ba83a",
    "userRewardPerTokenPaid(address)": "8b876347",
    "withdraw(uint256)": "2e1a7d4d",
    "yieldDistributor()": "a38c2c3d"
  },
  "id": 70
}