{
  "abi": [
    {
      "inputs": [
        {
          "internalType": "contract IWETH9",
          "name": "_weth",
          "type": "address"
        },
        {
          "internalType": "address",
          "name": "_feeCollector",
          "type": "address"
        },
        {
          "internalType": "address",
          "name": "_factory",
          "type": "address"
        },
        {
          "internalType": "bytes32",
          "name": "_pairCodeHash",
          "type": "bytes32"
        },
        {
          "internalType": "contract IStargateRouter",
          "name": "_stargateRouter",
          "type": "address"
        },
        {
          "internalType": "contract IPancakeRouter02",
          "name": "_pancakeRouter",
          "type": "address"
        }
      ],
      "stateMutability": "nonpayable",
      "type": "constructor"
    },
    {
      "inputs": [],
      "name": "MismatchedLengths",
      "type": "error"
    },
    {
      "inputs": [],
      "name": "MoreThanZero",
      "type": "error"
    },
    {
      "inputs": [],
      "name": "NotEnoughGas",
      "type": "error"
    },
    {
      "inputs": [],
      "name": "NotStgRouter",
      "type": "error"
    },
    {
      "inputs": [],
      "name": "WithdrawFailed",
      "type": "error"
    },
    {
      "anonymous": false,
      "inputs": [
        {
          "indexed": false,
          "internalType": "address",
          "name": "_token",
          "type": "address"
        },
        {
          "indexed": false,
          "internalType": "uint256",
          "name": "_fee",
          "type": "uint256"
        }
      ],
      "name": "FeePaid",
      "type": "event"
    },
    {
      "anonymous": false,
      "inputs": [
        {
          "indexed": true,
          "internalType": "address",
          "name": "token",
          "type": "address"
        },
        {
          "indexed": false,
          "internalType": "uint256",
          "name": "amountLD",
          "type": "uint256"
        },
        {
          "indexed": false,
          "internalType": "bool",
          "name": "failed",
          "type": "bool"
        },
        {
          "indexed": false,
          "internalType": "bool",
          "name": "dustSent",
          "type": "bool"
        }
      ],
      "name": "ReceivedOnDestination",
      "type": "event"
    },
    {
      "inputs": [
        {
          "internalType": "uint8[]",
          "name": "steps",
          "type": "uint8[]"
        },
        {
          "internalType": "bytes[]",
          "name": "data",
          "type": "bytes[]"
        }
      ],
      "name": "binanceSwaps",
      "outputs": [],
      "stateMutability": "payable",
      "type": "function"
    },
    {
      "inputs": [],
      "name": "factory",
      "outputs": [
        {
          "internalType": "address",
          "name": "",
          "type": "address"
        }
      ],
      "stateMutability": "view",
      "type": "function"
    },
    {
      "inputs": [],
      "name": "feeCollector",
      "outputs": [
        {
          "internalType": "address",
          "name": "",
          "type": "address"
        }
      ],
      "stateMutability": "view",
      "type": "function"
    },
    {
      "inputs": [
        {
          "components": [
            {
              "internalType": "uint16",
              "name": "dstChainId",
              "type": "uint16"
            },
            {
              "internalType": "address",
              "name": "token",
              "type": "address"
            },
            {
              "internalType": "uint256",
              "name": "srcPoolId",
              "type": "uint256"
            },
            {
              "internalType": "uint256",
              "name": "dstPoolId",
              "type": "uint256"
            },
            {
              "internalType": "uint256",
              "name": "amount",
              "type": "uint256"
            },
            {
              "internalType": "uint256",
              "name": "amountMin",
              "type": "uint256"
            },
            {
              "internalType": "uint256",
              "name": "dustAmount",
              "type": "uint256"
            },
            {
              "internalType": "address",
              "name": "receiver",
              "type": "address"
            },
            {
              "internalType": "address",
              "name": "to",
              "type": "address"
            },
            {
              "internalType": "uint256",
              "name": "gas",
              "type": "uint256"
            },
            {
              "internalType": "bytes32",
              "name": "srcContext",
              "type": "bytes32"
            }
          ],
          "internalType": "struct StargateBinance.StargateParams",
          "name": "params",
          "type": "tuple"
        },
        {
          "internalType": "bytes",
          "name": "payload",
          "type": "bytes"
        }
      ],
      "name": "getFee",
      "outputs": [
        {
          "internalType": "uint256",
          "name": "_fee",
          "type": "uint256"
        }
      ],
      "stateMutability": "view",
      "type": "function"
    },
    {
      "inputs": [],
      "name": "pairCodeHash",
      "outputs": [
        {
          "internalType": "bytes32",
          "name": "",
          "type": "bytes32"
        }
      ],
      "stateMutability": "view",
      "type": "function"
    },
    {
      "inputs": [
        {
          "internalType": "uint16",
          "name": "",
          "type": "uint16"
        },
        {
          "internalType": "bytes",
          "name": "",
          "type": "bytes"
        },
        {
          "internalType": "uint256",
          "name": "",
          "type": "uint256"
        },
        {
          "internalType": "address",
          "name": "_token",
          "type": "address"
        },
        {
          "internalType": "uint256",
          "name": "amountLD",
          "type": "uint256"
        },
        {
          "internalType": "bytes",
          "name": "_payload",
          "type": "bytes"
        }
      ],
      "name": "sgReceive",
      "outputs": [],
      "stateMutability": "nonpayable",
      "type": "function"
    },
    {
      "inputs": [],
      "name": "stargateRouter",
      "outputs": [
        {
          "internalType": "contract IStargateRouter",
          "name": "",
          "type": "address"
        }
      ],
      "stateMutability": "view",
      "type": "function"
    },
    {
      "stateMutability": "payable",
      "type": "receive"
    }
  ],
  "bytecode": {
    "object": "0x6101006040526002805460ff191660011790553480156200001f57600080fd5b50604051620032df380380620032df833981016040819052620000429162000098565b600080546001600160a01b0319166001600160a01b03958616179055600192909255821660805292811660a05291821660c0521660e05262000120565b6001600160a01b03811681146200009557600080fd5b50565b60008060008060008060c08789031215620000b257600080fd5b8651620000bf816200007f565b6020880151909650620000d2816200007f565b6040880151909550620000e5816200007f565b606088015160808901519195509350620000ff816200007f565b60a088015190925062000112816200007f565b809150509295509295509295565b60805160a05160c05160e051613139620001a66000396000818161014901528181610d8d015261126e01526000818161093c015281816109bb0152610a2f01526000818161066a01528181610c710152610d0401526000818160db015281816101c9015281816102ba01528181611440015281816114d6015261155801526131396000f3fe6080604052600436106100745760003560e01c8063ab8236f31161004e578063ab8236f314610115578063c415b95c14610137578063c45a01551461016b578063e3c51f591461018b57600080fd5b80634285f6e4146100805780639aab9248146100b3578063a9e56f3c146100c957600080fd5b3661007b57005b600080fd5b34801561008c57600080fd5b506100a061009b366004612281565b61019e565b6040519081526020015b60405180910390f35b3480156100bf57600080fd5b506100a060015481565b3480156100d557600080fd5b506100fd7f000000000000000000000000000000000000000000000000000000000000000081565b6040516001600160a01b0390911681526020016100aa565b34801561012157600080fd5b506101356101303660046122d1565b6102af565b005b34801561014357600080fd5b506100fd7f000000000000000000000000000000000000000000000000000000000000000081565b34801561017757600080fd5b506000546100fd906001600160a01b031681565b6101356101993660046123af565b610467565b6000808360e001516040516020016101b6919061241a565b60405160208183030381529060405290507f00000000000000000000000000000000000000000000000000000000000000006001600160a01b0316630a51236985600001516001848760405180606001604052808b610120015181526020018b60c0015181526020018b60e00151604051602001610234919061241a565b6040516020818303038152906040528152506040518663ffffffff1660e01b81526004016102669594939291906124ab565b6040805180830381865afa158015610282573d6000803e3d6000fd5b505050506040513d601f19601f820116820180604052508101906102a69190612503565b50949350505050565b336001600160a01b037f000000000000000000000000000000000000000000000000000000000000000016146102f857604051638afe477f60e01b815260040160405180910390fd5b600080620186a081815a61030c919061253d565b90506000806000878060200190518101906103279190612648565b925092509250845a1015610359576103496001600160a01b038b16848b610e30565b4715610359576103598347610e98565b60405163e3c51f5960e01b8152309063e3c51f5990869061038090869086906004016127b0565b600060405180830381600088803b15801561039a57600080fd5b5087f1935050505080156103ac575060015b6103fa573d8080156103da576040519150601f19603f3d011682016040523d82523d6000602084013e6103df565b606091505b506103f46001600160a01b038c16858c610e30565b60019750505b471561040a5761040a8347610e98565b604080518a815288151560208201528715158183015290516001600160a01b038c16917f7f345d6da48bd1339fd428ff45265a0f01258b14ca09dcf8db0c469f4f732fd3919081900360600190a250505050505050505050505050565b60025460ff166001146104ae5760405162461bcd60e51b815260206004820152600a6024820152695245454e5452414e435960b01b60448201526064015b60405180910390fd5b6002805460ff1916811790558281146104da576040516373f8993760e11b815260040160405180910390fd5b60005b83811015610e1c5760008585838181106104f9576104f96127de565b905060200201602081019061050e91906127f4565b905060001960ff82160161060657600080858585818110610531576105316127de565b90506020028101906105439190612818565b81019061055091906128c2565b9150915060005b82518110156105fe576000828281518110610574576105746127de565b60200260200101511161059a5760405163fe4155c760e01b815260040160405180910390fd5b6105ec33308484815181106105b1576105b16127de565b60200260200101518685815181106105cb576105cb6127de565b60200260200101516001600160a01b0316610ee9909392919063ffffffff16565b806105f68161297c565b915050610557565b505050610e09565b60011960ff8216016106e2576000848484818110610626576106266127de565b90506020028101906106389190612818565b8101906106459190612995565b9050600081116106685760405163fe4155c760e01b815260040160405180910390fd5b7f00000000000000000000000000000000000000000000000000000000000000006001600160a01b031663d0e30db0826040518263ffffffff1660e01b81526004016000604051808303818588803b1580156106c357600080fd5b505af11580156106d7573d6000803e3d6000fd5b505050505050610e09565b60041960ff82160161076b576000848484818110610702576107026127de565b90506020028101906107149190612818565b81019061072191906129bc565b905060005b815181101561076457610751828281518110610744576107446127de565b6020026020010151610f27565b508061075c8161297c565b915050610726565b5050610e09565b60071960ff821601610b4f57600084848481811061078b5761078b6127de565b905060200281019061079d9190612818565b8101906107aa9190612ac9565b905060005b8151811015610764578181815181106107ca576107ca6127de565b602002602001015160000151600014610800578181815181106107ef576107ef6127de565b6020026020010151600001516108a4565b818181518110610812576108126127de565b602002602001015160400151600081518110610830576108306127de565b60209081029190910101516040516370a0823160e01b81523060048201526001600160a01b03909116906370a0823190602401602060405180830381865afa158015610880573d6000803e3d6000fd5b505050506040513d601f19601f820116820180604052508101906108a49190612bc3565b8282815181106108b6576108b66127de565b602002602001015160000181815250508181815181106108d8576108d86127de565b6020026020010151600001518282815181106108f6576108f66127de565b602002602001015160400151600081518110610914576109146127de565b6020908102919091010151604051636eb1769f60e11b81523060048201526001600160a01b037f0000000000000000000000000000000000000000000000000000000000000000811660248301529091169063dd62ed3e90604401602060405180830381865afa15801561098c573d6000803e3d6000fd5b505050506040513d601f19601f820116820180604052508101906109b09190612bc3565b1015610a2d57610a2d7f00000000000000000000000000000000000000000000000000000000000000006000198484815181106109ef576109ef6127de565b602002602001015160400151600081518110610a0d57610a0d6127de565b60200260200101516001600160a01b031661111b9092919063ffffffff16565b7f00000000000000000000000000000000000000000000000000000000000000006001600160a01b03166338ed1739838381518110610a6e57610a6e6127de565b602002602001015160000151848481518110610a8c57610a8c6127de565b602002602001015160200151858581518110610aaa57610aaa6127de565b60200260200101516040015130878781518110610ac957610ac96127de565b6020026020010151606001516040518663ffffffff1660e01b8152600401610af5959493929190612bdc565b6000604051808303816000875af1158015610b14573d6000803e3d6000fd5b505050506040513d6000823e601f3d908101601f19168201604052610b3c9190810190612c4d565b5080610b478161297c565b9150506107af565b600d1960ff821601610c10576000848484818110610b6f57610b6f6127de565b9050602002810190610b819190612818565b810190610b8e9190612cd2565b905060005b815181101561076457610bfe828281518110610bb157610bb16127de565b602002602001015160000151838381518110610bcf57610bcf6127de565b602002602001015160400151848481518110610bed57610bed6127de565b6020026020010151602001516111cd565b80610c088161297c565b915050610b93565b600c1960ff821601610db257600080858585818110610c3157610c316127de565b9050602002810190610c439190612818565b810190610c509190612da1565b9150915080600003610ce9576040516370a0823160e01b81523060048201527f00000000000000000000000000000000000000000000000000000000000000006001600160a01b0316906370a0823190602401602060405180830381865afa158015610cc0573d6000803e3d6000fd5b505050506040513d601f19601f82011682018060405250810190610ce49190612bc3565b610ceb565b805b604051632e1a7d4d60e01b8152600481018290529091507f00000000000000000000000000000000000000000000000000000000000000006001600160a01b031690632e1a7d4d90602401600060405180830381600087803b158015610d5057600080fd5b505af1158015610d64573d6000803e3d6000fd5b505050506000610d73826112ef565b9050610d8883610d83838561253d565b610e98565b6105fe7f000000000000000000000000000000000000000000000000000000000000000082610e98565b600e1960ff821601610e09576000806000868686818110610dd557610dd56127de565b9050602002810190610de79190612818565b810190610df49190612e4c565b925092509250610e0583838361131a565b5050505b5080610e148161297c565b9150506104dd565b50506002805460ff19166001179055505050565b6040516001600160a01b038316602482015260448101829052610e9390849063a9059cbb60e01b906064015b60408051601f198184030181529190526020810180516001600160e01b03166001600160e01b031990931692909217909152611668565b505050565b600080600080600085875af1905080610e935760405162461bcd60e51b815260206004820152601360248201527211551217d514905394d1915497d19052531151606a1b60448201526064016104a5565b6040516001600160a01b0380851660248301528316604482015260648101829052610f219085906323b872dd60e01b90608401610e5c565b50505050565b805160009015610f38578151610fc3565b8160400151600081518110610f4f57610f4f6127de565b60209081029190910101516040516370a0823160e01b81523060048201526001600160a01b03909116906370a0823190602401602060405180830381865afa158015610f9f573d6000803e3d6000fd5b505050506040513d601f19601f82011682018060405250810190610fc39190612bc3565b8083526000805460408501516001549293610fec936001600160a01b039093169290919061173a565b90508060018251610ffd919061253d565b8151811061100d5761100d6127de565b60200260200101519150826020015182101561106b5760405162461bcd60e51b815260206004820152601760248201527f696e73756666696369656e742d616d6f756e742d6f757400000000000000000060448201526064016104a5565b826060015115611106576000805460408501518051611106936110ce936001600160a01b0316929161109f5761109f6127de565b602002602001015186604001516001815181106110be576110be6127de565b60200260200101516001546118bd565b8451604086015180516000906110e6576110e66127de565b60200260200101516001600160a01b0316610e309092919063ffffffff16565b61111581846040015130611971565b50919050565b604051636eb1769f60e11b81523060048201526001600160a01b038381166024830152600091839186169063dd62ed3e90604401602060405180830381865afa15801561116c573d6000803e3d6000fd5b505050506040513d601f19601f820116820180604052508101906111909190612bc3565b61119a9190612f1a565b6040516001600160a01b038516602482015260448101829052909150610f2190859063095ea7b360e01b90606401610e5c565b81600003611242576040516370a0823160e01b81523060048201526001600160a01b038416906370a0823190602401602060405180830381865afa158015611219573d6000803e3d6000fd5b505050506040513d601f19601f8201168201806040525081019061123d9190612bc3565b611244565b815b91506000611251836112ef565b905061125d818461253d565b92506112936001600160a01b0385167f000000000000000000000000000000000000000000000000000000000000000083610e30565b6112a76001600160a01b0385168385610e30565b604080516001600160a01b0386168152602081018390527f075a2720282fdf622141dae0b048ef90a21a7e57c134c76912d19d006b3b3f6f910160405180910390a150505050565b60006127106113008361270b612f2d565b61130a9190612f44565b611314908361253d565b92915050565b805182511461133c576040516373f8993760e11b815260040160405180910390fd5b620186a0836101200151101561136557604051636eb14fc360e11b815260040160405180910390fd5b6000836101000151838360405160200161138193929190612f66565b604051602081830303815290604052905083608001516000036114115760208401516040516370a0823160e01b81523060048201526001600160a01b03909116906370a0823190602401602060405180830381865afa1580156113e8573d6000803e3d6000fd5b505050506040513d601f19601f8201168201806040525081019061140c9190612bc3565b611417565b83608001515b608085018190526020850151604051636eb1769f60e11b81523060048201526001600160a01b037f0000000000000000000000000000000000000000000000000000000000000000811660248301529091169063dd62ed3e90604401602060405180830381865afa158015611490573d6000803e3d6000fd5b505050506040513d601f19601f820116820180604052508101906114b49190612bc3565b101561155657602084015160405163095ea7b360e01b81526001600160a01b037f00000000000000000000000000000000000000000000000000000000000000008116600483015260001960248301529091169063095ea7b3906044016020604051808303816000875af1158015611530573d6000803e3d6000fd5b505050506040513d601f19601f820116820180604052508101906115549190612fa6565b505b7f00000000000000000000000000000000000000000000000000000000000000006001600160a01b0316639fbf10fc47866000015187604001518860600151338a608001518b60a0015160405180606001604052808e610120015181526020018e60c0015181526020018e60e001516040516020016115d5919061241a565b6040516020818303038152906040528152508d60e001516040516020016115fc919061241a565b6040516020818303038152906040528b6040518b63ffffffff1660e01b815260040161163099989796959493929190612fc3565b6000604051808303818588803b15801561164957600080fd5b505af115801561165d573d6000803e3d6000fd5b505050505050505050565b60006116bd826040518060400160405280602081526020017f5361666545524332303a206c6f772d6c6576656c2063616c6c206661696c6564815250856001600160a01b0316611b489092919063ffffffff16565b805190915015610e9357808060200190518101906116db9190612fa6565b610e935760405162461bcd60e51b815260206004820152602a60248201527f5361666545524332303a204552433230206f7065726174696f6e20646964206e6044820152691bdd081cdd58d8d9595960b21b60648201526084016104a5565b606060028351101561178e5760405162461bcd60e51b815260206004820152601e60248201527f556e697377617056324c6962726172793a20494e56414c49445f50415448000060448201526064016104a5565b82516001600160401b038111156117a7576117a761206b565b6040519080825280602002602001820160405280156117d0578160200160208202803683370190505b50905083816000815181106117e7576117e76127de565b60200260200101818152505060005b60018451611804919061253d565b8110156102a65760008061185888878581518110611824576118246127de565b60200260200101518886600161183a9190612f1a565b8151811061184a5761184a6127de565b602002602001015188611b5f565b91509150611880848481518110611871576118716127de565b60200260200101518383611c2b565b8461188c856001612f1a565b8151811061189c5761189c6127de565b602002602001018181525050505080806118b59061297c565b9150506117f6565b60008060006118cc8686611d4a565b6040516001600160601b0319606084811b8216602084015283901b16603482015291935091508790604801604051602081830303815290604052805190602001208560405160200161194e939291906001600160f81b0319815260609390931b6001600160601b03191660018401526015830191909152603582015260550190565b60408051601f198184030181529190528051602090910120979650505050505050565b60005b60018351611982919061253d565b811015610f215760008084838151811061199e5761199e6127de565b6020026020010151858460016119b49190612f1a565b815181106119c4576119c46127de565b60200260200101519150915060006119dc8383611d4a565b5090506000876119ed866001612f1a565b815181106119fd576119fd6127de565b60200260200101519050600080836001600160a01b0316866001600160a01b031614611a2b57826000611a2f565b6000835b91509150600060028a51611a43919061253d565b8810611a4f5788611a7c565b600054611a7c906001600160a01b0316878c611a6c8c6002612f1a565b815181106110be576110be6127de565b9050611a9f60008054906101000a90046001600160a01b031688886001546118bd565b6001600160a01b031663022c0d9f84848460006040519080825280601f01601f191660200182016040528015611adc576020820181803683370190505b506040518563ffffffff1660e01b8152600401611afc9493929190613040565b600060405180830381600087803b158015611b1657600080fd5b505af1158015611b2a573d6000803e3d6000fd5b50505050505050505050508080611b409061297c565b915050611974565b6060611b578484600085611e41565b949350505050565b6000806000611b6e8686611d4a565b509050600080611b80898989896118bd565b6001600160a01b0316630902f1ac6040518163ffffffff1660e01b8152600401606060405180830381865afa158015611bbd573d6000803e3d6000fd5b505050506040513d601f19601f82011682018060405250810190611be19190613084565b506001600160701b031691506001600160701b03169150826001600160a01b0316886001600160a01b031614611c18578082611c1b565b81815b909a909950975050505050505050565b6000808411611c905760405162461bcd60e51b815260206004820152602b60248201527f556e697377617056324c6962726172793a20494e53554646494349454e545f4960448201526a1394155517d05353d5539560aa1b60648201526084016104a5565b600083118015611ca05750600082115b611cfd5760405162461bcd60e51b815260206004820152602860248201527f556e697377617056324c6962726172793a20494e53554646494349454e545f4c604482015267495155494449545960c01b60648201526084016104a5565b6000611d0b856103e5611f11565b90506000611d198285611f11565b90506000611d3383611d2d886103e8611f11565b90611f78565b9050611d3f8183612f44565b979650505050505050565b600080826001600160a01b0316846001600160a01b031603611dbc5760405162461bcd60e51b815260206004820152602560248201527f556e697377617056324c6962726172793a204944454e544943414c5f41444452604482015264455353455360d81b60648201526084016104a5565b826001600160a01b0316846001600160a01b031610611ddc578284611ddf565b83835b90925090506001600160a01b038216611e3a5760405162461bcd60e51b815260206004820152601e60248201527f556e697377617056324c6962726172793a205a45524f5f41444452455353000060448201526064016104a5565b9250929050565b606082471015611ea25760405162461bcd60e51b815260206004820152602660248201527f416464726573733a20696e73756666696369656e742062616c616e636520666f6044820152651c8818d85b1b60d21b60648201526084016104a5565b600080866001600160a01b03168587604051611ebe91906130d4565b60006040518083038185875af1925050503d8060008114611efb576040519150601f19603f3d011682016040523d82523d6000602084013e611f00565b606091505b5091509150611d3f87838387611fcd565b6000811580611f3557508282611f278183612f2d565b9250611f339083612f44565b145b6113145760405162461bcd60e51b815260206004820152601460248201527364732d6d6174682d6d756c2d6f766572666c6f7760601b60448201526064016104a5565b600082611f858382612f1a565b91508110156113145760405162461bcd60e51b815260206004820152601460248201527364732d6d6174682d6164642d6f766572666c6f7760601b60448201526064016104a5565b6060831561203c578251600003612035576001600160a01b0385163b6120355760405162461bcd60e51b815260206004820152601d60248201527f416464726573733a2063616c6c20746f206e6f6e2d636f6e747261637400000060448201526064016104a5565b5081611b57565b611b5783838151156120515781518083602001fd5b8060405162461bcd60e51b81526004016104a591906130f0565b634e487b7160e01b600052604160045260246000fd5b60405161016081016001600160401b03811182821017156120a4576120a461206b565b60405290565b604051608081016001600160401b03811182821017156120a4576120a461206b565b604051606081016001600160401b03811182821017156120a4576120a461206b565b604051601f8201601f191681016001600160401b03811182821017156121165761211661206b565b604052919050565b803561ffff8116811461213057600080fd5b919050565b6001600160a01b038116811461214a57600080fd5b50565b803561213081612135565b6000610160828403121561216b57600080fd5b612173612081565b905061217e8261211e565b815261218c6020830161214d565b602082015260408201356040820152606082013560608201526080820135608082015260a082013560a082015260c082013560c08201526121cf60e0830161214d565b60e08201526101006121e281840161214d565b9082015261012082810135908201526101409182013591810191909152919050565b60006001600160401b0382111561221d5761221d61206b565b50601f01601f191660200190565b600082601f83011261223c57600080fd5b813561224f61224a82612204565b6120ee565b81815284602083860101111561226457600080fd5b816020850160208301376000918101602001919091529392505050565b600080610180838503121561229557600080fd5b61229f8484612158565b91506101608301356001600160401b038111156122bb57600080fd5b6122c78582860161222b565b9150509250929050565b60008060008060008060c087890312156122ea57600080fd5b6122f38761211e565b955060208701356001600160401b038082111561230f57600080fd5b61231b8a838b0161222b565b9650604089013595506060890135915061233482612135565b9093506080880135925060a0880135908082111561235157600080fd5b5061235e89828a0161222b565b9150509295509295509295565b60008083601f84011261237d57600080fd5b5081356001600160401b0381111561239457600080fd5b6020830191508360208260051b8501011115611e3a57600080fd5b600080600080604085870312156123c557600080fd5b84356001600160401b03808211156123dc57600080fd5b6123e88883890161236b565b9096509450602087013591508082111561240157600080fd5b5061240e8782880161236b565b95989497509550505050565b60609190911b6001600160601b031916815260140190565b60005b8381101561244d578181015183820152602001612435565b50506000910152565b6000815180845261246e816020860160208601612432565b601f01601f19169290920160200192915050565b80518252602081015160208301526000604082015160606040850152611b576060850182612456565b61ffff8616815260ff8516602082015260a0604082015260006124d160a0830186612456565b82810360608401526124e38186612456565b905082810360808401526124f78185612482565b98975050505050505050565b6000806040838503121561251657600080fd5b505080516020909101519092909150565b634e487b7160e01b600052601160045260246000fd5b8181038181111561131457611314612527565b60006001600160401b038211156125695761256961206b565b5060051b60200190565b60ff8116811461214a57600080fd5b600082601f83011261259357600080fd5b815160206125a361224a83612550565b82815260059290921b840181019181810190868411156125c257600080fd5b8286015b8481101561263d5780516001600160401b038111156125e55760008081fd5b8701603f810189136125f75760008081fd5b84810151604061260961224a83612204565b8281528b8284860101111561261e5760008081fd5b61262d83898301848701612432565b86525050509183019183016125c6565b509695505050505050565b60008060006060848603121561265d57600080fd5b835161266881612135565b809350506020808501516001600160401b038082111561268757600080fd5b818701915087601f83011261269b57600080fd5b81516126a961224a82612550565b81815260059190911b8301840190848101908a8311156126c857600080fd5b938501935b828510156126ef5784516126e081612573565b825293850193908501906126cd565b60408a0151909750945050508083111561270857600080fd5b505061271686828701612582565b9150509250925092565b600081518084526020808501945080840160005b8381101561275357815160ff1687529582019590820190600101612734565b509495945050505050565b6000815180845260208085019450848260051b860182860160005b858110156127a3578383038952612791838351612456565b98850198925090840190600101612779565b5090979650505050505050565b6040815260006127c36040830185612720565b82810360208401526127d5818561275e565b95945050505050565b634e487b7160e01b600052603260045260246000fd5b60006020828403121561280657600080fd5b813561281181612573565b9392505050565b6000808335601e1984360301811261282f57600080fd5b8301803591506001600160401b0382111561284957600080fd5b602001915036819003821315611e3a57600080fd5b600082601f83011261286f57600080fd5b8135602061287f61224a83612550565b82815260059290921b8401810191818101908684111561289e57600080fd5b8286015b8481101561263d5780356128b581612135565b83529183019183016128a2565b600080604083850312156128d557600080fd5b82356001600160401b03808211156128ec57600080fd5b6128f88683870161285e565b935060209150818501358181111561290f57600080fd5b85019050601f8101861361292257600080fd5b803561293061224a82612550565b81815260059190911b8201830190838101908883111561294f57600080fd5b928401925b8284101561296d57833582529284019290840190612954565b80955050505050509250929050565b60006001820161298e5761298e612527565b5060010190565b6000602082840312156129a757600080fd5b5035919050565b801515811461214a57600080fd5b600060208083850312156129cf57600080fd5b82356001600160401b03808211156129e657600080fd5b818501915085601f8301126129fa57600080fd5b8135612a0861224a82612550565b81815260059190911b83018401908481019088831115612a2757600080fd5b8585015b83811015612abc57803585811115612a4257600080fd5b86016080818c03601f19011215612a595760008081fd5b612a616120aa565b8882013581526040808301358a83015260608084013589811115612a855760008081fd5b612a938f8d8388010161285e565b838501525060808401359350612aa8846129ae565b820192909252845250918601918601612a2b565b5098975050505050505050565b60006020808385031215612adc57600080fd5b82356001600160401b0380821115612af357600080fd5b818501915085601f830112612b0757600080fd5b8135612b1561224a82612550565b81815260059190911b83018401908481019088831115612b3457600080fd5b8585015b83811015612abc57803585811115612b4f57600080fd5b86016080818c03601f19011215612b665760008081fd5b612b6e6120aa565b8882013581526040808301358a83015260608084013589811115612b925760008081fd5b612ba08f8d8388010161285e565b928401929092526080939093013592820192909252845250918601918601612b38565b600060208284031215612bd557600080fd5b5051919050565b600060a082018783526020878185015260a0604085015281875180845260c086019150828901935060005b81811015612c2c5784516001600160a01b031683529383019391830191600101612c07565b50506001600160a01b03969096166060850152505050608001529392505050565b60006020808385031215612c6057600080fd5b82516001600160401b03811115612c7657600080fd5b8301601f81018513612c8757600080fd5b8051612c9561224a82612550565b81815260059190911b82018301908381019087831115612cb457600080fd5b928401925b82841015611d3f57835182529284019290840190612cb9565b60006020808385031215612ce557600080fd5b82356001600160401b03811115612cfb57600080fd5b8301601f81018513612d0c57600080fd5b8035612d1a61224a82612550565b81815260609182028301840191848201919088841115612d3957600080fd5b938501935b83851015612d955780858a031215612d565760008081fd5b612d5e6120cc565b8535612d6981612135565b815285870135612d7881612135565b818801526040868101359082015283529384019391850191612d3e565b50979650505050505050565b60008060408385031215612db457600080fd5b8235612dbf81612135565b946020939093013593505050565b600082601f830112612dde57600080fd5b81356020612dee61224a83612550565b82815260059290921b84018101918181019086841115612e0d57600080fd5b8286015b8481101561263d5780356001600160401b03811115612e305760008081fd5b612e3e8986838b010161222b565b845250918301918301612e11565b60008060006101a08486031215612e6257600080fd5b612e6c8585612158565b92506101608401356001600160401b0380821115612e8957600080fd5b818601915086601f830112612e9d57600080fd5b81356020612ead61224a83612550565b82815260059290921b8401810191818101908a841115612ecc57600080fd5b948201945b83861015612ef3578535612ee481612573565b82529482019490820190612ed1565b9650505050610180860135915080821115612f0d57600080fd5b5061271686828701612dcd565b8082018082111561131457611314612527565b808202811582820484141761131457611314612527565b600082612f6157634e487b7160e01b600052601260045260246000fd5b500490565b6001600160a01b0384168152606060208201819052600090612f8a90830185612720565b8281036040840152612f9c818561275e565b9695505050505050565b600060208284031215612fb857600080fd5b8151612811816129ae565b600061012061ffff8c1683528a602084015289604084015260018060a01b03891660608401528760808401528660a08401528060c084015261300781840187612482565b905082810360e084015261301b8186612456565b90508281036101008401526130308185612456565b9c9b505050505050505050505050565b84815283602082015260018060a01b0383166040820152608060608201526000612f9c6080830184612456565b80516001600160701b038116811461213057600080fd5b60008060006060848603121561309957600080fd5b6130a28461306d565b92506130b06020850161306d565b9150604084015163ffffffff811681146130c957600080fd5b809150509250925092565b600082516130e6818460208701612432565b9190910192915050565b602081526000612811602083018461245656fea264697066735822122090a7b397bb9da4bb6ecad60c71309519a8cd189ceaf6c2cd1a22ec5a0c8415e864736f6c63430008110033",
    "linkReferences": {}
  },
  "methodIdentifiers": {
    "binanceSwaps(uint8[],bytes[])": "e3c51f59",
    "factory()": "c45a0155",
    "feeCollector()": "c415b95c",
    "getFee((uint16,address,uint256,uint256,uint256,uint256,uint256,address,address,uint256,bytes32),bytes)": "4285f6e4",
    "pairCodeHash()": "9aab9248",
    "sgReceive(uint16,bytes,uint256,address,uint256,bytes)": "ab8236f3",
    "stargateRouter()": "a9e56f3c"
  },
  "id": 57
}