{
  "abi": [
    {
      "inputs": [
        {
          "internalType": "contract IWETH9",
          "name": "_weth",
          "type": "address"
        },
        {
          "internalType": "address",
          "name": "_feeCollector",
          "type": "address"
        },
        {
          "internalType": "address",
          "name": "_factory",
          "type": "address"
        },
        {
          "internalType": "bytes32",
          "name": "_pairCodeHash",
          "type": "bytes32"
        },
        {
          "internalType": "contract IStargateRouter",
          "name": "_stargateRouter",
          "type": "address"
        },
        {
          "internalType": "contract IPancakeRouter02",
          "name": "_pancakeRouter",
          "type": "address"
        }
      ],
      "stateMutability": "nonpayable",
      "type": "constructor"
    },
    {
      "inputs": [],
      "name": "MismatchedLengths",
      "type": "error"
    },
    {
      "inputs": [],
      "name": "MoreThanZero",
      "type": "error"
    },
    {
      "inputs": [],
      "name": "NotEnoughGas",
      "type": "error"
    },
    {
      "inputs": [],
      "name": "NotStgRouter",
      "type": "error"
    },
    {
      "inputs": [],
      "name": "WithdrawFailed",
      "type": "error"
    },
    {
      "anonymous": false,
      "inputs": [
        {
          "indexed": false,
          "internalType": "address",
          "name": "_token",
          "type": "address"
        },
        {
          "indexed": false,
          "internalType": "uint256",
          "name": "_fee",
          "type": "uint256"
        }
      ],
      "name": "FeePaid",
      "type": "event"
    },
    {
      "anonymous": false,
      "inputs": [
        {
          "indexed": true,
          "internalType": "address",
          "name": "token",
          "type": "address"
        },
        {
          "indexed": false,
          "internalType": "uint256",
          "name": "amountLD",
          "type": "uint256"
        },
        {
          "indexed": false,
          "internalType": "bool",
          "name": "failed",
          "type": "bool"
        },
        {
          "indexed": false,
          "internalType": "bool",
          "name": "dustSent",
          "type": "bool"
        }
      ],
      "name": "ReceivedOnDestination",
      "type": "event"
    },
    {
      "anonymous": false,
      "inputs": [
        {
          "indexed": false,
          "internalType": "bool",
          "name": "success",
          "type": "bool"
        }
      ],
      "name": "SuccessfulWithdraw",
      "type": "event"
    },
    {
      "inputs": [
        {
          "internalType": "uint8[]",
          "name": "steps",
          "type": "uint8[]"
        },
        {
          "internalType": "bytes[]",
          "name": "data",
          "type": "bytes[]"
        }
      ],
      "name": "binanceSwaps",
      "outputs": [],
      "stateMutability": "payable",
      "type": "function"
    },
    {
      "inputs": [],
      "name": "factory",
      "outputs": [
        {
          "internalType": "address",
          "name": "",
          "type": "address"
        }
      ],
      "stateMutability": "view",
      "type": "function"
    },
    {
      "inputs": [],
      "name": "feeCollector",
      "outputs": [
        {
          "internalType": "address",
          "name": "",
          "type": "address"
        }
      ],
      "stateMutability": "view",
      "type": "function"
    },
    {
      "inputs": [
        {
          "components": [
            {
              "internalType": "uint16",
              "name": "dstChainId",
              "type": "uint16"
            },
            {
              "internalType": "address",
              "name": "token",
              "type": "address"
            },
            {
              "internalType": "uint256",
              "name": "srcPoolId",
              "type": "uint256"
            },
            {
              "internalType": "uint256",
              "name": "dstPoolId",
              "type": "uint256"
            },
            {
              "internalType": "uint256",
              "name": "amount",
              "type": "uint256"
            },
            {
              "internalType": "uint256",
              "name": "amountMin",
              "type": "uint256"
            },
            {
              "internalType": "uint256",
              "name": "dustAmount",
              "type": "uint256"
            },
            {
              "internalType": "address",
              "name": "receiver",
              "type": "address"
            },
            {
              "internalType": "address",
              "name": "to",
              "type": "address"
            },
            {
              "internalType": "uint256",
              "name": "gas",
              "type": "uint256"
            },
            {
              "internalType": "bytes32",
              "name": "srcContext",
              "type": "bytes32"
            }
          ],
          "internalType": "struct StargateBinance.StargateParams",
          "name": "params",
          "type": "tuple"
        },
        {
          "internalType": "bytes",
          "name": "payload",
          "type": "bytes"
        }
      ],
      "name": "getFee",
      "outputs": [
        {
          "internalType": "uint256",
          "name": "_fee",
          "type": "uint256"
        }
      ],
      "stateMutability": "view",
      "type": "function"
    },
    {
      "inputs": [],
      "name": "pairCodeHash",
      "outputs": [
        {
          "internalType": "bytes32",
          "name": "",
          "type": "bytes32"
        }
      ],
      "stateMutability": "view",
      "type": "function"
    },
    {
      "inputs": [
        {
          "internalType": "uint16",
          "name": "",
          "type": "uint16"
        },
        {
          "internalType": "bytes",
          "name": "",
          "type": "bytes"
        },
        {
          "internalType": "uint256",
          "name": "",
          "type": "uint256"
        },
        {
          "internalType": "address",
          "name": "_token",
          "type": "address"
        },
        {
          "internalType": "uint256",
          "name": "amountLD",
          "type": "uint256"
        },
        {
          "internalType": "bytes",
          "name": "_payload",
          "type": "bytes"
        }
      ],
      "name": "sgReceive",
      "outputs": [],
      "stateMutability": "nonpayable",
      "type": "function"
    },
    {
      "inputs": [],
      "name": "stargateRouter",
      "outputs": [
        {
          "internalType": "contract IStargateRouter",
          "name": "",
          "type": "address"
        }
      ],
      "stateMutability": "view",
      "type": "function"
    },
    {
      "stateMutability": "payable",
      "type": "receive"
    }
  ],
  "bytecode": {
    "object": "0x6101006040526002805460ff191660011790553480156200001f57600080fd5b506040516200304138038062003041833981016040819052620000429162000098565b600080546001600160a01b0319166001600160a01b03958616179055600192909255821660805292811660a05291821660c0521660e05262000120565b6001600160a01b03811681146200009557600080fd5b50565b60008060008060008060c08789031215620000b257600080fd5b8651620000bf816200007f565b6020880151909650620000d2816200007f565b6040880151909550620000e5816200007f565b606088015160808901519195509350620000ff816200007f565b60a088015190925062000112816200007f565b809150509295509295509295565b60805160a05160c05160e051612eb0620001916000396000818161014901526110de0152600081816107bd015261084c01526000818161066a01528181610a8e0152610b2101526000818160db015281816101c9015281816102ba0152818161127a01526112a10152612eb06000f3fe6080604052600436106100745760003560e01c8063ab8236f31161004e578063ab8236f314610115578063c415b95c14610137578063c45a01551461016b578063e3c51f591461018b57600080fd5b80634285f6e4146100805780639aab9248146100b3578063a9e56f3c146100c957600080fd5b3661007b57005b600080fd5b34801561008c57600080fd5b506100a061009b366004611ff5565b61019e565b6040519081526020015b60405180910390f35b3480156100bf57600080fd5b506100a060015481565b3480156100d557600080fd5b506100fd7f000000000000000000000000000000000000000000000000000000000000000081565b6040516001600160a01b0390911681526020016100aa565b34801561012157600080fd5b50610135610130366004612045565b6102af565b005b34801561014357600080fd5b506100fd7f000000000000000000000000000000000000000000000000000000000000000081565b34801561017757600080fd5b506000546100fd906001600160a01b031681565b610135610199366004612123565b610467565b6000808360e001516040516020016101b6919061218e565b60405160208183030381529060405290507f00000000000000000000000000000000000000000000000000000000000000006001600160a01b0316630a51236985600001516001848760405180606001604052808b610120015181526020018b60c0015181526020018b60e00151604051602001610234919061218e565b6040516020818303038152906040528152506040518663ffffffff1660e01b815260040161026695949392919061221f565b6040805180830381865afa158015610282573d6000803e3d6000fd5b505050506040513d601f19601f820116820180604052508101906102a69190612277565b50949350505050565b336001600160a01b037f000000000000000000000000000000000000000000000000000000000000000016146102f857604051638afe477f60e01b815260040160405180910390fd5b600080620186a081815a61030c91906122b1565b905060008060008780602001905181019061032791906123bc565b925092509250845a1015610359576103496001600160a01b038b16848b610cb4565b4715610359576103598347610d1c565b60405163e3c51f5960e01b8152309063e3c51f599086906103809086908690600401612527565b600060405180830381600088803b15801561039a57600080fd5b5087f1935050505080156103ac575060015b6103fa573d8080156103da576040519150601f19603f3d011682016040523d82523d6000602084013e6103df565b606091505b506103f46001600160a01b038c16858c610cb4565b60019750505b471561040a5761040a8347610d1c565b604080518a815288151560208201528715158183015290516001600160a01b038c16917f7f345d6da48bd1339fd428ff45265a0f01258b14ca09dcf8db0c469f4f732fd3919081900360600190a250505050505050505050505050565b60025460ff166001146104ae5760405162461bcd60e51b815260206004820152600a6024820152695245454e5452414e435960b01b60448201526064015b60405180910390fd5b6002805460ff1916811790558281146104da576040516373f8993760e11b815260040160405180910390fd5b60005b83811015610ca05760008585838181106104f9576104f9612555565b905060200201602081019061050e919061256b565b905060001960ff8216016106065760008085858581811061053157610531612555565b9050602002810190610543919061258f565b8101906105509190612639565b9150915060005b82518110156105fe57600082828151811061057457610574612555565b60200260200101511161059a5760405163fe4155c760e01b815260040160405180910390fd5b6105ec33308484815181106105b1576105b1612555565b60200260200101518685815181106105cb576105cb612555565b60200260200101516001600160a01b0316610d6d909392919063ffffffff16565b806105f6816126f3565b915050610557565b505050610c8d565b60011960ff8216016106e257600084848481811061062657610626612555565b9050602002810190610638919061258f565b810190610645919061270c565b9050600081116106685760405163fe4155c760e01b815260040160405180910390fd5b7f00000000000000000000000000000000000000000000000000000000000000006001600160a01b031663d0e30db0826040518263ffffffff1660e01b81526004016000604051808303818588803b1580156106c357600080fd5b505af11580156106d7573d6000803e3d6000fd5b505050505050610c8d565b60041960ff82160161076b57600084848481811061070257610702612555565b9050602002810190610714919061258f565b8101906107219190612733565b905060005b81518110156107645761075182828151811061074457610744612555565b6020026020010151610dab565b508061075c816126f3565b915050610726565b5050610c8d565b60071960ff82160161096c57600084848481811061078b5761078b612555565b905060200281019061079d919061258f565b8101906107aa9190612840565b905060005b81518110156107645761084a7f00000000000000000000000000000000000000000000000000000000000000008383815181106107ee576107ee612555565b60200260200101516000015184848151811061080c5761080c612555565b60200260200101516040015160008151811061082a5761082a612555565b60200260200101516001600160a01b0316610f8b9092919063ffffffff16565b7f00000000000000000000000000000000000000000000000000000000000000006001600160a01b03166338ed173983838151811061088b5761088b612555565b6020026020010151600001518484815181106108a9576108a9612555565b6020026020010151602001518585815181106108c7576108c7612555565b602002602001015160400151308787815181106108e6576108e6612555565b6020026020010151606001516040518663ffffffff1660e01b815260040161091295949392919061293a565b6000604051808303816000875af1158015610931573d6000803e3d6000fd5b505050506040513d6000823e601f3d908101601f1916820160405261095991908101906129ab565b5080610964816126f3565b9150506107af565b600d1960ff821601610a2d57600084848481811061098c5761098c612555565b905060200281019061099e919061258f565b8101906109ab9190612a30565b905060005b815181101561076457610a1b8282815181106109ce576109ce612555565b6020026020010151600001518383815181106109ec576109ec612555565b602002602001015160400151848481518110610a0a57610a0a612555565b60200260200101516020015161103d565b80610a25816126f3565b9150506109b0565b600c1960ff821601610c3657600080858585818110610a4e57610a4e612555565b9050602002810190610a60919061258f565b810190610a6d9190612aff565b9150915080600003610b06576040516370a0823160e01b81523060048201527f00000000000000000000000000000000000000000000000000000000000000006001600160a01b0316906370a0823190602401602060405180830381865afa158015610add573d6000803e3d6000fd5b505050506040513d601f19601f82011682018060405250810190610b019190612b2b565b610b08565b805b604051632e1a7d4d60e01b8152600481018290529091507f00000000000000000000000000000000000000000000000000000000000000006001600160a01b031690632e1a7d4d90602401600060405180830381600087803b158015610b6d57600080fd5b505af1158015610b81573d6000803e3d6000fd5b505050506000826001600160a01b03168260405160006040518083038185875af1925050503d8060008114610bd2576040519150601f19603f3d011682016040523d82523d6000602084013e610bd7565b606091505b5050905080610bf957604051631d42c86760e21b815260040160405180910390fd5b60405181151581527fecd574d247fc5a32601173682b0af34b454b7a0bf3e382d0efb3c6209e9443fa9060200160405180910390a1505050610c8d565b600e1960ff821601610c8d576000806000868686818110610c5957610c59612555565b9050602002810190610c6b919061258f565b810190610c789190612bc3565b925092509250610c8983838361115f565b5050505b5080610c98816126f3565b9150506104dd565b50506002805460ff19166001179055505050565b6040516001600160a01b038316602482015260448101829052610d1790849063a9059cbb60e01b906064015b60408051601f198184030181529190526020810180516001600160e01b03166001600160e01b0319909316929092179091526113b1565b505050565b600080600080600085875af1905080610d175760405162461bcd60e51b815260206004820152601360248201527211551217d514905394d1915497d19052531151606a1b60448201526064016104a5565b6040516001600160a01b0380851660248301528316604482015260648101829052610da59085906323b872dd60e01b90608401610ce0565b50505050565b60008054825160408401516001548493610dd2936001600160a01b03909116929091611483565b90508060018251610de391906122b1565b81518110610df357610df3612555565b602002602001015191508260200151821015610e515760405162461bcd60e51b815260206004820152601760248201527f696e73756666696369656e742d616d6f756e742d6f757400000000000000000060448201526064016104a5565b826060015115610f76576000805460408501518051610f7693610eb4936001600160a01b03169291610e8557610e85612555565b60200260200101518660400151600181518110610ea457610ea4612555565b6020026020010151600154611606565b8460400151600081518110610ecb57610ecb612555565b60209081029190910101516040516370a0823160e01b81523060048201526001600160a01b03909116906370a0823190602401602060405180830381865afa158015610f1b573d6000803e3d6000fd5b505050506040513d601f19601f82011682018060405250810190610f3f9190612b2b565b8560400151600081518110610f5657610f56612555565b60200260200101516001600160a01b0316610cb49092919063ffffffff16565b610f85818460400151306116ba565b50919050565b604051636eb1769f60e11b81523060048201526001600160a01b038381166024830152600091839186169063dd62ed3e90604401602060405180830381865afa158015610fdc573d6000803e3d6000fd5b505050506040513d601f19601f820116820180604052508101906110009190612b2b565b61100a9190612c91565b6040516001600160a01b038516602482015260448101829052909150610da590859063095ea7b360e01b90606401610ce0565b816000036110b2576040516370a0823160e01b81523060048201526001600160a01b038416906370a0823190602401602060405180830381865afa158015611089573d6000803e3d6000fd5b505050506040513d601f19601f820116820180604052508101906110ad9190612b2b565b6110b4565b815b915060006110c183611891565b90506110cd81846122b1565b92506111036001600160a01b0385167f000000000000000000000000000000000000000000000000000000000000000083610cb4565b6111176001600160a01b0385168385610cb4565b604080516001600160a01b0386168152602081018390527f075a2720282fdf622141dae0b048ef90a21a7e57c134c76912d19d006b3b3f6f910160405180910390a150505050565b8051825114611181576040516373f8993760e11b815260040160405180910390fd5b620186a083610120015110156111aa57604051636eb14fc360e11b815260040160405180910390fd5b600083610100015183836040516020016111c693929190612ca4565b604051602081830303815290604052905083608001516000036112565760208401516040516370a0823160e01b81523060048201526001600160a01b03909116906370a0823190602401602060405180830381865afa15801561122d573d6000803e3d6000fd5b505050506040513d601f19601f820116820180604052508101906112519190612b2b565b61125c565b83608001515b60808501819052602085015161129f916001600160a01b03909116907f000000000000000000000000000000000000000000000000000000000000000090610f8b565b7f00000000000000000000000000000000000000000000000000000000000000006001600160a01b0316639fbf10fc47866000015187604001518860600151338a608001518b60a0015160405180606001604052808e610120015181526020018e60c0015181526020018e60e0015160405160200161131e919061218e565b6040516020818303038152906040528152508d60e00151604051602001611345919061218e565b6040516020818303038152906040528b6040518b63ffffffff1660e01b815260040161137999989796959493929190612ce4565b6000604051808303818588803b15801561139257600080fd5b505af11580156113a6573d6000803e3d6000fd5b505050505050505050565b6000611406826040518060400160405280602081526020017f5361666545524332303a206c6f772d6c6576656c2063616c6c206661696c6564815250856001600160a01b03166118bc9092919063ffffffff16565b805190915015610d1757808060200190518101906114249190612d61565b610d175760405162461bcd60e51b815260206004820152602a60248201527f5361666545524332303a204552433230206f7065726174696f6e20646964206e6044820152691bdd081cdd58d8d9595960b21b60648201526084016104a5565b60606002835110156114d75760405162461bcd60e51b815260206004820152601e60248201527f556e697377617056324c6962726172793a20494e56414c49445f50415448000060448201526064016104a5565b82516001600160401b038111156114f0576114f0611ddf565b604051908082528060200260200182016040528015611519578160200160208202803683370190505b509050838160008151811061153057611530612555565b60200260200101818152505060005b6001845161154d91906122b1565b8110156102a6576000806115a18887858151811061156d5761156d612555565b6020026020010151888660016115839190612c91565b8151811061159357611593612555565b6020026020010151886118d3565b915091506115c98484815181106115ba576115ba612555565b6020026020010151838361199f565b846115d5856001612c91565b815181106115e5576115e5612555565b602002602001018181525050505080806115fe906126f3565b91505061153f565b60008060006116158686611abe565b6040516001600160601b0319606084811b8216602084015283901b166034820152919350915087906048016040516020818303038152906040528051906020012085604051602001611697939291906001600160f81b0319815260609390931b6001600160601b03191660018401526015830191909152603582015260550190565b60408051601f198184030181529190528051602090910120979650505050505050565b60005b600183516116cb91906122b1565b811015610da5576000808483815181106116e7576116e7612555565b6020026020010151858460016116fd9190612c91565b8151811061170d5761170d612555565b60200260200101519150915060006117258383611abe565b509050600087611736866001612c91565b8151811061174657611746612555565b60200260200101519050600080836001600160a01b0316866001600160a01b03161461177457826000611778565b6000835b91509150600060028a5161178c91906122b1565b881061179857886117c5565b6000546117c5906001600160a01b0316878c6117b58c6002612c91565b81518110610ea457610ea4612555565b90506117e860008054906101000a90046001600160a01b03168888600154611606565b6001600160a01b031663022c0d9f84848460006040519080825280601f01601f191660200182016040528015611825576020820181803683370190505b506040518563ffffffff1660e01b81526004016118459493929190612d7e565b600060405180830381600087803b15801561185f57600080fd5b505af1158015611873573d6000803e3d6000fd5b50505050505050505050508080611889906126f3565b9150506116bd565b60006127106118a28361270b612dab565b6118ac9190612dc2565b6118b690836122b1565b92915050565b60606118cb8484600085611bb5565b949350505050565b60008060006118e28686611abe565b5090506000806118f489898989611606565b6001600160a01b0316630902f1ac6040518163ffffffff1660e01b8152600401606060405180830381865afa158015611931573d6000803e3d6000fd5b505050506040513d601f19601f820116820180604052508101906119559190612dfb565b506001600160701b031691506001600160701b03169150826001600160a01b0316886001600160a01b03161461198c57808261198f565b81815b909a909950975050505050505050565b6000808411611a045760405162461bcd60e51b815260206004820152602b60248201527f556e697377617056324c6962726172793a20494e53554646494349454e545f4960448201526a1394155517d05353d5539560aa1b60648201526084016104a5565b600083118015611a145750600082115b611a715760405162461bcd60e51b815260206004820152602860248201527f556e697377617056324c6962726172793a20494e53554646494349454e545f4c604482015267495155494449545960c01b60648201526084016104a5565b6000611a7f856103e5611c85565b90506000611a8d8285611c85565b90506000611aa783611aa1886103e8611c85565b90611cec565b9050611ab38183612dc2565b979650505050505050565b600080826001600160a01b0316846001600160a01b031603611b305760405162461bcd60e51b815260206004820152602560248201527f556e697377617056324c6962726172793a204944454e544943414c5f41444452604482015264455353455360d81b60648201526084016104a5565b826001600160a01b0316846001600160a01b031610611b50578284611b53565b83835b90925090506001600160a01b038216611bae5760405162461bcd60e51b815260206004820152601e60248201527f556e697377617056324c6962726172793a205a45524f5f41444452455353000060448201526064016104a5565b9250929050565b606082471015611c165760405162461bcd60e51b815260206004820152602660248201527f416464726573733a20696e73756666696369656e742062616c616e636520666f6044820152651c8818d85b1b60d21b60648201526084016104a5565b600080866001600160a01b03168587604051611c329190612e4b565b60006040518083038185875af1925050503d8060008114611c6f576040519150601f19603f3d011682016040523d82523d6000602084013e611c74565b606091505b5091509150611ab387838387611d41565b6000811580611ca957508282611c9b8183612dab565b9250611ca79083612dc2565b145b6118b65760405162461bcd60e51b815260206004820152601460248201527364732d6d6174682d6d756c2d6f766572666c6f7760601b60448201526064016104a5565b600082611cf98382612c91565b91508110156118b65760405162461bcd60e51b815260206004820152601460248201527364732d6d6174682d6164642d6f766572666c6f7760601b60448201526064016104a5565b60608315611db0578251600003611da9576001600160a01b0385163b611da95760405162461bcd60e51b815260206004820152601d60248201527f416464726573733a2063616c6c20746f206e6f6e2d636f6e747261637400000060448201526064016104a5565b50816118cb565b6118cb8383815115611dc55781518083602001fd5b8060405162461bcd60e51b81526004016104a59190612e67565b634e487b7160e01b600052604160045260246000fd5b60405161016081016001600160401b0381118282101715611e1857611e18611ddf565b60405290565b604051608081016001600160401b0381118282101715611e1857611e18611ddf565b604051606081016001600160401b0381118282101715611e1857611e18611ddf565b604051601f8201601f191681016001600160401b0381118282101715611e8a57611e8a611ddf565b604052919050565b803561ffff81168114611ea457600080fd5b919050565b6001600160a01b0381168114611ebe57600080fd5b50565b8035611ea481611ea9565b60006101608284031215611edf57600080fd5b611ee7611df5565b9050611ef282611e92565b8152611f0060208301611ec1565b602082015260408201356040820152606082013560608201526080820135608082015260a082013560a082015260c082013560c0820152611f4360e08301611ec1565b60e0820152610100611f56818401611ec1565b9082015261012082810135908201526101409182013591810191909152919050565b60006001600160401b03821115611f9157611f91611ddf565b50601f01601f191660200190565b600082601f830112611fb057600080fd5b8135611fc3611fbe82611f78565b611e62565b818152846020838601011115611fd857600080fd5b816020850160208301376000918101602001919091529392505050565b600080610180838503121561200957600080fd5b6120138484611ecc565b91506101608301356001600160401b0381111561202f57600080fd5b61203b85828601611f9f565b9150509250929050565b60008060008060008060c0878903121561205e57600080fd5b61206787611e92565b955060208701356001600160401b038082111561208357600080fd5b61208f8a838b01611f9f565b965060408901359550606089013591506120a882611ea9565b9093506080880135925060a088013590808211156120c557600080fd5b506120d289828a01611f9f565b9150509295509295509295565b60008083601f8401126120f157600080fd5b5081356001600160401b0381111561210857600080fd5b6020830191508360208260051b8501011115611bae57600080fd5b6000806000806040858703121561213957600080fd5b84356001600160401b038082111561215057600080fd5b61215c888389016120df565b9096509450602087013591508082111561217557600080fd5b50612182878288016120df565b95989497509550505050565b60609190911b6001600160601b031916815260140190565b60005b838110156121c15781810151838201526020016121a9565b50506000910152565b600081518084526121e28160208601602086016121a6565b601f01601f19169290920160200192915050565b805182526020810151602083015260006040820151606060408501526118cb60608501826121ca565b61ffff8616815260ff8516602082015260a06040820152600061224560a08301866121ca565b828103606084015261225781866121ca565b9050828103608084015261226b81856121f6565b98975050505050505050565b6000806040838503121561228a57600080fd5b505080516020909101519092909150565b634e487b7160e01b600052601160045260246000fd5b818103818111156118b6576118b661229b565b60006001600160401b038211156122dd576122dd611ddf565b5060051b60200190565b60ff81168114611ebe57600080fd5b600082601f83011261230757600080fd5b81516020612317611fbe836122c4565b82815260059290921b8401810191818101908684111561233657600080fd5b8286015b848110156123b15780516001600160401b038111156123595760008081fd5b8701603f8101891361236b5760008081fd5b84810151604061237d611fbe83611f78565b8281528b828486010111156123925760008081fd5b6123a1838983018487016121a6565b865250505091830191830161233a565b509695505050505050565b6000806000606084860312156123d157600080fd5b83516123dc81611ea9565b809350506020808501516001600160401b03808211156123fb57600080fd5b818701915087601f83011261240f57600080fd5b815161241d611fbe826122c4565b81815260059190911b8301840190848101908a83111561243c57600080fd5b938501935b82851015612463578451612454816122e7565b82529385019390850190612441565b60408a0151909750945050508083111561247c57600080fd5b505061248a868287016122f6565b9150509250925092565b600081518084526020808501945080840160005b838110156124c757815160ff16875295820195908201906001016124a8565b509495945050505050565b600081518084526020808501808196508360051b8101915082860160005b8581101561251a5782840389526125088483516121ca565b988501989350908401906001016124f0565b5091979650505050505050565b60408152600061253a6040830185612494565b828103602084015261254c81856124d2565b95945050505050565b634e487b7160e01b600052603260045260246000fd5b60006020828403121561257d57600080fd5b8135612588816122e7565b9392505050565b6000808335601e198436030181126125a657600080fd5b8301803591506001600160401b038211156125c057600080fd5b602001915036819003821315611bae57600080fd5b600082601f8301126125e657600080fd5b813560206125f6611fbe836122c4565b82815260059290921b8401810191818101908684111561261557600080fd5b8286015b848110156123b157803561262c81611ea9565b8352918301918301612619565b6000806040838503121561264c57600080fd5b82356001600160401b038082111561266357600080fd5b61266f868387016125d5565b935060209150818501358181111561268657600080fd5b85019050601f8101861361269957600080fd5b80356126a7611fbe826122c4565b81815260059190911b820183019083810190888311156126c657600080fd5b928401925b828410156126e4578335825292840192908401906126cb565b80955050505050509250929050565b6000600182016127055761270561229b565b5060010190565b60006020828403121561271e57600080fd5b5035919050565b8015158114611ebe57600080fd5b6000602080838503121561274657600080fd5b82356001600160401b038082111561275d57600080fd5b818501915085601f83011261277157600080fd5b813561277f611fbe826122c4565b81815260059190911b8301840190848101908883111561279e57600080fd5b8585015b83811015612833578035858111156127b957600080fd5b86016080818c03601f190112156127d05760008081fd5b6127d8611e1e565b8882013581526040808301358a830152606080840135898111156127fc5760008081fd5b61280a8f8d838801016125d5565b83850152506080840135935061281f84612725565b8201929092528452509186019186016127a2565b5098975050505050505050565b6000602080838503121561285357600080fd5b82356001600160401b038082111561286a57600080fd5b818501915085601f83011261287e57600080fd5b813561288c611fbe826122c4565b81815260059190911b830184019084810190888311156128ab57600080fd5b8585015b83811015612833578035858111156128c657600080fd5b86016080818c03601f190112156128dd5760008081fd5b6128e5611e1e565b8882013581526040808301358a830152606080840135898111156129095760008081fd5b6129178f8d838801016125d5565b9284019290925260809390930135928201929092528452509186019186016128af565b600060a082018783526020878185015260a0604085015281875180845260c086019150828901935060005b8181101561298a5784516001600160a01b031683529383019391830191600101612965565b50506001600160a01b03969096166060850152505050608001529392505050565b600060208083850312156129be57600080fd5b82516001600160401b038111156129d457600080fd5b8301601f810185136129e557600080fd5b80516129f3611fbe826122c4565b81815260059190911b82018301908381019087831115612a1257600080fd5b928401925b82841015611ab357835182529284019290840190612a17565b60006020808385031215612a4357600080fd5b82356001600160401b03811115612a5957600080fd5b8301601f81018513612a6a57600080fd5b8035612a78611fbe826122c4565b81815260609182028301840191848201919088841115612a9757600080fd5b938501935b83851015612af35780858a031215612ab45760008081fd5b612abc611e40565b8535612ac781611ea9565b815285870135612ad681611ea9565b818801526040868101359082015283529384019391850191612a9c565b50979650505050505050565b60008060408385031215612b1257600080fd5b8235612b1d81611ea9565b946020939093013593505050565b600060208284031215612b3d57600080fd5b5051919050565b600082601f830112612b5557600080fd5b81356020612b65611fbe836122c4565b82815260059290921b84018101918181019086841115612b8457600080fd5b8286015b848110156123b15780356001600160401b03811115612ba75760008081fd5b612bb58986838b0101611f9f565b845250918301918301612b88565b60008060006101a08486031215612bd957600080fd5b612be38585611ecc565b92506101608401356001600160401b0380821115612c0057600080fd5b818601915086601f830112612c1457600080fd5b81356020612c24611fbe836122c4565b82815260059290921b8401810191818101908a841115612c4357600080fd5b948201945b83861015612c6a578535612c5b816122e7565b82529482019490820190612c48565b9650505050610180860135915080821115612c8457600080fd5b5061248a86828701612b44565b808201808211156118b6576118b661229b565b6001600160a01b0384168152606060208201819052600090612cc890830185612494565b8281036040840152612cda81856124d2565b9695505050505050565b600061012061ffff8c1683528a602084015289604084015260018060a01b03891660608401528760808401528660a08401528060c0840152612d28818401876121f6565b905082810360e0840152612d3c81866121ca565b9050828103610100840152612d5181856121ca565b9c9b505050505050505050505050565b600060208284031215612d7357600080fd5b815161258881612725565b84815283602082015260018060a01b0383166040820152608060608201526000612cda60808301846121ca565b80820281158282048414176118b6576118b661229b565b600082612ddf57634e487b7160e01b600052601260045260246000fd5b500490565b80516001600160701b0381168114611ea457600080fd5b600080600060608486031215612e1057600080fd5b612e1984612de4565b9250612e2760208501612de4565b9150604084015163ffffffff81168114612e4057600080fd5b809150509250925092565b60008251612e5d8184602087016121a6565b9190910192915050565b60208152600061258860208301846121ca56fea2646970667358221220f49158d098284ab67230ee0917f49e14bfda75daa1ce95f7a7df12288b4fb69e64736f6c63430008110033",
    "linkReferences": {}
  },
  "methodIdentifiers": {
    "binanceSwaps(uint8[],bytes[])": "e3c51f59",
    "factory()": "c45a0155",
    "feeCollector()": "c415b95c",
    "getFee((uint16,address,uint256,uint256,uint256,uint256,uint256,address,address,uint256,bytes32),bytes)": "4285f6e4",
    "pairCodeHash()": "9aab9248",
    "sgReceive(uint16,bytes,uint256,address,uint256,bytes)": "ab8236f3",
    "stargateRouter()": "a9e56f3c"
  },
  "id": 18
}