{
  "abi": [
    {
      "inputs": [
        {
          "internalType": "contract IWETH9",
          "name": "_weth",
          "type": "address"
        },
        {
          "internalType": "address",
          "name": "_feeCollector",
          "type": "address"
        },
        {
          "internalType": "address",
          "name": "_factory",
          "type": "address"
        },
        {
          "internalType": "bytes32",
          "name": "_pairCodeHash",
          "type": "bytes32"
        },
        {
          "internalType": "contract IStargateRouter",
          "name": "_stargateRouter",
          "type": "address"
        },
        {
          "internalType": "contract IPancakeRouter02",
          "name": "_pancakeRouter",
          "type": "address"
        }
      ],
      "stateMutability": "nonpayable",
      "type": "constructor"
    },
    {
      "inputs": [],
      "name": "MoreThanZero",
      "type": "error"
    },
    {
      "inputs": [],
      "name": "MustBeGt0",
      "type": "error"
    },
    {
      "inputs": [],
      "name": "NotStgRouter",
      "type": "error"
    },
    {
      "inputs": [],
      "name": "WithdrawFailed",
      "type": "error"
    },
    {
      "anonymous": false,
      "inputs": [
        {
          "indexed": false,
          "internalType": "address",
          "name": "_token",
          "type": "address"
        },
        {
          "indexed": false,
          "internalType": "uint256",
          "name": "_fee",
          "type": "uint256"
        }
      ],
      "name": "FeePaid",
      "type": "event"
    },
    {
      "anonymous": false,
      "inputs": [
        {
          "indexed": true,
          "internalType": "address",
          "name": "token",
          "type": "address"
        },
        {
          "indexed": false,
          "internalType": "uint256",
          "name": "amountLD",
          "type": "uint256"
        },
        {
          "indexed": false,
          "internalType": "bool",
          "name": "failed",
          "type": "bool"
        },
        {
          "indexed": false,
          "internalType": "bool",
          "name": "dustSent",
          "type": "bool"
        }
      ],
      "name": "ReceivedOnDestination",
      "type": "event"
    },
    {
      "anonymous": false,
      "inputs": [
        {
          "indexed": false,
          "internalType": "bool",
          "name": "success",
          "type": "bool"
        }
      ],
      "name": "SuccessfulWithdraw",
      "type": "event"
    },
    {
      "inputs": [
        {
          "internalType": "uint8[]",
          "name": "steps",
          "type": "uint8[]"
        },
        {
          "internalType": "bytes[]",
          "name": "data",
          "type": "bytes[]"
        }
      ],
      "name": "binanceSwaps",
      "outputs": [],
      "stateMutability": "payable",
      "type": "function"
    },
    {
      "inputs": [],
      "name": "factory",
      "outputs": [
        {
          "internalType": "address",
          "name": "",
          "type": "address"
        }
      ],
      "stateMutability": "view",
      "type": "function"
    },
    {
      "inputs": [],
      "name": "feeCollector",
      "outputs": [
        {
          "internalType": "address",
          "name": "",
          "type": "address"
        }
      ],
      "stateMutability": "view",
      "type": "function"
    },
    {
      "inputs": [],
      "name": "pairCodeHash",
      "outputs": [
        {
          "internalType": "bytes32",
          "name": "",
          "type": "bytes32"
        }
      ],
      "stateMutability": "view",
      "type": "function"
    },
    {
      "inputs": [
        {
          "internalType": "uint16",
          "name": "",
          "type": "uint16"
        },
        {
          "internalType": "bytes",
          "name": "",
          "type": "bytes"
        },
        {
          "internalType": "uint256",
          "name": "",
          "type": "uint256"
        },
        {
          "internalType": "address",
          "name": "_token",
          "type": "address"
        },
        {
          "internalType": "uint256",
          "name": "amountLD",
          "type": "uint256"
        },
        {
          "internalType": "bytes",
          "name": "_payload",
          "type": "bytes"
        }
      ],
      "name": "sgReceive",
      "outputs": [],
      "stateMutability": "nonpayable",
      "type": "function"
    },
    {
      "inputs": [],
      "name": "stargateRouter",
      "outputs": [
        {
          "internalType": "contract IStargateRouter",
          "name": "",
          "type": "address"
        }
      ],
      "stateMutability": "view",
      "type": "function"
    },
    {
      "stateMutability": "payable",
      "type": "receive"
    }
  ],
  "bytecode": {
    "object": "0x6101006040523480156200001257600080fd5b5060405162002d3338038062002d3383398101604081905262000035916200008b565b600080546001600160a01b0319166001600160a01b03958616179055600192909255821660805292811660a05291821660c0521660e05262000113565b6001600160a01b03811681146200008857600080fd5b50565b60008060008060008060c08789031215620000a557600080fd5b8651620000b28162000072565b6020880151909650620000c58162000072565b6040880151909550620000d88162000072565b606088015160808901519195509350620000f28162000072565b60a0880151909250620001058162000072565b809150509295509295509295565b60805160a05160c05160e051612bb66200017d6000396000818161010e015261091601526000818161061301526106a20152600081816104c001528181610a090152610a9c01526000818160a00152818161016e0152818161107b01526110a20152612bb66000f3fe6080604052600436106100595760003560e01c80639aab924814610065578063a9e56f3c1461008e578063ab8236f3146100da578063c415b95c146100fc578063c45a015514610130578063e3c51f591461015057600080fd5b3661006057005b600080fd5b34801561007157600080fd5b5061007b60015481565b6040519081526020015b60405180910390f35b34801561009a57600080fd5b506100c27f000000000000000000000000000000000000000000000000000000000000000081565b6040516001600160a01b039091168152602001610085565b3480156100e657600080fd5b506100fa6100f5366004611d4e565b610163565b005b34801561010857600080fd5b506100c27f000000000000000000000000000000000000000000000000000000000000000081565b34801561013c57600080fd5b506000546100c2906001600160a01b031681565b6100fa61015e366004611e2c565b610330565b336001600160a01b037f000000000000000000000000000000000000000000000000000000000000000016146101ac57604051638afe477f60e01b815260040160405180910390fd5b6000806000838060200190518101906101c59190611fb3565b9250925092506000306001600160a01b031663e3c51f5962030d4085856040518463ffffffff1660e01b81526004016101ff92919061214a565b600060405180830381600088803b15801561021957600080fd5b5087f19350505050801561022b575060015b610279573d808015610259576040519150601f19603f3d011682016040523d82523d6000602084013e61025e565b606091505b506102736001600160a01b0389168689610c22565b60019150505b600047156102d5576040516001600160a01b038616904790600081818185875af1925050503d80600081146102ca576040519150601f19603f3d011682016040523d82523d6000602084013e6102cf565b606091505b50909150505b6040805188815283151560208201528215158183015290516001600160a01b038a16917f7f345d6da48bd1339fd428ff45265a0f01258b14ca09dcf8db0c469f4f732fd3919081900360600190a25050505050505050505050565b60005b83811015610c1b57600085858381811061034f5761034f612178565b9050602002016020810190610364919061218e565b905060001960ff82160161045c5760008085858581811061038757610387612178565b905060200281019061039991906121b2565b8101906103a6919061225c565b9150915060005b82518110156104545760008282815181106103ca576103ca612178565b6020026020010151116103f05760405163fe4155c760e01b815260040160405180910390fd5b610442333084848151811061040757610407612178565b602002602001015186858151811061042157610421612178565b60200260200101516001600160a01b0316610c8a909392919063ffffffff16565b8061044c8161232c565b9150506103ad565b505050610c08565b60011960ff82160161053857600084848481811061047c5761047c612178565b905060200281019061048e91906121b2565b81019061049b9190612345565b9050600081116104be5760405163fe4155c760e01b815260040160405180910390fd5b7f00000000000000000000000000000000000000000000000000000000000000006001600160a01b031663d0e30db0826040518263ffffffff1660e01b81526004016000604051808303818588803b15801561051957600080fd5b505af115801561052d573d6000803e3d6000fd5b505050505050610c08565b60041960ff8216016105c157600084848481811061055857610558612178565b905060200281019061056a91906121b2565b810190610577919061236c565b905060005b81518110156105ba576105a782828151811061059a5761059a612178565b6020026020010151610cc8565b50806105b28161232c565b91505061057c565b5050610c08565b60061960ff8216016107c25760008484848181106105e1576105e1612178565b90506020028101906105f391906121b2565b8101906106009190612479565b905060005b81518110156105ba576106a07f000000000000000000000000000000000000000000000000000000000000000083838151811061064457610644612178565b60200260200101516000015184848151811061066257610662612178565b60200260200101516040015160008151811061068057610680612178565b60200260200101516001600160a01b0316610ead9092919063ffffffff16565b7f00000000000000000000000000000000000000000000000000000000000000006001600160a01b03166338ed17398383815181106106e1576106e1612178565b6020026020010151600001518484815181106106ff576106ff612178565b60200260200101516020015185858151811061071d5761071d612178565b6020026020010151604001513087878151811061073c5761073c612178565b6020026020010151606001516040518663ffffffff1660e01b8152600401610768959493929190612573565b6000604051808303816000875af1158015610787573d6000803e3d6000fd5b505050506040513d6000823e601f3d908101601f191682016040526107af91908101906125e4565b50806107ba8161232c565b915050610605565b600a1960ff8216016109a85760008484848181106107e2576107e2612178565b90506020028101906107f491906121b2565b8101906108019190612669565b905060005b81518110156105ba57600082828151811061082357610823612178565b6020026020010151600001519050600083838151811061084557610845612178565b6020026020010151604001519050806000036108c8576040516370a0823160e01b81523060048201526001600160a01b038316906370a0823190602401602060405180830381865afa15801561089f573d6000803e3d6000fd5b505050506040513d601f19601f820116820180604052508101906108c39190612738565b6108ca565b805b905060008484815181106108e0576108e0612178565b602002602001015160200151905060006108f983610f5f565b90506109058184612751565b925061093b6001600160a01b0385167f000000000000000000000000000000000000000000000000000000000000000083610c22565b61094f6001600160a01b0385168385610c22565b604080516001600160a01b0386168152602081018390527f075a2720282fdf622141dae0b048ef90a21a7e57c134c76912d19d006b3b3f6f910160405180910390a15050505080806109a09061232c565b915050610806565b600b1960ff821601610bb1576000808585858181106109c9576109c9612178565b90506020028101906109db91906121b2565b8101906109e89190612764565b9150915080600003610a81576040516370a0823160e01b81523060048201527f00000000000000000000000000000000000000000000000000000000000000006001600160a01b0316906370a0823190602401602060405180830381865afa158015610a58573d6000803e3d6000fd5b505050506040513d601f19601f82011682018060405250810190610a7c9190612738565b610a83565b805b604051632e1a7d4d60e01b8152600481018290529091507f00000000000000000000000000000000000000000000000000000000000000006001600160a01b031690632e1a7d4d90602401600060405180830381600087803b158015610ae857600080fd5b505af1158015610afc573d6000803e3d6000fd5b505050506000826001600160a01b03168260405160006040518083038185875af1925050503d8060008114610b4d576040519150601f19603f3d011682016040523d82523d6000602084013e610b52565b606091505b5050905080610b7457604051631d42c86760e21b815260040160405180910390fd5b60405181151581527fecd574d247fc5a32601173682b0af34b454b7a0bf3e382d0efb3c6209e9443fa9060200160405180910390a1505050610c08565b600c1960ff821601610c08576000806000868686818110610bd457610bd4612178565b9050602002810190610be691906121b2565b810190610bf39190612873565b925092509250610c04838383610f8a565b5050505b5080610c138161232c565b915050610333565b5050505050565b6040516001600160a01b038316602482015260448101829052610c8590849063a9059cbb60e01b906064015b60408051601f198184030181529190526020810180516001600160e01b03166001600160e01b0319909316929092179091526111d8565b505050565b6040516001600160a01b0380851660248301528316604482015260648101829052610cc29085906323b872dd60e01b90608401610c4e565b50505050565b60008054825160408401516001548493610cef936001600160a01b039091169290916112aa565b90508060018251610d009190612751565b81518110610d1057610d10612178565b602002602001015191508260200151821015610d735760405162461bcd60e51b815260206004820152601760248201527f696e73756666696369656e742d616d6f756e742d6f757400000000000000000060448201526064015b60405180910390fd5b826060015115610e98576000805460408501518051610e9893610dd6936001600160a01b03169291610da757610da7612178565b60200260200101518660400151600181518110610dc657610dc6612178565b6020026020010151600154611436565b8460400151600081518110610ded57610ded612178565b60209081029190910101516040516370a0823160e01b81523060048201526001600160a01b03909116906370a0823190602401602060405180830381865afa158015610e3d573d6000803e3d6000fd5b505050506040513d601f19601f82011682018060405250810190610e619190612738565b8560400151600081518110610e7857610e78612178565b60200260200101516001600160a01b0316610c229092919063ffffffff16565b610ea7818460400151306114ea565b50919050565b604051636eb1769f60e11b81523060048201526001600160a01b038381166024830152600091839186169063dd62ed3e90604401602060405180830381865afa158015610efe573d6000803e3d6000fd5b505050506040513d601f19601f82011682018060405250810190610f229190612738565b610f2c9190612976565b6040516001600160a01b038516602482015260448101829052909150610cc290859063095ea7b360e01b90606401610c4e565b6000612710610f708361270b612989565b610f7a91906129a0565b610f849083612751565b92915050565b60003411610fab5760405163c9935ff960e01b815260040160405180910390fd5b60008361010001518383604051602001610fc7939291906129c2565b604051602081830303815290604052905083608001516000036110575760208401516040516370a0823160e01b81523060048201526001600160a01b03909116906370a0823190602401602060405180830381865afa15801561102e573d6000803e3d6000fd5b505050506040513d601f19601f820116820180604052508101906110529190612738565b61105d565b83608001515b6080850181905260208501516110a0916001600160a01b03909116907f000000000000000000000000000000000000000000000000000000000000000090610ead565b7f00000000000000000000000000000000000000000000000000000000000000006001600160a01b0316639fbf10fc47866000015187604001518860600151308a608001518b60a0015160405180606001604052808e610120015181526020018e60c0015181526020018e60e00151604051602001611132919060609190911b6001600160601b031916815260140190565b6040516020818303038152906040528152508d60e0015160405160200161116c919060609190911b6001600160601b031916815260140190565b6040516020818303038152906040528b6040518b63ffffffff1660e01b81526004016111a099989796959493929190612a02565b6000604051808303818588803b1580156111b957600080fd5b505af11580156111cd573d6000803e3d6000fd5b505050505050505050565b600061122d826040518060400160405280602081526020017f5361666545524332303a206c6f772d6c6576656c2063616c6c206661696c6564815250856001600160a01b03166116c19092919063ffffffff16565b805190915015610c85578080602001905181019061124b9190612aa0565b610c855760405162461bcd60e51b815260206004820152602a60248201527f5361666545524332303a204552433230206f7065726174696f6e20646964206e6044820152691bdd081cdd58d8d9595960b21b6064820152608401610d6a565b60606002835110156112fe5760405162461bcd60e51b815260206004820152601e60248201527f556e697377617056324c6962726172793a20494e56414c49445f5041544800006044820152606401610d6a565b82516001600160401b0381111561131757611317611bfb565b604051908082528060200260200182016040528015611340578160200160208202803683370190505b509050838160008151811061135757611357612178565b60200260200101818152505060005b600184516113749190612751565b81101561142d576000806113c88887858151811061139457611394612178565b6020026020010151888660016113aa9190612976565b815181106113ba576113ba612178565b6020026020010151886116d8565b915091506113f08484815181106113e1576113e1612178565b602002602001015183836117a4565b846113fc856001612976565b8151811061140c5761140c612178565b602002602001018181525050505080806114259061232c565b915050611366565b50949350505050565b600080600061144586866118c3565b6040516001600160601b0319606084811b8216602084015283901b1660348201529193509150879060480160405160208183030381529060405280519060200120856040516020016114c7939291906001600160f81b0319815260609390931b6001600160601b03191660018401526015830191909152603582015260550190565b60408051601f198184030181529190528051602090910120979650505050505050565b60005b600183516114fb9190612751565b811015610cc25760008084838151811061151757611517612178565b60200260200101518584600161152d9190612976565b8151811061153d5761153d612178565b602002602001015191509150600061155583836118c3565b509050600087611566866001612976565b8151811061157657611576612178565b60200260200101519050600080836001600160a01b0316866001600160a01b0316146115a4578260006115a8565b6000835b91509150600060028a516115bc9190612751565b88106115c857886115f5565b6000546115f5906001600160a01b0316878c6115e58c6002612976565b81518110610dc657610dc6612178565b905061161860008054906101000a90046001600160a01b03168888600154611436565b6001600160a01b031663022c0d9f84848460006040519080825280601f01601f191660200182016040528015611655576020820181803683370190505b506040518563ffffffff1660e01b81526004016116759493929190612abd565b600060405180830381600087803b15801561168f57600080fd5b505af11580156116a3573d6000803e3d6000fd5b505050505050505050505080806116b99061232c565b9150506114ed565b60606116d084846000856119ba565b949350505050565b60008060006116e786866118c3565b5090506000806116f989898989611436565b6001600160a01b0316630902f1ac6040518163ffffffff1660e01b8152600401606060405180830381865afa158015611736573d6000803e3d6000fd5b505050506040513d601f19601f8201168201806040525081019061175a9190612b01565b506001600160701b031691506001600160701b03169150826001600160a01b0316886001600160a01b031614611791578082611794565b81815b909a909950975050505050505050565b60008084116118095760405162461bcd60e51b815260206004820152602b60248201527f556e697377617056324c6962726172793a20494e53554646494349454e545f4960448201526a1394155517d05353d5539560aa1b6064820152608401610d6a565b6000831180156118195750600082115b6118765760405162461bcd60e51b815260206004820152602860248201527f556e697377617056324c6962726172793a20494e53554646494349454e545f4c604482015267495155494449545960c01b6064820152608401610d6a565b6000611884856103e5611a8a565b905060006118928285611a8a565b905060006118ac836118a6886103e8611a8a565b90611af1565b90506118b881836129a0565b979650505050505050565b600080826001600160a01b0316846001600160a01b0316036119355760405162461bcd60e51b815260206004820152602560248201527f556e697377617056324c6962726172793a204944454e544943414c5f41444452604482015264455353455360d81b6064820152608401610d6a565b826001600160a01b0316846001600160a01b031610611955578284611958565b83835b90925090506001600160a01b0382166119b35760405162461bcd60e51b815260206004820152601e60248201527f556e697377617056324c6962726172793a205a45524f5f4144445245535300006044820152606401610d6a565b9250929050565b606082471015611a1b5760405162461bcd60e51b815260206004820152602660248201527f416464726573733a20696e73756666696369656e742062616c616e636520666f6044820152651c8818d85b1b60d21b6064820152608401610d6a565b600080866001600160a01b03168587604051611a379190612b51565b60006040518083038185875af1925050503d8060008114611a74576040519150601f19603f3d011682016040523d82523d6000602084013e611a79565b606091505b50915091506118b887838387611b46565b6000811580611aae57508282611aa08183612989565b9250611aac90836129a0565b145b610f845760405162461bcd60e51b815260206004820152601460248201527364732d6d6174682d6d756c2d6f766572666c6f7760601b6044820152606401610d6a565b600082611afe8382612976565b9150811015610f845760405162461bcd60e51b815260206004820152601460248201527364732d6d6174682d6164642d6f766572666c6f7760601b6044820152606401610d6a565b60608315611bb5578251600003611bae576001600160a01b0385163b611bae5760405162461bcd60e51b815260206004820152601d60248201527f416464726573733a2063616c6c20746f206e6f6e2d636f6e74726163740000006044820152606401610d6a565b50816116d0565b6116d08383815115611bca5781518083602001fd5b8060405162461bcd60e51b8152600401610d6a9190612b6d565b803561ffff81168114611bf657600080fd5b919050565b634e487b7160e01b600052604160045260246000fd5b604051608081016001600160401b0381118282101715611c3357611c33611bfb565b60405290565b604051606081016001600160401b0381118282101715611c3357611c33611bfb565b60405161016081016001600160401b0381118282101715611c3357611c33611bfb565b604051601f8201601f191681016001600160401b0381118282101715611ca657611ca6611bfb565b604052919050565b60006001600160401b03821115611cc757611cc7611bfb565b50601f01601f191660200190565b600082601f830112611ce657600080fd5b8135611cf9611cf482611cae565b611c7e565b818152846020838601011115611d0e57600080fd5b816020850160208301376000918101602001919091529392505050565b6001600160a01b0381168114611d4057600080fd5b50565b8035611bf681611d2b565b60008060008060008060c08789031215611d6757600080fd5b611d7087611be4565b955060208701356001600160401b0380821115611d8c57600080fd5b611d988a838b01611cd5565b96506040890135955060608901359150611db182611d2b565b9093506080880135925060a08801359080821115611dce57600080fd5b50611ddb89828a01611cd5565b9150509295509295509295565b60008083601f840112611dfa57600080fd5b5081356001600160401b03811115611e1157600080fd5b6020830191508360208260051b85010111156119b357600080fd5b60008060008060408587031215611e4257600080fd5b84356001600160401b0380821115611e5957600080fd5b611e6588838901611de8565b90965094506020870135915080821115611e7e57600080fd5b50611e8b87828801611de8565b95989497509550505050565b60006001600160401b03821115611eb057611eb0611bfb565b5060051b60200190565b60ff81168114611d4057600080fd5b60005b83811015611ee4578181015183820152602001611ecc565b50506000910152565b600082601f830112611efe57600080fd5b81516020611f0e611cf483611e97565b82815260059290921b84018101918181019086841115611f2d57600080fd5b8286015b84811015611fa85780516001600160401b03811115611f505760008081fd5b8701603f81018913611f625760008081fd5b848101516040611f74611cf483611cae565b8281528b82848601011115611f895760008081fd5b611f9883898301848701611ec9565b8652505050918301918301611f31565b509695505050505050565b600080600060608486031215611fc857600080fd5b8351611fd381611d2b565b809350506020808501516001600160401b0380821115611ff257600080fd5b818701915087601f83011261200657600080fd5b8151612014611cf482611e97565b81815260059190911b8301840190848101908a83111561203357600080fd5b938501935b8285101561205a57845161204b81611eba565b82529385019390850190612038565b60408a0151909750945050508083111561207357600080fd5b505061208186828701611eed565b9150509250925092565b600081518084526020808501945080840160005b838110156120be57815160ff168752958201959082019060010161209f565b509495945050505050565b600081518084526120e1816020860160208601611ec9565b601f01601f19169290920160200192915050565b600081518084526020808501808196508360051b8101915082860160005b8581101561213d57828403895261212b8483516120c9565b98850198935090840190600101612113565b5091979650505050505050565b60408152600061215d604083018561208b565b828103602084015261216f81856120f5565b95945050505050565b634e487b7160e01b600052603260045260246000fd5b6000602082840312156121a057600080fd5b81356121ab81611eba565b9392505050565b6000808335601e198436030181126121c957600080fd5b8301803591506001600160401b038211156121e357600080fd5b6020019150368190038213156119b357600080fd5b600082601f83011261220957600080fd5b81356020612219611cf483611e97565b82815260059290921b8401810191818101908684111561223857600080fd5b8286015b84811015611fa857803561224f81611d2b565b835291830191830161223c565b6000806040838503121561226f57600080fd5b82356001600160401b038082111561228657600080fd5b612292868387016121f8565b93506020915081850135818111156122a957600080fd5b85019050601f810186136122bc57600080fd5b80356122ca611cf482611e97565b81815260059190911b820183019083810190888311156122e957600080fd5b928401925b82841015612307578335825292840192908401906122ee565b80955050505050509250929050565b634e487b7160e01b600052601160045260246000fd5b60006001820161233e5761233e612316565b5060010190565b60006020828403121561235757600080fd5b5035919050565b8015158114611d4057600080fd5b6000602080838503121561237f57600080fd5b82356001600160401b038082111561239657600080fd5b818501915085601f8301126123aa57600080fd5b81356123b8611cf482611e97565b81815260059190911b830184019084810190888311156123d757600080fd5b8585015b8381101561246c578035858111156123f257600080fd5b86016080818c03601f190112156124095760008081fd5b612411611c11565b8882013581526040808301358a830152606080840135898111156124355760008081fd5b6124438f8d838801016121f8565b8385015250608084013593506124588461235e565b8201929092528452509186019186016123db565b5098975050505050505050565b6000602080838503121561248c57600080fd5b82356001600160401b03808211156124a357600080fd5b818501915085601f8301126124b757600080fd5b81356124c5611cf482611e97565b81815260059190911b830184019084810190888311156124e457600080fd5b8585015b8381101561246c578035858111156124ff57600080fd5b86016080818c03601f190112156125165760008081fd5b61251e611c11565b8882013581526040808301358a830152606080840135898111156125425760008081fd5b6125508f8d838801016121f8565b9284019290925260809390930135928201929092528452509186019186016124e8565b600060a082018783526020878185015260a0604085015281875180845260c086019150828901935060005b818110156125c35784516001600160a01b03168352938301939183019160010161259e565b50506001600160a01b03969096166060850152505050608001529392505050565b600060208083850312156125f757600080fd5b82516001600160401b0381111561260d57600080fd5b8301601f8101851361261e57600080fd5b805161262c611cf482611e97565b81815260059190911b8201830190838101908783111561264b57600080fd5b928401925b828410156118b857835182529284019290840190612650565b6000602080838503121561267c57600080fd5b82356001600160401b0381111561269257600080fd5b8301601f810185136126a357600080fd5b80356126b1611cf482611e97565b818152606091820283018401918482019190888411156126d057600080fd5b938501935b8385101561272c5780858a0312156126ed5760008081fd5b6126f5611c39565b853561270081611d2b565b81528587013561270f81611d2b565b8188015260408681013590820152835293840193918501916126d5565b50979650505050505050565b60006020828403121561274a57600080fd5b5051919050565b81810381811115610f8457610f84612316565b6000806040838503121561277757600080fd5b823561278281611d2b565b946020939093013593505050565b600082601f8301126127a157600080fd5b813560206127b1611cf483611e97565b82815260059290921b840181019181810190868411156127d057600080fd5b8286015b84811015611fa85780356127e781611eba565b83529183019183016127d4565b600082601f83011261280557600080fd5b81356020612815611cf483611e97565b82815260059290921b8401810191818101908684111561283457600080fd5b8286015b84811015611fa85780356001600160401b038111156128575760008081fd5b6128658986838b0101611cd5565b845250918301918301612838565b60008060008385036101a081121561288a57600080fd5b6101608082121561289a57600080fd5b6128a2611c5b565b91506128ad86611be4565b82526128bb60208701611d43565b602083015260408601356040830152606086013560608301526080860135608083015260a086013560a083015260c086013560c08301526128fe60e08701611d43565b60e0830152610100612911818801611d43565b90830152610120868101359083015261014080870135908301529093508401356001600160401b038082111561294657600080fd5b61295287838801612790565b935061018086013591508082111561296957600080fd5b50612081868287016127f4565b80820180821115610f8457610f84612316565b8082028115828204841417610f8457610f84612316565b6000826129bd57634e487b7160e01b600052601260045260246000fd5b500490565b6001600160a01b03841681526060602082018190526000906129e69083018561208b565b82810360408401526129f881856120f5565b9695505050505050565b600061012061ffff8c1683528a602084015289604084015260018060a01b03891660608401528760808401528660a08401528060c084015285518184015250602085015161014083015260408501516060610160840152612a676101808401826120c9565b905082810360e0840152612a7b81866120c9565b9050828103610100840152612a9081856120c9565b9c9b505050505050505050505050565b600060208284031215612ab257600080fd5b81516121ab8161235e565b84815283602082015260018060a01b03831660408201526080606082015260006129f860808301846120c9565b80516001600160701b0381168114611bf657600080fd5b600080600060608486031215612b1657600080fd5b612b1f84612aea565b9250612b2d60208501612aea565b9150604084015163ffffffff81168114612b4657600080fd5b809150509250925092565b60008251612b63818460208701611ec9565b9190910192915050565b6020815260006121ab60208301846120c956fea2646970667358221220dad97105761c73d9c0a3ea6e7086f5072287f4c9bcfff35a5a71e1df12a4fe9e64736f6c63430008110033",
    "linkReferences": {}
  },
  "methodIdentifiers": {
    "binanceSwaps(uint8[],bytes[])": "e3c51f59",
    "factory()": "c45a0155",
    "feeCollector()": "c415b95c",
    "pairCodeHash()": "9aab9248",
    "sgReceive(uint16,bytes,uint256,address,uint256,bytes)": "ab8236f3",
    "stargateRouter()": "a9e56f3c"
  },
  "id": 45
}