{
  "abi": [
    {
      "inputs": [
        {
          "internalType": "contract IWETH9",
          "name": "_weth",
          "type": "address"
        },
        {
          "internalType": "address",
          "name": "_feeCollector",
          "type": "address"
        },
        {
          "internalType": "address",
          "name": "_factory",
          "type": "address"
        },
        {
          "internalType": "bytes32",
          "name": "_pairCodeHash",
          "type": "bytes32"
        },
        {
          "internalType": "contract IStargateRouter",
          "name": "_stargateRouter",
          "type": "address"
        },
        {
          "internalType": "contract IPancakeRouter02",
          "name": "_pancakeRouter",
          "type": "address"
        }
      ],
      "stateMutability": "nonpayable",
      "type": "constructor"
    },
    {
      "inputs": [],
      "name": "MoreThanZero",
      "type": "error"
    },
    {
      "inputs": [],
      "name": "MustBeGt0",
      "type": "error"
    },
    {
      "inputs": [],
      "name": "NotStgRouter",
      "type": "error"
    },
    {
      "inputs": [],
      "name": "WithdrawFailed",
      "type": "error"
    },
    {
      "anonymous": false,
      "inputs": [
        {
          "indexed": false,
          "internalType": "address",
          "name": "_token",
          "type": "address"
        },
        {
          "indexed": false,
          "internalType": "uint256",
          "name": "_fee",
          "type": "uint256"
        }
      ],
      "name": "FeePaid",
      "type": "event"
    },
    {
      "anonymous": false,
      "inputs": [
        {
          "indexed": true,
          "internalType": "address",
          "name": "token",
          "type": "address"
        },
        {
          "indexed": false,
          "internalType": "uint256",
          "name": "amountLD",
          "type": "uint256"
        },
        {
          "indexed": false,
          "internalType": "bool",
          "name": "failed",
          "type": "bool"
        },
        {
          "indexed": false,
          "internalType": "bool",
          "name": "dustSent",
          "type": "bool"
        }
      ],
      "name": "ReceivedOnDestination",
      "type": "event"
    },
    {
      "anonymous": false,
      "inputs": [
        {
          "indexed": false,
          "internalType": "bool",
          "name": "success",
          "type": "bool"
        }
      ],
      "name": "SuccessfulWithdraw",
      "type": "event"
    },
    {
      "inputs": [
        {
          "internalType": "uint8[]",
          "name": "steps",
          "type": "uint8[]"
        },
        {
          "internalType": "bytes[]",
          "name": "data",
          "type": "bytes[]"
        }
      ],
      "name": "binanceSwaps",
      "outputs": [],
      "stateMutability": "payable",
      "type": "function"
    },
    {
      "inputs": [],
      "name": "factory",
      "outputs": [
        {
          "internalType": "address",
          "name": "",
          "type": "address"
        }
      ],
      "stateMutability": "view",
      "type": "function"
    },
    {
      "inputs": [],
      "name": "feeCollector",
      "outputs": [
        {
          "internalType": "address",
          "name": "",
          "type": "address"
        }
      ],
      "stateMutability": "view",
      "type": "function"
    },
    {
      "inputs": [],
      "name": "pairCodeHash",
      "outputs": [
        {
          "internalType": "bytes32",
          "name": "",
          "type": "bytes32"
        }
      ],
      "stateMutability": "view",
      "type": "function"
    },
    {
      "inputs": [
        {
          "internalType": "uint16",
          "name": "",
          "type": "uint16"
        },
        {
          "internalType": "bytes",
          "name": "",
          "type": "bytes"
        },
        {
          "internalType": "uint256",
          "name": "",
          "type": "uint256"
        },
        {
          "internalType": "address",
          "name": "_token",
          "type": "address"
        },
        {
          "internalType": "uint256",
          "name": "amountLD",
          "type": "uint256"
        },
        {
          "internalType": "bytes",
          "name": "_payload",
          "type": "bytes"
        }
      ],
      "name": "sgReceive",
      "outputs": [],
      "stateMutability": "nonpayable",
      "type": "function"
    },
    {
      "inputs": [],
      "name": "stargateRouter",
      "outputs": [
        {
          "internalType": "contract IStargateRouter",
          "name": "",
          "type": "address"
        }
      ],
      "stateMutability": "view",
      "type": "function"
    },
    {
      "stateMutability": "payable",
      "type": "receive"
    }
  ],
  "bytecode": {
    "object": "0x6101006040526002805460ff191660011790553480156200001f57600080fd5b5060405162002d9838038062002d98833981016040819052620000429162000098565b600080546001600160a01b0319166001600160a01b03958616179055600192909255821660805292811660a05291821660c0521660e05262000120565b6001600160a01b03811681146200009557600080fd5b50565b60008060008060008060c08789031215620000b257600080fd5b8651620000bf816200007f565b6020880151909650620000d2816200007f565b6040880151909550620000e5816200007f565b606088015160808901519195509350620000ff816200007f565b60a088015190925062000112816200007f565b809150509295509295509295565b60805160a05160c05160e051612c0e6200018a6000396000818161010e0152610f3601526000818161066601526106f50152600081816105130152818161093701526109ca01526000818160a00152818161016e015281816110a801526110cf0152612c0e6000f3fe6080604052600436106100595760003560e01c80639aab924814610065578063a9e56f3c1461008e578063ab8236f3146100da578063c415b95c146100fc578063c45a015514610130578063e3c51f591461015057600080fd5b3661006057005b600080fd5b34801561007157600080fd5b5061007b60015481565b6040519081526020015b60405180910390f35b34801561009a57600080fd5b506100c27f000000000000000000000000000000000000000000000000000000000000000081565b6040516001600160a01b039091168152602001610085565b3480156100e657600080fd5b506100fa6100f5366004611da6565b610163565b005b34801561010857600080fd5b506100c27f000000000000000000000000000000000000000000000000000000000000000081565b34801561013c57600080fd5b506000546100c2906001600160a01b031681565b6100fa61015e366004611e84565b610330565b336001600160a01b037f000000000000000000000000000000000000000000000000000000000000000016146101ac57604051638afe477f60e01b815260040160405180910390fd5b6000806000838060200190518101906101c5919061200b565b9250925092506000306001600160a01b031663e3c51f5962030d4085856040518463ffffffff1660e01b81526004016101ff9291906121a2565b600060405180830381600088803b15801561021957600080fd5b5087f19350505050801561022b575060015b610279573d808015610259576040519150601f19603f3d011682016040523d82523d6000602084013e61025e565b606091505b506102736001600160a01b0389168689610b5d565b60019150505b600047156102d5576040516001600160a01b038616904790600081818185875af1925050503d80600081146102ca576040519150601f19603f3d011682016040523d82523d6000602084013e6102cf565b606091505b50909150505b6040805188815283151560208201528215158183015290516001600160a01b038a16917f7f345d6da48bd1339fd428ff45265a0f01258b14ca09dcf8db0c469f4f732fd3919081900360600190a25050505050505050505050565b60025460ff166001146103775760405162461bcd60e51b815260206004820152600a6024820152695245454e5452414e435960b01b60448201526064015b60405180910390fd5b6002805460ff19168117905560005b83811015610b495760008585838181106103a2576103a26121d0565b90506020020160208101906103b791906121e6565b905060001960ff8216016104af576000808585858181106103da576103da6121d0565b90506020028101906103ec919061220a565b8101906103f991906122b4565b9150915060005b82518110156104a757600082828151811061041d5761041d6121d0565b6020026020010151116104435760405163fe4155c760e01b815260040160405180910390fd5b610495333084848151811061045a5761045a6121d0565b6020026020010151868581518110610474576104746121d0565b60200260200101516001600160a01b0316610bc5909392919063ffffffff16565b8061049f81612384565b915050610400565b505050610b36565b60011960ff82160161058b5760008484848181106104cf576104cf6121d0565b90506020028101906104e1919061220a565b8101906104ee919061239d565b9050600081116105115760405163fe4155c760e01b815260040160405180910390fd5b7f00000000000000000000000000000000000000000000000000000000000000006001600160a01b031663d0e30db0826040518263ffffffff1660e01b81526004016000604051808303818588803b15801561056c57600080fd5b505af1158015610580573d6000803e3d6000fd5b505050505050610b36565b60041960ff8216016106145760008484848181106105ab576105ab6121d0565b90506020028101906105bd919061220a565b8101906105ca91906123c4565b905060005b815181101561060d576105fa8282815181106105ed576105ed6121d0565b6020026020010151610c03565b508061060581612384565b9150506105cf565b5050610b36565b60071960ff821601610815576000848484818110610634576106346121d0565b9050602002810190610646919061220a565b81019061065391906124d1565b905060005b815181101561060d576106f37f0000000000000000000000000000000000000000000000000000000000000000838381518110610697576106976121d0565b6020026020010151600001518484815181106106b5576106b56121d0565b6020026020010151604001516000815181106106d3576106d36121d0565b60200260200101516001600160a01b0316610de39092919063ffffffff16565b7f00000000000000000000000000000000000000000000000000000000000000006001600160a01b03166338ed1739838381518110610734576107346121d0565b602002602001015160000151848481518110610752576107526121d0565b602002602001015160200151858581518110610770576107706121d0565b6020026020010151604001513087878151811061078f5761078f6121d0565b6020026020010151606001516040518663ffffffff1660e01b81526004016107bb9594939291906125cb565b6000604051808303816000875af11580156107da573d6000803e3d6000fd5b505050506040513d6000823e601f3d908101601f19168201604052610802919081019061263c565b508061080d81612384565b915050610658565b600d1960ff8216016108d6576000848484818110610835576108356121d0565b9050602002810190610847919061220a565b81019061085491906126c1565b905060005b815181101561060d576108c4828281518110610877576108776121d0565b602002602001015160000151838381518110610895576108956121d0565b6020026020010151604001518484815181106108b3576108b36121d0565b602002602001015160200151610e95565b806108ce81612384565b915050610859565b600c1960ff821601610adf576000808585858181106108f7576108f76121d0565b9050602002810190610909919061220a565b8101906109169190612790565b91509150806000036109af576040516370a0823160e01b81523060048201527f00000000000000000000000000000000000000000000000000000000000000006001600160a01b0316906370a0823190602401602060405180830381865afa158015610986573d6000803e3d6000fd5b505050506040513d601f19601f820116820180604052508101906109aa91906127bc565b6109b1565b805b604051632e1a7d4d60e01b8152600481018290529091507f00000000000000000000000000000000000000000000000000000000000000006001600160a01b031690632e1a7d4d90602401600060405180830381600087803b158015610a1657600080fd5b505af1158015610a2a573d6000803e3d6000fd5b505050506000826001600160a01b03168260405160006040518083038185875af1925050503d8060008114610a7b576040519150601f19603f3d011682016040523d82523d6000602084013e610a80565b606091505b5050905080610aa257604051631d42c86760e21b815260040160405180910390fd5b60405181151581527fecd574d247fc5a32601173682b0af34b454b7a0bf3e382d0efb3c6209e9443fa9060200160405180910390a1505050610b36565b600e1960ff821601610b36576000806000868686818110610b0257610b026121d0565b9050602002810190610b14919061220a565b810190610b2191906128b8565b925092509250610b32838383610fb7565b5050505b5080610b4181612384565b915050610386565b50506002805460ff19166001179055505050565b6040516001600160a01b038316602482015260448101829052610bc090849063a9059cbb60e01b906064015b60408051601f198184030181529190526020810180516001600160e01b03166001600160e01b031990931692909217909152611205565b505050565b6040516001600160a01b0380851660248301528316604482015260648101829052610bfd9085906323b872dd60e01b90608401610b89565b50505050565b60008054825160408401516001548493610c2a936001600160a01b039091169290916112d7565b90508060018251610c3b91906129bb565b81518110610c4b57610c4b6121d0565b602002602001015191508260200151821015610ca95760405162461bcd60e51b815260206004820152601760248201527f696e73756666696369656e742d616d6f756e742d6f7574000000000000000000604482015260640161036e565b826060015115610dce576000805460408501518051610dce93610d0c936001600160a01b03169291610cdd57610cdd6121d0565b60200260200101518660400151600181518110610cfc57610cfc6121d0565b6020026020010151600154611463565b8460400151600081518110610d2357610d236121d0565b60209081029190910101516040516370a0823160e01b81523060048201526001600160a01b03909116906370a0823190602401602060405180830381865afa158015610d73573d6000803e3d6000fd5b505050506040513d601f19601f82011682018060405250810190610d9791906127bc565b8560400151600081518110610dae57610dae6121d0565b60200260200101516001600160a01b0316610b5d9092919063ffffffff16565b610ddd81846040015130611517565b50919050565b604051636eb1769f60e11b81523060048201526001600160a01b038381166024830152600091839186169063dd62ed3e90604401602060405180830381865afa158015610e34573d6000803e3d6000fd5b505050506040513d601f19601f82011682018060405250810190610e5891906127bc565b610e6291906129ce565b6040516001600160a01b038516602482015260448101829052909150610bfd90859063095ea7b360e01b90606401610b89565b81600003610f0a576040516370a0823160e01b81523060048201526001600160a01b038416906370a0823190602401602060405180830381865afa158015610ee1573d6000803e3d6000fd5b505050506040513d601f19601f82011682018060405250810190610f0591906127bc565b610f0c565b815b91506000610f19836116ee565b9050610f2581846129bb565b9250610f5b6001600160a01b0385167f000000000000000000000000000000000000000000000000000000000000000083610b5d565b610f6f6001600160a01b0385168385610b5d565b604080516001600160a01b0386168152602081018390527f075a2720282fdf622141dae0b048ef90a21a7e57c134c76912d19d006b3b3f6f910160405180910390a150505050565b60003411610fd85760405163c9935ff960e01b815260040160405180910390fd5b60008361010001518383604051602001610ff4939291906129e1565b604051602081830303815290604052905083608001516000036110845760208401516040516370a0823160e01b81523060048201526001600160a01b03909116906370a0823190602401602060405180830381865afa15801561105b573d6000803e3d6000fd5b505050506040513d601f19601f8201168201806040525081019061107f91906127bc565b61108a565b83608001515b6080850181905260208501516110cd916001600160a01b03909116907f000000000000000000000000000000000000000000000000000000000000000090610de3565b7f00000000000000000000000000000000000000000000000000000000000000006001600160a01b0316639fbf10fc47866000015187604001518860600151308a608001518b60a0015160405180606001604052808e610120015181526020018e60c0015181526020018e60e0015160405160200161115f919060609190911b6001600160601b031916815260140190565b6040516020818303038152906040528152508d60e00151604051602001611199919060609190911b6001600160601b031916815260140190565b6040516020818303038152906040528b6040518b63ffffffff1660e01b81526004016111cd99989796959493929190612a21565b6000604051808303818588803b1580156111e657600080fd5b505af11580156111fa573d6000803e3d6000fd5b505050505050505050565b600061125a826040518060400160405280602081526020017f5361666545524332303a206c6f772d6c6576656c2063616c6c206661696c6564815250856001600160a01b03166117199092919063ffffffff16565b805190915015610bc057808060200190518101906112789190612abf565b610bc05760405162461bcd60e51b815260206004820152602a60248201527f5361666545524332303a204552433230206f7065726174696f6e20646964206e6044820152691bdd081cdd58d8d9595960b21b606482015260840161036e565b606060028351101561132b5760405162461bcd60e51b815260206004820152601e60248201527f556e697377617056324c6962726172793a20494e56414c49445f504154480000604482015260640161036e565b82516001600160401b0381111561134457611344611c53565b60405190808252806020026020018201604052801561136d578160200160208202803683370190505b5090508381600081518110611384576113846121d0565b60200260200101818152505060005b600184516113a191906129bb565b81101561145a576000806113f5888785815181106113c1576113c16121d0565b6020026020010151888660016113d791906129ce565b815181106113e7576113e76121d0565b602002602001015188611730565b9150915061141d84848151811061140e5761140e6121d0565b602002602001015183836117fc565b846114298560016129ce565b81518110611439576114396121d0565b6020026020010181815250505050808061145290612384565b915050611393565b50949350505050565b6000806000611472868661191b565b6040516001600160601b0319606084811b8216602084015283901b1660348201529193509150879060480160405160208183030381529060405280519060200120856040516020016114f4939291906001600160f81b0319815260609390931b6001600160601b03191660018401526015830191909152603582015260550190565b60408051601f198184030181529190528051602090910120979650505050505050565b60005b6001835161152891906129bb565b811015610bfd57600080848381518110611544576115446121d0565b60200260200101518584600161155a91906129ce565b8151811061156a5761156a6121d0565b6020026020010151915091506000611582838361191b565b5090506000876115938660016129ce565b815181106115a3576115a36121d0565b60200260200101519050600080836001600160a01b0316866001600160a01b0316146115d1578260006115d5565b6000835b91509150600060028a516115e991906129bb565b88106115f55788611622565b600054611622906001600160a01b0316878c6116128c60026129ce565b81518110610cfc57610cfc6121d0565b905061164560008054906101000a90046001600160a01b03168888600154611463565b6001600160a01b031663022c0d9f84848460006040519080825280601f01601f191660200182016040528015611682576020820181803683370190505b506040518563ffffffff1660e01b81526004016116a29493929190612adc565b600060405180830381600087803b1580156116bc57600080fd5b505af11580156116d0573d6000803e3d6000fd5b505050505050505050505080806116e690612384565b91505061151a565b60006127106116ff8361270b612b09565b6117099190612b20565b61171390836129bb565b92915050565b60606117288484600085611a12565b949350505050565b600080600061173f868661191b565b50905060008061175189898989611463565b6001600160a01b0316630902f1ac6040518163ffffffff1660e01b8152600401606060405180830381865afa15801561178e573d6000803e3d6000fd5b505050506040513d601f19601f820116820180604052508101906117b29190612b59565b506001600160701b031691506001600160701b03169150826001600160a01b0316886001600160a01b0316146117e95780826117ec565b81815b909a909950975050505050505050565b60008084116118615760405162461bcd60e51b815260206004820152602b60248201527f556e697377617056324c6962726172793a20494e53554646494349454e545f4960448201526a1394155517d05353d5539560aa1b606482015260840161036e565b6000831180156118715750600082115b6118ce5760405162461bcd60e51b815260206004820152602860248201527f556e697377617056324c6962726172793a20494e53554646494349454e545f4c604482015267495155494449545960c01b606482015260840161036e565b60006118dc856103e5611ae2565b905060006118ea8285611ae2565b90506000611904836118fe886103e8611ae2565b90611b49565b90506119108183612b20565b979650505050505050565b600080826001600160a01b0316846001600160a01b03160361198d5760405162461bcd60e51b815260206004820152602560248201527f556e697377617056324c6962726172793a204944454e544943414c5f41444452604482015264455353455360d81b606482015260840161036e565b826001600160a01b0316846001600160a01b0316106119ad5782846119b0565b83835b90925090506001600160a01b038216611a0b5760405162461bcd60e51b815260206004820152601e60248201527f556e697377617056324c6962726172793a205a45524f5f414444524553530000604482015260640161036e565b9250929050565b606082471015611a735760405162461bcd60e51b815260206004820152602660248201527f416464726573733a20696e73756666696369656e742062616c616e636520666f6044820152651c8818d85b1b60d21b606482015260840161036e565b600080866001600160a01b03168587604051611a8f9190612ba9565b60006040518083038185875af1925050503d8060008114611acc576040519150601f19603f3d011682016040523d82523d6000602084013e611ad1565b606091505b509150915061191087838387611b9e565b6000811580611b0657508282611af88183612b09565b9250611b049083612b20565b145b6117135760405162461bcd60e51b815260206004820152601460248201527364732d6d6174682d6d756c2d6f766572666c6f7760601b604482015260640161036e565b600082611b5683826129ce565b91508110156117135760405162461bcd60e51b815260206004820152601460248201527364732d6d6174682d6164642d6f766572666c6f7760601b604482015260640161036e565b60608315611c0d578251600003611c06576001600160a01b0385163b611c065760405162461bcd60e51b815260206004820152601d60248201527f416464726573733a2063616c6c20746f206e6f6e2d636f6e7472616374000000604482015260640161036e565b5081611728565b6117288383815115611c225781518083602001fd5b8060405162461bcd60e51b815260040161036e9190612bc5565b803561ffff81168114611c4e57600080fd5b919050565b634e487b7160e01b600052604160045260246000fd5b604051608081016001600160401b0381118282101715611c8b57611c8b611c53565b60405290565b604051606081016001600160401b0381118282101715611c8b57611c8b611c53565b60405161016081016001600160401b0381118282101715611c8b57611c8b611c53565b604051601f8201601f191681016001600160401b0381118282101715611cfe57611cfe611c53565b604052919050565b60006001600160401b03821115611d1f57611d1f611c53565b50601f01601f191660200190565b600082601f830112611d3e57600080fd5b8135611d51611d4c82611d06565b611cd6565b818152846020838601011115611d6657600080fd5b816020850160208301376000918101602001919091529392505050565b6001600160a01b0381168114611d9857600080fd5b50565b8035611c4e81611d83565b60008060008060008060c08789031215611dbf57600080fd5b611dc887611c3c565b955060208701356001600160401b0380821115611de457600080fd5b611df08a838b01611d2d565b96506040890135955060608901359150611e0982611d83565b9093506080880135925060a08801359080821115611e2657600080fd5b50611e3389828a01611d2d565b9150509295509295509295565b60008083601f840112611e5257600080fd5b5081356001600160401b03811115611e6957600080fd5b6020830191508360208260051b8501011115611a0b57600080fd5b60008060008060408587031215611e9a57600080fd5b84356001600160401b0380821115611eb157600080fd5b611ebd88838901611e40565b90965094506020870135915080821115611ed657600080fd5b50611ee387828801611e40565b95989497509550505050565b60006001600160401b03821115611f0857611f08611c53565b5060051b60200190565b60ff81168114611d9857600080fd5b60005b83811015611f3c578181015183820152602001611f24565b50506000910152565b600082601f830112611f5657600080fd5b81516020611f66611d4c83611eef565b82815260059290921b84018101918181019086841115611f8557600080fd5b8286015b848110156120005780516001600160401b03811115611fa85760008081fd5b8701603f81018913611fba5760008081fd5b848101516040611fcc611d4c83611d06565b8281528b82848601011115611fe15760008081fd5b611ff083898301848701611f21565b8652505050918301918301611f89565b509695505050505050565b60008060006060848603121561202057600080fd5b835161202b81611d83565b809350506020808501516001600160401b038082111561204a57600080fd5b818701915087601f83011261205e57600080fd5b815161206c611d4c82611eef565b81815260059190911b8301840190848101908a83111561208b57600080fd5b938501935b828510156120b25784516120a381611f12565b82529385019390850190612090565b60408a015190975094505050808311156120cb57600080fd5b50506120d986828701611f45565b9150509250925092565b600081518084526020808501945080840160005b8381101561211657815160ff16875295820195908201906001016120f7565b509495945050505050565b60008151808452612139816020860160208601611f21565b601f01601f19169290920160200192915050565b600081518084526020808501808196508360051b8101915082860160005b85811015612195578284038952612183848351612121565b9885019893509084019060010161216b565b5091979650505050505050565b6040815260006121b560408301856120e3565b82810360208401526121c7818561214d565b95945050505050565b634e487b7160e01b600052603260045260246000fd5b6000602082840312156121f857600080fd5b813561220381611f12565b9392505050565b6000808335601e1984360301811261222157600080fd5b8301803591506001600160401b0382111561223b57600080fd5b602001915036819003821315611a0b57600080fd5b600082601f83011261226157600080fd5b81356020612271611d4c83611eef565b82815260059290921b8401810191818101908684111561229057600080fd5b8286015b848110156120005780356122a781611d83565b8352918301918301612294565b600080604083850312156122c757600080fd5b82356001600160401b03808211156122de57600080fd5b6122ea86838701612250565b935060209150818501358181111561230157600080fd5b85019050601f8101861361231457600080fd5b8035612322611d4c82611eef565b81815260059190911b8201830190838101908883111561234157600080fd5b928401925b8284101561235f57833582529284019290840190612346565b80955050505050509250929050565b634e487b7160e01b600052601160045260246000fd5b6000600182016123965761239661236e565b5060010190565b6000602082840312156123af57600080fd5b5035919050565b8015158114611d9857600080fd5b600060208083850312156123d757600080fd5b82356001600160401b03808211156123ee57600080fd5b818501915085601f83011261240257600080fd5b8135612410611d4c82611eef565b81815260059190911b8301840190848101908883111561242f57600080fd5b8585015b838110156124c45780358581111561244a57600080fd5b86016080818c03601f190112156124615760008081fd5b612469611c69565b8882013581526040808301358a8301526060808401358981111561248d5760008081fd5b61249b8f8d83880101612250565b8385015250608084013593506124b0846123b6565b820192909252845250918601918601612433565b5098975050505050505050565b600060208083850312156124e457600080fd5b82356001600160401b03808211156124fb57600080fd5b818501915085601f83011261250f57600080fd5b813561251d611d4c82611eef565b81815260059190911b8301840190848101908883111561253c57600080fd5b8585015b838110156124c45780358581111561255757600080fd5b86016080818c03601f1901121561256e5760008081fd5b612576611c69565b8882013581526040808301358a8301526060808401358981111561259a5760008081fd5b6125a88f8d83880101612250565b928401929092526080939093013592820192909252845250918601918601612540565b600060a082018783526020878185015260a0604085015281875180845260c086019150828901935060005b8181101561261b5784516001600160a01b0316835293830193918301916001016125f6565b50506001600160a01b03969096166060850152505050608001529392505050565b6000602080838503121561264f57600080fd5b82516001600160401b0381111561266557600080fd5b8301601f8101851361267657600080fd5b8051612684611d4c82611eef565b81815260059190911b820183019083810190878311156126a357600080fd5b928401925b82841015611910578351825292840192908401906126a8565b600060208083850312156126d457600080fd5b82356001600160401b038111156126ea57600080fd5b8301601f810185136126fb57600080fd5b8035612709611d4c82611eef565b8181526060918202830184019184820191908884111561272857600080fd5b938501935b838510156127845780858a0312156127455760008081fd5b61274d611c91565b853561275881611d83565b81528587013561276781611d83565b81880152604086810135908201528352938401939185019161272d565b50979650505050505050565b600080604083850312156127a357600080fd5b82356127ae81611d83565b946020939093013593505050565b6000602082840312156127ce57600080fd5b5051919050565b600082601f8301126127e657600080fd5b813560206127f6611d4c83611eef565b82815260059290921b8401810191818101908684111561281557600080fd5b8286015b8481101561200057803561282c81611f12565b8352918301918301612819565b600082601f83011261284a57600080fd5b8135602061285a611d4c83611eef565b82815260059290921b8401810191818101908684111561287957600080fd5b8286015b848110156120005780356001600160401b0381111561289c5760008081fd5b6128aa8986838b0101611d2d565b84525091830191830161287d565b60008060008385036101a08112156128cf57600080fd5b610160808212156128df57600080fd5b6128e7611cb3565b91506128f286611c3c565b825261290060208701611d9b565b602083015260408601356040830152606086013560608301526080860135608083015260a086013560a083015260c086013560c083015261294360e08701611d9b565b60e0830152610100612956818801611d9b565b90830152610120868101359083015261014080870135908301529093508401356001600160401b038082111561298b57600080fd5b612997878388016127d5565b93506101808601359150808211156129ae57600080fd5b506120d986828701612839565b818103818111156117135761171361236e565b808201808211156117135761171361236e565b6001600160a01b0384168152606060208201819052600090612a05908301856120e3565b8281036040840152612a17818561214d565b9695505050505050565b600061012061ffff8c1683528a602084015289604084015260018060a01b03891660608401528760808401528660a08401528060c084015285518184015250602085015161014083015260408501516060610160840152612a86610180840182612121565b905082810360e0840152612a9a8186612121565b9050828103610100840152612aaf8185612121565b9c9b505050505050505050505050565b600060208284031215612ad157600080fd5b8151612203816123b6565b84815283602082015260018060a01b0383166040820152608060608201526000612a176080830184612121565b80820281158282048414176117135761171361236e565b600082612b3d57634e487b7160e01b600052601260045260246000fd5b500490565b80516001600160701b0381168114611c4e57600080fd5b600080600060608486031215612b6e57600080fd5b612b7784612b42565b9250612b8560208501612b42565b9150604084015163ffffffff81168114612b9e57600080fd5b809150509250925092565b60008251612bbb818460208701611f21565b9190910192915050565b602081526000612203602083018461212156fea26469706673582212205384d5920d3d51cd269a7233ea87c5e663139efcb3f3ed597f1f21cb1c73d90264736f6c63430008110033",
    "linkReferences": {}
  },
  "methodIdentifiers": {
    "binanceSwaps(uint8[],bytes[])": "e3c51f59",
    "factory()": "c45a0155",
    "feeCollector()": "c415b95c",
    "pairCodeHash()": "9aab9248",
    "sgReceive(uint16,bytes,uint256,address,uint256,bytes)": "ab8236f3",
    "stargateRouter()": "a9e56f3c"
  },
  "id": 57
}