{
  "abi": [
    {
      "inputs": [
        {
          "internalType": "contract IWETH9",
          "name": "_weth",
          "type": "address"
        },
        {
          "internalType": "address",
          "name": "_feeCollector",
          "type": "address"
        },
        {
          "internalType": "contract ISwapRouter",
          "name": "_swapRouter",
          "type": "address"
        },
        {
          "internalType": "address",
          "name": "_factory",
          "type": "address"
        },
        {
          "internalType": "bytes32",
          "name": "_pairCodeHash",
          "type": "bytes32"
        },
        {
          "internalType": "contract IStargateRouter",
          "name": "_stargateRouter",
          "type": "address"
        }
      ],
      "stateMutability": "nonpayable",
      "type": "constructor"
    },
    {
      "inputs": [],
      "name": "MoreThanZero",
      "type": "error"
    },
    {
      "inputs": [],
      "name": "MustBeGt0",
      "type": "error"
    },
    {
      "inputs": [],
      "name": "NotStgRouter",
      "type": "error"
    },
    {
      "inputs": [],
      "name": "WithdrawFailed",
      "type": "error"
    },
    {
      "anonymous": false,
      "inputs": [
        {
          "indexed": false,
          "internalType": "address",
          "name": "_token",
          "type": "address"
        },
        {
          "indexed": false,
          "internalType": "uint256",
          "name": "_fee",
          "type": "uint256"
        }
      ],
      "name": "FeePaid",
      "type": "event"
    },
    {
      "anonymous": false,
      "inputs": [
        {
          "indexed": true,
          "internalType": "address",
          "name": "token",
          "type": "address"
        },
        {
          "indexed": false,
          "internalType": "uint256",
          "name": "amountLD",
          "type": "uint256"
        },
        {
          "indexed": false,
          "internalType": "bool",
          "name": "failed",
          "type": "bool"
        },
        {
          "indexed": false,
          "internalType": "bool",
          "name": "dustSent",
          "type": "bool"
        }
      ],
      "name": "ReceivedOnDestination",
      "type": "event"
    },
    {
      "anonymous": false,
      "inputs": [
        {
          "indexed": false,
          "internalType": "bool",
          "name": "success",
          "type": "bool"
        }
      ],
      "name": "SuccessfulWithdraw",
      "type": "event"
    },
    {
      "inputs": [
        {
          "internalType": "uint8[]",
          "name": "steps",
          "type": "uint8[]"
        },
        {
          "internalType": "bytes[]",
          "name": "data",
          "type": "bytes[]"
        }
      ],
      "name": "ethereumSwaps",
      "outputs": [],
      "stateMutability": "payable",
      "type": "function"
    },
    {
      "inputs": [],
      "name": "factory",
      "outputs": [
        {
          "internalType": "address",
          "name": "",
          "type": "address"
        }
      ],
      "stateMutability": "view",
      "type": "function"
    },
    {
      "inputs": [],
      "name": "feeCollector",
      "outputs": [
        {
          "internalType": "address",
          "name": "",
          "type": "address"
        }
      ],
      "stateMutability": "view",
      "type": "function"
    },
    {
      "inputs": [],
      "name": "pairCodeHash",
      "outputs": [
        {
          "internalType": "bytes32",
          "name": "",
          "type": "bytes32"
        }
      ],
      "stateMutability": "view",
      "type": "function"
    },
    {
      "inputs": [
        {
          "internalType": "uint16",
          "name": "",
          "type": "uint16"
        },
        {
          "internalType": "bytes",
          "name": "",
          "type": "bytes"
        },
        {
          "internalType": "uint256",
          "name": "",
          "type": "uint256"
        },
        {
          "internalType": "address",
          "name": "_token",
          "type": "address"
        },
        {
          "internalType": "uint256",
          "name": "amountLD",
          "type": "uint256"
        },
        {
          "internalType": "bytes",
          "name": "_payload",
          "type": "bytes"
        }
      ],
      "name": "sgReceive",
      "outputs": [],
      "stateMutability": "nonpayable",
      "type": "function"
    },
    {
      "inputs": [],
      "name": "stargateRouter",
      "outputs": [
        {
          "internalType": "contract IStargateRouter",
          "name": "",
          "type": "address"
        }
      ],
      "stateMutability": "view",
      "type": "function"
    },
    {
      "inputs": [],
      "name": "swapRouter",
      "outputs": [
        {
          "internalType": "contract ISwapRouter",
          "name": "",
          "type": "address"
        }
      ],
      "stateMutability": "view",
      "type": "function"
    },
    {
      "stateMutability": "payable",
      "type": "receive"
    }
  ],
  "bytecode": {
    "object": "0x6101006040526002805460ff191660011790553480156200001f57600080fd5b506040516200337a3803806200337a833981016040819052620000429162000099565b6001600160a01b03938416608052600080546001600160a01b03191693851693909317909255600155811660a05291821660c0521660e05262000121565b6001600160a01b03811681146200009657600080fd5b50565b60008060008060008060c08789031215620000b357600080fd5b8651620000c08162000080565b6020880151909650620000d38162000080565b6040880151909550620000e68162000080565b6060880151909450620000f98162000080565b608088015160a08901519194509250620001138162000080565b809150509295509295509295565b60805160a05160c05160e0516131cc620001ae600039600081816101700152611275015260008181610395015281816106c3015261075601526000818160d0015281816108f4015281816113e7015261140e01526000818161013c01528181610bcb01528181610c4f01528181610d3101528181610e4d01528181610ed10152610faa01526131cc6000f3fe6080604052600436106100745760003560e01c8063ab8236f31161004e578063ab8236f31461010a578063c31c9c071461012a578063c415b95c1461015e578063c45a01551461019257600080fd5b80634b672083146100805780639aab924814610095578063a9e56f3c146100be57600080fd5b3661007b57005b600080fd5b61009361008e3660046121a6565b6101b2565b005b3480156100a157600080fd5b506100ab60015481565b6040519081526020015b60405180910390f35b3480156100ca57600080fd5b506100f27f000000000000000000000000000000000000000000000000000000000000000081565b6040516001600160a01b0390911681526020016100b5565b34801561011657600080fd5b506100936101253660046123bf565b6108e9565b34801561013657600080fd5b506100f27f000000000000000000000000000000000000000000000000000000000000000081565b34801561016a57600080fd5b506100f27f000000000000000000000000000000000000000000000000000000000000000081565b34801561019e57600080fd5b506000546100f2906001600160a01b031681565b60025460ff166001146101f95760405162461bcd60e51b815260206004820152600a6024820152695245454e5452414e435960b01b60448201526064015b60405180910390fd5b6002805460ff19168117905560005b838110156108d557600085858381811061022457610224612459565b9050602002016020810190610239919061247e565b905060001960ff8216016103315760008085858581811061025c5761025c612459565b905060200281019061026e919061249b565b81019061027b9190612573565b9150915060005b825181101561032957600082828151811061029f5761029f612459565b6020026020010151116102c55760405163fe4155c760e01b815260040160405180910390fd5b61031733308484815181106102dc576102dc612459565b60200260200101518685815181106102f6576102f6612459565b60200260200101516001600160a01b0316610ab6909392919063ffffffff16565b8061032181612643565b915050610282565b5050506108c2565b60011960ff82160161040d57600084848481811061035157610351612459565b9050602002810190610363919061249b565b810190610370919061265c565b9050600081116103935760405163fe4155c760e01b815260040160405180910390fd5b7f00000000000000000000000000000000000000000000000000000000000000006001600160a01b031663d0e30db0826040518263ffffffff1660e01b81526004016000604051808303818588803b1580156103ee57600080fd5b505af1158015610402573d6000803e3d6000fd5b5050505050506108c2565b60021960ff82160161049d57600084848481811061042d5761042d612459565b905060200281019061043f919061249b565b81019061044c9190612688565b905060005b815181101561049657600082828151811061046e5761046e612459565b6020026020010151905061048181610b27565b5050808061048e90612643565b915050610451565b50506108c2565b60031960ff82160161051f5760008484848181106104bd576104bd612459565b90506020028101906104cf919061249b565b8101906104dc9190612772565b905060005b81518110156104965761050c8282815181106104ff576104ff612459565b6020026020010151610da9565b508061051781612643565b9150506104e1565b60041960ff8216016105a157600084848481811061053f5761053f612459565b9050602002810190610551919061249b565b81019061055e9190612882565b905060005b81518110156104965761058e82828151811061058157610581612459565b6020026020010151610ff4565b508061059981612643565b915050610563565b600d1960ff8216016106625760008484848181106105c1576105c1612459565b90506020028101906105d3919061249b565b8101906105e0919061298f565b905060005b81518110156104965761065082828151811061060357610603612459565b60200260200101516000015183838151811061062157610621612459565b60200260200101516040015184848151811061063f5761063f612459565b6020026020010151602001516111d4565b8061065a81612643565b9150506105e5565b600c1960ff82160161086b5760008085858581811061068357610683612459565b9050602002810190610695919061249b565b8101906106a29190612a52565b915091508060000361073b576040516370a0823160e01b81523060048201527f00000000000000000000000000000000000000000000000000000000000000006001600160a01b0316906370a0823190602401602060405180830381865afa158015610712573d6000803e3d6000fd5b505050506040513d601f19601f820116820180604052508101906107369190612a7e565b61073d565b805b604051632e1a7d4d60e01b8152600481018290529091507f00000000000000000000000000000000000000000000000000000000000000006001600160a01b031690632e1a7d4d90602401600060405180830381600087803b1580156107a257600080fd5b505af11580156107b6573d6000803e3d6000fd5b505050506000826001600160a01b03168260405160006040518083038185875af1925050503d8060008114610807576040519150601f19603f3d011682016040523d82523d6000602084013e61080c565b606091505b505090508061082e57604051631d42c86760e21b815260040160405180910390fd5b60405181151581527fecd574d247fc5a32601173682b0af34b454b7a0bf3e382d0efb3c6209e9443fa9060200160405180910390a15050506108c2565b600e1960ff8216016108c257600080600086868681811061088e5761088e612459565b90506020028101906108a0919061249b565b8101906108ad9190612b7a565b9250925092506108be8383836112f6565b5050505b50806108cd81612643565b915050610208565b50506002805460ff19166001179055505050565b336001600160a01b037f0000000000000000000000000000000000000000000000000000000000000000161461093257604051638afe477f60e01b815260040160405180910390fd5b60008060008380602001905181019061094b9190612d66565b9250925092506000306001600160a01b0316634b67208362030d4085856040518463ffffffff1660e01b8152600401610985929190612ef3565b600060405180830381600088803b15801561099f57600080fd5b5087f1935050505080156109b1575060015b6109ff573d8080156109df576040519150601f19603f3d011682016040523d82523d6000602084013e6109e4565b606091505b506109f96001600160a01b0389168689611544565b60019150505b60004715610a5b576040516001600160a01b038616904790600081818185875af1925050503d8060008114610a50576040519150601f19603f3d011682016040523d82523d6000602084013e610a55565b606091505b50909150505b6040805188815283151560208201528215158183015290516001600160a01b038a16917f7f345d6da48bd1339fd428ff45265a0f01258b14ca09dcf8db0c469f4f732fd3919081900360600190a25050505050505050505050565b6040516001600160a01b0380851660248301528316604482015260648101829052610b219085906323b872dd60e01b906084015b60408051601f198184030181529190526020810180516001600160e01b03166001600160e01b031990931692909217909152611579565b50505050565b805160009015610b38578151610ba6565b60408083015190516370a0823160e01b81523060048201526001600160a01b03909116906370a0823190602401602060405180830381865afa158015610b82573d6000803e3d6000fd5b505050506040513d601f19601f82011682018060405250810190610ba69190612a7e565b8083526040808401519051636eb1769f60e11b81523060048201526001600160a01b037f0000000000000000000000000000000000000000000000000000000000000000811660248301529091169063dd62ed3e90604401602060405180830381865afa158015610c1b573d6000803e3d6000fd5b505050506040513d601f19601f82011682018060405250810190610c3f9190612a7e565b1015610c7657610c7682604001517f000000000000000000000000000000000000000000000000000000000000000060001961164b565b6040805161010081018252838201516001600160a01b0390811682526060808601518216602080850191825260808089015162ffffff90811687890190815230958801958652429288019283528a5160a08901908152938b015160c08901908152600060e08a01908152995163414bf38960e01b8152895189166004820152955188166024870152905190911660448501529351851660648401525160848301525160a4820152905160c48201529251811660e484015290917f00000000000000000000000000000000000000000000000000000000000000009091169063414bf38990610104015b6020604051808303816000875af1158015610d7e573d6000803e3d6000fd5b505050506040513d601f19601f82011682018060405250810190610da29190612a7e565b9392505050565b805160009015610dba578151610e28565b60408083015190516370a0823160e01b81523060048201526001600160a01b03909116906370a0823190602401602060405180830381865afa158015610e04573d6000803e3d6000fd5b505050506040513d601f19601f82011682018060405250810190610e289190612a7e565b8083526040808401519051636eb1769f60e11b81523060048201526001600160a01b037f0000000000000000000000000000000000000000000000000000000000000000811660248301529091169063dd62ed3e90604401602060405180830381865afa158015610e9d573d6000803e3d6000fd5b505050506040513d601f19601f82011682018060405250810190610ec19190612a7e565b1015610ef857610ef882604001517f000000000000000000000000000000000000000000000000000000000000000060001961164b565b6040805160a08082018352918401519184015160608086015160c08088015160808901516001600160601b031997851b8816928701929092526001600160e81b031960e895861b811660d488015292841b871660d787015290931b1660eb8401521b90911660ee8201526000908061010281016040516020818303038152906040528152602001306001600160a01b0316815260200142815260200184600001518152602001846020015181525090507f00000000000000000000000000000000000000000000000000000000000000006001600160a01b031663c04b8d59826040518263ffffffff1660e01b8152600401610d5f9190612f21565b6000805482516040840151600154849361101b936001600160a01b0390911692909161174b565b9050806001825161102c9190612f79565b8151811061103c5761103c612459565b60200260200101519150826020015182101561109a5760405162461bcd60e51b815260206004820152601760248201527f696e73756666696369656e742d616d6f756e742d6f757400000000000000000060448201526064016101f0565b8260600151156111bf5760008054604085015180516111bf936110fd936001600160a01b031692916110ce576110ce612459565b602002602001015186604001516001815181106110ed576110ed612459565b60200260200101516001546118d7565b846040015160008151811061111457611114612459565b60209081029190910101516040516370a0823160e01b81523060048201526001600160a01b03909116906370a0823190602401602060405180830381865afa158015611164573d6000803e3d6000fd5b505050506040513d601f19601f820116820180604052508101906111889190612a7e565b856040015160008151811061119f5761119f612459565b60200260200101516001600160a01b03166115449092919063ffffffff16565b6111ce8184604001513061198b565b50919050565b81600003611249576040516370a0823160e01b81523060048201526001600160a01b038416906370a0823190602401602060405180830381865afa158015611220573d6000803e3d6000fd5b505050506040513d601f19601f820116820180604052508101906112449190612a7e565b61124b565b815b9150600061125883611b62565b90506112648184612f79565b925061129a6001600160a01b0385167f000000000000000000000000000000000000000000000000000000000000000083611544565b6112ae6001600160a01b0385168385611544565b604080516001600160a01b0386168152602081018390527f075a2720282fdf622141dae0b048ef90a21a7e57c134c76912d19d006b3b3f6f910160405180910390a150505050565b600034116113175760405163c9935ff960e01b815260040160405180910390fd5b6000836101000151838360405160200161133393929190612f8c565b604051602081830303815290604052905083608001516000036113c35760208401516040516370a0823160e01b81523060048201526001600160a01b03909116906370a0823190602401602060405180830381865afa15801561139a573d6000803e3d6000fd5b505050506040513d601f19601f820116820180604052508101906113be9190612a7e565b6113c9565b83608001515b60808501819052602085015161140c916001600160a01b03909116907f000000000000000000000000000000000000000000000000000000000000000090611b8d565b7f00000000000000000000000000000000000000000000000000000000000000006001600160a01b0316639fbf10fc47866000015187604001518860600151308a608001518b60a0015160405180606001604052808e610120015181526020018e60c0015181526020018e60e0015160405160200161149e919060609190911b6001600160601b031916815260140190565b6040516020818303038152906040528152508d60e001516040516020016114d8919060609190911b6001600160601b031916815260140190565b6040516020818303038152906040528b6040518b63ffffffff1660e01b815260040161150c99989796959493929190612fcc565b6000604051808303818588803b15801561152557600080fd5b505af1158015611539573d6000803e3d6000fd5b505050505050505050565b6040516001600160a01b03831660248201526044810182905261157490849063a9059cbb60e01b90606401610aea565b505050565b60006115ce826040518060400160405280602081526020017f5361666545524332303a206c6f772d6c6576656c2063616c6c206661696c6564815250856001600160a01b0316611c3f9092919063ffffffff16565b80519091501561157457808060200190518101906115ec919061306a565b6115745760405162461bcd60e51b815260206004820152602a60248201527f5361666545524332303a204552433230206f7065726174696f6e20646964206e6044820152691bdd081cdd58d8d9595960b21b60648201526084016101f0565b604080516001600160a01b038481166024830152604480830185905283518084039091018152606490920183526020820180516001600160e01b031663095ea7b360e01b17905291516000928392908716916116a79190613087565b6000604051808303816000865af19150503d80600081146116e4576040519150601f19603f3d011682016040523d82523d6000602084013e6116e9565b606091505b5091509150818015611713575080511580611713575080806020019051810190611713919061306a565b6117445760405162461bcd60e51b8152602060048201526002602482015261534160f01b60448201526064016101f0565b5050505050565b606060028351101561179f5760405162461bcd60e51b815260206004820152601e60248201527f556e697377617056324c6962726172793a20494e56414c49445f50415448000060448201526064016101f0565b82516001600160401b038111156117b8576117b8612228565b6040519080825280602002602001820160405280156117e1578160200160208202803683370190505b50905083816000815181106117f8576117f8612459565b60200260200101818152505060005b600184516118159190612f79565b8110156118ce576000806118698887858151811061183557611835612459565b60200260200101518886600161184b91906130a3565b8151811061185b5761185b612459565b602002602001015188611c56565b9150915061189184848151811061188257611882612459565b60200260200101518383611d22565b8461189d8560016130a3565b815181106118ad576118ad612459565b602002602001018181525050505080806118c690612643565b915050611807565b50949350505050565b60008060006118e68686611e41565b6040516001600160601b0319606084811b8216602084015283901b166034820152919350915087906048016040516020818303038152906040528051906020012085604051602001611968939291906001600160f81b0319815260609390931b6001600160601b03191660018401526015830191909152603582015260550190565b60408051601f198184030181529190528051602090910120979650505050505050565b60005b6001835161199c9190612f79565b811015610b21576000808483815181106119b8576119b8612459565b6020026020010151858460016119ce91906130a3565b815181106119de576119de612459565b60200260200101519150915060006119f68383611e41565b509050600087611a078660016130a3565b81518110611a1757611a17612459565b60200260200101519050600080836001600160a01b0316866001600160a01b031614611a4557826000611a49565b6000835b91509150600060028a51611a5d9190612f79565b8810611a695788611a96565b600054611a96906001600160a01b0316878c611a868c60026130a3565b815181106110ed576110ed612459565b9050611ab960008054906101000a90046001600160a01b031688886001546118d7565b6001600160a01b031663022c0d9f84848460006040519080825280601f01601f191660200182016040528015611af6576020820181803683370190505b506040518563ffffffff1660e01b8152600401611b1694939291906130b6565b600060405180830381600087803b158015611b3057600080fd5b505af1158015611b44573d6000803e3d6000fd5b50505050505050505050508080611b5a90612643565b91505061198e565b6000612710611b738361270b6130e3565b611b7d91906130fa565b611b879083612f79565b92915050565b604051636eb1769f60e11b81523060048201526001600160a01b038381166024830152600091839186169063dd62ed3e90604401602060405180830381865afa158015611bde573d6000803e3d6000fd5b505050506040513d601f19601f82011682018060405250810190611c029190612a7e565b611c0c91906130a3565b6040516001600160a01b038516602482015260448101829052909150610b2190859063095ea7b360e01b90606401610aea565b6060611c4e8484600085611f38565b949350505050565b6000806000611c658686611e41565b509050600080611c77898989896118d7565b6001600160a01b0316630902f1ac6040518163ffffffff1660e01b8152600401606060405180830381865afa158015611cb4573d6000803e3d6000fd5b505050506040513d601f19601f82011682018060405250810190611cd89190613133565b506001600160701b031691506001600160701b03169150826001600160a01b0316886001600160a01b031614611d0f578082611d12565b81815b909a909950975050505050505050565b6000808411611d875760405162461bcd60e51b815260206004820152602b60248201527f556e697377617056324c6962726172793a20494e53554646494349454e545f4960448201526a1394155517d05353d5539560aa1b60648201526084016101f0565b600083118015611d975750600082115b611df45760405162461bcd60e51b815260206004820152602860248201527f556e697377617056324c6962726172793a20494e53554646494349454e545f4c604482015267495155494449545960c01b60648201526084016101f0565b6000611e02856103e5612008565b90506000611e108285612008565b90506000611e2a83611e24886103e8612008565b9061206f565b9050611e3681836130fa565b979650505050505050565b600080826001600160a01b0316846001600160a01b031603611eb35760405162461bcd60e51b815260206004820152602560248201527f556e697377617056324c6962726172793a204944454e544943414c5f41444452604482015264455353455360d81b60648201526084016101f0565b826001600160a01b0316846001600160a01b031610611ed3578284611ed6565b83835b90925090506001600160a01b038216611f315760405162461bcd60e51b815260206004820152601e60248201527f556e697377617056324c6962726172793a205a45524f5f41444452455353000060448201526064016101f0565b9250929050565b606082471015611f995760405162461bcd60e51b815260206004820152602660248201527f416464726573733a20696e73756666696369656e742062616c616e636520666f6044820152651c8818d85b1b60d21b60648201526084016101f0565b600080866001600160a01b03168587604051611fb59190613087565b60006040518083038185875af1925050503d8060008114611ff2576040519150601f19603f3d011682016040523d82523d6000602084013e611ff7565b606091505b5091509150611e36878383876120c4565b600081158061202c5750828261201e81836130e3565b925061202a90836130fa565b145b611b875760405162461bcd60e51b815260206004820152601460248201527364732d6d6174682d6d756c2d6f766572666c6f7760601b60448201526064016101f0565b60008261207c83826130a3565b9150811015611b875760405162461bcd60e51b815260206004820152601460248201527364732d6d6174682d6164642d6f766572666c6f7760601b60448201526064016101f0565b6060831561213357825160000361212c576001600160a01b0385163b61212c5760405162461bcd60e51b815260206004820152601d60248201527f416464726573733a2063616c6c20746f206e6f6e2d636f6e747261637400000060448201526064016101f0565b5081611c4e565b611c4e83838151156121485781518083602001fd5b8060405162461bcd60e51b81526004016101f09190613183565b60008083601f84011261217457600080fd5b5081356001600160401b0381111561218b57600080fd5b6020830191508360208260051b8501011115611f3157600080fd5b600080600080604085870312156121bc57600080fd5b84356001600160401b03808211156121d357600080fd5b6121df88838901612162565b909650945060208701359150808211156121f857600080fd5b5061220587828801612162565b95989497509550505050565b803561ffff8116811461222357600080fd5b919050565b634e487b7160e01b600052604160045260246000fd5b60405160a081016001600160401b038111828210171561226057612260612228565b60405290565b60405160e081016001600160401b038111828210171561226057612260612228565b604051608081016001600160401b038111828210171561226057612260612228565b604051606081016001600160401b038111828210171561226057612260612228565b60405161016081016001600160401b038111828210171561226057612260612228565b604051601f8201601f191681016001600160401b038111828210171561231757612317612228565b604052919050565b60006001600160401b0382111561233857612338612228565b50601f01601f191660200190565b600082601f83011261235757600080fd5b813561236a6123658261231f565b6122ef565b81815284602083860101111561237f57600080fd5b816020850160208301376000918101602001919091529392505050565b6001600160a01b03811681146123b157600080fd5b50565b80356122238161239c565b60008060008060008060c087890312156123d857600080fd5b6123e187612211565b955060208701356001600160401b03808211156123fd57600080fd5b6124098a838b01612346565b965060408901359550606089013591506124228261239c565b9093506080880135925060a0880135908082111561243f57600080fd5b5061244c89828a01612346565b9150509295509295509295565b634e487b7160e01b600052603260045260246000fd5b60ff811681146123b157600080fd5b60006020828403121561249057600080fd5b8135610da28161246f565b6000808335601e198436030181126124b257600080fd5b8301803591506001600160401b038211156124cc57600080fd5b602001915036819003821315611f3157600080fd5b60006001600160401b038211156124fa576124fa612228565b5060051b60200190565b600082601f83011261251557600080fd5b81356020612525612365836124e1565b82815260059290921b8401810191818101908684111561254457600080fd5b8286015b8481101561256857803561255b8161239c565b8352918301918301612548565b509695505050505050565b6000806040838503121561258657600080fd5b82356001600160401b038082111561259d57600080fd5b6125a986838701612504565b93506020915081850135818111156125c057600080fd5b85019050601f810186136125d357600080fd5b80356125e1612365826124e1565b81815260059190911b8201830190838101908883111561260057600080fd5b928401925b8284101561261e57833582529284019290840190612605565b80955050505050509250929050565b634e487b7160e01b600052601160045260246000fd5b6000600182016126555761265561262d565b5060010190565b60006020828403121561266e57600080fd5b5035919050565b803562ffffff8116811461222357600080fd5b6000602080838503121561269b57600080fd5b82356001600160401b038111156126b157600080fd5b8301601f810185136126c257600080fd5b80356126d0612365826124e1565b81815260a091820283018401918482019190888411156126ef57600080fd5b938501935b838510156127665780858a03121561270c5760008081fd5b61271461223e565b85358152868601358782015260408087013561272f8161239c565b908201526060868101356127428161239c565b908201526080612753878201612675565b90820152835293840193918501916126f4565b50979650505050505050565b6000602080838503121561278557600080fd5b82356001600160401b0381111561279b57600080fd5b8301601f810185136127ac57600080fd5b80356127ba612365826124e1565b81815260e091820283018401918482019190888411156127d957600080fd5b938501935b838510156127665780858a0312156127f65760008081fd5b6127fe612266565b8535815286860135878201526040808701356128198161239c565b9082015260608681013561282c8161239c565b9082015260808681013561283f8161239c565b9082015260a0612850878201612675565b9082015260c0612861878201612675565b90820152835293840193918501916127de565b80151581146123b157600080fd5b6000602080838503121561289557600080fd5b82356001600160401b03808211156128ac57600080fd5b818501915085601f8301126128c057600080fd5b81356128ce612365826124e1565b81815260059190911b830184019084810190888311156128ed57600080fd5b8585015b838110156129825780358581111561290857600080fd5b86016080818c03601f1901121561291f5760008081fd5b612927612288565b8882013581526040808301358a8301526060808401358981111561294b5760008081fd5b6129598f8d83880101612504565b83850152506080840135935061296e84612874565b8201929092528452509186019186016128f1565b5098975050505050505050565b600060208083850312156129a257600080fd5b82356001600160401b038111156129b857600080fd5b8301601f810185136129c957600080fd5b80356129d7612365826124e1565b818152606091820283018401918482019190888411156129f657600080fd5b938501935b838510156127665780858a031215612a135760008081fd5b612a1b6122aa565b8535612a268161239c565b815285870135612a358161239c565b8188015260408681013590820152835293840193918501916129fb565b60008060408385031215612a6557600080fd5b8235612a708161239c565b946020939093013593505050565b600060208284031215612a9057600080fd5b5051919050565b600082601f830112612aa857600080fd5b81356020612ab8612365836124e1565b82815260059290921b84018101918181019086841115612ad757600080fd5b8286015b84811015612568578035612aee8161246f565b8352918301918301612adb565b600082601f830112612b0c57600080fd5b81356020612b1c612365836124e1565b82815260059290921b84018101918181019086841115612b3b57600080fd5b8286015b848110156125685780356001600160401b03811115612b5e5760008081fd5b612b6c8986838b0101612346565b845250918301918301612b3f565b60008060008385036101a0811215612b9157600080fd5b61016080821215612ba157600080fd5b612ba96122cc565b9150612bb486612211565b8252612bc2602087016123b4565b602083015260408601356040830152606086013560608301526080860135608083015260a086013560a083015260c086013560c0830152612c0560e087016123b4565b60e0830152610100612c188188016123b4565b90830152610120868101359083015261014080870135908301529093508401356001600160401b0380821115612c4d57600080fd5b612c5987838801612a97565b9350610180860135915080821115612c7057600080fd5b50612c7d86828701612afb565b9150509250925092565b60005b83811015612ca2578181015183820152602001612c8a565b50506000910152565b600082601f830112612cbc57600080fd5b81516020612ccc612365836124e1565b82815260059290921b84018101918181019086841115612ceb57600080fd5b8286015b848110156125685780516001600160401b03811115612d0e5760008081fd5b8701603f81018913612d205760008081fd5b848101516040612d326123658361231f565b8281528b82848601011115612d475760008081fd5b612d5683898301848701612c87565b8652505050918301918301612cef565b600080600060608486031215612d7b57600080fd5b8351612d868161239c565b809350506020808501516001600160401b0380821115612da557600080fd5b818701915087601f830112612db957600080fd5b8151612dc7612365826124e1565b81815260059190911b8301840190848101908a831115612de657600080fd5b938501935b82851015612e0d578451612dfe8161246f565b82529385019390850190612deb565b60408a01519097509450505080831115612e2657600080fd5b5050612c7d86828701612cab565b600081518084526020808501945080840160005b83811015612e6757815160ff1687529582019590820190600101612e48565b509495945050505050565b60008151808452612e8a816020860160208601612c87565b601f01601f19169290920160200192915050565b600081518084526020808501808196508360051b8101915082860160005b85811015612ee6578284038952612ed4848351612e72565b98850198935090840190600101612ebc565b5091979650505050505050565b604081526000612f066040830185612e34565b8281036020840152612f188185612e9e565b95945050505050565b602081526000825160a06020840152612f3d60c0840182612e72565b905060018060a01b0360208501511660408401526040840151606084015260608401516080840152608084015160a08401528091505092915050565b81810381811115611b8757611b8761262d565b6001600160a01b0384168152606060208201819052600090612fb090830185612e34565b8281036040840152612fc28185612e9e565b9695505050505050565b600061012061ffff8c1683528a602084015289604084015260018060a01b03891660608401528760808401528660a08401528060c084015285518184015250602085015161014083015260408501516060610160840152613031610180840182612e72565b905082810360e08401526130458186612e72565b905082810361010084015261305a8185612e72565b9c9b505050505050505050505050565b60006020828403121561307c57600080fd5b8151610da281612874565b60008251613099818460208701612c87565b9190910192915050565b80820180821115611b8757611b8761262d565b84815283602082015260018060a01b0383166040820152608060608201526000612fc26080830184612e72565b8082028115828204841417611b8757611b8761262d565b60008261311757634e487b7160e01b600052601260045260246000fd5b500490565b80516001600160701b038116811461222357600080fd5b60008060006060848603121561314857600080fd5b6131518461311c565b925061315f6020850161311c565b9150604084015163ffffffff8116811461317857600080fd5b809150509250925092565b602081526000610da26020830184612e7256fea2646970667358221220df7f6a5bc867a8b12a3bf04b907a89eb40e7b551b6a3fde133d4355da7065ede64736f6c63430008110033",
    "linkReferences": {}
  },
  "methodIdentifiers": {
    "ethereumSwaps(uint8[],bytes[])": "4b672083",
    "factory()": "c45a0155",
    "feeCollector()": "c415b95c",
    "pairCodeHash()": "9aab9248",
    "sgReceive(uint16,bytes,uint256,address,uint256,bytes)": "ab8236f3",
    "stargateRouter()": "a9e56f3c",
    "swapRouter()": "c31c9c07"
  },
  "id": 34
}