{
  "abi": [
    {
      "inputs": [
        {
          "internalType": "contract IWETH9",
          "name": "_weth",
          "type": "address"
        },
        {
          "internalType": "address",
          "name": "_feeCollector",
          "type": "address"
        },
        {
          "internalType": "contract ISwapRouter",
          "name": "_swapRouter",
          "type": "address"
        },
        {
          "internalType": "address",
          "name": "_factory",
          "type": "address"
        },
        {
          "internalType": "bytes32",
          "name": "_pairCodeHash",
          "type": "bytes32"
        },
        {
          "internalType": "contract IStargateRouter",
          "name": "_stargateRouter",
          "type": "address"
        }
      ],
      "stateMutability": "nonpayable",
      "type": "constructor"
    },
    {
      "inputs": [],
      "name": "MoreThanZero",
      "type": "error"
    },
    {
      "inputs": [],
      "name": "MustBeGt0",
      "type": "error"
    },
    {
      "inputs": [],
      "name": "NotStgRouter",
      "type": "error"
    },
    {
      "inputs": [],
      "name": "WithdrawFailed",
      "type": "error"
    },
    {
      "anonymous": false,
      "inputs": [
        {
          "indexed": false,
          "internalType": "address",
          "name": "_token",
          "type": "address"
        },
        {
          "indexed": false,
          "internalType": "uint256",
          "name": "_fee",
          "type": "uint256"
        }
      ],
      "name": "FeePaid",
      "type": "event"
    },
    {
      "anonymous": false,
      "inputs": [
        {
          "indexed": true,
          "internalType": "address",
          "name": "token",
          "type": "address"
        },
        {
          "indexed": false,
          "internalType": "uint256",
          "name": "amountLD",
          "type": "uint256"
        },
        {
          "indexed": false,
          "internalType": "bool",
          "name": "failed",
          "type": "bool"
        },
        {
          "indexed": false,
          "internalType": "bool",
          "name": "dustSent",
          "type": "bool"
        }
      ],
      "name": "ReceivedOnDestination",
      "type": "event"
    },
    {
      "anonymous": false,
      "inputs": [
        {
          "indexed": false,
          "internalType": "bool",
          "name": "success",
          "type": "bool"
        }
      ],
      "name": "SuccessfulWithdraw",
      "type": "event"
    },
    {
      "inputs": [
        {
          "internalType": "uint8[]",
          "name": "steps",
          "type": "uint8[]"
        },
        {
          "internalType": "bytes[]",
          "name": "data",
          "type": "bytes[]"
        }
      ],
      "name": "ethereumSwaps",
      "outputs": [],
      "stateMutability": "payable",
      "type": "function"
    },
    {
      "inputs": [],
      "name": "factory",
      "outputs": [
        {
          "internalType": "address",
          "name": "",
          "type": "address"
        }
      ],
      "stateMutability": "view",
      "type": "function"
    },
    {
      "inputs": [],
      "name": "feeCollector",
      "outputs": [
        {
          "internalType": "address",
          "name": "",
          "type": "address"
        }
      ],
      "stateMutability": "view",
      "type": "function"
    },
    {
      "inputs": [],
      "name": "pairCodeHash",
      "outputs": [
        {
          "internalType": "bytes32",
          "name": "",
          "type": "bytes32"
        }
      ],
      "stateMutability": "view",
      "type": "function"
    },
    {
      "inputs": [
        {
          "internalType": "uint16",
          "name": "",
          "type": "uint16"
        },
        {
          "internalType": "bytes",
          "name": "",
          "type": "bytes"
        },
        {
          "internalType": "uint256",
          "name": "",
          "type": "uint256"
        },
        {
          "internalType": "address",
          "name": "_token",
          "type": "address"
        },
        {
          "internalType": "uint256",
          "name": "amountLD",
          "type": "uint256"
        },
        {
          "internalType": "bytes",
          "name": "_payload",
          "type": "bytes"
        }
      ],
      "name": "sgReceive",
      "outputs": [],
      "stateMutability": "nonpayable",
      "type": "function"
    },
    {
      "inputs": [],
      "name": "stargateRouter",
      "outputs": [
        {
          "internalType": "contract IStargateRouter",
          "name": "",
          "type": "address"
        }
      ],
      "stateMutability": "view",
      "type": "function"
    },
    {
      "inputs": [],
      "name": "swapRouter",
      "outputs": [
        {
          "internalType": "contract ISwapRouter",
          "name": "",
          "type": "address"
        }
      ],
      "stateMutability": "view",
      "type": "function"
    },
    {
      "stateMutability": "payable",
      "type": "receive"
    }
  ],
  "bytecode": {
    "object": "0x6101006040526002805460ff191660011790553480156200001f57600080fd5b50604051620031c4380380620031c4833981016040819052620000429162000099565b6001600160a01b03938416608052600080546001600160a01b03191693851693909317909255600155811660a05291821660c0521660e05262000121565b6001600160a01b03811681146200009657600080fd5b50565b60008060008060008060c08789031215620000b357600080fd5b8651620000c08162000080565b6020880151909650620000d38162000080565b6040880151909550620000e68162000080565b6060880151909450620000f98162000080565b608088015160a08901519194509250620001138162000080565b809150509295509295509295565b60805160a05160c05160e051613024620001a06000396000818161017001526110cd015260008181610395015281816106c3015261075601526000818160d0015281816108f40152818161123f015261126601526000818161013c01528181610b4801528181610c7e01528181610d170152610e0201526130246000f3fe6080604052600436106100745760003560e01c8063ab8236f31161004e578063ab8236f31461010a578063c31c9c071461012a578063c415b95c1461015e578063c45a01551461019257600080fd5b80634b672083146100805780639aab924814610095578063a9e56f3c146100be57600080fd5b3661007b57005b600080fd5b61009361008e366004611ffe565b6101b2565b005b3480156100a157600080fd5b506100ab60015481565b6040519081526020015b60405180910390f35b3480156100ca57600080fd5b506100f27f000000000000000000000000000000000000000000000000000000000000000081565b6040516001600160a01b0390911681526020016100b5565b34801561011657600080fd5b50610093610125366004612217565b6108e9565b34801561013657600080fd5b506100f27f000000000000000000000000000000000000000000000000000000000000000081565b34801561016a57600080fd5b506100f27f000000000000000000000000000000000000000000000000000000000000000081565b34801561019e57600080fd5b506000546100f2906001600160a01b031681565b60025460ff166001146101f95760405162461bcd60e51b815260206004820152600a6024820152695245454e5452414e435960b01b60448201526064015b60405180910390fd5b6002805460ff19168117905560005b838110156108d5576000858583818110610224576102246122b1565b905060200201602081019061023991906122d6565b905060001960ff8216016103315760008085858581811061025c5761025c6122b1565b905060200281019061026e91906122f3565b81019061027b91906123cb565b9150915060005b825181101561032957600082828151811061029f5761029f6122b1565b6020026020010151116102c55760405163fe4155c760e01b815260040160405180910390fd5b61031733308484815181106102dc576102dc6122b1565b60200260200101518685815181106102f6576102f66122b1565b60200260200101516001600160a01b0316610ab6909392919063ffffffff16565b806103218161249b565b915050610282565b5050506108c2565b60011960ff82160161040d576000848484818110610351576103516122b1565b905060200281019061036391906122f3565b81019061037091906124b4565b9050600081116103935760405163fe4155c760e01b815260040160405180910390fd5b7f00000000000000000000000000000000000000000000000000000000000000006001600160a01b031663d0e30db0826040518263ffffffff1660e01b81526004016000604051808303818588803b1580156103ee57600080fd5b505af1158015610402573d6000803e3d6000fd5b5050505050506108c2565b60021960ff82160161049d57600084848481811061042d5761042d6122b1565b905060200281019061043f91906122f3565b81019061044c91906124e0565b905060005b815181101561049657600082828151811061046e5761046e6122b1565b6020026020010151905061048181610b27565b5050808061048e9061249b565b915050610451565b50506108c2565b60031960ff82160161051f5760008484848181106104bd576104bd6122b1565b90506020028101906104cf91906122f3565b8101906104dc91906125ca565b905060005b81518110156104965761050c8282815181106104ff576104ff6122b1565b6020026020010151610cf6565b50806105178161249b565b9150506104e1565b60041960ff8216016105a157600084848481811061053f5761053f6122b1565b905060200281019061055191906122f3565b81019061055e91906126da565b905060005b81518110156104965761058e828281518110610581576105816122b1565b6020026020010151610e4c565b50806105998161249b565b915050610563565b600a1960ff8216016106625760008484848181106105c1576105c16122b1565b90506020028101906105d391906122f3565b8101906105e091906127e7565b905060005b815181101561049657610650828281518110610603576106036122b1565b602002602001015160000151838381518110610621576106216122b1565b60200260200101516040015184848151811061063f5761063f6122b1565b60200260200101516020015161102c565b8061065a8161249b565b9150506105e5565b600b1960ff82160161086b57600080858585818110610683576106836122b1565b905060200281019061069591906122f3565b8101906106a291906128aa565b915091508060000361073b576040516370a0823160e01b81523060048201527f00000000000000000000000000000000000000000000000000000000000000006001600160a01b0316906370a0823190602401602060405180830381865afa158015610712573d6000803e3d6000fd5b505050506040513d601f19601f8201168201806040525081019061073691906128d6565b61073d565b805b604051632e1a7d4d60e01b8152600481018290529091507f00000000000000000000000000000000000000000000000000000000000000006001600160a01b031690632e1a7d4d90602401600060405180830381600087803b1580156107a257600080fd5b505af11580156107b6573d6000803e3d6000fd5b505050506000826001600160a01b03168260405160006040518083038185875af1925050503d8060008114610807576040519150601f19603f3d011682016040523d82523d6000602084013e61080c565b606091505b505090508061082e57604051631d42c86760e21b815260040160405180910390fd5b60405181151581527fecd574d247fc5a32601173682b0af34b454b7a0bf3e382d0efb3c6209e9443fa9060200160405180910390a15050506108c2565b600c1960ff8216016108c257600080600086868681811061088e5761088e6122b1565b90506020028101906108a091906122f3565b8101906108ad91906129d2565b9250925092506108be83838361114e565b5050505b50806108cd8161249b565b915050610208565b50506002805460ff19166001179055505050565b336001600160a01b037f0000000000000000000000000000000000000000000000000000000000000000161461093257604051638afe477f60e01b815260040160405180910390fd5b60008060008380602001905181019061094b9190612bbe565b9250925092506000306001600160a01b0316634b67208362030d4085856040518463ffffffff1660e01b8152600401610985929190612d4b565b600060405180830381600088803b15801561099f57600080fd5b5087f1935050505080156109b1575060015b6109ff573d8080156109df576040519150601f19603f3d011682016040523d82523d6000602084013e6109e4565b606091505b506109f96001600160a01b038916868961139c565b60019150505b60004715610a5b576040516001600160a01b038616904790600081818185875af1925050503d8060008114610a50576040519150601f19603f3d011682016040523d82523d6000602084013e610a55565b606091505b50909150505b6040805188815283151560208201528215158183015290516001600160a01b038a16917f7f345d6da48bd1339fd428ff45265a0f01258b14ca09dcf8db0c469f4f732fd3919081900360600190a25050505050505050505050565b6040516001600160a01b0380851660248301528316604482015260648101829052610b219085906323b872dd60e01b906084015b60408051601f198184030181529190526020810180516001600160e01b03166001600160e01b0319909316929092179091526113d1565b50505050565b60408181015190516370a0823160e01b8152306004820152600091610bc3917f0000000000000000000000000000000000000000000000000000000000000000906001600160a01b038316906370a08231906024015b602060405180830381865afa158015610b9a573d6000803e3d6000fd5b505050506040513d601f19601f82011682018060405250810190610bbe91906128d6565b6114a3565b6040805161010081018252838201516001600160a01b0390811682526060808601518216602080850191825260808089015162ffffff90811687890190815230958801958652429288019283528a5160a08901908152938b015160c08901908152600060e08a01908152995163414bf38960e01b8152895189166004820152955188166024870152905190911660448501529351851660648401525160848301525160a4820152905160c48201529251811660e484015290917f00000000000000000000000000000000000000000000000000000000000000009091169063414bf38990610104015b6020604051808303816000875af1158015610ccb573d6000803e3d6000fd5b505050506040513d601f19601f82011682018060405250810190610cef91906128d6565b9392505050565b60408181015190516370a0823160e01b8152306004820152600091610d50917f0000000000000000000000000000000000000000000000000000000000000000906001600160a01b038316906370a0823190602401610b7d565b6040805160a08082018352918401519184015160608086015160c08088015160808901516001600160601b031997851b8816928701929092526001600160e81b031960e895861b811660d488015292841b871660d787015290931b1660eb8401521b90911660ee8201526000908061010281016040516020818303038152906040528152602001306001600160a01b0316815260200142815260200184600001518152602001846020015181525090507f00000000000000000000000000000000000000000000000000000000000000006001600160a01b031663c04b8d59826040518263ffffffff1660e01b8152600401610cac9190612d79565b60008054825160408401516001548493610e73936001600160a01b039091169290916115a3565b90508060018251610e849190612dd1565b81518110610e9457610e946122b1565b602002602001015191508260200151821015610ef25760405162461bcd60e51b815260206004820152601760248201527f696e73756666696369656e742d616d6f756e742d6f757400000000000000000060448201526064016101f0565b82606001511561101757600080546040850151805161101793610f55936001600160a01b03169291610f2657610f266122b1565b60200260200101518660400151600181518110610f4557610f456122b1565b602002602001015160015461172f565b8460400151600081518110610f6c57610f6c6122b1565b60209081029190910101516040516370a0823160e01b81523060048201526001600160a01b03909116906370a0823190602401602060405180830381865afa158015610fbc573d6000803e3d6000fd5b505050506040513d601f19601f82011682018060405250810190610fe091906128d6565b8560400151600081518110610ff757610ff76122b1565b60200260200101516001600160a01b031661139c9092919063ffffffff16565b611026818460400151306117e3565b50919050565b816000036110a1576040516370a0823160e01b81523060048201526001600160a01b038416906370a0823190602401602060405180830381865afa158015611078573d6000803e3d6000fd5b505050506040513d601f19601f8201168201806040525081019061109c91906128d6565b6110a3565b815b915060006110b0836119ba565b90506110bc8184612dd1565b92506110f26001600160a01b0385167f00000000000000000000000000000000000000000000000000000000000000008361139c565b6111066001600160a01b038516838561139c565b604080516001600160a01b0386168152602081018390527f075a2720282fdf622141dae0b048ef90a21a7e57c134c76912d19d006b3b3f6f910160405180910390a150505050565b6000341161116f5760405163c9935ff960e01b815260040160405180910390fd5b6000836101000151838360405160200161118b93929190612de4565b6040516020818303038152906040529050836080015160000361121b5760208401516040516370a0823160e01b81523060048201526001600160a01b03909116906370a0823190602401602060405180830381865afa1580156111f2573d6000803e3d6000fd5b505050506040513d601f19601f8201168201806040525081019061121691906128d6565b611221565b83608001515b608085018190526020850151611264916001600160a01b03909116907f0000000000000000000000000000000000000000000000000000000000000000906119e5565b7f00000000000000000000000000000000000000000000000000000000000000006001600160a01b0316639fbf10fc47866000015187604001518860600151308a608001518b60a0015160405180606001604052808e610120015181526020018e60c0015181526020018e60e001516040516020016112f6919060609190911b6001600160601b031916815260140190565b6040516020818303038152906040528152508d60e00151604051602001611330919060609190911b6001600160601b031916815260140190565b6040516020818303038152906040528b6040518b63ffffffff1660e01b815260040161136499989796959493929190612e24565b6000604051808303818588803b15801561137d57600080fd5b505af1158015611391573d6000803e3d6000fd5b505050505050505050565b6040516001600160a01b0383166024820152604481018290526113cc90849063a9059cbb60e01b90606401610aea565b505050565b6000611426826040518060400160405280602081526020017f5361666545524332303a206c6f772d6c6576656c2063616c6c206661696c6564815250856001600160a01b0316611a979092919063ffffffff16565b8051909150156113cc57808060200190518101906114449190612ec2565b6113cc5760405162461bcd60e51b815260206004820152602a60248201527f5361666545524332303a204552433230206f7065726174696f6e20646964206e6044820152691bdd081cdd58d8d9595960b21b60648201526084016101f0565b604080516001600160a01b038481166024830152604480830185905283518084039091018152606490920183526020820180516001600160e01b031663095ea7b360e01b17905291516000928392908716916114ff9190612edf565b6000604051808303816000865af19150503d806000811461153c576040519150601f19603f3d011682016040523d82523d6000602084013e611541565b606091505b509150915081801561156b57508051158061156b57508080602001905181019061156b9190612ec2565b61159c5760405162461bcd60e51b8152602060048201526002602482015261534160f01b60448201526064016101f0565b5050505050565b60606002835110156115f75760405162461bcd60e51b815260206004820152601e60248201527f556e697377617056324c6962726172793a20494e56414c49445f50415448000060448201526064016101f0565b82516001600160401b0381111561161057611610612080565b604051908082528060200260200182016040528015611639578160200160208202803683370190505b5090508381600081518110611650576116506122b1565b60200260200101818152505060005b6001845161166d9190612dd1565b811015611726576000806116c18887858151811061168d5761168d6122b1565b6020026020010151888660016116a39190612efb565b815181106116b3576116b36122b1565b602002602001015188611aae565b915091506116e98484815181106116da576116da6122b1565b60200260200101518383611b7a565b846116f5856001612efb565b81518110611705576117056122b1565b6020026020010181815250505050808061171e9061249b565b91505061165f565b50949350505050565b600080600061173e8686611c99565b6040516001600160601b0319606084811b8216602084015283901b1660348201529193509150879060480160405160208183030381529060405280519060200120856040516020016117c0939291906001600160f81b0319815260609390931b6001600160601b03191660018401526015830191909152603582015260550190565b60408051601f198184030181529190528051602090910120979650505050505050565b60005b600183516117f49190612dd1565b811015610b2157600080848381518110611810576118106122b1565b6020026020010151858460016118269190612efb565b81518110611836576118366122b1565b602002602001015191509150600061184e8383611c99565b50905060008761185f866001612efb565b8151811061186f5761186f6122b1565b60200260200101519050600080836001600160a01b0316866001600160a01b03161461189d578260006118a1565b6000835b91509150600060028a516118b59190612dd1565b88106118c157886118ee565b6000546118ee906001600160a01b0316878c6118de8c6002612efb565b81518110610f4557610f456122b1565b905061191160008054906101000a90046001600160a01b0316888860015461172f565b6001600160a01b031663022c0d9f84848460006040519080825280601f01601f19166020018201604052801561194e576020820181803683370190505b506040518563ffffffff1660e01b815260040161196e9493929190612f0e565b600060405180830381600087803b15801561198857600080fd5b505af115801561199c573d6000803e3d6000fd5b505050505050505050505080806119b29061249b565b9150506117e6565b60006127106119cb8361270b612f3b565b6119d59190612f52565b6119df9083612dd1565b92915050565b604051636eb1769f60e11b81523060048201526001600160a01b038381166024830152600091839186169063dd62ed3e90604401602060405180830381865afa158015611a36573d6000803e3d6000fd5b505050506040513d601f19601f82011682018060405250810190611a5a91906128d6565b611a649190612efb565b6040516001600160a01b038516602482015260448101829052909150610b2190859063095ea7b360e01b90606401610aea565b6060611aa68484600085611d90565b949350505050565b6000806000611abd8686611c99565b509050600080611acf8989898961172f565b6001600160a01b0316630902f1ac6040518163ffffffff1660e01b8152600401606060405180830381865afa158015611b0c573d6000803e3d6000fd5b505050506040513d601f19601f82011682018060405250810190611b309190612f8b565b506001600160701b031691506001600160701b03169150826001600160a01b0316886001600160a01b031614611b67578082611b6a565b81815b909a909950975050505050505050565b6000808411611bdf5760405162461bcd60e51b815260206004820152602b60248201527f556e697377617056324c6962726172793a20494e53554646494349454e545f4960448201526a1394155517d05353d5539560aa1b60648201526084016101f0565b600083118015611bef5750600082115b611c4c5760405162461bcd60e51b815260206004820152602860248201527f556e697377617056324c6962726172793a20494e53554646494349454e545f4c604482015267495155494449545960c01b60648201526084016101f0565b6000611c5a856103e5611e60565b90506000611c688285611e60565b90506000611c8283611c7c886103e8611e60565b90611ec7565b9050611c8e8183612f52565b979650505050505050565b600080826001600160a01b0316846001600160a01b031603611d0b5760405162461bcd60e51b815260206004820152602560248201527f556e697377617056324c6962726172793a204944454e544943414c5f41444452604482015264455353455360d81b60648201526084016101f0565b826001600160a01b0316846001600160a01b031610611d2b578284611d2e565b83835b90925090506001600160a01b038216611d895760405162461bcd60e51b815260206004820152601e60248201527f556e697377617056324c6962726172793a205a45524f5f41444452455353000060448201526064016101f0565b9250929050565b606082471015611df15760405162461bcd60e51b815260206004820152602660248201527f416464726573733a20696e73756666696369656e742062616c616e636520666f6044820152651c8818d85b1b60d21b60648201526084016101f0565b600080866001600160a01b03168587604051611e0d9190612edf565b60006040518083038185875af1925050503d8060008114611e4a576040519150601f19603f3d011682016040523d82523d6000602084013e611e4f565b606091505b5091509150611c8e87838387611f1c565b6000811580611e8457508282611e768183612f3b565b9250611e829083612f52565b145b6119df5760405162461bcd60e51b815260206004820152601460248201527364732d6d6174682d6d756c2d6f766572666c6f7760601b60448201526064016101f0565b600082611ed48382612efb565b91508110156119df5760405162461bcd60e51b815260206004820152601460248201527364732d6d6174682d6164642d6f766572666c6f7760601b60448201526064016101f0565b60608315611f8b578251600003611f84576001600160a01b0385163b611f845760405162461bcd60e51b815260206004820152601d60248201527f416464726573733a2063616c6c20746f206e6f6e2d636f6e747261637400000060448201526064016101f0565b5081611aa6565b611aa68383815115611fa05781518083602001fd5b8060405162461bcd60e51b81526004016101f09190612fdb565b60008083601f840112611fcc57600080fd5b5081356001600160401b03811115611fe357600080fd5b6020830191508360208260051b8501011115611d8957600080fd5b6000806000806040858703121561201457600080fd5b84356001600160401b038082111561202b57600080fd5b61203788838901611fba565b9096509450602087013591508082111561205057600080fd5b5061205d87828801611fba565b95989497509550505050565b803561ffff8116811461207b57600080fd5b919050565b634e487b7160e01b600052604160045260246000fd5b60405160a081016001600160401b03811182821017156120b8576120b8612080565b60405290565b60405160e081016001600160401b03811182821017156120b8576120b8612080565b604051608081016001600160401b03811182821017156120b8576120b8612080565b604051606081016001600160401b03811182821017156120b8576120b8612080565b60405161016081016001600160401b03811182821017156120b8576120b8612080565b604051601f8201601f191681016001600160401b038111828210171561216f5761216f612080565b604052919050565b60006001600160401b0382111561219057612190612080565b50601f01601f191660200190565b600082601f8301126121af57600080fd5b81356121c26121bd82612177565b612147565b8181528460208386010111156121d757600080fd5b816020850160208301376000918101602001919091529392505050565b6001600160a01b038116811461220957600080fd5b50565b803561207b816121f4565b60008060008060008060c0878903121561223057600080fd5b61223987612069565b955060208701356001600160401b038082111561225557600080fd5b6122618a838b0161219e565b9650604089013595506060890135915061227a826121f4565b9093506080880135925060a0880135908082111561229757600080fd5b506122a489828a0161219e565b9150509295509295509295565b634e487b7160e01b600052603260045260246000fd5b60ff8116811461220957600080fd5b6000602082840312156122e857600080fd5b8135610cef816122c7565b6000808335601e1984360301811261230a57600080fd5b8301803591506001600160401b0382111561232457600080fd5b602001915036819003821315611d8957600080fd5b60006001600160401b0382111561235257612352612080565b5060051b60200190565b600082601f83011261236d57600080fd5b8135602061237d6121bd83612339565b82815260059290921b8401810191818101908684111561239c57600080fd5b8286015b848110156123c05780356123b3816121f4565b83529183019183016123a0565b509695505050505050565b600080604083850312156123de57600080fd5b82356001600160401b03808211156123f557600080fd5b6124018683870161235c565b935060209150818501358181111561241857600080fd5b85019050601f8101861361242b57600080fd5b80356124396121bd82612339565b81815260059190911b8201830190838101908883111561245857600080fd5b928401925b828410156124765783358252928401929084019061245d565b80955050505050509250929050565b634e487b7160e01b600052601160045260246000fd5b6000600182016124ad576124ad612485565b5060010190565b6000602082840312156124c657600080fd5b5035919050565b803562ffffff8116811461207b57600080fd5b600060208083850312156124f357600080fd5b82356001600160401b0381111561250957600080fd5b8301601f8101851361251a57600080fd5b80356125286121bd82612339565b81815260a0918202830184019184820191908884111561254757600080fd5b938501935b838510156125be5780858a0312156125645760008081fd5b61256c612096565b853581528686013587820152604080870135612587816121f4565b9082015260608681013561259a816121f4565b9082015260806125ab8782016124cd565b908201528352938401939185019161254c565b50979650505050505050565b600060208083850312156125dd57600080fd5b82356001600160401b038111156125f357600080fd5b8301601f8101851361260457600080fd5b80356126126121bd82612339565b81815260e0918202830184019184820191908884111561263157600080fd5b938501935b838510156125be5780858a03121561264e5760008081fd5b6126566120be565b853581528686013587820152604080870135612671816121f4565b90820152606086810135612684816121f4565b90820152608086810135612697816121f4565b9082015260a06126a88782016124cd565b9082015260c06126b98782016124cd565b9082015283529384019391850191612636565b801515811461220957600080fd5b600060208083850312156126ed57600080fd5b82356001600160401b038082111561270457600080fd5b818501915085601f83011261271857600080fd5b81356127266121bd82612339565b81815260059190911b8301840190848101908883111561274557600080fd5b8585015b838110156127da5780358581111561276057600080fd5b86016080818c03601f190112156127775760008081fd5b61277f6120e0565b8882013581526040808301358a830152606080840135898111156127a35760008081fd5b6127b18f8d8388010161235c565b8385015250608084013593506127c6846126cc565b820192909252845250918601918601612749565b5098975050505050505050565b600060208083850312156127fa57600080fd5b82356001600160401b0381111561281057600080fd5b8301601f8101851361282157600080fd5b803561282f6121bd82612339565b8181526060918202830184019184820191908884111561284e57600080fd5b938501935b838510156125be5780858a03121561286b5760008081fd5b612873612102565b853561287e816121f4565b81528587013561288d816121f4565b818801526040868101359082015283529384019391850191612853565b600080604083850312156128bd57600080fd5b82356128c8816121f4565b946020939093013593505050565b6000602082840312156128e857600080fd5b5051919050565b600082601f83011261290057600080fd5b813560206129106121bd83612339565b82815260059290921b8401810191818101908684111561292f57600080fd5b8286015b848110156123c0578035612946816122c7565b8352918301918301612933565b600082601f83011261296457600080fd5b813560206129746121bd83612339565b82815260059290921b8401810191818101908684111561299357600080fd5b8286015b848110156123c05780356001600160401b038111156129b65760008081fd5b6129c48986838b010161219e565b845250918301918301612997565b60008060008385036101a08112156129e957600080fd5b610160808212156129f957600080fd5b612a01612124565b9150612a0c86612069565b8252612a1a6020870161220c565b602083015260408601356040830152606086013560608301526080860135608083015260a086013560a083015260c086013560c0830152612a5d60e0870161220c565b60e0830152610100612a7081880161220c565b90830152610120868101359083015261014080870135908301529093508401356001600160401b0380821115612aa557600080fd5b612ab1878388016128ef565b9350610180860135915080821115612ac857600080fd5b50612ad586828701612953565b9150509250925092565b60005b83811015612afa578181015183820152602001612ae2565b50506000910152565b600082601f830112612b1457600080fd5b81516020612b246121bd83612339565b82815260059290921b84018101918181019086841115612b4357600080fd5b8286015b848110156123c05780516001600160401b03811115612b665760008081fd5b8701603f81018913612b785760008081fd5b848101516040612b8a6121bd83612177565b8281528b82848601011115612b9f5760008081fd5b612bae83898301848701612adf565b8652505050918301918301612b47565b600080600060608486031215612bd357600080fd5b8351612bde816121f4565b809350506020808501516001600160401b0380821115612bfd57600080fd5b818701915087601f830112612c1157600080fd5b8151612c1f6121bd82612339565b81815260059190911b8301840190848101908a831115612c3e57600080fd5b938501935b82851015612c65578451612c56816122c7565b82529385019390850190612c43565b60408a01519097509450505080831115612c7e57600080fd5b5050612ad586828701612b03565b600081518084526020808501945080840160005b83811015612cbf57815160ff1687529582019590820190600101612ca0565b509495945050505050565b60008151808452612ce2816020860160208601612adf565b601f01601f19169290920160200192915050565b600081518084526020808501808196508360051b8101915082860160005b85811015612d3e578284038952612d2c848351612cca565b98850198935090840190600101612d14565b5091979650505050505050565b604081526000612d5e6040830185612c8c565b8281036020840152612d708185612cf6565b95945050505050565b602081526000825160a06020840152612d9560c0840182612cca565b905060018060a01b0360208501511660408401526040840151606084015260608401516080840152608084015160a08401528091505092915050565b818103818111156119df576119df612485565b6001600160a01b0384168152606060208201819052600090612e0890830185612c8c565b8281036040840152612e1a8185612cf6565b9695505050505050565b600061012061ffff8c1683528a602084015289604084015260018060a01b03891660608401528760808401528660a08401528060c084015285518184015250602085015161014083015260408501516060610160840152612e89610180840182612cca565b905082810360e0840152612e9d8186612cca565b9050828103610100840152612eb28185612cca565b9c9b505050505050505050505050565b600060208284031215612ed457600080fd5b8151610cef816126cc565b60008251612ef1818460208701612adf565b9190910192915050565b808201808211156119df576119df612485565b84815283602082015260018060a01b0383166040820152608060608201526000612e1a6080830184612cca565b80820281158282048414176119df576119df612485565b600082612f6f57634e487b7160e01b600052601260045260246000fd5b500490565b80516001600160701b038116811461207b57600080fd5b600080600060608486031215612fa057600080fd5b612fa984612f74565b9250612fb760208501612f74565b9150604084015163ffffffff81168114612fd057600080fd5b809150509250925092565b602081526000610cef6020830184612cca56fea2646970667358221220d394e5a96cd38930524bb5fa3757e7f929ec0bb3400d3a8076d74a0e2303bef564736f6c63430008110033",
    "linkReferences": {}
  },
  "methodIdentifiers": {
    "ethereumSwaps(uint8[],bytes[])": "4b672083",
    "factory()": "c45a0155",
    "feeCollector()": "c415b95c",
    "pairCodeHash()": "9aab9248",
    "sgReceive(uint16,bytes,uint256,address,uint256,bytes)": "ab8236f3",
    "stargateRouter()": "a9e56f3c",
    "swapRouter()": "c31c9c07"
  },
  "id": 64
}