{
  "abi": [
    {
      "inputs": [],
      "stateMutability": "nonpayable",
      "type": "constructor"
    },
    {
      "inputs": [],
      "name": "encodeSwapData",
      "outputs": [
        {
          "internalType": "bytes",
          "name": "_swapsData",
          "type": "bytes"
        }
      ],
      "stateMutability": "view",
      "type": "function"
    },
    {
      "inputs": [
        {
          "internalType": "address",
          "name": "_address",
          "type": "address"
        },
        {
          "internalType": "uint256",
          "name": "amount",
          "type": "uint256"
        }
      ],
      "name": "encodeUnit",
      "outputs": [
        {
          "internalType": "bytes",
          "name": "",
          "type": "bytes"
        }
      ],
      "stateMutability": "pure",
      "type": "function"
    }
  ],
  "bytecode": {
    "object": "0x608060405234801561001057600080fd5b506102e6806100206000396000f3fe608060405234801561001057600080fd5b50600436106100365760003560e01c806337ea64041461003b57806387639ffa1461008e575b600080fd5b610078610049366004610187565b604080516001600160a01b03939093166020840152828101919091528051808303820181526060909201905290565b60405161008591906101bf565b60405180910390f35b6100786040805160028082526060808301845292600092919060208301908036833701905050905073d00ae08403b9bbb9124bb305c09058e32c39a48c816001815181106100de576100de610214565b60200260200101906001600160a01b031690816001600160a01b031681525050734a0d1092e9df255cf95d72834ea92551327823188160008151811061012657610126610214565b6001600160a01b0390921660209283029190910182015260405161017291620f4240916000918591736cb6d9fb673cfbf31b3a432f6316fe3196efd4aa916507dba8218000910161022a565b60405160208183030381529060405291505090565b6000806040838503121561019a57600080fd5b82356001600160a01b03811681146101b157600080fd5b946020939093013593505050565b600060208083528351808285015260005b818110156101ec578581018301518582016040015282016101d0565b818111156101fe576000604083870101525b50601f01601f1916929092016040019392505050565b634e487b7160e01b600052603260045260246000fd5b600060a0820162ffffff88168352602060ff88168185015260a0604085015281875180845260c086019150828901935060005b818110156102825784516001600160a01b03168352938301939183019160010161025d565b50506001600160a01b0396909616606085015250505065ffffffffffff91909116608090910152939250505056fea264697066735822122064eee5a8d152905279669fb235b90076abaef428f387f4709c6d591065bbcf9c64736f6c634300080f0033",
    "linkReferences": {}
  },
  "methodIdentifiers": {
    "encodeSwapData()": "87639ffa",
    "encodeUnit(address,uint256)": "37ea6404"
  },
  "id": 51
}