{
  "abi": [
    {
      "inputs": [],
      "stateMutability": "nonpayable",
      "type": "constructor"
    },
    {
      "inputs": [
        {
          "internalType": "uint256",
          "name": "amount",
          "type": "uint256"
        }
      ],
      "name": "encodeUnit",
      "outputs": [
        {
          "internalType": "bytes",
          "name": "",
          "type": "bytes"
        }
      ],
      "stateMutability": "pure",
      "type": "function"
    }
  ],
  "bytecode": {
    "object": "0x608060405234801561001057600080fd5b5061011d806100206000396000f3fe6080604052348015600f57600080fd5b506004361060285760003560e01c8063f79b6f0414602d575b600080fd5b603c6038366004607d565b6050565b604051604791906095565b60405180910390f35b6060600082604051602001606691815260200190565b60408051601f198184030181529190529392505050565b600060208284031215608e57600080fd5b5035919050565b600060208083528351808285015260005b8181101560c05785810183015185820160400152820160a6565b8181111560d1576000604083870101525b50601f01601f191692909201604001939250505056fea26469706673582212205245960b1ca6e684a4801ad9da5cb3dc96076cf3e899c956342829c9d987c80f64736f6c634300080f0033",
    "linkReferences": {}
  },
  "methodIdentifiers": {
    "encodeUnit(uint256)": "f79b6f04"
  },
  "id": 0
}