{
  "abi": [
    {
      "inputs": [
        {
          "internalType": "address",
          "name": "_mugen",
          "type": "address"
        }
      ],
      "stateMutability": "nonpayable",
      "type": "constructor"
    },
    {
      "inputs": [
        {
          "internalType": "address",
          "name": "to",
          "type": "address"
        },
        {
          "internalType": "uint256",
          "name": "amount",
          "type": "uint256"
        }
      ],
      "name": "_mint",
      "outputs": [],
      "stateMutability": "nonpayable",
      "type": "function"
    },
    {
      "inputs": [],
      "name": "mugen",
      "outputs": [
        {
          "internalType": "contract IMugen",
          "name": "",
          "type": "address"
        }
      ],
      "stateMutability": "view",
      "type": "function"
    }
  ],
  "bytecode": {
    "object": "0x608060405234801561001057600080fd5b506040516101ea3803806101ea83398101604081905261002f91610054565b600080546001600160a01b0319166001600160a01b0392909216919091179055610084565b60006020828403121561006657600080fd5b81516001600160a01b038116811461007d57600080fd5b9392505050565b610157806100936000396000f3fe608060405234801561001057600080fd5b50600436106100365760003560e01c80634e6ec2471461003b57806354dfbdf614610050575b600080fd5b61004e6100493660046100e9565b61007f565b005b600054610063906001600160a01b031681565b6040516001600160a01b03909116815260200160405180910390f35b6000546040516340c10f1960e01b81526001600160a01b03848116600483015260248201849052909116906340c10f1990604401600060405180830381600087803b1580156100cd57600080fd5b505af11580156100e1573d6000803e3d6000fd5b505050505050565b600080604083850312156100fc57600080fd5b82356001600160a01b038116811461011357600080fd5b94602093909301359350505056fea2646970667358221220a69367d00234579116b5499a423f35fdef19d35d403ddad70824a8e9fd3523cf64736f6c63430008110033",
    "linkReferences": {}
  },
  "methodIdentifiers": {
    "_mint(address,uint256)": "4e6ec247",
    "mugen()": "54dfbdf6"
  },
  "id": 64
}