{
  "abi": [
    {
      "inputs": [
        {
          "internalType": "contract IERC20",
          "name": "asset",
          "type": "address"
        },
        {
          "internalType": "string",
          "name": "name",
          "type": "string"
        },
        {
          "internalType": "string",
          "name": "symbol",
          "type": "string"
        },
        {
          "internalType": "address",
          "name": "_factory",
          "type": "address"
        },
        {
          "internalType": "uint24",
          "name": "_fee",
          "type": "uint24"
        }
      ],
      "stateMutability": "nonpayable",
      "type": "constructor"
    },
    {
      "inputs": [],
      "name": "T",
      "type": "error"
    },
    {
      "anonymous": false,
      "inputs": [
        {
          "indexed": true,
          "internalType": "address",
          "name": "owner",
          "type": "address"
        },
        {
          "indexed": true,
          "internalType": "address",
          "name": "spender",
          "type": "address"
        },
        {
          "indexed": false,
          "internalType": "uint256",
          "name": "value",
          "type": "uint256"
        }
      ],
      "name": "Approval",
      "type": "event"
    },
    {
      "anonymous": false,
      "inputs": [
        {
          "indexed": true,
          "internalType": "address",
          "name": "sender",
          "type": "address"
        },
        {
          "indexed": true,
          "internalType": "address",
          "name": "owner",
          "type": "address"
        },
        {
          "indexed": false,
          "internalType": "uint256",
          "name": "assets",
          "type": "uint256"
        },
        {
          "indexed": false,
          "internalType": "uint256",
          "name": "shares",
          "type": "uint256"
        }
      ],
      "name": "Deposit",
      "type": "event"
    },
    {
      "anonymous": false,
      "inputs": [
        {
          "indexed": false,
          "internalType": "uint256",
          "name": "stakedAmount",
          "type": "uint256"
        }
      ],
      "name": "Staked",
      "type": "event"
    },
    {
      "anonymous": false,
      "inputs": [
        {
          "indexed": true,
          "internalType": "address",
          "name": "from",
          "type": "address"
        },
        {
          "indexed": true,
          "internalType": "address",
          "name": "to",
          "type": "address"
        },
        {
          "indexed": false,
          "internalType": "uint256",
          "name": "value",
          "type": "uint256"
        }
      ],
      "name": "Transfer",
      "type": "event"
    },
    {
      "anonymous": false,
      "inputs": [
        {
          "indexed": true,
          "internalType": "address",
          "name": "sender",
          "type": "address"
        },
        {
          "indexed": true,
          "internalType": "address",
          "name": "receiver",
          "type": "address"
        },
        {
          "indexed": true,
          "internalType": "address",
          "name": "owner",
          "type": "address"
        },
        {
          "indexed": false,
          "internalType": "uint256",
          "name": "assets",
          "type": "uint256"
        },
        {
          "indexed": false,
          "internalType": "uint256",
          "name": "shares",
          "type": "uint256"
        }
      ],
      "name": "Withdraw",
      "type": "event"
    },
    {
      "inputs": [],
      "name": "MGN",
      "outputs": [
        {
          "internalType": "address",
          "name": "",
          "type": "address"
        }
      ],
      "stateMutability": "view",
      "type": "function"
    },
    {
      "inputs": [],
      "name": "WETH",
      "outputs": [
        {
          "internalType": "address",
          "name": "",
          "type": "address"
        }
      ],
      "stateMutability": "view",
      "type": "function"
    },
    {
      "inputs": [
        {
          "internalType": "address",
          "name": "owner",
          "type": "address"
        },
        {
          "internalType": "address",
          "name": "spender",
          "type": "address"
        }
      ],
      "name": "allowance",
      "outputs": [
        {
          "internalType": "uint256",
          "name": "",
          "type": "uint256"
        }
      ],
      "stateMutability": "view",
      "type": "function"
    },
    {
      "inputs": [
        {
          "internalType": "address",
          "name": "spender",
          "type": "address"
        },
        {
          "internalType": "uint256",
          "name": "amount",
          "type": "uint256"
        }
      ],
      "name": "approve",
      "outputs": [
        {
          "internalType": "bool",
          "name": "",
          "type": "bool"
        }
      ],
      "stateMutability": "nonpayable",
      "type": "function"
    },
    {
      "inputs": [],
      "name": "asset",
      "outputs": [
        {
          "internalType": "address",
          "name": "",
          "type": "address"
        }
      ],
      "stateMutability": "view",
      "type": "function"
    },
    {
      "inputs": [
        {
          "internalType": "address",
          "name": "account",
          "type": "address"
        }
      ],
      "name": "balanceOf",
      "outputs": [
        {
          "internalType": "uint256",
          "name": "",
          "type": "uint256"
        }
      ],
      "stateMutability": "view",
      "type": "function"
    },
    {
      "inputs": [],
      "name": "compoundMGN",
      "outputs": [],
      "stateMutability": "nonpayable",
      "type": "function"
    },
    {
      "inputs": [
        {
          "internalType": "uint256",
          "name": "shares",
          "type": "uint256"
        }
      ],
      "name": "convertToAssets",
      "outputs": [
        {
          "internalType": "uint256",
          "name": "assets",
          "type": "uint256"
        }
      ],
      "stateMutability": "view",
      "type": "function"
    },
    {
      "inputs": [
        {
          "internalType": "uint256",
          "name": "assets",
          "type": "uint256"
        }
      ],
      "name": "convertToShares",
      "outputs": [
        {
          "internalType": "uint256",
          "name": "shares",
          "type": "uint256"
        }
      ],
      "stateMutability": "view",
      "type": "function"
    },
    {
      "inputs": [],
      "name": "decimals",
      "outputs": [
        {
          "internalType": "uint8",
          "name": "",
          "type": "uint8"
        }
      ],
      "stateMutability": "view",
      "type": "function"
    },
    {
      "inputs": [
        {
          "internalType": "address",
          "name": "spender",
          "type": "address"
        },
        {
          "internalType": "uint256",
          "name": "subtractedValue",
          "type": "uint256"
        }
      ],
      "name": "decreaseAllowance",
      "outputs": [
        {
          "internalType": "bool",
          "name": "",
          "type": "bool"
        }
      ],
      "stateMutability": "nonpayable",
      "type": "function"
    },
    {
      "inputs": [
        {
          "internalType": "uint256",
          "name": "assets",
          "type": "uint256"
        },
        {
          "internalType": "address",
          "name": "receiver",
          "type": "address"
        }
      ],
      "name": "deposit",
      "outputs": [
        {
          "internalType": "uint256",
          "name": "",
          "type": "uint256"
        }
      ],
      "stateMutability": "nonpayable",
      "type": "function"
    },
    {
      "inputs": [],
      "name": "estimateAmoutOut",
      "outputs": [
        {
          "internalType": "uint256",
          "name": "amountOut",
          "type": "uint256"
        }
      ],
      "stateMutability": "view",
      "type": "function"
    },
    {
      "inputs": [
        {
          "internalType": "address",
          "name": "spender",
          "type": "address"
        },
        {
          "internalType": "uint256",
          "name": "addedValue",
          "type": "uint256"
        }
      ],
      "name": "increaseAllowance",
      "outputs": [
        {
          "internalType": "bool",
          "name": "",
          "type": "bool"
        }
      ],
      "stateMutability": "nonpayable",
      "type": "function"
    },
    {
      "inputs": [
        {
          "internalType": "address",
          "name": "",
          "type": "address"
        }
      ],
      "name": "maxDeposit",
      "outputs": [
        {
          "internalType": "uint256",
          "name": "",
          "type": "uint256"
        }
      ],
      "stateMutability": "view",
      "type": "function"
    },
    {
      "inputs": [
        {
          "internalType": "address",
          "name": "",
          "type": "address"
        }
      ],
      "name": "maxMint",
      "outputs": [
        {
          "internalType": "uint256",
          "name": "",
          "type": "uint256"
        }
      ],
      "stateMutability": "view",
      "type": "function"
    },
    {
      "inputs": [
        {
          "internalType": "address",
          "name": "owner",
          "type": "address"
        }
      ],
      "name": "maxRedeem",
      "outputs": [
        {
          "internalType": "uint256",
          "name": "",
          "type": "uint256"
        }
      ],
      "stateMutability": "view",
      "type": "function"
    },
    {
      "inputs": [
        {
          "internalType": "address",
          "name": "owner",
          "type": "address"
        }
      ],
      "name": "maxWithdraw",
      "outputs": [
        {
          "internalType": "uint256",
          "name": "",
          "type": "uint256"
        }
      ],
      "stateMutability": "view",
      "type": "function"
    },
    {
      "inputs": [
        {
          "internalType": "uint256",
          "name": "shares",
          "type": "uint256"
        },
        {
          "internalType": "address",
          "name": "receiver",
          "type": "address"
        }
      ],
      "name": "mint",
      "outputs": [
        {
          "internalType": "uint256",
          "name": "",
          "type": "uint256"
        }
      ],
      "stateMutability": "nonpayable",
      "type": "function"
    },
    {
      "inputs": [],
      "name": "name",
      "outputs": [
        {
          "internalType": "string",
          "name": "",
          "type": "string"
        }
      ],
      "stateMutability": "view",
      "type": "function"
    },
    {
      "inputs": [],
      "name": "pool",
      "outputs": [
        {
          "internalType": "address",
          "name": "",
          "type": "address"
        }
      ],
      "stateMutability": "view",
      "type": "function"
    },
    {
      "inputs": [
        {
          "internalType": "uint256",
          "name": "assets",
          "type": "uint256"
        }
      ],
      "name": "previewDeposit",
      "outputs": [
        {
          "internalType": "uint256",
          "name": "",
          "type": "uint256"
        }
      ],
      "stateMutability": "view",
      "type": "function"
    },
    {
      "inputs": [
        {
          "internalType": "uint256",
          "name": "shares",
          "type": "uint256"
        }
      ],
      "name": "previewMint",
      "outputs": [
        {
          "internalType": "uint256",
          "name": "",
          "type": "uint256"
        }
      ],
      "stateMutability": "view",
      "type": "function"
    },
    {
      "inputs": [
        {
          "internalType": "uint256",
          "name": "shares",
          "type": "uint256"
        }
      ],
      "name": "previewRedeem",
      "outputs": [
        {
          "internalType": "uint256",
          "name": "",
          "type": "uint256"
        }
      ],
      "stateMutability": "view",
      "type": "function"
    },
    {
      "inputs": [
        {
          "internalType": "uint256",
          "name": "assets",
          "type": "uint256"
        }
      ],
      "name": "previewWithdraw",
      "outputs": [
        {
          "internalType": "uint256",
          "name": "",
          "type": "uint256"
        }
      ],
      "stateMutability": "view",
      "type": "function"
    },
    {
      "inputs": [
        {
          "internalType": "uint256",
          "name": "shares",
          "type": "uint256"
        },
        {
          "internalType": "address",
          "name": "receiver",
          "type": "address"
        },
        {
          "internalType": "address",
          "name": "owner",
          "type": "address"
        }
      ],
      "name": "redeem",
      "outputs": [
        {
          "internalType": "uint256",
          "name": "",
          "type": "uint256"
        }
      ],
      "stateMutability": "nonpayable",
      "type": "function"
    },
    {
      "inputs": [],
      "name": "stake",
      "outputs": [
        {
          "internalType": "contract IStake",
          "name": "",
          "type": "address"
        }
      ],
      "stateMutability": "view",
      "type": "function"
    },
    {
      "inputs": [],
      "name": "symbol",
      "outputs": [
        {
          "internalType": "string",
          "name": "",
          "type": "string"
        }
      ],
      "stateMutability": "view",
      "type": "function"
    },
    {
      "inputs": [],
      "name": "totalAssets",
      "outputs": [
        {
          "internalType": "uint256",
          "name": "",
          "type": "uint256"
        }
      ],
      "stateMutability": "view",
      "type": "function"
    },
    {
      "inputs": [],
      "name": "totalSupply",
      "outputs": [
        {
          "internalType": "uint256",
          "name": "",
          "type": "uint256"
        }
      ],
      "stateMutability": "view",
      "type": "function"
    },
    {
      "inputs": [
        {
          "internalType": "address",
          "name": "to",
          "type": "address"
        },
        {
          "internalType": "uint256",
          "name": "amount",
          "type": "uint256"
        }
      ],
      "name": "transfer",
      "outputs": [
        {
          "internalType": "bool",
          "name": "",
          "type": "bool"
        }
      ],
      "stateMutability": "nonpayable",
      "type": "function"
    },
    {
      "inputs": [
        {
          "internalType": "address",
          "name": "from",
          "type": "address"
        },
        {
          "internalType": "address",
          "name": "to",
          "type": "address"
        },
        {
          "internalType": "uint256",
          "name": "amount",
          "type": "uint256"
        }
      ],
      "name": "transferFrom",
      "outputs": [
        {
          "internalType": "bool",
          "name": "",
          "type": "bool"
        }
      ],
      "stateMutability": "nonpayable",
      "type": "function"
    },
    {
      "inputs": [
        {
          "internalType": "uint256",
          "name": "assets",
          "type": "uint256"
        },
        {
          "internalType": "address",
          "name": "receiver",
          "type": "address"
        },
        {
          "internalType": "address",
          "name": "owner",
          "type": "address"
        }
      ],
      "name": "withdraw",
      "outputs": [
        {
          "internalType": "uint256",
          "name": "",
          "type": "uint256"
        }
      ],
      "stateMutability": "nonpayable",
      "type": "function"
    }
  ],
  "bytecode": {
    "object": "0x60e06040523480156200001157600080fd5b5060405162002b9538038062002b9583398101604081905262000034916200039b565b8484846003620000458382620004dd565b506004620000548282620004dd565b5050506000806200006b83620001bc60201b60201c565b915091508162000090576200008a620002a360201b62000b251760201c565b62000092565b805b60ff1660a05250506001600160a01b03908116608052604051630b4c774160e11b815273fc77b86f3ade71793e1eec1e7944db074922856e60048201527382af49447d8a07e3bd95bd0d56f35241523fbab1602482015262ffffff83166044820152600091841690631698ee8290606401602060405180830381865afa15801562000121573d6000803e3d6000fd5b505050506040513d601f19601f82011682018060405250810190620001479190620005a9565b90506001600160a01b038116620001a45760405162461bcd60e51b815260206004820152601360248201527f506f6f6c20646f6573206e6f7420657869737400000000000000000000000000604482015260640160405180910390fd5b6001600160a01b031660c05250620006089350505050565b60408051600481526024810182526020810180516001600160e01b031663313ce56760e01b17905290516000918291829182916001600160a01b038716916200020591620005d0565b6000604051808303816000865af19150503d806000811462000244576040519150601f19603f3d011682016040523d82523d6000602084013e62000249565b606091505b50915091508180156200025e57506020815110155b1562000296576000818060200190518101906200027c9190620005ee565b905060ff811162000294576001969095509350505050565b505b5060009485945092505050565b601290565b6001600160a01b0381168114620002be57600080fd5b50565b634e487b7160e01b600052604160045260246000fd5b60005b83811015620002f4578181015183820152602001620002da565b8381111562000304576000848401525b50505050565b600082601f8301126200031c57600080fd5b81516001600160401b0380821115620003395762000339620002c1565b604051601f8301601f19908116603f01168101908282118183101715620003645762000364620002c1565b816040528381528660208588010111156200037e57600080fd5b62000391846020830160208901620002d7565b9695505050505050565b600080600080600060a08688031215620003b457600080fd5b8551620003c181620002a8565b60208701519095506001600160401b0380821115620003df57600080fd5b620003ed89838a016200030a565b955060408801519150808211156200040457600080fd5b5062000413888289016200030a565b93505060608601516200042681620002a8565b608087015190925062ffffff811681146200044057600080fd5b809150509295509295909350565b600181811c908216806200046357607f821691505b6020821081036200048457634e487b7160e01b600052602260045260246000fd5b50919050565b601f821115620004d857600081815260208120601f850160051c81016020861015620004b35750805b601f850160051c820191505b81811015620004d457828155600101620004bf565b5050505b505050565b81516001600160401b03811115620004f957620004f9620002c1565b62000511816200050a84546200044e565b846200048a565b602080601f831160018114620005495760008415620005305750858301515b600019600386901b1c1916600185901b178555620004d4565b600085815260208120601f198616915b828110156200057a5788860151825594840194600190910190840162000559565b5085821015620005995787850151600019600388901b60f8161c191681555b5050505050600190811b01905550565b600060208284031215620005bc57600080fd5b8151620005c981620002a8565b9392505050565b60008251620005e4818460208701620002d7565b9190910192915050565b6000602082840312156200060157600080fd5b5051919050565b60805160a05160c05161253a6200065b6000396000818161027e0152610ac1015260006102da0152600081816103060152818161055501528181610ef001528181610fc20152611481015261253a6000f3fe608060405234801561001057600080fd5b50600436106101fb5760003560e01c80637d4a987e1161011a578063ba087652116100ad578063d905777e1161007c578063d905777e14610492578063dd62ed3e146104a5578063ed72ade6146104b8578063ed8602a2146104c2578063ef8b30f71461046c57600080fd5b8063ba08765214610444578063c63d75b614610457578063c6e6f5921461046c578063ce96cb771461047f57600080fd5b8063a9059cbb116100e9578063a9059cbb146103f0578063ad5c464814610403578063b3d7f6b91461041e578063b460af941461043157600080fd5b80637d4a987e146103a757806394bf804d146103c257806395d89b41146103d5578063a457c2d7146103dd57600080fd5b8063313ce56711610192578063402d267d11610161578063402d267d146103585780634cdad506146102305780636e553f651461036b57806370a082311461037e57600080fd5b8063313ce567146102d357806338d52e0f14610304578063395093511461032a5780633a4b66f11461033d57600080fd5b80630a28a477116101ce5780630a28a4771461026657806316f0115b1461027957806318160ddd146102b857806323b872dd146102c057600080fd5b806301e1d1141461020057806306fdde031461021b57806307a2d13a14610230578063095ea7b314610243575b600080fd5b6102086104ca565b6040519081526020015b60405180910390f35b6102236105d7565b6040516102129190611efd565b61020861023e366004611f30565b610669565b610256610251366004611f61565b61067c565b6040519015158152602001610212565b610208610274366004611f30565b610694565b6102a07f000000000000000000000000000000000000000000000000000000000000000081565b6040516001600160a01b039091168152602001610212565b600254610208565b6102566102ce366004611f8d565b6106a1565b60405160ff7f0000000000000000000000000000000000000000000000000000000000000000168152602001610212565b7f00000000000000000000000000000000000000000000000000000000000000006102a0565b610256610338366004611f61565b6106c7565b6102a07325b9f82d1f1549f97b86bd0873738e30f23d15ea81565b610208610366366004611fce565b6106e9565b610208610379366004611feb565b610707565b61020861038c366004611fce565b6001600160a01b031660009081526020819052604090205490565b6102a073fc77b86f3ade71793e1eec1e7944db074922856e81565b6102086103d0366004611feb565b61077f565b610223610799565b6102566103eb366004611f61565b6107a8565b6102566103fe366004611f61565b61082e565b6102a07382af49447d8a07e3bd95bd0d56f35241523fbab181565b61020861042c366004611f30565b61083c565b61020861043f36600461201b565b610849565b61020861045236600461201b565b6108c5565b610208610465366004611fce565b5060001990565b61020861047a366004611f30565b610939565b61020861048d366004611fce565b610946565b6102086104a0366004611fce565b61096a565b6102086104b336600461205d565b610988565b6104c06109b3565b005b610208610a42565b6040516370a0823160e01b81523060048201526000907325b9f82d1f1549f97b86bd0873738e30f23d15ea906370a0823190602401602060405180830381865afa15801561051c573d6000803e3d6000fd5b505050506040513d601f19601f82011682018060405250810190610540919061208b565b6040516370a0823160e01b81523060048201527f00000000000000000000000000000000000000000000000000000000000000006001600160a01b0316906370a0823190602401602060405180830381865afa1580156105a4573d6000803e3d6000fd5b505050506040513d601f19601f820116820180604052508101906105c8919061208b565b6105d291906120ba565b905090565b6060600380546105e6906120d2565b80601f0160208091040260200160405190810160405280929190818152602001828054610612906120d2565b801561065f5780601f106106345761010080835404028352916020019161065f565b820191906000526020600020905b81548152906001019060200180831161064257829003601f168201915b5050505050905090565b6000610676826000610b2a565b92915050565b60003361068a818585610b5d565b5060019392505050565b6000610676826001610c81565b6000336106af858285610cb3565b6106ba858585610d2d565b60019150505b9392505050565b60003361068a8185856106da8383610988565b6106e491906120ba565b610b5d565b60006106f3610ed1565b6106fe576000610676565b60001992915050565b6000610712826106e9565b8311156107665760405162461bcd60e51b815260206004820152601e60248201527f455243343632363a206465706f736974206d6f7265207468616e206d6178000060448201526064015b60405180910390fd5b600061077184610939565b90506106c033848684610eeb565b60008061078b8461083c565b90506106c033848387610eeb565b6060600480546105e6906120d2565b600033816107b68286610988565b9050838110156108165760405162461bcd60e51b815260206004820152602560248201527f45524332303a2064656372656173656420616c6c6f77616e63652062656c6f77604482015264207a65726f60d81b606482015260840161075d565b6108238286868403610b5d565b506001949350505050565b60003361068a818585610d2d565b6000610676826001610b2a565b600061085482610946565b8411156108a35760405162461bcd60e51b815260206004820152601f60248201527f455243343632363a207769746864726177206d6f7265207468616e206d617800604482015260640161075d565b60006108ae85610694565b90506108bd3385858885610f86565b949350505050565b60006108d08261096a565b84111561091f5760405162461bcd60e51b815260206004820152601d60248201527f455243343632363a2072656465656d206d6f7265207468616e206d6178000000604482015260640161075d565b600061092a85610669565b90506108bd3385858489610f86565b6000610676826000610c81565b6001600160a01b038116600090815260208190526040812054610676906000610b2a565b6001600160a01b038116600090815260208190526040812054610676565b6001600160a01b03918216600090815260016020908152604080832093909416825291909152205490565b60006127106109c0610a42565b6109cc906126ac61210c565b6109d69190612141565b60405163552fbf1360e11b8152600481018290529091507325b9f82d1f1549f97b86bd0873738e30f23d15ea9063aa5f7e26906024015b600060405180830381600087803b158015610a2757600080fd5b505af1158015610a3b573d6000803e3d6000fd5b5050505050565b6040516246613160e11b815230600482015260009081907325b9f82d1f1549f97b86bd0873738e30f23d15ea90628cc26290602401602060405180830381865afa158015610a94573d6000803e3d6000fd5b505050506040513d601f19601f82011682018060405250810190610ab8919061208b565b90506000610ae77f000000000000000000000000000000000000000000000000000000000000000060b461104f565b509050610b1e81837382af49447d8a07e3bd95bd0d56f35241523fbab173fc77b86f3ade71793e1eec1e7944db074922856e611299565b9250505090565b601290565b600080610b3660025490565b90508015610b5757610b52610b496104ca565b859083866113a7565b6108bd565b836108bd565b6001600160a01b038316610bbf5760405162461bcd60e51b8152602060048201526024808201527f45524332303a20617070726f76652066726f6d20746865207a65726f206164646044820152637265737360e01b606482015260840161075d565b6001600160a01b038216610c205760405162461bcd60e51b815260206004820152602260248201527f45524332303a20617070726f766520746f20746865207a65726f206164647265604482015261737360f01b606482015260840161075d565b6001600160a01b0383811660008181526001602090815260408083209487168084529482529182902085905590518481527f8c5be1e5ebec7d5bd14f71427d1e84f3dd0314c0f7b2291e5b200ac8c7c3b925910160405180910390a3505050565b600080610c8d60025490565b9050831580610c9a575080155b610b5757610b5281610caa6104ca565b869190866113a7565b6000610cbf8484610988565b90506000198114610d275781811015610d1a5760405162461bcd60e51b815260206004820152601d60248201527f45524332303a20696e73756666696369656e7420616c6c6f77616e6365000000604482015260640161075d565b610d278484848403610b5d565b50505050565b6001600160a01b038316610d915760405162461bcd60e51b815260206004820152602560248201527f45524332303a207472616e736665722066726f6d20746865207a65726f206164604482015264647265737360d81b606482015260840161075d565b6001600160a01b038216610df35760405162461bcd60e51b815260206004820152602360248201527f45524332303a207472616e7366657220746f20746865207a65726f206164647260448201526265737360e81b606482015260840161075d565b6001600160a01b03831660009081526020819052604090205481811015610e6b5760405162461bcd60e51b815260206004820152602660248201527f45524332303a207472616e7366657220616d6f756e7420657863656564732062604482015265616c616e636560d01b606482015260840161075d565b6001600160a01b03848116600081815260208181526040808320878703905593871680835291849020805487019055925185815290927fddf252ad1be2c89b69c2b068fc378daa952ba7f163c4a11628f55a4df523b3ef910160405180910390a3610d27565b600080610edc6104ca565b11806105d25750506002541590565b610f177f0000000000000000000000000000000000000000000000000000000000000000853085611409565b610f2082611474565b610f2a838261155d565b826001600160a01b0316846001600160a01b03167fdcbc1c05240f31ff3ad067ef1ee35ce4997762752e3a095284754544f4c709d78484604051610f78929190918252602082015260400190565b60405180910390a350505050565b826001600160a01b0316856001600160a01b031614610faa57610faa838683610cb3565b610fb4838261161c565b610fbd8261174e565b610fe87f00000000000000000000000000000000000000000000000000000000000000008584611786565b826001600160a01b0316846001600160a01b0316866001600160a01b03167ffbde797d201c681b91056529119e0b02407c7bb96a4a2c75c01fc9667232c8db8585604051611040929190918252602082015260400190565b60405180910390a45050505050565b6000808263ffffffff1660000361108d5760405162461bcd60e51b8152602060048201526002602482015261042560f41b604482015260640161075d565b60408051600280825260608201835260009260208301908036833701905050905083816000815181106110c2576110c261216b565b602002602001019063ffffffff16908163ffffffff16815250506000816001815181106110f1576110f161216b565b602002602001019063ffffffff16908163ffffffff1681525050600080866001600160a01b031663883bdbfd846040518263ffffffff1660e01b815260040161113a9190612181565b600060405180830381865afa158015611157573d6000803e3d6000fd5b505050506040513d6000823e601f3d908101601f1916820160405261117f9190810190612294565b915091506000826000815181106111985761119861216b565b6020026020010151836001815181106111b3576111b361216b565b60200260200101516111c59190612360565b90506000826000815181106111dc576111dc61216b565b6020026020010151836001815181106111f7576111f761216b565b602002602001015161120991906123b0565b905061121b63ffffffff8916836123d8565b965060008260060b128015611241575061123b63ffffffff891683612416565b60060b15155b15611254578661125081612438565b9750505b600061126d6001600160a01b0363ffffffff8b1661245b565b905061128a640100000000600160c01b03602084901b168261248a565b96505050505050509250929050565b6000806112a5866117b6565b90506001600160801b036001600160a01b0382161161132b5760006112d36001600160a01b0383168061210c565b9050836001600160a01b0316856001600160a01b03161061130b57611306600160c01b876001600160801b031683611ad9565b611323565b61132381876001600160801b0316600160c01b611ad9565b92505061139e565b600061134a6001600160a01b0383168068010000000000000000611ad9565b9050836001600160a01b0316856001600160a01b0316106113825761137d600160801b876001600160801b031683611ad9565b61139a565b61139a81876001600160801b0316600160801b611ad9565b9250505b50949350505050565b6000806113b5868686611b8b565b905060018360028111156113cb576113cb6124b0565b1480156113e85750600084806113e3576113e361212b565b868809115b156113fb576113f86001826120ba565b90505b95945050505050565b505050565b6040516001600160a01b0380851660248301528316604482015260648101829052610d279085906323b872dd60e01b906084015b60408051601f198184030181529190526020810180516001600160e01b03166001600160e01b031990931692909217909152611c3a565b6114bc6001600160a01b037f0000000000000000000000000000000000000000000000000000000000000000167325b9f82d1f1549f97b86bd0873738e30f23d15ea83611d0c565b60405163534a7e1d60e11b8152600481018290527325b9f82d1f1549f97b86bd0873738e30f23d15ea9063a694fc3a90602401600060405180830381600087803b15801561150957600080fd5b505af115801561151d573d6000803e3d6000fd5b505050507feebbaa86c348cb664e392b180fd0ff2e1998af9fa833ef69a778cb0b42d3ca278160405161155291815260200190565b60405180910390a150565b6001600160a01b0382166115b35760405162461bcd60e51b815260206004820152601f60248201527f45524332303a206d696e7420746f20746865207a65726f206164647265737300604482015260640161075d565b80600260008282546115c591906120ba565b90915550506001600160a01b038216600081815260208181526040808320805486019055518481527fddf252ad1be2c89b69c2b068fc378daa952ba7f163c4a11628f55a4df523b3ef910160405180910390a35050565b6001600160a01b03821661167c5760405162461bcd60e51b815260206004820152602160248201527f45524332303a206275726e2066726f6d20746865207a65726f206164647265736044820152607360f81b606482015260840161075d565b6001600160a01b038216600090815260208190526040902054818110156116f05760405162461bcd60e51b815260206004820152602260248201527f45524332303a206275726e20616d6f756e7420657863656564732062616c616e604482015261636560f01b606482015260840161075d565b6001600160a01b0383166000818152602081815260408083208686039055600280548790039055518581529192917fddf252ad1be2c89b69c2b068fc378daa952ba7f163c4a11628f55a4df523b3ef910160405180910390a3505050565b604051632e1a7d4d60e01b8152600481018290527325b9f82d1f1549f97b86bd0873738e30f23d15ea90632e1a7d4d90602401610a0d565b6040516001600160a01b03831660248201526044810182905261140490849063a9059cbb60e01b9060640161143d565b60008060008360020b126117cd578260020b6117d5565b8260020b6000035b9050620d89e88111156117fb576040516315e4079d60e11b815260040160405180910390fd5b60008160011660000361181257600160801b611824565b6ffffcb933bd6fad37aa2d162d1a5940015b70ffffffffffffffffffffffffffffffffff1690506002821615611858576ffff97272373d413259a46990580e213a0260801c5b6004821615611877576ffff2e50f5f656932ef12357cf3c7fdcc0260801c5b6008821615611896576fffe5caca7e10e4e61c3624eaa0941cd00260801c5b60108216156118b5576fffcb9843d60f6159c9db58835c9266440260801c5b60208216156118d4576fff973b41fa98c081472e6896dfb254c00260801c5b60408216156118f3576fff2ea16466c96a3843ec78b326b528610260801c5b6080821615611912576ffe5dee046a99a2a811c461f1969c30530260801c5b610100821615611932576ffcbe86c7900a88aedcffc83b479aa3a40260801c5b610200821615611952576ff987a7253ac413176f2b074cf7815e540260801c5b610400821615611972576ff3392b0822b70005940c7a398e4b70f30260801c5b610800821615611992576fe7159475a2c29b7443b29c7fa6e889d90260801c5b6110008216156119b2576fd097f3bdfd2022b8845ad8f792aa58250260801c5b6120008216156119d2576fa9f746462d870fdf8a65dc1f90e061e50260801c5b6140008216156119f2576f70d869a156d2a1b890bb3df62baf32f70260801c5b618000821615611a12576f31be135f97d08fd981231505542fcfa60260801c5b62010000821615611a33576f09aa508b5b7a84e1c677de54f3e99bc90260801c5b62020000821615611a53576e5d6af8dedb81196699c329225ee6040260801c5b62040000821615611a72576d2216e584f5fa1ea926041bedfe980260801c5b62080000821615611a8f576b048a170391f7dc42444e8fa20260801c5b60008460020b1315611ab0578060001981611aac57611aac61212b565b0490505b640100000000810615611ac4576001611ac7565b60005b60ff16602082901c0192505050919050565b6000808060001985870985870292508281108382030391505080600003611b125760008411611b0757600080fd5b5082900490506106c0565b808411611b1e57600080fd5b6000848688096000868103871696879004966002600389028118808a02820302808a02820302808a02820302808a02820302808a02820302808a02909103029181900381900460010186841190950394909402919094039290920491909117919091029150509392505050565b6000808060001985870985870292508281108382030391505080600003611bc557838281611bbb57611bbb61212b565b04925050506106c0565b808411611bd157600080fd5b60008486880960026001871981018816978890046003810283188082028403028082028403028082028403028082028403028082028403029081029092039091026000889003889004909101858311909403939093029303949094049190911702949350505050565b6000611c8f826040518060400160405280602081526020017f5361666545524332303a206c6f772d6c6576656c2063616c6c206661696c6564815250856001600160a01b0316611dbe9092919063ffffffff16565b8051909150156114045780806020019051810190611cad91906124c6565b6114045760405162461bcd60e51b815260206004820152602a60248201527f5361666545524332303a204552433230206f7065726174696f6e20646964206e6044820152691bdd081cdd58d8d9595960b21b606482015260840161075d565b604051636eb1769f60e11b81523060048201526001600160a01b038381166024830152600091839186169063dd62ed3e90604401602060405180830381865afa158015611d5d573d6000803e3d6000fd5b505050506040513d601f19601f82011682018060405250810190611d81919061208b565b611d8b91906120ba565b6040516001600160a01b038516602482015260448101829052909150610d2790859063095ea7b360e01b9060640161143d565b60606108bd848460008585600080866001600160a01b03168587604051611de591906124e8565b60006040518083038185875af1925050503d8060008114611e22576040519150601f19603f3d011682016040523d82523d6000602084013e611e27565b606091505b509150915061139a8783838760608315611ea2578251600003611e9b576001600160a01b0385163b611e9b5760405162461bcd60e51b815260206004820152601d60248201527f416464726573733a2063616c6c20746f206e6f6e2d636f6e7472616374000000604482015260640161075d565b50816108bd565b6108bd8383815115611eb75781518083602001fd5b8060405162461bcd60e51b815260040161075d9190611efd565b60005b83811015611eec578181015183820152602001611ed4565b83811115610d275750506000910152565b6020815260008251806020840152611f1c816040850160208701611ed1565b601f01601f19169190910160400192915050565b600060208284031215611f4257600080fd5b5035919050565b6001600160a01b0381168114611f5e57600080fd5b50565b60008060408385031215611f7457600080fd5b8235611f7f81611f49565b946020939093013593505050565b600080600060608486031215611fa257600080fd5b8335611fad81611f49565b92506020840135611fbd81611f49565b929592945050506040919091013590565b600060208284031215611fe057600080fd5b81356106c081611f49565b60008060408385031215611ffe57600080fd5b82359150602083013561201081611f49565b809150509250929050565b60008060006060848603121561203057600080fd5b83359250602084013561204281611f49565b9150604084013561205281611f49565b809150509250925092565b6000806040838503121561207057600080fd5b823561207b81611f49565b9150602083013561201081611f49565b60006020828403121561209d57600080fd5b5051919050565b634e487b7160e01b600052601160045260246000fd5b600082198211156120cd576120cd6120a4565b500190565b600181811c908216806120e657607f821691505b60208210810361210657634e487b7160e01b600052602260045260246000fd5b50919050565b6000816000190483118215151615612126576121266120a4565b500290565b634e487b7160e01b600052601260045260246000fd5b6000826121505761215061212b565b500490565b634e487b7160e01b600052604160045260246000fd5b634e487b7160e01b600052603260045260246000fd5b6020808252825182820181905260009190848201906040850190845b818110156121bf57835163ffffffff168352928401929184019160010161219d565b50909695505050505050565b604051601f8201601f1916810167ffffffffffffffff811182821017156121f4576121f4612155565b604052919050565b600067ffffffffffffffff82111561221657612216612155565b5060051b60200190565b600082601f83011261223157600080fd5b81516020612246612241836121fc565b6121cb565b82815260059290921b8401810191818101908684111561226557600080fd5b8286015b8481101561228957805161227c81611f49565b8352918301918301612269565b509695505050505050565b600080604083850312156122a757600080fd5b825167ffffffffffffffff808211156122bf57600080fd5b818501915085601f8301126122d357600080fd5b815160206122e3612241836121fc565b82815260059290921b8401810191818101908984111561230257600080fd5b948201945b838610156123305785518060060b81146123215760008081fd5b82529482019490820190612307565b9188015191965090935050508082111561234957600080fd5b5061235685828601612220565b9150509250929050565b60008160060b8360060b6000811281667fffffffffffff190183128115161561238b5761238b6120a4565b81667fffffffffffff0183138116156123a6576123a66120a4565b5090039392505050565b60006001600160a01b03838116908316818110156123d0576123d06120a4565b039392505050565b60008160060b8360060b806123ef576123ef61212b565b667fffffffffffff1982146000198214161561240d5761240d6120a4565b90059392505050565b60008260060b806124295761242961212b565b808360060b0791505092915050565b60008160020b627fffff198103612451576124516120a4565b6000190192915050565b60006001600160c01b0382811684821681151582840482111615612481576124816120a4565b02949350505050565b60006001600160c01b03838116806124a4576124a461212b565b92169190910492915050565b634e487b7160e01b600052602160045260246000fd5b6000602082840312156124d857600080fd5b815180151581146106c057600080fd5b600082516124fa818460208701611ed1565b919091019291505056fea2646970667358221220d06acbfdeae57429f631531f70e6530a16957458a062ce1757f3fd760f4425d164736f6c634300080f0033",
    "linkReferences": {}
  },
  "methodIdentifiers": {
    "MGN()": "7d4a987e",
    "WETH()": "ad5c4648",
    "allowance(address,address)": "dd62ed3e",
    "approve(address,uint256)": "095ea7b3",
    "asset()": "38d52e0f",
    "balanceOf(address)": "70a08231",
    "compoundMGN()": "ed72ade6",
    "convertToAssets(uint256)": "07a2d13a",
    "convertToShares(uint256)": "c6e6f592",
    "decimals()": "313ce567",
    "decreaseAllowance(address,uint256)": "a457c2d7",
    "deposit(uint256,address)": "6e553f65",
    "estimateAmoutOut()": "ed8602a2",
    "increaseAllowance(address,uint256)": "39509351",
    "maxDeposit(address)": "402d267d",
    "maxMint(address)": "c63d75b6",
    "maxRedeem(address)": "d905777e",
    "maxWithdraw(address)": "ce96cb77",
    "mint(uint256,address)": "94bf804d",
    "name()": "06fdde03",
    "pool()": "16f0115b",
    "previewDeposit(uint256)": "ef8b30f7",
    "previewMint(uint256)": "b3d7f6b9",
    "previewRedeem(uint256)": "4cdad506",
    "previewWithdraw(uint256)": "0a28a477",
    "redeem(uint256,address,address)": "ba087652",
    "stake()": "3a4b66f1",
    "symbol()": "95d89b41",
    "totalAssets()": "01e1d114",
    "totalSupply()": "18160ddd",
    "transfer(address,uint256)": "a9059cbb",
    "transferFrom(address,address,uint256)": "23b872dd",
    "withdraw(uint256,address,address)": "b460af94"
  },
  "id": 55
}