{
  "abi": [
    {
      "inputs": [
        {
          "internalType": "address",
          "name": "_weth",
          "type": "address"
        },
        {
          "internalType": "contract ISwapRouter",
          "name": "_swapRouter",
          "type": "address"
        },
        {
          "internalType": "address",
          "name": "_feeCollector",
          "type": "address"
        },
        {
          "internalType": "address",
          "name": "_factory",
          "type": "address"
        },
        {
          "internalType": "bytes32",
          "name": "_pairCodeHash",
          "type": "bytes32"
        },
        {
          "internalType": "address",
          "name": "_xcalFactory",
          "type": "address"
        },
        {
          "internalType": "contract IStargateRouter",
          "name": "_stargateRouter",
          "type": "address"
        }
      ],
      "stateMutability": "nonpayable",
      "type": "constructor"
    },
    {
      "inputs": [],
      "name": "MoreThanZero",
      "type": "error"
    },
    {
      "inputs": [],
      "name": "MustBeGt0",
      "type": "error"
    },
    {
      "inputs": [],
      "name": "NotStgRouter",
      "type": "error"
    },
    {
      "inputs": [],
      "name": "WithdrawFailed",
      "type": "error"
    },
    {
      "anonymous": false,
      "inputs": [
        {
          "indexed": false,
          "internalType": "address",
          "name": "_token",
          "type": "address"
        },
        {
          "indexed": false,
          "internalType": "uint256",
          "name": "_fee",
          "type": "uint256"
        }
      ],
      "name": "FeePaid",
      "type": "event"
    },
    {
      "anonymous": false,
      "inputs": [
        {
          "indexed": true,
          "internalType": "address",
          "name": "token",
          "type": "address"
        },
        {
          "indexed": false,
          "internalType": "uint256",
          "name": "amountLD",
          "type": "uint256"
        },
        {
          "indexed": false,
          "internalType": "bool",
          "name": "failed",
          "type": "bool"
        },
        {
          "indexed": false,
          "internalType": "bool",
          "name": "dustSent",
          "type": "bool"
        }
      ],
      "name": "ReceivedOnDestination",
      "type": "event"
    },
    {
      "inputs": [
        {
          "internalType": "uint8[]",
          "name": "steps",
          "type": "uint8[]"
        },
        {
          "internalType": "bytes[]",
          "name": "data",
          "type": "bytes[]"
        }
      ],
      "name": "arbitrumSwaps",
      "outputs": [],
      "stateMutability": "payable",
      "type": "function"
    },
    {
      "inputs": [],
      "name": "factory",
      "outputs": [
        {
          "internalType": "address",
          "name": "",
          "type": "address"
        }
      ],
      "stateMutability": "view",
      "type": "function"
    },
    {
      "inputs": [],
      "name": "feeCollector",
      "outputs": [
        {
          "internalType": "address",
          "name": "",
          "type": "address"
        }
      ],
      "stateMutability": "view",
      "type": "function"
    },
    {
      "inputs": [
        {
          "internalType": "uint256",
          "name": "amountIn",
          "type": "uint256"
        },
        {
          "internalType": "address",
          "name": "tokenIn",
          "type": "address"
        },
        {
          "internalType": "address",
          "name": "tokenOut",
          "type": "address"
        }
      ],
      "name": "getAmountOut",
      "outputs": [
        {
          "internalType": "uint256",
          "name": "amount",
          "type": "uint256"
        },
        {
          "internalType": "bool",
          "name": "stable",
          "type": "bool"
        }
      ],
      "stateMutability": "view",
      "type": "function"
    },
    {
      "inputs": [
        {
          "internalType": "uint256",
          "name": "amountIn",
          "type": "uint256"
        },
        {
          "components": [
            {
              "internalType": "address",
              "name": "from",
              "type": "address"
            },
            {
              "internalType": "address",
              "name": "to",
              "type": "address"
            },
            {
              "internalType": "bool",
              "name": "stable",
              "type": "bool"
            }
          ],
          "internalType": "struct XCaliburAdapter.route[]",
          "name": "routes",
          "type": "tuple[]"
        }
      ],
      "name": "getAmountsOut",
      "outputs": [
        {
          "internalType": "uint256[]",
          "name": "amounts",
          "type": "uint256[]"
        }
      ],
      "stateMutability": "view",
      "type": "function"
    },
    {
      "inputs": [
        {
          "internalType": "address",
          "name": "pair",
          "type": "address"
        }
      ],
      "name": "isPair",
      "outputs": [
        {
          "internalType": "bool",
          "name": "",
          "type": "bool"
        }
      ],
      "stateMutability": "view",
      "type": "function"
    },
    {
      "inputs": [],
      "name": "pairCodeHash",
      "outputs": [
        {
          "internalType": "bytes32",
          "name": "",
          "type": "bytes32"
        }
      ],
      "stateMutability": "view",
      "type": "function"
    },
    {
      "inputs": [
        {
          "internalType": "address",
          "name": "tokenA",
          "type": "address"
        },
        {
          "internalType": "address",
          "name": "tokenB",
          "type": "address"
        },
        {
          "internalType": "bool",
          "name": "stable",
          "type": "bool"
        }
      ],
      "name": "pairFor",
      "outputs": [
        {
          "internalType": "address",
          "name": "pair",
          "type": "address"
        }
      ],
      "stateMutability": "view",
      "type": "function"
    },
    {
      "inputs": [
        {
          "internalType": "uint16",
          "name": "",
          "type": "uint16"
        },
        {
          "internalType": "bytes",
          "name": "",
          "type": "bytes"
        },
        {
          "internalType": "uint256",
          "name": "",
          "type": "uint256"
        },
        {
          "internalType": "address",
          "name": "_token",
          "type": "address"
        },
        {
          "internalType": "uint256",
          "name": "amountLD",
          "type": "uint256"
        },
        {
          "internalType": "bytes",
          "name": "_payload",
          "type": "bytes"
        }
      ],
      "name": "sgReceive",
      "outputs": [],
      "stateMutability": "nonpayable",
      "type": "function"
    },
    {
      "inputs": [
        {
          "internalType": "address",
          "name": "tokenA",
          "type": "address"
        },
        {
          "internalType": "address",
          "name": "tokenB",
          "type": "address"
        }
      ],
      "name": "sortTokens",
      "outputs": [
        {
          "internalType": "address",
          "name": "token0",
          "type": "address"
        },
        {
          "internalType": "address",
          "name": "token1",
          "type": "address"
        }
      ],
      "stateMutability": "pure",
      "type": "function"
    },
    {
      "inputs": [],
      "name": "stargateRouter",
      "outputs": [
        {
          "internalType": "contract IStargateRouter",
          "name": "",
          "type": "address"
        }
      ],
      "stateMutability": "view",
      "type": "function"
    },
    {
      "inputs": [],
      "name": "swapRouter",
      "outputs": [
        {
          "internalType": "contract ISwapRouter",
          "name": "",
          "type": "address"
        }
      ],
      "stateMutability": "view",
      "type": "function"
    },
    {
      "inputs": [],
      "name": "xcalFactory",
      "outputs": [
        {
          "internalType": "address",
          "name": "",
          "type": "address"
        }
      ],
      "stateMutability": "view",
      "type": "function"
    },
    {
      "inputs": [],
      "name": "xcalWeth",
      "outputs": [
        {
          "internalType": "contract IWETH",
          "name": "",
          "type": "address"
        }
      ],
      "stateMutability": "view",
      "type": "function"
    },
    {
      "stateMutability": "payable",
      "type": "receive"
    }
  ],
  "bytecode": {
    "object": "0x6101406040526002805460ff60a01b1916600160a01b1790553480156200002557600080fd5b5060405162004574380380620045748339810160408190526200004891620001c3565b6001600160a01b03868116608052600080546001600160a01b03191686831617905560018490558190839089908216158015906200008e57506001600160a01b03811615155b620000f45760405162461bcd60e51b815260206004820152602c60248201527f526f757465723a207a65726f20616464726573732070726f766964656420696e60448201526b1031b7b739ba393ab1ba37b960a11b606482015260840160405180910390fd5b6001600160a01b03821660a081905260408051631355724960e31b81529051639aab9248916004808201926020929091908290030181865afa1580156200013f573d6000803e3d6000fd5b505050506040513d601f19601f8201168201806040525081019062000165919062000262565b60e0526001600160a01b0390811660c0529182166101005250968716610120525050600280546001600160a01b0319169390951692909217909355506200027c915050565b6001600160a01b0381168114620001c057600080fd5b50565b600080600080600080600060e0888a031215620001df57600080fd5b8751620001ec81620001aa565b6020890151909750620001ff81620001aa565b60408901519096506200021281620001aa565b60608901519095506200022581620001aa565b608089015160a08a015191955093506200023f81620001aa565b60c08901519092506200025281620001aa565b8091505092959891949750929550565b6000602082840312156200027557600080fd5b5051919050565b60805160a05160c05160e05161010051610120516142476200032d6000396000818161071901528181610af50152610b8801526000818161027f015281816113d201528181611e8d0152611eb4015260006103e2015260006101fa01526000818160ff015281816103a701528181610ee901528181610ffd0152818161125b01526115b60152600081816102d3015281816116bb015281816117f10152818161188a015261197501526142476000f3fe6080604052600436106100e15760003560e01c80639aab92481161007f578063c31c9c0711610059578063c31c9c07146102c1578063c415b95c146102f5578063c45a015514610315578063e5e31b131461033557600080fd5b80639aab924814610249578063a9e56f3c1461026d578063ab8236f3146102a157600080fd5b80635b676ff3116100bb5780635b676ff31461019e5780635e1e6325146101b3578063750a1d48146101e85780639881fcb41461021c57600080fd5b80634588b7c5146100ed5780634c1ee03e1461013e578063544caa561461015e57600080fd5b366100e857005b600080fd5b3480156100f957600080fd5b506101217f000000000000000000000000000000000000000000000000000000000000000081565b6040516001600160a01b0390911681526020015b60405180910390f35b34801561014a57600080fd5b50610121610159366004612ee0565b610365565b34801561016a57600080fd5b5061017e610179366004612f2b565b610435565b604080516001600160a01b03938416815292909116602083015201610135565b6101b16101ac366004612fa8565b61052d565b005b3480156101bf57600080fd5b506101d36101ce366004613013565b610eb1565b60408051928352901515602083015201610135565b3480156101f457600080fd5b506101217f000000000000000000000000000000000000000000000000000000000000000081565b34801561022857600080fd5b5061023c610237366004613218565b611105565b604051610135919061325e565b34801561025557600080fd5b5061025f60015481565b604051908152602001610135565b34801561027957600080fd5b506101217f000000000000000000000000000000000000000000000000000000000000000081565b3480156102ad57600080fd5b506101b16102bc36600461332c565b6113c7565b3480156102cd57600080fd5b506101217f000000000000000000000000000000000000000000000000000000000000000081565b34801561030157600080fd5b50600254610121906001600160a01b031681565b34801561032157600080fd5b50600054610121906001600160a01b031681565b34801561034157600080fd5b506103556103503660046133c6565b611594565b6040519015158152602001610135565b60008060006103748686610435565b6040516001600160601b0319606084811b8216602084015283901b16603482015286151560f81b604882015291935091507f000000000000000000000000000000000000000000000000000000000000000090604901604051602081830303815290604052805190602001207f0000000000000000000000000000000000000000000000000000000000000000604051602001610413939291906133e3565b60408051601f1981840301815291905280516020909101209695505050505050565b600080826001600160a01b0316846001600160a01b0316036104a85760405162461bcd60e51b815260206004820152602160248201527f426173655631526f757465723a204944454e544943414c5f41444452455353456044820152605360f81b60648201526084015b60405180910390fd5b826001600160a01b0316846001600160a01b0316106104c85782846104cb565b83835b90925090506001600160a01b0382166105265760405162461bcd60e51b815260206004820152601a60248201527f426173655631526f757465723a205a45524f5f41444452455353000000000000604482015260640161049f565b9250929050565b600254600160a01b900460ff166001146105765760405162461bcd60e51b815260206004820152600a6024820152695245454e5452414e435960b01b604482015260640161049f565b6002805460ff60a01b1916600160a11b17905560005b83811015610e975760008585838181106105a8576105a8613416565b90506020020160208101906105bd919061343b565b905060001960ff8216016106b5576000808585858181106105e0576105e0613416565b90506020028101906105f29190613458565b8101906105ff919061350d565b9150915060005b82518110156106ad57600082828151811061062357610623613416565b6020026020010151116106495760405163fe4155c760e01b815260040160405180910390fd5b61069b333084848151811061066057610660613416565b602002602001015186858151811061067a5761067a613416565b60200260200101516001600160a01b0316611629909392919063ffffffff16565b806106a5816135dd565b915050610606565b505050610e84565b60011960ff8216016107915760008484848181106106d5576106d5613416565b90506020028101906106e79190613458565b8101906106f491906135f6565b9050600081116107175760405163fe4155c760e01b815260040160405180910390fd5b7f00000000000000000000000000000000000000000000000000000000000000006001600160a01b031663d0e30db0826040518263ffffffff1660e01b81526004016000604051808303818588803b15801561077257600080fd5b505af1158015610786573d6000803e3d6000fd5b505050505050610e84565b60021960ff8216016108215760008484848181106107b1576107b1613416565b90506020028101906107c39190613458565b8101906107d09190613622565b905060005b815181101561081a5760008282815181106107f2576107f2613416565b602002602001015190506108058161169a565b50508080610812906135dd565b9150506107d5565b5050610e84565b60031960ff8216016108a357600084848481811061084157610841613416565b90506020028101906108539190613458565b810190610860919061370c565b905060005b815181101561081a5761089082828151811061088357610883613416565b6020026020010151611869565b508061089b816135dd565b915050610865565b60041960ff8216016109255760008484848181106108c3576108c3613416565b90506020028101906108d59190613458565b8101906108e2919061380e565b905060005b815181101561081a5761091282828151811061090557610905613416565b60200260200101516119bf565b508061091d816135dd565b9150506108e7565b60051960ff821601610a9457600084848481811061094557610945613416565b90506020028101906109579190613458565b810190610964919061391b565b905060005b815181101561081a5781818151811061098457610984613416565b6020026020010151604001516000815181106109a2576109a2613416565b6020026020010151600001516001600160a01b031663095ea7b3738e72bf5a45f800e182362bdf906dfb13d5d5cb5d8484815181106109e3576109e3613416565b6020908102919091010151516040516001600160e01b031960e085901b1681526001600160a01b03909216600483015260248201526044016020604051808303816000875af1158015610a3a573d6000803e3d6000fd5b505050506040513d601f19601f82011682018060405250810190610a5e9190613a15565b50610a81828281518110610a7457610a74613416565b6020026020010151611b9f565b5080610a8c816135dd565b915050610969565b60061960ff821601610c6057600080858585818110610ab557610ab5613416565b9050602002810190610ac79190613458565b810190610ad49190613a32565b9150915080600003610b6d576040516370a0823160e01b81523060048201527f00000000000000000000000000000000000000000000000000000000000000006001600160a01b0316906370a0823190602401602060405180830381865afa158015610b44573d6000803e3d6000fd5b505050506040513d601f19601f82011682018060405250810190610b689190613a5e565b610b6f565b805b604051632e1a7d4d60e01b8152600481018290529091507f00000000000000000000000000000000000000000000000000000000000000006001600160a01b031690632e1a7d4d90602401600060405180830381600087803b158015610bd457600080fd5b505af1158015610be8573d6000803e3d6000fd5b505050506000826001600160a01b03168260405160006040518083038185875af1925050503d8060008114610c39576040519150601f19603f3d011682016040523d82523d6000602084013e610c3e565b606091505b50509050806106ad57604051631d42c86760e21b815260040160405180910390fd5b60071960ff821601610e2d576000848484818110610c8057610c80613416565b9050602002810190610c929190613458565b810190610c9f9190613a77565b905060005b815181101561081a576000828281518110610cc157610cc1613416565b60200260200101516000015190506000838381518110610ce357610ce3613416565b602002602001015160400151905080600003610d66576040516370a0823160e01b81523060048201526001600160a01b038316906370a0823190602401602060405180830381865afa158015610d3d573d6000803e3d6000fd5b505050506040513d601f19601f82011682018060405250810190610d619190613a5e565b610d68565b805b90506000848481518110610d7e57610d7e613416565b60200260200101516020015190506000610d9783611d42565b9050610da38184613b3a565b600254909350610dc0906001600160a01b03868116911683611d67565b610dd46001600160a01b0385168385611d67565b604080516001600160a01b0386168152602081018390527f075a2720282fdf622141dae0b048ef90a21a7e57c134c76912d19d006b3b3f6f910160405180910390a1505050508080610e25906135dd565b915050610ca4565b60081960ff821601610e84576000806000868686818110610e5057610e50613416565b9050602002810190610e629190613458565b810190610e6f9190613c30565b925092509250610e80838383611d9c565b5050505b5080610e8f816135dd565b91505061058c565b50506002805460ff60a01b1916600160a01b179055505050565b6000806000610ec285856001610365565b60405163e5e31b1360e01b81526001600160a01b03828116600483015291925060009182917f00000000000000000000000000000000000000000000000000000000000000009091169063e5e31b1390602401602060405180830381865afa158015610f32573d6000803e3d6000fd5b505050506040513d601f19601f82011682018060405250810190610f569190613a15565b15610fcf576040516378a051ad60e11b8152600481018990526001600160a01b03888116602483015284169063f140a35a90604401602060405180830381865afa158015610fa8573d6000803e3d6000fd5b505050506040513d601f19601f82011682018060405250810190610fcc9190613a5e565b91505b610fdb87876000610365565b60405163e5e31b1360e01b81526001600160a01b0380831660048301529194507f00000000000000000000000000000000000000000000000000000000000000009091169063e5e31b1390602401602060405180830381865afa158015611046573d6000803e3d6000fd5b505050506040513d601f19601f8201168201806040525081019061106a9190613a15565b156110e3576040516378a051ad60e11b8152600481018990526001600160a01b03888116602483015284169063f140a35a90604401602060405180830381865afa1580156110bc573d6000803e3d6000fd5b505050506040513d601f19601f820116820180604052508101906110e09190613a5e565b90505b8082116110f2578060006110f6565b8160015b94509450505050935093915050565b60606001825110156111595760405162461bcd60e51b815260206004820152601a60248201527f426173655631526f757465723a20494e56414c49445f50415448000000000000604482015260640161049f565b8151611166906001613d3d565b6001600160401b0381111561117d5761117d61304a565b6040519080825280602002602001820160405280156111a6578160200160208202803683370190505b50905082816000815181106111bd576111bd613416565b60200260200101818152505060005b82518110156113c05760006112398483815181106111ec576111ec613416565b60200260200101516000015185848151811061120a5761120a613416565b60200260200101516020015186858151811061122857611228613416565b602002602001015160400151610365565b60405163e5e31b1360e01b81526001600160a01b0380831660048301529192507f00000000000000000000000000000000000000000000000000000000000000009091169063e5e31b1390602401602060405180830381865afa1580156112a4573d6000803e3d6000fd5b505050506040513d601f19601f820116820180604052508101906112c89190613a15565b156113ad57806001600160a01b031663f140a35a8484815181106112ee576112ee613416565b602002602001015186858151811061130857611308613416565b6020026020010151600001516040518363ffffffff1660e01b81526004016113439291909182526001600160a01b0316602082015260400190565b602060405180830381865afa158015611360573d6000803e3d6000fd5b505050506040513d601f19601f820116820180604052508101906113849190613a5e565b83611390846001613d3d565b815181106113a0576113a0613416565b6020026020010181815250505b50806113b8816135dd565b9150506111cc565b5092915050565b336001600160a01b037f0000000000000000000000000000000000000000000000000000000000000000161461141057604051638afe477f60e01b815260040160405180910390fd5b6000806000838060200190518101906114299190613e2f565b9250925092506000306001600160a01b0316635b676ff362030d4085856040518463ffffffff1660e01b8152600401611463929190613fbc565b600060405180830381600088803b15801561147d57600080fd5b5087f19350505050801561148f575060015b6114dd573d8080156114bd576040519150601f19603f3d011682016040523d82523d6000602084013e6114c2565b606091505b506114d76001600160a01b0389168689611d67565b60019150505b60004715611539576040516001600160a01b038616904790600081818185875af1925050503d806000811461152e576040519150601f19603f3d011682016040523d82523d6000602084013e611533565b606091505b50909150505b6040805188815283151560208201528215158183015290516001600160a01b038a16917f7f345d6da48bd1339fd428ff45265a0f01258b14ca09dcf8db0c469f4f732fd3919081900360600190a25050505050505050505050565b60405163e5e31b1360e01b81526001600160a01b0382811660048301526000917f00000000000000000000000000000000000000000000000000000000000000009091169063e5e31b1390602401602060405180830381865afa1580156115ff573d6000803e3d6000fd5b505050506040513d601f19601f820116820180604052508101906116239190613a15565b92915050565b6040516001600160a01b03808516602483015283166044820152606481018290526116949085906323b872dd60e01b906084015b60408051601f198184030181529190526020810180516001600160e01b03166001600160e01b031990931692909217909152611fea565b50505050565b60408181015190516370a0823160e01b8152306004820152600091611736917f0000000000000000000000000000000000000000000000000000000000000000906001600160a01b038316906370a08231906024015b602060405180830381865afa15801561170d573d6000803e3d6000fd5b505050506040513d601f19601f820116820180604052508101906117319190613a5e565b6120bc565b6040805161010081018252838201516001600160a01b0390811682526060808601518216602080850191825260808089015162ffffff90811687890190815230958801958652429288019283528a5160a08901908152938b015160c08901908152600060e08a01908152995163414bf38960e01b8152895189166004820152955188166024870152905190911660448501529351851660648401525160848301525160a4820152905160c48201529251811660e484015290917f00000000000000000000000000000000000000000000000000000000000000009091169063414bf38990610104015b6020604051808303816000875af115801561183e573d6000803e3d6000fd5b505050506040513d601f19601f820116820180604052508101906118629190613a5e565b9392505050565b60408181015190516370a0823160e01b81523060048201526000916118c3917f0000000000000000000000000000000000000000000000000000000000000000906001600160a01b038316906370a08231906024016116f0565b6040805160a08082018352918401519184015160608086015160c08088015160808901516001600160601b031997851b8816928701929092526001600160e81b031960e895861b811660d488015292841b871660d787015290931b1660eb8401521b90911660ee8201526000908061010281016040516020818303038152906040528152602001306001600160a01b0316815260200142815260200184600001518152602001846020015181525090507f00000000000000000000000000000000000000000000000000000000000000006001600160a01b031663c04b8d59826040518263ffffffff1660e01b815260040161181f9190613fea565b600080548251604084015160015484936119e6936001600160a01b039091169290916121bc565b905080600182516119f79190613b3a565b81518110611a0757611a07613416565b602002602001015191508260200151821015611a655760405162461bcd60e51b815260206004820152601760248201527f696e73756666696369656e742d616d6f756e742d6f7574000000000000000000604482015260640161049f565b826060015115611b8a576000805460408501518051611b8a93611ac8936001600160a01b03169291611a9957611a99613416565b60200260200101518660400151600181518110611ab857611ab8613416565b6020026020010151600154612348565b8460400151600081518110611adf57611adf613416565b60209081029190910101516040516370a0823160e01b81523060048201526001600160a01b03909116906370a0823190602401602060405180830381865afa158015611b2f573d6000803e3d6000fd5b505050506040513d601f19601f82011682018060405250810190611b539190613a5e565b8560400151600081518110611b6a57611b6a613416565b60200260200101516001600160a01b0316611d679092919063ffffffff16565b611b99818460400151306123ce565b50919050565b6060816060015142811015611bee5760405162461bcd60e51b815260206004820152601560248201527410985cd9558c549bdd5d195c8e8811561412549151605a1b604482015260640161049f565b611c0083600001518460400151611105565b915082602001518260018451611c169190613b3a565b81518110611c2657611c26613416565b60200260200101511015611c8d5760405162461bcd60e51b815260206004820152602860248201527f426173655631526f757465723a20494e53554646494349454e545f4f555450556044820152671517d05353d5539560c21b606482015260840161049f565b611d338360400151600081518110611ca757611ca7613416565b602002602001015160000151611d138560400151600081518110611ccd57611ccd613416565b6020026020010151600001518660400151600081518110611cf057611cf0613416565b602002602001015160200151876040015160008151811061122857611228613416565b84600081518110611d2657611d26613416565b60200260200101516125a5565b611b998284604001513061268d565b6000612710611d538361270b614042565b611d5d9190614059565b6116239083613b3a565b6040516001600160a01b038316602482015260448101829052611d9790849063a9059cbb60e01b9060640161165d565b505050565b60003411611dbd5760405163c9935ff960e01b815260040160405180910390fd5b60008361010001518383604051602001611dd99392919061407b565b60405160208183030381529060405290508360800151600003611e695760208401516040516370a0823160e01b81523060048201526001600160a01b03909116906370a0823190602401602060405180830381865afa158015611e40573d6000803e3d6000fd5b505050506040513d601f19601f82011682018060405250810190611e649190613a5e565b611e6f565b83608001515b608085018190526020850151611eb2916001600160a01b03909116907f0000000000000000000000000000000000000000000000000000000000000000906128dc565b7f00000000000000000000000000000000000000000000000000000000000000006001600160a01b0316639fbf10fc47866000015187604001518860600151308a608001518b60a0015160405180606001604052808e610120015181526020018e60c0015181526020018e60e00151604051602001611f44919060609190911b6001600160601b031916815260140190565b6040516020818303038152906040528152508d60e00151604051602001611f7e919060609190911b6001600160601b031916815260140190565b6040516020818303038152906040528b6040518b63ffffffff1660e01b8152600401611fb2999897969594939291906140bb565b6000604051808303818588803b158015611fcb57600080fd5b505af1158015611fdf573d6000803e3d6000fd5b505050505050505050565b600061203f826040518060400160405280602081526020017f5361666545524332303a206c6f772d6c6576656c2063616c6c206661696c6564815250856001600160a01b031661298e9092919063ffffffff16565b805190915015611d97578080602001905181019061205d9190613a15565b611d975760405162461bcd60e51b815260206004820152602a60248201527f5361666545524332303a204552433230206f7065726174696f6e20646964206e6044820152691bdd081cdd58d8d9595960b21b606482015260840161049f565b604080516001600160a01b038481166024830152604480830185905283518084039091018152606490920183526020820180516001600160e01b031663095ea7b360e01b17905291516000928392908716916121189190614159565b6000604051808303816000865af19150503d8060008114612155576040519150601f19603f3d011682016040523d82523d6000602084013e61215a565b606091505b50915091508180156121845750805115806121845750808060200190518101906121849190613a15565b6121b55760405162461bcd60e51b8152602060048201526002602482015261534160f01b604482015260640161049f565b5050505050565b60606002835110156122105760405162461bcd60e51b815260206004820152601e60248201527f556e697377617056324c6962726172793a20494e56414c49445f504154480000604482015260640161049f565b82516001600160401b038111156122295761222961304a565b604051908082528060200260200182016040528015612252578160200160208202803683370190505b509050838160008151811061226957612269613416565b60200260200101818152505060005b600184516122869190613b3a565b81101561233f576000806122da888785815181106122a6576122a6613416565b6020026020010151888660016122bc9190613d3d565b815181106122cc576122cc613416565b6020026020010151886129a5565b915091506123028484815181106122f3576122f3613416565b60200260200101518383612a71565b8461230e856001613d3d565b8151811061231e5761231e613416565b60200260200101818152505050508080612337906135dd565b915050612278565b50949350505050565b60008060006123578686612b90565b6040516001600160601b0319606084811b8216602084015283901b1660348201529193509150879060480160405160208183030381529060405280519060200120856040516020016123ab939291906133e3565b60408051601f198184030181529190528051602090910120979650505050505050565b60005b600183516123df9190613b3a565b811015611694576000808483815181106123fb576123fb613416565b6020026020010151858460016124119190613d3d565b8151811061242157612421613416565b60200260200101519150915060006124398383612b90565b50905060008761244a866001613d3d565b8151811061245a5761245a613416565b60200260200101519050600080836001600160a01b0316866001600160a01b0316146124885782600061248c565b6000835b91509150600060028a516124a09190613b3a565b88106124ac57886124d9565b6000546124d9906001600160a01b0316878c6124c98c6002613d3d565b81518110611ab857611ab8613416565b90506124fc60008054906101000a90046001600160a01b03168888600154612348565b6001600160a01b031663022c0d9f84848460006040519080825280601f01601f191660200182016040528015612539576020820181803683370190505b506040518563ffffffff1660e01b81526004016125599493929190614175565b600060405180830381600087803b15801561257357600080fd5b505af1158015612587573d6000803e3d6000fd5b5050505050505050505050808061259d906135dd565b9150506123d1565b6000836001600160a01b03163b116125bc57600080fd5b604080516001600160a01b038481166024830152604480830185905283518084039091018152606490920183526020820180516001600160e01b031663a9059cbb60e01b17905291516000928392908716916126189190614159565b6000604051808303816000865af19150503d8060008114612655576040519150601f19603f3d011682016040523d82523d6000602084013e61265a565b606091505b50915091508180156126845750805115806126845750808060200190518101906126849190613a15565b6121b557600080fd5b60005b82518110156116945760006126df8483815181106126b0576126b0613416565b6020026020010151600001518584815181106126ce576126ce613416565b602002602001015160200151610435565b5090506000856126f0846001613d3d565b8151811061270057612700613416565b60200260200101519050600080836001600160a01b031687868151811061272957612729613416565b6020026020010151600001516001600160a01b03161461274b5782600061274f565b6000835b915091506000600188516127639190613b3a565b861061276f57866127e2565b6127e28861277e886001613d3d565b8151811061278e5761278e613416565b602002602001015160000151898860016127a89190613d3d565b815181106127b8576127b8613416565b6020026020010151602001518a8960016127d29190613d3d565b8151811061122857611228613416565b90506128358887815181106127f9576127f9613416565b60200260200101516000015189888151811061281757612817613416565b6020026020010151602001518a898151811061122857611228613416565b6001600160a01b031663022c0d9f84848460006040519080825280601f01601f191660200182016040528015612872576020820181803683370190505b506040518563ffffffff1660e01b81526004016128929493929190614175565b600060405180830381600087803b1580156128ac57600080fd5b505af11580156128c0573d6000803e3d6000fd5b50505050505050505080806128d4906135dd565b915050612690565b604051636eb1769f60e11b81523060048201526001600160a01b038381166024830152600091839186169063dd62ed3e90604401602060405180830381865afa15801561292d573d6000803e3d6000fd5b505050506040513d601f19601f820116820180604052508101906129519190613a5e565b61295b9190613d3d565b6040516001600160a01b03851660248201526044810182905290915061169490859063095ea7b360e01b9060640161165d565b606061299d8484600085612c80565b949350505050565b60008060006129b48686612b90565b5090506000806129c689898989612348565b6001600160a01b0316630902f1ac6040518163ffffffff1660e01b8152600401606060405180830381865afa158015612a03573d6000803e3d6000fd5b505050506040513d601f19601f82011682018060405250810190612a2791906141b9565b506001600160701b031691506001600160701b03169150826001600160a01b0316886001600160a01b031614612a5e578082612a61565b81815b909a909950975050505050505050565b6000808411612ad65760405162461bcd60e51b815260206004820152602b60248201527f556e697377617056324c6962726172793a20494e53554646494349454e545f4960448201526a1394155517d05353d5539560aa1b606482015260840161049f565b600083118015612ae65750600082115b612b435760405162461bcd60e51b815260206004820152602860248201527f556e697377617056324c6962726172793a20494e53554646494349454e545f4c604482015267495155494449545960c01b606482015260840161049f565b6000612b51856103e5612d50565b90506000612b5f8285612d50565b90506000612b7983612b73886103e8612d50565b90612db7565b9050612b858183614059565b979650505050505050565b600080826001600160a01b0316846001600160a01b031603612c025760405162461bcd60e51b815260206004820152602560248201527f556e697377617056324c6962726172793a204944454e544943414c5f41444452604482015264455353455360d81b606482015260840161049f565b826001600160a01b0316846001600160a01b031610612c22578284612c25565b83835b90925090506001600160a01b0382166105265760405162461bcd60e51b815260206004820152601e60248201527f556e697377617056324c6962726172793a205a45524f5f414444524553530000604482015260640161049f565b606082471015612ce15760405162461bcd60e51b815260206004820152602660248201527f416464726573733a20696e73756666696369656e742062616c616e636520666f6044820152651c8818d85b1b60d21b606482015260840161049f565b600080866001600160a01b03168587604051612cfd9190614159565b60006040518083038185875af1925050503d8060008114612d3a576040519150601f19603f3d011682016040523d82523d6000602084013e612d3f565b606091505b5091509150612b8587838387612e0c565b6000811580612d7457508282612d668183614042565b9250612d729083614059565b145b6116235760405162461bcd60e51b815260206004820152601460248201527364732d6d6174682d6d756c2d6f766572666c6f7760601b604482015260640161049f565b600082612dc48382613d3d565b91508110156116235760405162461bcd60e51b815260206004820152601460248201527364732d6d6174682d6164642d6f766572666c6f7760601b604482015260640161049f565b60608315612e7b578251600003612e74576001600160a01b0385163b612e745760405162461bcd60e51b815260206004820152601d60248201527f416464726573733a2063616c6c20746f206e6f6e2d636f6e7472616374000000604482015260640161049f565b508161299d565b61299d8383815115612e905781518083602001fd5b8060405162461bcd60e51b815260040161049f91906141fe565b6001600160a01b0381168114612ebf57600080fd5b50565b8035612ecd81612eaa565b919050565b8015158114612ebf57600080fd5b600080600060608486031215612ef557600080fd5b8335612f0081612eaa565b92506020840135612f1081612eaa565b91506040840135612f2081612ed2565b809150509250925092565b60008060408385031215612f3e57600080fd5b8235612f4981612eaa565b91506020830135612f5981612eaa565b809150509250929050565b60008083601f840112612f7657600080fd5b5081356001600160401b03811115612f8d57600080fd5b6020830191508360208260051b850101111561052657600080fd5b60008060008060408587031215612fbe57600080fd5b84356001600160401b0380821115612fd557600080fd5b612fe188838901612f64565b90965094506020870135915080821115612ffa57600080fd5b5061300787828801612f64565b95989497509550505050565b60008060006060848603121561302857600080fd5b83359250602084013561303a81612eaa565b91506040840135612f2081612eaa565b634e487b7160e01b600052604160045260246000fd5b604051606081016001600160401b03811182821017156130825761308261304a565b60405290565b60405160a081016001600160401b03811182821017156130825761308261304a565b60405160e081016001600160401b03811182821017156130825761308261304a565b604051608081016001600160401b03811182821017156130825761308261304a565b60405161016081016001600160401b03811182821017156130825761308261304a565b604051601f8201601f191681016001600160401b03811182821017156131395761313961304a565b604052919050565b60006001600160401b0382111561315a5761315a61304a565b5060051b60200190565b600082601f83011261317557600080fd5b8135602061318a61318583613141565b613111565b828152606092830285018201928282019190878511156131a957600080fd5b8387015b8581101561320b5781818a0312156131c55760008081fd5b6131cd613060565b81356131d881612eaa565b8152818601356131e781612eaa565b818701526040828101356131fa81612ed2565b9082015284529284019281016131ad565b5090979650505050505050565b6000806040838503121561322b57600080fd5b8235915060208301356001600160401b0381111561324857600080fd5b61325485828601613164565b9150509250929050565b6020808252825182820181905260009190848201906040850190845b818110156132965783518352928401929184019160010161327a565b50909695505050505050565b803561ffff81168114612ecd57600080fd5b60006001600160401b038211156132cd576132cd61304a565b50601f01601f191660200190565b600082601f8301126132ec57600080fd5b81356132fa613185826132b4565b81815284602083860101111561330f57600080fd5b816020850160208301376000918101602001919091529392505050565b60008060008060008060c0878903121561334557600080fd5b61334e876132a2565b955060208701356001600160401b038082111561336a57600080fd5b6133768a838b016132db565b9650604089013595506060890135915061338f82612eaa565b9093506080880135925060a088013590808211156133ac57600080fd5b506133b989828a016132db565b9150509295509295509295565b6000602082840312156133d857600080fd5b813561186281612eaa565b6001600160f81b0319815260609390931b6001600160601b03191660018401526015830191909152603582015260550190565b634e487b7160e01b600052603260045260246000fd5b60ff81168114612ebf57600080fd5b60006020828403121561344d57600080fd5b81356118628161342c565b6000808335601e1984360301811261346f57600080fd5b8301803591506001600160401b0382111561348957600080fd5b60200191503681900382131561052657600080fd5b600082601f8301126134af57600080fd5b813560206134bf61318583613141565b82815260059290921b840181019181810190868411156134de57600080fd5b8286015b848110156135025780356134f581612eaa565b83529183019183016134e2565b509695505050505050565b6000806040838503121561352057600080fd5b82356001600160401b038082111561353757600080fd5b6135438683870161349e565b935060209150818501358181111561355a57600080fd5b85019050601f8101861361356d57600080fd5b803561357b61318582613141565b81815260059190911b8201830190838101908883111561359a57600080fd5b928401925b828410156135b85783358252928401929084019061359f565b80955050505050509250929050565b634e487b7160e01b600052601160045260246000fd5b6000600182016135ef576135ef6135c7565b5060010190565b60006020828403121561360857600080fd5b5035919050565b803562ffffff81168114612ecd57600080fd5b6000602080838503121561363557600080fd5b82356001600160401b0381111561364b57600080fd5b8301601f8101851361365c57600080fd5b803561366a61318582613141565b81815260a0918202830184019184820191908884111561368957600080fd5b938501935b838510156137005780858a0312156136a65760008081fd5b6136ae613088565b8535815286860135878201526040808701356136c981612eaa565b908201526060868101356136dc81612eaa565b9082015260806136ed87820161360f565b908201528352938401939185019161368e565b50979650505050505050565b6000602080838503121561371f57600080fd5b82356001600160401b0381111561373557600080fd5b8301601f8101851361374657600080fd5b803561375461318582613141565b81815260e0918202830184019184820191908884111561377357600080fd5b938501935b838510156137005780858a0312156137905760008081fd5b6137986130aa565b8535815286860135878201526040808701356137b381612eaa565b908201526060868101356137c681612eaa565b908201526080868101356137d981612eaa565b9082015260a06137ea87820161360f565b9082015260c06137fb87820161360f565b9082015283529384019391850191613778565b6000602080838503121561382157600080fd5b82356001600160401b038082111561383857600080fd5b818501915085601f83011261384c57600080fd5b813561385a61318582613141565b81815260059190911b8301840190848101908883111561387957600080fd5b8585015b8381101561390e5780358581111561389457600080fd5b86016080818c03601f190112156138ab5760008081fd5b6138b36130cc565b8882013581526040808301358a830152606080840135898111156138d75760008081fd5b6138e58f8d8388010161349e565b8385015250608084013593506138fa84612ed2565b82019290925284525091860191860161387d565b5098975050505050505050565b6000602080838503121561392e57600080fd5b82356001600160401b038082111561394557600080fd5b818501915085601f83011261395957600080fd5b813561396761318582613141565b81815260059190911b8301840190848101908883111561398657600080fd5b8585015b8381101561390e578035858111156139a157600080fd5b86016080818c03601f190112156139b85760008081fd5b6139c06130cc565b8882013581526040808301358a830152606080840135898111156139e45760008081fd5b6139f28f8d83880101613164565b92840192909252608093909301359282019290925284525091860191860161398a565b600060208284031215613a2757600080fd5b815161186281612ed2565b60008060408385031215613a4557600080fd5b8235613a5081612eaa565b946020939093013593505050565b600060208284031215613a7057600080fd5b5051919050565b60006020808385031215613a8a57600080fd5b82356001600160401b03811115613aa057600080fd5b8301601f81018513613ab157600080fd5b8035613abf61318582613141565b81815260609182028301840191848201919088841115613ade57600080fd5b938501935b838510156137005780858a031215613afb5760008081fd5b613b03613060565b8535613b0e81612eaa565b815285870135613b1d81612eaa565b818801526040868101359082015283529384019391850191613ae3565b81810381811115611623576116236135c7565b600082601f830112613b5e57600080fd5b81356020613b6e61318583613141565b82815260059290921b84018101918181019086841115613b8d57600080fd5b8286015b84811015613502578035613ba48161342c565b8352918301918301613b91565b600082601f830112613bc257600080fd5b81356020613bd261318583613141565b82815260059290921b84018101918181019086841115613bf157600080fd5b8286015b848110156135025780356001600160401b03811115613c145760008081fd5b613c228986838b01016132db565b845250918301918301613bf5565b60008060008385036101a0811215613c4757600080fd5b61016080821215613c5757600080fd5b613c5f6130ee565b9150613c6a866132a2565b8252613c7860208701612ec2565b602083015260408601356040830152606086013560608301526080860135608083015260a086013560a083015260c086013560c0830152613cbb60e08701612ec2565b60e0830152610100613cce818801612ec2565b90830152610120868101359083015261014080870135908301529093508401356001600160401b0380821115613d0357600080fd5b613d0f87838801613b4d565b9350610180860135915080821115613d2657600080fd5b50613d3386828701613bb1565b9150509250925092565b80820180821115611623576116236135c7565b60005b83811015613d6b578181015183820152602001613d53565b50506000910152565b600082601f830112613d8557600080fd5b81516020613d9561318583613141565b82815260059290921b84018101918181019086841115613db457600080fd5b8286015b848110156135025780516001600160401b03811115613dd75760008081fd5b8701603f81018913613de95760008081fd5b848101516040613dfb613185836132b4565b8281528b82848601011115613e105760008081fd5b613e1f83898301848701613d50565b8652505050918301918301613db8565b600080600060608486031215613e4457600080fd5b8351613e4f81612eaa565b809350506020808501516001600160401b0380821115613e6e57600080fd5b818701915087601f830112613e8257600080fd5b8151613e9061318582613141565b81815260059190911b8301840190848101908a831115613eaf57600080fd5b938501935b82851015613ed6578451613ec78161342c565b82529385019390850190613eb4565b60408a01519097509450505080831115613eef57600080fd5b5050613d3386828701613d74565b600081518084526020808501945080840160005b83811015613f3057815160ff1687529582019590820190600101613f11565b509495945050505050565b60008151808452613f53816020860160208601613d50565b601f01601f19169290920160200192915050565b600081518084526020808501808196508360051b8101915082860160005b85811015613faf578284038952613f9d848351613f3b565b98850198935090840190600101613f85565b5091979650505050505050565b604081526000613fcf6040830185613efd565b8281036020840152613fe18185613f67565b95945050505050565b602081526000825160a0602084015261400660c0840182613f3b565b905060018060a01b0360208501511660408401526040840151606084015260608401516080840152608084015160a08401528091505092915050565b8082028115828204841417611623576116236135c7565b60008261407657634e487b7160e01b600052601260045260246000fd5b500490565b6001600160a01b038416815260606020820181905260009061409f90830185613efd565b82810360408401526140b18185613f67565b9695505050505050565b600061012061ffff8c1683528a602084015289604084015260018060a01b03891660608401528760808401528660a08401528060c084015285518184015250602085015161014083015260408501516060610160840152614120610180840182613f3b565b905082810360e08401526141348186613f3b565b90508281036101008401526141498185613f3b565b9c9b505050505050505050505050565b6000825161416b818460208701613d50565b9190910192915050565b84815283602082015260018060a01b03831660408201526080606082015260006140b16080830184613f3b565b80516001600160701b0381168114612ecd57600080fd5b6000806000606084860312156141ce57600080fd5b6141d7846141a2565b92506141e5602085016141a2565b9150604084015163ffffffff81168114612f2057600080fd5b6020815260006118626020830184613f3b56fea26469706673582212205b2fc924f88e6ca520831e37dc26c31e6bb6a800e6df71939d7b861bc0d7a8d064736f6c63430008110033",
    "linkReferences": {}
  },
  "methodIdentifiers": {
    "arbitrumSwaps(uint8[],bytes[])": "5b676ff3",
    "factory()": "c45a0155",
    "feeCollector()": "c415b95c",
    "getAmountOut(uint256,address,address)": "5e1e6325",
    "getAmountsOut(uint256,(address,address,bool)[])": "9881fcb4",
    "isPair(address)": "e5e31b13",
    "pairCodeHash()": "9aab9248",
    "pairFor(address,address,bool)": "4c1ee03e",
    "sgReceive(uint16,bytes,uint256,address,uint256,bytes)": "ab8236f3",
    "sortTokens(address,address)": "544caa56",
    "stargateRouter()": "a9e56f3c",
    "swapRouter()": "c31c9c07",
    "xcalFactory()": "4588b7c5",
    "xcalWeth()": "750a1d48"
  },
  "id": 55
}