{
  "abi": [
    {
      "inputs": [
        {
          "internalType": "address",
          "name": "_weth",
          "type": "address"
        },
        {
          "internalType": "contract ISwapRouter",
          "name": "_swapRouter",
          "type": "address"
        },
        {
          "internalType": "address",
          "name": "_factory",
          "type": "address"
        },
        {
          "internalType": "bytes32",
          "name": "_pairCodeHash",
          "type": "bytes32"
        },
        {
          "internalType": "address",
          "name": "_xcalFactory",
          "type": "address"
        },
        {
          "internalType": "contract IStargateRouter",
          "name": "_stargateRouter",
          "type": "address"
        }
      ],
      "stateMutability": "nonpayable",
      "type": "constructor"
    },
    {
      "inputs": [],
      "name": "MoreThanZero",
      "type": "error"
    },
    {
      "inputs": [],
      "name": "MustBeGt0",
      "type": "error"
    },
    {
      "inputs": [],
      "name": "NotStgRouter",
      "type": "error"
    },
    {
      "anonymous": false,
      "inputs": [
        {
          "indexed": false,
          "internalType": "address",
          "name": "_token",
          "type": "address"
        },
        {
          "indexed": false,
          "internalType": "uint256",
          "name": "_fee",
          "type": "uint256"
        }
      ],
      "name": "FeePaid",
      "type": "event"
    },
    {
      "anonymous": false,
      "inputs": [
        {
          "indexed": true,
          "internalType": "address",
          "name": "token",
          "type": "address"
        },
        {
          "indexed": false,
          "internalType": "uint256",
          "name": "amountLD",
          "type": "uint256"
        },
        {
          "indexed": false,
          "internalType": "bool",
          "name": "failed",
          "type": "bool"
        },
        {
          "indexed": false,
          "internalType": "bool",
          "name": "dustSent",
          "type": "bool"
        }
      ],
      "name": "ReceivedOnDestination",
      "type": "event"
    },
    {
      "inputs": [
        {
          "internalType": "uint256[]",
          "name": "amounts",
          "type": "uint256[]"
        },
        {
          "components": [
            {
              "internalType": "address",
              "name": "from",
              "type": "address"
            },
            {
              "internalType": "address",
              "name": "to",
              "type": "address"
            },
            {
              "internalType": "bool",
              "name": "stable",
              "type": "bool"
            }
          ],
          "internalType": "struct route[]",
          "name": "routes",
          "type": "tuple[]"
        },
        {
          "internalType": "address",
          "name": "to",
          "type": "address"
        },
        {
          "internalType": "uint256",
          "name": "deadline",
          "type": "uint256"
        }
      ],
      "name": "UNSAFE_swapExactTokensForTokens",
      "outputs": [
        {
          "internalType": "uint256[]",
          "name": "",
          "type": "uint256[]"
        }
      ],
      "stateMutability": "nonpayable",
      "type": "function"
    },
    {
      "inputs": [
        {
          "internalType": "address",
          "name": "tokenA",
          "type": "address"
        },
        {
          "internalType": "address",
          "name": "tokenB",
          "type": "address"
        },
        {
          "internalType": "bool",
          "name": "stable",
          "type": "bool"
        },
        {
          "internalType": "uint256",
          "name": "amountADesired",
          "type": "uint256"
        },
        {
          "internalType": "uint256",
          "name": "amountBDesired",
          "type": "uint256"
        },
        {
          "internalType": "uint256",
          "name": "amountAMin",
          "type": "uint256"
        },
        {
          "internalType": "uint256",
          "name": "amountBMin",
          "type": "uint256"
        },
        {
          "internalType": "address",
          "name": "to",
          "type": "address"
        },
        {
          "internalType": "uint256",
          "name": "deadline",
          "type": "uint256"
        }
      ],
      "name": "addLiquidity",
      "outputs": [
        {
          "internalType": "uint256",
          "name": "amountA",
          "type": "uint256"
        },
        {
          "internalType": "uint256",
          "name": "amountB",
          "type": "uint256"
        },
        {
          "internalType": "uint256",
          "name": "liquidity",
          "type": "uint256"
        }
      ],
      "stateMutability": "nonpayable",
      "type": "function"
    },
    {
      "inputs": [
        {
          "internalType": "address",
          "name": "token",
          "type": "address"
        },
        {
          "internalType": "bool",
          "name": "stable",
          "type": "bool"
        },
        {
          "internalType": "uint256",
          "name": "amountTokenDesired",
          "type": "uint256"
        },
        {
          "internalType": "uint256",
          "name": "amountTokenMin",
          "type": "uint256"
        },
        {
          "internalType": "uint256",
          "name": "amountETHMin",
          "type": "uint256"
        },
        {
          "internalType": "address",
          "name": "to",
          "type": "address"
        },
        {
          "internalType": "uint256",
          "name": "deadline",
          "type": "uint256"
        }
      ],
      "name": "addLiquidityETH",
      "outputs": [
        {
          "internalType": "uint256",
          "name": "amountToken",
          "type": "uint256"
        },
        {
          "internalType": "uint256",
          "name": "amountETH",
          "type": "uint256"
        },
        {
          "internalType": "uint256",
          "name": "liquidity",
          "type": "uint256"
        }
      ],
      "stateMutability": "payable",
      "type": "function"
    },
    {
      "inputs": [
        {
          "internalType": "uint8[]",
          "name": "steps",
          "type": "uint8[]"
        },
        {
          "internalType": "bytes[]",
          "name": "data",
          "type": "bytes[]"
        }
      ],
      "name": "arbitrumSwaps",
      "outputs": [],
      "stateMutability": "payable",
      "type": "function"
    },
    {
      "inputs": [],
      "name": "factory",
      "outputs": [
        {
          "internalType": "address",
          "name": "",
          "type": "address"
        }
      ],
      "stateMutability": "view",
      "type": "function"
    },
    {
      "inputs": [],
      "name": "feeCollector",
      "outputs": [
        {
          "internalType": "address",
          "name": "",
          "type": "address"
        }
      ],
      "stateMutability": "view",
      "type": "function"
    },
    {
      "inputs": [
        {
          "internalType": "uint256",
          "name": "amountIn",
          "type": "uint256"
        },
        {
          "internalType": "address",
          "name": "tokenIn",
          "type": "address"
        },
        {
          "internalType": "address",
          "name": "tokenOut",
          "type": "address"
        }
      ],
      "name": "getAmountOut",
      "outputs": [
        {
          "internalType": "uint256",
          "name": "amount",
          "type": "uint256"
        },
        {
          "internalType": "bool",
          "name": "stable",
          "type": "bool"
        }
      ],
      "stateMutability": "view",
      "type": "function"
    },
    {
      "inputs": [
        {
          "internalType": "uint256",
          "name": "amountIn",
          "type": "uint256"
        },
        {
          "components": [
            {
              "internalType": "address",
              "name": "from",
              "type": "address"
            },
            {
              "internalType": "address",
              "name": "to",
              "type": "address"
            },
            {
              "internalType": "bool",
              "name": "stable",
              "type": "bool"
            }
          ],
          "internalType": "struct route[]",
          "name": "routes",
          "type": "tuple[]"
        }
      ],
      "name": "getAmountsOut",
      "outputs": [
        {
          "internalType": "uint256[]",
          "name": "amounts",
          "type": "uint256[]"
        }
      ],
      "stateMutability": "view",
      "type": "function"
    },
    {
      "inputs": [
        {
          "internalType": "address",
          "name": "tokenA",
          "type": "address"
        },
        {
          "internalType": "address",
          "name": "tokenB",
          "type": "address"
        },
        {
          "internalType": "bool",
          "name": "stable",
          "type": "bool"
        }
      ],
      "name": "getReserves",
      "outputs": [
        {
          "internalType": "uint256",
          "name": "reserveA",
          "type": "uint256"
        },
        {
          "internalType": "uint256",
          "name": "reserveB",
          "type": "uint256"
        }
      ],
      "stateMutability": "view",
      "type": "function"
    },
    {
      "inputs": [
        {
          "internalType": "address",
          "name": "pair",
          "type": "address"
        }
      ],
      "name": "isPair",
      "outputs": [
        {
          "internalType": "bool",
          "name": "",
          "type": "bool"
        }
      ],
      "stateMutability": "view",
      "type": "function"
    },
    {
      "inputs": [],
      "name": "pairCodeHash",
      "outputs": [
        {
          "internalType": "bytes32",
          "name": "",
          "type": "bytes32"
        }
      ],
      "stateMutability": "view",
      "type": "function"
    },
    {
      "inputs": [
        {
          "internalType": "address",
          "name": "tokenA",
          "type": "address"
        },
        {
          "internalType": "address",
          "name": "tokenB",
          "type": "address"
        },
        {
          "internalType": "bool",
          "name": "stable",
          "type": "bool"
        }
      ],
      "name": "pairFor",
      "outputs": [
        {
          "internalType": "address",
          "name": "pair",
          "type": "address"
        }
      ],
      "stateMutability": "view",
      "type": "function"
    },
    {
      "inputs": [
        {
          "internalType": "address",
          "name": "tokenA",
          "type": "address"
        },
        {
          "internalType": "address",
          "name": "tokenB",
          "type": "address"
        },
        {
          "internalType": "bool",
          "name": "stable",
          "type": "bool"
        },
        {
          "internalType": "uint256",
          "name": "amountADesired",
          "type": "uint256"
        },
        {
          "internalType": "uint256",
          "name": "amountBDesired",
          "type": "uint256"
        }
      ],
      "name": "quoteAddLiquidity",
      "outputs": [
        {
          "internalType": "uint256",
          "name": "amountA",
          "type": "uint256"
        },
        {
          "internalType": "uint256",
          "name": "amountB",
          "type": "uint256"
        },
        {
          "internalType": "uint256",
          "name": "liquidity",
          "type": "uint256"
        }
      ],
      "stateMutability": "view",
      "type": "function"
    },
    {
      "inputs": [
        {
          "internalType": "address",
          "name": "tokenA",
          "type": "address"
        },
        {
          "internalType": "address",
          "name": "tokenB",
          "type": "address"
        },
        {
          "internalType": "bool",
          "name": "stable",
          "type": "bool"
        },
        {
          "internalType": "uint256",
          "name": "liquidity",
          "type": "uint256"
        }
      ],
      "name": "quoteRemoveLiquidity",
      "outputs": [
        {
          "internalType": "uint256",
          "name": "amountA",
          "type": "uint256"
        },
        {
          "internalType": "uint256",
          "name": "amountB",
          "type": "uint256"
        }
      ],
      "stateMutability": "view",
      "type": "function"
    },
    {
      "inputs": [
        {
          "internalType": "address",
          "name": "tokenA",
          "type": "address"
        },
        {
          "internalType": "address",
          "name": "tokenB",
          "type": "address"
        },
        {
          "internalType": "bool",
          "name": "stable",
          "type": "bool"
        },
        {
          "internalType": "uint256",
          "name": "liquidity",
          "type": "uint256"
        },
        {
          "internalType": "uint256",
          "name": "amountAMin",
          "type": "uint256"
        },
        {
          "internalType": "uint256",
          "name": "amountBMin",
          "type": "uint256"
        },
        {
          "internalType": "address",
          "name": "to",
          "type": "address"
        },
        {
          "internalType": "uint256",
          "name": "deadline",
          "type": "uint256"
        }
      ],
      "name": "removeLiquidity",
      "outputs": [
        {
          "internalType": "uint256",
          "name": "amountA",
          "type": "uint256"
        },
        {
          "internalType": "uint256",
          "name": "amountB",
          "type": "uint256"
        }
      ],
      "stateMutability": "nonpayable",
      "type": "function"
    },
    {
      "inputs": [
        {
          "internalType": "address",
          "name": "token",
          "type": "address"
        },
        {
          "internalType": "bool",
          "name": "stable",
          "type": "bool"
        },
        {
          "internalType": "uint256",
          "name": "liquidity",
          "type": "uint256"
        },
        {
          "internalType": "uint256",
          "name": "amountTokenMin",
          "type": "uint256"
        },
        {
          "internalType": "uint256",
          "name": "amountETHMin",
          "type": "uint256"
        },
        {
          "internalType": "address",
          "name": "to",
          "type": "address"
        },
        {
          "internalType": "uint256",
          "name": "deadline",
          "type": "uint256"
        }
      ],
      "name": "removeLiquidityETH",
      "outputs": [
        {
          "internalType": "uint256",
          "name": "amountToken",
          "type": "uint256"
        },
        {
          "internalType": "uint256",
          "name": "amountETH",
          "type": "uint256"
        }
      ],
      "stateMutability": "nonpayable",
      "type": "function"
    },
    {
      "inputs": [
        {
          "internalType": "address",
          "name": "token",
          "type": "address"
        },
        {
          "internalType": "bool",
          "name": "stable",
          "type": "bool"
        },
        {
          "internalType": "uint256",
          "name": "liquidity",
          "type": "uint256"
        },
        {
          "internalType": "uint256",
          "name": "amountTokenMin",
          "type": "uint256"
        },
        {
          "internalType": "uint256",
          "name": "amountETHMin",
          "type": "uint256"
        },
        {
          "internalType": "address",
          "name": "to",
          "type": "address"
        },
        {
          "internalType": "uint256",
          "name": "deadline",
          "type": "uint256"
        },
        {
          "internalType": "bool",
          "name": "approveMax",
          "type": "bool"
        },
        {
          "internalType": "uint8",
          "name": "v",
          "type": "uint8"
        },
        {
          "internalType": "bytes32",
          "name": "r",
          "type": "bytes32"
        },
        {
          "internalType": "bytes32",
          "name": "s",
          "type": "bytes32"
        }
      ],
      "name": "removeLiquidityETHWithPermit",
      "outputs": [
        {
          "internalType": "uint256",
          "name": "amountToken",
          "type": "uint256"
        },
        {
          "internalType": "uint256",
          "name": "amountETH",
          "type": "uint256"
        }
      ],
      "stateMutability": "nonpayable",
      "type": "function"
    },
    {
      "inputs": [
        {
          "internalType": "uint16",
          "name": "",
          "type": "uint16"
        },
        {
          "internalType": "bytes",
          "name": "",
          "type": "bytes"
        },
        {
          "internalType": "uint256",
          "name": "",
          "type": "uint256"
        },
        {
          "internalType": "address",
          "name": "_token",
          "type": "address"
        },
        {
          "internalType": "uint256",
          "name": "amountLD",
          "type": "uint256"
        },
        {
          "internalType": "bytes",
          "name": "_payload",
          "type": "bytes"
        }
      ],
      "name": "sgReceive",
      "outputs": [],
      "stateMutability": "nonpayable",
      "type": "function"
    },
    {
      "inputs": [
        {
          "internalType": "address",
          "name": "tokenA",
          "type": "address"
        },
        {
          "internalType": "address",
          "name": "tokenB",
          "type": "address"
        }
      ],
      "name": "sortTokens",
      "outputs": [
        {
          "internalType": "address",
          "name": "token0",
          "type": "address"
        },
        {
          "internalType": "address",
          "name": "token1",
          "type": "address"
        }
      ],
      "stateMutability": "pure",
      "type": "function"
    },
    {
      "inputs": [],
      "name": "stargateRouter",
      "outputs": [
        {
          "internalType": "contract IStargateRouter",
          "name": "",
          "type": "address"
        }
      ],
      "stateMutability": "view",
      "type": "function"
    },
    {
      "inputs": [
        {
          "internalType": "uint256",
          "name": "amountOutMin",
          "type": "uint256"
        },
        {
          "components": [
            {
              "internalType": "address",
              "name": "from",
              "type": "address"
            },
            {
              "internalType": "address",
              "name": "to",
              "type": "address"
            },
            {
              "internalType": "bool",
              "name": "stable",
              "type": "bool"
            }
          ],
          "internalType": "struct route[]",
          "name": "routes",
          "type": "tuple[]"
        },
        {
          "internalType": "address",
          "name": "to",
          "type": "address"
        },
        {
          "internalType": "uint256",
          "name": "deadline",
          "type": "uint256"
        }
      ],
      "name": "swapExactETHForTokens",
      "outputs": [
        {
          "internalType": "uint256[]",
          "name": "amounts",
          "type": "uint256[]"
        }
      ],
      "stateMutability": "payable",
      "type": "function"
    },
    {
      "inputs": [
        {
          "internalType": "uint256",
          "name": "amountIn",
          "type": "uint256"
        },
        {
          "internalType": "uint256",
          "name": "amountOutMin",
          "type": "uint256"
        },
        {
          "components": [
            {
              "internalType": "address",
              "name": "from",
              "type": "address"
            },
            {
              "internalType": "address",
              "name": "to",
              "type": "address"
            },
            {
              "internalType": "bool",
              "name": "stable",
              "type": "bool"
            }
          ],
          "internalType": "struct route[]",
          "name": "routes",
          "type": "tuple[]"
        },
        {
          "internalType": "address",
          "name": "to",
          "type": "address"
        },
        {
          "internalType": "uint256",
          "name": "deadline",
          "type": "uint256"
        }
      ],
      "name": "swapExactTokensForETH",
      "outputs": [
        {
          "internalType": "uint256[]",
          "name": "amounts",
          "type": "uint256[]"
        }
      ],
      "stateMutability": "nonpayable",
      "type": "function"
    },
    {
      "inputs": [
        {
          "internalType": "uint256",
          "name": "amountIn",
          "type": "uint256"
        },
        {
          "internalType": "uint256",
          "name": "amountOutMin",
          "type": "uint256"
        },
        {
          "components": [
            {
              "internalType": "address",
              "name": "from",
              "type": "address"
            },
            {
              "internalType": "address",
              "name": "to",
              "type": "address"
            },
            {
              "internalType": "bool",
              "name": "stable",
              "type": "bool"
            }
          ],
          "internalType": "struct route[]",
          "name": "routes",
          "type": "tuple[]"
        },
        {
          "internalType": "address",
          "name": "to",
          "type": "address"
        },
        {
          "internalType": "uint256",
          "name": "deadline",
          "type": "uint256"
        }
      ],
      "name": "swapExactTokensForTokens",
      "outputs": [
        {
          "internalType": "uint256[]",
          "name": "amounts",
          "type": "uint256[]"
        }
      ],
      "stateMutability": "nonpayable",
      "type": "function"
    },
    {
      "inputs": [
        {
          "internalType": "uint256",
          "name": "amountIn",
          "type": "uint256"
        },
        {
          "internalType": "uint256",
          "name": "amountOutMin",
          "type": "uint256"
        },
        {
          "internalType": "address",
          "name": "tokenFrom",
          "type": "address"
        },
        {
          "internalType": "address",
          "name": "tokenTo",
          "type": "address"
        },
        {
          "internalType": "bool",
          "name": "stable",
          "type": "bool"
        },
        {
          "internalType": "address",
          "name": "to",
          "type": "address"
        },
        {
          "internalType": "uint256",
          "name": "deadline",
          "type": "uint256"
        }
      ],
      "name": "swapExactTokensForTokensSimple",
      "outputs": [
        {
          "internalType": "uint256[]",
          "name": "amounts",
          "type": "uint256[]"
        }
      ],
      "stateMutability": "nonpayable",
      "type": "function"
    },
    {
      "inputs": [],
      "name": "swapRouter",
      "outputs": [
        {
          "internalType": "contract ISwapRouter",
          "name": "",
          "type": "address"
        }
      ],
      "stateMutability": "view",
      "type": "function"
    },
    {
      "inputs": [],
      "name": "xcalFactory",
      "outputs": [
        {
          "internalType": "address",
          "name": "",
          "type": "address"
        }
      ],
      "stateMutability": "view",
      "type": "function"
    },
    {
      "inputs": [],
      "name": "xcalWeth",
      "outputs": [
        {
          "internalType": "contract IWETH",
          "name": "",
          "type": "address"
        }
      ],
      "stateMutability": "view",
      "type": "function"
    },
    {
      "stateMutability": "payable",
      "type": "receive"
    }
  ],
  "bytecode": {
    "object": "0x6101606040523480156200001257600080fd5b50604051620059d9380380620059d983398101604081905262000035916200019d565b6001600160a01b03858116608052600080546001600160a01b03191686831617905560018490558190839088908216158015906200007b57506001600160a01b03811615155b620000e15760405162461bcd60e51b815260206004820152602c60248201527f526f757465723a207a65726f20616464726573732070726f766964656420696e60448201526b1031b7b739ba393ab1ba37b960a11b606482015260840160405180910390fd5b6001600160a01b03821660a081905260408051631355724960e31b81529051639aab9248916004808201926020929091908290030181865afa1580156200012c573d6000803e3d6000fd5b505050506040513d601f19601f8201168201806040525081019062000152919062000225565b60e0526001600160a01b0390811660c052918216610100525033610120529590951661014052506200023f9350505050565b6001600160a01b03811681146200019a57600080fd5b50565b60008060008060008060c08789031215620001b757600080fd5b8651620001c48162000184565b6020880151909650620001d78162000184565b6040880151909550620001ea8162000184565b606088015160808901519195509350620002048162000184565b60a0880151909250620002178162000184565b809150509295509295509295565b6000602082840312156200023857600080fd5b5051919050565b60805160a05160c05160e0516101005161012051610140516156896200035060003960006113930152600061053c0152600081816104a1015261219b01526000610fdd015260008181610409015281816109e801528181610c2701528181610e78015281816118ff01528181611a1201528181611aa001528181612389015281816123bf015281816123f401528181612489015281816125c8015261261801526000818161028501528181610d0d01528181610fa2015281816115f40152818161170801528181611e2401528181611f98015281816126b501528181612c9f0152612d4001526000818161050801528181612f1201528181613048015281816130e101526131cc01526156896000f3fe6080604052600436106101a05760003560e01c80637301e3c8116100ec578063b7e0d4c01161008a578063c45a015511610064578063c45a01551461055e578063d7b0e0a51461057e578063e5e31b131461059e578063f41766d8146105ce57600080fd5b8063b7e0d4c0146104e3578063c31c9c07146104f6578063c415b95c1461052a57600080fd5b806398a0fb3c116100c657806398a0fb3c1461044b5780639aab92481461046b578063a9e56f3c1461048f578063ab8236f3146104c357600080fd5b80637301e3c8146103d7578063750a1d48146103f75780639881fcb41461042b57600080fd5b80634c1ee03e116101595780635b676ff3116101335780635b676ff31461035a5780635e1e63251461036f5780635e60dab5146103a457806367ffb66a146103c457600080fd5b80634c1ee03e146102bf578063544caa56146102df5780635a47ddc31461031f57600080fd5b80630dede6c4146101ac57806313dcfc59146101e657806318a13086146102135780634386e63c14610233578063448725b4146102535780634588b7c51461027357600080fd5b366101a757005b600080fd5b3480156101b857600080fd5b506101cc6101c736600461415c565b6105ee565b604080519283526020830191909152015b60405180910390f35b3480156101f257600080fd5b506102066102013660046141e1565b6107a8565b6040516101dd919061425c565b34801561021f57600080fd5b5061020661022e3660046142e4565b6109bb565b34801561023f57600080fd5b506101cc61024e366004614356565b610d06565b34801561025f57600080fd5b506101cc61026e3660046143b6565b610e6d565b34801561027f57600080fd5b506102a77f000000000000000000000000000000000000000000000000000000000000000081565b6040516001600160a01b0390911681526020016101dd565b3480156102cb57600080fd5b506102a76102da366004614464565b610f60565b3480156102eb57600080fd5b506102ff6102fa3660046144af565b611030565b604080516001600160a01b039384168152929091166020830152016101dd565b34801561032b57600080fd5b5061033f61033a3660046144e8565b611123565b604080519384526020840192909252908201526060016101dd565b61036d6103683660046145bb565b611203565b005b34801561037b57600080fd5b5061038f61038a366004614626565b6115bc565b604080519283529015156020830152016101dd565b3480156103b057600080fd5b506101cc6103bf366004614464565b611810565b6102066103d236600461465d565b6118da565b3480156103e357600080fd5b506102066103f23660046147f8565b611c39565b34801561040357600080fd5b506102a77f000000000000000000000000000000000000000000000000000000000000000081565b34801561043757600080fd5b506102066104463660046148cb565b611d0f565b34801561045757600080fd5b5061033f610466366004614970565b611f90565b34801561047757600080fd5b5061048160015481565b6040519081526020016101dd565b34801561049b57600080fd5b506102a77f000000000000000000000000000000000000000000000000000000000000000081565b3480156104cf57600080fd5b5061036d6104de366004614a43565b612190565b61033f6104f1366004614ae6565b61235d565b34801561050257600080fd5b506102a77f000000000000000000000000000000000000000000000000000000000000000081565b34801561053657600080fd5b506102a77f000000000000000000000000000000000000000000000000000000000000000081565b34801561056a57600080fd5b506000546102a7906001600160a01b031681565b34801561058a57600080fd5b506101cc610599366004614ae6565b61259e565b3480156105aa57600080fd5b506105be6105b9366004614b41565b612693565b60405190151581526020016101dd565b3480156105da57600080fd5b506102066105e93660046142e4565b612728565b600080824281101561061b5760405162461bcd60e51b815260040161061290614b5e565b60405180910390fd5b60006106288c8c8c610f60565b6040516323b872dd60e01b81523360048201526001600160a01b03821660248201819052604482018c90529192506323b872dd906064016020604051808303816000875af115801561067e573d6000803e3d6000fd5b505050506040513d601f19601f820116820180604052508101906106a29190614b8d565b6106ab57600080fd5b60405163226bf2d160e21b81526001600160a01b03878116600483015260009182918416906389afcb449060240160408051808303816000875af11580156106f7573d6000803e3d6000fd5b505050506040513d601f19601f8201168201806040525081019061071b9190614baa565b91509150600061072b8f8f611030565b509050806001600160a01b03168f6001600160a01b03161461074e578183610751565b82825b90975095508a8710156107765760405162461bcd60e51b815260040161061290614bce565b898610156107965760405162461bcd60e51b815260040161061290614c11565b50505050509850989650505050505050565b606081428110156107cb5760405162461bcd60e51b815260040161061290614b5e565b604080516001808252818301909252600091816020015b60408051606081018252600080825260208083018290529282015282526000199092019101816107e2579050509050878160008151811061082557610825614c54565b6020026020010151600001906001600160a01b031690816001600160a01b031681525050868160008151811061085d5761085d614c54565b6020026020010151602001906001600160a01b031690816001600160a01b031681525050858160008151811061089557610895614c54565b60209081029190910101519015156040909101526108b38a82611d0f565b92508883600185516108c59190614c80565b815181106108d5576108d5614c54565b602002602001015110156108fb5760405162461bcd60e51b815260040161061290614c97565b6109a38160008151811061091157610911614c54565b602002602001015160000151336109838460008151811061093457610934614c54565b6020026020010151600001518560008151811061095357610953614c54565b6020026020010151602001518660008151811061097257610972614c54565b602002602001015160400151610f60565b8660008151811061099657610996614c54565b602002602001015161284d565b6109ae838287612945565b5050979650505050505050565b606081428110156109de5760405162461bcd60e51b815260040161061290614b5e565b6001600160a01b037f0000000000000000000000000000000000000000000000000000000000000000168686610a15600182614c80565b818110610a2457610a24614c54565b9050606002016020016020810190610a3c9190614b41565b6001600160a01b031614610a625760405162461bcd60e51b815260040161061290614cdf565b610abe888787808060200260200160405190810160405280939291908181526020016000905b82821015610ab457610aa560608302860136819003810190614d16565b81526020019060010190610a88565b5050505050611d0f565b9150868260018451610ad09190614c80565b81518110610ae057610ae0614c54565b60200260200101511015610b065760405162461bcd60e51b815260040161061290614c97565b610bc886866000818110610b1c57610b1c614c54565b610b329260206060909202019081019150614b41565b33610bb589896000818110610b4957610b49614c54565b610b5f9260206060909202019081019150614b41565b8a8a6000818110610b7257610b72614c54565b9050606002016020016020810190610b8a9190614b41565b8b8b6000818110610b9d57610b9d614c54565b90506060020160400160208101906102da9190614d32565b8560008151811061099657610996614c54565b610c25828787808060200260200160405190810160405280939291908181526020016000905b82821015610c1a57610c0b60608302860136819003810190614d16565b81526020019060010190610bee565b505050505030612945565b7f00000000000000000000000000000000000000000000000000000000000000006001600160a01b0316632e1a7d4d8360018551610c639190614c80565b81518110610c7357610c73614c54565b60200260200101516040518263ffffffff1660e01b8152600401610c9991815260200190565b600060405180830381600087803b158015610cb357600080fd5b505af1158015610cc7573d6000803e3d6000fd5b50505050610cfb848360018551610cde9190614c80565b81518110610cee57610cee614c54565b6020026020010151612b9a565b509695505050505050565b60008060007f00000000000000000000000000000000000000000000000000000000000000006001600160a01b0316636801cc308888886040518463ffffffff1660e01b8152600401610d5b93929190614d4f565b602060405180830381865afa158015610d78573d6000803e3d6000fd5b505050506040513d601f19601f82011682018060405250810190610d9c9190614d73565b90506001600160a01b038116610db9576000809250925050610e64565b600080610dc7898989611810565b915091506000836001600160a01b03166318160ddd6040518163ffffffff1660e01b8152600401602060405180830381865afa158015610e0b573d6000803e3d6000fd5b505050506040513d601f19601f82011682018060405250810190610e2f9190614d90565b905080610e3c8489614da9565b610e469190614dc8565b955080610e538389614da9565b610e5d9190614dc8565b9450505050505b94509492505050565b6000806000610e9d8e7f00000000000000000000000000000000000000000000000000000000000000008f610f60565b9050600087610eac578c610eb0565b6000195b60405163d505accf60e01b815233600482015230602482015260448101829052606481018b905260ff8916608482015260a4810188905260c481018790529091506001600160a01b0383169063d505accf9060e401600060405180830381600087803b158015610f1f57600080fd5b505af1158015610f33573d6000803e3d6000fd5b50505050610f468f8f8f8f8f8f8f61259e565b809450819550505050509b509b9950505050505050505050565b6000806000610f6f8686611030565b6040516001600160601b0319606084811b8216602084015283901b16603482015286151560f81b604882015291935091507f000000000000000000000000000000000000000000000000000000000000000090604901604051602081830303815290604052805190602001207f000000000000000000000000000000000000000000000000000000000000000060405160200161100e93929190614dea565b60408051601f1981840301815291905280516020909101209695505050505050565b600080826001600160a01b0316846001600160a01b03160361109e5760405162461bcd60e51b815260206004820152602160248201527f426173655631526f757465723a204944454e544943414c5f41444452455353456044820152605360f81b6064820152608401610612565b826001600160a01b0316846001600160a01b0316106110be5782846110c1565b83835b90925090506001600160a01b03821661111c5760405162461bcd60e51b815260206004820152601a60248201527f426173655631526f757465723a205a45524f5f414444524553530000000000006044820152606401610612565b9250929050565b600080600083428110156111495760405162461bcd60e51b815260040161061290614b5e565b6111588d8d8d8d8d8d8d612c68565b9094509250600061116a8e8e8e610f60565b90506111788e33838861284d565b6111848d33838761284d565b6040516335313c2160e11b81526001600160a01b038881166004830152821690636a627842906024016020604051808303816000875af11580156111cc573d6000803e3d6000fd5b505050506040513d601f19601f820116820180604052508101906111f09190614d90565b9250505099509950999650505050505050565b60005b838110156115b557600085858381811061122257611222614c54565b90506020020160208101906112379190614e1d565b905060001960ff82160161132f5760008085858581811061125a5761125a614c54565b905060200281019061126c9190614e3a565b8101906112799190614ee4565b9150915060005b825181101561132757600082828151811061129d5761129d614c54565b6020026020010151116112c35760405163fe4155c760e01b815260040160405180910390fd5b61131533308484815181106112da576112da614c54565b60200260200101518685815181106112f4576112f4614c54565b60200260200101516001600160a01b0316612e86909392919063ffffffff16565b8061131f81614f47565b915050611280565b5050506115a2565b60011960ff82160161140b57600084848481811061134f5761134f614c54565b90506020028101906113619190614e3a565b81019061136e9190614f60565b9050600081116113915760405163fe4155c760e01b815260040160405180910390fd5b7f00000000000000000000000000000000000000000000000000000000000000006001600160a01b031663d0e30db0826040518263ffffffff1660e01b81526004016000604051808303818588803b1580156113ec57600080fd5b505af1158015611400573d6000803e3d6000fd5b5050505050506115a2565b60021960ff82160161149b57600084848481811061142b5761142b614c54565b905060200281019061143d9190614e3a565b81019061144a9190614f8c565b905060005b815181101561149457600082828151811061146c5761146c614c54565b6020026020010151905061147f81612ef1565b5050808061148c90614f47565b91505061144f565b50506115a2565b60031960ff82160161151d5760008484848181106114bb576114bb614c54565b90506020028101906114cd9190614e3a565b8101906114da9190615076565b905060005b81518110156114945761150a8282815181106114fd576114fd614c54565b60200260200101516130c0565b508061151581614f47565b9150506114df565b60041960ff8216016115a257600084848481811061153d5761153d614c54565b905060200281019061154f9190614e3a565b81019061155c9190615178565b905060005b815181101561159f5761158c82828151811061157f5761157f614c54565b6020026020010151613216565b508061159781614f47565b915050611561565b50505b50806115ad81614f47565b915050611206565b5050505050565b60008060006115cd85856001610f60565b60405163e5e31b1360e01b81526001600160a01b03828116600483015291925060009182917f00000000000000000000000000000000000000000000000000000000000000009091169063e5e31b1390602401602060405180830381865afa15801561163d573d6000803e3d6000fd5b505050506040513d601f19601f820116820180604052508101906116619190614b8d565b156116da576040516378a051ad60e11b8152600481018990526001600160a01b03888116602483015284169063f140a35a90604401602060405180830381865afa1580156116b3573d6000803e3d6000fd5b505050506040513d601f19601f820116820180604052508101906116d79190614d90565b91505b6116e687876000610f60565b60405163e5e31b1360e01b81526001600160a01b0380831660048301529194507f00000000000000000000000000000000000000000000000000000000000000009091169063e5e31b1390602401602060405180830381865afa158015611751573d6000803e3d6000fd5b505050506040513d601f19601f820116820180604052508101906117759190614b8d565b156117ee576040516378a051ad60e11b8152600481018990526001600160a01b03888116602483015284169063f140a35a90604401602060405180830381865afa1580156117c7573d6000803e3d6000fd5b505050506040513d601f19601f820116820180604052508101906117eb9190614d90565b90505b8082116117fd57806000611801565b8160015b94509450505050935093915050565b600080600061181f8686611030565b509050600080611830888888610f60565b6001600160a01b0316630902f1ac6040518163ffffffff1660e01b8152600401606060405180830381865afa15801561186d573d6000803e3d6000fd5b505050506040513d601f19601f82011682018060405250810190611891919061529c565b506001600160701b031691506001600160701b03169150826001600160a01b0316886001600160a01b0316146118c85780826118cb565b81815b90999098509650505050505050565b606081428110156118fd5760405162461bcd60e51b815260040161061290614b5e565b7f00000000000000000000000000000000000000000000000000000000000000006001600160a01b03168686600081811061193a5761193a614c54565b6119509260206060909202019081019150614b41565b6001600160a01b0316146119765760405162461bcd60e51b815260040161061290614cdf565b6119c8348787808060200260200160405190810160405280939291908181526020016000905b82821015610ab4576119b960608302860136819003810190614d16565b8152602001906001019061199c565b91508682600184516119da9190614c80565b815181106119ea576119ea614c54565b60200260200101511015611a105760405162461bcd60e51b815260040161061290614c97565b7f00000000000000000000000000000000000000000000000000000000000000006001600160a01b031663d0e30db083600081518110611a5257611a52614c54565b60200260200101516040518263ffffffff1660e01b81526004016000604051808303818588803b158015611a8557600080fd5b505af1158015611a99573d6000803e3d6000fd5b50505050507f00000000000000000000000000000000000000000000000000000000000000006001600160a01b031663a9059cbb611b3788886000818110611ae357611ae3614c54565b611af99260206060909202019081019150614b41565b89896000818110611b0c57611b0c614c54565b9050606002016020016020810190611b249190614b41565b8a8a6000818110610b9d57610b9d614c54565b84600081518110611b4a57611b4a614c54565b60200260200101516040518363ffffffff1660e01b8152600401611b839291906001600160a01b03929092168252602082015260400190565b6020604051808303816000875af1158015611ba2573d6000803e3d6000fd5b505050506040513d601f19601f82011682018060405250810190611bc69190614b8d565b611bd257611bd26152e1565b611c2f828787808060200260200160405190810160405280939291908181526020016000905b82821015611c2457611c1560608302860136819003810190614d16565b81526020019060010190611bf8565b505050505086612945565b5095945050505050565b60608142811015611c5c5760405162461bcd60e51b815260040161061290614b5e565b611cb286866000818110611c7257611c72614c54565b611c889260206060909202019081019150614b41565b33611c9f89896000818110610b4957610b49614c54565b8a60008151811061099657610996614c54565b611d04878787808060200260200160405190810160405280939291908181526020016000905b82821015611c2457611cf560608302860136819003810190614d16565b81526020019060010190611cd8565b509495945050505050565b6060600182511015611d335760405162461bcd60e51b815260040161061290614cdf565b8151611d409060016152f7565b6001600160401b03811115611d5757611d576146c3565b604051908082528060200260200182016040528015611d80578160200160208202803683370190505b5090508281600081518110611d9757611d97614c54565b60200260200101818152505060005b8251811015611f89576000611e02848381518110611dc657611dc6614c54565b602002602001015160000151858481518110611de457611de4614c54565b60200260200101516020015186858151811061097257610972614c54565b60405163e5e31b1360e01b81526001600160a01b0380831660048301529192507f00000000000000000000000000000000000000000000000000000000000000009091169063e5e31b1390602401602060405180830381865afa158015611e6d573d6000803e3d6000fd5b505050506040513d601f19601f82011682018060405250810190611e919190614b8d565b15611f7657806001600160a01b031663f140a35a848481518110611eb757611eb7614c54565b6020026020010151868581518110611ed157611ed1614c54565b6020026020010151600001516040518363ffffffff1660e01b8152600401611f0c9291909182526001600160a01b0316602082015260400190565b602060405180830381865afa158015611f29573d6000803e3d6000fd5b505050506040513d601f19601f82011682018060405250810190611f4d9190614d90565b83611f598460016152f7565b81518110611f6957611f69614c54565b6020026020010181815250505b5080611f8181614f47565b915050611da6565b5092915050565b6000806000807f00000000000000000000000000000000000000000000000000000000000000006001600160a01b0316636801cc308a8a8a6040518463ffffffff1660e01b8152600401611fe693929190614d4f565b602060405180830381865afa158015612003573d6000803e3d6000fd5b505050506040513d601f19601f820116820180604052508101906120279190614d73565b9050600080806001600160a01b038416156120b157836001600160a01b03166318160ddd6040518163ffffffff1660e01b8152600401602060405180830381865afa15801561207a573d6000803e3d6000fd5b505050506040513d601f19601f8201168201806040525081019061209e9190614d90565b90506120ab8c8c8c611810565b90935091505b821580156120bd575081155b156120ee578896508795506103e86120dd6120d8888a614da9565b6133f6565b6120e79190614c80565b9450612181565b60006120fb8a8585613460565b90508881116121435789975095508561213c84612118848b614da9565b6121229190614dc8565b8461212d858b614da9565b6121379190614dc8565b613540565b955061217f565b60006121508a8587613460565b985089975088905061217b856121668584614da9565b6121709190614dc8565b8561212d868c614da9565b9650505b505b50505050955095509592505050565b336001600160a01b037f000000000000000000000000000000000000000000000000000000000000000016146121d957604051638afe477f60e01b815260040160405180910390fd5b6000806000838060200190518101906121f291906153f6565b9250925092506000306001600160a01b0316635b676ff362030d4085856040518463ffffffff1660e01b815260040161222c9291906154fa565b600060405180830381600088803b15801561224657600080fd5b5087f193505050508015612258575060015b6122a6573d808015612286576040519150601f19603f3d011682016040523d82523d6000602084013e61228b565b606091505b506122a06001600160a01b0389168689613556565b60019150505b60004715612302576040516001600160a01b038616904790600081818185875af1925050503d80600081146122f7576040519150601f19603f3d011682016040523d82523d6000602084013e6122fc565b606091505b50909150505b6040805188815283151560208201528215158183015290516001600160a01b038a16917f7f345d6da48bd1339fd428ff45265a0f01258b14ca09dcf8db0c469f4f732fd3919081900360600190a25050505050505050505050565b600080600083428110156123835760405162461bcd60e51b815260040161061290614b5e565b6123b28b7f00000000000000000000000000000000000000000000000000000000000000008c8c348d8d612c68565b909450925060006123e48c7f00000000000000000000000000000000000000000000000000000000000000008d610f60565b90506123f28c33838861284d565b7f00000000000000000000000000000000000000000000000000000000000000006001600160a01b031663d0e30db0856040518263ffffffff1660e01b81526004016000604051808303818588803b15801561244d57600080fd5b505af1158015612461573d6000803e3d6000fd5b505060405163a9059cbb60e01b81526001600160a01b038581166004830152602482018990527f000000000000000000000000000000000000000000000000000000000000000016935063a9059cbb925060440190506020604051808303816000875af11580156124d6573d6000803e3d6000fd5b505050506040513d601f19601f820116820180604052508101906124fa9190614b8d565b612506576125066152e1565b6040516335313c2160e11b81526001600160a01b038881166004830152821690636a627842906024016020604051808303816000875af115801561254e573d6000803e3d6000fd5b505050506040513d601f19601f820116820180604052508101906125729190614d90565b92508334111561258f5761258f3361258a8634614c80565b612b9a565b50509750975097945050505050565b60008082428110156125c25760405162461bcd60e51b815260040161061290614b5e565b6125f28a7f00000000000000000000000000000000000000000000000000000000000000008b8b8b8b308b6105ee565b90935091506126028a8685613586565b604051632e1a7d4d60e01b8152600481018390527f00000000000000000000000000000000000000000000000000000000000000006001600160a01b031690632e1a7d4d90602401600060405180830381600087803b15801561266457600080fd5b505af1158015612678573d6000803e3d6000fd5b505050506126868583612b9a565b5097509795505050505050565b60405163e5e31b1360e01b81526001600160a01b0382811660048301526000917f00000000000000000000000000000000000000000000000000000000000000009091169063e5e31b1390602401602060405180830381865afa1580156126fe573d6000803e3d6000fd5b505050506040513d601f19601f820116820180604052508101906127229190614b8d565b92915050565b6060814281101561274b5760405162461bcd60e51b815260040161061290614b5e565b61279d888787808060200260200160405190810160405280939291908181526020016000905b82821015610ab45761278e60608302860136819003810190614d16565b81526020019060010190612771565b91508682600184516127af9190614c80565b815181106127bf576127bf614c54565b602002602001015110156127e55760405162461bcd60e51b815260040161061290614c97565b6127fb86866000818110610b1c57610b1c614c54565b610cfb828787808060200260200160405190810160405280939291908181526020016000905b82821015611c245761283e60608302860136819003810190614d16565b81526020019060010190612821565b6000846001600160a01b03163b1161286457600080fd5b604080516001600160a01b0385811660248301528481166044830152606480830185905283518084039091018152608490920183526020820180516001600160e01b03166323b872dd60e01b17905291516000928392908816916128c89190615595565b6000604051808303816000865af19150503d8060008114612905576040519150601f19603f3d011682016040523d82523d6000602084013e61290a565b606091505b50915091508180156129345750805115806129345750808060200190518101906129349190614b8d565b61293d57600080fd5b505050505050565b60005b8251811015612b9457600061299784838151811061296857612968614c54565b60200260200101516000015185848151811061298657612986614c54565b602002602001015160200151611030565b5090506000856129a88460016152f7565b815181106129b8576129b8614c54565b60200260200101519050600080836001600160a01b03168786815181106129e1576129e1614c54565b6020026020010151600001516001600160a01b031614612a0357826000612a07565b6000835b91509150600060018851612a1b9190614c80565b8610612a275786612a9a565b612a9a88612a368860016152f7565b81518110612a4657612a46614c54565b60200260200101516000015189886001612a6091906152f7565b81518110612a7057612a70614c54565b6020026020010151602001518a896001612a8a91906152f7565b8151811061097257610972614c54565b9050612aed888781518110612ab157612ab1614c54565b602002602001015160000151898881518110612acf57612acf614c54565b6020026020010151602001518a898151811061097257610972614c54565b6001600160a01b031663022c0d9f84848460006040519080825280601f01601f191660200182016040528015612b2a576020820181803683370190505b506040518563ffffffff1660e01b8152600401612b4a94939291906155b1565b600060405180830381600087803b158015612b6457600080fd5b505af1158015612b78573d6000803e3d6000fd5b5050505050505050508080612b8c90614f47565b915050612948565b50505050565b604080516000808252602082019092526001600160a01b038416908390604051612bc49190615595565b60006040518083038185875af1925050503d8060008114612c01576040519150601f19603f3d011682016040523d82523d6000602084013e612c06565b606091505b5050905080612c635760405162461bcd60e51b815260206004820152602360248201527f5472616e7366657248656c7065723a204554485f5452414e534645525f46414960448201526213115160ea1b6064820152608401610612565b505050565b60008083861015612c7857600080fd5b82851015612c8557600080fd5b6040516306801cc360e41b81526000906001600160a01b037f00000000000000000000000000000000000000000000000000000000000000001690636801cc3090612cd8908d908d908d90600401614d4f565b602060405180830381865afa158015612cf5573d6000803e3d6000fd5b505050506040513d601f19601f82011682018060405250810190612d199190614d73565b90506001600160a01b038116612dbf576040516320b7f73960e21b81526001600160a01b037f000000000000000000000000000000000000000000000000000000000000000016906382dfdce490612d79908d908d908d90600401614d4f565b6020604051808303816000875af1158015612d98573d6000803e3d6000fd5b505050506040513d601f19601f82011682018060405250810190612dbc9190614d73565b90505b600080612dcd8c8c8c611810565b91509150816000148015612ddf575080155b15612def57889450879350612e77565b6000612dfc8a8484613460565b9050888111612e305786811015612e255760405162461bcd60e51b815260040161061290614c11565b899550935083612e75565b6000612e3d8a8486613460565b90508a811115612e4f57612e4f6152e1565b88811015612e6f5760405162461bcd60e51b815260040161061290614bce565b95508894505b505b50505097509795505050505050565b6040516001600160a01b0380851660248301528316604482015260648101829052612b949085906323b872dd60e01b906084015b60408051601f198184030181529190526020810180516001600160e01b03166001600160e01b03199093169290921790915261366e565b60408181015190516370a0823160e01b8152306004820152600091612f8d917f0000000000000000000000000000000000000000000000000000000000000000906001600160a01b038316906370a08231906024015b602060405180830381865afa158015612f64573d6000803e3d6000fd5b505050506040513d601f19601f82011682018060405250810190612f889190614d90565b613740565b6040805161010081018252838201516001600160a01b0390811682526060808601518216602080850191825260808089015162ffffff90811687890190815230958801958652429288019283528a5160a08901908152938b015160c08901908152600060e08a01908152995163414bf38960e01b8152895189166004820152955188166024870152905190911660448501529351851660648401525160848301525160a4820152905160c48201529251811660e484015290917f00000000000000000000000000000000000000000000000000000000000000009091169063414bf38990610104015b6020604051808303816000875af1158015613095573d6000803e3d6000fd5b505050506040513d601f19601f820116820180604052508101906130b99190614d90565b9392505050565b60408181015190516370a0823160e01b815230600482015260009161311a917f0000000000000000000000000000000000000000000000000000000000000000906001600160a01b038316906370a0823190602401612f47565b6040805160a08082018352918401519184015160608086015160c08088015160808901516001600160601b031997851b8816928701929092526001600160e81b031960e895861b811660d488015292841b871660d787015290931b1660eb8401521b90911660ee8201526000908061010281016040516020818303038152906040528152602001306001600160a01b0316815260200142815260200184600001518152602001846020015181525090507f00000000000000000000000000000000000000000000000000000000000000006001600160a01b031663c04b8d59826040518263ffffffff1660e01b815260040161307691906155e8565b6000805482516040840151600154849361323d936001600160a01b03909116929091613839565b9050806001825161324e9190614c80565b8151811061325e5761325e614c54565b6020026020010151915082602001518210156132bc5760405162461bcd60e51b815260206004820152601760248201527f696e73756666696369656e742d616d6f756e742d6f75740000000000000000006044820152606401610612565b8260600151156133e15760008054604085015180516133e19361331f936001600160a01b031692916132f0576132f0614c54565b6020026020010151866040015160018151811061330f5761330f614c54565b60200260200101516001546139c5565b846040015160008151811061333657613336614c54565b60209081029190910101516040516370a0823160e01b81523060048201526001600160a01b03909116906370a0823190602401602060405180830381865afa158015613386573d6000803e3d6000fd5b505050506040513d601f19601f820116820180604052508101906133aa9190614d90565b85604001516000815181106133c1576133c1614c54565b60200260200101516001600160a01b03166135569092919063ffffffff16565b6133f081846040015130613a4b565b50919050565b600060038211156134515750806000613410600283614dc8565b61341b9060016152f7565b90505b818110156133f0579050806002816134368186614dc8565b61344091906152f7565b61344a9190614dc8565b905061341e565b811561345b575060015b919050565b60008084116134bb5760405162461bcd60e51b815260206004820152602160248201527f426173655631526f757465723a20494e53554646494349454e545f414d4f554e6044820152601560fa1b6064820152608401610612565b6000831180156134cb5750600082115b6135235760405162461bcd60e51b8152602060048201526024808201527f426173655631526f757465723a20494e53554646494349454e545f4c495155496044820152634449545960e01b6064820152608401610612565b8261352e8386614da9565b6135389190614dc8565b949350505050565b600081831061354f57816130b9565b5090919050565b6040516001600160a01b038316602482015260448101829052612c6390849063a9059cbb60e01b90606401612eba565b6000836001600160a01b03163b1161359d57600080fd5b604080516001600160a01b038481166024830152604480830185905283518084039091018152606490920183526020820180516001600160e01b031663a9059cbb60e01b17905291516000928392908716916135f99190615595565b6000604051808303816000865af19150503d8060008114613636576040519150601f19603f3d011682016040523d82523d6000602084013e61363b565b606091505b50915091508180156136655750805115806136655750808060200190518101906136659190614b8d565b6115b557600080fd5b60006136c3826040518060400160405280602081526020017f5361666545524332303a206c6f772d6c6576656c2063616c6c206661696c6564815250856001600160a01b0316613c229092919063ffffffff16565b805190915015612c6357808060200190518101906136e19190614b8d565b612c635760405162461bcd60e51b815260206004820152602a60248201527f5361666545524332303a204552433230206f7065726174696f6e20646964206e6044820152691bdd081cdd58d8d9595960b21b6064820152608401610612565b604080516001600160a01b038481166024830152604480830185905283518084039091018152606490920183526020820180516001600160e01b031663095ea7b360e01b179052915160009283929087169161379c9190615595565b6000604051808303816000865af19150503d80600081146137d9576040519150601f19603f3d011682016040523d82523d6000602084013e6137de565b606091505b50915091508180156138085750805115806138085750808060200190518101906138089190614b8d565b6115b55760405162461bcd60e51b8152602060048201526002602482015261534160f01b6044820152606401610612565b606060028351101561388d5760405162461bcd60e51b815260206004820152601e60248201527f556e697377617056324c6962726172793a20494e56414c49445f5041544800006044820152606401610612565b82516001600160401b038111156138a6576138a66146c3565b6040519080825280602002602001820160405280156138cf578160200160208202803683370190505b50905083816000815181106138e6576138e6614c54565b60200260200101818152505060005b600184516139039190614c80565b8110156139bc576000806139578887858151811061392357613923614c54565b60200260200101518886600161393991906152f7565b8151811061394957613949614c54565b602002602001015188613c31565b9150915061397f84848151811061397057613970614c54565b60200260200101518383613cfd565b8461398b8560016152f7565b8151811061399b5761399b614c54565b602002602001018181525050505080806139b490614f47565b9150506138f5565b50949350505050565b60008060006139d48686613e1c565b6040516001600160601b0319606084811b8216602084015283901b166034820152919350915087906048016040516020818303038152906040528051906020012085604051602001613a2893929190614dea565b60408051601f198184030181529190528051602090910120979650505050505050565b60005b60018351613a5c9190614c80565b811015612b9457600080848381518110613a7857613a78614c54565b602002602001015185846001613a8e91906152f7565b81518110613a9e57613a9e614c54565b6020026020010151915091506000613ab68383613e1c565b509050600087613ac78660016152f7565b81518110613ad757613ad7614c54565b60200260200101519050600080836001600160a01b0316866001600160a01b031614613b0557826000613b09565b6000835b91509150600060028a51613b1d9190614c80565b8810613b295788613b56565b600054613b56906001600160a01b0316878c613b468c60026152f7565b8151811061330f5761330f614c54565b9050613b7960008054906101000a90046001600160a01b031688886001546139c5565b6001600160a01b031663022c0d9f84848460006040519080825280601f01601f191660200182016040528015613bb6576020820181803683370190505b506040518563ffffffff1660e01b8152600401613bd694939291906155b1565b600060405180830381600087803b158015613bf057600080fd5b505af1158015613c04573d6000803e3d6000fd5b50505050505050505050508080613c1a90614f47565b915050613a4e565b60606135388484600085613f0c565b6000806000613c408686613e1c565b509050600080613c52898989896139c5565b6001600160a01b0316630902f1ac6040518163ffffffff1660e01b8152600401606060405180830381865afa158015613c8f573d6000803e3d6000fd5b505050506040513d601f19601f82011682018060405250810190613cb3919061529c565b506001600160701b031691506001600160701b03169150826001600160a01b0316886001600160a01b031614613cea578082613ced565b81815b909a909950975050505050505050565b6000808411613d625760405162461bcd60e51b815260206004820152602b60248201527f556e697377617056324c6962726172793a20494e53554646494349454e545f4960448201526a1394155517d05353d5539560aa1b6064820152608401610612565b600083118015613d725750600082115b613dcf5760405162461bcd60e51b815260206004820152602860248201527f556e697377617056324c6962726172793a20494e53554646494349454e545f4c604482015267495155494449545960c01b6064820152608401610612565b6000613ddd856103e5613fdc565b90506000613deb8285613fdc565b90506000613e0583613dff886103e8613fdc565b90614043565b9050613e118183614dc8565b979650505050505050565b600080826001600160a01b0316846001600160a01b031603613e8e5760405162461bcd60e51b815260206004820152602560248201527f556e697377617056324c6962726172793a204944454e544943414c5f41444452604482015264455353455360d81b6064820152608401610612565b826001600160a01b0316846001600160a01b031610613eae578284613eb1565b83835b90925090506001600160a01b03821661111c5760405162461bcd60e51b815260206004820152601e60248201527f556e697377617056324c6962726172793a205a45524f5f4144445245535300006044820152606401610612565b606082471015613f6d5760405162461bcd60e51b815260206004820152602660248201527f416464726573733a20696e73756666696369656e742062616c616e636520666f6044820152651c8818d85b1b60d21b6064820152608401610612565b600080866001600160a01b03168587604051613f899190615595565b60006040518083038185875af1925050503d8060008114613fc6576040519150601f19603f3d011682016040523d82523d6000602084013e613fcb565b606091505b5091509150613e1187838387614098565b600081158061400057508282613ff28183614da9565b9250613ffe9083614dc8565b145b6127225760405162461bcd60e51b815260206004820152601460248201527364732d6d6174682d6d756c2d6f766572666c6f7760601b6044820152606401610612565b60008261405083826152f7565b91508110156127225760405162461bcd60e51b815260206004820152601460248201527364732d6d6174682d6164642d6f766572666c6f7760601b6044820152606401610612565b60608315614107578251600003614100576001600160a01b0385163b6141005760405162461bcd60e51b815260206004820152601d60248201527f416464726573733a2063616c6c20746f206e6f6e2d636f6e74726163740000006044820152606401610612565b5081613538565b613538838381511561411c5781518083602001fd5b8060405162461bcd60e51b81526004016106129190615640565b6001600160a01b038116811461414b57600080fd5b50565b801515811461414b57600080fd5b600080600080600080600080610100898b03121561417957600080fd5b883561418481614136565b9750602089013561419481614136565b965060408901356141a48161414e565b9550606089013594506080890135935060a0890135925060c08901356141c981614136565b8092505060e089013590509295985092959890939650565b600080600080600080600060e0888a0312156141fc57600080fd5b8735965060208801359550604088013561421581614136565b9450606088013561422581614136565b935060808801356142358161414e565b925060a088013561424581614136565b8092505060c0880135905092959891949750929550565b6020808252825182820181905260009190848201906040850190845b8181101561429457835183529284019291840191600101614278565b50909695505050505050565b60008083601f8401126142b257600080fd5b5081356001600160401b038111156142c957600080fd5b60208301915083602060608302850101111561111c57600080fd5b60008060008060008060a087890312156142fd57600080fd5b863595506020870135945060408701356001600160401b0381111561432157600080fd5b61432d89828a016142a0565b909550935050606087013561434181614136565b80925050608087013590509295509295509295565b6000806000806080858703121561436c57600080fd5b843561437781614136565b9350602085013561438781614136565b925060408501356143978161414e565b9396929550929360600135925050565b60ff8116811461414b57600080fd5b60008060008060008060008060008060006101608c8e0312156143d857600080fd5b8b356143e381614136565b9a5060208c01356143f38161414e565b995060408c0135985060608c0135975060808c0135965060a08c013561441881614136565b955060c08c0135945060e08c013561442f8161414e565b93506101008c0135614440816143a7565b809350506101208c013591506101408c013590509295989b509295989b9093969950565b60008060006060848603121561447957600080fd5b833561448481614136565b9250602084013561449481614136565b915060408401356144a48161414e565b809150509250925092565b600080604083850312156144c257600080fd5b82356144cd81614136565b915060208301356144dd81614136565b809150509250929050565b60008060008060008060008060006101208a8c03121561450757600080fd5b893561451281614136565b985060208a013561452281614136565b975060408a01356145328161414e565b965060608a0135955060808a0135945060a08a0135935060c08a0135925060e08a013561455e81614136565b809250506101008a013590509295985092959850929598565b60008083601f84011261458957600080fd5b5081356001600160401b038111156145a057600080fd5b6020830191508360208260051b850101111561111c57600080fd5b600080600080604085870312156145d157600080fd5b84356001600160401b03808211156145e857600080fd5b6145f488838901614577565b9096509450602087013591508082111561460d57600080fd5b5061461a87828801614577565b95989497509550505050565b60008060006060848603121561463b57600080fd5b83359250602084013561464d81614136565b915060408401356144a481614136565b60008060008060006080868803121561467557600080fd5b8535945060208601356001600160401b0381111561469257600080fd5b61469e888289016142a0565b90955093505060408601356146b281614136565b949793965091946060013592915050565b634e487b7160e01b600052604160045260246000fd5b60405160a081016001600160401b03811182821017156146fb576146fb6146c3565b60405290565b60405160e081016001600160401b03811182821017156146fb576146fb6146c3565b604051608081016001600160401b03811182821017156146fb576146fb6146c3565b604051601f8201601f191681016001600160401b038111828210171561476d5761476d6146c3565b604052919050565b60006001600160401b0382111561478e5761478e6146c3565b5060051b60200190565b600082601f8301126147a957600080fd5b813560206147be6147b983614775565b614745565b82815260059290921b840181019181810190868411156147dd57600080fd5b8286015b84811015610cfb57803583529183019183016147e1565b60008060008060006080868803121561481057600080fd5b85356001600160401b038082111561482757600080fd5b61483389838a01614798565b9650602088013591508082111561484957600080fd5b5061469e888289016142a0565b60006060828403121561486857600080fd5b604051606081018181106001600160401b038211171561488a5761488a6146c3565b604052905080823561489b81614136565b815260208301356148ab81614136565b602082015260408301356148be8161414e565b6040919091015292915050565b600080604083850312156148de57600080fd5b823591506020808401356001600160401b038111156148fc57600080fd5b8401601f8101861361490d57600080fd5b803561491b6147b982614775565b8181526060918202830184019184820191908984111561493a57600080fd5b938501935b83851015614960576149518a86614856565b8352938401939185019161493f565b5080955050505050509250929050565b600080600080600060a0868803121561498857600080fd5b853561499381614136565b945060208601356149a381614136565b935060408601356149b38161414e565b94979396509394606081013594506080013592915050565b60006001600160401b038211156149e4576149e46146c3565b50601f01601f191660200190565b600082601f830112614a0357600080fd5b8135614a116147b9826149cb565b818152846020838601011115614a2657600080fd5b816020850160208301376000918101602001919091529392505050565b60008060008060008060c08789031215614a5c57600080fd5b863561ffff81168114614a6e57600080fd5b955060208701356001600160401b0380821115614a8a57600080fd5b614a968a838b016149f2565b96506040890135955060608901359150614aaf82614136565b9093506080880135925060a08801359080821115614acc57600080fd5b50614ad989828a016149f2565b9150509295509295509295565b600080600080600080600060e0888a031215614b0157600080fd5b8735614b0c81614136565b96506020880135614b1c8161414e565b955060408801359450606088013593506080880135925060a088013561424581614136565b600060208284031215614b5357600080fd5b81356130b981614136565b60208082526015908201527410985cd9558c549bdd5d195c8e8811561412549151605a1b604082015260600190565b600060208284031215614b9f57600080fd5b81516130b98161414e565b60008060408385031215614bbd57600080fd5b505080516020909101519092909150565b60208082526023908201527f426173655631526f757465723a20494e53554646494349454e545f415f414d4f60408201526215539560ea1b606082015260800190565b60208082526023908201527f426173655631526f757465723a20494e53554646494349454e545f425f414d4f60408201526215539560ea1b606082015260800190565b634e487b7160e01b600052603260045260246000fd5b634e487b7160e01b600052601160045260246000fd5b600082821015614c9257614c92614c6a565b500390565b60208082526028908201527f426173655631526f757465723a20494e53554646494349454e545f4f555450556040820152671517d05353d5539560c21b606082015260800190565b6020808252601a908201527f426173655631526f757465723a20494e56414c49445f50415448000000000000604082015260600190565b600060608284031215614d2857600080fd5b6130b98383614856565b600060208284031215614d4457600080fd5b81356130b98161414e565b6001600160a01b039384168152919092166020820152901515604082015260600190565b600060208284031215614d8557600080fd5b81516130b981614136565b600060208284031215614da257600080fd5b5051919050565b6000816000190483118215151615614dc357614dc3614c6a565b500290565b600082614de557634e487b7160e01b600052601260045260246000fd5b500490565b6001600160f81b0319815260609390931b6001600160601b03191660018401526015830191909152603582015260550190565b600060208284031215614e2f57600080fd5b81356130b9816143a7565b6000808335601e19843603018112614e5157600080fd5b8301803591506001600160401b03821115614e6b57600080fd5b60200191503681900382131561111c57600080fd5b600082601f830112614e9157600080fd5b81356020614ea16147b983614775565b82815260059290921b84018101918181019086841115614ec057600080fd5b8286015b84811015610cfb578035614ed781614136565b8352918301918301614ec4565b60008060408385031215614ef757600080fd5b82356001600160401b0380821115614f0e57600080fd5b614f1a86838701614e80565b93506020850135915080821115614f3057600080fd5b50614f3d85828601614798565b9150509250929050565b600060018201614f5957614f59614c6a565b5060010190565b600060208284031215614f7257600080fd5b5035919050565b803562ffffff8116811461345b57600080fd5b60006020808385031215614f9f57600080fd5b82356001600160401b03811115614fb557600080fd5b8301601f81018513614fc657600080fd5b8035614fd46147b982614775565b81815260a09182028301840191848201919088841115614ff357600080fd5b938501935b8385101561506a5780858a0312156150105760008081fd5b6150186146d9565b85358152868601358782015260408087013561503381614136565b9082015260608681013561504681614136565b908201526080615057878201614f79565b9082015283529384019391850191614ff8565b50979650505050505050565b6000602080838503121561508957600080fd5b82356001600160401b0381111561509f57600080fd5b8301601f810185136150b057600080fd5b80356150be6147b982614775565b81815260e091820283018401918482019190888411156150dd57600080fd5b938501935b8385101561506a5780858a0312156150fa5760008081fd5b615102614701565b85358152868601358782015260408087013561511d81614136565b9082015260608681013561513081614136565b9082015260808681013561514381614136565b9082015260a0615154878201614f79565b9082015260c0615165878201614f79565b90820152835293840193918501916150e2565b6000602080838503121561518b57600080fd5b82356001600160401b03808211156151a257600080fd5b818501915085601f8301126151b657600080fd5b81356151c46147b982614775565b81815260059190911b830184019084810190888311156151e357600080fd5b8585015b83811015615278578035858111156151fe57600080fd5b86016080818c03601f190112156152155760008081fd5b61521d614723565b8882013581526040808301358a830152606080840135898111156152415760008081fd5b61524f8f8d83880101614e80565b8385015250608084013593506152648461414e565b8201929092528452509186019186016151e7565b5098975050505050505050565b80516001600160701b038116811461345b57600080fd5b6000806000606084860312156152b157600080fd5b6152ba84615285565b92506152c860208501615285565b9150604084015163ffffffff811681146144a457600080fd5b634e487b7160e01b600052600160045260246000fd5b6000821982111561530a5761530a614c6a565b500190565b60005b8381101561532a578181015183820152602001615312565b83811115612b945750506000910152565b600082601f83011261534c57600080fd5b8151602061535c6147b983614775565b82815260059290921b8401810191818101908684111561537b57600080fd5b8286015b84811015610cfb5780516001600160401b0381111561539e5760008081fd5b8701603f810189136153b05760008081fd5b8481015160406153c26147b9836149cb565b8281528b828486010111156153d75760008081fd5b6153e68389830184870161530f565b865250505091830191830161537f565b60008060006060848603121561540b57600080fd5b835161541681614136565b809350506020808501516001600160401b038082111561543557600080fd5b818701915087601f83011261544957600080fd5b81516154576147b982614775565b81815260059190911b8301840190848101908a83111561547657600080fd5b938501935b8285101561549d57845161548e816143a7565b8252938501939085019061547b565b60408a015190975094505050808311156154b657600080fd5b50506154c48682870161533b565b9150509250925092565b600081518084526154e681602086016020860161530f565b601f01601f19169290920160200192915050565b604080825283519082018190526000906020906060840190828701845b8281101561553657815160ff1684529284019290840190600101615517565b50505083810382850152845180825282820190600581901b8301840187850160005b8381101561558657601f198684030185526155748383516154ce565b94870194925090860190600101615558565b50909998505050505050505050565b600082516155a781846020870161530f565b9190910192915050565b84815283602082015260018060a01b03831660408201526080606082015260006155de60808301846154ce565b9695505050505050565b602081526000825160a0602084015261560460c08401826154ce565b905060018060a01b0360208501511660408401526040840151606084015260608401516080840152608084015160a08401528091505092915050565b6020815260006130b960208301846154ce56fea2646970667358221220a005c26ce0fc99e8a2313155460e56bcae901a5e2b7f35cddf07923727a622b264736f6c634300080f0033",
    "linkReferences": {}
  },
  "methodIdentifiers": {
    "UNSAFE_swapExactTokensForTokens(uint256[],(address,address,bool)[],address,uint256)": "7301e3c8",
    "addLiquidity(address,address,bool,uint256,uint256,uint256,uint256,address,uint256)": "5a47ddc3",
    "addLiquidityETH(address,bool,uint256,uint256,uint256,address,uint256)": "b7e0d4c0",
    "arbitrumSwaps(uint8[],bytes[])": "5b676ff3",
    "factory()": "c45a0155",
    "feeCollector()": "c415b95c",
    "getAmountOut(uint256,address,address)": "5e1e6325",
    "getAmountsOut(uint256,(address,address,bool)[])": "9881fcb4",
    "getReserves(address,address,bool)": "5e60dab5",
    "isPair(address)": "e5e31b13",
    "pairCodeHash()": "9aab9248",
    "pairFor(address,address,bool)": "4c1ee03e",
    "quoteAddLiquidity(address,address,bool,uint256,uint256)": "98a0fb3c",
    "quoteRemoveLiquidity(address,address,bool,uint256)": "4386e63c",
    "removeLiquidity(address,address,bool,uint256,uint256,uint256,address,uint256)": "0dede6c4",
    "removeLiquidityETH(address,bool,uint256,uint256,uint256,address,uint256)": "d7b0e0a5",
    "removeLiquidityETHWithPermit(address,bool,uint256,uint256,uint256,address,uint256,bool,uint8,bytes32,bytes32)": "448725b4",
    "sgReceive(uint16,bytes,uint256,address,uint256,bytes)": "ab8236f3",
    "sortTokens(address,address)": "544caa56",
    "stargateRouter()": "a9e56f3c",
    "swapExactETHForTokens(uint256,(address,address,bool)[],address,uint256)": "67ffb66a",
    "swapExactTokensForETH(uint256,uint256,(address,address,bool)[],address,uint256)": "18a13086",
    "swapExactTokensForTokens(uint256,uint256,(address,address,bool)[],address,uint256)": "f41766d8",
    "swapExactTokensForTokensSimple(uint256,uint256,address,address,bool,address,uint256)": "13dcfc59",
    "swapRouter()": "c31c9c07",
    "xcalFactory()": "4588b7c5",
    "xcalWeth()": "750a1d48"
  },
  "id": 46
}