{
  "abi": [
    {
      "inputs": [
        {
          "internalType": "address",
          "name": "_weth",
          "type": "address"
        },
        {
          "internalType": "contract ISwapRouter",
          "name": "_swapRouter",
          "type": "address"
        },
        {
          "internalType": "address",
          "name": "_feeCollector",
          "type": "address"
        },
        {
          "internalType": "address",
          "name": "_factory",
          "type": "address"
        },
        {
          "internalType": "bytes32",
          "name": "_pairCodeHash",
          "type": "bytes32"
        },
        {
          "internalType": "address",
          "name": "_xcalFactory",
          "type": "address"
        },
        {
          "internalType": "address",
          "name": "_camelotRouter",
          "type": "address"
        },
        {
          "internalType": "contract IStargateRouter",
          "name": "_stargateRouter",
          "type": "address"
        }
      ],
      "stateMutability": "nonpayable",
      "type": "constructor"
    },
    {
      "inputs": [],
      "name": "InvaldStep",
      "type": "error"
    },
    {
      "inputs": [],
      "name": "MismatchedLengths",
      "type": "error"
    },
    {
      "inputs": [],
      "name": "MoreThanZero",
      "type": "error"
    },
    {
      "inputs": [],
      "name": "NotEnoughGas",
      "type": "error"
    },
    {
      "inputs": [],
      "name": "NotStgRouter",
      "type": "error"
    },
    {
      "inputs": [],
      "name": "WithdrawFailed",
      "type": "error"
    },
    {
      "anonymous": false,
      "inputs": [
        {
          "indexed": false,
          "internalType": "address",
          "name": "_token",
          "type": "address"
        },
        {
          "indexed": false,
          "internalType": "uint256",
          "name": "_fee",
          "type": "uint256"
        }
      ],
      "name": "FeePaid",
      "type": "event"
    },
    {
      "anonymous": false,
      "inputs": [
        {
          "indexed": true,
          "internalType": "address",
          "name": "token",
          "type": "address"
        },
        {
          "indexed": false,
          "internalType": "uint256",
          "name": "amountLD",
          "type": "uint256"
        },
        {
          "indexed": false,
          "internalType": "bool",
          "name": "failed",
          "type": "bool"
        },
        {
          "indexed": false,
          "internalType": "bool",
          "name": "dustSent",
          "type": "bool"
        }
      ],
      "name": "ReceivedOnDestination",
      "type": "event"
    },
    {
      "inputs": [
        {
          "internalType": "uint8[]",
          "name": "steps",
          "type": "uint8[]"
        },
        {
          "internalType": "bytes[]",
          "name": "data",
          "type": "bytes[]"
        }
      ],
      "name": "arbitrumSwaps",
      "outputs": [],
      "stateMutability": "payable",
      "type": "function"
    },
    {
      "inputs": [],
      "name": "factory",
      "outputs": [
        {
          "internalType": "address",
          "name": "",
          "type": "address"
        }
      ],
      "stateMutability": "view",
      "type": "function"
    },
    {
      "inputs": [],
      "name": "feeCollector",
      "outputs": [
        {
          "internalType": "address",
          "name": "",
          "type": "address"
        }
      ],
      "stateMutability": "view",
      "type": "function"
    },
    {
      "inputs": [
        {
          "internalType": "uint256",
          "name": "amountIn",
          "type": "uint256"
        },
        {
          "internalType": "address",
          "name": "tokenIn",
          "type": "address"
        },
        {
          "internalType": "address",
          "name": "tokenOut",
          "type": "address"
        }
      ],
      "name": "getAmountOut",
      "outputs": [
        {
          "internalType": "uint256",
          "name": "amount",
          "type": "uint256"
        },
        {
          "internalType": "bool",
          "name": "stable",
          "type": "bool"
        }
      ],
      "stateMutability": "view",
      "type": "function"
    },
    {
      "inputs": [
        {
          "internalType": "uint256",
          "name": "amountIn",
          "type": "uint256"
        },
        {
          "components": [
            {
              "internalType": "address",
              "name": "from",
              "type": "address"
            },
            {
              "internalType": "address",
              "name": "to",
              "type": "address"
            },
            {
              "internalType": "bool",
              "name": "stable",
              "type": "bool"
            }
          ],
          "internalType": "struct XCaliburAdapter.route[]",
          "name": "routes",
          "type": "tuple[]"
        }
      ],
      "name": "getAmountsOut",
      "outputs": [
        {
          "internalType": "uint256[]",
          "name": "amounts",
          "type": "uint256[]"
        }
      ],
      "stateMutability": "view",
      "type": "function"
    },
    {
      "inputs": [
        {
          "components": [
            {
              "internalType": "uint16",
              "name": "dstChainId",
              "type": "uint16"
            },
            {
              "internalType": "address",
              "name": "token",
              "type": "address"
            },
            {
              "internalType": "uint256",
              "name": "srcPoolId",
              "type": "uint256"
            },
            {
              "internalType": "uint256",
              "name": "dstPoolId",
              "type": "uint256"
            },
            {
              "internalType": "uint256",
              "name": "amount",
              "type": "uint256"
            },
            {
              "internalType": "uint256",
              "name": "amountMin",
              "type": "uint256"
            },
            {
              "internalType": "uint256",
              "name": "dustAmount",
              "type": "uint256"
            },
            {
              "internalType": "address",
              "name": "receiver",
              "type": "address"
            },
            {
              "internalType": "address",
              "name": "to",
              "type": "address"
            },
            {
              "internalType": "uint256",
              "name": "gas",
              "type": "uint256"
            },
            {
              "internalType": "bytes32",
              "name": "srcContext",
              "type": "bytes32"
            }
          ],
          "internalType": "struct StargateArbitrum.StargateParams",
          "name": "params",
          "type": "tuple"
        },
        {
          "internalType": "bytes",
          "name": "payload",
          "type": "bytes"
        }
      ],
      "name": "getFee",
      "outputs": [
        {
          "internalType": "uint256",
          "name": "_fee",
          "type": "uint256"
        }
      ],
      "stateMutability": "view",
      "type": "function"
    },
    {
      "inputs": [
        {
          "internalType": "address",
          "name": "pair",
          "type": "address"
        }
      ],
      "name": "isPair",
      "outputs": [
        {
          "internalType": "bool",
          "name": "",
          "type": "bool"
        }
      ],
      "stateMutability": "view",
      "type": "function"
    },
    {
      "inputs": [],
      "name": "pairCodeHash",
      "outputs": [
        {
          "internalType": "bytes32",
          "name": "",
          "type": "bytes32"
        }
      ],
      "stateMutability": "view",
      "type": "function"
    },
    {
      "inputs": [
        {
          "internalType": "address",
          "name": "tokenA",
          "type": "address"
        },
        {
          "internalType": "address",
          "name": "tokenB",
          "type": "address"
        },
        {
          "internalType": "bool",
          "name": "stable",
          "type": "bool"
        }
      ],
      "name": "pairFor",
      "outputs": [
        {
          "internalType": "address",
          "name": "pair",
          "type": "address"
        }
      ],
      "stateMutability": "view",
      "type": "function"
    },
    {
      "inputs": [
        {
          "internalType": "uint16",
          "name": "",
          "type": "uint16"
        },
        {
          "internalType": "bytes",
          "name": "",
          "type": "bytes"
        },
        {
          "internalType": "uint256",
          "name": "",
          "type": "uint256"
        },
        {
          "internalType": "address",
          "name": "_token",
          "type": "address"
        },
        {
          "internalType": "uint256",
          "name": "amountLD",
          "type": "uint256"
        },
        {
          "internalType": "bytes",
          "name": "_payload",
          "type": "bytes"
        }
      ],
      "name": "sgReceive",
      "outputs": [],
      "stateMutability": "nonpayable",
      "type": "function"
    },
    {
      "inputs": [
        {
          "internalType": "address",
          "name": "tokenA",
          "type": "address"
        },
        {
          "internalType": "address",
          "name": "tokenB",
          "type": "address"
        }
      ],
      "name": "sortTokens",
      "outputs": [
        {
          "internalType": "address",
          "name": "token0",
          "type": "address"
        },
        {
          "internalType": "address",
          "name": "token1",
          "type": "address"
        }
      ],
      "stateMutability": "pure",
      "type": "function"
    },
    {
      "inputs": [],
      "name": "stargateRouter",
      "outputs": [
        {
          "internalType": "contract IStargateRouter",
          "name": "",
          "type": "address"
        }
      ],
      "stateMutability": "view",
      "type": "function"
    },
    {
      "inputs": [],
      "name": "swapRouter",
      "outputs": [
        {
          "internalType": "contract ISwapRouter",
          "name": "",
          "type": "address"
        }
      ],
      "stateMutability": "view",
      "type": "function"
    },
    {
      "inputs": [],
      "name": "xcalFactory",
      "outputs": [
        {
          "internalType": "address",
          "name": "",
          "type": "address"
        }
      ],
      "stateMutability": "view",
      "type": "function"
    },
    {
      "inputs": [],
      "name": "xcalWeth",
      "outputs": [
        {
          "internalType": "contract IWETH",
          "name": "",
          "type": "address"
        }
      ],
      "stateMutability": "view",
      "type": "function"
    },
    {
      "stateMutability": "payable",
      "type": "receive"
    }
  ],
  "bytecode": {
    "object": "0x6101406040526003805460ff60a01b1916600160a01b1790553480156200002557600080fd5b5060405162004ae638038062004ae68339810160408190526200004891620001d4565b6001600160a01b03878116608052600080546001600160a01b03191687831617905560018590558290829085908b908216158015906200009057506001600160a01b03811615155b620000f65760405162461bcd60e51b815260206004820152602c60248201527f526f757465723a207a65726f20616464726573732070726f766964656420696e60448201526b1031b7b739ba393ab1ba37b960a11b606482015260840160405180910390fd5b6001600160a01b03821660a081905260408051631355724960e31b81529051639aab9248916004808201926020929091908290030181865afa15801562000141573d6000803e3d6000fd5b505050506040513d601f19601f8201168201806040525081019062000167919062000289565b60e0526001600160a01b0390811660c0529182166101005250600280549282166001600160a01b031993841617905598891661012052600380549790991696169590951790965550620002a3945050505050565b6001600160a01b0381168114620001d157600080fd5b50565b600080600080600080600080610100898b031215620001f257600080fd5b8851620001ff81620001bb565b60208a01519098506200021281620001bb565b60408a01519097506200022581620001bb565b60608a01519096506200023881620001bb565b60808a015160a08b015191965094506200025281620001bb565b60c08a01519093506200026581620001bb565b60e08a01519092506200027881620001bb565b809150509295985092959890939650565b6000602082840312156200029c57600080fd5b5051919050565b60805160a05160c05160e051610100516101205161478a6200035c6000396000818161087501528181610cb10152610d440152600081816102aa015281816103bb0152818161145901528181612106015261212d0152600061051e0152600061023301526000818161013d015281816104e301528181610f7001528181611084015281816112e201526116280152600081816102fe01528181611718015281816117fc01528181611880015261195b015261478a6000f3fe6080604052600436106100ec5760003560e01c80639881fcb41161008a578063c31c9c0711610059578063c31c9c07146102ec578063c415b95c14610320578063c45a015514610340578063e5e31b131461036057600080fd5b80639881fcb4146102555780639aab924814610282578063a9e56f3c14610298578063ab8236f3146102cc57600080fd5b8063544caa56116100c6578063544caa56146101975780635b676ff3146101d75780635e1e6325146101ec578063750a1d481461022157600080fd5b80634285f6e4146100f85780634588b7c51461012b5780634c1ee03e1461017757600080fd5b366100f357005b600080fd5b34801561010457600080fd5b506101186101133660046133d7565b610390565b6040519081526020015b60405180910390f35b34801561013757600080fd5b5061015f7f000000000000000000000000000000000000000000000000000000000000000081565b6040516001600160a01b039091168152602001610122565b34801561018357600080fd5b5061015f610192366004613435565b6104a1565b3480156101a357600080fd5b506101b76101b2366004613480565b610571565b604080516001600160a01b03938416815292909116602083015201610122565b6101ea6101e53660046134fd565b610669565b005b3480156101f857600080fd5b5061020c610207366004613568565b610f38565b60408051928352901515602083015201610122565b34801561022d57600080fd5b5061015f7f000000000000000000000000000000000000000000000000000000000000000081565b34801561026157600080fd5b50610275610270366004613671565b61118c565b60405161012291906136ad565b34801561028e57600080fd5b5061011860015481565b3480156102a457600080fd5b5061015f7f000000000000000000000000000000000000000000000000000000000000000081565b3480156102d857600080fd5b506101ea6102e73660046136f1565b61144e565b3480156102f857600080fd5b5061015f7f000000000000000000000000000000000000000000000000000000000000000081565b34801561032c57600080fd5b5060035461015f906001600160a01b031681565b34801561034c57600080fd5b5060005461015f906001600160a01b031681565b34801561036c57600080fd5b5061038061037b36600461378b565b611606565b6040519015158152602001610122565b6000808360e001516040516020016103a891906137a8565b60405160208183030381529060405290507f00000000000000000000000000000000000000000000000000000000000000006001600160a01b0316630a51236985600001516001848760405180606001604052808b610120015181526020018b60c0015181526020018b60e0015160405160200161042691906137a8565b6040516020818303038152906040528152506040518663ffffffff1660e01b8152600401610458959493929190613839565b6040805180830381865afa158015610474573d6000803e3d6000fd5b505050506040513d601f19601f820116820180604052508101906104989190613891565b50949350505050565b60008060006104b08686610571565b6040516001600160601b0319606084811b8216602084015283901b16603482015286151560f81b604882015291935091507f000000000000000000000000000000000000000000000000000000000000000090604901604051602081830303815290604052805190602001207f000000000000000000000000000000000000000000000000000000000000000060405160200161054f939291906138b5565b60408051601f1981840301815291905280516020909101209695505050505050565b600080826001600160a01b0316846001600160a01b0316036105e45760405162461bcd60e51b815260206004820152602160248201527f426173655631526f757465723a204944454e544943414c5f41444452455353456044820152605360f81b60648201526084015b60405180910390fd5b826001600160a01b0316846001600160a01b031610610604578284610607565b83835b90925090506001600160a01b0382166106625760405162461bcd60e51b815260206004820152601a60248201527f426173655631526f757465723a205a45524f5f4144445245535300000000000060448201526064016105db565b9250929050565b600354600160a01b900460ff166001146106b25760405162461bcd60e51b815260206004820152600a6024820152695245454e5452414e435960b01b60448201526064016105db565b6003805460ff60a01b1916600160a11b1790558083146106e5576040516373f8993760e11b815260040160405180910390fd5b60005b83811015610f1e576000858583818110610704576107046138e8565b9050602002016020810190610719919061390d565b905060001960ff8216016108115760008085858581811061073c5761073c6138e8565b905060200281019061074e919061392a565b81019061075b91906139df565b9150915060005b825181101561080957600082828151811061077f5761077f6138e8565b6020026020010151116107a55760405163fe4155c760e01b815260040160405180910390fd5b6107f733308484815181106107bc576107bc6138e8565b60200260200101518685815181106107d6576107d66138e8565b60200260200101516001600160a01b031661169b909392919063ffffffff16565b8061080181613aaf565b915050610762565b505050610f0b565b60011960ff8216016108ed576000848484818110610831576108316138e8565b9050602002810190610843919061392a565b8101906108509190613ac8565b9050806000036108735760405163fe4155c760e01b815260040160405180910390fd5b7f00000000000000000000000000000000000000000000000000000000000000006001600160a01b031663d0e30db0826040518263ffffffff1660e01b81526004016000604051808303818588803b1580156108ce57600080fd5b505af11580156108e2573d6000803e3d6000fd5b505050505050610f0b565b60021960ff82160161097d57600084848481811061090d5761090d6138e8565b905060200281019061091f919061392a565b81019061092c9190613af4565b905060005b815181101561097657600082828151811061094e5761094e6138e8565b602002602001015190506109618161170c565b5050808061096e90613aaf565b915050610931565b5050610f0b565b60031960ff8216016109ff57600084848481811061099d5761099d6138e8565b90506020028101906109af919061392a565b8101906109bc9190613bde565b905060005b8151811015610976576109ec8282815181106109df576109df6138e8565b6020026020010151611874565b50806109f781613aaf565b9150506109c1565b60041960ff821601610a81576000848484818110610a1f57610a1f6138e8565b9050602002810190610a31919061392a565b810190610a3e9190613ce0565b905060005b815181101561097657610a6e828281518110610a6157610a616138e8565b60200260200101516119a5565b5080610a7981613aaf565b915050610a43565b60051960ff821601610bf0576000848484818110610aa157610aa16138e8565b9050602002810190610ab3919061392a565b810190610ac09190613ded565b905060005b815181101561097657818181518110610ae057610ae06138e8565b602002602001015160400151600081518110610afe57610afe6138e8565b6020026020010151600001516001600160a01b031663095ea7b3738e72bf5a45f800e182362bdf906dfb13d5d5cb5d848481518110610b3f57610b3f6138e8565b6020908102919091010151516040516001600160e01b031960e085901b1681526001600160a01b03909216600483015260248201526044016020604051808303816000875af1158015610b96573d6000803e3d6000fd5b505050506040513d601f19601f82011682018060405250810190610bba9190613ee7565b50610bdd828281518110610bd057610bd06138e8565b6020026020010151611b85565b5080610be881613aaf565b915050610ac5565b60061960ff821601610c5057600080600080878787818110610c1457610c146138e8565b9050602002810190610c26919061392a565b810190610c339190613f04565b9350935093509350610c4784848484611d28565b50505050610f0b565b600c1960ff821601610dde57600080858585818110610c7157610c716138e8565b9050602002810190610c83919061392a565b810190610c909190613f64565b9150915080600003610d29576040516370a0823160e01b81523060048201527f00000000000000000000000000000000000000000000000000000000000000006001600160a01b0316906370a0823190602401602060405180830381865afa158015610d00573d6000803e3d6000fd5b505050506040513d601f19601f82011682018060405250810190610d249190613f90565b610d2b565b805b604051632e1a7d4d60e01b8152600481018290529091507f00000000000000000000000000000000000000000000000000000000000000006001600160a01b031690632e1a7d4d90602401600060405180830381600087803b158015610d9057600080fd5b505af1158015610da4573d6000803e3d6000fd5b505050506000610db382611e67565b9050610dc883610dc38385613fa9565b611e8c565b600354610809906001600160a01b031682611e8c565b600d1960ff821601610e9f576000848484818110610dfe57610dfe6138e8565b9050602002810190610e10919061392a565b810190610e1d9190613fbc565b905060005b815181101561097657610e8d828281518110610e4057610e406138e8565b602002602001015160000151838381518110610e5e57610e5e6138e8565b602002602001015160400151848481518110610e7c57610e7c6138e8565b602002602001015160200151611ee2565b80610e9781613aaf565b915050610e22565b600e1960ff821601610ef2576000806000868686818110610ec257610ec26138e8565b9050602002810190610ed4919061392a565b810190610ee191906140fe565b925092509250610809838383611feb565b6040516379df70e560e11b815260040160405180910390fd5b5080610f1681613aaf565b9150506106e8565b50506003805460ff60a01b1916600160a01b179055505050565b6000806000610f49858560016104a1565b60405163e5e31b1360e01b81526001600160a01b03828116600483015291925060009182917f00000000000000000000000000000000000000000000000000000000000000009091169063e5e31b1390602401602060405180830381865afa158015610fb9573d6000803e3d6000fd5b505050506040513d601f19601f82011682018060405250810190610fdd9190613ee7565b15611056576040516378a051ad60e11b8152600481018990526001600160a01b03888116602483015284169063f140a35a90604401602060405180830381865afa15801561102f573d6000803e3d6000fd5b505050506040513d601f19601f820116820180604052508101906110539190613f90565b91505b611062878760006104a1565b60405163e5e31b1360e01b81526001600160a01b0380831660048301529194507f00000000000000000000000000000000000000000000000000000000000000009091169063e5e31b1390602401602060405180830381865afa1580156110cd573d6000803e3d6000fd5b505050506040513d601f19601f820116820180604052508101906110f19190613ee7565b1561116a576040516378a051ad60e11b8152600481018990526001600160a01b03888116602483015284169063f140a35a90604401602060405180830381865afa158015611143573d6000803e3d6000fd5b505050506040513d601f19601f820116820180604052508101906111679190613f90565b90505b8082116111795780600061117d565b8160015b94509450505050935093915050565b60606001825110156111e05760405162461bcd60e51b815260206004820152601a60248201527f426173655631526f757465723a20494e56414c49445f5041544800000000000060448201526064016105db565b81516111ed9060016141d6565b6001600160401b038111156112045761120461317d565b60405190808252806020026020018201604052801561122d578160200160208202803683370190505b5090508281600081518110611244576112446138e8565b60200260200101818152505060005b82518110156114475760006112c0848381518110611273576112736138e8565b602002602001015160000151858481518110611291576112916138e8565b6020026020010151602001518685815181106112af576112af6138e8565b6020026020010151604001516104a1565b60405163e5e31b1360e01b81526001600160a01b0380831660048301529192507f00000000000000000000000000000000000000000000000000000000000000009091169063e5e31b1390602401602060405180830381865afa15801561132b573d6000803e3d6000fd5b505050506040513d601f19601f8201168201806040525081019061134f9190613ee7565b1561143457806001600160a01b031663f140a35a848481518110611375576113756138e8565b602002602001015186858151811061138f5761138f6138e8565b6020026020010151600001516040518363ffffffff1660e01b81526004016113ca9291909182526001600160a01b0316602082015260400190565b602060405180830381865afa1580156113e7573d6000803e3d6000fd5b505050506040513d601f19601f8201168201806040525081019061140b9190613f90565b836114178460016141d6565b81518110611427576114276138e8565b6020026020010181815250505b508061143f81613aaf565b915050611253565b5092915050565b336001600160a01b037f0000000000000000000000000000000000000000000000000000000000000000161461149757604051638afe477f60e01b815260040160405180910390fd5b600080620186a081815a6114ab9190613fa9565b90506000806000878060200190518101906114c691906142a4565b925092509250845a10156114f8576114e86001600160a01b038b16848b61221e565b47156114f8576114f88347611e8c565b604051635b676ff360e01b81523090635b676ff390869061151f9086908690600401614405565b600060405180830381600088803b15801561153957600080fd5b5087f19350505050801561154b575060015b611599573d808015611579576040519150601f19603f3d011682016040523d82523d6000602084013e61157e565b606091505b506115936001600160a01b038c16858c61221e565b60019750505b47156115a9576115a98347611e8c565b604080518a815288151560208201528715158183015290516001600160a01b038c16917f7f345d6da48bd1339fd428ff45265a0f01258b14ca09dcf8db0c469f4f732fd3919081900360600190a250505050505050505050505050565b60405163e5e31b1360e01b81526001600160a01b0382811660048301526000917f00000000000000000000000000000000000000000000000000000000000000009091169063e5e31b1390602401602060405180830381865afa158015611671573d6000803e3d6000fd5b505050506040513d601f19601f820116820180604052508101906116959190613ee7565b92915050565b6040516001600160a01b03808516602483015283166044820152606481018290526117069085906323b872dd60e01b906084015b60408051601f198184030181529190526020810180516001600160e01b03166001600160e01b03199093169290921790915261224e565b50505050565b600061174182604001517f00000000000000000000000000000000000000000000000000000000000000008460000151612320565b6040805161010081018252838201516001600160a01b0390811682526060808601518216602080850191825260808089015162ffffff90811687890190815230958801958652429288019283528a5160a08901908152938b015160c08901908152600060e08a01908152995163414bf38960e01b8152895189166004820152955188166024870152905190911660448501529351851660648401525160848301525160a4820152905160c48201529251811660e484015290917f00000000000000000000000000000000000000000000000000000000000000009091169063414bf38990610104015b6020604051808303816000875af1158015611849573d6000803e3d6000fd5b505050506040513d601f19601f8201168201806040525081019061186d9190613f90565b9392505050565b60006118a982604001517f00000000000000000000000000000000000000000000000000000000000000008460000151612320565b6040805160a08082018352918401519184015160608086015160c08088015160808901516001600160601b031997851b8816928701929092526001600160e81b031960e895861b811660d488015292841b871660d787015290931b1660eb8401521b90911660ee8201526000908061010281016040516020818303038152906040528152602001306001600160a01b0316815260200142815260200184600001518152602001846020015181525090507f00000000000000000000000000000000000000000000000000000000000000006001600160a01b031663c04b8d59826040518263ffffffff1660e01b815260040161182a9190614433565b600080548251604084015160015484936119cc936001600160a01b03909116929091612420565b905080600182516119dd9190613fa9565b815181106119ed576119ed6138e8565b602002602001015191508260200151821015611a4b5760405162461bcd60e51b815260206004820152601760248201527f696e73756666696369656e742d616d6f756e742d6f757400000000000000000060448201526064016105db565b826060015115611b70576000805460408501518051611b7093611aae936001600160a01b03169291611a7f57611a7f6138e8565b60200260200101518660400151600181518110611a9e57611a9e6138e8565b60200260200101516001546125a3565b8460400151600081518110611ac557611ac56138e8565b60209081029190910101516040516370a0823160e01b81523060048201526001600160a01b03909116906370a0823190602401602060405180830381865afa158015611b15573d6000803e3d6000fd5b505050506040513d601f19601f82011682018060405250810190611b399190613f90565b8560400151600081518110611b5057611b506138e8565b60200260200101516001600160a01b031661221e9092919063ffffffff16565b611b7f81846040015130612629565b50919050565b6060816060015142811015611bd45760405162461bcd60e51b815260206004820152601560248201527410985cd9558c549bdd5d195c8e8811561412549151605a1b60448201526064016105db565b611be68360000151846040015161118c565b915082602001518260018451611bfc9190613fa9565b81518110611c0c57611c0c6138e8565b60200260200101511015611c735760405162461bcd60e51b815260206004820152602860248201527f426173655631526f757465723a20494e53554646494349454e545f4f555450556044820152671517d05353d5539560c21b60648201526084016105db565b611d198360400151600081518110611c8d57611c8d6138e8565b602002602001015160000151611cf98560400151600081518110611cb357611cb36138e8565b6020026020010151600001518660400151600081518110611cd657611cd66138e8565b60200260200101516020015187604001516000815181106112af576112af6138e8565b84600081518110611d0c57611d0c6138e8565b6020026020010151612800565b611b7f828460400151306128e8565b82600081518110611d3b57611d3b6138e8565b602090810291909101015160025460405163095ea7b360e01b81526001600160a01b0391821660048201526024810187905291169063095ea7b3906044016020604051808303816000875af1158015611d98573d6000803e3d6000fd5b505050506040513d601f19601f82011682018060405250810190611dbc9190613ee7565b506000611dc98585612b37565b60025481519192506001600160a01b03169063ac3893ba9087908490611df190600190613fa9565b81518110611e0157611e016138e8565b6020026020010151873088886040518763ffffffff1660e01b8152600401611e2e969594939291906144c4565b600060405180830381600087803b158015611e4857600080fd5b505af1158015611e5c573d6000803e3d6000fd5b505050505050505050565b6000612710611e788361270b614508565b611e82919061451f565b6116959083613fa9565b600080600080600085875af1905080611edd5760405162461bcd60e51b815260206004820152601360248201527211551217d514905394d1915497d19052531151606a1b60448201526064016105db565b505050565b81600003611f57576040516370a0823160e01b81523060048201526001600160a01b038416906370a0823190602401602060405180830381865afa158015611f2e573d6000803e3d6000fd5b505050506040513d601f19601f82011682018060405250810190611f529190613f90565b611f59565b815b91506000611f6683611e67565b9050611f728184613fa9565b600354909350611f8f906001600160a01b0386811691168361221e565b611fa36001600160a01b038516838561221e565b604080516001600160a01b0386168152602081018390527f075a2720282fdf622141dae0b048ef90a21a7e57c134c76912d19d006b3b3f6f910160405180910390a150505050565b805182511461200d576040516373f8993760e11b815260040160405180910390fd5b620186a0836101200151101561203657604051636eb14fc360e11b815260040160405180910390fd5b6000836101000151838360405160200161205293929190614541565b604051602081830303815290604052905083608001516000036120e25760208401516040516370a0823160e01b81523060048201526001600160a01b03909116906370a0823190602401602060405180830381865afa1580156120b9573d6000803e3d6000fd5b505050506040513d601f19601f820116820180604052508101906120dd9190613f90565b6120e8565b83608001515b60808501819052602085015161212b916001600160a01b03909116907f000000000000000000000000000000000000000000000000000000000000000090612baf565b7f00000000000000000000000000000000000000000000000000000000000000006001600160a01b0316639fbf10fc47866000015187604001518860600151338a608001518b60a0015160405180606001604052808e610120015181526020018e60c0015181526020018e60e001516040516020016121aa91906137a8565b6040516020818303038152906040528152508d60e001516040516020016121d191906137a8565b6040516020818303038152906040528b6040518b63ffffffff1660e01b815260040161220599989796959493929190614581565b6000604051808303818588803b158015611e4857600080fd5b6040516001600160a01b038316602482015260448101829052611edd90849063a9059cbb60e01b906064016116cf565b60006122a3826040518060400160405280602081526020017f5361666545524332303a206c6f772d6c6576656c2063616c6c206661696c6564815250856001600160a01b0316612c619092919063ffffffff16565b805190915015611edd57808060200190518101906122c19190613ee7565b611edd5760405162461bcd60e51b815260206004820152602a60248201527f5361666545524332303a204552433230206f7065726174696f6e20646964206e6044820152691bdd081cdd58d8d9595960b21b60648201526084016105db565b604080516001600160a01b038481166024830152604480830185905283518084039091018152606490920183526020820180516001600160e01b031663095ea7b360e01b179052915160009283929087169161237c91906145fe565b6000604051808303816000865af19150503d80600081146123b9576040519150601f19603f3d011682016040523d82523d6000602084013e6123be565b606091505b50915091508180156123e85750805115806123e85750808060200190518101906123e89190613ee7565b6124195760405162461bcd60e51b8152602060048201526002602482015261534160f01b60448201526064016105db565b5050505050565b60606002835110156124745760405162461bcd60e51b815260206004820152601e60248201527f556e697377617056324c6962726172793a20494e56414c49445f50415448000060448201526064016105db565b82516001600160401b0381111561248d5761248d61317d565b6040519080825280602002602001820160405280156124b6578160200160208202803683370190505b50905083816000815181106124cd576124cd6138e8565b60200260200101818152505060005b600184516124ea9190613fa9565b8110156104985760008061253e8887858151811061250a5761250a6138e8565b60200260200101518886600161252091906141d6565b81518110612530576125306138e8565b602002602001015188612c78565b91509150612566848481518110612557576125576138e8565b60200260200101518383612d44565b846125728560016141d6565b81518110612582576125826138e8565b6020026020010181815250505050808061259b90613aaf565b9150506124dc565b60008060006125b28686612e63565b6040516001600160601b0319606084811b8216602084015283901b166034820152919350915087906048016040516020818303038152906040528051906020012085604051602001612606939291906138b5565b60408051601f198184030181529190528051602090910120979650505050505050565b60005b6001835161263a9190613fa9565b81101561170657600080848381518110612656576126566138e8565b60200260200101518584600161266c91906141d6565b8151811061267c5761267c6138e8565b60200260200101519150915060006126948383612e63565b5090506000876126a58660016141d6565b815181106126b5576126b56138e8565b60200260200101519050600080836001600160a01b0316866001600160a01b0316146126e3578260006126e7565b6000835b91509150600060028a516126fb9190613fa9565b88106127075788612734565b600054612734906001600160a01b0316878c6127248c60026141d6565b81518110611a9e57611a9e6138e8565b905061275760008054906101000a90046001600160a01b031688886001546125a3565b6001600160a01b031663022c0d9f84848460006040519080825280601f01601f191660200182016040528015612794576020820181803683370190505b506040518563ffffffff1660e01b81526004016127b4949392919061461a565b600060405180830381600087803b1580156127ce57600080fd5b505af11580156127e2573d6000803e3d6000fd5b505050505050505050505080806127f890613aaf565b91505061262c565b6000836001600160a01b03163b1161281757600080fd5b604080516001600160a01b038481166024830152604480830185905283518084039091018152606490920183526020820180516001600160e01b031663a9059cbb60e01b179052915160009283929087169161287391906145fe565b6000604051808303816000865af19150503d80600081146128b0576040519150601f19603f3d011682016040523d82523d6000602084013e6128b5565b606091505b50915091508180156128df5750805115806128df5750808060200190518101906128df9190613ee7565b61241957600080fd5b60005b825181101561170657600061293a84838151811061290b5761290b6138e8565b602002602001015160000151858481518110612929576129296138e8565b602002602001015160200151610571565b50905060008561294b8460016141d6565b8151811061295b5761295b6138e8565b60200260200101519050600080836001600160a01b0316878681518110612984576129846138e8565b6020026020010151600001516001600160a01b0316146129a6578260006129aa565b6000835b915091506000600188516129be9190613fa9565b86106129ca5786612a3d565b612a3d886129d98860016141d6565b815181106129e9576129e96138e8565b60200260200101516000015189886001612a0391906141d6565b81518110612a1357612a136138e8565b6020026020010151602001518a896001612a2d91906141d6565b815181106112af576112af6138e8565b9050612a90888781518110612a5457612a546138e8565b602002602001015160000151898881518110612a7257612a726138e8565b6020026020010151602001518a89815181106112af576112af6138e8565b6001600160a01b031663022c0d9f84848460006040519080825280601f01601f191660200182016040528015612acd576020820181803683370190505b506040518563ffffffff1660e01b8152600401612aed949392919061461a565b600060405180830381600087803b158015612b0757600080fd5b505af1158015612b1b573d6000803e3d6000fd5b5050505050505050508080612b2f90613aaf565b9150506128eb565b60025460405163d06ca61f60e01b81526060916001600160a01b03169063d06ca61f90612b6a9086908690600401614647565b600060405180830381865afa158015612b87573d6000803e3d6000fd5b505050506040513d6000823e601f3d908101601f1916820160405261186d9190810190614660565b604051636eb1769f60e11b81523060048201526001600160a01b038381166024830152600091839186169063dd62ed3e90604401602060405180830381865afa158015612c00573d6000803e3d6000fd5b505050506040513d601f19601f82011682018060405250810190612c249190613f90565b612c2e91906141d6565b6040516001600160a01b03851660248201526044810182905290915061170690859063095ea7b360e01b906064016116cf565b6060612c708484600085612f53565b949350505050565b6000806000612c878686612e63565b509050600080612c99898989896125a3565b6001600160a01b0316630902f1ac6040518163ffffffff1660e01b8152600401606060405180830381865afa158015612cd6573d6000803e3d6000fd5b505050506040513d601f19601f82011682018060405250810190612cfa91906146fc565b506001600160701b031691506001600160701b03169150826001600160a01b0316886001600160a01b031614612d31578082612d34565b81815b909a909950975050505050505050565b6000808411612da95760405162461bcd60e51b815260206004820152602b60248201527f556e697377617056324c6962726172793a20494e53554646494349454e545f4960448201526a1394155517d05353d5539560aa1b60648201526084016105db565b600083118015612db95750600082115b612e165760405162461bcd60e51b815260206004820152602860248201527f556e697377617056324c6962726172793a20494e53554646494349454e545f4c604482015267495155494449545960c01b60648201526084016105db565b6000612e24856103e5613023565b90506000612e328285613023565b90506000612e4c83612e46886103e8613023565b9061308a565b9050612e58818361451f565b979650505050505050565b600080826001600160a01b0316846001600160a01b031603612ed55760405162461bcd60e51b815260206004820152602560248201527f556e697377617056324c6962726172793a204944454e544943414c5f41444452604482015264455353455360d81b60648201526084016105db565b826001600160a01b0316846001600160a01b031610612ef5578284612ef8565b83835b90925090506001600160a01b0382166106625760405162461bcd60e51b815260206004820152601e60248201527f556e697377617056324c6962726172793a205a45524f5f41444452455353000060448201526064016105db565b606082471015612fb45760405162461bcd60e51b815260206004820152602660248201527f416464726573733a20696e73756666696369656e742062616c616e636520666f6044820152651c8818d85b1b60d21b60648201526084016105db565b600080866001600160a01b03168587604051612fd091906145fe565b60006040518083038185875af1925050503d806000811461300d576040519150601f19603f3d011682016040523d82523d6000602084013e613012565b606091505b5091509150612e58878383876130df565b6000811580613047575082826130398183614508565b9250613045908361451f565b145b6116955760405162461bcd60e51b815260206004820152601460248201527364732d6d6174682d6d756c2d6f766572666c6f7760601b60448201526064016105db565b60008261309783826141d6565b91508110156116955760405162461bcd60e51b815260206004820152601460248201527364732d6d6174682d6164642d6f766572666c6f7760601b60448201526064016105db565b6060831561314e578251600003613147576001600160a01b0385163b6131475760405162461bcd60e51b815260206004820152601d60248201527f416464726573733a2063616c6c20746f206e6f6e2d636f6e747261637400000060448201526064016105db565b5081612c70565b612c7083838151156131635781518083602001fd5b8060405162461bcd60e51b81526004016105db9190614741565b634e487b7160e01b600052604160045260246000fd5b60405161016081016001600160401b03811182821017156131b6576131b661317d565b60405290565b604051606081016001600160401b03811182821017156131b6576131b661317d565b60405160a081016001600160401b03811182821017156131b6576131b661317d565b60405160e081016001600160401b03811182821017156131b6576131b661317d565b604051608081016001600160401b03811182821017156131b6576131b661317d565b604051601f8201601f191681016001600160401b038111828210171561326c5761326c61317d565b604052919050565b803561ffff8116811461328657600080fd5b919050565b6001600160a01b03811681146132a057600080fd5b50565b80356132868161328b565b600061016082840312156132c157600080fd5b6132c9613193565b90506132d482613274565b81526132e2602083016132a3565b602082015260408201356040820152606082013560608201526080820135608082015260a082013560a082015260c082013560c082015261332560e083016132a3565b60e08201526101006133388184016132a3565b9082015261012082810135908201526101409182013591810191909152919050565b60006001600160401b038211156133735761337361317d565b50601f01601f191660200190565b600082601f83011261339257600080fd5b81356133a56133a08261335a565b613244565b8181528460208386010111156133ba57600080fd5b816020850160208301376000918101602001919091529392505050565b60008061018083850312156133eb57600080fd5b6133f584846132ae565b91506101608301356001600160401b0381111561341157600080fd5b61341d85828601613381565b9150509250929050565b80151581146132a057600080fd5b60008060006060848603121561344a57600080fd5b83356134558161328b565b925060208401356134658161328b565b9150604084013561347581613427565b809150509250925092565b6000806040838503121561349357600080fd5b823561349e8161328b565b915060208301356134ae8161328b565b809150509250929050565b60008083601f8401126134cb57600080fd5b5081356001600160401b038111156134e257600080fd5b6020830191508360208260051b850101111561066257600080fd5b6000806000806040858703121561351357600080fd5b84356001600160401b038082111561352a57600080fd5b613536888389016134b9565b9096509450602087013591508082111561354f57600080fd5b5061355c878288016134b9565b95989497509550505050565b60008060006060848603121561357d57600080fd5b83359250602084013561358f8161328b565b915060408401356134758161328b565b60006001600160401b038211156135b8576135b861317d565b5060051b60200190565b600082601f8301126135d357600080fd5b813560206135e36133a08361359f565b8281526060928302850182019282820191908785111561360257600080fd5b8387015b858110156136645781818a03121561361e5760008081fd5b6136266131bc565b81356136318161328b565b8152818601356136408161328b565b8187015260408281013561365381613427565b908201528452928401928101613606565b5090979650505050505050565b6000806040838503121561368457600080fd5b8235915060208301356001600160401b038111156136a157600080fd5b61341d858286016135c2565b6020808252825182820181905260009190848201906040850190845b818110156136e5578351835292840192918401916001016136c9565b50909695505050505050565b60008060008060008060c0878903121561370a57600080fd5b61371387613274565b955060208701356001600160401b038082111561372f57600080fd5b61373b8a838b01613381565b965060408901359550606089013591506137548261328b565b9093506080880135925060a0880135908082111561377157600080fd5b5061377e89828a01613381565b9150509295509295509295565b60006020828403121561379d57600080fd5b813561186d8161328b565b60609190911b6001600160601b031916815260140190565b60005b838110156137db5781810151838201526020016137c3565b50506000910152565b600081518084526137fc8160208601602086016137c0565b601f01601f19169290920160200192915050565b80518252602081015160208301526000604082015160606040850152612c7060608501826137e4565b61ffff8616815260ff8516602082015260a06040820152600061385f60a08301866137e4565b828103606084015261387181866137e4565b905082810360808401526138858185613810565b98975050505050505050565b600080604083850312156138a457600080fd5b505080516020909101519092909150565b6001600160f81b0319815260609390931b6001600160601b03191660018401526015830191909152603582015260550190565b634e487b7160e01b600052603260045260246000fd5b60ff811681146132a057600080fd5b60006020828403121561391f57600080fd5b813561186d816138fe565b6000808335601e1984360301811261394157600080fd5b8301803591506001600160401b0382111561395b57600080fd5b60200191503681900382131561066257600080fd5b600082601f83011261398157600080fd5b813560206139916133a08361359f565b82815260059290921b840181019181810190868411156139b057600080fd5b8286015b848110156139d45780356139c78161328b565b83529183019183016139b4565b509695505050505050565b600080604083850312156139f257600080fd5b82356001600160401b0380821115613a0957600080fd5b613a1586838701613970565b9350602091508185013581811115613a2c57600080fd5b85019050601f81018613613a3f57600080fd5b8035613a4d6133a08261359f565b81815260059190911b82018301908381019088831115613a6c57600080fd5b928401925b82841015613a8a57833582529284019290840190613a71565b80955050505050509250929050565b634e487b7160e01b600052601160045260246000fd5b600060018201613ac157613ac1613a99565b5060010190565b600060208284031215613ada57600080fd5b5035919050565b803562ffffff8116811461328657600080fd5b60006020808385031215613b0757600080fd5b82356001600160401b03811115613b1d57600080fd5b8301601f81018513613b2e57600080fd5b8035613b3c6133a08261359f565b81815260a09182028301840191848201919088841115613b5b57600080fd5b938501935b83851015613bd25780858a031215613b785760008081fd5b613b806131de565b853581528686013587820152604080870135613b9b8161328b565b90820152606086810135613bae8161328b565b908201526080613bbf878201613ae1565b9082015283529384019391850191613b60565b50979650505050505050565b60006020808385031215613bf157600080fd5b82356001600160401b03811115613c0757600080fd5b8301601f81018513613c1857600080fd5b8035613c266133a08261359f565b81815260e09182028301840191848201919088841115613c4557600080fd5b938501935b83851015613bd25780858a031215613c625760008081fd5b613c6a613200565b853581528686013587820152604080870135613c858161328b565b90820152606086810135613c988161328b565b90820152608086810135613cab8161328b565b9082015260a0613cbc878201613ae1565b9082015260c0613ccd878201613ae1565b9082015283529384019391850191613c4a565b60006020808385031215613cf357600080fd5b82356001600160401b0380821115613d0a57600080fd5b818501915085601f830112613d1e57600080fd5b8135613d2c6133a08261359f565b81815260059190911b83018401908481019088831115613d4b57600080fd5b8585015b83811015613de057803585811115613d6657600080fd5b86016080818c03601f19011215613d7d5760008081fd5b613d85613222565b8882013581526040808301358a83015260608084013589811115613da95760008081fd5b613db78f8d83880101613970565b838501525060808401359350613dcc84613427565b820192909252845250918601918601613d4f565b5098975050505050505050565b60006020808385031215613e0057600080fd5b82356001600160401b0380821115613e1757600080fd5b818501915085601f830112613e2b57600080fd5b8135613e396133a08261359f565b81815260059190911b83018401908481019088831115613e5857600080fd5b8585015b83811015613de057803585811115613e7357600080fd5b86016080818c03601f19011215613e8a5760008081fd5b613e92613222565b8882013581526040808301358a83015260608084013589811115613eb65760008081fd5b613ec48f8d838801016135c2565b928401929092526080939093013592820192909252845250918601918601613e5c565b600060208284031215613ef957600080fd5b815161186d81613427565b60008060008060808587031215613f1a57600080fd5b8435935060208501356001600160401b03811115613f3757600080fd5b613f4387828801613970565b9350506040850135613f548161328b565b9396929550929360600135925050565b60008060408385031215613f7757600080fd5b8235613f828161328b565b946020939093013593505050565b600060208284031215613fa257600080fd5b5051919050565b8181038181111561169557611695613a99565b60006020808385031215613fcf57600080fd5b82356001600160401b03811115613fe557600080fd5b8301601f81018513613ff657600080fd5b80356140046133a08261359f565b8181526060918202830184019184820191908884111561402357600080fd5b938501935b83851015613bd25780858a0312156140405760008081fd5b6140486131bc565b85356140538161328b565b8152858701356140628161328b565b818801526040868101359082015283529384019391850191614028565b600082601f83011261409057600080fd5b813560206140a06133a08361359f565b82815260059290921b840181019181810190868411156140bf57600080fd5b8286015b848110156139d45780356001600160401b038111156140e25760008081fd5b6140f08986838b0101613381565b8452509183019183016140c3565b60008060006101a0848603121561411457600080fd5b61411e85856132ae565b92506101608401356001600160401b038082111561413b57600080fd5b818601915086601f83011261414f57600080fd5b8135602061415f6133a08361359f565b82815260059290921b8401810191818101908a84111561417e57600080fd5b948201945b838610156141a5578535614196816138fe565b82529482019490820190614183565b96505050506101808601359150808211156141bf57600080fd5b506141cc8682870161407f565b9150509250925092565b8082018082111561169557611695613a99565b600082601f8301126141fa57600080fd5b8151602061420a6133a08361359f565b82815260059290921b8401810191818101908684111561422957600080fd5b8286015b848110156139d45780516001600160401b0381111561424c5760008081fd5b8701603f8101891361425e5760008081fd5b8481015160406142706133a08361335a565b8281528b828486010111156142855760008081fd5b614294838983018487016137c0565b865250505091830191830161422d565b6000806000606084860312156142b957600080fd5b83516142c48161328b565b809350506020808501516001600160401b03808211156142e357600080fd5b818701915087601f8301126142f757600080fd5b81516143056133a08261359f565b81815260059190911b8301840190848101908a83111561432457600080fd5b938501935b8285101561434b57845161433c816138fe565b82529385019390850190614329565b60408a0151909750945050508083111561436457600080fd5b50506141cc868287016141e9565b600081518084526020808501945080840160005b838110156143a557815160ff1687529582019590820190600101614386565b509495945050505050565b600081518084526020808501808196508360051b8101915082860160005b858110156143f85782840389526143e68483516137e4565b988501989350908401906001016143ce565b5091979650505050505050565b6040815260006144186040830185614372565b828103602084015261442a81856143b0565b95945050505050565b602081526000825160a0602084015261444f60c08401826137e4565b905060018060a01b0360208501511660408401526040840151606084015260608401516080840152608084015160a08401528091505092915050565b600081518084526020808501945080840160005b838110156143a55781516001600160a01b03168752958201959082019060010161449f565b86815285602082015260c0604082015260006144e360c083018761448b565b6001600160a01b03958616606084015293909416608082015260a00152949350505050565b808202811582820484141761169557611695613a99565b60008261453c57634e487b7160e01b600052601260045260246000fd5b500490565b6001600160a01b038416815260606020820181905260009061456590830185614372565b828103604084015261457781856143b0565b9695505050505050565b600061012061ffff8c1683528a602084015289604084015260018060a01b03891660608401528760808401528660a08401528060c08401526145c581840187613810565b905082810360e08401526145d981866137e4565b90508281036101008401526145ee81856137e4565b9c9b505050505050505050505050565b600082516146108184602087016137c0565b9190910192915050565b84815283602082015260018060a01b038316604082015260806060820152600061457760808301846137e4565b828152604060208201526000612c70604083018461448b565b6000602080838503121561467357600080fd5b82516001600160401b0381111561468957600080fd5b8301601f8101851361469a57600080fd5b80516146a86133a08261359f565b81815260059190911b820183019083810190878311156146c757600080fd5b928401925b82841015612e58578351825292840192908401906146cc565b80516001600160701b038116811461328657600080fd5b60008060006060848603121561471157600080fd5b61471a846146e5565b9250614728602085016146e5565b9150604084015163ffffffff8116811461347557600080fd5b60208152600061186d60208301846137e456fea2646970667358221220afd98dc852b2e6149e9fad0422c64b3fec1643febfcc6a2abfdfa2505c8ae0a564736f6c63430008110033",
    "linkReferences": {}
  },
  "methodIdentifiers": {
    "arbitrumSwaps(uint8[],bytes[])": "5b676ff3",
    "factory()": "c45a0155",
    "feeCollector()": "c415b95c",
    "getAmountOut(uint256,address,address)": "5e1e6325",
    "getAmountsOut(uint256,(address,address,bool)[])": "9881fcb4",
    "getFee((uint16,address,uint256,uint256,uint256,uint256,uint256,address,address,uint256,bytes32),bytes)": "4285f6e4",
    "isPair(address)": "e5e31b13",
    "pairCodeHash()": "9aab9248",
    "pairFor(address,address,bool)": "4c1ee03e",
    "sgReceive(uint16,bytes,uint256,address,uint256,bytes)": "ab8236f3",
    "sortTokens(address,address)": "544caa56",
    "stargateRouter()": "a9e56f3c",
    "swapRouter()": "c31c9c07",
    "xcalFactory()": "4588b7c5",
    "xcalWeth()": "750a1d48"
  },
  "id": 26
}