{
  "abi": [
    {
      "inputs": [
        {
          "internalType": "address",
          "name": "_weth",
          "type": "address"
        },
        {
          "internalType": "contract ISwapRouter",
          "name": "_swapRouter",
          "type": "address"
        },
        {
          "internalType": "address",
          "name": "_feeCollector",
          "type": "address"
        },
        {
          "internalType": "address",
          "name": "_factory",
          "type": "address"
        },
        {
          "internalType": "bytes32",
          "name": "_pairCodeHash",
          "type": "bytes32"
        },
        {
          "internalType": "address",
          "name": "_xcalFactory",
          "type": "address"
        },
        {
          "internalType": "address",
          "name": "_camelotRouter",
          "type": "address"
        },
        {
          "internalType": "contract IStargateRouter",
          "name": "_stargateRouter",
          "type": "address"
        }
      ],
      "stateMutability": "nonpayable",
      "type": "constructor"
    },
    {
      "inputs": [],
      "name": "InvaldStep",
      "type": "error"
    },
    {
      "inputs": [],
      "name": "MismatchedLengths",
      "type": "error"
    },
    {
      "inputs": [],
      "name": "MoreThanZero",
      "type": "error"
    },
    {
      "inputs": [],
      "name": "NotEnoughGas",
      "type": "error"
    },
    {
      "inputs": [],
      "name": "NotStgRouter",
      "type": "error"
    },
    {
      "inputs": [],
      "name": "WithdrawFailed",
      "type": "error"
    },
    {
      "anonymous": false,
      "inputs": [
        {
          "indexed": false,
          "internalType": "address",
          "name": "_token",
          "type": "address"
        },
        {
          "indexed": false,
          "internalType": "uint256",
          "name": "_fee",
          "type": "uint256"
        }
      ],
      "name": "FeePaid",
      "type": "event"
    },
    {
      "anonymous": false,
      "inputs": [
        {
          "indexed": true,
          "internalType": "address",
          "name": "token",
          "type": "address"
        },
        {
          "indexed": false,
          "internalType": "uint256",
          "name": "amountLD",
          "type": "uint256"
        },
        {
          "indexed": false,
          "internalType": "bool",
          "name": "failed",
          "type": "bool"
        },
        {
          "indexed": false,
          "internalType": "bool",
          "name": "dustSent",
          "type": "bool"
        }
      ],
      "name": "ReceivedOnDestination",
      "type": "event"
    },
    {
      "inputs": [
        {
          "internalType": "uint8[]",
          "name": "steps",
          "type": "uint8[]"
        },
        {
          "internalType": "bytes[]",
          "name": "data",
          "type": "bytes[]"
        }
      ],
      "name": "arbitrumSwaps",
      "outputs": [],
      "stateMutability": "payable",
      "type": "function"
    },
    {
      "inputs": [],
      "name": "factory",
      "outputs": [
        {
          "internalType": "address",
          "name": "",
          "type": "address"
        }
      ],
      "stateMutability": "view",
      "type": "function"
    },
    {
      "inputs": [],
      "name": "feeCollector",
      "outputs": [
        {
          "internalType": "address",
          "name": "",
          "type": "address"
        }
      ],
      "stateMutability": "view",
      "type": "function"
    },
    {
      "inputs": [
        {
          "internalType": "uint256",
          "name": "amountIn",
          "type": "uint256"
        },
        {
          "internalType": "address",
          "name": "tokenIn",
          "type": "address"
        },
        {
          "internalType": "address",
          "name": "tokenOut",
          "type": "address"
        }
      ],
      "name": "getAmountOut",
      "outputs": [
        {
          "internalType": "uint256",
          "name": "amount",
          "type": "uint256"
        },
        {
          "internalType": "bool",
          "name": "stable",
          "type": "bool"
        }
      ],
      "stateMutability": "view",
      "type": "function"
    },
    {
      "inputs": [
        {
          "internalType": "uint256",
          "name": "amountIn",
          "type": "uint256"
        },
        {
          "components": [
            {
              "internalType": "address",
              "name": "from",
              "type": "address"
            },
            {
              "internalType": "address",
              "name": "to",
              "type": "address"
            },
            {
              "internalType": "bool",
              "name": "stable",
              "type": "bool"
            }
          ],
          "internalType": "struct XCaliburAdapter.route[]",
          "name": "routes",
          "type": "tuple[]"
        }
      ],
      "name": "getAmountsOut",
      "outputs": [
        {
          "internalType": "uint256[]",
          "name": "amounts",
          "type": "uint256[]"
        }
      ],
      "stateMutability": "view",
      "type": "function"
    },
    {
      "inputs": [
        {
          "components": [
            {
              "internalType": "uint16",
              "name": "dstChainId",
              "type": "uint16"
            },
            {
              "internalType": "address",
              "name": "token",
              "type": "address"
            },
            {
              "internalType": "uint256",
              "name": "srcPoolId",
              "type": "uint256"
            },
            {
              "internalType": "uint256",
              "name": "dstPoolId",
              "type": "uint256"
            },
            {
              "internalType": "uint256",
              "name": "amount",
              "type": "uint256"
            },
            {
              "internalType": "uint256",
              "name": "amountMin",
              "type": "uint256"
            },
            {
              "internalType": "uint256",
              "name": "dustAmount",
              "type": "uint256"
            },
            {
              "internalType": "address",
              "name": "receiver",
              "type": "address"
            },
            {
              "internalType": "address",
              "name": "to",
              "type": "address"
            },
            {
              "internalType": "uint256",
              "name": "gas",
              "type": "uint256"
            },
            {
              "internalType": "bytes32",
              "name": "srcContext",
              "type": "bytes32"
            }
          ],
          "internalType": "struct StargateArbitrum.StargateParams",
          "name": "params",
          "type": "tuple"
        },
        {
          "internalType": "bytes",
          "name": "payload",
          "type": "bytes"
        }
      ],
      "name": "getFee",
      "outputs": [
        {
          "internalType": "uint256",
          "name": "_fee",
          "type": "uint256"
        }
      ],
      "stateMutability": "view",
      "type": "function"
    },
    {
      "inputs": [
        {
          "internalType": "address",
          "name": "pair",
          "type": "address"
        }
      ],
      "name": "isPair",
      "outputs": [
        {
          "internalType": "bool",
          "name": "",
          "type": "bool"
        }
      ],
      "stateMutability": "view",
      "type": "function"
    },
    {
      "inputs": [],
      "name": "pairCodeHash",
      "outputs": [
        {
          "internalType": "bytes32",
          "name": "",
          "type": "bytes32"
        }
      ],
      "stateMutability": "view",
      "type": "function"
    },
    {
      "inputs": [
        {
          "internalType": "address",
          "name": "tokenA",
          "type": "address"
        },
        {
          "internalType": "address",
          "name": "tokenB",
          "type": "address"
        },
        {
          "internalType": "bool",
          "name": "stable",
          "type": "bool"
        }
      ],
      "name": "pairFor",
      "outputs": [
        {
          "internalType": "address",
          "name": "pair",
          "type": "address"
        }
      ],
      "stateMutability": "view",
      "type": "function"
    },
    {
      "inputs": [
        {
          "internalType": "uint16",
          "name": "",
          "type": "uint16"
        },
        {
          "internalType": "bytes",
          "name": "",
          "type": "bytes"
        },
        {
          "internalType": "uint256",
          "name": "",
          "type": "uint256"
        },
        {
          "internalType": "address",
          "name": "_token",
          "type": "address"
        },
        {
          "internalType": "uint256",
          "name": "amountLD",
          "type": "uint256"
        },
        {
          "internalType": "bytes",
          "name": "_payload",
          "type": "bytes"
        }
      ],
      "name": "sgReceive",
      "outputs": [],
      "stateMutability": "nonpayable",
      "type": "function"
    },
    {
      "inputs": [
        {
          "internalType": "address",
          "name": "tokenA",
          "type": "address"
        },
        {
          "internalType": "address",
          "name": "tokenB",
          "type": "address"
        }
      ],
      "name": "sortTokens",
      "outputs": [
        {
          "internalType": "address",
          "name": "token0",
          "type": "address"
        },
        {
          "internalType": "address",
          "name": "token1",
          "type": "address"
        }
      ],
      "stateMutability": "pure",
      "type": "function"
    },
    {
      "inputs": [],
      "name": "stargateRouter",
      "outputs": [
        {
          "internalType": "contract IStargateRouter",
          "name": "",
          "type": "address"
        }
      ],
      "stateMutability": "view",
      "type": "function"
    },
    {
      "inputs": [],
      "name": "swapRouter",
      "outputs": [
        {
          "internalType": "contract ISwapRouter",
          "name": "",
          "type": "address"
        }
      ],
      "stateMutability": "view",
      "type": "function"
    },
    {
      "inputs": [],
      "name": "xcalFactory",
      "outputs": [
        {
          "internalType": "address",
          "name": "",
          "type": "address"
        }
      ],
      "stateMutability": "view",
      "type": "function"
    },
    {
      "inputs": [],
      "name": "xcalWeth",
      "outputs": [
        {
          "internalType": "contract IWETH",
          "name": "",
          "type": "address"
        }
      ],
      "stateMutability": "view",
      "type": "function"
    },
    {
      "stateMutability": "payable",
      "type": "receive"
    }
  ],
  "bytecode": {
    "object": "0x6101406040526003805460ff60a01b1916600160a01b1790553480156200002557600080fd5b5060405162004dbb38038062004dbb8339810160408190526200004891620001d4565b6001600160a01b03878116608052600080546001600160a01b03191687831617905560018590558290829085908b908216158015906200009057506001600160a01b03811615155b620000f65760405162461bcd60e51b815260206004820152602c60248201527f526f757465723a207a65726f20616464726573732070726f766964656420696e60448201526b1031b7b739ba393ab1ba37b960a11b606482015260840160405180910390fd5b6001600160a01b03821660a081905260408051631355724960e31b81529051639aab9248916004808201926020929091908290030181865afa15801562000141573d6000803e3d6000fd5b505050506040513d601f19601f8201168201806040525081019062000167919062000289565b60e0526001600160a01b0390811660c0529182166101005250600280549282166001600160a01b031993841617905598891661012052600380549790991696169590951790965550620002a3945050505050565b6001600160a01b0381168114620001d157600080fd5b50565b600080600080600080600080610100898b031215620001f257600080fd5b8851620001ff81620001bb565b60208a01519098506200021281620001bb565b60408a01519097506200022581620001bb565b60608a01519096506200023881620001bb565b60808a015160a08b015191965094506200025281620001bb565b60c08a01519093506200026581620001bb565b60e08a01519092506200027881620001bb565b809150509295985092959890939650565b6000602082840312156200029c57600080fd5b5051919050565b60805160a05160c05160e0516101005161012051614a4a620003716000396000818161087501528181610bc40152610c570152600081816102aa015281816103bb0152818161136c015281816123870152818161241d015261249f0152600061051e0152600061023301526000818161013d015281816104e301528181610e8301528181610f97015281816111f5015261153b0152600081816102fe015281816116c3015281816117470152818161182901528181611945015281816119c90152611aa20152614a4a6000f3fe6080604052600436106100ec5760003560e01c80639881fcb41161008a578063c31c9c0711610059578063c31c9c07146102ec578063c415b95c14610320578063c45a015514610340578063e5e31b131461036057600080fd5b80639881fcb4146102555780639aab924814610282578063a9e56f3c14610298578063ab8236f3146102cc57600080fd5b8063544caa56116100c6578063544caa56146101975780635b676ff3146101d75780635e1e6325146101ec578063750a1d481461022157600080fd5b80634285f6e4146100f85780634588b7c51461012b5780634c1ee03e1461017757600080fd5b366100f357005b600080fd5b34801561010457600080fd5b50610118610113366004613697565b610390565b6040519081526020015b60405180910390f35b34801561013757600080fd5b5061015f7f000000000000000000000000000000000000000000000000000000000000000081565b6040516001600160a01b039091168152602001610122565b34801561018357600080fd5b5061015f6101923660046136f5565b6104a1565b3480156101a357600080fd5b506101b76101b2366004613740565b610571565b604080516001600160a01b03938416815292909116602083015201610122565b6101ea6101e53660046137bd565b610669565b005b3480156101f857600080fd5b5061020c610207366004613828565b610e4b565b60408051928352901515602083015201610122565b34801561022d57600080fd5b5061015f7f000000000000000000000000000000000000000000000000000000000000000081565b34801561026157600080fd5b50610275610270366004613931565b61109f565b604051610122919061396d565b34801561028e57600080fd5b5061011860015481565b3480156102a457600080fd5b5061015f7f000000000000000000000000000000000000000000000000000000000000000081565b3480156102d857600080fd5b506101ea6102e73660046139b1565b611361565b3480156102f857600080fd5b5061015f7f000000000000000000000000000000000000000000000000000000000000000081565b34801561032c57600080fd5b5060035461015f906001600160a01b031681565b34801561034c57600080fd5b5060005461015f906001600160a01b031681565b34801561036c57600080fd5b5061038061037b366004613a4b565b611519565b6040519015158152602001610122565b6000808360e001516040516020016103a89190613a68565b60405160208183030381529060405290507f00000000000000000000000000000000000000000000000000000000000000006001600160a01b0316630a51236985600001516001848760405180606001604052808b610120015181526020018b60c0015181526020018b60e001516040516020016104269190613a68565b6040516020818303038152906040528152506040518663ffffffff1660e01b8152600401610458959493929190613af9565b6040805180830381865afa158015610474573d6000803e3d6000fd5b505050506040513d601f19601f820116820180604052508101906104989190613b51565b50949350505050565b60008060006104b08686610571565b6040516001600160601b0319606084811b8216602084015283901b16603482015286151560f81b604882015291935091507f000000000000000000000000000000000000000000000000000000000000000090604901604051602081830303815290604052805190602001207f000000000000000000000000000000000000000000000000000000000000000060405160200161054f93929190613b75565b60408051601f1981840301815291905280516020909101209695505050505050565b600080826001600160a01b0316846001600160a01b0316036105e45760405162461bcd60e51b815260206004820152602160248201527f426173655631526f757465723a204944454e544943414c5f41444452455353456044820152605360f81b60648201526084015b60405180910390fd5b826001600160a01b0316846001600160a01b031610610604578284610607565b83835b90925090506001600160a01b0382166106625760405162461bcd60e51b815260206004820152601a60248201527f426173655631526f757465723a205a45524f5f4144445245535300000000000060448201526064016105db565b9250929050565b600354600160a01b900460ff166001146106b25760405162461bcd60e51b815260206004820152600a6024820152695245454e5452414e435960b01b60448201526064016105db565b6003805460ff60a01b1916600160a11b1790558083146106e5576040516373f8993760e11b815260040160405180910390fd5b60005b83811015610e3157600085858381811061070457610704613ba8565b90506020020160208101906107199190613bcd565b905060001960ff8216016108115760008085858581811061073c5761073c613ba8565b905060200281019061074e9190613bea565b81019061075b9190613c9f565b9150915060005b825181101561080957600082828151811061077f5761077f613ba8565b6020026020010151116107a55760405163fe4155c760e01b815260040160405180910390fd5b6107f733308484815181106107bc576107bc613ba8565b60200260200101518685815181106107d6576107d6613ba8565b60200260200101516001600160a01b03166115ae909392919063ffffffff16565b8061080181613d6f565b915050610762565b505050610e1e565b60011960ff8216016108ed57600084848481811061083157610831613ba8565b90506020028101906108439190613bea565b8101906108509190613d88565b9050806000036108735760405163fe4155c760e01b815260040160405180910390fd5b7f00000000000000000000000000000000000000000000000000000000000000006001600160a01b031663d0e30db0826040518263ffffffff1660e01b81526004016000604051808303818588803b1580156108ce57600080fd5b505af11580156108e2573d6000803e3d6000fd5b505050505050610e1e565b60021960ff82160161097d57600084848481811061090d5761090d613ba8565b905060200281019061091f9190613bea565b81019061092c9190613db4565b905060005b815181101561097657600082828151811061094e5761094e613ba8565b602002602001015190506109618161161f565b5050808061096e90613d6f565b915050610931565b5050610e1e565b60031960ff8216016109ff57600084848481811061099d5761099d613ba8565b90506020028101906109af9190613bea565b8101906109bc9190613e9e565b905060005b8151811015610976576109ec8282815181106109df576109df613ba8565b60200260200101516118a1565b50806109f781613d6f565b9150506109c1565b60041960ff821601610a81576000848484818110610a1f57610a1f613ba8565b9050602002810190610a319190613bea565b810190610a3e9190613fa0565b905060005b815181101561097657610a6e828281518110610a6157610a61613ba8565b6020026020010151611aec565b5080610a7981613d6f565b915050610a43565b60051960ff821601610b03576000848484818110610aa157610aa1613ba8565b9050602002810190610ab39190613bea565b810190610ac091906140ad565b905060005b815181101561097657610af0828281518110610ae357610ae3613ba8565b6020026020010151611ccc565b5080610afb81613d6f565b915050610ac5565b60061960ff821601610b6357600080600080878787818110610b2757610b27613ba8565b9050602002810190610b399190613bea565b810190610b4691906141a7565b9350935093509350610b5a84848484611e6f565b50505050610e1e565b600c1960ff821601610cf157600080858585818110610b8457610b84613ba8565b9050602002810190610b969190613bea565b810190610ba39190614207565b9150915080600003610c3c576040516370a0823160e01b81523060048201527f00000000000000000000000000000000000000000000000000000000000000006001600160a01b0316906370a0823190602401602060405180830381865afa158015610c13573d6000803e3d6000fd5b505050506040513d601f19601f82011682018060405250810190610c379190614233565b610c3e565b805b604051632e1a7d4d60e01b8152600481018290529091507f00000000000000000000000000000000000000000000000000000000000000006001600160a01b031690632e1a7d4d90602401600060405180830381600087803b158015610ca357600080fd5b505af1158015610cb7573d6000803e3d6000fd5b505050506000610cc6826120dd565b9050610cdb83610cd6838561424c565b612102565b600354610809906001600160a01b031682612102565b600d1960ff821601610db2576000848484818110610d1157610d11613ba8565b9050602002810190610d239190613bea565b810190610d30919061425f565b905060005b815181101561097657610da0828281518110610d5357610d53613ba8565b602002602001015160000151838381518110610d7157610d71613ba8565b602002602001015160400151848481518110610d8f57610d8f613ba8565b602002602001015160200151612158565b80610daa81613d6f565b915050610d35565b600e1960ff821601610e05576000806000868686818110610dd557610dd5613ba8565b9050602002810190610de79190613bea565b810190610df491906143a1565b925092509250610809838383612261565b6040516379df70e560e11b815260040160405180910390fd5b5080610e2981613d6f565b9150506106e8565b50506003805460ff60a01b1916600160a01b179055505050565b6000806000610e5c858560016104a1565b60405163e5e31b1360e01b81526001600160a01b03828116600483015291925060009182917f00000000000000000000000000000000000000000000000000000000000000009091169063e5e31b1390602401602060405180830381865afa158015610ecc573d6000803e3d6000fd5b505050506040513d601f19601f82011682018060405250810190610ef09190614479565b15610f69576040516378a051ad60e11b8152600481018990526001600160a01b03888116602483015284169063f140a35a90604401602060405180830381865afa158015610f42573d6000803e3d6000fd5b505050506040513d601f19601f82011682018060405250810190610f669190614233565b91505b610f75878760006104a1565b60405163e5e31b1360e01b81526001600160a01b0380831660048301529194507f00000000000000000000000000000000000000000000000000000000000000009091169063e5e31b1390602401602060405180830381865afa158015610fe0573d6000803e3d6000fd5b505050506040513d601f19601f820116820180604052508101906110049190614479565b1561107d576040516378a051ad60e11b8152600481018990526001600160a01b03888116602483015284169063f140a35a90604401602060405180830381865afa158015611056573d6000803e3d6000fd5b505050506040513d601f19601f8201168201806040525081019061107a9190614233565b90505b80821161108c57806000611090565b8160015b94509450505050935093915050565b60606001825110156110f35760405162461bcd60e51b815260206004820152601a60248201527f426173655631526f757465723a20494e56414c49445f5041544800000000000060448201526064016105db565b8151611100906001614496565b6001600160401b038111156111175761111761343d565b604051908082528060200260200182016040528015611140578160200160208202803683370190505b509050828160008151811061115757611157613ba8565b60200260200101818152505060005b825181101561135a5760006111d384838151811061118657611186613ba8565b6020026020010151600001518584815181106111a4576111a4613ba8565b6020026020010151602001518685815181106111c2576111c2613ba8565b6020026020010151604001516104a1565b60405163e5e31b1360e01b81526001600160a01b0380831660048301529192507f00000000000000000000000000000000000000000000000000000000000000009091169063e5e31b1390602401602060405180830381865afa15801561123e573d6000803e3d6000fd5b505050506040513d601f19601f820116820180604052508101906112629190614479565b1561134757806001600160a01b031663f140a35a84848151811061128857611288613ba8565b60200260200101518685815181106112a2576112a2613ba8565b6020026020010151600001516040518363ffffffff1660e01b81526004016112dd9291909182526001600160a01b0316602082015260400190565b602060405180830381865afa1580156112fa573d6000803e3d6000fd5b505050506040513d601f19601f8201168201806040525081019061131e9190614233565b8361132a846001614496565b8151811061133a5761133a613ba8565b6020026020010181815250505b508061135281613d6f565b915050611166565b5092915050565b336001600160a01b037f000000000000000000000000000000000000000000000000000000000000000016146113aa57604051638afe477f60e01b815260040160405180910390fd5b600080620186a081815a6113be919061424c565b90506000806000878060200190518101906113d99190614564565b925092509250845a101561140b576113fb6001600160a01b038b16848b612590565b471561140b5761140b8347612102565b604051635b676ff360e01b81523090635b676ff390869061143290869086906004016146c5565b600060405180830381600088803b15801561144c57600080fd5b5087f19350505050801561145e575060015b6114ac573d80801561148c576040519150601f19603f3d011682016040523d82523d6000602084013e611491565b606091505b506114a66001600160a01b038c16858c612590565b60019750505b47156114bc576114bc8347612102565b604080518a815288151560208201528715158183015290516001600160a01b038c16917f7f345d6da48bd1339fd428ff45265a0f01258b14ca09dcf8db0c469f4f732fd3919081900360600190a250505050505050505050505050565b60405163e5e31b1360e01b81526001600160a01b0382811660048301526000917f00000000000000000000000000000000000000000000000000000000000000009091169063e5e31b1390602401602060405180830381865afa158015611584573d6000803e3d6000fd5b505050506040513d601f19601f820116820180604052508101906115a89190614479565b92915050565b6040516001600160a01b03808516602483015283166044820152606481018290526116199085906323b872dd60e01b906084015b60408051601f198184030181529190526020810180516001600160e01b03166001600160e01b0319909316929092179091526125c0565b50505050565b80516000901561163057815161169e565b60408083015190516370a0823160e01b81523060048201526001600160a01b03909116906370a0823190602401602060405180830381865afa15801561167a573d6000803e3d6000fd5b505050506040513d601f19601f8201168201806040525081019061169e9190614233565b8083526040808401519051636eb1769f60e11b81523060048201526001600160a01b037f0000000000000000000000000000000000000000000000000000000000000000811660248301529091169063dd62ed3e90604401602060405180830381865afa158015611713573d6000803e3d6000fd5b505050506040513d601f19601f820116820180604052508101906117379190614233565b101561176e5761176e82604001517f0000000000000000000000000000000000000000000000000000000000000000600019612692565b6040805161010081018252838201516001600160a01b0390811682526060808601518216602080850191825260808089015162ffffff90811687890190815230958801958652429288019283528a5160a08901908152938b015160c08901908152600060e08a01908152995163414bf38960e01b8152895189166004820152955188166024870152905190911660448501529351851660648401525160848301525160a4820152905160c48201529251811660e484015290917f00000000000000000000000000000000000000000000000000000000000000009091169063414bf38990610104015b6020604051808303816000875af1158015611876573d6000803e3d6000fd5b505050506040513d601f19601f8201168201806040525081019061189a9190614233565b9392505050565b8051600090156118b2578151611920565b60408083015190516370a0823160e01b81523060048201526001600160a01b03909116906370a0823190602401602060405180830381865afa1580156118fc573d6000803e3d6000fd5b505050506040513d601f19601f820116820180604052508101906119209190614233565b8083526040808401519051636eb1769f60e11b81523060048201526001600160a01b037f0000000000000000000000000000000000000000000000000000000000000000811660248301529091169063dd62ed3e90604401602060405180830381865afa158015611995573d6000803e3d6000fd5b505050506040513d601f19601f820116820180604052508101906119b99190614233565b10156119f0576119f082604001517f0000000000000000000000000000000000000000000000000000000000000000600019612692565b6040805160a08082018352918401519184015160608086015160c08088015160808901516001600160601b031997851b8816928701929092526001600160e81b031960e895861b811660d488015292841b871660d787015290931b1660eb8401521b90911660ee8201526000908061010281016040516020818303038152906040528152602001306001600160a01b0316815260200142815260200184600001518152602001846020015181525090507f00000000000000000000000000000000000000000000000000000000000000006001600160a01b031663c04b8d59826040518263ffffffff1660e01b815260040161185791906146f3565b60008054825160408401516001548493611b13936001600160a01b03909116929091612792565b90508060018251611b24919061424c565b81518110611b3457611b34613ba8565b602002602001015191508260200151821015611b925760405162461bcd60e51b815260206004820152601760248201527f696e73756666696369656e742d616d6f756e742d6f757400000000000000000060448201526064016105db565b826060015115611cb7576000805460408501518051611cb793611bf5936001600160a01b03169291611bc657611bc6613ba8565b60200260200101518660400151600181518110611be557611be5613ba8565b6020026020010151600154612915565b8460400151600081518110611c0c57611c0c613ba8565b60209081029190910101516040516370a0823160e01b81523060048201526001600160a01b03909116906370a0823190602401602060405180830381865afa158015611c5c573d6000803e3d6000fd5b505050506040513d601f19601f82011682018060405250810190611c809190614233565b8560400151600081518110611c9757611c97613ba8565b60200260200101516001600160a01b03166125909092919063ffffffff16565b611cc68184604001513061299b565b50919050565b6060816060015142811015611d1b5760405162461bcd60e51b815260206004820152601560248201527410985cd9558c549bdd5d195c8e8811561412549151605a1b60448201526064016105db565b611d2d8360000151846040015161109f565b915082602001518260018451611d43919061424c565b81518110611d5357611d53613ba8565b60200260200101511015611dba5760405162461bcd60e51b815260206004820152602860248201527f426173655631526f757465723a20494e53554646494349454e545f4f555450556044820152671517d05353d5539560c21b60648201526084016105db565b611e608360400151600081518110611dd457611dd4613ba8565b602002602001015160000151611e408560400151600081518110611dfa57611dfa613ba8565b6020026020010151600001518660400151600081518110611e1d57611e1d613ba8565b60200260200101516020015187604001516000815181106111c2576111c2613ba8565b84600081518110611e5357611e53613ba8565b6020026020010151612b72565b611cc682846040015130612c5a565b8315611e7b5783611f02565b82600081518110611e8e57611e8e613ba8565b60209081029190910101516040516370a0823160e01b81523060048201526001600160a01b03909116906370a0823190602401602060405180830381865afa158015611ede573d6000803e3d6000fd5b505050506040513d601f19601f82011682018060405250810190611f029190614233565b93508383600081518110611f1857611f18613ba8565b6020908102919091010151600254604051636eb1769f60e11b81523060048201526001600160a01b03918216602482015291169063dd62ed3e90604401602060405180830381865afa158015611f72573d6000803e3d6000fd5b505050506040513d601f19601f82011682018060405250810190611f969190614233565b10156120335782600081518110611faf57611faf613ba8565b602090810291909101015160025460405163095ea7b360e01b81526001600160a01b039182166004820152600019602482015291169063095ea7b3906044016020604051808303816000875af115801561200d573d6000803e3d6000fd5b505050506040513d601f19601f820116820180604052508101906120319190614479565b505b600061203f8585612ea9565b60025481519192506001600160a01b03169063ac3893ba90879084906120679060019061424c565b8151811061207757612077613ba8565b6020026020010151873088886040518763ffffffff1660e01b81526004016120a496959493929190614784565b600060405180830381600087803b1580156120be57600080fd5b505af11580156120d2573d6000803e3d6000fd5b505050505050505050565b60006127106120ee8361270b6147c8565b6120f891906147df565b6115a8908361424c565b600080600080600085875af19050806121535760405162461bcd60e51b815260206004820152601360248201527211551217d514905394d1915497d19052531151606a1b60448201526064016105db565b505050565b816000036121cd576040516370a0823160e01b81523060048201526001600160a01b038416906370a0823190602401602060405180830381865afa1580156121a4573d6000803e3d6000fd5b505050506040513d601f19601f820116820180604052508101906121c89190614233565b6121cf565b815b915060006121dc836120dd565b90506121e8818461424c565b600354909350612205906001600160a01b03868116911683612590565b6122196001600160a01b0385168385612590565b604080516001600160a01b0386168152602081018390527f075a2720282fdf622141dae0b048ef90a21a7e57c134c76912d19d006b3b3f6f910160405180910390a150505050565b8051825114612283576040516373f8993760e11b815260040160405180910390fd5b620186a083610120015110156122ac57604051636eb14fc360e11b815260040160405180910390fd5b600083610100015183836040516020016122c893929190614801565b604051602081830303815290604052905083608001516000036123585760208401516040516370a0823160e01b81523060048201526001600160a01b03909116906370a0823190602401602060405180830381865afa15801561232f573d6000803e3d6000fd5b505050506040513d601f19601f820116820180604052508101906123539190614233565b61235e565b83608001515b608085018190526020850151604051636eb1769f60e11b81523060048201526001600160a01b037f0000000000000000000000000000000000000000000000000000000000000000811660248301529091169063dd62ed3e90604401602060405180830381865afa1580156123d7573d6000803e3d6000fd5b505050506040513d601f19601f820116820180604052508101906123fb9190614233565b101561249d57602084015160405163095ea7b360e01b81526001600160a01b037f00000000000000000000000000000000000000000000000000000000000000008116600483015260001960248301529091169063095ea7b3906044016020604051808303816000875af1158015612477573d6000803e3d6000fd5b505050506040513d601f19601f8201168201806040525081019061249b9190614479565b505b7f00000000000000000000000000000000000000000000000000000000000000006001600160a01b0316639fbf10fc47866000015187604001518860600151338a608001518b60a0015160405180606001604052808e610120015181526020018e60c0015181526020018e60e0015160405160200161251c9190613a68565b6040516020818303038152906040528152508d60e001516040516020016125439190613a68565b6040516020818303038152906040528b6040518b63ffffffff1660e01b815260040161257799989796959493929190614841565b6000604051808303818588803b1580156120be57600080fd5b6040516001600160a01b03831660248201526044810182905261215390849063a9059cbb60e01b906064016115e2565b6000612615826040518060400160405280602081526020017f5361666545524332303a206c6f772d6c6576656c2063616c6c206661696c6564815250856001600160a01b0316612f219092919063ffffffff16565b80519091501561215357808060200190518101906126339190614479565b6121535760405162461bcd60e51b815260206004820152602a60248201527f5361666545524332303a204552433230206f7065726174696f6e20646964206e6044820152691bdd081cdd58d8d9595960b21b60648201526084016105db565b604080516001600160a01b038481166024830152604480830185905283518084039091018152606490920183526020820180516001600160e01b031663095ea7b360e01b17905291516000928392908716916126ee91906148be565b6000604051808303816000865af19150503d806000811461272b576040519150601f19603f3d011682016040523d82523d6000602084013e612730565b606091505b509150915081801561275a57508051158061275a57508080602001905181019061275a9190614479565b61278b5760405162461bcd60e51b8152602060048201526002602482015261534160f01b60448201526064016105db565b5050505050565b60606002835110156127e65760405162461bcd60e51b815260206004820152601e60248201527f556e697377617056324c6962726172793a20494e56414c49445f50415448000060448201526064016105db565b82516001600160401b038111156127ff576127ff61343d565b604051908082528060200260200182016040528015612828578160200160208202803683370190505b509050838160008151811061283f5761283f613ba8565b60200260200101818152505060005b6001845161285c919061424c565b811015610498576000806128b08887858151811061287c5761287c613ba8565b6020026020010151888660016128929190614496565b815181106128a2576128a2613ba8565b602002602001015188612f38565b915091506128d88484815181106128c9576128c9613ba8565b60200260200101518383613004565b846128e4856001614496565b815181106128f4576128f4613ba8565b6020026020010181815250505050808061290d90613d6f565b91505061284e565b60008060006129248686613123565b6040516001600160601b0319606084811b8216602084015283901b16603482015291935091508790604801604051602081830303815290604052805190602001208560405160200161297893929190613b75565b60408051601f198184030181529190528051602090910120979650505050505050565b60005b600183516129ac919061424c565b811015611619576000808483815181106129c8576129c8613ba8565b6020026020010151858460016129de9190614496565b815181106129ee576129ee613ba8565b6020026020010151915091506000612a068383613123565b509050600087612a17866001614496565b81518110612a2757612a27613ba8565b60200260200101519050600080836001600160a01b0316866001600160a01b031614612a5557826000612a59565b6000835b91509150600060028a51612a6d919061424c565b8810612a795788612aa6565b600054612aa6906001600160a01b0316878c612a968c6002614496565b81518110611be557611be5613ba8565b9050612ac960008054906101000a90046001600160a01b03168888600154612915565b6001600160a01b031663022c0d9f84848460006040519080825280601f01601f191660200182016040528015612b06576020820181803683370190505b506040518563ffffffff1660e01b8152600401612b2694939291906148da565b600060405180830381600087803b158015612b4057600080fd5b505af1158015612b54573d6000803e3d6000fd5b50505050505050505050508080612b6a90613d6f565b91505061299e565b6000836001600160a01b03163b11612b8957600080fd5b604080516001600160a01b038481166024830152604480830185905283518084039091018152606490920183526020820180516001600160e01b031663a9059cbb60e01b1790529151600092839290871691612be591906148be565b6000604051808303816000865af19150503d8060008114612c22576040519150601f19603f3d011682016040523d82523d6000602084013e612c27565b606091505b5091509150818015612c51575080511580612c51575080806020019051810190612c519190614479565b61278b57600080fd5b60005b8251811015611619576000612cac848381518110612c7d57612c7d613ba8565b602002602001015160000151858481518110612c9b57612c9b613ba8565b602002602001015160200151610571565b509050600085612cbd846001614496565b81518110612ccd57612ccd613ba8565b60200260200101519050600080836001600160a01b0316878681518110612cf657612cf6613ba8565b6020026020010151600001516001600160a01b031614612d1857826000612d1c565b6000835b91509150600060018851612d30919061424c565b8610612d3c5786612daf565b612daf88612d4b886001614496565b81518110612d5b57612d5b613ba8565b60200260200101516000015189886001612d759190614496565b81518110612d8557612d85613ba8565b6020026020010151602001518a896001612d9f9190614496565b815181106111c2576111c2613ba8565b9050612e02888781518110612dc657612dc6613ba8565b602002602001015160000151898881518110612de457612de4613ba8565b6020026020010151602001518a89815181106111c2576111c2613ba8565b6001600160a01b031663022c0d9f84848460006040519080825280601f01601f191660200182016040528015612e3f576020820181803683370190505b506040518563ffffffff1660e01b8152600401612e5f94939291906148da565b600060405180830381600087803b158015612e7957600080fd5b505af1158015612e8d573d6000803e3d6000fd5b5050505050505050508080612ea190613d6f565b915050612c5d565b60025460405163d06ca61f60e01b81526060916001600160a01b03169063d06ca61f90612edc9086908690600401614907565b600060405180830381865afa158015612ef9573d6000803e3d6000fd5b505050506040513d6000823e601f3d908101601f1916820160405261189a9190810190614920565b6060612f308484600085613213565b949350505050565b6000806000612f478686613123565b509050600080612f5989898989612915565b6001600160a01b0316630902f1ac6040518163ffffffff1660e01b8152600401606060405180830381865afa158015612f96573d6000803e3d6000fd5b505050506040513d601f19601f82011682018060405250810190612fba91906149bc565b506001600160701b031691506001600160701b03169150826001600160a01b0316886001600160a01b031614612ff1578082612ff4565b81815b909a909950975050505050505050565b60008084116130695760405162461bcd60e51b815260206004820152602b60248201527f556e697377617056324c6962726172793a20494e53554646494349454e545f4960448201526a1394155517d05353d5539560aa1b60648201526084016105db565b6000831180156130795750600082115b6130d65760405162461bcd60e51b815260206004820152602860248201527f556e697377617056324c6962726172793a20494e53554646494349454e545f4c604482015267495155494449545960c01b60648201526084016105db565b60006130e4856103e56132e3565b905060006130f282856132e3565b9050600061310c83613106886103e86132e3565b9061334a565b905061311881836147df565b979650505050505050565b600080826001600160a01b0316846001600160a01b0316036131955760405162461bcd60e51b815260206004820152602560248201527f556e697377617056324c6962726172793a204944454e544943414c5f41444452604482015264455353455360d81b60648201526084016105db565b826001600160a01b0316846001600160a01b0316106131b55782846131b8565b83835b90925090506001600160a01b0382166106625760405162461bcd60e51b815260206004820152601e60248201527f556e697377617056324c6962726172793a205a45524f5f41444452455353000060448201526064016105db565b6060824710156132745760405162461bcd60e51b815260206004820152602660248201527f416464726573733a20696e73756666696369656e742062616c616e636520666f6044820152651c8818d85b1b60d21b60648201526084016105db565b600080866001600160a01b0316858760405161329091906148be565b60006040518083038185875af1925050503d80600081146132cd576040519150601f19603f3d011682016040523d82523d6000602084013e6132d2565b606091505b50915091506131188783838761339f565b6000811580613307575082826132f981836147c8565b925061330590836147df565b145b6115a85760405162461bcd60e51b815260206004820152601460248201527364732d6d6174682d6d756c2d6f766572666c6f7760601b60448201526064016105db565b6000826133578382614496565b91508110156115a85760405162461bcd60e51b815260206004820152601460248201527364732d6d6174682d6164642d6f766572666c6f7760601b60448201526064016105db565b6060831561340e578251600003613407576001600160a01b0385163b6134075760405162461bcd60e51b815260206004820152601d60248201527f416464726573733a2063616c6c20746f206e6f6e2d636f6e747261637400000060448201526064016105db565b5081612f30565b612f3083838151156134235781518083602001fd5b8060405162461bcd60e51b81526004016105db9190614a01565b634e487b7160e01b600052604160045260246000fd5b60405161016081016001600160401b03811182821017156134765761347661343d565b60405290565b604051606081016001600160401b03811182821017156134765761347661343d565b60405160a081016001600160401b03811182821017156134765761347661343d565b60405160e081016001600160401b03811182821017156134765761347661343d565b604051608081016001600160401b03811182821017156134765761347661343d565b604051601f8201601f191681016001600160401b038111828210171561352c5761352c61343d565b604052919050565b803561ffff8116811461354657600080fd5b919050565b6001600160a01b038116811461356057600080fd5b50565b80356135468161354b565b6000610160828403121561358157600080fd5b613589613453565b905061359482613534565b81526135a260208301613563565b602082015260408201356040820152606082013560608201526080820135608082015260a082013560a082015260c082013560c08201526135e560e08301613563565b60e08201526101006135f8818401613563565b9082015261012082810135908201526101409182013591810191909152919050565b60006001600160401b038211156136335761363361343d565b50601f01601f191660200190565b600082601f83011261365257600080fd5b81356136656136608261361a565b613504565b81815284602083860101111561367a57600080fd5b816020850160208301376000918101602001919091529392505050565b60008061018083850312156136ab57600080fd5b6136b5848461356e565b91506101608301356001600160401b038111156136d157600080fd5b6136dd85828601613641565b9150509250929050565b801515811461356057600080fd5b60008060006060848603121561370a57600080fd5b83356137158161354b565b925060208401356137258161354b565b91506040840135613735816136e7565b809150509250925092565b6000806040838503121561375357600080fd5b823561375e8161354b565b9150602083013561376e8161354b565b809150509250929050565b60008083601f84011261378b57600080fd5b5081356001600160401b038111156137a257600080fd5b6020830191508360208260051b850101111561066257600080fd5b600080600080604085870312156137d357600080fd5b84356001600160401b03808211156137ea57600080fd5b6137f688838901613779565b9096509450602087013591508082111561380f57600080fd5b5061381c87828801613779565b95989497509550505050565b60008060006060848603121561383d57600080fd5b83359250602084013561384f8161354b565b915060408401356137358161354b565b60006001600160401b038211156138785761387861343d565b5060051b60200190565b600082601f83011261389357600080fd5b813560206138a36136608361385f565b828152606092830285018201928282019190878511156138c257600080fd5b8387015b858110156139245781818a0312156138de5760008081fd5b6138e661347c565b81356138f18161354b565b8152818601356139008161354b565b81870152604082810135613913816136e7565b9082015284529284019281016138c6565b5090979650505050505050565b6000806040838503121561394457600080fd5b8235915060208301356001600160401b0381111561396157600080fd5b6136dd85828601613882565b6020808252825182820181905260009190848201906040850190845b818110156139a557835183529284019291840191600101613989565b50909695505050505050565b60008060008060008060c087890312156139ca57600080fd5b6139d387613534565b955060208701356001600160401b03808211156139ef57600080fd5b6139fb8a838b01613641565b96506040890135955060608901359150613a148261354b565b9093506080880135925060a08801359080821115613a3157600080fd5b50613a3e89828a01613641565b9150509295509295509295565b600060208284031215613a5d57600080fd5b813561189a8161354b565b60609190911b6001600160601b031916815260140190565b60005b83811015613a9b578181015183820152602001613a83565b50506000910152565b60008151808452613abc816020860160208601613a80565b601f01601f19169290920160200192915050565b80518252602081015160208301526000604082015160606040850152612f306060850182613aa4565b61ffff8616815260ff8516602082015260a060408201526000613b1f60a0830186613aa4565b8281036060840152613b318186613aa4565b90508281036080840152613b458185613ad0565b98975050505050505050565b60008060408385031215613b6457600080fd5b505080516020909101519092909150565b6001600160f81b0319815260609390931b6001600160601b03191660018401526015830191909152603582015260550190565b634e487b7160e01b600052603260045260246000fd5b60ff8116811461356057600080fd5b600060208284031215613bdf57600080fd5b813561189a81613bbe565b6000808335601e19843603018112613c0157600080fd5b8301803591506001600160401b03821115613c1b57600080fd5b60200191503681900382131561066257600080fd5b600082601f830112613c4157600080fd5b81356020613c516136608361385f565b82815260059290921b84018101918181019086841115613c7057600080fd5b8286015b84811015613c94578035613c878161354b565b8352918301918301613c74565b509695505050505050565b60008060408385031215613cb257600080fd5b82356001600160401b0380821115613cc957600080fd5b613cd586838701613c30565b9350602091508185013581811115613cec57600080fd5b85019050601f81018613613cff57600080fd5b8035613d0d6136608261385f565b81815260059190911b82018301908381019088831115613d2c57600080fd5b928401925b82841015613d4a57833582529284019290840190613d31565b80955050505050509250929050565b634e487b7160e01b600052601160045260246000fd5b600060018201613d8157613d81613d59565b5060010190565b600060208284031215613d9a57600080fd5b5035919050565b803562ffffff8116811461354657600080fd5b60006020808385031215613dc757600080fd5b82356001600160401b03811115613ddd57600080fd5b8301601f81018513613dee57600080fd5b8035613dfc6136608261385f565b81815260a09182028301840191848201919088841115613e1b57600080fd5b938501935b83851015613e925780858a031215613e385760008081fd5b613e4061349e565b853581528686013587820152604080870135613e5b8161354b565b90820152606086810135613e6e8161354b565b908201526080613e7f878201613da1565b9082015283529384019391850191613e20565b50979650505050505050565b60006020808385031215613eb157600080fd5b82356001600160401b03811115613ec757600080fd5b8301601f81018513613ed857600080fd5b8035613ee66136608261385f565b81815260e09182028301840191848201919088841115613f0557600080fd5b938501935b83851015613e925780858a031215613f225760008081fd5b613f2a6134c0565b853581528686013587820152604080870135613f458161354b565b90820152606086810135613f588161354b565b90820152608086810135613f6b8161354b565b9082015260a0613f7c878201613da1565b9082015260c0613f8d878201613da1565b9082015283529384019391850191613f0a565b60006020808385031215613fb357600080fd5b82356001600160401b0380821115613fca57600080fd5b818501915085601f830112613fde57600080fd5b8135613fec6136608261385f565b81815260059190911b8301840190848101908883111561400b57600080fd5b8585015b838110156140a05780358581111561402657600080fd5b86016080818c03601f1901121561403d5760008081fd5b6140456134e2565b8882013581526040808301358a830152606080840135898111156140695760008081fd5b6140778f8d83880101613c30565b83850152506080840135935061408c846136e7565b82019290925284525091860191860161400f565b5098975050505050505050565b600060208083850312156140c057600080fd5b82356001600160401b03808211156140d757600080fd5b818501915085601f8301126140eb57600080fd5b81356140f96136608261385f565b81815260059190911b8301840190848101908883111561411857600080fd5b8585015b838110156140a05780358581111561413357600080fd5b86016080818c03601f1901121561414a5760008081fd5b6141526134e2565b8882013581526040808301358a830152606080840135898111156141765760008081fd5b6141848f8d83880101613882565b92840192909252608093909301359282019290925284525091860191860161411c565b600080600080608085870312156141bd57600080fd5b8435935060208501356001600160401b038111156141da57600080fd5b6141e687828801613c30565b93505060408501356141f78161354b565b9396929550929360600135925050565b6000806040838503121561421a57600080fd5b82356142258161354b565b946020939093013593505050565b60006020828403121561424557600080fd5b5051919050565b818103818111156115a8576115a8613d59565b6000602080838503121561427257600080fd5b82356001600160401b0381111561428857600080fd5b8301601f8101851361429957600080fd5b80356142a76136608261385f565b818152606091820283018401918482019190888411156142c657600080fd5b938501935b83851015613e925780858a0312156142e35760008081fd5b6142eb61347c565b85356142f68161354b565b8152858701356143058161354b565b8188015260408681013590820152835293840193918501916142cb565b600082601f83011261433357600080fd5b813560206143436136608361385f565b82815260059290921b8401810191818101908684111561436257600080fd5b8286015b84811015613c945780356001600160401b038111156143855760008081fd5b6143938986838b0101613641565b845250918301918301614366565b60008060006101a084860312156143b757600080fd5b6143c1858561356e565b92506101608401356001600160401b03808211156143de57600080fd5b818601915086601f8301126143f257600080fd5b813560206144026136608361385f565b82815260059290921b8401810191818101908a84111561442157600080fd5b948201945b8386101561444857853561443981613bbe565b82529482019490820190614426565b965050505061018086013591508082111561446257600080fd5b5061446f86828701614322565b9150509250925092565b60006020828403121561448b57600080fd5b815161189a816136e7565b808201808211156115a8576115a8613d59565b600082601f8301126144ba57600080fd5b815160206144ca6136608361385f565b82815260059290921b840181019181810190868411156144e957600080fd5b8286015b84811015613c945780516001600160401b0381111561450c5760008081fd5b8701603f8101891361451e5760008081fd5b8481015160406145306136608361361a565b8281528b828486010111156145455760008081fd5b61455483898301848701613a80565b86525050509183019183016144ed565b60008060006060848603121561457957600080fd5b83516145848161354b565b809350506020808501516001600160401b03808211156145a357600080fd5b818701915087601f8301126145b757600080fd5b81516145c56136608261385f565b81815260059190911b8301840190848101908a8311156145e457600080fd5b938501935b8285101561460b5784516145fc81613bbe565b825293850193908501906145e9565b60408a0151909750945050508083111561462457600080fd5b505061446f868287016144a9565b600081518084526020808501945080840160005b8381101561466557815160ff1687529582019590820190600101614646565b509495945050505050565b600081518084526020808501808196508360051b8101915082860160005b858110156146b85782840389526146a6848351613aa4565b9885019893509084019060010161468e565b5091979650505050505050565b6040815260006146d86040830185614632565b82810360208401526146ea8185614670565b95945050505050565b602081526000825160a0602084015261470f60c0840182613aa4565b905060018060a01b0360208501511660408401526040840151606084015260608401516080840152608084015160a08401528091505092915050565b600081518084526020808501945080840160005b838110156146655781516001600160a01b03168752958201959082019060010161475f565b86815285602082015260c0604082015260006147a360c083018761474b565b6001600160a01b03958616606084015293909416608082015260a00152949350505050565b80820281158282048414176115a8576115a8613d59565b6000826147fc57634e487b7160e01b600052601260045260246000fd5b500490565b6001600160a01b038416815260606020820181905260009061482590830185614632565b82810360408401526148378185614670565b9695505050505050565b600061012061ffff8c1683528a602084015289604084015260018060a01b03891660608401528760808401528660a08401528060c084015261488581840187613ad0565b905082810360e08401526148998186613aa4565b90508281036101008401526148ae8185613aa4565b9c9b505050505050505050505050565b600082516148d0818460208701613a80565b9190910192915050565b84815283602082015260018060a01b03831660408201526080606082015260006148376080830184613aa4565b828152604060208201526000612f30604083018461474b565b6000602080838503121561493357600080fd5b82516001600160401b0381111561494957600080fd5b8301601f8101851361495a57600080fd5b80516149686136608261385f565b81815260059190911b8201830190838101908783111561498757600080fd5b928401925b828410156131185783518252928401929084019061498c565b80516001600160701b038116811461354657600080fd5b6000806000606084860312156149d157600080fd5b6149da846149a5565b92506149e8602085016149a5565b9150604084015163ffffffff8116811461373557600080fd5b60208152600061189a6020830184613aa456fea26469706673582212202b2898ac290645859a21da2ebefbcdc386b91f2e824655df5d6b6edfa2f2882d64736f6c63430008110033",
    "linkReferences": {}
  },
  "methodIdentifiers": {
    "arbitrumSwaps(uint8[],bytes[])": "5b676ff3",
    "factory()": "c45a0155",
    "feeCollector()": "c415b95c",
    "getAmountOut(uint256,address,address)": "5e1e6325",
    "getAmountsOut(uint256,(address,address,bool)[])": "9881fcb4",
    "getFee((uint16,address,uint256,uint256,uint256,uint256,uint256,address,address,uint256,bytes32),bytes)": "4285f6e4",
    "isPair(address)": "e5e31b13",
    "pairCodeHash()": "9aab9248",
    "pairFor(address,address,bool)": "4c1ee03e",
    "sgReceive(uint16,bytes,uint256,address,uint256,bytes)": "ab8236f3",
    "sortTokens(address,address)": "544caa56",
    "stargateRouter()": "a9e56f3c",
    "swapRouter()": "c31c9c07",
    "xcalFactory()": "4588b7c5",
    "xcalWeth()": "750a1d48"
  },
  "id": 49
}