{
  "abi": [
    {
      "inputs": [
        {
          "internalType": "address",
          "name": "_weth",
          "type": "address"
        },
        {
          "internalType": "contract ISwapRouter",
          "name": "_swapRouter",
          "type": "address"
        },
        {
          "internalType": "address",
          "name": "_feeCollector",
          "type": "address"
        },
        {
          "internalType": "address",
          "name": "_factory",
          "type": "address"
        },
        {
          "internalType": "bytes32",
          "name": "_pairCodeHash",
          "type": "bytes32"
        },
        {
          "internalType": "address",
          "name": "_xcalFactory",
          "type": "address"
        },
        {
          "internalType": "address",
          "name": "_camelotRouter",
          "type": "address"
        },
        {
          "internalType": "contract IStargateRouter",
          "name": "_stargateRouter",
          "type": "address"
        }
      ],
      "stateMutability": "nonpayable",
      "type": "constructor"
    },
    {
      "inputs": [],
      "name": "InvaldStep",
      "type": "error"
    },
    {
      "inputs": [],
      "name": "MismatchedLengths",
      "type": "error"
    },
    {
      "inputs": [],
      "name": "MoreThanZero",
      "type": "error"
    },
    {
      "inputs": [],
      "name": "NotEnoughGas",
      "type": "error"
    },
    {
      "inputs": [],
      "name": "NotStgRouter",
      "type": "error"
    },
    {
      "inputs": [],
      "name": "WithdrawFailed",
      "type": "error"
    },
    {
      "anonymous": false,
      "inputs": [
        {
          "indexed": false,
          "internalType": "address",
          "name": "_token",
          "type": "address"
        },
        {
          "indexed": false,
          "internalType": "uint256",
          "name": "_fee",
          "type": "uint256"
        }
      ],
      "name": "FeePaid",
      "type": "event"
    },
    {
      "anonymous": false,
      "inputs": [
        {
          "indexed": true,
          "internalType": "address",
          "name": "token",
          "type": "address"
        },
        {
          "indexed": false,
          "internalType": "uint256",
          "name": "amountLD",
          "type": "uint256"
        },
        {
          "indexed": false,
          "internalType": "bool",
          "name": "failed",
          "type": "bool"
        },
        {
          "indexed": false,
          "internalType": "bool",
          "name": "dustSent",
          "type": "bool"
        }
      ],
      "name": "ReceivedOnDestination",
      "type": "event"
    },
    {
      "inputs": [
        {
          "internalType": "uint8[]",
          "name": "steps",
          "type": "uint8[]"
        },
        {
          "internalType": "bytes[]",
          "name": "data",
          "type": "bytes[]"
        }
      ],
      "name": "arbitrumSwaps",
      "outputs": [],
      "stateMutability": "payable",
      "type": "function"
    },
    {
      "inputs": [],
      "name": "camelotRouter",
      "outputs": [
        {
          "internalType": "contract ICamelotRouter",
          "name": "",
          "type": "address"
        }
      ],
      "stateMutability": "view",
      "type": "function"
    },
    {
      "inputs": [],
      "name": "factory",
      "outputs": [
        {
          "internalType": "address",
          "name": "",
          "type": "address"
        }
      ],
      "stateMutability": "view",
      "type": "function"
    },
    {
      "inputs": [],
      "name": "feeCollector",
      "outputs": [
        {
          "internalType": "address",
          "name": "",
          "type": "address"
        }
      ],
      "stateMutability": "view",
      "type": "function"
    },
    {
      "inputs": [
        {
          "internalType": "uint256",
          "name": "amountIn",
          "type": "uint256"
        },
        {
          "internalType": "address",
          "name": "tokenIn",
          "type": "address"
        },
        {
          "internalType": "address",
          "name": "tokenOut",
          "type": "address"
        }
      ],
      "name": "getAmountOut",
      "outputs": [
        {
          "internalType": "uint256",
          "name": "amount",
          "type": "uint256"
        },
        {
          "internalType": "bool",
          "name": "stable",
          "type": "bool"
        }
      ],
      "stateMutability": "view",
      "type": "function"
    },
    {
      "inputs": [
        {
          "internalType": "uint256",
          "name": "amountIn",
          "type": "uint256"
        },
        {
          "components": [
            {
              "internalType": "address",
              "name": "from",
              "type": "address"
            },
            {
              "internalType": "address",
              "name": "to",
              "type": "address"
            },
            {
              "internalType": "bool",
              "name": "stable",
              "type": "bool"
            }
          ],
          "internalType": "struct XCaliburAdapter.route[]",
          "name": "routes",
          "type": "tuple[]"
        }
      ],
      "name": "getAmountsOut",
      "outputs": [
        {
          "internalType": "uint256[]",
          "name": "amounts",
          "type": "uint256[]"
        }
      ],
      "stateMutability": "view",
      "type": "function"
    },
    {
      "inputs": [
        {
          "components": [
            {
              "internalType": "uint16",
              "name": "dstChainId",
              "type": "uint16"
            },
            {
              "internalType": "address",
              "name": "token",
              "type": "address"
            },
            {
              "internalType": "uint256",
              "name": "srcPoolId",
              "type": "uint256"
            },
            {
              "internalType": "uint256",
              "name": "dstPoolId",
              "type": "uint256"
            },
            {
              "internalType": "uint256",
              "name": "amount",
              "type": "uint256"
            },
            {
              "internalType": "uint256",
              "name": "amountMin",
              "type": "uint256"
            },
            {
              "internalType": "uint256",
              "name": "dustAmount",
              "type": "uint256"
            },
            {
              "internalType": "address",
              "name": "receiver",
              "type": "address"
            },
            {
              "internalType": "address",
              "name": "to",
              "type": "address"
            },
            {
              "internalType": "uint256",
              "name": "gas",
              "type": "uint256"
            },
            {
              "internalType": "bytes32",
              "name": "srcContext",
              "type": "bytes32"
            }
          ],
          "internalType": "struct StargateArbitrum.StargateParams",
          "name": "params",
          "type": "tuple"
        },
        {
          "internalType": "bytes",
          "name": "payload",
          "type": "bytes"
        }
      ],
      "name": "getFee",
      "outputs": [
        {
          "internalType": "uint256",
          "name": "_fee",
          "type": "uint256"
        }
      ],
      "stateMutability": "view",
      "type": "function"
    },
    {
      "inputs": [
        {
          "internalType": "address",
          "name": "pair",
          "type": "address"
        }
      ],
      "name": "isPair",
      "outputs": [
        {
          "internalType": "bool",
          "name": "",
          "type": "bool"
        }
      ],
      "stateMutability": "view",
      "type": "function"
    },
    {
      "inputs": [],
      "name": "pairCodeHash",
      "outputs": [
        {
          "internalType": "bytes32",
          "name": "",
          "type": "bytes32"
        }
      ],
      "stateMutability": "view",
      "type": "function"
    },
    {
      "inputs": [
        {
          "internalType": "address",
          "name": "tokenA",
          "type": "address"
        },
        {
          "internalType": "address",
          "name": "tokenB",
          "type": "address"
        },
        {
          "internalType": "bool",
          "name": "stable",
          "type": "bool"
        }
      ],
      "name": "pairFor",
      "outputs": [
        {
          "internalType": "address",
          "name": "pair",
          "type": "address"
        }
      ],
      "stateMutability": "view",
      "type": "function"
    },
    {
      "inputs": [
        {
          "internalType": "uint16",
          "name": "",
          "type": "uint16"
        },
        {
          "internalType": "bytes",
          "name": "",
          "type": "bytes"
        },
        {
          "internalType": "uint256",
          "name": "",
          "type": "uint256"
        },
        {
          "internalType": "address",
          "name": "_token",
          "type": "address"
        },
        {
          "internalType": "uint256",
          "name": "amountLD",
          "type": "uint256"
        },
        {
          "internalType": "bytes",
          "name": "_payload",
          "type": "bytes"
        }
      ],
      "name": "sgReceive",
      "outputs": [],
      "stateMutability": "nonpayable",
      "type": "function"
    },
    {
      "inputs": [
        {
          "internalType": "address",
          "name": "tokenA",
          "type": "address"
        },
        {
          "internalType": "address",
          "name": "tokenB",
          "type": "address"
        }
      ],
      "name": "sortTokens",
      "outputs": [
        {
          "internalType": "address",
          "name": "token0",
          "type": "address"
        },
        {
          "internalType": "address",
          "name": "token1",
          "type": "address"
        }
      ],
      "stateMutability": "pure",
      "type": "function"
    },
    {
      "inputs": [],
      "name": "stargateRouter",
      "outputs": [
        {
          "internalType": "contract IStargateRouter",
          "name": "",
          "type": "address"
        }
      ],
      "stateMutability": "view",
      "type": "function"
    },
    {
      "inputs": [],
      "name": "swapRouter",
      "outputs": [
        {
          "internalType": "contract ISwapRouter",
          "name": "",
          "type": "address"
        }
      ],
      "stateMutability": "view",
      "type": "function"
    },
    {
      "inputs": [],
      "name": "xcalFactory",
      "outputs": [
        {
          "internalType": "address",
          "name": "",
          "type": "address"
        }
      ],
      "stateMutability": "view",
      "type": "function"
    },
    {
      "inputs": [],
      "name": "xcalWeth",
      "outputs": [
        {
          "internalType": "contract IWETH",
          "name": "",
          "type": "address"
        }
      ],
      "stateMutability": "view",
      "type": "function"
    },
    {
      "stateMutability": "payable",
      "type": "receive"
    }
  ],
  "bytecode": {
    "object": "0x6101606040526002805460ff60a01b1916600160a01b1790553480156200002557600080fd5b506040516200520a3803806200520a8339810160408190526200004891620001cd565b6001600160a01b03878116608052600080546001600160a01b03191687831617905560018590558290829085908b908216158015906200009057506001600160a01b03811615155b620000f65760405162461bcd60e51b815260206004820152602c60248201527f526f757465723a207a65726f20616464726573732070726f766964656420696e60448201526b1031b7b739ba393ab1ba37b960a11b606482015260840160405180910390fd5b6001600160a01b03821660a081905260408051631355724960e31b81529051639aab9248916004808201926020929091908290030181865afa15801562000141573d6000803e3d6000fd5b505050506040513d601f19601f8201168201806040525081019062000167919062000282565b60e0526001600160a01b0390811660c052918216610100525090811661012052978816610140525050600280546001600160a01b0319169490961693909317909455506200029c92505050565b6001600160a01b0381168114620001ca57600080fd5b50565b600080600080600080600080610100898b031215620001eb57600080fd5b8851620001f881620001b4565b60208a01519098506200020b81620001b4565b60408a01519097506200021e81620001b4565b60608a01519096506200023181620001b4565b60808a015160a08b015191965094506200024b81620001b4565b60c08a01519093506200025e81620001b4565b60e08a01519092506200027181620001b4565b809150509295985092959890939650565b6000602082840312156200029557600080fd5b5051919050565b60805160a05160c05160e051610100516101205161014051614e64620003a6600039600081816108a201528181610bf10152610c8401526000818161036b0152818161200a015281816120bb015281816121430152818161218e015281816122730152818161230301526132a50152600081816102a3015281816103e8015281816113990152818161266a015281816126f501526127770152600061054b0152600061022c0152600081816101480152818161051001528181610eb001528181610fc40152818161122201526115680152600081816102f7015281816116fa01528181611773015281816118550152818161197b015281816119f40152611acd0152614e646000f3fe6080604052600436106100f75760003560e01c80639aab92481161008a578063c415b95c11610059578063c415b95c14610319578063c45a015514610339578063e5700fd414610359578063e5e31b131461038d57600080fd5b80639aab92481461027b578063a9e56f3c14610291578063ab8236f3146102c5578063c31c9c07146102e557600080fd5b80635b676ff3116100c65780635b676ff3146101d05780635e1e6325146101e5578063750a1d481461021a5780639881fcb41461024e57600080fd5b80634285f6e4146101035780634588b7c5146101365780634c1ee03e14610182578063544caa56146101a257600080fd5b366100fe57005b600080fd5b34801561010f57600080fd5b5061012361011e366004613a97565b6103bd565b6040519081526020015b60405180910390f35b34801561014257600080fd5b5061016a7f000000000000000000000000000000000000000000000000000000000000000081565b6040516001600160a01b03909116815260200161012d565b34801561018e57600080fd5b5061016a61019d366004613af5565b6104ce565b3480156101ae57600080fd5b506101c26101bd366004613b40565b61059e565b60405161012d929190613b79565b6101e36101de366004613bd7565b610696565b005b3480156101f157600080fd5b50610205610200366004613c42565b610e78565b6040805192835290151560208301520161012d565b34801561022657600080fd5b5061016a7f000000000000000000000000000000000000000000000000000000000000000081565b34801561025a57600080fd5b5061026e610269366004613d4b565b6110cc565b60405161012d9190613d87565b34801561028757600080fd5b5061012360015481565b34801561029d57600080fd5b5061016a7f000000000000000000000000000000000000000000000000000000000000000081565b3480156102d157600080fd5b506101e36102e0366004613dcb565b61138e565b3480156102f157600080fd5b5061016a7f000000000000000000000000000000000000000000000000000000000000000081565b34801561032557600080fd5b5060025461016a906001600160a01b031681565b34801561034557600080fd5b5060005461016a906001600160a01b031681565b34801561036557600080fd5b5061016a7f000000000000000000000000000000000000000000000000000000000000000081565b34801561039957600080fd5b506103ad6103a8366004613e65565b611546565b604051901515815260200161012d565b6000808360e001516040516020016103d59190613e82565b60405160208183030381529060405290507f00000000000000000000000000000000000000000000000000000000000000006001600160a01b0316630a51236985600001516001848760405180606001604052808b610120015181526020018b60c0015181526020018b60e001516040516020016104539190613e82565b6040516020818303038152906040528152506040518663ffffffff1660e01b8152600401610485959493929190613f13565b6040805180830381865afa1580156104a1573d6000803e3d6000fd5b505050506040513d601f19601f820116820180604052508101906104c59190613f6b565b50949350505050565b60008060006104dd868661059e565b6040516001600160601b0319606084811b8216602084015283901b16603482015286151560f81b604882015291935091507f000000000000000000000000000000000000000000000000000000000000000090604901604051602081830303815290604052805190602001207f000000000000000000000000000000000000000000000000000000000000000060405160200161057c93929190613f8f565b60408051601f1981840301815291905280516020909101209695505050505050565b600080826001600160a01b0316846001600160a01b0316036106115760405162461bcd60e51b815260206004820152602160248201527f426173655631526f757465723a204944454e544943414c5f41444452455353456044820152605360f81b60648201526084015b60405180910390fd5b826001600160a01b0316846001600160a01b031610610631578284610634565b83835b90925090506001600160a01b03821661068f5760405162461bcd60e51b815260206004820152601a60248201527f426173655631526f757465723a205a45524f5f414444524553530000000000006044820152606401610608565b9250929050565b600254600160a01b900460ff166001146106df5760405162461bcd60e51b815260206004820152600a6024820152695245454e5452414e435960b01b6044820152606401610608565b6002805460ff60a01b1916600160a11b179055808314610712576040516373f8993760e11b815260040160405180910390fd5b60005b83811015610e5e57600085858381811061073157610731613fc2565b90506020020160208101906107469190613fe7565b905060001960ff82160161083e5760008085858581811061076957610769613fc2565b905060200281019061077b9190614004565b81019061078891906140b9565b9150915060005b82518110156108365760008282815181106107ac576107ac613fc2565b6020026020010151116107d25760405163fe4155c760e01b815260040160405180910390fd5b61082433308484815181106107e9576107e9613fc2565b602002602001015186858151811061080357610803613fc2565b60200260200101516001600160a01b03166115db909392919063ffffffff16565b8061082e81614189565b91505061078f565b505050610e4b565b60011960ff82160161091a57600084848481811061085e5761085e613fc2565b90506020028101906108709190614004565b81019061087d91906141a2565b9050806000036108a05760405163fe4155c760e01b815260040160405180910390fd5b7f00000000000000000000000000000000000000000000000000000000000000006001600160a01b031663d0e30db0826040518263ffffffff1660e01b81526004016000604051808303818588803b1580156108fb57600080fd5b505af115801561090f573d6000803e3d6000fd5b505050505050610e4b565b60021960ff8216016109aa57600084848481811061093a5761093a613fc2565b905060200281019061094c9190614004565b81019061095991906141ce565b905060005b81518110156109a357600082828151811061097b5761097b613fc2565b6020026020010151905061098e8161164c565b5050808061099b90614189565b91505061095e565b5050610e4b565b60031960ff821601610a2c5760008484848181106109ca576109ca613fc2565b90506020028101906109dc9190614004565b8101906109e991906142b8565b905060005b81518110156109a357610a19828281518110610a0c57610a0c613fc2565b60200260200101516118cd565b5080610a2481614189565b9150506109ee565b60041960ff821601610aae576000848484818110610a4c57610a4c613fc2565b9050602002810190610a5e9190614004565b810190610a6b91906143ba565b905060005b81518110156109a357610a9b828281518110610a8e57610a8e613fc2565b6020026020010151611b17565b5080610aa681614189565b915050610a70565b60051960ff821601610b30576000848484818110610ace57610ace613fc2565b9050602002810190610ae09190614004565b810190610aed91906144c7565b905060005b81518110156109a357610b1d828281518110610b1057610b10613fc2565b6020026020010151611d0b565b5080610b2881614189565b915050610af2565b60061960ff821601610b9057600080600080878787818110610b5457610b54613fc2565b9050602002810190610b669190614004565b810190610b7391906145c1565b9350935093509350610b8784848484611f48565b50505050610e4b565b600c1960ff821601610d1e57600080858585818110610bb157610bb1613fc2565b9050602002810190610bc39190614004565b810190610bd09190614621565b9150915080600003610c69576040516370a0823160e01b81523060048201527f00000000000000000000000000000000000000000000000000000000000000006001600160a01b0316906370a0823190602401602060405180830381865afa158015610c40573d6000803e3d6000fd5b505050506040513d601f19601f82011682018060405250810190610c64919061464d565b610c6b565b805b604051632e1a7d4d60e01b8152600481018290529091507f00000000000000000000000000000000000000000000000000000000000000006001600160a01b031690632e1a7d4d90602401600060405180830381600087803b158015610cd057600080fd5b505af1158015610ce4573d6000803e3d6000fd5b505050506000610cf3826123b6565b9050610d0883610d038385614666565b6123db565b600254610836906001600160a01b0316826123db565b600d1960ff821601610ddf576000848484818110610d3e57610d3e613fc2565b9050602002810190610d509190614004565b810190610d5d9190614679565b905060005b81518110156109a357610dcd828281518110610d8057610d80613fc2565b602002602001015160000151838381518110610d9e57610d9e613fc2565b602002602001015160400151848481518110610dbc57610dbc613fc2565b602002602001015160200151612431565b80610dd781614189565b915050610d62565b600e1960ff821601610e32576000806000868686818110610e0257610e02613fc2565b9050602002810190610e149190614004565b810190610e2191906147bb565b92509250925061083683838361253a565b6040516379df70e560e11b815260040160405180910390fd5b5080610e5681614189565b915050610715565b50506002805460ff60a01b1916600160a01b179055505050565b6000806000610e89858560016104ce565b60405163e5e31b1360e01b81526001600160a01b03828116600483015291925060009182917f00000000000000000000000000000000000000000000000000000000000000009091169063e5e31b1390602401602060405180830381865afa158015610ef9573d6000803e3d6000fd5b505050506040513d601f19601f82011682018060405250810190610f1d9190614893565b15610f96576040516378a051ad60e11b8152600481018990526001600160a01b03888116602483015284169063f140a35a90604401602060405180830381865afa158015610f6f573d6000803e3d6000fd5b505050506040513d601f19601f82011682018060405250810190610f93919061464d565b91505b610fa2878760006104ce565b60405163e5e31b1360e01b81526001600160a01b0380831660048301529194507f00000000000000000000000000000000000000000000000000000000000000009091169063e5e31b1390602401602060405180830381865afa15801561100d573d6000803e3d6000fd5b505050506040513d601f19601f820116820180604052508101906110319190614893565b156110aa576040516378a051ad60e11b8152600481018990526001600160a01b03888116602483015284169063f140a35a90604401602060405180830381865afa158015611083573d6000803e3d6000fd5b505050506040513d601f19601f820116820180604052508101906110a7919061464d565b90505b8082116110b9578060006110bd565b8160015b94509450505050935093915050565b60606001825110156111205760405162461bcd60e51b815260206004820152601a60248201527f426173655631526f757465723a20494e56414c49445f504154480000000000006044820152606401610608565b815161112d9060016148b0565b6001600160401b038111156111445761114461383d565b60405190808252806020026020018201604052801561116d578160200160208202803683370190505b509050828160008151811061118457611184613fc2565b60200260200101818152505060005b82518110156113875760006112008483815181106111b3576111b3613fc2565b6020026020010151600001518584815181106111d1576111d1613fc2565b6020026020010151602001518685815181106111ef576111ef613fc2565b6020026020010151604001516104ce565b60405163e5e31b1360e01b81526001600160a01b0380831660048301529192507f00000000000000000000000000000000000000000000000000000000000000009091169063e5e31b1390602401602060405180830381865afa15801561126b573d6000803e3d6000fd5b505050506040513d601f19601f8201168201806040525081019061128f9190614893565b1561137457806001600160a01b031663f140a35a8484815181106112b5576112b5613fc2565b60200260200101518685815181106112cf576112cf613fc2565b6020026020010151600001516040518363ffffffff1660e01b815260040161130a9291909182526001600160a01b0316602082015260400190565b602060405180830381865afa158015611327573d6000803e3d6000fd5b505050506040513d601f19601f8201168201806040525081019061134b919061464d565b836113578460016148b0565b8151811061136757611367613fc2565b6020026020010181815250505b508061137f81614189565b915050611193565b5092915050565b336001600160a01b037f000000000000000000000000000000000000000000000000000000000000000016146113d757604051638afe477f60e01b815260040160405180910390fd5b600080620186a081815a6113eb9190614666565b9050600080600087806020019051810190611406919061497e565b925092509250845a1015611438576114286001600160a01b038b16848b612868565b47156114385761143883476123db565b604051635b676ff360e01b81523090635b676ff390869061145f9086908690600401614adf565b600060405180830381600088803b15801561147957600080fd5b5087f19350505050801561148b575060015b6114d9573d8080156114b9576040519150601f19603f3d011682016040523d82523d6000602084013e6114be565b606091505b506114d36001600160a01b038c16858c612868565b60019750505b47156114e9576114e983476123db565b604080518a815288151560208201528715158183015290516001600160a01b038c16917f7f345d6da48bd1339fd428ff45265a0f01258b14ca09dcf8db0c469f4f732fd3919081900360600190a250505050505050505050505050565b60405163e5e31b1360e01b81526001600160a01b0382811660048301526000917f00000000000000000000000000000000000000000000000000000000000000009091169063e5e31b1390602401602060405180830381865afa1580156115b1573d6000803e3d6000fd5b505050506040513d601f19601f820116820180604052508101906115d59190614893565b92915050565b6040516001600160a01b03808516602483015283166044820152606481018290526116469085906323b872dd60e01b906084015b60408051601f198184030181529190526020810180516001600160e01b03166001600160e01b031990931692909217909152612898565b50505050565b80516000901561165d5781516116cb565b60408083015190516370a0823160e01b81523060048201526001600160a01b03909116906370a0823190602401602060405180830381865afa1580156116a7573d6000803e3d6000fd5b505050506040513d601f19601f820116820180604052508101906116cb919061464d565b8083526040808401519051636eb1769f60e11b81526001600160a01b039091169063dd62ed3e906117229030907f000000000000000000000000000000000000000000000000000000000000000090600401613b79565b602060405180830381865afa15801561173f573d6000803e3d6000fd5b505050506040513d601f19601f82011682018060405250810190611763919061464d565b101561179a5761179a82604001517f000000000000000000000000000000000000000000000000000000000000000060001961296a565b6040805161010081018252838201516001600160a01b0390811682526060808601518216602080850191825260808089015162ffffff90811687890190815230958801958652429288019283528a5160a08901908152938b015160c08901908152600060e08a01908152995163414bf38960e01b8152895189166004820152955188166024870152905190911660448501529351851660648401525160848301525160a4820152905160c48201529251811660e484015290917f00000000000000000000000000000000000000000000000000000000000000009091169063414bf38990610104015b6020604051808303816000875af11580156118a2573d6000803e3d6000fd5b505050506040513d601f19601f820116820180604052508101906118c6919061464d565b9392505050565b8051600090156118de57815161194c565b60408083015190516370a0823160e01b81523060048201526001600160a01b03909116906370a0823190602401602060405180830381865afa158015611928573d6000803e3d6000fd5b505050506040513d601f19601f8201168201806040525081019061194c919061464d565b8083526040808401519051636eb1769f60e11b81526001600160a01b039091169063dd62ed3e906119a39030907f000000000000000000000000000000000000000000000000000000000000000090600401613b79565b602060405180830381865afa1580156119c0573d6000803e3d6000fd5b505050506040513d601f19601f820116820180604052508101906119e4919061464d565b1015611a1b57611a1b82604001517f000000000000000000000000000000000000000000000000000000000000000060001961296a565b6040805160a08082018352918401519184015160608086015160c08088015160808901516001600160601b031997851b8816928701929092526001600160e81b031960e895861b811660d488015292841b871660d787015290931b1660eb8401521b90911660ee8201526000908061010281016040516020818303038152906040528152602001306001600160a01b0316815260200142815260200184600001518152602001846020015181525090507f00000000000000000000000000000000000000000000000000000000000000006001600160a01b031663c04b8d59826040518263ffffffff1660e01b81526004016118839190614b0d565b805160009015611b28578151611bb3565b8160400151600081518110611b3f57611b3f613fc2565b60209081029190910101516040516370a0823160e01b81523060048201526001600160a01b03909116906370a0823190602401602060405180830381865afa158015611b8f573d6000803e3d6000fd5b505050506040513d601f19601f82011682018060405250810190611bb3919061464d565b8083526000805460408501516001549293611bdc936001600160a01b0390931692909190612a6a565b90508060018251611bed9190614666565b81518110611bfd57611bfd613fc2565b602002602001015191508260200151821015611c5b5760405162461bcd60e51b815260206004820152601760248201527f696e73756666696369656e742d616d6f756e742d6f75740000000000000000006044820152606401610608565b826060015115611cf6576000805460408501518051611cf693611cbe936001600160a01b03169291611c8f57611c8f613fc2565b60200260200101518660400151600181518110611cae57611cae613fc2565b6020026020010151600154612bed565b845160408601518051600090611cd657611cd6613fc2565b60200260200101516001600160a01b03166128689092919063ffffffff16565b611d0581846040015130612c73565b50919050565b6060816060015142811015611d5a5760405162461bcd60e51b815260206004820152601560248201527410985cd9558c549bdd5d195c8e8811561412549151605a1b6044820152606401610608565b825115611d68578251611df4565b8260400151600081518110611d7f57611d7f613fc2565b6020908102919091010151516040516370a0823160e01b81523060048201526001600160a01b03909116906370a0823190602401602060405180830381865afa158015611dd0573d6000803e3d6000fd5b505050506040513d601f19601f82011682018060405250810190611df4919061464d565b8084526040840151611e0691906110cc565b915082602001518260018451611e1c9190614666565b81518110611e2c57611e2c613fc2565b60200260200101511015611e935760405162461bcd60e51b815260206004820152602860248201527f426173655631526f757465723a20494e53554646494349454e545f4f555450556044820152671517d05353d5539560c21b6064820152608401610608565b611f398360400151600081518110611ead57611ead613fc2565b602002602001015160000151611f198560400151600081518110611ed357611ed3613fc2565b6020026020010151600001518660400151600081518110611ef657611ef6613fc2565b60200260200101516020015187604001516000815181106111ef576111ef613fc2565b84600081518110611f2c57611f2c613fc2565b6020026020010151612e4a565b611d0582846040015130612f32565b8315611f545783611fdb565b82600081518110611f6757611f67613fc2565b60209081029190910101516040516370a0823160e01b81523060048201526001600160a01b03909116906370a0823190602401602060405180830381865afa158015611fb7573d6000803e3d6000fd5b505050506040513d601f19601f82011682018060405250810190611fdb919061464d565b93508383600081518110611ff157611ff1613fc2565b60200260200101516001600160a01b031663dd62ed3e307f00000000000000000000000000000000000000000000000000000000000000006040518363ffffffff1660e01b8152600401612046929190613b79565b602060405180830381865afa158015612063573d6000803e3d6000fd5b505050506040513d601f19601f82011682018060405250810190612087919061464d565b10156122f3576000836000815181106120a2576120a2613fc2565b60200260200101516001600160a01b031663dd62ed3e307f00000000000000000000000000000000000000000000000000000000000000006040518363ffffffff1660e01b81526004016120f7929190613b79565b602060405180830381865afa158015612114573d6000803e3d6000fd5b505050506040513d601f19601f82011682018060405250810190612138919061464d565b111561223e5761223e7f00000000000000000000000000000000000000000000000000000000000000008460008151811061217557612175613fc2565b60200260200101516001600160a01b031663dd62ed3e307f00000000000000000000000000000000000000000000000000000000000000006040518363ffffffff1660e01b81526004016121ca929190613b79565b602060405180830381865afa1580156121e7573d6000803e3d6000fd5b505050506040513d601f19601f8201168201806040525081019061220b919061464d565b8560008151811061221e5761221e613fc2565b60200260200101516001600160a01b03166131819092919063ffffffff16565b8260008151811061225157612251613fc2565b602090810291909101015160405163095ea7b360e01b81526001600160a01b037f00000000000000000000000000000000000000000000000000000000000000008116600483015260001960248301529091169063095ea7b3906044016020604051808303816000875af11580156122cd573d6000803e3d6000fd5b505050506040513d601f19601f820116820180604052508101906122f19190614893565b505b60006122ff858561328b565b90507f00000000000000000000000000000000000000000000000000000000000000006001600160a01b031663ac3893ba8683600185516123409190614666565b8151811061235057612350613fc2565b6020026020010151873088886040518763ffffffff1660e01b815260040161237d96959493929190614b9e565b600060405180830381600087803b15801561239757600080fd5b505af11580156123ab573d6000803e3d6000fd5b505050505050505050565b60006127106123c78361270b614be2565b6123d19190614bf9565b6115d59083614666565b600080600080600085875af190508061242c5760405162461bcd60e51b815260206004820152601360248201527211551217d514905394d1915497d19052531151606a1b6044820152606401610608565b505050565b816000036124a6576040516370a0823160e01b81523060048201526001600160a01b038416906370a0823190602401602060405180830381865afa15801561247d573d6000803e3d6000fd5b505050506040513d601f19601f820116820180604052508101906124a1919061464d565b6124a8565b815b915060006124b5836123b6565b90506124c18184614666565b6002549093506124de906001600160a01b03868116911683612868565b6124f26001600160a01b0385168385612868565b604080516001600160a01b0386168152602081018390527f075a2720282fdf622141dae0b048ef90a21a7e57c134c76912d19d006b3b3f6f910160405180910390a150505050565b805182511461255c576040516373f8993760e11b815260040160405180910390fd5b620186a0836101200151101561258557604051636eb14fc360e11b815260040160405180910390fd5b600083610100015183836040516020016125a193929190614c1b565b604051602081830303815290604052905083608001516000036126315760208401516040516370a0823160e01b81523060048201526001600160a01b03909116906370a0823190602401602060405180830381865afa158015612608573d6000803e3d6000fd5b505050506040513d601f19601f8201168201806040525081019061262c919061464d565b612637565b83608001515b608085018190526020850151604051636eb1769f60e11b81526001600160a01b039091169063dd62ed3e906126929030907f000000000000000000000000000000000000000000000000000000000000000090600401613b79565b602060405180830381865afa1580156126af573d6000803e3d6000fd5b505050506040513d601f19601f820116820180604052508101906126d3919061464d565b101561277557602084015160405163095ea7b360e01b81526001600160a01b037f00000000000000000000000000000000000000000000000000000000000000008116600483015260001960248301529091169063095ea7b3906044016020604051808303816000875af115801561274f573d6000803e3d6000fd5b505050506040513d601f19601f820116820180604052508101906127739190614893565b505b7f00000000000000000000000000000000000000000000000000000000000000006001600160a01b0316639fbf10fc47866000015187604001518860600151338a608001518b60a0015160405180606001604052808e610120015181526020018e60c0015181526020018e60e001516040516020016127f49190613e82565b6040516020818303038152906040528152508d60e0015160405160200161281b9190613e82565b6040516020818303038152906040528b6040518b63ffffffff1660e01b815260040161284f99989796959493929190614c5b565b6000604051808303818588803b15801561239757600080fd5b6040516001600160a01b03831660248201526044810182905261242c90849063a9059cbb60e01b9060640161160f565b60006128ed826040518060400160405280602081526020017f5361666545524332303a206c6f772d6c6576656c2063616c6c206661696c6564815250856001600160a01b03166133219092919063ffffffff16565b80519091501561242c578080602001905181019061290b9190614893565b61242c5760405162461bcd60e51b815260206004820152602a60248201527f5361666545524332303a204552433230206f7065726174696f6e20646964206e6044820152691bdd081cdd58d8d9595960b21b6064820152608401610608565b604080516001600160a01b038481166024830152604480830185905283518084039091018152606490920183526020820180516001600160e01b031663095ea7b360e01b17905291516000928392908716916129c69190614cd8565b6000604051808303816000865af19150503d8060008114612a03576040519150601f19603f3d011682016040523d82523d6000602084013e612a08565b606091505b5091509150818015612a32575080511580612a32575080806020019051810190612a329190614893565b612a635760405162461bcd60e51b8152602060048201526002602482015261534160f01b6044820152606401610608565b5050505050565b6060600283511015612abe5760405162461bcd60e51b815260206004820152601e60248201527f556e697377617056324c6962726172793a20494e56414c49445f5041544800006044820152606401610608565b82516001600160401b03811115612ad757612ad761383d565b604051908082528060200260200182016040528015612b00578160200160208202803683370190505b5090508381600081518110612b1757612b17613fc2565b60200260200101818152505060005b60018451612b349190614666565b8110156104c557600080612b8888878581518110612b5457612b54613fc2565b602002602001015188866001612b6a91906148b0565b81518110612b7a57612b7a613fc2565b602002602001015188613338565b91509150612bb0848481518110612ba157612ba1613fc2565b60200260200101518383613404565b84612bbc8560016148b0565b81518110612bcc57612bcc613fc2565b60200260200101818152505050508080612be590614189565b915050612b26565b6000806000612bfc8686613523565b6040516001600160601b0319606084811b8216602084015283901b166034820152919350915087906048016040516020818303038152906040528051906020012085604051602001612c5093929190613f8f565b60408051601f198184030181529190528051602090910120979650505050505050565b60005b60018351612c849190614666565b81101561164657600080848381518110612ca057612ca0613fc2565b602002602001015185846001612cb691906148b0565b81518110612cc657612cc6613fc2565b6020026020010151915091506000612cde8383613523565b509050600087612cef8660016148b0565b81518110612cff57612cff613fc2565b60200260200101519050600080836001600160a01b0316866001600160a01b031614612d2d57826000612d31565b6000835b91509150600060028a51612d459190614666565b8810612d515788612d7e565b600054612d7e906001600160a01b0316878c612d6e8c60026148b0565b81518110611cae57611cae613fc2565b9050612da160008054906101000a90046001600160a01b03168888600154612bed565b6001600160a01b031663022c0d9f84848460006040519080825280601f01601f191660200182016040528015612dde576020820181803683370190505b506040518563ffffffff1660e01b8152600401612dfe9493929190614cf4565b600060405180830381600087803b158015612e1857600080fd5b505af1158015612e2c573d6000803e3d6000fd5b50505050505050505050508080612e4290614189565b915050612c76565b6000836001600160a01b03163b11612e6157600080fd5b604080516001600160a01b038481166024830152604480830185905283518084039091018152606490920183526020820180516001600160e01b031663a9059cbb60e01b1790529151600092839290871691612ebd9190614cd8565b6000604051808303816000865af19150503d8060008114612efa576040519150601f19603f3d011682016040523d82523d6000602084013e612eff565b606091505b5091509150818015612f29575080511580612f29575080806020019051810190612f299190614893565b612a6357600080fd5b60005b8251811015611646576000612f84848381518110612f5557612f55613fc2565b602002602001015160000151858481518110612f7357612f73613fc2565b60200260200101516020015161059e565b509050600085612f958460016148b0565b81518110612fa557612fa5613fc2565b60200260200101519050600080836001600160a01b0316878681518110612fce57612fce613fc2565b6020026020010151600001516001600160a01b031614612ff057826000612ff4565b6000835b915091506000600188516130089190614666565b86106130145786613087565b613087886130238860016148b0565b8151811061303357613033613fc2565b6020026020010151600001518988600161304d91906148b0565b8151811061305d5761305d613fc2565b6020026020010151602001518a89600161307791906148b0565b815181106111ef576111ef613fc2565b90506130da88878151811061309e5761309e613fc2565b6020026020010151600001518988815181106130bc576130bc613fc2565b6020026020010151602001518a89815181106111ef576111ef613fc2565b6001600160a01b031663022c0d9f84848460006040519080825280601f01601f191660200182016040528015613117576020820181803683370190505b506040518563ffffffff1660e01b81526004016131379493929190614cf4565b600060405180830381600087803b15801561315157600080fd5b505af1158015613165573d6000803e3d6000fd5b505050505050505050808061317990614189565b915050612f35565b604051636eb1769f60e11b81526000906001600160a01b0385169063dd62ed3e906131b29030908790600401613b79565b602060405180830381865afa1580156131cf573d6000803e3d6000fd5b505050506040513d601f19601f820116820180604052508101906131f3919061464d565b9050818110156132575760405162461bcd60e51b815260206004820152602960248201527f5361666545524332303a2064656372656173656420616c6c6f77616e63652062604482015268656c6f77207a65726f60b81b6064820152608401610608565b6040516001600160a01b03841660248201528282036044820181905290612a6390869063095ea7b360e01b9060640161160f565b60405163d06ca61f60e01b81526060906001600160a01b037f0000000000000000000000000000000000000000000000000000000000000000169063d06ca61f906132dc9086908690600401614d21565b600060405180830381865afa1580156132f9573d6000803e3d6000fd5b505050506040513d6000823e601f3d908101601f191682016040526118c69190810190614d3a565b60606133308484600085613613565b949350505050565b60008060006133478686613523565b50905060008061335989898989612bed565b6001600160a01b0316630902f1ac6040518163ffffffff1660e01b8152600401606060405180830381865afa158015613396573d6000803e3d6000fd5b505050506040513d601f19601f820116820180604052508101906133ba9190614dd6565b506001600160701b031691506001600160701b03169150826001600160a01b0316886001600160a01b0316146133f15780826133f4565b81815b909a909950975050505050505050565b60008084116134695760405162461bcd60e51b815260206004820152602b60248201527f556e697377617056324c6962726172793a20494e53554646494349454e545f4960448201526a1394155517d05353d5539560aa1b6064820152608401610608565b6000831180156134795750600082115b6134d65760405162461bcd60e51b815260206004820152602860248201527f556e697377617056324c6962726172793a20494e53554646494349454e545f4c604482015267495155494449545960c01b6064820152608401610608565b60006134e4856103e56136e3565b905060006134f282856136e3565b9050600061350c83613506886103e86136e3565b9061374a565b90506135188183614bf9565b979650505050505050565b600080826001600160a01b0316846001600160a01b0316036135955760405162461bcd60e51b815260206004820152602560248201527f556e697377617056324c6962726172793a204944454e544943414c5f41444452604482015264455353455360d81b6064820152608401610608565b826001600160a01b0316846001600160a01b0316106135b55782846135b8565b83835b90925090506001600160a01b03821661068f5760405162461bcd60e51b815260206004820152601e60248201527f556e697377617056324c6962726172793a205a45524f5f4144445245535300006044820152606401610608565b6060824710156136745760405162461bcd60e51b815260206004820152602660248201527f416464726573733a20696e73756666696369656e742062616c616e636520666f6044820152651c8818d85b1b60d21b6064820152608401610608565b600080866001600160a01b031685876040516136909190614cd8565b60006040518083038185875af1925050503d80600081146136cd576040519150601f19603f3d011682016040523d82523d6000602084013e6136d2565b606091505b50915091506135188783838761379f565b6000811580613707575082826136f98183614be2565b92506137059083614bf9565b145b6115d55760405162461bcd60e51b815260206004820152601460248201527364732d6d6174682d6d756c2d6f766572666c6f7760601b6044820152606401610608565b60008261375783826148b0565b91508110156115d55760405162461bcd60e51b815260206004820152601460248201527364732d6d6174682d6164642d6f766572666c6f7760601b6044820152606401610608565b6060831561380e578251600003613807576001600160a01b0385163b6138075760405162461bcd60e51b815260206004820152601d60248201527f416464726573733a2063616c6c20746f206e6f6e2d636f6e74726163740000006044820152606401610608565b5081613330565b61333083838151156138235781518083602001fd5b8060405162461bcd60e51b81526004016106089190614e1b565b634e487b7160e01b600052604160045260246000fd5b60405161016081016001600160401b03811182821017156138765761387661383d565b60405290565b604051606081016001600160401b03811182821017156138765761387661383d565b60405160a081016001600160401b03811182821017156138765761387661383d565b60405160e081016001600160401b03811182821017156138765761387661383d565b604051608081016001600160401b03811182821017156138765761387661383d565b604051601f8201601f191681016001600160401b038111828210171561392c5761392c61383d565b604052919050565b803561ffff8116811461394657600080fd5b919050565b6001600160a01b038116811461396057600080fd5b50565b80356139468161394b565b6000610160828403121561398157600080fd5b613989613853565b905061399482613934565b81526139a260208301613963565b602082015260408201356040820152606082013560608201526080820135608082015260a082013560a082015260c082013560c08201526139e560e08301613963565b60e08201526101006139f8818401613963565b9082015261012082810135908201526101409182013591810191909152919050565b60006001600160401b03821115613a3357613a3361383d565b50601f01601f191660200190565b600082601f830112613a5257600080fd5b8135613a65613a6082613a1a565b613904565b818152846020838601011115613a7a57600080fd5b816020850160208301376000918101602001919091529392505050565b6000806101808385031215613aab57600080fd5b613ab5848461396e565b91506101608301356001600160401b03811115613ad157600080fd5b613add85828601613a41565b9150509250929050565b801515811461396057600080fd5b600080600060608486031215613b0a57600080fd5b8335613b158161394b565b92506020840135613b258161394b565b91506040840135613b3581613ae7565b809150509250925092565b60008060408385031215613b5357600080fd5b8235613b5e8161394b565b91506020830135613b6e8161394b565b809150509250929050565b6001600160a01b0392831681529116602082015260400190565b60008083601f840112613ba557600080fd5b5081356001600160401b03811115613bbc57600080fd5b6020830191508360208260051b850101111561068f57600080fd5b60008060008060408587031215613bed57600080fd5b84356001600160401b0380821115613c0457600080fd5b613c1088838901613b93565b90965094506020870135915080821115613c2957600080fd5b50613c3687828801613b93565b95989497509550505050565b600080600060608486031215613c5757600080fd5b833592506020840135613c698161394b565b91506040840135613b358161394b565b60006001600160401b03821115613c9257613c9261383d565b5060051b60200190565b600082601f830112613cad57600080fd5b81356020613cbd613a6083613c79565b82815260609283028501820192828201919087851115613cdc57600080fd5b8387015b85811015613d3e5781818a031215613cf85760008081fd5b613d0061387c565b8135613d0b8161394b565b815281860135613d1a8161394b565b81870152604082810135613d2d81613ae7565b908201528452928401928101613ce0565b5090979650505050505050565b60008060408385031215613d5e57600080fd5b8235915060208301356001600160401b03811115613d7b57600080fd5b613add85828601613c9c565b6020808252825182820181905260009190848201906040850190845b81811015613dbf57835183529284019291840191600101613da3565b50909695505050505050565b60008060008060008060c08789031215613de457600080fd5b613ded87613934565b955060208701356001600160401b0380821115613e0957600080fd5b613e158a838b01613a41565b96506040890135955060608901359150613e2e8261394b565b9093506080880135925060a08801359080821115613e4b57600080fd5b50613e5889828a01613a41565b9150509295509295509295565b600060208284031215613e7757600080fd5b81356118c68161394b565b60609190911b6001600160601b031916815260140190565b60005b83811015613eb5578181015183820152602001613e9d565b50506000910152565b60008151808452613ed6816020860160208601613e9a565b601f01601f19169290920160200192915050565b805182526020810151602083015260006040820151606060408501526133306060850182613ebe565b61ffff8616815260ff8516602082015260a060408201526000613f3960a0830186613ebe565b8281036060840152613f4b8186613ebe565b90508281036080840152613f5f8185613eea565b98975050505050505050565b60008060408385031215613f7e57600080fd5b505080516020909101519092909150565b6001600160f81b0319815260609390931b6001600160601b03191660018401526015830191909152603582015260550190565b634e487b7160e01b600052603260045260246000fd5b60ff8116811461396057600080fd5b600060208284031215613ff957600080fd5b81356118c681613fd8565b6000808335601e1984360301811261401b57600080fd5b8301803591506001600160401b0382111561403557600080fd5b60200191503681900382131561068f57600080fd5b600082601f83011261405b57600080fd5b8135602061406b613a6083613c79565b82815260059290921b8401810191818101908684111561408a57600080fd5b8286015b848110156140ae5780356140a18161394b565b835291830191830161408e565b509695505050505050565b600080604083850312156140cc57600080fd5b82356001600160401b03808211156140e357600080fd5b6140ef8683870161404a565b935060209150818501358181111561410657600080fd5b85019050601f8101861361411957600080fd5b8035614127613a6082613c79565b81815260059190911b8201830190838101908883111561414657600080fd5b928401925b828410156141645783358252928401929084019061414b565b80955050505050509250929050565b634e487b7160e01b600052601160045260246000fd5b60006001820161419b5761419b614173565b5060010190565b6000602082840312156141b457600080fd5b5035919050565b803562ffffff8116811461394657600080fd5b600060208083850312156141e157600080fd5b82356001600160401b038111156141f757600080fd5b8301601f8101851361420857600080fd5b8035614216613a6082613c79565b81815260a0918202830184019184820191908884111561423557600080fd5b938501935b838510156142ac5780858a0312156142525760008081fd5b61425a61389e565b8535815286860135878201526040808701356142758161394b565b908201526060868101356142888161394b565b9082015260806142998782016141bb565b908201528352938401939185019161423a565b50979650505050505050565b600060208083850312156142cb57600080fd5b82356001600160401b038111156142e157600080fd5b8301601f810185136142f257600080fd5b8035614300613a6082613c79565b81815260e0918202830184019184820191908884111561431f57600080fd5b938501935b838510156142ac5780858a03121561433c5760008081fd5b6143446138c0565b85358152868601358782015260408087013561435f8161394b565b908201526060868101356143728161394b565b908201526080868101356143858161394b565b9082015260a06143968782016141bb565b9082015260c06143a78782016141bb565b9082015283529384019391850191614324565b600060208083850312156143cd57600080fd5b82356001600160401b03808211156143e457600080fd5b818501915085601f8301126143f857600080fd5b8135614406613a6082613c79565b81815260059190911b8301840190848101908883111561442557600080fd5b8585015b838110156144ba5780358581111561444057600080fd5b86016080818c03601f190112156144575760008081fd5b61445f6138e2565b8882013581526040808301358a830152606080840135898111156144835760008081fd5b6144918f8d8388010161404a565b8385015250608084013593506144a684613ae7565b820192909252845250918601918601614429565b5098975050505050505050565b600060208083850312156144da57600080fd5b82356001600160401b03808211156144f157600080fd5b818501915085601f83011261450557600080fd5b8135614513613a6082613c79565b81815260059190911b8301840190848101908883111561453257600080fd5b8585015b838110156144ba5780358581111561454d57600080fd5b86016080818c03601f190112156145645760008081fd5b61456c6138e2565b8882013581526040808301358a830152606080840135898111156145905760008081fd5b61459e8f8d83880101613c9c565b928401929092526080939093013592820192909252845250918601918601614536565b600080600080608085870312156145d757600080fd5b8435935060208501356001600160401b038111156145f457600080fd5b6146008782880161404a565b93505060408501356146118161394b565b9396929550929360600135925050565b6000806040838503121561463457600080fd5b823561463f8161394b565b946020939093013593505050565b60006020828403121561465f57600080fd5b5051919050565b818103818111156115d5576115d5614173565b6000602080838503121561468c57600080fd5b82356001600160401b038111156146a257600080fd5b8301601f810185136146b357600080fd5b80356146c1613a6082613c79565b818152606091820283018401918482019190888411156146e057600080fd5b938501935b838510156142ac5780858a0312156146fd5760008081fd5b61470561387c565b85356147108161394b565b81528587013561471f8161394b565b8188015260408681013590820152835293840193918501916146e5565b600082601f83011261474d57600080fd5b8135602061475d613a6083613c79565b82815260059290921b8401810191818101908684111561477c57600080fd5b8286015b848110156140ae5780356001600160401b0381111561479f5760008081fd5b6147ad8986838b0101613a41565b845250918301918301614780565b60008060006101a084860312156147d157600080fd5b6147db858561396e565b92506101608401356001600160401b03808211156147f857600080fd5b818601915086601f83011261480c57600080fd5b8135602061481c613a6083613c79565b82815260059290921b8401810191818101908a84111561483b57600080fd5b948201945b8386101561486257853561485381613fd8565b82529482019490820190614840565b965050505061018086013591508082111561487c57600080fd5b506148898682870161473c565b9150509250925092565b6000602082840312156148a557600080fd5b81516118c681613ae7565b808201808211156115d5576115d5614173565b600082601f8301126148d457600080fd5b815160206148e4613a6083613c79565b82815260059290921b8401810191818101908684111561490357600080fd5b8286015b848110156140ae5780516001600160401b038111156149265760008081fd5b8701603f810189136149385760008081fd5b84810151604061494a613a6083613a1a565b8281528b8284860101111561495f5760008081fd5b61496e83898301848701613e9a565b8652505050918301918301614907565b60008060006060848603121561499357600080fd5b835161499e8161394b565b809350506020808501516001600160401b03808211156149bd57600080fd5b818701915087601f8301126149d157600080fd5b81516149df613a6082613c79565b81815260059190911b8301840190848101908a8311156149fe57600080fd5b938501935b82851015614a25578451614a1681613fd8565b82529385019390850190614a03565b60408a01519097509450505080831115614a3e57600080fd5b5050614889868287016148c3565b600081518084526020808501945080840160005b83811015614a7f57815160ff1687529582019590820190600101614a60565b509495945050505050565b600081518084526020808501808196508360051b8101915082860160005b85811015614ad2578284038952614ac0848351613ebe565b98850198935090840190600101614aa8565b5091979650505050505050565b604081526000614af26040830185614a4c565b8281036020840152614b048185614a8a565b95945050505050565b602081526000825160a06020840152614b2960c0840182613ebe565b905060018060a01b0360208501511660408401526040840151606084015260608401516080840152608084015160a08401528091505092915050565b600081518084526020808501945080840160005b83811015614a7f5781516001600160a01b031687529582019590820190600101614b79565b86815285602082015260c060408201526000614bbd60c0830187614b65565b6001600160a01b03958616606084015293909416608082015260a00152949350505050565b80820281158282048414176115d5576115d5614173565b600082614c1657634e487b7160e01b600052601260045260246000fd5b500490565b6001600160a01b0384168152606060208201819052600090614c3f90830185614a4c565b8281036040840152614c518185614a8a565b9695505050505050565b600061012061ffff8c1683528a602084015289604084015260018060a01b03891660608401528760808401528660a08401528060c0840152614c9f81840187613eea565b905082810360e0840152614cb38186613ebe565b9050828103610100840152614cc88185613ebe565b9c9b505050505050505050505050565b60008251614cea818460208701613e9a565b9190910192915050565b84815283602082015260018060a01b0383166040820152608060608201526000614c516080830184613ebe565b8281526040602082015260006133306040830184614b65565b60006020808385031215614d4d57600080fd5b82516001600160401b03811115614d6357600080fd5b8301601f81018513614d7457600080fd5b8051614d82613a6082613c79565b81815260059190911b82018301908381019087831115614da157600080fd5b928401925b8284101561351857835182529284019290840190614da6565b80516001600160701b038116811461394657600080fd5b600080600060608486031215614deb57600080fd5b614df484614dbf565b9250614e0260208501614dbf565b9150604084015163ffffffff81168114613b3557600080fd5b6020815260006118c66020830184613ebe56fea2646970667358221220e90b459a16dc9cfc360c80f93e84b94a4049b07a1d7dc627838ae4b3636bb4b364736f6c63430008110033",
    "linkReferences": {}
  },
  "methodIdentifiers": {
    "arbitrumSwaps(uint8[],bytes[])": "5b676ff3",
    "camelotRouter()": "e5700fd4",
    "factory()": "c45a0155",
    "feeCollector()": "c415b95c",
    "getAmountOut(uint256,address,address)": "5e1e6325",
    "getAmountsOut(uint256,(address,address,bool)[])": "9881fcb4",
    "getFee((uint16,address,uint256,uint256,uint256,uint256,uint256,address,address,uint256,bytes32),bytes)": "4285f6e4",
    "isPair(address)": "e5e31b13",
    "pairCodeHash()": "9aab9248",
    "pairFor(address,address,bool)": "4c1ee03e",
    "sgReceive(uint16,bytes,uint256,address,uint256,bytes)": "ab8236f3",
    "sortTokens(address,address)": "544caa56",
    "stargateRouter()": "a9e56f3c",
    "swapRouter()": "c31c9c07",
    "xcalFactory()": "4588b7c5",
    "xcalWeth()": "750a1d48"
  },
  "id": 51
}