{
  "abi": [
    {
      "inputs": [
        {
          "internalType": "address",
          "name": "_weth",
          "type": "address"
        },
        {
          "internalType": "contract ISwapRouter",
          "name": "_swapRouter",
          "type": "address"
        },
        {
          "internalType": "address",
          "name": "_feeCollector",
          "type": "address"
        },
        {
          "internalType": "address",
          "name": "_factory",
          "type": "address"
        },
        {
          "internalType": "bytes32",
          "name": "_pairCodeHash",
          "type": "bytes32"
        },
        {
          "internalType": "address",
          "name": "_xcalFactory",
          "type": "address"
        },
        {
          "internalType": "contract IStargateRouter",
          "name": "_stargateRouter",
          "type": "address"
        }
      ],
      "stateMutability": "nonpayable",
      "type": "constructor"
    },
    {
      "inputs": [],
      "name": "MoreThanZero",
      "type": "error"
    },
    {
      "inputs": [],
      "name": "MustBeGt0",
      "type": "error"
    },
    {
      "inputs": [],
      "name": "NotStgRouter",
      "type": "error"
    },
    {
      "inputs": [],
      "name": "WithdrawFailed",
      "type": "error"
    },
    {
      "anonymous": false,
      "inputs": [
        {
          "indexed": false,
          "internalType": "address",
          "name": "_token",
          "type": "address"
        },
        {
          "indexed": false,
          "internalType": "uint256",
          "name": "_fee",
          "type": "uint256"
        }
      ],
      "name": "FeePaid",
      "type": "event"
    },
    {
      "anonymous": false,
      "inputs": [
        {
          "indexed": true,
          "internalType": "address",
          "name": "token",
          "type": "address"
        },
        {
          "indexed": false,
          "internalType": "uint256",
          "name": "amountLD",
          "type": "uint256"
        },
        {
          "indexed": false,
          "internalType": "bool",
          "name": "failed",
          "type": "bool"
        },
        {
          "indexed": false,
          "internalType": "bool",
          "name": "dustSent",
          "type": "bool"
        }
      ],
      "name": "ReceivedOnDestination",
      "type": "event"
    },
    {
      "inputs": [
        {
          "internalType": "uint8[]",
          "name": "steps",
          "type": "uint8[]"
        },
        {
          "internalType": "bytes[]",
          "name": "data",
          "type": "bytes[]"
        }
      ],
      "name": "arbitrumSwaps",
      "outputs": [],
      "stateMutability": "payable",
      "type": "function"
    },
    {
      "inputs": [],
      "name": "factory",
      "outputs": [
        {
          "internalType": "address",
          "name": "",
          "type": "address"
        }
      ],
      "stateMutability": "view",
      "type": "function"
    },
    {
      "inputs": [],
      "name": "feeCollector",
      "outputs": [
        {
          "internalType": "address",
          "name": "",
          "type": "address"
        }
      ],
      "stateMutability": "view",
      "type": "function"
    },
    {
      "inputs": [
        {
          "internalType": "uint256",
          "name": "amountIn",
          "type": "uint256"
        },
        {
          "internalType": "address",
          "name": "tokenIn",
          "type": "address"
        },
        {
          "internalType": "address",
          "name": "tokenOut",
          "type": "address"
        }
      ],
      "name": "getAmountOut",
      "outputs": [
        {
          "internalType": "uint256",
          "name": "amount",
          "type": "uint256"
        },
        {
          "internalType": "bool",
          "name": "stable",
          "type": "bool"
        }
      ],
      "stateMutability": "view",
      "type": "function"
    },
    {
      "inputs": [
        {
          "internalType": "uint256",
          "name": "amountIn",
          "type": "uint256"
        },
        {
          "components": [
            {
              "internalType": "address",
              "name": "from",
              "type": "address"
            },
            {
              "internalType": "address",
              "name": "to",
              "type": "address"
            },
            {
              "internalType": "bool",
              "name": "stable",
              "type": "bool"
            }
          ],
          "internalType": "struct XCaliburAdapter.route[]",
          "name": "routes",
          "type": "tuple[]"
        }
      ],
      "name": "getAmountsOut",
      "outputs": [
        {
          "internalType": "uint256[]",
          "name": "amounts",
          "type": "uint256[]"
        }
      ],
      "stateMutability": "view",
      "type": "function"
    },
    {
      "inputs": [
        {
          "internalType": "address",
          "name": "pair",
          "type": "address"
        }
      ],
      "name": "isPair",
      "outputs": [
        {
          "internalType": "bool",
          "name": "",
          "type": "bool"
        }
      ],
      "stateMutability": "view",
      "type": "function"
    },
    {
      "inputs": [],
      "name": "pairCodeHash",
      "outputs": [
        {
          "internalType": "bytes32",
          "name": "",
          "type": "bytes32"
        }
      ],
      "stateMutability": "view",
      "type": "function"
    },
    {
      "inputs": [
        {
          "internalType": "address",
          "name": "tokenA",
          "type": "address"
        },
        {
          "internalType": "address",
          "name": "tokenB",
          "type": "address"
        },
        {
          "internalType": "bool",
          "name": "stable",
          "type": "bool"
        }
      ],
      "name": "pairFor",
      "outputs": [
        {
          "internalType": "address",
          "name": "pair",
          "type": "address"
        }
      ],
      "stateMutability": "view",
      "type": "function"
    },
    {
      "inputs": [
        {
          "internalType": "uint16",
          "name": "",
          "type": "uint16"
        },
        {
          "internalType": "bytes",
          "name": "",
          "type": "bytes"
        },
        {
          "internalType": "uint256",
          "name": "",
          "type": "uint256"
        },
        {
          "internalType": "address",
          "name": "_token",
          "type": "address"
        },
        {
          "internalType": "uint256",
          "name": "amountLD",
          "type": "uint256"
        },
        {
          "internalType": "bytes",
          "name": "_payload",
          "type": "bytes"
        }
      ],
      "name": "sgReceive",
      "outputs": [],
      "stateMutability": "nonpayable",
      "type": "function"
    },
    {
      "inputs": [
        {
          "internalType": "address",
          "name": "tokenA",
          "type": "address"
        },
        {
          "internalType": "address",
          "name": "tokenB",
          "type": "address"
        }
      ],
      "name": "sortTokens",
      "outputs": [
        {
          "internalType": "address",
          "name": "token0",
          "type": "address"
        },
        {
          "internalType": "address",
          "name": "token1",
          "type": "address"
        }
      ],
      "stateMutability": "pure",
      "type": "function"
    },
    {
      "inputs": [],
      "name": "stargateRouter",
      "outputs": [
        {
          "internalType": "contract IStargateRouter",
          "name": "",
          "type": "address"
        }
      ],
      "stateMutability": "view",
      "type": "function"
    },
    {
      "inputs": [],
      "name": "swapRouter",
      "outputs": [
        {
          "internalType": "contract ISwapRouter",
          "name": "",
          "type": "address"
        }
      ],
      "stateMutability": "view",
      "type": "function"
    },
    {
      "inputs": [],
      "name": "viewThings",
      "outputs": [
        {
          "internalType": "uint256",
          "name": "pool",
          "type": "uint256"
        }
      ],
      "stateMutability": "pure",
      "type": "function"
    },
    {
      "inputs": [],
      "name": "xcalFactory",
      "outputs": [
        {
          "internalType": "address",
          "name": "",
          "type": "address"
        }
      ],
      "stateMutability": "view",
      "type": "function"
    },
    {
      "inputs": [],
      "name": "xcalWeth",
      "outputs": [
        {
          "internalType": "contract IWETH",
          "name": "",
          "type": "address"
        }
      ],
      "stateMutability": "view",
      "type": "function"
    },
    {
      "stateMutability": "payable",
      "type": "receive"
    }
  ],
  "bytecode": {
    "object": "0x6101406040523480156200001257600080fd5b5060405162004507380380620045078339810160408190526200003591620001b0565b6001600160a01b03868116608052600080546001600160a01b03191686831617905560018490558190839089908216158015906200007b57506001600160a01b03811615155b620000e15760405162461bcd60e51b815260206004820152602c60248201527f526f757465723a207a65726f20616464726573732070726f766964656420696e60448201526b1031b7b739ba393ab1ba37b960a11b606482015260840160405180910390fd5b6001600160a01b03821660a081905260408051631355724960e31b81529051639aab9248916004808201926020929091908290030181865afa1580156200012c573d6000803e3d6000fd5b505050506040513d601f19601f820116820180604052508101906200015291906200024f565b60e0526001600160a01b0390811660c0529182166101005250968716610120525050600280546001600160a01b03191693909516929092179093555062000269915050565b6001600160a01b0381168114620001ad57600080fd5b50565b600080600080600080600060e0888a031215620001cc57600080fd5b8751620001d98162000197565b6020890151909750620001ec8162000197565b6040890151909650620001ff8162000197565b6060890151909550620002128162000197565b608089015160a08a015191955093506200022c8162000197565b60c08901519092506200023f8162000197565b8091505092959891949750929550565b6000602082840312156200026257600080fd5b5051919050565b60805160a05160c05160e05161010051610120516141ec6200031b600039600081816106d801528181610ab40152610b4701526000818161029a0152818161137e01528181611e390152611e60015260006103fd0152600061022301526000818161012d015281816103c201528181610e9501528181610fa90152818161120701526115620152600081816102ee015281816116670152818161179d01528181611836015261192101526141ec6000f3fe6080604052600436106100ec5760003560e01c80639881fcb41161008a578063c31c9c0711610059578063c31c9c07146102dc578063c415b95c14610310578063c45a015514610330578063e5e31b131461035057600080fd5b80639881fcb4146102455780639aab924814610272578063a9e56f3c14610288578063ab8236f3146102bc57600080fd5b8063544caa56116100c6578063544caa56146101875780635b676ff3146101c75780635e1e6325146101dc578063750a1d481461021157600080fd5b806313605e4b146100f85780634588b7c51461011b5780634c1ee03e1461016757600080fd5b366100f357005b600080fd5b34801561010457600080fd5b5060085b6040519081526020015b60405180910390f35b34801561012757600080fd5b5061014f7f000000000000000000000000000000000000000000000000000000000000000081565b6040516001600160a01b039091168152602001610112565b34801561017357600080fd5b5061014f610182366004612e85565b610380565b34801561019357600080fd5b506101a76101a2366004612ed0565b610450565b604080516001600160a01b03938416815292909116602083015201610112565b6101da6101d5366004612f4d565b610548565b005b3480156101e857600080fd5b506101fc6101f7366004612fb8565b610e5d565b60408051928352901515602083015201610112565b34801561021d57600080fd5b5061014f7f000000000000000000000000000000000000000000000000000000000000000081565b34801561025157600080fd5b506102656102603660046131bd565b6110b1565b6040516101129190613203565b34801561027e57600080fd5b5061010860015481565b34801561029457600080fd5b5061014f7f000000000000000000000000000000000000000000000000000000000000000081565b3480156102c857600080fd5b506101da6102d73660046132d1565b611373565b3480156102e857600080fd5b5061014f7f000000000000000000000000000000000000000000000000000000000000000081565b34801561031c57600080fd5b5060025461014f906001600160a01b031681565b34801561033c57600080fd5b5060005461014f906001600160a01b031681565b34801561035c57600080fd5b5061037061036b36600461336b565b611540565b6040519015158152602001610112565b600080600061038f8686610450565b6040516001600160601b0319606084811b8216602084015283901b16603482015286151560f81b604882015291935091507f000000000000000000000000000000000000000000000000000000000000000090604901604051602081830303815290604052805190602001207f000000000000000000000000000000000000000000000000000000000000000060405160200161042e93929190613388565b60408051601f1981840301815291905280516020909101209695505050505050565b600080826001600160a01b0316846001600160a01b0316036104c35760405162461bcd60e51b815260206004820152602160248201527f426173655631526f757465723a204944454e544943414c5f41444452455353456044820152605360f81b60648201526084015b60405180910390fd5b826001600160a01b0316846001600160a01b0316106104e35782846104e6565b83835b90925090506001600160a01b0382166105415760405162461bcd60e51b815260206004820152601a60248201527f426173655631526f757465723a205a45524f5f4144445245535300000000000060448201526064016104ba565b9250929050565b60005b83811015610e56576000858583818110610567576105676133bb565b905060200201602081019061057c91906133e0565b905060001960ff8216016106745760008085858581811061059f5761059f6133bb565b90506020028101906105b191906133fd565b8101906105be91906134b2565b9150915060005b825181101561066c5760008282815181106105e2576105e26133bb565b6020026020010151116106085760405163fe4155c760e01b815260040160405180910390fd5b61065a333084848151811061061f5761061f6133bb565b6020026020010151868581518110610639576106396133bb565b60200260200101516001600160a01b03166115d5909392919063ffffffff16565b8061066481613582565b9150506105c5565b505050610e43565b60011960ff821601610750576000848484818110610694576106946133bb565b90506020028101906106a691906133fd565b8101906106b3919061359b565b9050600081116106d65760405163fe4155c760e01b815260040160405180910390fd5b7f00000000000000000000000000000000000000000000000000000000000000006001600160a01b031663d0e30db0826040518263ffffffff1660e01b81526004016000604051808303818588803b15801561073157600080fd5b505af1158015610745573d6000803e3d6000fd5b505050505050610e43565b60021960ff8216016107e0576000848484818110610770576107706133bb565b905060200281019061078291906133fd565b81019061078f91906135c7565b905060005b81518110156107d95760008282815181106107b1576107b16133bb565b602002602001015190506107c481611646565b505080806107d190613582565b915050610794565b5050610e43565b60031960ff821601610862576000848484818110610800576108006133bb565b905060200281019061081291906133fd565b81019061081f91906136b1565b905060005b81518110156107d95761084f828281518110610842576108426133bb565b6020026020010151611815565b508061085a81613582565b915050610824565b60041960ff8216016108e4576000848484818110610882576108826133bb565b905060200281019061089491906133fd565b8101906108a191906137b3565b905060005b81518110156107d9576108d18282815181106108c4576108c46133bb565b602002602001015161196b565b50806108dc81613582565b9150506108a6565b60051960ff821601610a53576000848484818110610904576109046133bb565b905060200281019061091691906133fd565b81019061092391906138c0565b905060005b81518110156107d957818181518110610943576109436133bb565b602002602001015160400151600081518110610961576109616133bb565b6020026020010151600001516001600160a01b031663095ea7b3738e72bf5a45f800e182362bdf906dfb13d5d5cb5d8484815181106109a2576109a26133bb565b6020908102919091010151516040516001600160e01b031960e085901b1681526001600160a01b03909216600483015260248201526044016020604051808303816000875af11580156109f9573d6000803e3d6000fd5b505050506040513d601f19601f82011682018060405250810190610a1d91906139ba565b50610a40828281518110610a3357610a336133bb565b6020026020010151611b4b565b5080610a4b81613582565b915050610928565b60061960ff821601610c1f57600080858585818110610a7457610a746133bb565b9050602002810190610a8691906133fd565b810190610a9391906139d7565b9150915080600003610b2c576040516370a0823160e01b81523060048201527f00000000000000000000000000000000000000000000000000000000000000006001600160a01b0316906370a0823190602401602060405180830381865afa158015610b03573d6000803e3d6000fd5b505050506040513d601f19601f82011682018060405250810190610b279190613a03565b610b2e565b805b604051632e1a7d4d60e01b8152600481018290529091507f00000000000000000000000000000000000000000000000000000000000000006001600160a01b031690632e1a7d4d90602401600060405180830381600087803b158015610b9357600080fd5b505af1158015610ba7573d6000803e3d6000fd5b505050506000826001600160a01b03168260405160006040518083038185875af1925050503d8060008114610bf8576040519150601f19603f3d011682016040523d82523d6000602084013e610bfd565b606091505b505090508061066c57604051631d42c86760e21b815260040160405180910390fd5b60071960ff821601610dec576000848484818110610c3f57610c3f6133bb565b9050602002810190610c5191906133fd565b810190610c5e9190613a1c565b905060005b81518110156107d9576000828281518110610c8057610c806133bb565b60200260200101516000015190506000838381518110610ca257610ca26133bb565b602002602001015160400151905080600003610d25576040516370a0823160e01b81523060048201526001600160a01b038316906370a0823190602401602060405180830381865afa158015610cfc573d6000803e3d6000fd5b505050506040513d601f19601f82011682018060405250810190610d209190613a03565b610d27565b805b90506000848481518110610d3d57610d3d6133bb565b60200260200101516020015190506000610d5683611cee565b9050610d628184613adf565b600254909350610d7f906001600160a01b03868116911683611d13565b610d936001600160a01b0385168385611d13565b604080516001600160a01b0386168152602081018390527f075a2720282fdf622141dae0b048ef90a21a7e57c134c76912d19d006b3b3f6f910160405180910390a1505050508080610de490613582565b915050610c63565b60081960ff821601610e43576000806000868686818110610e0f57610e0f6133bb565b9050602002810190610e2191906133fd565b810190610e2e9190613bd5565b925092509250610e3f838383611d48565b5050505b5080610e4e81613582565b91505061054b565b5050505050565b6000806000610e6e85856001610380565b60405163e5e31b1360e01b81526001600160a01b03828116600483015291925060009182917f00000000000000000000000000000000000000000000000000000000000000009091169063e5e31b1390602401602060405180830381865afa158015610ede573d6000803e3d6000fd5b505050506040513d601f19601f82011682018060405250810190610f0291906139ba565b15610f7b576040516378a051ad60e11b8152600481018990526001600160a01b03888116602483015284169063f140a35a90604401602060405180830381865afa158015610f54573d6000803e3d6000fd5b505050506040513d601f19601f82011682018060405250810190610f789190613a03565b91505b610f8787876000610380565b60405163e5e31b1360e01b81526001600160a01b0380831660048301529194507f00000000000000000000000000000000000000000000000000000000000000009091169063e5e31b1390602401602060405180830381865afa158015610ff2573d6000803e3d6000fd5b505050506040513d601f19601f8201168201806040525081019061101691906139ba565b1561108f576040516378a051ad60e11b8152600481018990526001600160a01b03888116602483015284169063f140a35a90604401602060405180830381865afa158015611068573d6000803e3d6000fd5b505050506040513d601f19601f8201168201806040525081019061108c9190613a03565b90505b80821161109e578060006110a2565b8160015b94509450505050935093915050565b60606001825110156111055760405162461bcd60e51b815260206004820152601a60248201527f426173655631526f757465723a20494e56414c49445f5041544800000000000060448201526064016104ba565b8151611112906001613ce2565b6001600160401b0381111561112957611129612fef565b604051908082528060200260200182016040528015611152578160200160208202803683370190505b5090508281600081518110611169576111696133bb565b60200260200101818152505060005b825181101561136c5760006111e5848381518110611198576111986133bb565b6020026020010151600001518584815181106111b6576111b66133bb565b6020026020010151602001518685815181106111d4576111d46133bb565b602002602001015160400151610380565b60405163e5e31b1360e01b81526001600160a01b0380831660048301529192507f00000000000000000000000000000000000000000000000000000000000000009091169063e5e31b1390602401602060405180830381865afa158015611250573d6000803e3d6000fd5b505050506040513d601f19601f8201168201806040525081019061127491906139ba565b1561135957806001600160a01b031663f140a35a84848151811061129a5761129a6133bb565b60200260200101518685815181106112b4576112b46133bb565b6020026020010151600001516040518363ffffffff1660e01b81526004016112ef9291909182526001600160a01b0316602082015260400190565b602060405180830381865afa15801561130c573d6000803e3d6000fd5b505050506040513d601f19601f820116820180604052508101906113309190613a03565b8361133c846001613ce2565b8151811061134c5761134c6133bb565b6020026020010181815250505b508061136481613582565b915050611178565b5092915050565b336001600160a01b037f000000000000000000000000000000000000000000000000000000000000000016146113bc57604051638afe477f60e01b815260040160405180910390fd5b6000806000838060200190518101906113d59190613dd4565b9250925092506000306001600160a01b0316635b676ff362030d4085856040518463ffffffff1660e01b815260040161140f929190613f61565b600060405180830381600088803b15801561142957600080fd5b5087f19350505050801561143b575060015b611489573d808015611469576040519150601f19603f3d011682016040523d82523d6000602084013e61146e565b606091505b506114836001600160a01b0389168689611d13565b60019150505b600047156114e5576040516001600160a01b038616904790600081818185875af1925050503d80600081146114da576040519150601f19603f3d011682016040523d82523d6000602084013e6114df565b606091505b50909150505b6040805188815283151560208201528215158183015290516001600160a01b038a16917f7f345d6da48bd1339fd428ff45265a0f01258b14ca09dcf8db0c469f4f732fd3919081900360600190a25050505050505050505050565b60405163e5e31b1360e01b81526001600160a01b0382811660048301526000917f00000000000000000000000000000000000000000000000000000000000000009091169063e5e31b1390602401602060405180830381865afa1580156115ab573d6000803e3d6000fd5b505050506040513d601f19601f820116820180604052508101906115cf91906139ba565b92915050565b6040516001600160a01b03808516602483015283166044820152606481018290526116409085906323b872dd60e01b906084015b60408051601f198184030181529190526020810180516001600160e01b03166001600160e01b031990931692909217909152611f96565b50505050565b60408181015190516370a0823160e01b81523060048201526000916116e2917f0000000000000000000000000000000000000000000000000000000000000000906001600160a01b038316906370a08231906024015b602060405180830381865afa1580156116b9573d6000803e3d6000fd5b505050506040513d601f19601f820116820180604052508101906116dd9190613a03565b612068565b6040805161010081018252838201516001600160a01b0390811682526060808601518216602080850191825260808089015162ffffff90811687890190815230958801958652429288019283528a5160a08901908152938b015160c08901908152600060e08a01908152995163414bf38960e01b8152895189166004820152955188166024870152905190911660448501529351851660648401525160848301525160a4820152905160c48201529251811660e484015290917f00000000000000000000000000000000000000000000000000000000000000009091169063414bf38990610104015b6020604051808303816000875af11580156117ea573d6000803e3d6000fd5b505050506040513d601f19601f8201168201806040525081019061180e9190613a03565b9392505050565b60408181015190516370a0823160e01b815230600482015260009161186f917f0000000000000000000000000000000000000000000000000000000000000000906001600160a01b038316906370a082319060240161169c565b6040805160a08082018352918401519184015160608086015160c08088015160808901516001600160601b031997851b8816928701929092526001600160e81b031960e895861b811660d488015292841b871660d787015290931b1660eb8401521b90911660ee8201526000908061010281016040516020818303038152906040528152602001306001600160a01b0316815260200142815260200184600001518152602001846020015181525090507f00000000000000000000000000000000000000000000000000000000000000006001600160a01b031663c04b8d59826040518263ffffffff1660e01b81526004016117cb9190613f8f565b60008054825160408401516001548493611992936001600160a01b03909116929091612161565b905080600182516119a39190613adf565b815181106119b3576119b36133bb565b602002602001015191508260200151821015611a115760405162461bcd60e51b815260206004820152601760248201527f696e73756666696369656e742d616d6f756e742d6f757400000000000000000060448201526064016104ba565b826060015115611b36576000805460408501518051611b3693611a74936001600160a01b03169291611a4557611a456133bb565b60200260200101518660400151600181518110611a6457611a646133bb565b60200260200101516001546122ed565b8460400151600081518110611a8b57611a8b6133bb565b60209081029190910101516040516370a0823160e01b81523060048201526001600160a01b03909116906370a0823190602401602060405180830381865afa158015611adb573d6000803e3d6000fd5b505050506040513d601f19601f82011682018060405250810190611aff9190613a03565b8560400151600081518110611b1657611b166133bb565b60200260200101516001600160a01b0316611d139092919063ffffffff16565b611b4581846040015130612373565b50919050565b6060816060015142811015611b9a5760405162461bcd60e51b815260206004820152601560248201527410985cd9558c549bdd5d195c8e8811561412549151605a1b60448201526064016104ba565b611bac836000015184604001516110b1565b915082602001518260018451611bc29190613adf565b81518110611bd257611bd26133bb565b60200260200101511015611c395760405162461bcd60e51b815260206004820152602860248201527f426173655631526f757465723a20494e53554646494349454e545f4f555450556044820152671517d05353d5539560c21b60648201526084016104ba565b611cdf8360400151600081518110611c5357611c536133bb565b602002602001015160000151611cbf8560400151600081518110611c7957611c796133bb565b6020026020010151600001518660400151600081518110611c9c57611c9c6133bb565b60200260200101516020015187604001516000815181106111d4576111d46133bb565b84600081518110611cd257611cd26133bb565b602002602001015161254a565b611b4582846040015130612632565b6000612710611cff8361270b613fe7565b611d099190613ffe565b6115cf9083613adf565b6040516001600160a01b038316602482015260448101829052611d4390849063a9059cbb60e01b90606401611609565b505050565b60003411611d695760405163c9935ff960e01b815260040160405180910390fd5b60008361010001518383604051602001611d8593929190614020565b60405160208183030381529060405290508360800151600003611e155760208401516040516370a0823160e01b81523060048201526001600160a01b03909116906370a0823190602401602060405180830381865afa158015611dec573d6000803e3d6000fd5b505050506040513d601f19601f82011682018060405250810190611e109190613a03565b611e1b565b83608001515b608085018190526020850151611e5e916001600160a01b03909116907f000000000000000000000000000000000000000000000000000000000000000090612881565b7f00000000000000000000000000000000000000000000000000000000000000006001600160a01b0316639fbf10fc47866000015187604001518860600151308a608001518b60a0015160405180606001604052808e610120015181526020018e60c0015181526020018e60e00151604051602001611ef0919060609190911b6001600160601b031916815260140190565b6040516020818303038152906040528152508d60e00151604051602001611f2a919060609190911b6001600160601b031916815260140190565b6040516020818303038152906040528b6040518b63ffffffff1660e01b8152600401611f5e99989796959493929190614060565b6000604051808303818588803b158015611f7757600080fd5b505af1158015611f8b573d6000803e3d6000fd5b505050505050505050565b6000611feb826040518060400160405280602081526020017f5361666545524332303a206c6f772d6c6576656c2063616c6c206661696c6564815250856001600160a01b03166129339092919063ffffffff16565b805190915015611d43578080602001905181019061200991906139ba565b611d435760405162461bcd60e51b815260206004820152602a60248201527f5361666545524332303a204552433230206f7065726174696f6e20646964206e6044820152691bdd081cdd58d8d9595960b21b60648201526084016104ba565b604080516001600160a01b038481166024830152604480830185905283518084039091018152606490920183526020820180516001600160e01b031663095ea7b360e01b17905291516000928392908716916120c491906140fe565b6000604051808303816000865af19150503d8060008114612101576040519150601f19603f3d011682016040523d82523d6000602084013e612106565b606091505b509150915081801561213057508051158061213057508080602001905181019061213091906139ba565b610e565760405162461bcd60e51b8152602060048201526002602482015261534160f01b60448201526064016104ba565b60606002835110156121b55760405162461bcd60e51b815260206004820152601e60248201527f556e697377617056324c6962726172793a20494e56414c49445f50415448000060448201526064016104ba565b82516001600160401b038111156121ce576121ce612fef565b6040519080825280602002602001820160405280156121f7578160200160208202803683370190505b509050838160008151811061220e5761220e6133bb565b60200260200101818152505060005b6001845161222b9190613adf565b8110156122e45760008061227f8887858151811061224b5761224b6133bb565b6020026020010151888660016122619190613ce2565b81518110612271576122716133bb565b60200260200101518861294a565b915091506122a7848481518110612298576122986133bb565b60200260200101518383612a16565b846122b3856001613ce2565b815181106122c3576122c36133bb565b602002602001018181525050505080806122dc90613582565b91505061221d565b50949350505050565b60008060006122fc8686612b35565b6040516001600160601b0319606084811b8216602084015283901b16603482015291935091508790604801604051602081830303815290604052805190602001208560405160200161235093929190613388565b60408051601f198184030181529190528051602090910120979650505050505050565b60005b600183516123849190613adf565b811015611640576000808483815181106123a0576123a06133bb565b6020026020010151858460016123b69190613ce2565b815181106123c6576123c66133bb565b60200260200101519150915060006123de8383612b35565b5090506000876123ef866001613ce2565b815181106123ff576123ff6133bb565b60200260200101519050600080836001600160a01b0316866001600160a01b03161461242d57826000612431565b6000835b91509150600060028a516124459190613adf565b8810612451578861247e565b60005461247e906001600160a01b0316878c61246e8c6002613ce2565b81518110611a6457611a646133bb565b90506124a160008054906101000a90046001600160a01b031688886001546122ed565b6001600160a01b031663022c0d9f84848460006040519080825280601f01601f1916602001820160405280156124de576020820181803683370190505b506040518563ffffffff1660e01b81526004016124fe949392919061411a565b600060405180830381600087803b15801561251857600080fd5b505af115801561252c573d6000803e3d6000fd5b5050505050505050505050808061254290613582565b915050612376565b6000836001600160a01b03163b1161256157600080fd5b604080516001600160a01b038481166024830152604480830185905283518084039091018152606490920183526020820180516001600160e01b031663a9059cbb60e01b17905291516000928392908716916125bd91906140fe565b6000604051808303816000865af19150503d80600081146125fa576040519150601f19603f3d011682016040523d82523d6000602084013e6125ff565b606091505b509150915081801561262957508051158061262957508080602001905181019061262991906139ba565b610e5657600080fd5b60005b8251811015611640576000612684848381518110612655576126556133bb565b602002602001015160000151858481518110612673576126736133bb565b602002602001015160200151610450565b509050600085612695846001613ce2565b815181106126a5576126a56133bb565b60200260200101519050600080836001600160a01b03168786815181106126ce576126ce6133bb565b6020026020010151600001516001600160a01b0316146126f0578260006126f4565b6000835b915091506000600188516127089190613adf565b86106127145786612787565b61278788612723886001613ce2565b81518110612733576127336133bb565b6020026020010151600001518988600161274d9190613ce2565b8151811061275d5761275d6133bb565b6020026020010151602001518a8960016127779190613ce2565b815181106111d4576111d46133bb565b90506127da88878151811061279e5761279e6133bb565b6020026020010151600001518988815181106127bc576127bc6133bb565b6020026020010151602001518a89815181106111d4576111d46133bb565b6001600160a01b031663022c0d9f84848460006040519080825280601f01601f191660200182016040528015612817576020820181803683370190505b506040518563ffffffff1660e01b8152600401612837949392919061411a565b600060405180830381600087803b15801561285157600080fd5b505af1158015612865573d6000803e3d6000fd5b505050505050505050808061287990613582565b915050612635565b604051636eb1769f60e11b81523060048201526001600160a01b038381166024830152600091839186169063dd62ed3e90604401602060405180830381865afa1580156128d2573d6000803e3d6000fd5b505050506040513d601f19601f820116820180604052508101906128f69190613a03565b6129009190613ce2565b6040516001600160a01b03851660248201526044810182905290915061164090859063095ea7b360e01b90606401611609565b60606129428484600085612c25565b949350505050565b60008060006129598686612b35565b50905060008061296b898989896122ed565b6001600160a01b0316630902f1ac6040518163ffffffff1660e01b8152600401606060405180830381865afa1580156129a8573d6000803e3d6000fd5b505050506040513d601f19601f820116820180604052508101906129cc919061415e565b506001600160701b031691506001600160701b03169150826001600160a01b0316886001600160a01b031614612a03578082612a06565b81815b909a909950975050505050505050565b6000808411612a7b5760405162461bcd60e51b815260206004820152602b60248201527f556e697377617056324c6962726172793a20494e53554646494349454e545f4960448201526a1394155517d05353d5539560aa1b60648201526084016104ba565b600083118015612a8b5750600082115b612ae85760405162461bcd60e51b815260206004820152602860248201527f556e697377617056324c6962726172793a20494e53554646494349454e545f4c604482015267495155494449545960c01b60648201526084016104ba565b6000612af6856103e5612cf5565b90506000612b048285612cf5565b90506000612b1e83612b18886103e8612cf5565b90612d5c565b9050612b2a8183613ffe565b979650505050505050565b600080826001600160a01b0316846001600160a01b031603612ba75760405162461bcd60e51b815260206004820152602560248201527f556e697377617056324c6962726172793a204944454e544943414c5f41444452604482015264455353455360d81b60648201526084016104ba565b826001600160a01b0316846001600160a01b031610612bc7578284612bca565b83835b90925090506001600160a01b0382166105415760405162461bcd60e51b815260206004820152601e60248201527f556e697377617056324c6962726172793a205a45524f5f41444452455353000060448201526064016104ba565b606082471015612c865760405162461bcd60e51b815260206004820152602660248201527f416464726573733a20696e73756666696369656e742062616c616e636520666f6044820152651c8818d85b1b60d21b60648201526084016104ba565b600080866001600160a01b03168587604051612ca291906140fe565b60006040518083038185875af1925050503d8060008114612cdf576040519150601f19603f3d011682016040523d82523d6000602084013e612ce4565b606091505b5091509150612b2a87838387612db1565b6000811580612d1957508282612d0b8183613fe7565b9250612d179083613ffe565b145b6115cf5760405162461bcd60e51b815260206004820152601460248201527364732d6d6174682d6d756c2d6f766572666c6f7760601b60448201526064016104ba565b600082612d698382613ce2565b91508110156115cf5760405162461bcd60e51b815260206004820152601460248201527364732d6d6174682d6164642d6f766572666c6f7760601b60448201526064016104ba565b60608315612e20578251600003612e19576001600160a01b0385163b612e195760405162461bcd60e51b815260206004820152601d60248201527f416464726573733a2063616c6c20746f206e6f6e2d636f6e747261637400000060448201526064016104ba565b5081612942565b6129428383815115612e355781518083602001fd5b8060405162461bcd60e51b81526004016104ba91906141a3565b6001600160a01b0381168114612e6457600080fd5b50565b8035612e7281612e4f565b919050565b8015158114612e6457600080fd5b600080600060608486031215612e9a57600080fd5b8335612ea581612e4f565b92506020840135612eb581612e4f565b91506040840135612ec581612e77565b809150509250925092565b60008060408385031215612ee357600080fd5b8235612eee81612e4f565b91506020830135612efe81612e4f565b809150509250929050565b60008083601f840112612f1b57600080fd5b5081356001600160401b03811115612f3257600080fd5b6020830191508360208260051b850101111561054157600080fd5b60008060008060408587031215612f6357600080fd5b84356001600160401b0380821115612f7a57600080fd5b612f8688838901612f09565b90965094506020870135915080821115612f9f57600080fd5b50612fac87828801612f09565b95989497509550505050565b600080600060608486031215612fcd57600080fd5b833592506020840135612fdf81612e4f565b91506040840135612ec581612e4f565b634e487b7160e01b600052604160045260246000fd5b604051606081016001600160401b038111828210171561302757613027612fef565b60405290565b60405160a081016001600160401b038111828210171561302757613027612fef565b60405160e081016001600160401b038111828210171561302757613027612fef565b604051608081016001600160401b038111828210171561302757613027612fef565b60405161016081016001600160401b038111828210171561302757613027612fef565b604051601f8201601f191681016001600160401b03811182821017156130de576130de612fef565b604052919050565b60006001600160401b038211156130ff576130ff612fef565b5060051b60200190565b600082601f83011261311a57600080fd5b8135602061312f61312a836130e6565b6130b6565b8281526060928302850182019282820191908785111561314e57600080fd5b8387015b858110156131b05781818a03121561316a5760008081fd5b613172613005565b813561317d81612e4f565b81528186013561318c81612e4f565b8187015260408281013561319f81612e77565b908201528452928401928101613152565b5090979650505050505050565b600080604083850312156131d057600080fd5b8235915060208301356001600160401b038111156131ed57600080fd5b6131f985828601613109565b9150509250929050565b6020808252825182820181905260009190848201906040850190845b8181101561323b5783518352928401929184019160010161321f565b50909695505050505050565b803561ffff81168114612e7257600080fd5b60006001600160401b0382111561327257613272612fef565b50601f01601f191660200190565b600082601f83011261329157600080fd5b813561329f61312a82613259565b8181528460208386010111156132b457600080fd5b816020850160208301376000918101602001919091529392505050565b60008060008060008060c087890312156132ea57600080fd5b6132f387613247565b955060208701356001600160401b038082111561330f57600080fd5b61331b8a838b01613280565b9650604089013595506060890135915061333482612e4f565b9093506080880135925060a0880135908082111561335157600080fd5b5061335e89828a01613280565b9150509295509295509295565b60006020828403121561337d57600080fd5b813561180e81612e4f565b6001600160f81b0319815260609390931b6001600160601b03191660018401526015830191909152603582015260550190565b634e487b7160e01b600052603260045260246000fd5b60ff81168114612e6457600080fd5b6000602082840312156133f257600080fd5b813561180e816133d1565b6000808335601e1984360301811261341457600080fd5b8301803591506001600160401b0382111561342e57600080fd5b60200191503681900382131561054157600080fd5b600082601f83011261345457600080fd5b8135602061346461312a836130e6565b82815260059290921b8401810191818101908684111561348357600080fd5b8286015b848110156134a757803561349a81612e4f565b8352918301918301613487565b509695505050505050565b600080604083850312156134c557600080fd5b82356001600160401b03808211156134dc57600080fd5b6134e886838701613443565b93506020915081850135818111156134ff57600080fd5b85019050601f8101861361351257600080fd5b803561352061312a826130e6565b81815260059190911b8201830190838101908883111561353f57600080fd5b928401925b8284101561355d57833582529284019290840190613544565b80955050505050509250929050565b634e487b7160e01b600052601160045260246000fd5b6000600182016135945761359461356c565b5060010190565b6000602082840312156135ad57600080fd5b5035919050565b803562ffffff81168114612e7257600080fd5b600060208083850312156135da57600080fd5b82356001600160401b038111156135f057600080fd5b8301601f8101851361360157600080fd5b803561360f61312a826130e6565b81815260a0918202830184019184820191908884111561362e57600080fd5b938501935b838510156136a55780858a03121561364b5760008081fd5b61365361302d565b85358152868601358782015260408087013561366e81612e4f565b9082015260608681013561368181612e4f565b9082015260806136928782016135b4565b9082015283529384019391850191613633565b50979650505050505050565b600060208083850312156136c457600080fd5b82356001600160401b038111156136da57600080fd5b8301601f810185136136eb57600080fd5b80356136f961312a826130e6565b81815260e0918202830184019184820191908884111561371857600080fd5b938501935b838510156136a55780858a0312156137355760008081fd5b61373d61304f565b85358152868601358782015260408087013561375881612e4f565b9082015260608681013561376b81612e4f565b9082015260808681013561377e81612e4f565b9082015260a061378f8782016135b4565b9082015260c06137a08782016135b4565b908201528352938401939185019161371d565b600060208083850312156137c657600080fd5b82356001600160401b03808211156137dd57600080fd5b818501915085601f8301126137f157600080fd5b81356137ff61312a826130e6565b81815260059190911b8301840190848101908883111561381e57600080fd5b8585015b838110156138b35780358581111561383957600080fd5b86016080818c03601f190112156138505760008081fd5b613858613071565b8882013581526040808301358a8301526060808401358981111561387c5760008081fd5b61388a8f8d83880101613443565b83850152506080840135935061389f84612e77565b820192909252845250918601918601613822565b5098975050505050505050565b600060208083850312156138d357600080fd5b82356001600160401b03808211156138ea57600080fd5b818501915085601f8301126138fe57600080fd5b813561390c61312a826130e6565b81815260059190911b8301840190848101908883111561392b57600080fd5b8585015b838110156138b35780358581111561394657600080fd5b86016080818c03601f1901121561395d5760008081fd5b613965613071565b8882013581526040808301358a830152606080840135898111156139895760008081fd5b6139978f8d83880101613109565b92840192909252608093909301359282019290925284525091860191860161392f565b6000602082840312156139cc57600080fd5b815161180e81612e77565b600080604083850312156139ea57600080fd5b82356139f581612e4f565b946020939093013593505050565b600060208284031215613a1557600080fd5b5051919050565b60006020808385031215613a2f57600080fd5b82356001600160401b03811115613a4557600080fd5b8301601f81018513613a5657600080fd5b8035613a6461312a826130e6565b81815260609182028301840191848201919088841115613a8357600080fd5b938501935b838510156136a55780858a031215613aa05760008081fd5b613aa8613005565b8535613ab381612e4f565b815285870135613ac281612e4f565b818801526040868101359082015283529384019391850191613a88565b818103818111156115cf576115cf61356c565b600082601f830112613b0357600080fd5b81356020613b1361312a836130e6565b82815260059290921b84018101918181019086841115613b3257600080fd5b8286015b848110156134a7578035613b49816133d1565b8352918301918301613b36565b600082601f830112613b6757600080fd5b81356020613b7761312a836130e6565b82815260059290921b84018101918181019086841115613b9657600080fd5b8286015b848110156134a75780356001600160401b03811115613bb95760008081fd5b613bc78986838b0101613280565b845250918301918301613b9a565b60008060008385036101a0811215613bec57600080fd5b61016080821215613bfc57600080fd5b613c04613093565b9150613c0f86613247565b8252613c1d60208701612e67565b602083015260408601356040830152606086013560608301526080860135608083015260a086013560a083015260c086013560c0830152613c6060e08701612e67565b60e0830152610100613c73818801612e67565b90830152610120868101359083015261014080870135908301529093508401356001600160401b0380821115613ca857600080fd5b613cb487838801613af2565b9350610180860135915080821115613ccb57600080fd5b50613cd886828701613b56565b9150509250925092565b808201808211156115cf576115cf61356c565b60005b83811015613d10578181015183820152602001613cf8565b50506000910152565b600082601f830112613d2a57600080fd5b81516020613d3a61312a836130e6565b82815260059290921b84018101918181019086841115613d5957600080fd5b8286015b848110156134a75780516001600160401b03811115613d7c5760008081fd5b8701603f81018913613d8e5760008081fd5b848101516040613da061312a83613259565b8281528b82848601011115613db55760008081fd5b613dc483898301848701613cf5565b8652505050918301918301613d5d565b600080600060608486031215613de957600080fd5b8351613df481612e4f565b809350506020808501516001600160401b0380821115613e1357600080fd5b818701915087601f830112613e2757600080fd5b8151613e3561312a826130e6565b81815260059190911b8301840190848101908a831115613e5457600080fd5b938501935b82851015613e7b578451613e6c816133d1565b82529385019390850190613e59565b60408a01519097509450505080831115613e9457600080fd5b5050613cd886828701613d19565b600081518084526020808501945080840160005b83811015613ed557815160ff1687529582019590820190600101613eb6565b509495945050505050565b60008151808452613ef8816020860160208601613cf5565b601f01601f19169290920160200192915050565b600081518084526020808501808196508360051b8101915082860160005b85811015613f54578284038952613f42848351613ee0565b98850198935090840190600101613f2a565b5091979650505050505050565b604081526000613f746040830185613ea2565b8281036020840152613f868185613f0c565b95945050505050565b602081526000825160a06020840152613fab60c0840182613ee0565b905060018060a01b0360208501511660408401526040840151606084015260608401516080840152608084015160a08401528091505092915050565b80820281158282048414176115cf576115cf61356c565b60008261401b57634e487b7160e01b600052601260045260246000fd5b500490565b6001600160a01b038416815260606020820181905260009061404490830185613ea2565b82810360408401526140568185613f0c565b9695505050505050565b600061012061ffff8c1683528a602084015289604084015260018060a01b03891660608401528760808401528660a08401528060c0840152855181840152506020850151610140830152604085015160606101608401526140c5610180840182613ee0565b905082810360e08401526140d98186613ee0565b90508281036101008401526140ee8185613ee0565b9c9b505050505050505050505050565b60008251614110818460208701613cf5565b9190910192915050565b84815283602082015260018060a01b03831660408201526080606082015260006140566080830184613ee0565b80516001600160701b0381168114612e7257600080fd5b60008060006060848603121561417357600080fd5b61417c84614147565b925061418a60208501614147565b9150604084015163ffffffff81168114612ec557600080fd5b60208152600061180e6020830184613ee056fea26469706673582212201b1282624560b2621ddfa467eee45a5fb3f64fc60fe04b4edded0cc6279521d164736f6c63430008110033",
    "linkReferences": {}
  },
  "methodIdentifiers": {
    "arbitrumSwaps(uint8[],bytes[])": "5b676ff3",
    "factory()": "c45a0155",
    "feeCollector()": "c415b95c",
    "getAmountOut(uint256,address,address)": "5e1e6325",
    "getAmountsOut(uint256,(address,address,bool)[])": "9881fcb4",
    "isPair(address)": "e5e31b13",
    "pairCodeHash()": "9aab9248",
    "pairFor(address,address,bool)": "4c1ee03e",
    "sgReceive(uint16,bytes,uint256,address,uint256,bytes)": "ab8236f3",
    "sortTokens(address,address)": "544caa56",
    "stargateRouter()": "a9e56f3c",
    "swapRouter()": "c31c9c07",
    "viewThings()": "13605e4b",
    "xcalFactory()": "4588b7c5",
    "xcalWeth()": "750a1d48"
  },
  "id": 39
}