{
  "abi": [
    {
      "inputs": [
        {
          "internalType": "address",
          "name": "_weth",
          "type": "address"
        },
        {
          "internalType": "contract ISwapRouter",
          "name": "_swapRouter",
          "type": "address"
        },
        {
          "internalType": "address",
          "name": "_feeCollector",
          "type": "address"
        },
        {
          "internalType": "address",
          "name": "_factory",
          "type": "address"
        },
        {
          "internalType": "bytes32",
          "name": "_pairCodeHash",
          "type": "bytes32"
        },
        {
          "internalType": "address",
          "name": "_xcalFactory",
          "type": "address"
        },
        {
          "internalType": "contract IStargateRouter",
          "name": "_stargateRouter",
          "type": "address"
        }
      ],
      "stateMutability": "nonpayable",
      "type": "constructor"
    },
    {
      "inputs": [],
      "name": "MoreThanZero",
      "type": "error"
    },
    {
      "inputs": [],
      "name": "MustBeGt0",
      "type": "error"
    },
    {
      "inputs": [],
      "name": "NotStgRouter",
      "type": "error"
    },
    {
      "inputs": [],
      "name": "WithdrawFailed",
      "type": "error"
    },
    {
      "anonymous": false,
      "inputs": [
        {
          "indexed": false,
          "internalType": "address",
          "name": "_token",
          "type": "address"
        },
        {
          "indexed": false,
          "internalType": "uint256",
          "name": "_fee",
          "type": "uint256"
        }
      ],
      "name": "FeePaid",
      "type": "event"
    },
    {
      "anonymous": false,
      "inputs": [
        {
          "indexed": true,
          "internalType": "address",
          "name": "token",
          "type": "address"
        },
        {
          "indexed": false,
          "internalType": "uint256",
          "name": "amountLD",
          "type": "uint256"
        },
        {
          "indexed": false,
          "internalType": "bool",
          "name": "failed",
          "type": "bool"
        },
        {
          "indexed": false,
          "internalType": "bool",
          "name": "dustSent",
          "type": "bool"
        }
      ],
      "name": "ReceivedOnDestination",
      "type": "event"
    },
    {
      "inputs": [
        {
          "internalType": "uint8[]",
          "name": "steps",
          "type": "uint8[]"
        },
        {
          "internalType": "bytes[]",
          "name": "data",
          "type": "bytes[]"
        }
      ],
      "name": "arbitrumSwaps",
      "outputs": [],
      "stateMutability": "payable",
      "type": "function"
    },
    {
      "inputs": [],
      "name": "factory",
      "outputs": [
        {
          "internalType": "address",
          "name": "",
          "type": "address"
        }
      ],
      "stateMutability": "view",
      "type": "function"
    },
    {
      "inputs": [],
      "name": "feeCollector",
      "outputs": [
        {
          "internalType": "address",
          "name": "",
          "type": "address"
        }
      ],
      "stateMutability": "view",
      "type": "function"
    },
    {
      "inputs": [
        {
          "internalType": "uint256",
          "name": "amountIn",
          "type": "uint256"
        },
        {
          "internalType": "address",
          "name": "tokenIn",
          "type": "address"
        },
        {
          "internalType": "address",
          "name": "tokenOut",
          "type": "address"
        }
      ],
      "name": "getAmountOut",
      "outputs": [
        {
          "internalType": "uint256",
          "name": "amount",
          "type": "uint256"
        },
        {
          "internalType": "bool",
          "name": "stable",
          "type": "bool"
        }
      ],
      "stateMutability": "view",
      "type": "function"
    },
    {
      "inputs": [
        {
          "internalType": "uint256",
          "name": "amountIn",
          "type": "uint256"
        },
        {
          "components": [
            {
              "internalType": "address",
              "name": "from",
              "type": "address"
            },
            {
              "internalType": "address",
              "name": "to",
              "type": "address"
            },
            {
              "internalType": "bool",
              "name": "stable",
              "type": "bool"
            }
          ],
          "internalType": "struct XCaliburAdapter.route[]",
          "name": "routes",
          "type": "tuple[]"
        }
      ],
      "name": "getAmountsOut",
      "outputs": [
        {
          "internalType": "uint256[]",
          "name": "amounts",
          "type": "uint256[]"
        }
      ],
      "stateMutability": "view",
      "type": "function"
    },
    {
      "inputs": [
        {
          "internalType": "address",
          "name": "pair",
          "type": "address"
        }
      ],
      "name": "isPair",
      "outputs": [
        {
          "internalType": "bool",
          "name": "",
          "type": "bool"
        }
      ],
      "stateMutability": "view",
      "type": "function"
    },
    {
      "inputs": [],
      "name": "pairCodeHash",
      "outputs": [
        {
          "internalType": "bytes32",
          "name": "",
          "type": "bytes32"
        }
      ],
      "stateMutability": "view",
      "type": "function"
    },
    {
      "inputs": [
        {
          "internalType": "address",
          "name": "tokenA",
          "type": "address"
        },
        {
          "internalType": "address",
          "name": "tokenB",
          "type": "address"
        },
        {
          "internalType": "bool",
          "name": "stable",
          "type": "bool"
        }
      ],
      "name": "pairFor",
      "outputs": [
        {
          "internalType": "address",
          "name": "pair",
          "type": "address"
        }
      ],
      "stateMutability": "view",
      "type": "function"
    },
    {
      "inputs": [
        {
          "internalType": "uint16",
          "name": "",
          "type": "uint16"
        },
        {
          "internalType": "bytes",
          "name": "",
          "type": "bytes"
        },
        {
          "internalType": "uint256",
          "name": "",
          "type": "uint256"
        },
        {
          "internalType": "address",
          "name": "_token",
          "type": "address"
        },
        {
          "internalType": "uint256",
          "name": "amountLD",
          "type": "uint256"
        },
        {
          "internalType": "bytes",
          "name": "_payload",
          "type": "bytes"
        }
      ],
      "name": "sgReceive",
      "outputs": [],
      "stateMutability": "nonpayable",
      "type": "function"
    },
    {
      "inputs": [
        {
          "internalType": "address",
          "name": "tokenA",
          "type": "address"
        },
        {
          "internalType": "address",
          "name": "tokenB",
          "type": "address"
        }
      ],
      "name": "sortTokens",
      "outputs": [
        {
          "internalType": "address",
          "name": "token0",
          "type": "address"
        },
        {
          "internalType": "address",
          "name": "token1",
          "type": "address"
        }
      ],
      "stateMutability": "pure",
      "type": "function"
    },
    {
      "inputs": [],
      "name": "stargateRouter",
      "outputs": [
        {
          "internalType": "contract IStargateRouter",
          "name": "",
          "type": "address"
        }
      ],
      "stateMutability": "view",
      "type": "function"
    },
    {
      "inputs": [],
      "name": "swapRouter",
      "outputs": [
        {
          "internalType": "contract ISwapRouter",
          "name": "",
          "type": "address"
        }
      ],
      "stateMutability": "view",
      "type": "function"
    },
    {
      "inputs": [],
      "name": "xcalFactory",
      "outputs": [
        {
          "internalType": "address",
          "name": "",
          "type": "address"
        }
      ],
      "stateMutability": "view",
      "type": "function"
    },
    {
      "inputs": [],
      "name": "xcalWeth",
      "outputs": [
        {
          "internalType": "contract IWETH",
          "name": "",
          "type": "address"
        }
      ],
      "stateMutability": "view",
      "type": "function"
    },
    {
      "stateMutability": "payable",
      "type": "receive"
    }
  ],
  "bytecode": {
    "object": "0x6101406040526002805460ff60a01b1916600160a01b1790553480156200002557600080fd5b5060405162004503380380620045038339810160408190526200004891620001c3565b6001600160a01b03868116608052600080546001600160a01b03191686831617905560018490558190839089908216158015906200008e57506001600160a01b03811615155b620000f45760405162461bcd60e51b815260206004820152602c60248201527f526f757465723a207a65726f20616464726573732070726f766964656420696e60448201526b1031b7b739ba393ab1ba37b960a11b606482015260840160405180910390fd5b6001600160a01b03821660a081905260408051631355724960e31b81529051639aab9248916004808201926020929091908290030181865afa1580156200013f573d6000803e3d6000fd5b505050506040513d601f19601f8201168201806040525081019062000165919062000262565b60e0526001600160a01b0390811660c0529182166101005250968716610120525050600280546001600160a01b0319169390951692909217909355506200027c915050565b6001600160a01b0381168114620001c057600080fd5b50565b600080600080600080600060e0888a031215620001df57600080fd5b8751620001ec81620001aa565b6020890151909750620001ff81620001aa565b60408901519096506200021281620001aa565b60608901519095506200022581620001aa565b608089015160a08a015191955093506200023f81620001aa565b60c08901519092506200025281620001aa565b8091505092959891949750929550565b6000602082840312156200027557600080fd5b5051919050565b60805160a05160c05160e05161010051610120516141d66200032d6000396000818161071901528181610af50152610b8801526000818161027f015281816112c601528181611da40152611dcb015260006103e2015260006101fa01526000818160ff015281816103a701528181610ddd01528181610ef10152818161114f01526114aa0152600081816102d30152818161159a0152818161167e0152818161170201526117dd01526141d66000f3fe6080604052600436106100e15760003560e01c80639aab92481161007f578063c31c9c0711610059578063c31c9c07146102c1578063c415b95c146102f5578063c45a015514610315578063e5e31b131461033557600080fd5b80639aab924814610249578063a9e56f3c1461026d578063ab8236f3146102a157600080fd5b80635b676ff3116100bb5780635b676ff31461019e5780635e1e6325146101b3578063750a1d48146101e85780639881fcb41461021c57600080fd5b80634588b7c5146100ed5780634c1ee03e1461013e578063544caa561461015e57600080fd5b366100e857005b600080fd5b3480156100f957600080fd5b506101217f000000000000000000000000000000000000000000000000000000000000000081565b6040516001600160a01b0390911681526020015b60405180910390f35b34801561014a57600080fd5b50610121610159366004612e56565b610365565b34801561016a57600080fd5b5061017e610179366004612ea1565b610435565b604080516001600160a01b03938416815292909116602083015201610135565b6101b16101ac366004612f1e565b61052d565b005b3480156101bf57600080fd5b506101d36101ce366004612f89565b610da5565b60408051928352901515602083015201610135565b3480156101f457600080fd5b506101217f000000000000000000000000000000000000000000000000000000000000000081565b34801561022857600080fd5b5061023c61023736600461318e565b610ff9565b60405161013591906131d4565b34801561025557600080fd5b5061025f60015481565b604051908152602001610135565b34801561027957600080fd5b506101217f000000000000000000000000000000000000000000000000000000000000000081565b3480156102ad57600080fd5b506101b16102bc3660046132a2565b6112bb565b3480156102cd57600080fd5b506101217f000000000000000000000000000000000000000000000000000000000000000081565b34801561030157600080fd5b50600254610121906001600160a01b031681565b34801561032157600080fd5b50600054610121906001600160a01b031681565b34801561034157600080fd5b5061035561035036600461333c565b611488565b6040519015158152602001610135565b60008060006103748686610435565b6040516001600160601b0319606084811b8216602084015283901b16603482015286151560f81b604882015291935091507f000000000000000000000000000000000000000000000000000000000000000090604901604051602081830303815290604052805190602001207f000000000000000000000000000000000000000000000000000000000000000060405160200161041393929190613359565b60408051601f1981840301815291905280516020909101209695505050505050565b600080826001600160a01b0316846001600160a01b0316036104a85760405162461bcd60e51b815260206004820152602160248201527f426173655631526f757465723a204944454e544943414c5f41444452455353456044820152605360f81b60648201526084015b60405180910390fd5b826001600160a01b0316846001600160a01b0316106104c85782846104cb565b83835b90925090506001600160a01b0382166105265760405162461bcd60e51b815260206004820152601a60248201527f426173655631526f757465723a205a45524f5f41444452455353000000000000604482015260640161049f565b9250929050565b600254600160a01b900460ff166001146105765760405162461bcd60e51b815260206004820152600a6024820152695245454e5452414e435960b01b604482015260640161049f565b6002805460ff60a01b1916600160a11b17905560005b83811015610d8b5760008585838181106105a8576105a861338c565b90506020020160208101906105bd91906133b1565b905060001960ff8216016106b5576000808585858181106105e0576105e061338c565b90506020028101906105f291906133ce565b8101906105ff9190613483565b9150915060005b82518110156106ad5760008282815181106106235761062361338c565b6020026020010151116106495760405163fe4155c760e01b815260040160405180910390fd5b61069b33308484815181106106605761066061338c565b602002602001015186858151811061067a5761067a61338c565b60200260200101516001600160a01b031661151d909392919063ffffffff16565b806106a581613553565b915050610606565b505050610d78565b60011960ff8216016107915760008484848181106106d5576106d561338c565b90506020028101906106e791906133ce565b8101906106f4919061356c565b9050600081116107175760405163fe4155c760e01b815260040160405180910390fd5b7f00000000000000000000000000000000000000000000000000000000000000006001600160a01b031663d0e30db0826040518263ffffffff1660e01b81526004016000604051808303818588803b15801561077257600080fd5b505af1158015610786573d6000803e3d6000fd5b505050505050610d78565b60021960ff8216016108215760008484848181106107b1576107b161338c565b90506020028101906107c391906133ce565b8101906107d09190613598565b905060005b815181101561081a5760008282815181106107f2576107f261338c565b602002602001015190506108058161158e565b5050808061081290613553565b9150506107d5565b5050610d78565b60031960ff8216016108a35760008484848181106108415761084161338c565b905060200281019061085391906133ce565b8101906108609190613682565b905060005b815181101561081a576108908282815181106108835761088361338c565b60200260200101516116f6565b508061089b81613553565b915050610865565b60041960ff8216016109255760008484848181106108c3576108c361338c565b90506020028101906108d591906133ce565b8101906108e29190613784565b905060005b815181101561081a576109128282815181106109055761090561338c565b6020026020010151611827565b508061091d81613553565b9150506108e7565b60051960ff821601610a945760008484848181106109455761094561338c565b905060200281019061095791906133ce565b8101906109649190613891565b905060005b815181101561081a578181815181106109845761098461338c565b6020026020010151604001516000815181106109a2576109a261338c565b6020026020010151600001516001600160a01b031663095ea7b3738e72bf5a45f800e182362bdf906dfb13d5d5cb5d8484815181106109e3576109e361338c565b6020908102919091010151516040516001600160e01b031960e085901b1681526001600160a01b03909216600483015260248201526044016020604051808303816000875af1158015610a3a573d6000803e3d6000fd5b505050506040513d601f19601f82011682018060405250810190610a5e919061398b565b50610a81828281518110610a7457610a7461338c565b6020026020010151611a07565b5080610a8c81613553565b915050610969565b600b1960ff821601610c6057600080858585818110610ab557610ab561338c565b9050602002810190610ac791906133ce565b810190610ad491906139a8565b9150915080600003610b6d576040516370a0823160e01b81523060048201527f00000000000000000000000000000000000000000000000000000000000000006001600160a01b0316906370a0823190602401602060405180830381865afa158015610b44573d6000803e3d6000fd5b505050506040513d601f19601f82011682018060405250810190610b6891906139d4565b610b6f565b805b604051632e1a7d4d60e01b8152600481018290529091507f00000000000000000000000000000000000000000000000000000000000000006001600160a01b031690632e1a7d4d90602401600060405180830381600087803b158015610bd457600080fd5b505af1158015610be8573d6000803e3d6000fd5b505050506000826001600160a01b03168260405160006040518083038185875af1925050503d8060008114610c39576040519150601f19603f3d011682016040523d82523d6000602084013e610c3e565b606091505b50509050806106ad57604051631d42c86760e21b815260040160405180910390fd5b600c1960ff821601610d21576000848484818110610c8057610c8061338c565b9050602002810190610c9291906133ce565b810190610c9f91906139ed565b905060005b815181101561081a57610d0f828281518110610cc257610cc261338c565b602002602001015160000151838381518110610ce057610ce061338c565b602002602001015160400151848481518110610cfe57610cfe61338c565b602002602001015160200151611baa565b80610d1981613553565b915050610ca4565b600d1960ff821601610d78576000806000868686818110610d4457610d4461338c565b9050602002810190610d5691906133ce565b810190610d639190613b93565b925092509250610d74838383611cb3565b5050505b5080610d8381613553565b91505061058c565b50506002805460ff60a01b1916600160a01b179055505050565b6000806000610db685856001610365565b60405163e5e31b1360e01b81526001600160a01b03828116600483015291925060009182917f00000000000000000000000000000000000000000000000000000000000000009091169063e5e31b1390602401602060405180830381865afa158015610e26573d6000803e3d6000fd5b505050506040513d601f19601f82011682018060405250810190610e4a919061398b565b15610ec3576040516378a051ad60e11b8152600481018990526001600160a01b03888116602483015284169063f140a35a90604401602060405180830381865afa158015610e9c573d6000803e3d6000fd5b505050506040513d601f19601f82011682018060405250810190610ec091906139d4565b91505b610ecf87876000610365565b60405163e5e31b1360e01b81526001600160a01b0380831660048301529194507f00000000000000000000000000000000000000000000000000000000000000009091169063e5e31b1390602401602060405180830381865afa158015610f3a573d6000803e3d6000fd5b505050506040513d601f19601f82011682018060405250810190610f5e919061398b565b15610fd7576040516378a051ad60e11b8152600481018990526001600160a01b03888116602483015284169063f140a35a90604401602060405180830381865afa158015610fb0573d6000803e3d6000fd5b505050506040513d601f19601f82011682018060405250810190610fd491906139d4565b90505b808211610fe657806000610fea565b8160015b94509450505050935093915050565b606060018251101561104d5760405162461bcd60e51b815260206004820152601a60248201527f426173655631526f757465723a20494e56414c49445f50415448000000000000604482015260640161049f565b815161105a906001613ca0565b6001600160401b0381111561107157611071612fc0565b60405190808252806020026020018201604052801561109a578160200160208202803683370190505b50905082816000815181106110b1576110b161338c565b60200260200101818152505060005b82518110156112b457600061112d8483815181106110e0576110e061338c565b6020026020010151600001518584815181106110fe576110fe61338c565b60200260200101516020015186858151811061111c5761111c61338c565b602002602001015160400151610365565b60405163e5e31b1360e01b81526001600160a01b0380831660048301529192507f00000000000000000000000000000000000000000000000000000000000000009091169063e5e31b1390602401602060405180830381865afa158015611198573d6000803e3d6000fd5b505050506040513d601f19601f820116820180604052508101906111bc919061398b565b156112a157806001600160a01b031663f140a35a8484815181106111e2576111e261338c565b60200260200101518685815181106111fc576111fc61338c565b6020026020010151600001516040518363ffffffff1660e01b81526004016112379291909182526001600160a01b0316602082015260400190565b602060405180830381865afa158015611254573d6000803e3d6000fd5b505050506040513d601f19601f8201168201806040525081019061127891906139d4565b83611284846001613ca0565b815181106112945761129461338c565b6020026020010181815250505b50806112ac81613553565b9150506110c0565b5092915050565b336001600160a01b037f0000000000000000000000000000000000000000000000000000000000000000161461130457604051638afe477f60e01b815260040160405180910390fd5b60008060008380602001905181019061131d9190613d9f565b9250925092506000306001600160a01b0316635b676ff362030d4085856040518463ffffffff1660e01b8152600401611357929190613f2c565b600060405180830381600088803b15801561137157600080fd5b5087f193505050508015611383575060015b6113d1573d8080156113b1576040519150601f19603f3d011682016040523d82523d6000602084013e6113b6565b606091505b506113cb6001600160a01b0389168689611f06565b60019150505b6000471561142d576040516001600160a01b038616904790600081818185875af1925050503d8060008114611422576040519150601f19603f3d011682016040523d82523d6000602084013e611427565b606091505b50909150505b6040805188815283151560208201528215158183015290516001600160a01b038a16917f7f345d6da48bd1339fd428ff45265a0f01258b14ca09dcf8db0c469f4f732fd3919081900360600190a25050505050505050505050565b60405163e5e31b1360e01b81526001600160a01b0382811660048301526000917f00000000000000000000000000000000000000000000000000000000000000009091169063e5e31b1390602401602060405180830381865afa1580156114f3573d6000803e3d6000fd5b505050506040513d601f19601f82011682018060405250810190611517919061398b565b92915050565b6040516001600160a01b03808516602483015283166044820152606481018290526115889085906323b872dd60e01b906084015b60408051601f198184030181529190526020810180516001600160e01b03166001600160e01b031990931692909217909152611f3b565b50505050565b60006115c382604001517f0000000000000000000000000000000000000000000000000000000000000000846000015161200d565b6040805161010081018252838201516001600160a01b0390811682526060808601518216602080850191825260808089015162ffffff90811687890190815230958801958652429288019283528a5160a08901908152938b015160c08901908152600060e08a01908152995163414bf38960e01b8152895189166004820152955188166024870152905190911660448501529351851660648401525160848301525160a4820152905160c48201529251811660e484015290917f00000000000000000000000000000000000000000000000000000000000000009091169063414bf38990610104015b6020604051808303816000875af11580156116cb573d6000803e3d6000fd5b505050506040513d601f19601f820116820180604052508101906116ef91906139d4565b9392505050565b600061172b82604001517f0000000000000000000000000000000000000000000000000000000000000000846000015161200d565b6040805160a08082018352918401519184015160608086015160c08088015160808901516001600160601b031997851b8816928701929092526001600160e81b031960e895861b811660d488015292841b871660d787015290931b1660eb8401521b90911660ee8201526000908061010281016040516020818303038152906040528152602001306001600160a01b0316815260200142815260200184600001518152602001846020015181525090507f00000000000000000000000000000000000000000000000000000000000000006001600160a01b031663c04b8d59826040518263ffffffff1660e01b81526004016116ac9190613f5a565b6000805482516040840151600154849361184e936001600160a01b0390911692909161210d565b9050806001825161185f9190613fb2565b8151811061186f5761186f61338c565b6020026020010151915082602001518210156118cd5760405162461bcd60e51b815260206004820152601760248201527f696e73756666696369656e742d616d6f756e742d6f7574000000000000000000604482015260640161049f565b8260600151156119f25760008054604085015180516119f293611930936001600160a01b031692916119015761190161338c565b602002602001015186604001516001815181106119205761192061338c565b6020026020010151600154612299565b84604001516000815181106119475761194761338c565b60209081029190910101516040516370a0823160e01b81523060048201526001600160a01b03909116906370a0823190602401602060405180830381865afa158015611997573d6000803e3d6000fd5b505050506040513d601f19601f820116820180604052508101906119bb91906139d4565b85604001516000815181106119d2576119d261338c565b60200260200101516001600160a01b0316611f069092919063ffffffff16565b611a018184604001513061231f565b50919050565b6060816060015142811015611a565760405162461bcd60e51b815260206004820152601560248201527410985cd9558c549bdd5d195c8e8811561412549151605a1b604482015260640161049f565b611a6883600001518460400151610ff9565b915082602001518260018451611a7e9190613fb2565b81518110611a8e57611a8e61338c565b60200260200101511015611af55760405162461bcd60e51b815260206004820152602860248201527f426173655631526f757465723a20494e53554646494349454e545f4f555450556044820152671517d05353d5539560c21b606482015260840161049f565b611b9b8360400151600081518110611b0f57611b0f61338c565b602002602001015160000151611b7b8560400151600081518110611b3557611b3561338c565b6020026020010151600001518660400151600081518110611b5857611b5861338c565b602002602001015160200151876040015160008151811061111c5761111c61338c565b84600081518110611b8e57611b8e61338c565b60200260200101516124f6565b611a01828460400151306125de565b81600003611c1f576040516370a0823160e01b81523060048201526001600160a01b038416906370a0823190602401602060405180830381865afa158015611bf6573d6000803e3d6000fd5b505050506040513d601f19601f82011682018060405250810190611c1a91906139d4565b611c21565b815b91506000611c2e8361282d565b9050611c3a8184613fb2565b600254909350611c57906001600160a01b03868116911683611f06565b611c6b6001600160a01b0385168385611f06565b604080516001600160a01b0386168152602081018390527f075a2720282fdf622141dae0b048ef90a21a7e57c134c76912d19d006b3b3f6f910160405180910390a150505050565b60003411611cd45760405163c9935ff960e01b815260040160405180910390fd5b60008361010001518383604051602001611cf093929190613fc9565b60405160208183030381529060405290508360800151600003611d805760208401516040516370a0823160e01b81523060048201526001600160a01b03909116906370a0823190602401602060405180830381865afa158015611d57573d6000803e3d6000fd5b505050506040513d601f19601f82011682018060405250810190611d7b91906139d4565b611d86565b83608001515b608085018190526020850151611dc9916001600160a01b03909116907f000000000000000000000000000000000000000000000000000000000000000090612852565b7f00000000000000000000000000000000000000000000000000000000000000006001600160a01b0316639fbf10fc478660000151876040015188606001518961010001518a608001518b60a0015160405180606001604052808e610120015181526020018e60c0015181526020018e60e00151604051602001611e60919060609190911b6001600160601b031916815260140190565b6040516020818303038152906040528152508d60e00151604051602001611e9a919060609190911b6001600160601b031916815260140190565b6040516020818303038152906040528b6040518b63ffffffff1660e01b8152600401611ece99989796959493929190614009565b6000604051808303818588803b158015611ee757600080fd5b505af1158015611efb573d6000803e3d6000fd5b505050505050505050565b6040516001600160a01b038316602482015260448101829052611f3690849063a9059cbb60e01b90606401611551565b505050565b6000611f90826040518060400160405280602081526020017f5361666545524332303a206c6f772d6c6576656c2063616c6c206661696c6564815250856001600160a01b03166129049092919063ffffffff16565b805190915015611f365780806020019051810190611fae919061398b565b611f365760405162461bcd60e51b815260206004820152602a60248201527f5361666545524332303a204552433230206f7065726174696f6e20646964206e6044820152691bdd081cdd58d8d9595960b21b606482015260840161049f565b604080516001600160a01b038481166024830152604480830185905283518084039091018152606490920183526020820180516001600160e01b031663095ea7b360e01b179052915160009283929087169161206991906140a7565b6000604051808303816000865af19150503d80600081146120a6576040519150601f19603f3d011682016040523d82523d6000602084013e6120ab565b606091505b50915091508180156120d55750805115806120d55750808060200190518101906120d5919061398b565b6121065760405162461bcd60e51b8152602060048201526002602482015261534160f01b604482015260640161049f565b5050505050565b60606002835110156121615760405162461bcd60e51b815260206004820152601e60248201527f556e697377617056324c6962726172793a20494e56414c49445f504154480000604482015260640161049f565b82516001600160401b0381111561217a5761217a612fc0565b6040519080825280602002602001820160405280156121a3578160200160208202803683370190505b50905083816000815181106121ba576121ba61338c565b60200260200101818152505060005b600184516121d79190613fb2565b8110156122905760008061222b888785815181106121f7576121f761338c565b60200260200101518886600161220d9190613ca0565b8151811061221d5761221d61338c565b60200260200101518861291b565b915091506122538484815181106122445761224461338c565b602002602001015183836129e7565b8461225f856001613ca0565b8151811061226f5761226f61338c565b6020026020010181815250505050808061228890613553565b9150506121c9565b50949350505050565b60008060006122a88686612b06565b6040516001600160601b0319606084811b8216602084015283901b1660348201529193509150879060480160405160208183030381529060405280519060200120856040516020016122fc93929190613359565b60408051601f198184030181529190528051602090910120979650505050505050565b60005b600183516123309190613fb2565b8110156115885760008084838151811061234c5761234c61338c565b6020026020010151858460016123629190613ca0565b815181106123725761237261338c565b602002602001015191509150600061238a8383612b06565b50905060008761239b866001613ca0565b815181106123ab576123ab61338c565b60200260200101519050600080836001600160a01b0316866001600160a01b0316146123d9578260006123dd565b6000835b91509150600060028a516123f19190613fb2565b88106123fd578861242a565b60005461242a906001600160a01b0316878c61241a8c6002613ca0565b815181106119205761192061338c565b905061244d60008054906101000a90046001600160a01b03168888600154612299565b6001600160a01b031663022c0d9f84848460006040519080825280601f01601f19166020018201604052801561248a576020820181803683370190505b506040518563ffffffff1660e01b81526004016124aa94939291906140c3565b600060405180830381600087803b1580156124c457600080fd5b505af11580156124d8573d6000803e3d6000fd5b505050505050505050505080806124ee90613553565b915050612322565b6000836001600160a01b03163b1161250d57600080fd5b604080516001600160a01b038481166024830152604480830185905283518084039091018152606490920183526020820180516001600160e01b031663a9059cbb60e01b179052915160009283929087169161256991906140a7565b6000604051808303816000865af19150503d80600081146125a6576040519150601f19603f3d011682016040523d82523d6000602084013e6125ab565b606091505b50915091508180156125d55750805115806125d55750808060200190518101906125d5919061398b565b61210657600080fd5b60005b82518110156115885760006126308483815181106126015761260161338c565b60200260200101516000015185848151811061261f5761261f61338c565b602002602001015160200151610435565b509050600085612641846001613ca0565b815181106126515761265161338c565b60200260200101519050600080836001600160a01b031687868151811061267a5761267a61338c565b6020026020010151600001516001600160a01b03161461269c578260006126a0565b6000835b915091506000600188516126b49190613fb2565b86106126c05786612733565b612733886126cf886001613ca0565b815181106126df576126df61338c565b602002602001015160000151898860016126f99190613ca0565b815181106127095761270961338c565b6020026020010151602001518a8960016127239190613ca0565b8151811061111c5761111c61338c565b905061278688878151811061274a5761274a61338c565b6020026020010151600001518988815181106127685761276861338c565b6020026020010151602001518a898151811061111c5761111c61338c565b6001600160a01b031663022c0d9f84848460006040519080825280601f01601f1916602001820160405280156127c3576020820181803683370190505b506040518563ffffffff1660e01b81526004016127e394939291906140c3565b600060405180830381600087803b1580156127fd57600080fd5b505af1158015612811573d6000803e3d6000fd5b505050505050505050808061282590613553565b9150506125e1565b600061271061283e8361270b6140f0565b612848919061410f565b6115179083613fb2565b604051636eb1769f60e11b81523060048201526001600160a01b038381166024830152600091839186169063dd62ed3e90604401602060405180830381865afa1580156128a3573d6000803e3d6000fd5b505050506040513d601f19601f820116820180604052508101906128c791906139d4565b6128d19190613ca0565b6040516001600160a01b03851660248201526044810182905290915061158890859063095ea7b360e01b90606401611551565b60606129138484600085612bf6565b949350505050565b600080600061292a8686612b06565b50905060008061293c89898989612299565b6001600160a01b0316630902f1ac6040518163ffffffff1660e01b8152600401606060405180830381865afa158015612979573d6000803e3d6000fd5b505050506040513d601f19601f8201168201806040525081019061299d9190614148565b506001600160701b031691506001600160701b03169150826001600160a01b0316886001600160a01b0316146129d45780826129d7565b81815b909a909950975050505050505050565b6000808411612a4c5760405162461bcd60e51b815260206004820152602b60248201527f556e697377617056324c6962726172793a20494e53554646494349454e545f4960448201526a1394155517d05353d5539560aa1b606482015260840161049f565b600083118015612a5c5750600082115b612ab95760405162461bcd60e51b815260206004820152602860248201527f556e697377617056324c6962726172793a20494e53554646494349454e545f4c604482015267495155494449545960c01b606482015260840161049f565b6000612ac7856103e5612cc6565b90506000612ad58285612cc6565b90506000612aef83612ae9886103e8612cc6565b90612d2d565b9050612afb818361410f565b979650505050505050565b600080826001600160a01b0316846001600160a01b031603612b785760405162461bcd60e51b815260206004820152602560248201527f556e697377617056324c6962726172793a204944454e544943414c5f41444452604482015264455353455360d81b606482015260840161049f565b826001600160a01b0316846001600160a01b031610612b98578284612b9b565b83835b90925090506001600160a01b0382166105265760405162461bcd60e51b815260206004820152601e60248201527f556e697377617056324c6962726172793a205a45524f5f414444524553530000604482015260640161049f565b606082471015612c575760405162461bcd60e51b815260206004820152602660248201527f416464726573733a20696e73756666696369656e742062616c616e636520666f6044820152651c8818d85b1b60d21b606482015260840161049f565b600080866001600160a01b03168587604051612c7391906140a7565b60006040518083038185875af1925050503d8060008114612cb0576040519150601f19603f3d011682016040523d82523d6000602084013e612cb5565b606091505b5091509150612afb87838387612d82565b6000811580612cea57508282612cdc81836140f0565b9250612ce8908361410f565b145b6115175760405162461bcd60e51b815260206004820152601460248201527364732d6d6174682d6d756c2d6f766572666c6f7760601b604482015260640161049f565b600082612d3a8382613ca0565b91508110156115175760405162461bcd60e51b815260206004820152601460248201527364732d6d6174682d6164642d6f766572666c6f7760601b604482015260640161049f565b60608315612df1578251600003612dea576001600160a01b0385163b612dea5760405162461bcd60e51b815260206004820152601d60248201527f416464726573733a2063616c6c20746f206e6f6e2d636f6e7472616374000000604482015260640161049f565b5081612913565b6129138383815115612e065781518083602001fd5b8060405162461bcd60e51b815260040161049f919061418d565b6001600160a01b0381168114612e3557600080fd5b50565b8035612e4381612e20565b919050565b8015158114612e3557600080fd5b600080600060608486031215612e6b57600080fd5b8335612e7681612e20565b92506020840135612e8681612e20565b91506040840135612e9681612e48565b809150509250925092565b60008060408385031215612eb457600080fd5b8235612ebf81612e20565b91506020830135612ecf81612e20565b809150509250929050565b60008083601f840112612eec57600080fd5b5081356001600160401b03811115612f0357600080fd5b6020830191508360208260051b850101111561052657600080fd5b60008060008060408587031215612f3457600080fd5b84356001600160401b0380821115612f4b57600080fd5b612f5788838901612eda565b90965094506020870135915080821115612f7057600080fd5b50612f7d87828801612eda565b95989497509550505050565b600080600060608486031215612f9e57600080fd5b833592506020840135612fb081612e20565b91506040840135612e9681612e20565b634e487b7160e01b600052604160045260246000fd5b604051606081016001600160401b0381118282101715612ff857612ff8612fc0565b60405290565b60405160a081016001600160401b0381118282101715612ff857612ff8612fc0565b60405160e081016001600160401b0381118282101715612ff857612ff8612fc0565b604051608081016001600160401b0381118282101715612ff857612ff8612fc0565b60405161016081016001600160401b0381118282101715612ff857612ff8612fc0565b604051601f8201601f191681016001600160401b03811182821017156130af576130af612fc0565b604052919050565b60006001600160401b038211156130d0576130d0612fc0565b5060051b60200190565b600082601f8301126130eb57600080fd5b813560206131006130fb836130b7565b613087565b8281526060928302850182019282820191908785111561311f57600080fd5b8387015b858110156131815781818a03121561313b5760008081fd5b613143612fd6565b813561314e81612e20565b81528186013561315d81612e20565b8187015260408281013561317081612e48565b908201528452928401928101613123565b5090979650505050505050565b600080604083850312156131a157600080fd5b8235915060208301356001600160401b038111156131be57600080fd5b6131ca858286016130da565b9150509250929050565b6020808252825182820181905260009190848201906040850190845b8181101561320c578351835292840192918401916001016131f0565b50909695505050505050565b803561ffff81168114612e4357600080fd5b60006001600160401b0382111561324357613243612fc0565b50601f01601f191660200190565b600082601f83011261326257600080fd5b81356132706130fb8261322a565b81815284602083860101111561328557600080fd5b816020850160208301376000918101602001919091529392505050565b60008060008060008060c087890312156132bb57600080fd5b6132c487613218565b955060208701356001600160401b03808211156132e057600080fd5b6132ec8a838b01613251565b9650604089013595506060890135915061330582612e20565b9093506080880135925060a0880135908082111561332257600080fd5b5061332f89828a01613251565b9150509295509295509295565b60006020828403121561334e57600080fd5b81356116ef81612e20565b6001600160f81b0319815260609390931b6001600160601b03191660018401526015830191909152603582015260550190565b634e487b7160e01b600052603260045260246000fd5b60ff81168114612e3557600080fd5b6000602082840312156133c357600080fd5b81356116ef816133a2565b6000808335601e198436030181126133e557600080fd5b8301803591506001600160401b038211156133ff57600080fd5b60200191503681900382131561052657600080fd5b600082601f83011261342557600080fd5b813560206134356130fb836130b7565b82815260059290921b8401810191818101908684111561345457600080fd5b8286015b8481101561347857803561346b81612e20565b8352918301918301613458565b509695505050505050565b6000806040838503121561349657600080fd5b82356001600160401b03808211156134ad57600080fd5b6134b986838701613414565b93506020915081850135818111156134d057600080fd5b85019050601f810186136134e357600080fd5b80356134f16130fb826130b7565b81815260059190911b8201830190838101908883111561351057600080fd5b928401925b8284101561352e57833582529284019290840190613515565b80955050505050509250929050565b634e487b7160e01b600052601160045260246000fd5b6000600182016135655761356561353d565b5060010190565b60006020828403121561357e57600080fd5b5035919050565b803562ffffff81168114612e4357600080fd5b600060208083850312156135ab57600080fd5b82356001600160401b038111156135c157600080fd5b8301601f810185136135d257600080fd5b80356135e06130fb826130b7565b81815260a091820283018401918482019190888411156135ff57600080fd5b938501935b838510156136765780858a03121561361c5760008081fd5b613624612ffe565b85358152868601358782015260408087013561363f81612e20565b9082015260608681013561365281612e20565b908201526080613663878201613585565b9082015283529384019391850191613604565b50979650505050505050565b6000602080838503121561369557600080fd5b82356001600160401b038111156136ab57600080fd5b8301601f810185136136bc57600080fd5b80356136ca6130fb826130b7565b81815260e091820283018401918482019190888411156136e957600080fd5b938501935b838510156136765780858a0312156137065760008081fd5b61370e613020565b85358152868601358782015260408087013561372981612e20565b9082015260608681013561373c81612e20565b9082015260808681013561374f81612e20565b9082015260a0613760878201613585565b9082015260c0613771878201613585565b90820152835293840193918501916136ee565b6000602080838503121561379757600080fd5b82356001600160401b03808211156137ae57600080fd5b818501915085601f8301126137c257600080fd5b81356137d06130fb826130b7565b81815260059190911b830184019084810190888311156137ef57600080fd5b8585015b838110156138845780358581111561380a57600080fd5b86016080818c03601f190112156138215760008081fd5b613829613042565b8882013581526040808301358a8301526060808401358981111561384d5760008081fd5b61385b8f8d83880101613414565b83850152506080840135935061387084612e48565b8201929092528452509186019186016137f3565b5098975050505050505050565b600060208083850312156138a457600080fd5b82356001600160401b03808211156138bb57600080fd5b818501915085601f8301126138cf57600080fd5b81356138dd6130fb826130b7565b81815260059190911b830184019084810190888311156138fc57600080fd5b8585015b838110156138845780358581111561391757600080fd5b86016080818c03601f1901121561392e5760008081fd5b613936613042565b8882013581526040808301358a8301526060808401358981111561395a5760008081fd5b6139688f8d838801016130da565b928401929092526080939093013592820192909252845250918601918601613900565b60006020828403121561399d57600080fd5b81516116ef81612e48565b600080604083850312156139bb57600080fd5b82356139c681612e20565b946020939093013593505050565b6000602082840312156139e657600080fd5b5051919050565b60006020808385031215613a0057600080fd5b82356001600160401b03811115613a1657600080fd5b8301601f81018513613a2757600080fd5b8035613a356130fb826130b7565b81815260609182028301840191848201919088841115613a5457600080fd5b938501935b838510156136765780858a031215613a715760008081fd5b613a79612fd6565b8535613a8481612e20565b815285870135613a9381612e20565b818801526040868101359082015283529384019391850191613a59565b600082601f830112613ac157600080fd5b81356020613ad16130fb836130b7565b82815260059290921b84018101918181019086841115613af057600080fd5b8286015b84811015613478578035613b07816133a2565b8352918301918301613af4565b600082601f830112613b2557600080fd5b81356020613b356130fb836130b7565b82815260059290921b84018101918181019086841115613b5457600080fd5b8286015b848110156134785780356001600160401b03811115613b775760008081fd5b613b858986838b0101613251565b845250918301918301613b58565b60008060008385036101a0811215613baa57600080fd5b61016080821215613bba57600080fd5b613bc2613064565b9150613bcd86613218565b8252613bdb60208701612e38565b602083015260408601356040830152606086013560608301526080860135608083015260a086013560a083015260c086013560c0830152613c1e60e08701612e38565b60e0830152610100613c31818801612e38565b90830152610120868101359083015261014080870135908301529093508401356001600160401b0380821115613c6657600080fd5b613c7287838801613ab0565b9350610180860135915080821115613c8957600080fd5b50613c9686828701613b14565b9150509250925092565b60008219821115613cb357613cb361353d565b500190565b60005b83811015613cd3578181015183820152602001613cbb565b838111156115885750506000910152565b600082601f830112613cf557600080fd5b81516020613d056130fb836130b7565b82815260059290921b84018101918181019086841115613d2457600080fd5b8286015b848110156134785780516001600160401b03811115613d475760008081fd5b8701603f81018913613d595760008081fd5b848101516040613d6b6130fb8361322a565b8281528b82848601011115613d805760008081fd5b613d8f83898301848701613cb8565b8652505050918301918301613d28565b600080600060608486031215613db457600080fd5b8351613dbf81612e20565b809350506020808501516001600160401b0380821115613dde57600080fd5b818701915087601f830112613df257600080fd5b8151613e006130fb826130b7565b81815260059190911b8301840190848101908a831115613e1f57600080fd5b938501935b82851015613e46578451613e37816133a2565b82529385019390850190613e24565b60408a01519097509450505080831115613e5f57600080fd5b5050613c9686828701613ce4565b600081518084526020808501945080840160005b83811015613ea057815160ff1687529582019590820190600101613e81565b509495945050505050565b60008151808452613ec3816020860160208601613cb8565b601f01601f19169290920160200192915050565b600081518084526020808501808196508360051b8101915082860160005b85811015613f1f578284038952613f0d848351613eab565b98850198935090840190600101613ef5565b5091979650505050505050565b604081526000613f3f6040830185613e6d565b8281036020840152613f518185613ed7565b95945050505050565b602081526000825160a06020840152613f7660c0840182613eab565b905060018060a01b0360208501511660408401526040840151606084015260608401516080840152608084015160a08401528091505092915050565b600082821015613fc457613fc461353d565b500390565b6001600160a01b0384168152606060208201819052600090613fed90830185613e6d565b8281036040840152613fff8185613ed7565b9695505050505050565b600061012061ffff8c1683528a602084015289604084015260018060a01b03891660608401528760808401528660a08401528060c08401528551818401525060208501516101408301526040850151606061016084015261406e610180840182613eab565b905082810360e08401526140828186613eab565b90508281036101008401526140978185613eab565b9c9b505050505050505050505050565b600082516140b9818460208701613cb8565b9190910192915050565b84815283602082015260018060a01b0383166040820152608060608201526000613fff6080830184613eab565b600081600019048311821515161561410a5761410a61353d565b500290565b60008261412c57634e487b7160e01b600052601260045260246000fd5b500490565b80516001600160701b0381168114612e4357600080fd5b60008060006060848603121561415d57600080fd5b61416684614131565b925061417460208501614131565b9150604084015163ffffffff81168114612e9657600080fd5b6020815260006116ef6020830184613eab56fea26469706673582212207d2ca5bec26a4d45ddb88d06910a25c7d195bc31166b1ac58f7104f1aed88a4c64736f6c634300080f0033",
    "linkReferences": {}
  },
  "methodIdentifiers": {
    "arbitrumSwaps(uint8[],bytes[])": "5b676ff3",
    "factory()": "c45a0155",
    "feeCollector()": "c415b95c",
    "getAmountOut(uint256,address,address)": "5e1e6325",
    "getAmountsOut(uint256,(address,address,bool)[])": "9881fcb4",
    "isPair(address)": "e5e31b13",
    "pairCodeHash()": "9aab9248",
    "pairFor(address,address,bool)": "4c1ee03e",
    "sgReceive(uint16,bytes,uint256,address,uint256,bytes)": "ab8236f3",
    "sortTokens(address,address)": "544caa56",
    "stargateRouter()": "a9e56f3c",
    "swapRouter()": "c31c9c07",
    "xcalFactory()": "4588b7c5",
    "xcalWeth()": "750a1d48"
  },
  "id": 51
}