{
  "abi": [
    {
      "inputs": [
        {
          "internalType": "contract IWETH9",
          "name": "_weth",
          "type": "address"
        },
        {
          "internalType": "address",
          "name": "_feeCollector",
          "type": "address"
        },
        {
          "internalType": "address",
          "name": "_spookyRouter",
          "type": "address"
        },
        {
          "internalType": "address",
          "name": "_factory",
          "type": "address"
        },
        {
          "internalType": "bytes32",
          "name": "_pairCodeHash",
          "type": "bytes32"
        },
        {
          "internalType": "contract IStargateRouter",
          "name": "_stargateRouter",
          "type": "address"
        }
      ],
      "stateMutability": "nonpayable",
      "type": "constructor"
    },
    {
      "inputs": [],
      "name": "MoreThanZero",
      "type": "error"
    },
    {
      "inputs": [],
      "name": "MustBeGt0",
      "type": "error"
    },
    {
      "inputs": [],
      "name": "NotStgRouter",
      "type": "error"
    },
    {
      "inputs": [],
      "name": "WithdrawFailed",
      "type": "error"
    },
    {
      "anonymous": false,
      "inputs": [
        {
          "indexed": false,
          "internalType": "address",
          "name": "_token",
          "type": "address"
        },
        {
          "indexed": false,
          "internalType": "uint256",
          "name": "_fee",
          "type": "uint256"
        }
      ],
      "name": "FeePaid",
      "type": "event"
    },
    {
      "anonymous": false,
      "inputs": [
        {
          "indexed": true,
          "internalType": "address",
          "name": "token",
          "type": "address"
        },
        {
          "indexed": false,
          "internalType": "uint256",
          "name": "amountLD",
          "type": "uint256"
        },
        {
          "indexed": false,
          "internalType": "bool",
          "name": "failed",
          "type": "bool"
        },
        {
          "indexed": false,
          "internalType": "bool",
          "name": "dustSent",
          "type": "bool"
        }
      ],
      "name": "ReceivedOnDestination",
      "type": "event"
    },
    {
      "anonymous": false,
      "inputs": [
        {
          "indexed": false,
          "internalType": "bool",
          "name": "success",
          "type": "bool"
        }
      ],
      "name": "SuccessfulWithdraw",
      "type": "event"
    },
    {
      "inputs": [],
      "name": "factory",
      "outputs": [
        {
          "internalType": "address",
          "name": "",
          "type": "address"
        }
      ],
      "stateMutability": "view",
      "type": "function"
    },
    {
      "inputs": [
        {
          "internalType": "uint8[]",
          "name": "steps",
          "type": "uint8[]"
        },
        {
          "internalType": "bytes[]",
          "name": "data",
          "type": "bytes[]"
        }
      ],
      "name": "fantomSwaps",
      "outputs": [],
      "stateMutability": "payable",
      "type": "function"
    },
    {
      "inputs": [],
      "name": "feeCollector",
      "outputs": [
        {
          "internalType": "address",
          "name": "",
          "type": "address"
        }
      ],
      "stateMutability": "view",
      "type": "function"
    },
    {
      "inputs": [],
      "name": "pairCodeHash",
      "outputs": [
        {
          "internalType": "bytes32",
          "name": "",
          "type": "bytes32"
        }
      ],
      "stateMutability": "view",
      "type": "function"
    },
    {
      "inputs": [
        {
          "internalType": "uint16",
          "name": "",
          "type": "uint16"
        },
        {
          "internalType": "bytes",
          "name": "",
          "type": "bytes"
        },
        {
          "internalType": "uint256",
          "name": "",
          "type": "uint256"
        },
        {
          "internalType": "address",
          "name": "_token",
          "type": "address"
        },
        {
          "internalType": "uint256",
          "name": "amountLD",
          "type": "uint256"
        },
        {
          "internalType": "bytes",
          "name": "_payload",
          "type": "bytes"
        }
      ],
      "name": "sgReceive",
      "outputs": [],
      "stateMutability": "nonpayable",
      "type": "function"
    },
    {
      "inputs": [],
      "name": "stargateRouter",
      "outputs": [
        {
          "internalType": "contract IStargateRouter",
          "name": "",
          "type": "address"
        }
      ],
      "stateMutability": "view",
      "type": "function"
    },
    {
      "stateMutability": "payable",
      "type": "receive"
    }
  ],
  "bytecode": {
    "object": "0x6101006040526002805460ff191660011790553480156200001f57600080fd5b5060405162002d9838038062002d98833981016040819052620000429162000098565b600080546001600160a01b0319166001600160a01b03948516179055600191909155811660805292831660a05290821660c0521660e05262000120565b6001600160a01b03811681146200009557600080fd5b50565b60008060008060008060c08789031215620000b257600080fd5b8651620000bf816200007f565b6020880151909650620000d2816200007f565b6040880151909550620000e5816200007f565b6060880151909450620000f8816200007f565b608088015160a0890151919450925062000112816200007f565b809150509295509295509295565b60805160a05160c05160e051612c0e6200018a6000396000818161049901526105280152600081816101210152610f010152600081816103460152818161076a01526107fd01526000818160b50152818161099b01528181611073015261109a0152612c0e6000f3fe6080604052600436106100595760003560e01c80631ab9e02c146100655780639aab92481461007a578063a9e56f3c146100a3578063ab8236f3146100ef578063c415b95c1461010f578063c45a01551461014357600080fd5b3661006057005b600080fd5b610078610073366004611c80565b610163565b005b34801561008657600080fd5b5061009060015481565b6040519081526020015b60405180910390f35b3480156100af57600080fd5b506100d77f000000000000000000000000000000000000000000000000000000000000000081565b6040516001600160a01b03909116815260200161009a565b3480156100fb57600080fd5b5061007861010a366004611e55565b610990565b34801561011b57600080fd5b506100d77f000000000000000000000000000000000000000000000000000000000000000081565b34801561014f57600080fd5b506000546100d7906001600160a01b031681565b60025460ff166001146101aa5760405162461bcd60e51b815260206004820152600a6024820152695245454e5452414e435960b01b60448201526064015b60405180910390fd5b6002805460ff19168117905560005b8381101561097c5760008585838181106101d5576101d5611eef565b90506020020160208101906101ea9190611f14565b905060001960ff8216016102e25760008085858581811061020d5761020d611eef565b905060200281019061021f9190611f38565b81019061022c9190612010565b9150915060005b82518110156102da57600082828151811061025057610250611eef565b6020026020010151116102765760405163fe4155c760e01b815260040160405180910390fd5b6102c8333084848151811061028d5761028d611eef565b60200260200101518685815181106102a7576102a7611eef565b60200260200101516001600160a01b0316610b5d909392919063ffffffff16565b806102d2816120e0565b915050610233565b505050610969565b60011960ff8216016103be57600084848481811061030257610302611eef565b90506020028101906103149190611f38565b81019061032191906120f9565b9050600081116103445760405163fe4155c760e01b815260040160405180910390fd5b7f00000000000000000000000000000000000000000000000000000000000000006001600160a01b031663d0e30db0826040518263ffffffff1660e01b81526004016000604051808303818588803b15801561039f57600080fd5b505af11580156103b3573d6000803e3d6000fd5b505050505050610969565b60041960ff8216016104475760008484848181106103de576103de611eef565b90506020028101906103f09190611f38565b8101906103fd9190612120565b905060005b81518110156104405761042d82828151811061042057610420611eef565b6020026020010151610bce565b5080610438816120e0565b915050610402565b5050610969565b60071960ff82160161064857600084848481811061046757610467611eef565b90506020028101906104799190611f38565b810190610486919061222d565b905060005b8151811015610440576105267f00000000000000000000000000000000000000000000000000000000000000008383815181106104ca576104ca611eef565b6020026020010151600001518484815181106104e8576104e8611eef565b60200260200101516040015160008151811061050657610506611eef565b60200260200101516001600160a01b0316610dae9092919063ffffffff16565b7f00000000000000000000000000000000000000000000000000000000000000006001600160a01b03166338ed173983838151811061056757610567611eef565b60200260200101516000015184848151811061058557610585611eef565b6020026020010151602001518585815181106105a3576105a3611eef565b602002602001015160400151308787815181106105c2576105c2611eef565b6020026020010151606001516040518663ffffffff1660e01b81526004016105ee959493929190612327565b6000604051808303816000875af115801561060d573d6000803e3d6000fd5b505050506040513d6000823e601f3d908101601f191682016040526106359190810190612398565b5080610640816120e0565b91505061048b565b600a1960ff82160161070957600084848481811061066857610668611eef565b905060200281019061067a9190611f38565b810190610687919061241d565b905060005b8151811015610440576106f78282815181106106aa576106aa611eef565b6020026020010151600001518383815181106106c8576106c8611eef565b6020026020010151604001518484815181106106e6576106e6611eef565b602002602001015160200151610e60565b80610701816120e0565b91505061068c565b600b1960ff8216016109125760008085858581811061072a5761072a611eef565b905060200281019061073c9190611f38565b81019061074991906124ec565b91509150806000036107e2576040516370a0823160e01b81523060048201527f00000000000000000000000000000000000000000000000000000000000000006001600160a01b0316906370a0823190602401602060405180830381865afa1580156107b9573d6000803e3d6000fd5b505050506040513d601f19601f820116820180604052508101906107dd9190612518565b6107e4565b805b604051632e1a7d4d60e01b8152600481018290529091507f00000000000000000000000000000000000000000000000000000000000000006001600160a01b031690632e1a7d4d90602401600060405180830381600087803b15801561084957600080fd5b505af115801561085d573d6000803e3d6000fd5b505050506000826001600160a01b03168260405160006040518083038185875af1925050503d80600081146108ae576040519150601f19603f3d011682016040523d82523d6000602084013e6108b3565b606091505b50509050806108d557604051631d42c86760e21b815260040160405180910390fd5b60405181151581527fecd574d247fc5a32601173682b0af34b454b7a0bf3e382d0efb3c6209e9443fa9060200160405180910390a1505050610969565b600c1960ff82160161096957600080600086868681811061093557610935611eef565b90506020028101906109479190611f38565b8101906109549190612614565b925092509250610965838383610f82565b5050505b5080610974816120e0565b9150506101b9565b50506002805460ff19166001179055505050565b336001600160a01b037f000000000000000000000000000000000000000000000000000000000000000016146109d957604051638afe477f60e01b815260040160405180910390fd5b6000806000838060200190518101906109f29190612800565b9250925092506000306001600160a01b0316631ab9e02c62030d4085856040518463ffffffff1660e01b8152600401610a2c92919061298d565b600060405180830381600088803b158015610a4657600080fd5b5087f193505050508015610a58575060015b610aa6573d808015610a86576040519150601f19603f3d011682016040523d82523d6000602084013e610a8b565b606091505b50610aa06001600160a01b03891686896111d0565b60019150505b60004715610b02576040516001600160a01b038616904790600081818185875af1925050503d8060008114610af7576040519150601f19603f3d011682016040523d82523d6000602084013e610afc565b606091505b50909150505b6040805188815283151560208201528215158183015290516001600160a01b038a16917f7f345d6da48bd1339fd428ff45265a0f01258b14ca09dcf8db0c469f4f732fd3919081900360600190a25050505050505050505050565b6040516001600160a01b0380851660248301528316604482015260648101829052610bc89085906323b872dd60e01b906084015b60408051601f198184030181529190526020810180516001600160e01b03166001600160e01b031990931692909217909152611205565b50505050565b60008054825160408401516001548493610bf5936001600160a01b039091169290916112d7565b90508060018251610c0691906129bb565b81518110610c1657610c16611eef565b602002602001015191508260200151821015610c745760405162461bcd60e51b815260206004820152601760248201527f696e73756666696369656e742d616d6f756e742d6f757400000000000000000060448201526064016101a1565b826060015115610d99576000805460408501518051610d9993610cd7936001600160a01b03169291610ca857610ca8611eef565b60200260200101518660400151600181518110610cc757610cc7611eef565b6020026020010151600154611463565b8460400151600081518110610cee57610cee611eef565b60209081029190910101516040516370a0823160e01b81523060048201526001600160a01b03909116906370a0823190602401602060405180830381865afa158015610d3e573d6000803e3d6000fd5b505050506040513d601f19601f82011682018060405250810190610d629190612518565b8560400151600081518110610d7957610d79611eef565b60200260200101516001600160a01b03166111d09092919063ffffffff16565b610da881846040015130611517565b50919050565b604051636eb1769f60e11b81523060048201526001600160a01b038381166024830152600091839186169063dd62ed3e90604401602060405180830381865afa158015610dff573d6000803e3d6000fd5b505050506040513d601f19601f82011682018060405250810190610e239190612518565b610e2d91906129ce565b6040516001600160a01b038516602482015260448101829052909150610bc890859063095ea7b360e01b90606401610b91565b81600003610ed5576040516370a0823160e01b81523060048201526001600160a01b038416906370a0823190602401602060405180830381865afa158015610eac573d6000803e3d6000fd5b505050506040513d601f19601f82011682018060405250810190610ed09190612518565b610ed7565b815b91506000610ee4836116ee565b9050610ef081846129bb565b9250610f266001600160a01b0385167f0000000000000000000000000000000000000000000000000000000000000000836111d0565b610f3a6001600160a01b03851683856111d0565b604080516001600160a01b0386168152602081018390527f075a2720282fdf622141dae0b048ef90a21a7e57c134c76912d19d006b3b3f6f910160405180910390a150505050565b60003411610fa35760405163c9935ff960e01b815260040160405180910390fd5b60008361010001518383604051602001610fbf939291906129e1565b6040516020818303038152906040529050836080015160000361104f5760208401516040516370a0823160e01b81523060048201526001600160a01b03909116906370a0823190602401602060405180830381865afa158015611026573d6000803e3d6000fd5b505050506040513d601f19601f8201168201806040525081019061104a9190612518565b611055565b83608001515b608085018190526020850151611098916001600160a01b03909116907f000000000000000000000000000000000000000000000000000000000000000090610dae565b7f00000000000000000000000000000000000000000000000000000000000000006001600160a01b0316639fbf10fc47866000015187604001518860600151308a608001518b60a0015160405180606001604052808e610120015181526020018e60c0015181526020018e60e0015160405160200161112a919060609190911b6001600160601b031916815260140190565b6040516020818303038152906040528152508d60e00151604051602001611164919060609190911b6001600160601b031916815260140190565b6040516020818303038152906040528b6040518b63ffffffff1660e01b815260040161119899989796959493929190612a21565b6000604051808303818588803b1580156111b157600080fd5b505af11580156111c5573d6000803e3d6000fd5b505050505050505050565b6040516001600160a01b03831660248201526044810182905261120090849063a9059cbb60e01b90606401610b91565b505050565b600061125a826040518060400160405280602081526020017f5361666545524332303a206c6f772d6c6576656c2063616c6c206661696c6564815250856001600160a01b03166117199092919063ffffffff16565b80519091501561120057808060200190518101906112789190612abf565b6112005760405162461bcd60e51b815260206004820152602a60248201527f5361666545524332303a204552433230206f7065726174696f6e20646964206e6044820152691bdd081cdd58d8d9595960b21b60648201526084016101a1565b606060028351101561132b5760405162461bcd60e51b815260206004820152601e60248201527f556e697377617056324c6962726172793a20494e56414c49445f50415448000060448201526064016101a1565b82516001600160401b0381111561134457611344611d02565b60405190808252806020026020018201604052801561136d578160200160208202803683370190505b509050838160008151811061138457611384611eef565b60200260200101818152505060005b600184516113a191906129bb565b81101561145a576000806113f5888785815181106113c1576113c1611eef565b6020026020010151888660016113d791906129ce565b815181106113e7576113e7611eef565b602002602001015188611730565b9150915061141d84848151811061140e5761140e611eef565b602002602001015183836117fc565b846114298560016129ce565b8151811061143957611439611eef565b60200260200101818152505050508080611452906120e0565b915050611393565b50949350505050565b6000806000611472868661191b565b6040516001600160601b0319606084811b8216602084015283901b1660348201529193509150879060480160405160208183030381529060405280519060200120856040516020016114f4939291906001600160f81b0319815260609390931b6001600160601b03191660018401526015830191909152603582015260550190565b60408051601f198184030181529190528051602090910120979650505050505050565b60005b6001835161152891906129bb565b811015610bc85760008084838151811061154457611544611eef565b60200260200101518584600161155a91906129ce565b8151811061156a5761156a611eef565b6020026020010151915091506000611582838361191b565b5090506000876115938660016129ce565b815181106115a3576115a3611eef565b60200260200101519050600080836001600160a01b0316866001600160a01b0316146115d1578260006115d5565b6000835b91509150600060028a516115e991906129bb565b88106115f55788611622565b600054611622906001600160a01b0316878c6116128c60026129ce565b81518110610cc757610cc7611eef565b905061164560008054906101000a90046001600160a01b03168888600154611463565b6001600160a01b031663022c0d9f84848460006040519080825280601f01601f191660200182016040528015611682576020820181803683370190505b506040518563ffffffff1660e01b81526004016116a29493929190612adc565b600060405180830381600087803b1580156116bc57600080fd5b505af11580156116d0573d6000803e3d6000fd5b505050505050505050505080806116e6906120e0565b91505061151a565b60006127106116ff8361270b612b09565b6117099190612b20565b61171390836129bb565b92915050565b60606117288484600085611a12565b949350505050565b600080600061173f868661191b565b50905060008061175189898989611463565b6001600160a01b0316630902f1ac6040518163ffffffff1660e01b8152600401606060405180830381865afa15801561178e573d6000803e3d6000fd5b505050506040513d601f19601f820116820180604052508101906117b29190612b59565b506001600160701b031691506001600160701b03169150826001600160a01b0316886001600160a01b0316146117e95780826117ec565b81815b909a909950975050505050505050565b60008084116118615760405162461bcd60e51b815260206004820152602b60248201527f556e697377617056324c6962726172793a20494e53554646494349454e545f4960448201526a1394155517d05353d5539560aa1b60648201526084016101a1565b6000831180156118715750600082115b6118ce5760405162461bcd60e51b815260206004820152602860248201527f556e697377617056324c6962726172793a20494e53554646494349454e545f4c604482015267495155494449545960c01b60648201526084016101a1565b60006118dc856103e5611ae2565b905060006118ea8285611ae2565b90506000611904836118fe886103e8611ae2565b90611b49565b90506119108183612b20565b979650505050505050565b600080826001600160a01b0316846001600160a01b03160361198d5760405162461bcd60e51b815260206004820152602560248201527f556e697377617056324c6962726172793a204944454e544943414c5f41444452604482015264455353455360d81b60648201526084016101a1565b826001600160a01b0316846001600160a01b0316106119ad5782846119b0565b83835b90925090506001600160a01b038216611a0b5760405162461bcd60e51b815260206004820152601e60248201527f556e697377617056324c6962726172793a205a45524f5f41444452455353000060448201526064016101a1565b9250929050565b606082471015611a735760405162461bcd60e51b815260206004820152602660248201527f416464726573733a20696e73756666696369656e742062616c616e636520666f6044820152651c8818d85b1b60d21b60648201526084016101a1565b600080866001600160a01b03168587604051611a8f9190612ba9565b60006040518083038185875af1925050503d8060008114611acc576040519150601f19603f3d011682016040523d82523d6000602084013e611ad1565b606091505b509150915061191087838387611b9e565b6000811580611b0657508282611af88183612b09565b9250611b049083612b20565b145b6117135760405162461bcd60e51b815260206004820152601460248201527364732d6d6174682d6d756c2d6f766572666c6f7760601b60448201526064016101a1565b600082611b5683826129ce565b91508110156117135760405162461bcd60e51b815260206004820152601460248201527364732d6d6174682d6164642d6f766572666c6f7760601b60448201526064016101a1565b60608315611c0d578251600003611c06576001600160a01b0385163b611c065760405162461bcd60e51b815260206004820152601d60248201527f416464726573733a2063616c6c20746f206e6f6e2d636f6e747261637400000060448201526064016101a1565b5081611728565b6117288383815115611c225781518083602001fd5b8060405162461bcd60e51b81526004016101a19190612bc5565b60008083601f840112611c4e57600080fd5b5081356001600160401b03811115611c6557600080fd5b6020830191508360208260051b8501011115611a0b57600080fd5b60008060008060408587031215611c9657600080fd5b84356001600160401b0380821115611cad57600080fd5b611cb988838901611c3c565b90965094506020870135915080821115611cd257600080fd5b50611cdf87828801611c3c565b95989497509550505050565b803561ffff81168114611cfd57600080fd5b919050565b634e487b7160e01b600052604160045260246000fd5b604051608081016001600160401b0381118282101715611d3a57611d3a611d02565b60405290565b604051606081016001600160401b0381118282101715611d3a57611d3a611d02565b60405161016081016001600160401b0381118282101715611d3a57611d3a611d02565b604051601f8201601f191681016001600160401b0381118282101715611dad57611dad611d02565b604052919050565b60006001600160401b03821115611dce57611dce611d02565b50601f01601f191660200190565b600082601f830112611ded57600080fd5b8135611e00611dfb82611db5565b611d85565b818152846020838601011115611e1557600080fd5b816020850160208301376000918101602001919091529392505050565b6001600160a01b0381168114611e4757600080fd5b50565b8035611cfd81611e32565b60008060008060008060c08789031215611e6e57600080fd5b611e7787611ceb565b955060208701356001600160401b0380821115611e9357600080fd5b611e9f8a838b01611ddc565b96506040890135955060608901359150611eb882611e32565b9093506080880135925060a08801359080821115611ed557600080fd5b50611ee289828a01611ddc565b9150509295509295509295565b634e487b7160e01b600052603260045260246000fd5b60ff81168114611e4757600080fd5b600060208284031215611f2657600080fd5b8135611f3181611f05565b9392505050565b6000808335601e19843603018112611f4f57600080fd5b8301803591506001600160401b03821115611f6957600080fd5b602001915036819003821315611a0b57600080fd5b60006001600160401b03821115611f9757611f97611d02565b5060051b60200190565b600082601f830112611fb257600080fd5b81356020611fc2611dfb83611f7e565b82815260059290921b84018101918181019086841115611fe157600080fd5b8286015b84811015612005578035611ff881611e32565b8352918301918301611fe5565b509695505050505050565b6000806040838503121561202357600080fd5b82356001600160401b038082111561203a57600080fd5b61204686838701611fa1565b935060209150818501358181111561205d57600080fd5b85019050601f8101861361207057600080fd5b803561207e611dfb82611f7e565b81815260059190911b8201830190838101908883111561209d57600080fd5b928401925b828410156120bb578335825292840192908401906120a2565b80955050505050509250929050565b634e487b7160e01b600052601160045260246000fd5b6000600182016120f2576120f26120ca565b5060010190565b60006020828403121561210b57600080fd5b5035919050565b8015158114611e4757600080fd5b6000602080838503121561213357600080fd5b82356001600160401b038082111561214a57600080fd5b818501915085601f83011261215e57600080fd5b813561216c611dfb82611f7e565b81815260059190911b8301840190848101908883111561218b57600080fd5b8585015b83811015612220578035858111156121a657600080fd5b86016080818c03601f190112156121bd5760008081fd5b6121c5611d18565b8882013581526040808301358a830152606080840135898111156121e95760008081fd5b6121f78f8d83880101611fa1565b83850152506080840135935061220c84612112565b82019290925284525091860191860161218f565b5098975050505050505050565b6000602080838503121561224057600080fd5b82356001600160401b038082111561225757600080fd5b818501915085601f83011261226b57600080fd5b8135612279611dfb82611f7e565b81815260059190911b8301840190848101908883111561229857600080fd5b8585015b83811015612220578035858111156122b357600080fd5b86016080818c03601f190112156122ca5760008081fd5b6122d2611d18565b8882013581526040808301358a830152606080840135898111156122f65760008081fd5b6123048f8d83880101611fa1565b92840192909252608093909301359282019290925284525091860191860161229c565b600060a082018783526020878185015260a0604085015281875180845260c086019150828901935060005b818110156123775784516001600160a01b031683529383019391830191600101612352565b50506001600160a01b03969096166060850152505050608001529392505050565b600060208083850312156123ab57600080fd5b82516001600160401b038111156123c157600080fd5b8301601f810185136123d257600080fd5b80516123e0611dfb82611f7e565b81815260059190911b820183019083810190878311156123ff57600080fd5b928401925b8284101561191057835182529284019290840190612404565b6000602080838503121561243057600080fd5b82356001600160401b0381111561244657600080fd5b8301601f8101851361245757600080fd5b8035612465611dfb82611f7e565b8181526060918202830184019184820191908884111561248457600080fd5b938501935b838510156124e05780858a0312156124a15760008081fd5b6124a9611d40565b85356124b481611e32565b8152858701356124c381611e32565b818801526040868101359082015283529384019391850191612489565b50979650505050505050565b600080604083850312156124ff57600080fd5b823561250a81611e32565b946020939093013593505050565b60006020828403121561252a57600080fd5b5051919050565b600082601f83011261254257600080fd5b81356020612552611dfb83611f7e565b82815260059290921b8401810191818101908684111561257157600080fd5b8286015b8481101561200557803561258881611f05565b8352918301918301612575565b600082601f8301126125a657600080fd5b813560206125b6611dfb83611f7e565b82815260059290921b840181019181810190868411156125d557600080fd5b8286015b848110156120055780356001600160401b038111156125f85760008081fd5b6126068986838b0101611ddc565b8452509183019183016125d9565b60008060008385036101a081121561262b57600080fd5b6101608082121561263b57600080fd5b612643611d62565b915061264e86611ceb565b825261265c60208701611e4a565b602083015260408601356040830152606086013560608301526080860135608083015260a086013560a083015260c086013560c083015261269f60e08701611e4a565b60e08301526101006126b2818801611e4a565b90830152610120868101359083015261014080870135908301529093508401356001600160401b03808211156126e757600080fd5b6126f387838801612531565b935061018086013591508082111561270a57600080fd5b5061271786828701612595565b9150509250925092565b60005b8381101561273c578181015183820152602001612724565b50506000910152565b600082601f83011261275657600080fd5b81516020612766611dfb83611f7e565b82815260059290921b8401810191818101908684111561278557600080fd5b8286015b848110156120055780516001600160401b038111156127a85760008081fd5b8701603f810189136127ba5760008081fd5b8481015160406127cc611dfb83611db5565b8281528b828486010111156127e15760008081fd5b6127f083898301848701612721565b8652505050918301918301612789565b60008060006060848603121561281557600080fd5b835161282081611e32565b809350506020808501516001600160401b038082111561283f57600080fd5b818701915087601f83011261285357600080fd5b8151612861611dfb82611f7e565b81815260059190911b8301840190848101908a83111561288057600080fd5b938501935b828510156128a757845161289881611f05565b82529385019390850190612885565b60408a015190975094505050808311156128c057600080fd5b505061271786828701612745565b600081518084526020808501945080840160005b8381101561290157815160ff16875295820195908201906001016128e2565b509495945050505050565b60008151808452612924816020860160208601612721565b601f01601f19169290920160200192915050565b600081518084526020808501808196508360051b8101915082860160005b8581101561298057828403895261296e84835161290c565b98850198935090840190600101612956565b5091979650505050505050565b6040815260006129a060408301856128ce565b82810360208401526129b28185612938565b95945050505050565b81810381811115611713576117136120ca565b80820180821115611713576117136120ca565b6001600160a01b0384168152606060208201819052600090612a05908301856128ce565b8281036040840152612a178185612938565b9695505050505050565b600061012061ffff8c1683528a602084015289604084015260018060a01b03891660608401528760808401528660a08401528060c084015285518184015250602085015161014083015260408501516060610160840152612a8661018084018261290c565b905082810360e0840152612a9a818661290c565b9050828103610100840152612aaf818561290c565b9c9b505050505050505050505050565b600060208284031215612ad157600080fd5b8151611f3181612112565b84815283602082015260018060a01b0383166040820152608060608201526000612a17608083018461290c565b8082028115828204841417611713576117136120ca565b600082612b3d57634e487b7160e01b600052601260045260246000fd5b500490565b80516001600160701b0381168114611cfd57600080fd5b600080600060608486031215612b6e57600080fd5b612b7784612b42565b9250612b8560208501612b42565b9150604084015163ffffffff81168114612b9e57600080fd5b809150509250925092565b60008251612bbb818460208701612721565b9190910192915050565b602081526000611f31602083018461290c56fea264697066735822122046f0d4a20fc130b061c0e46669e1dae11da5f88837ff430b66b4f048dbbb0edc64736f6c63430008110033",
    "linkReferences": {}
  },
  "methodIdentifiers": {
    "factory()": "c45a0155",
    "fantomSwaps(uint8[],bytes[])": "1ab9e02c",
    "feeCollector()": "c415b95c",
    "pairCodeHash()": "9aab9248",
    "sgReceive(uint16,bytes,uint256,address,uint256,bytes)": "ab8236f3",
    "stargateRouter()": "a9e56f3c"
  },
  "id": 67
}