{
  "abi": [
    {
      "inputs": [
        {
          "internalType": "contract IWETH9",
          "name": "_weth",
          "type": "address"
        },
        {
          "internalType": "address",
          "name": "_feeCollector",
          "type": "address"
        },
        {
          "internalType": "address",
          "name": "_spookyRouter",
          "type": "address"
        },
        {
          "internalType": "address",
          "name": "_factory",
          "type": "address"
        },
        {
          "internalType": "bytes32",
          "name": "_pairCodeHash",
          "type": "bytes32"
        },
        {
          "internalType": "contract IStargateRouter",
          "name": "_stargateRouter",
          "type": "address"
        }
      ],
      "stateMutability": "nonpayable",
      "type": "constructor"
    },
    {
      "inputs": [],
      "name": "MoreThanZero",
      "type": "error"
    },
    {
      "inputs": [],
      "name": "MustBeGt0",
      "type": "error"
    },
    {
      "inputs": [],
      "name": "NotStgRouter",
      "type": "error"
    },
    {
      "inputs": [],
      "name": "WithdrawFailed",
      "type": "error"
    },
    {
      "anonymous": false,
      "inputs": [
        {
          "indexed": false,
          "internalType": "address",
          "name": "_token",
          "type": "address"
        },
        {
          "indexed": false,
          "internalType": "uint256",
          "name": "_fee",
          "type": "uint256"
        }
      ],
      "name": "FeePaid",
      "type": "event"
    },
    {
      "anonymous": false,
      "inputs": [
        {
          "indexed": true,
          "internalType": "address",
          "name": "token",
          "type": "address"
        },
        {
          "indexed": false,
          "internalType": "uint256",
          "name": "amountLD",
          "type": "uint256"
        },
        {
          "indexed": false,
          "internalType": "bool",
          "name": "failed",
          "type": "bool"
        },
        {
          "indexed": false,
          "internalType": "bool",
          "name": "dustSent",
          "type": "bool"
        }
      ],
      "name": "ReceivedOnDestination",
      "type": "event"
    },
    {
      "anonymous": false,
      "inputs": [
        {
          "indexed": false,
          "internalType": "bool",
          "name": "success",
          "type": "bool"
        }
      ],
      "name": "SuccessfulWithdraw",
      "type": "event"
    },
    {
      "inputs": [],
      "name": "factory",
      "outputs": [
        {
          "internalType": "address",
          "name": "",
          "type": "address"
        }
      ],
      "stateMutability": "view",
      "type": "function"
    },
    {
      "inputs": [
        {
          "internalType": "uint8[]",
          "name": "steps",
          "type": "uint8[]"
        },
        {
          "internalType": "bytes[]",
          "name": "data",
          "type": "bytes[]"
        }
      ],
      "name": "fantomSwaps",
      "outputs": [],
      "stateMutability": "payable",
      "type": "function"
    },
    {
      "inputs": [],
      "name": "feeCollector",
      "outputs": [
        {
          "internalType": "address",
          "name": "",
          "type": "address"
        }
      ],
      "stateMutability": "view",
      "type": "function"
    },
    {
      "inputs": [],
      "name": "pairCodeHash",
      "outputs": [
        {
          "internalType": "bytes32",
          "name": "",
          "type": "bytes32"
        }
      ],
      "stateMutability": "view",
      "type": "function"
    },
    {
      "inputs": [
        {
          "internalType": "uint16",
          "name": "",
          "type": "uint16"
        },
        {
          "internalType": "bytes",
          "name": "",
          "type": "bytes"
        },
        {
          "internalType": "uint256",
          "name": "",
          "type": "uint256"
        },
        {
          "internalType": "address",
          "name": "_token",
          "type": "address"
        },
        {
          "internalType": "uint256",
          "name": "amountLD",
          "type": "uint256"
        },
        {
          "internalType": "bytes",
          "name": "_payload",
          "type": "bytes"
        }
      ],
      "name": "sgReceive",
      "outputs": [],
      "stateMutability": "nonpayable",
      "type": "function"
    },
    {
      "inputs": [],
      "name": "stargateRouter",
      "outputs": [
        {
          "internalType": "contract IStargateRouter",
          "name": "",
          "type": "address"
        }
      ],
      "stateMutability": "view",
      "type": "function"
    },
    {
      "stateMutability": "payable",
      "type": "receive"
    }
  ],
  "bytecode": {
    "object": "0x6101006040523480156200001257600080fd5b5060405162002d3638038062002d3683398101604081905262000035916200008b565b600080546001600160a01b0319166001600160a01b03948516179055600191909155811660805292831660a05290821660c0521660e05262000113565b6001600160a01b03811681146200008857600080fd5b50565b60008060008060008060c08789031215620000a557600080fd5b8651620000b28162000072565b6020880151909650620000c58162000072565b6040880151909550620000d88162000072565b6060880151909450620000eb8162000072565b608088015160a08901519194509250620001058162000072565b809150509295509295509295565b60805160a05160c05160e051612bb96200017d6000396000818161044601526104d501526000818161012101526107490152600081816102f30152818161083c01526108cf01526000818160b501528181610a600152818161107b01526110a20152612bb96000f3fe6080604052600436106100595760003560e01c80631ab9e02c146100655780639aab92481461007a578063a9e56f3c146100a3578063ab8236f3146100ef578063c415b95c1461010f578063c45a01551461014357600080fd5b3661006057005b600080fd5b610078610073366004611c28565b610163565b005b34801561008657600080fd5b5061009060015481565b6040519081526020015b60405180910390f35b3480156100af57600080fd5b506100d77f000000000000000000000000000000000000000000000000000000000000000081565b6040516001600160a01b03909116815260200161009a565b3480156100fb57600080fd5b5061007861010a366004611dfd565b610a55565b34801561011b57600080fd5b506100d77f000000000000000000000000000000000000000000000000000000000000000081565b34801561014f57600080fd5b506000546100d7906001600160a01b031681565b60005b83811015610a4e57600085858381811061018257610182611e97565b90506020020160208101906101979190611ebc565b905060001960ff82160161028f576000808585858181106101ba576101ba611e97565b90506020028101906101cc9190611ee0565b8101906101d99190611fb8565b9150915060005b82518110156102875760008282815181106101fd576101fd611e97565b6020026020010151116102235760405163fe4155c760e01b815260040160405180910390fd5b610275333084848151811061023a5761023a611e97565b602002602001015186858151811061025457610254611e97565b60200260200101516001600160a01b0316610c22909392919063ffffffff16565b8061027f81612088565b9150506101e0565b505050610a3b565b60011960ff82160161036b5760008484848181106102af576102af611e97565b90506020028101906102c19190611ee0565b8101906102ce91906120a1565b9050600081116102f15760405163fe4155c760e01b815260040160405180910390fd5b7f00000000000000000000000000000000000000000000000000000000000000006001600160a01b031663d0e30db0826040518263ffffffff1660e01b81526004016000604051808303818588803b15801561034c57600080fd5b505af1158015610360573d6000803e3d6000fd5b505050505050610a3b565b60041960ff8216016103f457600084848481811061038b5761038b611e97565b905060200281019061039d9190611ee0565b8101906103aa91906120c8565b905060005b81518110156103ed576103da8282815181106103cd576103cd611e97565b6020026020010151610c93565b50806103e581612088565b9150506103af565b5050610a3b565b60071960ff8216016105f557600084848481811061041457610414611e97565b90506020028101906104269190611ee0565b81019061043391906121d5565b905060005b81518110156103ed576104d37f000000000000000000000000000000000000000000000000000000000000000083838151811061047757610477611e97565b60200260200101516000015184848151811061049557610495611e97565b6020026020010151604001516000815181106104b3576104b3611e97565b60200260200101516001600160a01b0316610e789092919063ffffffff16565b7f00000000000000000000000000000000000000000000000000000000000000006001600160a01b03166338ed173983838151811061051457610514611e97565b60200260200101516000015184848151811061053257610532611e97565b60200260200101516020015185858151811061055057610550611e97565b6020026020010151604001513087878151811061056f5761056f611e97565b6020026020010151606001516040518663ffffffff1660e01b815260040161059b9594939291906122cf565b6000604051808303816000875af11580156105ba573d6000803e3d6000fd5b505050506040513d6000823e601f3d908101601f191682016040526105e29190810190612340565b50806105ed81612088565b915050610438565b600a1960ff8216016107db57600084848481811061061557610615611e97565b90506020028101906106279190611ee0565b81019061063491906123c5565b905060005b81518110156103ed57600082828151811061065657610656611e97565b6020026020010151600001519050600083838151811061067857610678611e97565b6020026020010151604001519050806000036106fb576040516370a0823160e01b81523060048201526001600160a01b038316906370a0823190602401602060405180830381865afa1580156106d2573d6000803e3d6000fd5b505050506040513d601f19601f820116820180604052508101906106f69190612494565b6106fd565b805b9050600084848151811061071357610713611e97565b6020026020010151602001519050600061072c83610f2a565b905061073881846124ad565b925061076e6001600160a01b0385167f000000000000000000000000000000000000000000000000000000000000000083610f55565b6107826001600160a01b0385168385610f55565b604080516001600160a01b0386168152602081018390527f075a2720282fdf622141dae0b048ef90a21a7e57c134c76912d19d006b3b3f6f910160405180910390a15050505080806107d390612088565b915050610639565b600b1960ff8216016109e4576000808585858181106107fc576107fc611e97565b905060200281019061080e9190611ee0565b81019061081b91906124c0565b91509150806000036108b4576040516370a0823160e01b81523060048201527f00000000000000000000000000000000000000000000000000000000000000006001600160a01b0316906370a0823190602401602060405180830381865afa15801561088b573d6000803e3d6000fd5b505050506040513d601f19601f820116820180604052508101906108af9190612494565b6108b6565b805b604051632e1a7d4d60e01b8152600481018290529091507f00000000000000000000000000000000000000000000000000000000000000006001600160a01b031690632e1a7d4d90602401600060405180830381600087803b15801561091b57600080fd5b505af115801561092f573d6000803e3d6000fd5b505050506000826001600160a01b03168260405160006040518083038185875af1925050503d8060008114610980576040519150601f19603f3d011682016040523d82523d6000602084013e610985565b606091505b50509050806109a757604051631d42c86760e21b815260040160405180910390fd5b60405181151581527fecd574d247fc5a32601173682b0af34b454b7a0bf3e382d0efb3c6209e9443fa9060200160405180910390a1505050610a3b565b600c1960ff821601610a3b576000806000868686818110610a0757610a07611e97565b9050602002810190610a199190611ee0565b810190610a2691906125cf565b925092509250610a37838383610f8a565b5050505b5080610a4681612088565b915050610166565b5050505050565b336001600160a01b037f00000000000000000000000000000000000000000000000000000000000000001614610a9e57604051638afe477f60e01b815260040160405180910390fd5b600080600083806020019051810190610ab791906127bb565b9250925092506000306001600160a01b0316631ab9e02c62030d4085856040518463ffffffff1660e01b8152600401610af192919061294b565b600060405180830381600088803b158015610b0b57600080fd5b5087f193505050508015610b1d575060015b610b6b573d808015610b4b576040519150601f19603f3d011682016040523d82523d6000602084013e610b50565b606091505b50610b656001600160a01b0389168689610f55565b60019150505b60004715610bc7576040516001600160a01b038616904790600081818185875af1925050503d8060008114610bbc576040519150601f19603f3d011682016040523d82523d6000602084013e610bc1565b606091505b50909150505b6040805188815283151560208201528215158183015290516001600160a01b038a16917f7f345d6da48bd1339fd428ff45265a0f01258b14ca09dcf8db0c469f4f732fd3919081900360600190a25050505050505050505050565b6040516001600160a01b0380851660248301528316604482015260648101829052610c8d9085906323b872dd60e01b906084015b60408051601f198184030181529190526020810180516001600160e01b03166001600160e01b0319909316929092179091526111d8565b50505050565b60008054825160408401516001548493610cba936001600160a01b039091169290916112aa565b90508060018251610ccb91906124ad565b81518110610cdb57610cdb611e97565b602002602001015191508260200151821015610d3e5760405162461bcd60e51b815260206004820152601760248201527f696e73756666696369656e742d616d6f756e742d6f757400000000000000000060448201526064015b60405180910390fd5b826060015115610e63576000805460408501518051610e6393610da1936001600160a01b03169291610d7257610d72611e97565b60200260200101518660400151600181518110610d9157610d91611e97565b6020026020010151600154611436565b8460400151600081518110610db857610db8611e97565b60209081029190910101516040516370a0823160e01b81523060048201526001600160a01b03909116906370a0823190602401602060405180830381865afa158015610e08573d6000803e3d6000fd5b505050506040513d601f19601f82011682018060405250810190610e2c9190612494565b8560400151600081518110610e4357610e43611e97565b60200260200101516001600160a01b0316610f559092919063ffffffff16565b610e72818460400151306114ea565b50919050565b604051636eb1769f60e11b81523060048201526001600160a01b038381166024830152600091839186169063dd62ed3e90604401602060405180830381865afa158015610ec9573d6000803e3d6000fd5b505050506040513d601f19601f82011682018060405250810190610eed9190612494565b610ef79190612979565b6040516001600160a01b038516602482015260448101829052909150610c8d90859063095ea7b360e01b90606401610c56565b6000612710610f3b8361270b61298c565b610f4591906129a3565b610f4f90836124ad565b92915050565b6040516001600160a01b038316602482015260448101829052610f8590849063a9059cbb60e01b90606401610c56565b505050565b60003411610fab5760405163c9935ff960e01b815260040160405180910390fd5b60008361010001518383604051602001610fc7939291906129c5565b604051602081830303815290604052905083608001516000036110575760208401516040516370a0823160e01b81523060048201526001600160a01b03909116906370a0823190602401602060405180830381865afa15801561102e573d6000803e3d6000fd5b505050506040513d601f19601f820116820180604052508101906110529190612494565b61105d565b83608001515b6080850181905260208501516110a0916001600160a01b03909116907f000000000000000000000000000000000000000000000000000000000000000090610e78565b7f00000000000000000000000000000000000000000000000000000000000000006001600160a01b0316639fbf10fc47866000015187604001518860600151308a608001518b60a0015160405180606001604052808e610120015181526020018e60c0015181526020018e60e00151604051602001611132919060609190911b6001600160601b031916815260140190565b6040516020818303038152906040528152508d60e0015160405160200161116c919060609190911b6001600160601b031916815260140190565b6040516020818303038152906040528b6040518b63ffffffff1660e01b81526004016111a099989796959493929190612a05565b6000604051808303818588803b1580156111b957600080fd5b505af11580156111cd573d6000803e3d6000fd5b505050505050505050565b600061122d826040518060400160405280602081526020017f5361666545524332303a206c6f772d6c6576656c2063616c6c206661696c6564815250856001600160a01b03166116c19092919063ffffffff16565b805190915015610f85578080602001905181019061124b9190612aa3565b610f855760405162461bcd60e51b815260206004820152602a60248201527f5361666545524332303a204552433230206f7065726174696f6e20646964206e6044820152691bdd081cdd58d8d9595960b21b6064820152608401610d35565b60606002835110156112fe5760405162461bcd60e51b815260206004820152601e60248201527f556e697377617056324c6962726172793a20494e56414c49445f5041544800006044820152606401610d35565b82516001600160401b0381111561131757611317611caa565b604051908082528060200260200182016040528015611340578160200160208202803683370190505b509050838160008151811061135757611357611e97565b60200260200101818152505060005b6001845161137491906124ad565b81101561142d576000806113c88887858151811061139457611394611e97565b6020026020010151888660016113aa9190612979565b815181106113ba576113ba611e97565b6020026020010151886116d8565b915091506113f08484815181106113e1576113e1611e97565b602002602001015183836117a4565b846113fc856001612979565b8151811061140c5761140c611e97565b6020026020010181815250505050808061142590612088565b915050611366565b50949350505050565b600080600061144586866118c3565b6040516001600160601b0319606084811b8216602084015283901b1660348201529193509150879060480160405160208183030381529060405280519060200120856040516020016114c7939291906001600160f81b0319815260609390931b6001600160601b03191660018401526015830191909152603582015260550190565b60408051601f198184030181529190528051602090910120979650505050505050565b60005b600183516114fb91906124ad565b811015610c8d5760008084838151811061151757611517611e97565b60200260200101518584600161152d9190612979565b8151811061153d5761153d611e97565b602002602001015191509150600061155583836118c3565b509050600087611566866001612979565b8151811061157657611576611e97565b60200260200101519050600080836001600160a01b0316866001600160a01b0316146115a4578260006115a8565b6000835b91509150600060028a516115bc91906124ad565b88106115c857886115f5565b6000546115f5906001600160a01b0316878c6115e58c6002612979565b81518110610d9157610d91611e97565b905061161860008054906101000a90046001600160a01b03168888600154611436565b6001600160a01b031663022c0d9f84848460006040519080825280601f01601f191660200182016040528015611655576020820181803683370190505b506040518563ffffffff1660e01b81526004016116759493929190612ac0565b600060405180830381600087803b15801561168f57600080fd5b505af11580156116a3573d6000803e3d6000fd5b505050505050505050505080806116b990612088565b9150506114ed565b60606116d084846000856119ba565b949350505050565b60008060006116e786866118c3565b5090506000806116f989898989611436565b6001600160a01b0316630902f1ac6040518163ffffffff1660e01b8152600401606060405180830381865afa158015611736573d6000803e3d6000fd5b505050506040513d601f19601f8201168201806040525081019061175a9190612b04565b506001600160701b031691506001600160701b03169150826001600160a01b0316886001600160a01b031614611791578082611794565b81815b909a909950975050505050505050565b60008084116118095760405162461bcd60e51b815260206004820152602b60248201527f556e697377617056324c6962726172793a20494e53554646494349454e545f4960448201526a1394155517d05353d5539560aa1b6064820152608401610d35565b6000831180156118195750600082115b6118765760405162461bcd60e51b815260206004820152602860248201527f556e697377617056324c6962726172793a20494e53554646494349454e545f4c604482015267495155494449545960c01b6064820152608401610d35565b6000611884856103e5611a8a565b905060006118928285611a8a565b905060006118ac836118a6886103e8611a8a565b90611af1565b90506118b881836129a3565b979650505050505050565b600080826001600160a01b0316846001600160a01b0316036119355760405162461bcd60e51b815260206004820152602560248201527f556e697377617056324c6962726172793a204944454e544943414c5f41444452604482015264455353455360d81b6064820152608401610d35565b826001600160a01b0316846001600160a01b031610611955578284611958565b83835b90925090506001600160a01b0382166119b35760405162461bcd60e51b815260206004820152601e60248201527f556e697377617056324c6962726172793a205a45524f5f4144445245535300006044820152606401610d35565b9250929050565b606082471015611a1b5760405162461bcd60e51b815260206004820152602660248201527f416464726573733a20696e73756666696369656e742062616c616e636520666f6044820152651c8818d85b1b60d21b6064820152608401610d35565b600080866001600160a01b03168587604051611a379190612b54565b60006040518083038185875af1925050503d8060008114611a74576040519150601f19603f3d011682016040523d82523d6000602084013e611a79565b606091505b50915091506118b887838387611b46565b6000811580611aae57508282611aa0818361298c565b9250611aac90836129a3565b145b610f4f5760405162461bcd60e51b815260206004820152601460248201527364732d6d6174682d6d756c2d6f766572666c6f7760601b6044820152606401610d35565b600082611afe8382612979565b9150811015610f4f5760405162461bcd60e51b815260206004820152601460248201527364732d6d6174682d6164642d6f766572666c6f7760601b6044820152606401610d35565b60608315611bb5578251600003611bae576001600160a01b0385163b611bae5760405162461bcd60e51b815260206004820152601d60248201527f416464726573733a2063616c6c20746f206e6f6e2d636f6e74726163740000006044820152606401610d35565b50816116d0565b6116d08383815115611bca5781518083602001fd5b8060405162461bcd60e51b8152600401610d359190612b70565b60008083601f840112611bf657600080fd5b5081356001600160401b03811115611c0d57600080fd5b6020830191508360208260051b85010111156119b357600080fd5b60008060008060408587031215611c3e57600080fd5b84356001600160401b0380821115611c5557600080fd5b611c6188838901611be4565b90965094506020870135915080821115611c7a57600080fd5b50611c8787828801611be4565b95989497509550505050565b803561ffff81168114611ca557600080fd5b919050565b634e487b7160e01b600052604160045260246000fd5b604051608081016001600160401b0381118282101715611ce257611ce2611caa565b60405290565b604051606081016001600160401b0381118282101715611ce257611ce2611caa565b60405161016081016001600160401b0381118282101715611ce257611ce2611caa565b604051601f8201601f191681016001600160401b0381118282101715611d5557611d55611caa565b604052919050565b60006001600160401b03821115611d7657611d76611caa565b50601f01601f191660200190565b600082601f830112611d9557600080fd5b8135611da8611da382611d5d565b611d2d565b818152846020838601011115611dbd57600080fd5b816020850160208301376000918101602001919091529392505050565b6001600160a01b0381168114611def57600080fd5b50565b8035611ca581611dda565b60008060008060008060c08789031215611e1657600080fd5b611e1f87611c93565b955060208701356001600160401b0380821115611e3b57600080fd5b611e478a838b01611d84565b96506040890135955060608901359150611e6082611dda565b9093506080880135925060a08801359080821115611e7d57600080fd5b50611e8a89828a01611d84565b9150509295509295509295565b634e487b7160e01b600052603260045260246000fd5b60ff81168114611def57600080fd5b600060208284031215611ece57600080fd5b8135611ed981611ead565b9392505050565b6000808335601e19843603018112611ef757600080fd5b8301803591506001600160401b03821115611f1157600080fd5b6020019150368190038213156119b357600080fd5b60006001600160401b03821115611f3f57611f3f611caa565b5060051b60200190565b600082601f830112611f5a57600080fd5b81356020611f6a611da383611f26565b82815260059290921b84018101918181019086841115611f8957600080fd5b8286015b84811015611fad578035611fa081611dda565b8352918301918301611f8d565b509695505050505050565b60008060408385031215611fcb57600080fd5b82356001600160401b0380821115611fe257600080fd5b611fee86838701611f49565b935060209150818501358181111561200557600080fd5b85019050601f8101861361201857600080fd5b8035612026611da382611f26565b81815260059190911b8201830190838101908883111561204557600080fd5b928401925b828410156120635783358252928401929084019061204a565b80955050505050509250929050565b634e487b7160e01b600052601160045260246000fd5b60006001820161209a5761209a612072565b5060010190565b6000602082840312156120b357600080fd5b5035919050565b8015158114611def57600080fd5b600060208083850312156120db57600080fd5b82356001600160401b03808211156120f257600080fd5b818501915085601f83011261210657600080fd5b8135612114611da382611f26565b81815260059190911b8301840190848101908883111561213357600080fd5b8585015b838110156121c85780358581111561214e57600080fd5b86016080818c03601f190112156121655760008081fd5b61216d611cc0565b8882013581526040808301358a830152606080840135898111156121915760008081fd5b61219f8f8d83880101611f49565b8385015250608084013593506121b4846120ba565b820192909252845250918601918601612137565b5098975050505050505050565b600060208083850312156121e857600080fd5b82356001600160401b03808211156121ff57600080fd5b818501915085601f83011261221357600080fd5b8135612221611da382611f26565b81815260059190911b8301840190848101908883111561224057600080fd5b8585015b838110156121c85780358581111561225b57600080fd5b86016080818c03601f190112156122725760008081fd5b61227a611cc0565b8882013581526040808301358a8301526060808401358981111561229e5760008081fd5b6122ac8f8d83880101611f49565b928401929092526080939093013592820192909252845250918601918601612244565b600060a082018783526020878185015260a0604085015281875180845260c086019150828901935060005b8181101561231f5784516001600160a01b0316835293830193918301916001016122fa565b50506001600160a01b03969096166060850152505050608001529392505050565b6000602080838503121561235357600080fd5b82516001600160401b0381111561236957600080fd5b8301601f8101851361237a57600080fd5b8051612388611da382611f26565b81815260059190911b820183019083810190878311156123a757600080fd5b928401925b828410156118b8578351825292840192908401906123ac565b600060208083850312156123d857600080fd5b82356001600160401b038111156123ee57600080fd5b8301601f810185136123ff57600080fd5b803561240d611da382611f26565b8181526060918202830184019184820191908884111561242c57600080fd5b938501935b838510156124885780858a0312156124495760008081fd5b612451611ce8565b853561245c81611dda565b81528587013561246b81611dda565b818801526040868101359082015283529384019391850191612431565b50979650505050505050565b6000602082840312156124a657600080fd5b5051919050565b81810381811115610f4f57610f4f612072565b600080604083850312156124d357600080fd5b82356124de81611dda565b946020939093013593505050565b600082601f8301126124fd57600080fd5b8135602061250d611da383611f26565b82815260059290921b8401810191818101908684111561252c57600080fd5b8286015b84811015611fad57803561254381611ead565b8352918301918301612530565b600082601f83011261256157600080fd5b81356020612571611da383611f26565b82815260059290921b8401810191818101908684111561259057600080fd5b8286015b84811015611fad5780356001600160401b038111156125b35760008081fd5b6125c18986838b0101611d84565b845250918301918301612594565b60008060008385036101a08112156125e657600080fd5b610160808212156125f657600080fd5b6125fe611d0a565b915061260986611c93565b825261261760208701611df2565b602083015260408601356040830152606086013560608301526080860135608083015260a086013560a083015260c086013560c083015261265a60e08701611df2565b60e083015261010061266d818801611df2565b90830152610120868101359083015261014080870135908301529093508401356001600160401b03808211156126a257600080fd5b6126ae878388016124ec565b93506101808601359150808211156126c557600080fd5b506126d286828701612550565b9150509250925092565b60005b838110156126f75781810151838201526020016126df565b50506000910152565b600082601f83011261271157600080fd5b81516020612721611da383611f26565b82815260059290921b8401810191818101908684111561274057600080fd5b8286015b84811015611fad5780516001600160401b038111156127635760008081fd5b8701603f810189136127755760008081fd5b848101516040612787611da383611d5d565b8281528b8284860101111561279c5760008081fd5b6127ab838983018487016126dc565b8652505050918301918301612744565b6000806000606084860312156127d057600080fd5b83516127db81611dda565b809350506020808501516001600160401b03808211156127fa57600080fd5b818701915087601f83011261280e57600080fd5b815161281c611da382611f26565b81815260059190911b8301840190848101908a83111561283b57600080fd5b938501935b8285101561286257845161285381611ead565b82529385019390850190612840565b60408a0151909750945050508083111561287b57600080fd5b50506126d286828701612700565b600081518084526020808501945080840160005b838110156128bc57815160ff168752958201959082019060010161289d565b509495945050505050565b600081518084526128df8160208601602086016126dc565b601f01601f19169290920160200192915050565b600082825180855260208086019550808260051b84010181860160005b8481101561293e57601f1986840301895261292c8383516128c7565b98840198925090830190600101612910565b5090979650505050505050565b60408152600061295e6040830185612889565b828103602084015261297081856128f3565b95945050505050565b80820180821115610f4f57610f4f612072565b8082028115828204841417610f4f57610f4f612072565b6000826129c057634e487b7160e01b600052601260045260246000fd5b500490565b6001600160a01b03841681526060602082018190526000906129e990830185612889565b82810360408401526129fb81856128f3565b9695505050505050565b600061012061ffff8c1683528a602084015289604084015260018060a01b03891660608401528760808401528660a08401528060c084015285518184015250602085015161014083015260408501516060610160840152612a6a6101808401826128c7565b905082810360e0840152612a7e81866128c7565b9050828103610100840152612a9381856128c7565b9c9b505050505050505050505050565b600060208284031215612ab557600080fd5b8151611ed9816120ba565b84815283602082015260018060a01b03831660408201526080606082015260006129fb60808301846128c7565b80516001600160701b0381168114611ca557600080fd5b600080600060608486031215612b1957600080fd5b612b2284612aed565b9250612b3060208501612aed565b9150604084015163ffffffff81168114612b4957600080fd5b809150509250925092565b60008251612b668184602087016126dc565b9190910192915050565b602081526000611ed960208301846128c756fea264697066735822122058af2caf4549634477c7d86af153e7ae34f4f8c3880fdcb048ff2bb4fda36bf064736f6c63430008110033",
    "linkReferences": {}
  },
  "methodIdentifiers": {
    "factory()": "c45a0155",
    "fantomSwaps(uint8[],bytes[])": "1ab9e02c",
    "feeCollector()": "c415b95c",
    "pairCodeHash()": "9aab9248",
    "sgReceive(uint16,bytes,uint256,address,uint256,bytes)": "ab8236f3",
    "stargateRouter()": "a9e56f3c"
  },
  "id": 17
}