{
  "abi": [
    {
      "inputs": [
        {
          "internalType": "address",
          "name": "_oracle",
          "type": "address"
        }
      ],
      "name": "OracleLTEZero",
      "type": "error"
    },
    {
      "inputs": [
        {
          "internalType": "address",
          "name": "_fraxlendPairAddress",
          "type": "address"
        }
      ],
      "name": "getImmutableAddressBool",
      "outputs": [
        {
          "components": [
            {
              "internalType": "bool",
              "name": "_borrowerWhitelistActive",
              "type": "bool"
            },
            {
              "internalType": "bool",
              "name": "_lenderWhitelistActive",
              "type": "bool"
            },
            {
              "internalType": "address",
              "name": "_assetContract",
              "type": "address"
            },
            {
              "internalType": "address",
              "name": "_collateralContract",
              "type": "address"
            },
            {
              "internalType": "address",
              "name": "_oracleMultiply",
              "type": "address"
            },
            {
              "internalType": "address",
              "name": "_oracleDivide",
              "type": "address"
            },
            {
              "internalType": "address",
              "name": "_rateContract",
              "type": "address"
            },
            {
              "internalType": "address",
              "name": "_DEPLOYER_CONTRACT",
              "type": "address"
            },
            {
              "internalType": "address",
              "name": "_COMPTROLLER_ADDRESS",
              "type": "address"
            },
            {
              "internalType": "address",
              "name": "_FRAXLEND_WHITELIST",
              "type": "address"
            }
          ],
          "internalType": "struct FraxlendPairHelper.ImmutablesAddressBool",
          "name": "",
          "type": "tuple"
        }
      ],
      "stateMutability": "view",
      "type": "function"
    },
    {
      "inputs": [
        {
          "internalType": "address",
          "name": "_fraxlendPairAddress",
          "type": "address"
        }
      ],
      "name": "getImmutableUint256",
      "outputs": [
        {
          "components": [
            {
              "internalType": "uint256",
              "name": "_oracleNormalization",
              "type": "uint256"
            },
            {
              "internalType": "uint256",
              "name": "_maxLTV",
              "type": "uint256"
            },
            {
              "internalType": "uint256",
              "name": "_liquidationFee",
              "type": "uint256"
            },
            {
              "internalType": "uint256",
              "name": "_maturityDate",
              "type": "uint256"
            },
            {
              "internalType": "uint256",
              "name": "_penaltyRate",
              "type": "uint256"
            }
          ],
          "internalType": "struct FraxlendPairHelper.ImmutablesUint256",
          "name": "",
          "type": "tuple"
        }
      ],
      "stateMutability": "view",
      "type": "function"
    },
    {
      "inputs": [
        {
          "internalType": "address",
          "name": "_fraxlendPairAddress",
          "type": "address"
        }
      ],
      "name": "getPairAccounting",
      "outputs": [
        {
          "internalType": "uint128",
          "name": "_totalAssetAmount",
          "type": "uint128"
        },
        {
          "internalType": "uint128",
          "name": "_totalAssetShares",
          "type": "uint128"
        },
        {
          "internalType": "uint128",
          "name": "_totalBorrowAmount",
          "type": "uint128"
        },
        {
          "internalType": "uint128",
          "name": "_totalBorrowShares",
          "type": "uint128"
        },
        {
          "internalType": "uint256",
          "name": "_totalCollateral",
          "type": "uint256"
        }
      ],
      "stateMutability": "view",
      "type": "function"
    },
    {
      "inputs": [
        {
          "internalType": "address",
          "name": "_fraxlendPairAddress",
          "type": "address"
        },
        {
          "internalType": "address",
          "name": "_address",
          "type": "address"
        }
      ],
      "name": "getUserSnapshot",
      "outputs": [
        {
          "internalType": "uint256",
          "name": "_userAssetShares",
          "type": "uint256"
        },
        {
          "internalType": "uint256",
          "name": "_userBorrowShares",
          "type": "uint256"
        },
        {
          "internalType": "uint256",
          "name": "_userCollateralBalance",
          "type": "uint256"
        }
      ],
      "stateMutability": "view",
      "type": "function"
    },
    {
      "inputs": [
        {
          "internalType": "address",
          "name": "_fraxlendPairAddress",
          "type": "address"
        },
        {
          "internalType": "uint128",
          "name": "_sharesToLiquidate",
          "type": "uint128"
        },
        {
          "internalType": "address",
          "name": "_borrower",
          "type": "address"
        }
      ],
      "name": "previewLiquidatePure",
      "outputs": [
        {
          "internalType": "uint128",
          "name": "_amountLiquidatorToRepay",
          "type": "uint128"
        },
        {
          "internalType": "uint256",
          "name": "_collateralForLiquidator",
          "type": "uint256"
        },
        {
          "internalType": "uint128",
          "name": "_sharesToSocialize",
          "type": "uint128"
        },
        {
          "internalType": "uint128",
          "name": "_amountToSocialize",
          "type": "uint128"
        }
      ],
      "stateMutability": "view",
      "type": "function"
    },
    {
      "inputs": [
        {
          "internalType": "address",
          "name": "_fraxlendPairAddress",
          "type": "address"
        },
        {
          "internalType": "uint256",
          "name": "_timestamp",
          "type": "uint256"
        },
        {
          "internalType": "uint256",
          "name": "_blockNumber",
          "type": "uint256"
        }
      ],
      "name": "previewRateInterest",
      "outputs": [
        {
          "internalType": "uint256",
          "name": "_interestEarned",
          "type": "uint256"
        },
        {
          "internalType": "uint256",
          "name": "_newRate",
          "type": "uint256"
        }
      ],
      "stateMutability": "view",
      "type": "function"
    },
    {
      "inputs": [
        {
          "internalType": "address",
          "name": "_fraxlendPairAddress",
          "type": "address"
        },
        {
          "internalType": "uint256",
          "name": "_timestamp",
          "type": "uint256"
        },
        {
          "internalType": "uint256",
          "name": "_blockNumber",
          "type": "uint256"
        }
      ],
      "name": "previewRateInterestFees",
      "outputs": [
        {
          "internalType": "uint256",
          "name": "_interestEarned",
          "type": "uint256"
        },
        {
          "internalType": "uint256",
          "name": "_feesAmount",
          "type": "uint256"
        },
        {
          "internalType": "uint256",
          "name": "_feesShare",
          "type": "uint256"
        },
        {
          "internalType": "uint256",
          "name": "_newRate",
          "type": "uint256"
        }
      ],
      "stateMutability": "view",
      "type": "function"
    },
    {
      "inputs": [
        {
          "internalType": "address",
          "name": "_fraxlendPairAddress",
          "type": "address"
        }
      ],
      "name": "previewUpdateExchangeRate",
      "outputs": [
        {
          "internalType": "uint256",
          "name": "_exchangeRate",
          "type": "uint256"
        }
      ],
      "stateMutability": "view",
      "type": "function"
    }
  ],
  "bytecode": {
    "object": "0x608060405234801561001057600080fd5b506122c5806100206000396000f3fe608060405234801561001057600080fd5b50600436106100885760003560e01c806366109c751161005b57806366109c7514610157578063b39d341714610177578063ce6f202a146101cc578063eba095b61461021257600080fd5b806317dee7d91461008d5780632d2d55eb146100b35780632fadb592146100e157806357b14a6a1461012f575b600080fd5b6100a061009b366004611cd0565b610245565b6040519081526020015b60405180910390f35b6100c66100c1366004611ced565b61050c565b604080519384526020840192909252908201526060016100aa565b6100f46100ef366004611cd0565b610665565b604080516001600160801b0396871681529486166020860152928516928401929092529092166060820152608081019190915260a0016100aa565b61014261013d366004611d26565b6107b1565b604080519283526020830191909152016100aa565b61016a610165366004611cd0565b610e31565b6040516100aa9190611d5b565b61018a610185366004611cd0565b6112e8565b6040516100aa9190600060a082019050825182526020830151602083015260408301516040830152606083015160608301526080830151608083015292915050565b6101df6101da366004611e5d565b611531565b604080516001600160801b03958616815260208101949094529184169183019190915290911660608201526080016100aa565b610225610220366004611d26565b611938565b6040805194855260208501939093529183015260608201526080016100aa565b6000808290506000816001600160a01b0316639bdff2e66040518163ffffffff1660e01b8152600401602060405180830381865afa15801561028b573d6000803e3d6000fd5b505050506040513d601f19601f820116820180604052508101906102af9190611ea8565b90506000826001600160a01b03166253f7336040518163ffffffff1660e01b8152600401602060405180830381865afa1580156102f0573d6000803e3d6000fd5b505050506040513d601f19601f820116820180604052508101906103149190611ea8565b90506000836001600160a01b031663c10c92a16040518163ffffffff1660e01b8152600401602060405180830381865afa158015610356573d6000803e3d6000fd5b505050506040513d601f19601f8201168201806040525081019061037a9190611ec5565b90506ec097ce7bc90715b34b9f10000000006001600160a01b03841615610444576000846001600160a01b031663feaf968c6040518163ffffffff1660e01b815260040160a060405180830381865afa1580156103db573d6000803e3d6000fd5b505050506040513d601f19601f820116820180604052508101906103ff9190611efd565b50505091505060008113610436576040516322ad99db60e21b81526001600160a01b03861660048201526024015b60405180910390fd5b6104408183611f63565b9150505b6001600160a01b038316156104f7576000836001600160a01b031663feaf968c6040518163ffffffff1660e01b815260040160a060405180830381865afa158015610493573d6000803e3d6000fd5b505050506040513d601f19601f820116820180604052508101906104b79190611efd565b505050915050600081136104e9576040516322ad99db60e21b81526001600160a01b038516600482015260240161042d565b6104f38183611f7a565b9150505b6105018282611f7a565b979650505050505050565b6040516370a0823160e01b81526001600160a01b0382811660048301526000918291829186918216906370a0823190602401602060405180830381865afa15801561055b573d6000803e3d6000fd5b505050506040513d601f19601f8201168201806040525081019061057f9190611ec5565b604051634fd422df60e01b81526001600160a01b03878116600483015291955090821690634fd422df90602401602060405180830381865afa1580156105c9573d6000803e3d6000fd5b505050506040513d601f19601f820116820180604052508101906105ed9190611ec5565b604051635ad7983160e11b81526001600160a01b0387811660048301529194509082169063b5af306290602401602060405180830381865afa158015610637573d6000803e3d6000fd5b505050506040513d601f19601f8201168201806040525081019061065b9190611ec5565b9150509250925092565b600080600080600080869050806001600160a01b031663f9557ccb6040518163ffffffff1660e01b81526004016040805180830381865afa1580156106ae573d6000803e3d6000fd5b505050506040513d601f19601f820116820180604052508101906106d29190611f9c565b8096508197505050806001600160a01b0316638285ef406040518163ffffffff1660e01b81526004016040805180830381865afa158015610717573d6000803e3d6000fd5b505050506040513d601f19601f8201168201806040525081019061073b9190611f9c565b8094508195505050806001600160a01b0316634ac8eb5f6040518163ffffffff1660e01b8152600401602060405180830381865afa158015610781573d6000803e3d6000fd5b505050506040513d601f19601f820116820180604052508101906107a59190611ec5565b91505091939590929450565b6000806000859050600080826001600160a01b0316639a295e736040518163ffffffff1660e01b815260040161010060405180830381865afa1580156107fb573d6000803e3d6000fd5b505050506040513d601f19601f8201168201806040525081019061081f9190611fe3565b5050604080516080810182526000808252602082018190529181018290526060810191909152939750955091935061085692505050565b600080600080876001600160a01b03166395d14ca86040518163ffffffff1660e01b8152600401608060405180830381865afa15801561089a573d6000803e3d6000fd5b505050506040513d601f19601f820116820180604052508101906108be919061205b565b6040805160808101825267ffffffffffffffff9586168152938516602085015291841691830191909152909116606082015294506109009350611ca192505050565b6040805180820190915260008082526020820152600080876001600160a01b031663f9557ccb6040518163ffffffff1660e01b81526004016040805180830381865afa158015610954573d6000803e3d6000fd5b505050506040513d601f19601f820116820180604052508101906109789190611f9c565b915091506040518060400160405280836001600160801b03168152602001826001600160801b03168152509350600080896001600160a01b0316638285ef406040518163ffffffff1660e01b81526004016040805180830381865afa1580156109e5573d6000803e3d6000fd5b505050506040513d601f19601f82011682018060405250810190610a099190611f9c565b604080518082019091526001600160801b039283168152911660208201819052909550159350839250610a9c9150505750856001600160a01b0316635c975abb6040518163ffffffff1660e01b8152600401602060405180830381865afa158015610a78573d6000803e3d6000fd5b505050506040513d601f19601f82011682018060405250810190610a9c91906120af565b15610b1d57856001600160a01b0316635c975abb6040518163ffffffff1660e01b8152600401602060405180830381865afa158015610adf573d6000803e3d6000fd5b505050506040513d601f19601f82011682018060405250810190610b0391906120af565b610b185767ffffffffffffffff841660608401525b610e23565b610b88866001600160a01b031663d59624b46040518163ffffffff1660e01b8152600401602060405180830381865afa158015610b5e573d6000803e3d6000fd5b505050506040513d601f19601f82011682018060405250810190610b829190611ec5565b8b611b13565b15610c0057856001600160a01b031663d6b7494f6040518163ffffffff1660e01b8152600401602060405180830381865afa158015610bcb573d6000803e3d6000fd5b505050506040513d601f19601f82011682018060405250810190610bef9190611ec5565b67ffffffffffffffff169650610dd3565b856001600160a01b031663eee242196040518163ffffffff1660e01b8152600401602060405180830381865afa158015610c3e573d6000803e3d6000fd5b505050506040513d601f19601f82011682018060405250810190610c629190611ea8565b6001600160a01b0316631b54c1a38460600151856040015167ffffffffffffffff168d610c8f91906120d1565b855185516001600160801b0391821691610cab918c9116611f63565b610cb59190611f7a565b8751610ccb9067ffffffffffffffff168f6120d1565b6040805167ffffffffffffffff90951660208601528401929092526060830152608082015260a001604051602081830303815290604052886001600160a01b031663c7be97866040518163ffffffff1660e01b8152600401600060405180830381865afa158015610d40573d6000803e3d6000fd5b505050506040513d6000823e601f3d908101601f19168201604052610d68919081019061211e565b6040518363ffffffff1660e01b8152600401610d859291906121ec565b602060405180830381865afa158015610da2573d6000803e3d6000fd5b505050506040513d601f19601f82011682018060405250810190610dc6919061221a565b67ffffffffffffffff1696505b670de0b6b3a7640000836040015167ffffffffffffffff168b610df691906120d1565b8251610e0c908a906001600160801b0316611f63565b610e169190611f63565b610e209190611f7a565b97505b505050505050935093915050565b6040805161014081018252600080825260208201819052918101829052606081018290526080810182905260a0810182905260c0810182905260e0810182905261010081018290526101208101919091526000829050604051806101400160405280826001600160a01b0316632165d72f6040518163ffffffff1660e01b8152600401602060405180830381865afa158015610ed1573d6000803e3d6000fd5b505050506040513d601f19601f82011682018060405250810190610ef591906120af565b15158152602001826001600160a01b0316634962e4946040518163ffffffff1660e01b8152600401602060405180830381865afa158015610f3a573d6000803e3d6000fd5b505050506040513d601f19601f82011682018060405250810190610f5e91906120af565b15158152602001826001600160a01b03166338d52e0f6040518163ffffffff1660e01b8152600401602060405180830381865afa158015610fa3573d6000803e3d6000fd5b505050506040513d601f19601f82011682018060405250810190610fc79190611ea8565b6001600160a01b03168152602001826001600160a01b031663c6e1c7c96040518163ffffffff1660e01b8152600401602060405180830381865afa158015611013573d6000803e3d6000fd5b505050506040513d601f19601f820116820180604052508101906110379190611ea8565b6001600160a01b03168152602001826001600160a01b0316639bdff2e66040518163ffffffff1660e01b8152600401602060405180830381865afa158015611083573d6000803e3d6000fd5b505050506040513d601f19601f820116820180604052508101906110a79190611ea8565b6001600160a01b03168152602001826001600160a01b03166253f7336040518163ffffffff1660e01b8152600401602060405180830381865afa1580156110f2573d6000803e3d6000fd5b505050506040513d601f19601f820116820180604052508101906111169190611ea8565b6001600160a01b03168152602001826001600160a01b031663eee242196040518163ffffffff1660e01b8152600401602060405180830381865afa158015611162573d6000803e3d6000fd5b505050506040513d601f19601f820116820180604052508101906111869190611ea8565b6001600160a01b03168152602001826001600160a01b031663d2a156e06040518163ffffffff1660e01b8152600401602060405180830381865afa1580156111d2573d6000803e3d6000fd5b505050506040513d601f19601f820116820180604052508101906111f69190611ea8565b6001600160a01b03168152602001826001600160a01b031663fbaa8b856040518163ffffffff1660e01b8152600401602060405180830381865afa158015611242573d6000803e3d6000fd5b505050506040513d601f19601f820116820180604052508101906112669190611ea8565b6001600160a01b03168152602001826001600160a01b031663ef14900d6040518163ffffffff1660e01b8152600401602060405180830381865afa1580156112b2573d6000803e3d6000fd5b505050506040513d601f19601f820116820180604052508101906112d69190611ea8565b6001600160a01b031690529392505050565b61131a6040518060a0016040528060008152602001600081526020016000815260200160008152602001600081525090565b60008290506040518060a00160405280826001600160a01b031663c10c92a16040518163ffffffff1660e01b8152600401602060405180830381865afa158015611368573d6000803e3d6000fd5b505050506040513d601f19601f8201168201806040525081019061138c9190611ec5565b8152602001826001600160a01b031663f384bd056040518163ffffffff1660e01b8152600401602060405180830381865afa1580156113cf573d6000803e3d6000fd5b505050506040513d601f19601f820116820180604052508101906113f39190611ec5565b8152602001826001600160a01b03166311a2e4bc6040518163ffffffff1660e01b8152600401602060405180830381865afa158015611436573d6000803e3d6000fd5b505050506040513d601f19601f8201168201806040525081019061145a9190611ec5565b8152602001826001600160a01b031663d59624b46040518163ffffffff1660e01b8152600401602060405180830381865afa15801561149d573d6000803e3d6000fd5b505050506040513d601f19601f820116820180604052508101906114c19190611ec5565b8152602001826001600160a01b031663d6b7494f6040518163ffffffff1660e01b8152600401602060405180830381865afa158015611504573d6000803e3d6000fd5b505050506040513d601f19601f820116820180604052508101906115289190611ec5565b90529392505050565b600080808086611551604080518082019091526000808252602082015290565b600080836001600160a01b0316638285ef406040518163ffffffff1660e01b81526004016040805180830381865afa158015611591573d6000803e3d6000fd5b505050506040513d601f19601f820116820180604052508101906115b59190611f9c565b604080518082019091526001600160801b03928316815291166020820152925060009150819050806115e68c610245565b604051634fd422df60e01b81526001600160a01b038c8116600483015291925061165c91871690634fd422df90602401602060405180830381865afa158015611633573d6000803e3d6000fd5b505050506040513d601f19601f820116820180604052508101906116579190611ec5565b611b2c565b9150600080866001600160a01b0316639a295e736040518163ffffffff1660e01b815260040161010060405180830381865afa1580156116a0573d6000803e3d6000fd5b505050506040513d601f19601f820116820180604052508101906116c49190611fe3565b505050945050509250506000876001600160a01b031663b5af30628e6040518263ffffffff1660e01b815260040161170b91906001600160a01b0391909116815260200190565b602060405180830381865afa158015611728573d6000803e3d6000fd5b505050506040513d601f19601f8201168201806040525081019061174c9190611ec5565b9050600082856117668a6001600160801b038a1685611b99565b6117709190611f63565b61177a9190611f7a565b90506000848a6001600160a01b03166311a2e4bc6040518163ffffffff1660e01b8152600401602060405180830381865afa1580156117bd573d6000803e3d6000fd5b505050506040513d601f19601f820116820180604052508101906117e19190611ec5565b6117eb9087612235565b6117f59084611f63565b6117ff9190611f7a565b905061180a81611c37565b61181384611c37565b61181d9190612248565b975060008813156118ae57848a6001600160a01b0316634732428c6040518163ffffffff1660e01b8152600401602060405180830381865afa158015611867573d6000803e3d6000fd5b505050506040513d601f19601f8201168201806040525081019061188b9190611ec5565b6118959087612235565b61189f9084611f63565b6118a99190611f7a565b6118b0565b825b9c505050505050506118da6116578b6001600160801b0316600186611b999092919063ffffffff16565b9750600082131580156118ff575060006118f48b8361226f565b6001600160801b0316115b1561192b5761190e8a8261226f565b9550611928611657846001600160801b0389166000611b99565b94505b5050505093509350935093565b6000806000806119498787876107b1565b809250819550505060008790506000816001600160a01b03166395d14ca86040518163ffffffff1660e01b8152600401608060405180830381865afa158015611996573d6000803e3d6000fd5b505050506040513d601f19601f820116820180604052508101906119ba919061205b565b50509150506000826001600160a01b0316639a295e736040518163ffffffff1660e01b815260040161010060405180830381865afa158015611a00573d6000803e3d6000fd5b505050506040513d601f19601f82011682018060405250810190611a249190611fe3565b505050509350505050600080846001600160a01b031663f9557ccb6040518163ffffffff1660e01b81526004016040805180830381865afa158015611a6d573d6000803e3d6000fd5b505050506040513d601f19601f82011682018060405250810190611a919190611f9c565b909250905067ffffffffffffffff841615611b055782611abb67ffffffffffffffff86168b611f63565b611ac59190611f7a565b975087611adb8a6001600160801b038516612235565b611ae591906120d1565b611af86001600160801b0383168a611f63565b611b029190611f7a565b96505b505050505093509350935093565b60008215801590611b2357508282115b90505b92915050565b60006001600160801b03821115611b955760405162461bcd60e51b815260206004820152602760248201527f53616665436173743a2076616c756520646f65736e27742066697420696e20316044820152663238206269747360c81b606482015260840161042d565b5090565b600083602001516001600160801b0316600003611bb7575081611c30565b602084015184516001600160801b0391821691611bd5911685611f63565b611bdf9190611f7a565b9050818015611c1d57508284600001516001600160801b031685602001516001600160801b031683611c119190611f63565b611c1b9190611f7a565b105b15611c3057611c2d816001612235565b90505b9392505050565b60006001600160ff1b03821115611b955760405162461bcd60e51b815260206004820152602860248201527f53616665436173743a2076616c756520646f65736e27742066697420696e2061604482015267371034b73a191a9b60c11b606482015260840161042d565b604080518082019091526000808252602082015290565b6001600160a01b0381168114611ccd57600080fd5b50565b600060208284031215611ce257600080fd5b8135611c3081611cb8565b60008060408385031215611d0057600080fd5b8235611d0b81611cb8565b91506020830135611d1b81611cb8565b809150509250929050565b600080600060608486031215611d3b57600080fd5b8335611d4681611cb8565b95602085013595506040909401359392505050565b81511515815261014081016020830151611d79602084018215159052565b506040830151611d9460408401826001600160a01b03169052565b506060830151611daf60608401826001600160a01b03169052565b506080830151611dca60808401826001600160a01b03169052565b5060a0830151611de560a08401826001600160a01b03169052565b5060c0830151611e0060c08401826001600160a01b03169052565b5060e0830151611e1b60e08401826001600160a01b03169052565b50610100838101516001600160a01b03908116918401919091526101209384015116929091019190915290565b6001600160801b0381168114611ccd57600080fd5b600080600060608486031215611e7257600080fd5b8335611e7d81611cb8565b92506020840135611e8d81611e48565b91506040840135611e9d81611cb8565b809150509250925092565b600060208284031215611eba57600080fd5b8151611c3081611cb8565b600060208284031215611ed757600080fd5b5051919050565b805169ffffffffffffffffffff81168114611ef857600080fd5b919050565b600080600080600060a08688031215611f1557600080fd5b611f1e86611ede565b9450602086015193506040860151925060608601519150611f4160808701611ede565b90509295509295909350565b634e487b7160e01b600052601160045260246000fd5b8082028115828204841417611b2657611b26611f4d565b600082611f9757634e487b7160e01b600052601260045260246000fd5b500490565b60008060408385031215611faf57600080fd5b8251611fba81611e48565b6020840151909250611d1b81611e48565b805167ffffffffffffffff81168114611ef857600080fd5b600080600080600080600080610100898b03121561200057600080fd5b885197506020890151965060408901519550606089015194506080890151935061202c60a08a01611fcb565b925060c089015161ffff8116811461204357600080fd5b8092505060e089015190509295985092959890939650565b6000806000806080858703121561207157600080fd5b61207a85611fcb565b935061208860208601611fcb565b925061209660408601611fcb565b91506120a460608601611fcb565b905092959194509250565b6000602082840312156120c157600080fd5b81518015158114611c3057600080fd5b81810381811115611b2657611b26611f4d565b634e487b7160e01b600052604160045260246000fd5b60005b838110156121155781810151838201526020016120fd565b50506000910152565b60006020828403121561213057600080fd5b815167ffffffffffffffff8082111561214857600080fd5b818401915084601f83011261215c57600080fd5b81518181111561216e5761216e6120e4565b604051601f8201601f19908116603f01168101908382118183101715612196576121966120e4565b816040528281528760208487010111156121af57600080fd5b6105018360208301602088016120fa565b600081518084526121d88160208601602086016120fa565b601f01601f19169290920160200192915050565b6040815260006121ff60408301856121c0565b828103602084015261221181856121c0565b95945050505050565b60006020828403121561222c57600080fd5b611b2382611fcb565b80820180821115611b2657611b26611f4d565b818103600083128015838313168383128216171561226857612268611f4d565b5092915050565b6001600160801b0382811682821603908082111561226857612268611f4d56fea264697066735822122054dc7ed30f8480e678c0e59419fbeaf298efdf32648c29c25ec92b40d441e86b64736f6c63430008110033",
    "linkReferences": {}
  },
  "methodIdentifiers": {
    "getImmutableAddressBool(address)": "66109c75",
    "getImmutableUint256(address)": "b39d3417",
    "getPairAccounting(address)": "2fadb592",
    "getUserSnapshot(address,address)": "2d2d55eb",
    "previewLiquidatePure(address,uint128,address)": "ce6f202a",
    "previewRateInterest(address,uint256,uint256)": "57b14a6a",
    "previewRateInterestFees(address,uint256,uint256)": "eba095b6",
    "previewUpdateExchangeRate(address)": "17dee7d9"
  },
  "id": 23
}