{
  "abi": [
    {
      "inputs": [
        {
          "internalType": "bytes",
          "name": "_configData",
          "type": "bytes"
        },
        {
          "internalType": "bytes",
          "name": "_immutables",
          "type": "bytes"
        },
        {
          "internalType": "uint256",
          "name": "_maxLTV",
          "type": "uint256"
        },
        {
          "internalType": "uint256",
          "name": "_liquidationFee",
          "type": "uint256"
        },
        {
          "internalType": "uint256",
          "name": "_maturityDate",
          "type": "uint256"
        },
        {
          "internalType": "uint256",
          "name": "_penaltyRate",
          "type": "uint256"
        },
        {
          "internalType": "bool",
          "name": "_isBorrowerWhitelistActive",
          "type": "bool"
        },
        {
          "internalType": "bool",
          "name": "_isLenderWhitelistActive",
          "type": "bool"
        }
      ],
      "stateMutability": "nonpayable",
      "type": "constructor"
    },
    {
      "inputs": [],
      "name": "AlreadyInitialized",
      "type": "error"
    },
    {
      "inputs": [],
      "name": "BadProtocolFee",
      "type": "error"
    },
    {
      "inputs": [],
      "name": "BadSwapper",
      "type": "error"
    },
    {
      "inputs": [],
      "name": "BorrowerSolvent",
      "type": "error"
    },
    {
      "inputs": [],
      "name": "BorrowerWhitelistRequired",
      "type": "error"
    },
    {
      "inputs": [
        {
          "internalType": "uint256",
          "name": "_borrow",
          "type": "uint256"
        },
        {
          "internalType": "uint256",
          "name": "_collateral",
          "type": "uint256"
        },
        {
          "internalType": "uint256",
          "name": "_exchangeRate",
          "type": "uint256"
        }
      ],
      "name": "Insolvent",
      "type": "error"
    },
    {
      "inputs": [
        {
          "internalType": "uint256",
          "name": "_assets",
          "type": "uint256"
        },
        {
          "internalType": "uint256",
          "name": "_request",
          "type": "uint256"
        }
      ],
      "name": "InsufficientAssetsInContract",
      "type": "error"
    },
    {
      "inputs": [
        {
          "internalType": "address",
          "name": "_expected",
          "type": "address"
        },
        {
          "internalType": "address",
          "name": "_actual",
          "type": "address"
        }
      ],
      "name": "InvalidPath",
      "type": "error"
    },
    {
      "inputs": [],
      "name": "NameEmpty",
      "type": "error"
    },
    {
      "inputs": [],
      "name": "NotDeployer",
      "type": "error"
    },
    {
      "inputs": [
        {
          "internalType": "address",
          "name": "_address",
          "type": "address"
        }
      ],
      "name": "NotOnWhitelist",
      "type": "error"
    },
    {
      "inputs": [],
      "name": "OnlyApprovedBorrowers",
      "type": "error"
    },
    {
      "inputs": [],
      "name": "OnlyApprovedLenders",
      "type": "error"
    },
    {
      "inputs": [],
      "name": "OnlyTimeLock",
      "type": "error"
    },
    {
      "inputs": [
        {
          "internalType": "address",
          "name": "_oracle",
          "type": "address"
        }
      ],
      "name": "OracleLTEZero",
      "type": "error"
    },
    {
      "inputs": [
        {
          "internalType": "uint256",
          "name": "_blockTimestamp",
          "type": "uint256"
        },
        {
          "internalType": "uint256",
          "name": "_deadline",
          "type": "uint256"
        }
      ],
      "name": "PastDeadline",
      "type": "error"
    },
    {
      "inputs": [],
      "name": "PastMaturity",
      "type": "error"
    },
    {
      "inputs": [],
      "name": "PriceTooLarge",
      "type": "error"
    },
    {
      "inputs": [],
      "name": "ProtocolOrOwnerOnly",
      "type": "error"
    },
    {
      "inputs": [
        {
          "internalType": "uint256",
          "name": "_minOut",
          "type": "uint256"
        },
        {
          "internalType": "uint256",
          "name": "_actual",
          "type": "uint256"
        }
      ],
      "name": "SlippageTooHigh",
      "type": "error"
    },
    {
      "anonymous": false,
      "inputs": [
        {
          "indexed": true,
          "internalType": "address",
          "name": "_sender",
          "type": "address"
        },
        {
          "indexed": true,
          "internalType": "address",
          "name": "_borrower",
          "type": "address"
        },
        {
          "indexed": false,
          "internalType": "uint256",
          "name": "_collateralAmount",
          "type": "uint256"
        }
      ],
      "name": "AddCollateral",
      "type": "event"
    },
    {
      "anonymous": false,
      "inputs": [
        {
          "indexed": false,
          "internalType": "uint256",
          "name": "_interestEarned",
          "type": "uint256"
        },
        {
          "indexed": false,
          "internalType": "uint256",
          "name": "_rate",
          "type": "uint256"
        },
        {
          "indexed": false,
          "internalType": "uint256",
          "name": "_deltaTime",
          "type": "uint256"
        },
        {
          "indexed": false,
          "internalType": "uint256",
          "name": "_feesAmount",
          "type": "uint256"
        },
        {
          "indexed": false,
          "internalType": "uint256",
          "name": "_feesShare",
          "type": "uint256"
        }
      ],
      "name": "AddInterest",
      "type": "event"
    },
    {
      "anonymous": false,
      "inputs": [
        {
          "indexed": true,
          "internalType": "address",
          "name": "owner",
          "type": "address"
        },
        {
          "indexed": true,
          "internalType": "address",
          "name": "spender",
          "type": "address"
        },
        {
          "indexed": false,
          "internalType": "uint256",
          "name": "value",
          "type": "uint256"
        }
      ],
      "name": "Approval",
      "type": "event"
    },
    {
      "anonymous": false,
      "inputs": [
        {
          "indexed": true,
          "internalType": "address",
          "name": "_borrower",
          "type": "address"
        },
        {
          "indexed": true,
          "internalType": "address",
          "name": "_receiver",
          "type": "address"
        },
        {
          "indexed": false,
          "internalType": "uint256",
          "name": "_borrowAmount",
          "type": "uint256"
        },
        {
          "indexed": false,
          "internalType": "uint256",
          "name": "_sharesAdded",
          "type": "uint256"
        }
      ],
      "name": "BorrowAsset",
      "type": "event"
    },
    {
      "anonymous": false,
      "inputs": [
        {
          "indexed": false,
          "internalType": "uint32",
          "name": "_newFee",
          "type": "uint32"
        }
      ],
      "name": "ChangeFee",
      "type": "event"
    },
    {
      "anonymous": false,
      "inputs": [
        {
          "indexed": true,
          "internalType": "address",
          "name": "caller",
          "type": "address"
        },
        {
          "indexed": true,
          "internalType": "address",
          "name": "owner",
          "type": "address"
        },
        {
          "indexed": false,
          "internalType": "uint256",
          "name": "assets",
          "type": "uint256"
        },
        {
          "indexed": false,
          "internalType": "uint256",
          "name": "shares",
          "type": "uint256"
        }
      ],
      "name": "Deposit",
      "type": "event"
    },
    {
      "anonymous": false,
      "inputs": [
        {
          "indexed": true,
          "internalType": "address",
          "name": "_borrower",
          "type": "address"
        },
        {
          "indexed": false,
          "internalType": "address",
          "name": "_swapperAddress",
          "type": "address"
        },
        {
          "indexed": false,
          "internalType": "uint256",
          "name": "_borrowAmount",
          "type": "uint256"
        },
        {
          "indexed": false,
          "internalType": "uint256",
          "name": "_borrowShares",
          "type": "uint256"
        },
        {
          "indexed": false,
          "internalType": "uint256",
          "name": "_initialCollateralAmount",
          "type": "uint256"
        },
        {
          "indexed": false,
          "internalType": "uint256",
          "name": "_amountCollateralOut",
          "type": "uint256"
        }
      ],
      "name": "LeveragedPosition",
      "type": "event"
    },
    {
      "anonymous": false,
      "inputs": [
        {
          "indexed": true,
          "internalType": "address",
          "name": "_borrower",
          "type": "address"
        },
        {
          "indexed": false,
          "internalType": "uint256",
          "name": "_collateralForLiquidator",
          "type": "uint256"
        },
        {
          "indexed": false,
          "internalType": "uint256",
          "name": "_sharesToLiquidate",
          "type": "uint256"
        },
        {
          "indexed": false,
          "internalType": "uint256",
          "name": "_amountLiquidatorToRepay",
          "type": "uint256"
        },
        {
          "indexed": false,
          "internalType": "uint256",
          "name": "_sharesToAdjust",
          "type": "uint256"
        },
        {
          "indexed": false,
          "internalType": "uint256",
          "name": "_amountToAdjust",
          "type": "uint256"
        }
      ],
      "name": "Liquidate",
      "type": "event"
    },
    {
      "anonymous": false,
      "inputs": [
        {
          "indexed": true,
          "internalType": "address",
          "name": "previousOwner",
          "type": "address"
        },
        {
          "indexed": true,
          "internalType": "address",
          "name": "newOwner",
          "type": "address"
        }
      ],
      "name": "OwnershipTransferred",
      "type": "event"
    },
    {
      "anonymous": false,
      "inputs": [
        {
          "indexed": false,
          "internalType": "address",
          "name": "account",
          "type": "address"
        }
      ],
      "name": "Paused",
      "type": "event"
    },
    {
      "anonymous": false,
      "inputs": [
        {
          "indexed": true,
          "internalType": "address",
          "name": "_sender",
          "type": "address"
        },
        {
          "indexed": false,
          "internalType": "uint256",
          "name": "_collateralAmount",
          "type": "uint256"
        },
        {
          "indexed": true,
          "internalType": "address",
          "name": "_receiver",
          "type": "address"
        },
        {
          "indexed": true,
          "internalType": "address",
          "name": "_borrower",
          "type": "address"
        }
      ],
      "name": "RemoveCollateral",
      "type": "event"
    },
    {
      "anonymous": false,
      "inputs": [
        {
          "indexed": true,
          "internalType": "address",
          "name": "_payer",
          "type": "address"
        },
        {
          "indexed": true,
          "internalType": "address",
          "name": "_borrower",
          "type": "address"
        },
        {
          "indexed": false,
          "internalType": "uint256",
          "name": "_amountToRepay",
          "type": "uint256"
        },
        {
          "indexed": false,
          "internalType": "uint256",
          "name": "_shares",
          "type": "uint256"
        }
      ],
      "name": "RepayAsset",
      "type": "event"
    },
    {
      "anonymous": false,
      "inputs": [
        {
          "indexed": true,
          "internalType": "address",
          "name": "_borrower",
          "type": "address"
        },
        {
          "indexed": false,
          "internalType": "address",
          "name": "_swapperAddress",
          "type": "address"
        },
        {
          "indexed": false,
          "internalType": "uint256",
          "name": "_collateralToSwap",
          "type": "uint256"
        },
        {
          "indexed": false,
          "internalType": "uint256",
          "name": "_amountAssetOut",
          "type": "uint256"
        },
        {
          "indexed": false,
          "internalType": "uint256",
          "name": "_sharesRepaid",
          "type": "uint256"
        }
      ],
      "name": "RepayAssetWithCollateral",
      "type": "event"
    },
    {
      "anonymous": false,
      "inputs": [
        {
          "indexed": true,
          "internalType": "address",
          "name": "_address",
          "type": "address"
        },
        {
          "indexed": false,
          "internalType": "bool",
          "name": "_approval",
          "type": "bool"
        }
      ],
      "name": "SetApprovedBorrower",
      "type": "event"
    },
    {
      "anonymous": false,
      "inputs": [
        {
          "indexed": true,
          "internalType": "address",
          "name": "_address",
          "type": "address"
        },
        {
          "indexed": false,
          "internalType": "bool",
          "name": "_approval",
          "type": "bool"
        }
      ],
      "name": "SetApprovedLender",
      "type": "event"
    },
    {
      "anonymous": false,
      "inputs": [
        {
          "indexed": false,
          "internalType": "address",
          "name": "_swapper",
          "type": "address"
        },
        {
          "indexed": false,
          "internalType": "bool",
          "name": "_approval",
          "type": "bool"
        }
      ],
      "name": "SetSwapper",
      "type": "event"
    },
    {
      "anonymous": false,
      "inputs": [
        {
          "indexed": false,
          "internalType": "address",
          "name": "_oldAddress",
          "type": "address"
        },
        {
          "indexed": false,
          "internalType": "address",
          "name": "_newAddress",
          "type": "address"
        }
      ],
      "name": "SetTimeLock",
      "type": "event"
    },
    {
      "anonymous": false,
      "inputs": [
        {
          "indexed": true,
          "internalType": "address",
          "name": "from",
          "type": "address"
        },
        {
          "indexed": true,
          "internalType": "address",
          "name": "to",
          "type": "address"
        },
        {
          "indexed": false,
          "internalType": "uint256",
          "name": "value",
          "type": "uint256"
        }
      ],
      "name": "Transfer",
      "type": "event"
    },
    {
      "anonymous": false,
      "inputs": [
        {
          "indexed": false,
          "internalType": "address",
          "name": "account",
          "type": "address"
        }
      ],
      "name": "Unpaused",
      "type": "event"
    },
    {
      "anonymous": false,
      "inputs": [
        {
          "indexed": false,
          "internalType": "uint256",
          "name": "_rate",
          "type": "uint256"
        }
      ],
      "name": "UpdateExchangeRate",
      "type": "event"
    },
    {
      "anonymous": false,
      "inputs": [
        {
          "indexed": false,
          "internalType": "uint256",
          "name": "_ratePerSec",
          "type": "uint256"
        },
        {
          "indexed": false,
          "internalType": "uint256",
          "name": "_deltaTime",
          "type": "uint256"
        },
        {
          "indexed": false,
          "internalType": "uint256",
          "name": "_utilizationRate",
          "type": "uint256"
        },
        {
          "indexed": false,
          "internalType": "uint256",
          "name": "_newRatePerSec",
          "type": "uint256"
        }
      ],
      "name": "UpdateRate",
      "type": "event"
    },
    {
      "anonymous": false,
      "inputs": [
        {
          "indexed": true,
          "internalType": "address",
          "name": "caller",
          "type": "address"
        },
        {
          "indexed": true,
          "internalType": "address",
          "name": "receiver",
          "type": "address"
        },
        {
          "indexed": true,
          "internalType": "address",
          "name": "owner",
          "type": "address"
        },
        {
          "indexed": false,
          "internalType": "uint256",
          "name": "assets",
          "type": "uint256"
        },
        {
          "indexed": false,
          "internalType": "uint256",
          "name": "shares",
          "type": "uint256"
        }
      ],
      "name": "Withdraw",
      "type": "event"
    },
    {
      "anonymous": false,
      "inputs": [
        {
          "indexed": false,
          "internalType": "uint128",
          "name": "_shares",
          "type": "uint128"
        },
        {
          "indexed": false,
          "internalType": "address",
          "name": "_recipient",
          "type": "address"
        },
        {
          "indexed": false,
          "internalType": "uint256",
          "name": "_amountToTransfer",
          "type": "uint256"
        }
      ],
      "name": "WithdrawFees",
      "type": "event"
    },
    {
      "inputs": [],
      "name": "CIRCUIT_BREAKER_ADDRESS",
      "outputs": [
        {
          "internalType": "address",
          "name": "",
          "type": "address"
        }
      ],
      "stateMutability": "view",
      "type": "function"
    },
    {
      "inputs": [],
      "name": "COMPTROLLER_ADDRESS",
      "outputs": [
        {
          "internalType": "address",
          "name": "",
          "type": "address"
        }
      ],
      "stateMutability": "view",
      "type": "function"
    },
    {
      "inputs": [],
      "name": "DEPLOYER_ADDRESS",
      "outputs": [
        {
          "internalType": "address",
          "name": "",
          "type": "address"
        }
      ],
      "stateMutability": "view",
      "type": "function"
    },
    {
      "inputs": [],
      "name": "FRAXLEND_WHITELIST_ADDRESS",
      "outputs": [
        {
          "internalType": "address",
          "name": "",
          "type": "address"
        }
      ],
      "stateMutability": "view",
      "type": "function"
    },
    {
      "inputs": [],
      "name": "TIME_LOCK_ADDRESS",
      "outputs": [
        {
          "internalType": "address",
          "name": "",
          "type": "address"
        }
      ],
      "stateMutability": "view",
      "type": "function"
    },
    {
      "inputs": [
        {
          "internalType": "uint256",
          "name": "_collateralAmount",
          "type": "uint256"
        },
        {
          "internalType": "address",
          "name": "_borrower",
          "type": "address"
        }
      ],
      "name": "addCollateral",
      "outputs": [],
      "stateMutability": "nonpayable",
      "type": "function"
    },
    {
      "inputs": [],
      "name": "addInterest",
      "outputs": [
        {
          "internalType": "uint256",
          "name": "_interestEarned",
          "type": "uint256"
        },
        {
          "internalType": "uint256",
          "name": "_feesAmount",
          "type": "uint256"
        },
        {
          "internalType": "uint256",
          "name": "_feesShare",
          "type": "uint256"
        },
        {
          "internalType": "uint64",
          "name": "_newRate",
          "type": "uint64"
        }
      ],
      "stateMutability": "nonpayable",
      "type": "function"
    },
    {
      "inputs": [
        {
          "internalType": "address",
          "name": "owner",
          "type": "address"
        },
        {
          "internalType": "address",
          "name": "spender",
          "type": "address"
        }
      ],
      "name": "allowance",
      "outputs": [
        {
          "internalType": "uint256",
          "name": "",
          "type": "uint256"
        }
      ],
      "stateMutability": "view",
      "type": "function"
    },
    {
      "inputs": [
        {
          "internalType": "address",
          "name": "spender",
          "type": "address"
        },
        {
          "internalType": "uint256",
          "name": "amount",
          "type": "uint256"
        }
      ],
      "name": "approve",
      "outputs": [
        {
          "internalType": "bool",
          "name": "",
          "type": "bool"
        }
      ],
      "stateMutability": "nonpayable",
      "type": "function"
    },
    {
      "inputs": [
        {
          "internalType": "address",
          "name": "",
          "type": "address"
        }
      ],
      "name": "approvedBorrowers",
      "outputs": [
        {
          "internalType": "bool",
          "name": "",
          "type": "bool"
        }
      ],
      "stateMutability": "view",
      "type": "function"
    },
    {
      "inputs": [
        {
          "internalType": "address",
          "name": "",
          "type": "address"
        }
      ],
      "name": "approvedLenders",
      "outputs": [
        {
          "internalType": "bool",
          "name": "",
          "type": "bool"
        }
      ],
      "stateMutability": "view",
      "type": "function"
    },
    {
      "inputs": [],
      "name": "asset",
      "outputs": [
        {
          "internalType": "address",
          "name": "",
          "type": "address"
        }
      ],
      "stateMutability": "view",
      "type": "function"
    },
    {
      "inputs": [
        {
          "internalType": "address",
          "name": "account",
          "type": "address"
        }
      ],
      "name": "balanceOf",
      "outputs": [
        {
          "internalType": "uint256",
          "name": "",
          "type": "uint256"
        }
      ],
      "stateMutability": "view",
      "type": "function"
    },
    {
      "inputs": [
        {
          "internalType": "uint256",
          "name": "_borrowAmount",
          "type": "uint256"
        },
        {
          "internalType": "uint256",
          "name": "_collateralAmount",
          "type": "uint256"
        },
        {
          "internalType": "address",
          "name": "_receiver",
          "type": "address"
        }
      ],
      "name": "borrowAsset",
      "outputs": [
        {
          "internalType": "uint256",
          "name": "_shares",
          "type": "uint256"
        }
      ],
      "stateMutability": "nonpayable",
      "type": "function"
    },
    {
      "inputs": [],
      "name": "borrowerWhitelistActive",
      "outputs": [
        {
          "internalType": "bool",
          "name": "",
          "type": "bool"
        }
      ],
      "stateMutability": "view",
      "type": "function"
    },
    {
      "inputs": [
        {
          "internalType": "uint32",
          "name": "_newFee",
          "type": "uint32"
        }
      ],
      "name": "changeFee",
      "outputs": [],
      "stateMutability": "nonpayable",
      "type": "function"
    },
    {
      "inputs": [],
      "name": "cleanLiquidationFee",
      "outputs": [
        {
          "internalType": "uint256",
          "name": "",
          "type": "uint256"
        }
      ],
      "stateMutability": "view",
      "type": "function"
    },
    {
      "inputs": [],
      "name": "collateralContract",
      "outputs": [
        {
          "internalType": "contract IERC20",
          "name": "",
          "type": "address"
        }
      ],
      "stateMutability": "view",
      "type": "function"
    },
    {
      "inputs": [],
      "name": "currentRateInfo",
      "outputs": [
        {
          "internalType": "uint64",
          "name": "lastBlock",
          "type": "uint64"
        },
        {
          "internalType": "uint64",
          "name": "feeToProtocolRate",
          "type": "uint64"
        },
        {
          "internalType": "uint64",
          "name": "lastTimestamp",
          "type": "uint64"
        },
        {
          "internalType": "uint64",
          "name": "ratePerSec",
          "type": "uint64"
        }
      ],
      "stateMutability": "view",
      "type": "function"
    },
    {
      "inputs": [],
      "name": "decimals",
      "outputs": [
        {
          "internalType": "uint8",
          "name": "",
          "type": "uint8"
        }
      ],
      "stateMutability": "pure",
      "type": "function"
    },
    {
      "inputs": [
        {
          "internalType": "address",
          "name": "spender",
          "type": "address"
        },
        {
          "internalType": "uint256",
          "name": "subtractedValue",
          "type": "uint256"
        }
      ],
      "name": "decreaseAllowance",
      "outputs": [
        {
          "internalType": "bool",
          "name": "",
          "type": "bool"
        }
      ],
      "stateMutability": "nonpayable",
      "type": "function"
    },
    {
      "inputs": [
        {
          "internalType": "uint256",
          "name": "_amount",
          "type": "uint256"
        },
        {
          "internalType": "address",
          "name": "_receiver",
          "type": "address"
        }
      ],
      "name": "deposit",
      "outputs": [
        {
          "internalType": "uint256",
          "name": "_sharesReceived",
          "type": "uint256"
        }
      ],
      "stateMutability": "nonpayable",
      "type": "function"
    },
    {
      "inputs": [],
      "name": "dirtyLiquidationFee",
      "outputs": [
        {
          "internalType": "uint256",
          "name": "",
          "type": "uint256"
        }
      ],
      "stateMutability": "view",
      "type": "function"
    },
    {
      "inputs": [],
      "name": "exchangeRateInfo",
      "outputs": [
        {
          "internalType": "uint32",
          "name": "lastTimestamp",
          "type": "uint32"
        },
        {
          "internalType": "uint224",
          "name": "exchangeRate",
          "type": "uint224"
        }
      ],
      "stateMutability": "view",
      "type": "function"
    },
    {
      "inputs": [],
      "name": "getConstants",
      "outputs": [
        {
          "internalType": "uint256",
          "name": "_LTV_PRECISION",
          "type": "uint256"
        },
        {
          "internalType": "uint256",
          "name": "_LIQ_PRECISION",
          "type": "uint256"
        },
        {
          "internalType": "uint256",
          "name": "_UTIL_PREC",
          "type": "uint256"
        },
        {
          "internalType": "uint256",
          "name": "_FEE_PRECISION",
          "type": "uint256"
        },
        {
          "internalType": "uint256",
          "name": "_EXCHANGE_PRECISION",
          "type": "uint256"
        },
        {
          "internalType": "uint64",
          "name": "_DEFAULT_INT",
          "type": "uint64"
        },
        {
          "internalType": "uint16",
          "name": "_DEFAULT_PROTOCOL_FEE",
          "type": "uint16"
        },
        {
          "internalType": "uint256",
          "name": "_MAX_PROTOCOL_FEE",
          "type": "uint256"
        }
      ],
      "stateMutability": "pure",
      "type": "function"
    },
    {
      "inputs": [],
      "name": "getImmutableAddressBool",
      "outputs": [
        {
          "internalType": "address",
          "name": "_assetContract",
          "type": "address"
        },
        {
          "internalType": "address",
          "name": "_collateralContract",
          "type": "address"
        },
        {
          "internalType": "address",
          "name": "_oracleMultiply",
          "type": "address"
        },
        {
          "internalType": "address",
          "name": "_oracleDivide",
          "type": "address"
        },
        {
          "internalType": "address",
          "name": "_rateContract",
          "type": "address"
        },
        {
          "internalType": "address",
          "name": "_DEPLOYER_CONTRACT",
          "type": "address"
        },
        {
          "internalType": "address",
          "name": "_COMPTROLLER_ADDRESS",
          "type": "address"
        },
        {
          "internalType": "address",
          "name": "_FRAXLEND_WHITELIST",
          "type": "address"
        },
        {
          "internalType": "bool",
          "name": "_borrowerWhitelistActive",
          "type": "bool"
        },
        {
          "internalType": "bool",
          "name": "_lenderWhitelistActive",
          "type": "bool"
        }
      ],
      "stateMutability": "view",
      "type": "function"
    },
    {
      "inputs": [],
      "name": "getImmutableUint256",
      "outputs": [
        {
          "internalType": "uint256",
          "name": "_oracleNormalization",
          "type": "uint256"
        },
        {
          "internalType": "uint256",
          "name": "_maxLTV",
          "type": "uint256"
        },
        {
          "internalType": "uint256",
          "name": "_cleanLiquidationFee",
          "type": "uint256"
        },
        {
          "internalType": "uint256",
          "name": "_maturityDate",
          "type": "uint256"
        },
        {
          "internalType": "uint256",
          "name": "_penaltyRate",
          "type": "uint256"
        }
      ],
      "stateMutability": "view",
      "type": "function"
    },
    {
      "inputs": [],
      "name": "getPairAccounting",
      "outputs": [
        {
          "internalType": "uint128",
          "name": "_totalAssetAmount",
          "type": "uint128"
        },
        {
          "internalType": "uint128",
          "name": "_totalAssetShares",
          "type": "uint128"
        },
        {
          "internalType": "uint128",
          "name": "_totalBorrowAmount",
          "type": "uint128"
        },
        {
          "internalType": "uint128",
          "name": "_totalBorrowShares",
          "type": "uint128"
        },
        {
          "internalType": "uint256",
          "name": "_totalCollateral",
          "type": "uint256"
        }
      ],
      "stateMutability": "view",
      "type": "function"
    },
    {
      "inputs": [
        {
          "internalType": "address",
          "name": "_address",
          "type": "address"
        }
      ],
      "name": "getUserSnapshot",
      "outputs": [
        {
          "internalType": "uint256",
          "name": "_userAssetShares",
          "type": "uint256"
        },
        {
          "internalType": "uint256",
          "name": "_userBorrowShares",
          "type": "uint256"
        },
        {
          "internalType": "uint256",
          "name": "_userCollateralBalance",
          "type": "uint256"
        }
      ],
      "stateMutability": "view",
      "type": "function"
    },
    {
      "inputs": [
        {
          "internalType": "address",
          "name": "spender",
          "type": "address"
        },
        {
          "internalType": "uint256",
          "name": "addedValue",
          "type": "uint256"
        }
      ],
      "name": "increaseAllowance",
      "outputs": [
        {
          "internalType": "bool",
          "name": "",
          "type": "bool"
        }
      ],
      "stateMutability": "nonpayable",
      "type": "function"
    },
    {
      "inputs": [
        {
          "internalType": "string",
          "name": "_name",
          "type": "string"
        },
        {
          "internalType": "address[]",
          "name": "_approvedBorrowers",
          "type": "address[]"
        },
        {
          "internalType": "address[]",
          "name": "_approvedLenders",
          "type": "address[]"
        },
        {
          "internalType": "bytes",
          "name": "_rateInitCallData",
          "type": "bytes"
        }
      ],
      "name": "initialize",
      "outputs": [],
      "stateMutability": "nonpayable",
      "type": "function"
    },
    {
      "inputs": [],
      "name": "lenderWhitelistActive",
      "outputs": [
        {
          "internalType": "bool",
          "name": "",
          "type": "bool"
        }
      ],
      "stateMutability": "view",
      "type": "function"
    },
    {
      "inputs": [
        {
          "internalType": "address",
          "name": "_swapperAddress",
          "type": "address"
        },
        {
          "internalType": "uint256",
          "name": "_borrowAmount",
          "type": "uint256"
        },
        {
          "internalType": "uint256",
          "name": "_initialCollateralAmount",
          "type": "uint256"
        },
        {
          "internalType": "uint256",
          "name": "_amountCollateralOutMin",
          "type": "uint256"
        },
        {
          "internalType": "address[]",
          "name": "_path",
          "type": "address[]"
        }
      ],
      "name": "leveragedPosition",
      "outputs": [
        {
          "internalType": "uint256",
          "name": "_totalCollateralBalance",
          "type": "uint256"
        }
      ],
      "stateMutability": "nonpayable",
      "type": "function"
    },
    {
      "inputs": [
        {
          "internalType": "uint128",
          "name": "_sharesToLiquidate",
          "type": "uint128"
        },
        {
          "internalType": "uint256",
          "name": "_deadline",
          "type": "uint256"
        },
        {
          "internalType": "address",
          "name": "_borrower",
          "type": "address"
        }
      ],
      "name": "liquidate",
      "outputs": [
        {
          "internalType": "uint256",
          "name": "_collateralForLiquidator",
          "type": "uint256"
        }
      ],
      "stateMutability": "nonpayable",
      "type": "function"
    },
    {
      "inputs": [],
      "name": "maturityDate",
      "outputs": [
        {
          "internalType": "uint256",
          "name": "",
          "type": "uint256"
        }
      ],
      "stateMutability": "view",
      "type": "function"
    },
    {
      "inputs": [],
      "name": "maxLTV",
      "outputs": [
        {
          "internalType": "uint256",
          "name": "",
          "type": "uint256"
        }
      ],
      "stateMutability": "view",
      "type": "function"
    },
    {
      "inputs": [],
      "name": "name",
      "outputs": [
        {
          "internalType": "string",
          "name": "",
          "type": "string"
        }
      ],
      "stateMutability": "view",
      "type": "function"
    },
    {
      "inputs": [],
      "name": "oracleDivide",
      "outputs": [
        {
          "internalType": "address",
          "name": "",
          "type": "address"
        }
      ],
      "stateMutability": "view",
      "type": "function"
    },
    {
      "inputs": [],
      "name": "oracleMultiply",
      "outputs": [
        {
          "internalType": "address",
          "name": "",
          "type": "address"
        }
      ],
      "stateMutability": "view",
      "type": "function"
    },
    {
      "inputs": [],
      "name": "oracleNormalization",
      "outputs": [
        {
          "internalType": "uint256",
          "name": "",
          "type": "uint256"
        }
      ],
      "stateMutability": "view",
      "type": "function"
    },
    {
      "inputs": [],
      "name": "owner",
      "outputs": [
        {
          "internalType": "address",
          "name": "",
          "type": "address"
        }
      ],
      "stateMutability": "view",
      "type": "function"
    },
    {
      "inputs": [],
      "name": "pause",
      "outputs": [],
      "stateMutability": "nonpayable",
      "type": "function"
    },
    {
      "inputs": [],
      "name": "paused",
      "outputs": [
        {
          "internalType": "bool",
          "name": "",
          "type": "bool"
        }
      ],
      "stateMutability": "view",
      "type": "function"
    },
    {
      "inputs": [],
      "name": "penaltyRate",
      "outputs": [
        {
          "internalType": "uint256",
          "name": "",
          "type": "uint256"
        }
      ],
      "stateMutability": "view",
      "type": "function"
    },
    {
      "inputs": [],
      "name": "rateContract",
      "outputs": [
        {
          "internalType": "contract IRateCalculator",
          "name": "",
          "type": "address"
        }
      ],
      "stateMutability": "view",
      "type": "function"
    },
    {
      "inputs": [],
      "name": "rateInitCallData",
      "outputs": [
        {
          "internalType": "bytes",
          "name": "",
          "type": "bytes"
        }
      ],
      "stateMutability": "view",
      "type": "function"
    },
    {
      "inputs": [
        {
          "internalType": "uint256",
          "name": "_shares",
          "type": "uint256"
        },
        {
          "internalType": "address",
          "name": "_receiver",
          "type": "address"
        },
        {
          "internalType": "address",
          "name": "_owner",
          "type": "address"
        }
      ],
      "name": "redeem",
      "outputs": [
        {
          "internalType": "uint256",
          "name": "_amountToReturn",
          "type": "uint256"
        }
      ],
      "stateMutability": "nonpayable",
      "type": "function"
    },
    {
      "inputs": [
        {
          "internalType": "uint256",
          "name": "_collateralAmount",
          "type": "uint256"
        },
        {
          "internalType": "address",
          "name": "_receiver",
          "type": "address"
        }
      ],
      "name": "removeCollateral",
      "outputs": [],
      "stateMutability": "nonpayable",
      "type": "function"
    },
    {
      "inputs": [],
      "name": "renounceOwnership",
      "outputs": [],
      "stateMutability": "nonpayable",
      "type": "function"
    },
    {
      "inputs": [
        {
          "internalType": "uint256",
          "name": "_shares",
          "type": "uint256"
        },
        {
          "internalType": "address",
          "name": "_borrower",
          "type": "address"
        }
      ],
      "name": "repayAsset",
      "outputs": [
        {
          "internalType": "uint256",
          "name": "_amountToRepay",
          "type": "uint256"
        }
      ],
      "stateMutability": "nonpayable",
      "type": "function"
    },
    {
      "inputs": [
        {
          "internalType": "address",
          "name": "_swapperAddress",
          "type": "address"
        },
        {
          "internalType": "uint256",
          "name": "_collateralToSwap",
          "type": "uint256"
        },
        {
          "internalType": "uint256",
          "name": "_amountAssetOutMin",
          "type": "uint256"
        },
        {
          "internalType": "address[]",
          "name": "_path",
          "type": "address[]"
        }
      ],
      "name": "repayAssetWithCollateral",
      "outputs": [
        {
          "internalType": "uint256",
          "name": "_amountAssetOut",
          "type": "uint256"
        }
      ],
      "stateMutability": "nonpayable",
      "type": "function"
    },
    {
      "inputs": [
        {
          "internalType": "address[]",
          "name": "_borrowers",
          "type": "address[]"
        },
        {
          "internalType": "bool",
          "name": "_approval",
          "type": "bool"
        }
      ],
      "name": "setApprovedBorrowers",
      "outputs": [],
      "stateMutability": "nonpayable",
      "type": "function"
    },
    {
      "inputs": [
        {
          "internalType": "address[]",
          "name": "_lenders",
          "type": "address[]"
        },
        {
          "internalType": "bool",
          "name": "_approval",
          "type": "bool"
        }
      ],
      "name": "setApprovedLenders",
      "outputs": [],
      "stateMutability": "nonpayable",
      "type": "function"
    },
    {
      "inputs": [
        {
          "internalType": "address",
          "name": "_swapper",
          "type": "address"
        },
        {
          "internalType": "bool",
          "name": "_approval",
          "type": "bool"
        }
      ],
      "name": "setSwapper",
      "outputs": [],
      "stateMutability": "nonpayable",
      "type": "function"
    },
    {
      "inputs": [
        {
          "internalType": "address",
          "name": "_newAddress",
          "type": "address"
        }
      ],
      "name": "setTimeLock",
      "outputs": [],
      "stateMutability": "nonpayable",
      "type": "function"
    },
    {
      "inputs": [
        {
          "internalType": "address",
          "name": "",
          "type": "address"
        }
      ],
      "name": "swappers",
      "outputs": [
        {
          "internalType": "bool",
          "name": "",
          "type": "bool"
        }
      ],
      "stateMutability": "view",
      "type": "function"
    },
    {
      "inputs": [],
      "name": "symbol",
      "outputs": [
        {
          "internalType": "string",
          "name": "",
          "type": "string"
        }
      ],
      "stateMutability": "view",
      "type": "function"
    },
    {
      "inputs": [
        {
          "internalType": "uint256",
          "name": "_shares",
          "type": "uint256"
        },
        {
          "internalType": "bool",
          "name": "_roundUp",
          "type": "bool"
        }
      ],
      "name": "toAssetAmount",
      "outputs": [
        {
          "internalType": "uint256",
          "name": "",
          "type": "uint256"
        }
      ],
      "stateMutability": "view",
      "type": "function"
    },
    {
      "inputs": [
        {
          "internalType": "uint256",
          "name": "_amount",
          "type": "uint256"
        },
        {
          "internalType": "bool",
          "name": "_roundUp",
          "type": "bool"
        }
      ],
      "name": "toAssetShares",
      "outputs": [
        {
          "internalType": "uint256",
          "name": "",
          "type": "uint256"
        }
      ],
      "stateMutability": "view",
      "type": "function"
    },
    {
      "inputs": [
        {
          "internalType": "uint256",
          "name": "_shares",
          "type": "uint256"
        },
        {
          "internalType": "bool",
          "name": "_roundUp",
          "type": "bool"
        }
      ],
      "name": "toBorrowAmount",
      "outputs": [
        {
          "internalType": "uint256",
          "name": "",
          "type": "uint256"
        }
      ],
      "stateMutability": "view",
      "type": "function"
    },
    {
      "inputs": [
        {
          "internalType": "uint256",
          "name": "_amount",
          "type": "uint256"
        },
        {
          "internalType": "bool",
          "name": "_roundUp",
          "type": "bool"
        }
      ],
      "name": "toBorrowShares",
      "outputs": [
        {
          "internalType": "uint256",
          "name": "",
          "type": "uint256"
        }
      ],
      "stateMutability": "view",
      "type": "function"
    },
    {
      "inputs": [],
      "name": "totalAsset",
      "outputs": [
        {
          "internalType": "uint128",
          "name": "amount",
          "type": "uint128"
        },
        {
          "internalType": "uint128",
          "name": "shares",
          "type": "uint128"
        }
      ],
      "stateMutability": "view",
      "type": "function"
    },
    {
      "inputs": [],
      "name": "totalBorrow",
      "outputs": [
        {
          "internalType": "uint128",
          "name": "amount",
          "type": "uint128"
        },
        {
          "internalType": "uint128",
          "name": "shares",
          "type": "uint128"
        }
      ],
      "stateMutability": "view",
      "type": "function"
    },
    {
      "inputs": [],
      "name": "totalCollateral",
      "outputs": [
        {
          "internalType": "uint256",
          "name": "",
          "type": "uint256"
        }
      ],
      "stateMutability": "view",
      "type": "function"
    },
    {
      "inputs": [],
      "name": "totalSupply",
      "outputs": [
        {
          "internalType": "uint256",
          "name": "",
          "type": "uint256"
        }
      ],
      "stateMutability": "view",
      "type": "function"
    },
    {
      "inputs": [
        {
          "internalType": "address",
          "name": "to",
          "type": "address"
        },
        {
          "internalType": "uint256",
          "name": "amount",
          "type": "uint256"
        }
      ],
      "name": "transfer",
      "outputs": [
        {
          "internalType": "bool",
          "name": "",
          "type": "bool"
        }
      ],
      "stateMutability": "nonpayable",
      "type": "function"
    },
    {
      "inputs": [
        {
          "internalType": "address",
          "name": "from",
          "type": "address"
        },
        {
          "internalType": "address",
          "name": "to",
          "type": "address"
        },
        {
          "internalType": "uint256",
          "name": "amount",
          "type": "uint256"
        }
      ],
      "name": "transferFrom",
      "outputs": [
        {
          "internalType": "bool",
          "name": "",
          "type": "bool"
        }
      ],
      "stateMutability": "nonpayable",
      "type": "function"
    },
    {
      "inputs": [
        {
          "internalType": "address",
          "name": "newOwner",
          "type": "address"
        }
      ],
      "name": "transferOwnership",
      "outputs": [],
      "stateMutability": "nonpayable",
      "type": "function"
    },
    {
      "inputs": [],
      "name": "unpause",
      "outputs": [],
      "stateMutability": "nonpayable",
      "type": "function"
    },
    {
      "inputs": [],
      "name": "updateExchangeRate",
      "outputs": [
        {
          "internalType": "uint256",
          "name": "_exchangeRate",
          "type": "uint256"
        }
      ],
      "stateMutability": "nonpayable",
      "type": "function"
    },
    {
      "inputs": [
        {
          "internalType": "address",
          "name": "",
          "type": "address"
        }
      ],
      "name": "userBorrowShares",
      "outputs": [
        {
          "internalType": "uint256",
          "name": "",
          "type": "uint256"
        }
      ],
      "stateMutability": "view",
      "type": "function"
    },
    {
      "inputs": [
        {
          "internalType": "address",
          "name": "",
          "type": "address"
        }
      ],
      "name": "userCollateralBalance",
      "outputs": [
        {
          "internalType": "uint256",
          "name": "",
          "type": "uint256"
        }
      ],
      "stateMutability": "view",
      "type": "function"
    },
    {
      "inputs": [],
      "name": "version",
      "outputs": [
        {
          "internalType": "string",
          "name": "",
          "type": "string"
        }
      ],
      "stateMutability": "view",
      "type": "function"
    },
    {
      "inputs": [
        {
          "internalType": "uint128",
          "name": "_shares",
          "type": "uint128"
        },
        {
          "internalType": "address",
          "name": "_recipient",
          "type": "address"
        }
      ],
      "name": "withdrawFees",
      "outputs": [
        {
          "internalType": "uint256",
          "name": "_amountToTransfer",
          "type": "uint256"
        }
      ],
      "stateMutability": "nonpayable",
      "type": "function"
    }
  ],
  "bytecode": {
    "object": "0x6102e060405260056102a0908152640312e302e360dc1b6102c052600790620000299082620005cb565b503480156200003757600080fd5b50604051620068c4380380620068c48339810160408190526200005a916200075c565b878787878787878760405180602001604052806000815250604051806020016040528060008152508160039081620000939190620005cb565b506004620000a28282620005cb565b505050620000bf620000b9620004d060201b60201c565b620004d4565b6005805460ff60a01b1916905560016006558651600090819081908190620000f1908c016020908101908d016200082a565b9350935093509350336001600160a01b03166101a0816001600160a01b031681525050836001600160a01b03166101c0816001600160a01b031681525050826001600160a01b03166101e0816001600160a01b03168152505081600a60006101000a8154816001600160a01b0302191690836001600160a01b03160217905550806001600160a01b0316610200816001600160a01b031681525050505050506000806000806000808d806020019051810190620001af919062000887565b50955095509550955095509550856001600160a01b03166080816001600160a01b031681525050846001600160a01b031660a0816001600160a01b031681525050600061ffff16600c60000160086101000a8154816001600160401b0302191690836001600160401b031602179055508a6101408181525050620186a08b62015f906200023d91906200092f565b6200024991906200095b565b61016052620186a08c108015906200025f575087155b156200027e57604051631d74772960e31b815260040160405180910390fd5b6101208c9052610200516001600160a01b038516158015906200030b57506040516373015f9360e11b81526001600160a01b03868116600483015282169063e602bf2690602401602060405180830381865afa158015620002e3573d6000803e3d6000fd5b505050506040513d601f19601f820116820180604052508101906200030991906200097e565b155b156200033a57604051630f19dca360e01b81526001600160a01b03861660048201526024015b60405180910390fd5b6001600160a01b03841615801590620003bd57506040516373015f9360e11b81526001600160a01b03858116600483015282169063e602bf2690602401602060405180830381865afa15801562000395573d6000803e3d6000fd5b505050506040513d601f19601f82011682018060405250810190620003bb91906200097e565b155b15620003e857604051630f19dca360e01b81526001600160a01b038516600482015260240162000331565b6001600160a01b0385811660c05284811660e05261010084905260405163f3a51aa160e01b815283821660048201529082169063f3a51aa190602401602060405180830381865afa15801562000442573d6000803e3d6000fd5b505050506040513d601f19601f820116820180604052508101906200046891906200097e565b6200049257604051630f19dca360e01b81526001600160a01b038316600482015260240162000331565b506001600160a01b031661018052505050509115156102605215156102805250610220919091526102405250620009a39a5050505050505050505050565b3390565b600580546001600160a01b038381166001600160a01b0319831681179093556040519116919082907f8be0079c531659141344cd1fd0a4f28419497f9722a3daafe3b4186f6b6457e090600090a35050565b634e487b7160e01b600052604160045260246000fd5b600181811c908216806200055157607f821691505b6020821081036200057257634e487b7160e01b600052602260045260246000fd5b50919050565b601f821115620005c657600081815260208120601f850160051c81016020861015620005a15750805b601f850160051c820191505b81811015620005c257828155600101620005ad565b5050505b505050565b81516001600160401b03811115620005e757620005e762000526565b620005ff81620005f884546200053c565b8462000578565b602080601f8311600181146200063757600084156200061e5750858301515b600019600386901b1c1916600185901b178555620005c2565b600085815260208120601f198616915b82811015620006685788860151825594840194600190910190840162000647565b5085821015620006875787850151600019600388901b60f8161c191681555b5050505050600190811b01905550565b600082601f830112620006a957600080fd5b81516001600160401b0380821115620006c657620006c662000526565b604051601f8301601f19908116603f01168101908282118183101715620006f157620006f162000526565b816040528381526020925086838588010111156200070e57600080fd5b600091505b8382101562000732578582018301518183018401529082019062000713565b600093810190920192909252949350505050565b805180151581146200075757600080fd5b919050565b600080600080600080600080610100898b0312156200077a57600080fd5b88516001600160401b03808211156200079257600080fd5b620007a08c838d0162000697565b995060208b0151915080821115620007b757600080fd5b50620007c68b828c0162000697565b97505060408901519550606089015194506080890151935060a08901519250620007f360c08a0162000746565b91506200080360e08a0162000746565b90509295985092959890939650565b80516001600160a01b03811681146200075757600080fd5b600080600080608085870312156200084157600080fd5b6200084c8562000812565b93506200085c6020860162000812565b92506200086c6040860162000812565b91506200087c6060860162000812565b905092959194509250565b600080600080600080600060e0888a031215620008a357600080fd5b620008ae8862000812565b9650620008be6020890162000812565b9550620008ce6040890162000812565b9450620008de6060890162000812565b935060808801519250620008f560a0890162000812565b60c08901519092506001600160401b038111156200091257600080fd5b620009208a828b0162000697565b91505092959891949750929550565b80820281158282048414176200095557634e487b7160e01b600052601160045260246000fd5b92915050565b6000826200097957634e487b7160e01b600052601260045260246000fd5b500490565b6000602082840312156200099157600080fd5b6200099c8262000746565b9392505050565b60805160a05160c05160e05161010051610120516101405161016051610180516101a0516101c0516101e0516102005161022051610240516102605161028051615cd762000bed60003960008181610705015281816107f001528181611076015281816114a401526115b3015260008181610549015281816106dc01528181611ec0015281816124b90152612ec4015260008181610cf901528181610f0401526136ac015260008181610cd201528181610ede0152818161400701526140310152600081816106b20152610d8001526000818161068a01528181610dff015281816113020152611a5b015260008181610aba0152611a2701526000818161066201528181610c9801528181611aa70152611c5c01526000818161063a01528181610d5901528181611def01526137420152600081816107c901526117a501526000818161050a01528181610eb6015261173a015260008181610dba01528181610e90015281816141fb01526142f2015260008181610b7801528181610e6d0152613322015260008181610447015281816106120152818161320c0152818161323d01526132e20152600081816105e801528181610a5a015281816130f90152818161312a01526131cf0152600081816105c001528181610bb201528181611bcd01528181611f6c015281816127a0015281816143ea01526145ce01526000818161059b0152818161073701528181611bff01528181611f4a0152818161277e01528181612ddc01528181613e540152818161412301528181614781015261492e0152615cd76000f3fe608060405234801561001057600080fd5b506004361061043d5760003560e01c806395d14ca811610236578063c936c6241161013b578063dd62ed3e116100c3578063f384bd0511610087578063f384bd0514610db5578063f9557ccb14610ddc578063fbaa8b8514610dfa578063fbbbf94c14610e21578063fea10d5d14610e6757600080fd5b8063dd62ed3e14610d2e578063e5f13b1614610d41578063eee2421914610d54578063ef14900d14610d7b578063f2fde38b14610da257600080fd5b8063d2a156e01161010a578063d2a156e014610c93578063d41ddc9614610cba578063d59624b414610ccd578063d6b7494f14610cf4578063daf33f2a14610d1b57600080fd5b8063c936c62414610bdc578063ca2298fe14610bff578063cadac47914610c12578063cdd72d5214610c2557600080fd5b8063afa85de6116101be578063ba0876521161018d578063ba08765214610b60578063c10c92a114610b73578063c270a54414610b9a578063c6e1c7c914610bad578063c7be978614610bd457600080fd5b8063afa85de614610adc578063b054898b14610aff578063b5af306214610b12578063b68d0a0914610b3257600080fd5b80639bdff2e6116102055780639bdff2e614610a55578063a053db6814610a7c578063a457c2d714610a8f578063a9059cbb14610aa2578063ad0c3bb514610ab557600080fd5b806395d14ca81461098557806395d89b41146109ea57806399024fc1146109f25780639a295e7314610a0557600080fd5b80634732428c1161034757806370a08231116102cf5780638456cb59116102935780638456cb5914610923578063891682d21461092b5780638cad7fbe1461093e5780638da5cb5b1461096157806394e301e01461097257600080fd5b806370a082311461088e578063715018a6146108b7578063721b0a47146108bf5780638142dd53146108d25780638285ef40146108e557600080fd5b806354fd4d501161031657806354fd4d501461083b57806356968f97146108435780635c975abb14610856578063657a409c146108685780636e553f651461087b57600080fd5b80634732428c146107c45780634962e494146107eb5780634ac8eb5f146108125780634fd422df1461081b57600080fd5b8063313ce567116103ca5780633cc32aba116103995780633cc32aba1461076e5780633d417d2d146107835780633f2617cb146107965780633f4ba83a146107a9578063404ffa7a146107b157600080fd5b8063313ce5671461057e57806336fad62d1461058d57806338d52e0f14610735578063395093511461075b57600080fd5b80630d09365c116104115780630d09365c146104d457806311a2e4bc1461050557806318160ddd1461052c5780632165d72f1461054457806323b872dd1461056b57600080fd5b806253f7331461044257806302ce728f1461048657806306fdde031461049c578063095ea7b3146104b1575b600080fd5b6104697f000000000000000000000000000000000000000000000000000000000000000081565b6040516001600160a01b0390911681526020015b60405180910390f35b61048e610f30565b60405190815260200161047d565b6104a4610f51565b60405161047d9190615092565b6104c46104bf3660046150bc565b610fe3565b604051901515815260200161047d565b6104dc610ffd565b604080519485526020850193909352918301526001600160401b0316606082015260800161047d565b61048e7f000000000000000000000000000000000000000000000000000000000000000081565b600e54600160801b90046001600160801b031661048e565b6104c47f000000000000000000000000000000000000000000000000000000000000000081565b6104c46105793660046150e6565b61102b565b6040516012815260200161047d565b604080516001600160a01b037f0000000000000000000000000000000000000000000000000000000000000000811682527f0000000000000000000000000000000000000000000000000000000000000000811660208301527f00000000000000000000000000000000000000000000000000000000000000008116928201929092527f0000000000000000000000000000000000000000000000000000000000000000821660608201527f0000000000000000000000000000000000000000000000000000000000000000821660808201527f0000000000000000000000000000000000000000000000000000000000000000821660a08201527f0000000000000000000000000000000000000000000000000000000000000000821660c08201527f00000000000000000000000000000000000000000000000000000000000000009190911660e08201527f000000000000000000000000000000000000000000000000000000000000000015156101008201527f000000000000000000000000000000000000000000000000000000000000000015156101208201526101400161047d565b7f0000000000000000000000000000000000000000000000000000000000000000610469565b6104c46107693660046150bc565b611051565b61078161077c36600461517b565b611073565b005b61048e6107913660046151d1565b611216565b6107816107a43660046151fd565b61128c565b6107816112f7565b61048e6107bf366004615234565b61136f565b61048e7f000000000000000000000000000000000000000000000000000000000000000081565b6104c47f000000000000000000000000000000000000000000000000000000000000000081565b61048e60105481565b61048e610829366004615259565b60126020526000908152604090205481565b6104a46113a5565b61048e610851366004615234565b611433565b600554600160a01b900460ff166104c4565b600a54610469906001600160a01b031681565b61048e6108893660046151d1565b611469565b61048e61089c366004615259565b6001600160a01b031660009081526020819052604090205490565b61078161158c565b61048e6108cd36600461528b565b61159e565b6107816108e03660046152c7565b611951565b600f54610903906001600160801b0380821691600160801b90041682565b604080516001600160801b0393841681529290911660208301520161047d565b610781611a1c565b610781610939366004615259565b611afc565b6104c461094c366004615259565b60096020526000908152604090205460ff1681565b6005546001600160a01b0316610469565b61048e610980366004615234565b611b90565b600c546109b7906001600160401b0380821691600160401b8104821691600160801b8204811691600160c01b90041684565b604080516001600160401b039586168152938516602085015291841691830191909152909116606082015260800161047d565b6104a4611bc6565b610781610a0036600461532e565b611c51565b60408051620186a0808252602082018190529181018290526060810191909152670de0b6b3a7640000608082015263096ba6c460a0820152600060c082015261c35060e08201526101000161047d565b6104697f000000000000000000000000000000000000000000000000000000000000000081565b61048e610a8a36600461545a565b611e86565b6104c4610a9d3660046150bc565b612423565b6104c4610ab03660046150bc565b6124a9565b6104697f000000000000000000000000000000000000000000000000000000000000000081565b6104c4610aea366004615259565b60146020526000908152604090205460ff1681565b610781610b0d36600461517b565b6124b7565b61048e610b20366004615259565b60116020526000908152604090205481565b610b45610b40366004615259565b612635565b6040805193845260208401929092529082015260600161047d565b61048e610b6e366004615526565b61268a565b61048e7f000000000000000000000000000000000000000000000000000000000000000081565b61048e610ba8366004615234565b612700565b6104697f000000000000000000000000000000000000000000000000000000000000000081565b6104a4612736565b6104c4610bea366004615259565b60136020526000908152604090205460ff1681565b61048e610c0d366004615559565b612743565b610781610c203660046151d1565b612b8e565b604080518082018252600e546001600160801b03808216808452600160801b928390048216602094850181905285518087018752600f54808516808352959004909316928501839052601054865192835294820152938401919091526060830152608082015260a00161047d565b6104697f000000000000000000000000000000000000000000000000000000000000000081565b610781610cc83660046151d1565b612be1565b61048e7f000000000000000000000000000000000000000000000000000000000000000081565b61048e7f000000000000000000000000000000000000000000000000000000000000000081565b61048e610d293660046155c0565b612ca0565b61048e610d3c3660046155ea565b612e5e565b61048e610d4f366004615606565b612e89565b6104697f000000000000000000000000000000000000000000000000000000000000000081565b6104697f000000000000000000000000000000000000000000000000000000000000000081565b610781610db0366004615259565b612fcb565b61048e7f000000000000000000000000000000000000000000000000000000000000000081565b600e54610903906001600160801b0380821691600160801b90041682565b6104697f000000000000000000000000000000000000000000000000000000000000000081565b600d54610e439063ffffffff811690600160201b90046001600160e01b031682565b6040805163ffffffff90931683526001600160e01b0390911660208301520161047d565b604080517f000000000000000000000000000000000000000000000000000000000000000081527f000000000000000000000000000000000000000000000000000000000000000060208201527f0000000000000000000000000000000000000000000000000000000000000000918101919091527f000000000000000000000000000000000000000000000000000000000000000060608201527f0000000000000000000000000000000000000000000000000000000000000000608082015260a00161047d565b6000610f3a613044565b610f4261309d565b9050610f4e6001600655565b90565b6060600b8054610f6090615632565b80601f0160208091040260200160405190810160405280929190818152602001828054610f8c90615632565b8015610fd95780601f10610fae57610100808354040283529160200191610fd9565b820191906000526020600020905b815481529060010190602001808311610fbc57829003601f168201915b5050505050905090565b600033610ff18185856133d7565b60019150505b92915050565b60008060008061100b613044565b6110136134fc565b93509350935093506110256001600655565b90919293565b600033611039858285613a88565b611044858585613afc565b60019150505b9392505050565b600033610ff18185856110648383612e5e565b61106e9190615682565b6133d7565b337f000000000000000000000000000000000000000000000000000000000000000080156110d457503360009081526014602052604090205460ff1615806110d457506001600160a01b03811660009081526014602052604090205460ff16155b156110f2576040516395a584f760e01b815260040160405180910390fd5b60005b8381101561120f57828061113857503385858381811061111757611117615695565b905060200201602081019061112c9190615259565b6001600160a01b031614155b156111fd57826014600087878581811061115457611154615695565b90506020020160208101906111699190615259565b6001600160a01b031681526020810191909152604001600020805460ff19169115159190911790558484828181106111a3576111a3615695565b90506020020160208101906111b89190615259565b6001600160a01b03167f3bb51c63bf139c4bc98211d74c51aafae8b743fd3090bee8b6bfe2026678a250846040516111f4911515815260200190565b60405180910390a25b80611207816156ab565b9150506110f5565b5050505050565b6000611220613044565b6112286134fc565b505060408051808201909152600f546001600160801b038082168352600160801b9091041660208201529150611262905081856001613ca0565b91506112818161127184613d3c565b61127a87613d3c565b3387613da9565b50610ff76001600655565b611294613edf565b6001600160a01b038216600081815260096020908152604091829020805460ff19168515159081179091558251938452908301527fea1eefb4fd58778d7b274fe54045a9feeec8f2847899c2e71126d3a74d486da5910160405180910390a15050565b336001600160a01b037f0000000000000000000000000000000000000000000000000000000000000000161480159061133b57506005546001600160a01b03163314155b1561135957604051638f5b12a760e01b815260040160405180910390fd5b6113616134fc565b5050505061136d613f39565b565b60408051808201909152600e546001600160801b038082168352600160801b90910416602082015260009061104a908484613ca0565b600780546113b290615632565b80601f01602080910402602001604051908101604052809291908181526020018280546113de90615632565b801561142b5780601f106114005761010080835404028352916020019161142b565b820191906000526020600020905b81548152906001019060200180831161140e57829003601f168201915b505050505081565b60408051808201909152600e546001600160801b038082168352600160801b90910416602082015260009061104a908484613f8e565b6000611473613044565b61147b614003565b156114995760405163b063a8a560e01b815260040160405180910390fd5b6114a1614058565b817f0000000000000000000000000000000000000000000000000000000000000000801561150257503360009081526014602052604090205460ff16158061150257506001600160a01b03811660009081526014602052604090205460ff16155b15611520576040516395a584f760e01b815260040160405180910390fd5b6115286134fc565b505060408051808201909152600e546001600160801b038082168352600160801b9091041660208201529150611562905081866000613f8e565b92506115808161157187613d3c565b61157a86613d3c565b876140a5565b5050610ff76001600655565b611594613edf565b61136d60006141a5565b60006115a8614058565b6115b0613044565b337f0000000000000000000000000000000000000000000000000000000000000000801561161157503360009081526014602052604090205460ff16158061161157506001600160a01b03811660009081526014602052604090205460ff16155b1561162f576040516395a584f760e01b815260040160405180910390fd5b8342111561165e57604051635ba2a8d560e01b8152426004820152602481018590526044015b60405180910390fd5b6116666134fc565b50505050600061167461309d565b905061168084826141f7565b1561169e57604051633af2cafd60e11b815260040160405180910390fd5b604080518082018252600f546001600160801b038082168352600160801b909104166020808301919091526001600160a01b03871660009081526011825283812054601290925292832054919290916116f690613d3c565b9050600080670de0b6b3a764000086611719876001600160801b038f1685613ca0565b61172391906156c4565b61172d91906156db565b90506000620186a061175f7f000000000000000000000000000000000000000000000000000000000000000082615682565b61176990846156c4565b61177391906156db565b905061177e8161431d565b6117878661431d565b61179191906156fd565b925060008313156117e357620186a06117ca7f000000000000000000000000000000000000000000000000000000000000000082615682565b6117d490846156c4565b6117de91906156db565b6117e5565b845b98506000915061180a9050611805866001600160801b038e166001613ca0565b613d3c565b9050600080600084136118a9576118218d86615724565b91506001600160801b038216156118a95761184a611805886001600160801b0385166000613ca0565b9050808760000181815161185e9190615724565b6001600160801b03908116909152600e8054849350909160009161188491859116615724565b92506101000a8154816001600160801b0302191690836001600160801b031602179055505b8a6001600160a01b03167f35f432a64bd3767447a456650432406c6cacb885819947a202216eeea6820ecf8b8f8686866040516119139594939291909485526001600160801b03938416602086015291831660408501528216606084015216608082015260a00190565b60405180910390a2506119348683838f61192d9190615744565b338e613da9565b61193f89338c614387565b505050505050505061104a6001600655565b611959614058565b600a546001600160a01b0316331461198457604051633b6b86b160e01b815260040160405180910390fd5b61c3508163ffffffff1611156119ad5760405163da0afa5760e01b815260040160405180910390fd5b6119b56134fc565b5050600c80546fffffffffffffffff0000000000000000191663ffffffff8516600160401b8102919091179091556040519081527f58a58c712558f3d6e20bed57421eb8f73048d881dea9e5bb80efb37c49680d1c9250602001905060405180910390a150565b336001600160a01b037f00000000000000000000000000000000000000000000000000000000000000001614801590611a7e5750336001600160a01b037f00000000000000000000000000000000000000000000000000000000000000001614155b8015611a9557506005546001600160a01b03163314155b8015611aca5750336001600160a01b037f00000000000000000000000000000000000000000000000000000000000000001614155b15611ae857604051638f5b12a760e01b815260040160405180910390fd5b611af06134fc565b5050505061136d61446d565b600a546001600160a01b03163314611b2757604051633b6b86b160e01b815260040160405180910390fd5b600a54604080516001600160a01b03928316815291831660208301527f582d6cc2f042c43e00e0dd5c187f575daac294216d2afa075d9e1e27b0a40a94910160405180910390a1600a80546001600160a01b0319166001600160a01b0392909216919091179055565b60408051808201909152600f546001600160801b038082168352600160801b90910416602082015260009061104a908484613ca0565b6060611bfa7f00000000000000000000000000000000000000000000000000000000000000006001600160a01b03166144b0565b611c2c7f00000000000000000000000000000000000000000000000000000000000000006001600160a01b03166144b0565b604051602001611c3d929190615764565b604051602081830303815290604052905090565b336001600160a01b037f00000000000000000000000000000000000000000000000000000000000000001614611c9a57604051638b906c9760e01b815260040160405180910390fd5b6000879003611cbc57604051631ff3ed9d60e01b815260040160405180910390fd5b600b8054611cc990615632565b159050611ce85760405162dc149f60e41b815260040160405180910390fd5b600b611cf5888a83615807565b5060005b85811015611d6657600160136000898985818110611d1957611d19615695565b9050602002016020810190611d2e9190615259565b6001600160a01b031681526020810191909152604001600020805460ff1916911515919091179055611d5f816156ab565b9050611cf9565b5060005b83811015611dd757600160146000878785818110611d8a57611d8a615695565b9050602002016020810190611d9f9190615259565b6001600160a01b031681526020810191909152604001600020805460ff1916911515919091179055611dd0816156ab565b9050611d6a565b5060405163453f31d560e01b81526001600160a01b037f0000000000000000000000000000000000000000000000000000000000000000169063453f31d590611e2690859085906004016158c6565b60006040518083038186803b158015611e3e57600080fd5b505afa158015611e52573d6000803e3d6000fd5b5060089250611e6691508390508483615807565b50611e6f6134fc565b50505050611e7b61309d565b505050505050505050565b6000611e90614003565b15611eae5760405163b063a8a560e01b815260040160405180910390fd5b611eb6613044565b611ebe614058565b7f00000000000000000000000000000000000000000000000000000000000000008015611efb57503360009081526013602052604090205460ff16155b15611f19576040516342f41ddd60e11b815260040160405180910390fd5b33611f226134fc565b50505050611f2e61309d565b506001600160a01b0387166000908152600960205260409020547f0000000000000000000000000000000000000000000000000000000000000000907f00000000000000000000000000000000000000000000000000000000000000009060ff16611fac57604051631311dc6d60e01b815260040160405180910390fd5b816001600160a01b031685600081518110611fc957611fc9615695565b60200260200101516001600160a01b03161461202b578185600081518110611ff357611ff3615695565b602002602001015160405163b0b3262d60e01b81526004016116559291906001600160a01b0392831681529116602082015260400190565b806001600160a01b0316856001875161204491906158f5565b8151811061205457612054615695565b60200260200101516001600160a01b03161461208a5780856001875161207a91906158f5565b81518110611ff357611ff3615695565b861561209b5761209b33883361456b565b60006120af6120a98a613d3c565b3061463b565b60405163095ea7b360e01b81526001600160a01b038c81166004830152602482018c90529192509084169063095ea7b3906044016020604051808303816000875af1158015612102573d6000803e3d6000fd5b505050506040513d601f19601f820116820180604052508101906121269190615908565b506040516370a0823160e01b81523060048201526000906001600160a01b038416906370a0823190602401602060405180830381865afa15801561216e573d6000803e3d6000fd5b505050506040513d601f19601f820116820180604052508101906121929190615925565b6040516338ed173960e01b81529091506001600160a01b038c16906338ed1739906121c9908d908c908c903090429060040161593e565b6000604051808303816000875af11580156121e8573d6000803e3d6000fd5b505050506040513d6000823e601f3d908101601f1916820160405261221091908101906159af565b506040516370a0823160e01b81523060048201526000906001600160a01b038516906370a0823190602401602060405180830381865afa158015612258573d6000803e3d6000fd5b505050506040513d601f19601f8201168201806040525081019061227c9190615925565b9050600061228a83836158f5565b9050898110156122b757604051633b5d56ed60e11b8152600481018b905260248101829052604401611655565b6122c230823361456b565b6122cc818c615682565b9750336001600160a01b03167fb19ca0df3f3a01af950d8e6ad62aeff167cf14c73e98af6c52afef1add5c97ed8e8e878f866040516123389594939291906001600160a01b03959095168552602085019390935260408401919091526060830152608082015260a00190565b60405180910390a25050600d546123669450859350600160201b90046001600160e01b031691506141f79050565b61240f576001600160a01b038116600090815260126020908152604091829020548251808401909352600f546001600160801b038082168552600160801b90910416918301919091526123bb91906001613ca0565b6001600160a01b0382166000908152601160205260409081902054600d549151633b49de0f60e21b815260048101939093526024830152600160201b90046001600160e01b03166044820152606401611655565b5061241a6001600655565b95945050505050565b600033816124318286612e5e565b9050838110156124915760405162461bcd60e51b815260206004820152602560248201527f45524332303a2064656372656173656420616c6c6f77616e63652062656c6f77604482015264207a65726f60d81b6064820152608401611655565b61249e82868684036133d7565b506001949350505050565b600033610ff1818585613afc565b7f000000000000000000000000000000000000000000000000000000000000000080156124f457503360009081526013602052604090205460ff16155b15612512576040516342f41ddd60e11b815260040160405180910390fd5b60005b8281101561262f57818061255857503384848381811061253757612537615695565b905060200201602081019061254c9190615259565b6001600160a01b031614155b1561261d57816013600086868581811061257457612574615695565b90506020020160208101906125899190615259565b6001600160a01b031681526020810191909152604001600020805460ff19169115159190911790558383828181106125c3576125c3615695565b90506020020160208101906125d89190615259565b6001600160a01b03167f9c798cce2c4fdbec95a1a6dbba64db726912274dac938f44e36bce9b779cfee883604051612614911515815260200190565b60405180910390a25b80612627816156ab565b915050612515565b50505050565b6000806000612659846001600160a01b031660009081526020819052604090205490565b6001600160a01b03909416600090815260126020908152604080832054601190925290912054949590949350915050565b6000612694613044565b61269c6134fc565b505060408051808201909152600e546001600160801b038082168352600160801b90910416602082015291506126d6905081866000613ca0565b91506126f5816126e584613d3c565b6126ee88613d3c565b8787614808565b5061104a6001600655565b60408051808201909152600f546001600160801b038082168352600160801b90910416602082015260009061104a908484613f8e565b600880546113b290615632565b600061274d613044565b336127566134fc565b5050505061276261309d565b506001600160a01b0387166000908152600960205260409020547f0000000000000000000000000000000000000000000000000000000000000000907f00000000000000000000000000000000000000000000000000000000000000009060ff166127e057604051631311dc6d60e01b815260040160405180910390fd5b806001600160a01b0316868660008181106127fd576127fd615695565b90506020020160208101906128129190615259565b6001600160a01b03161461287557808686600081811061283457612834615695565b90506020020160208101906128499190615259565b60405163b0b3262d60e01b81526001600160a01b03928316600482015291166024820152604401611655565b6001600160a01b038216868661288c6001826158f5565b81811061289b5761289b615695565b90506020020160208101906128b09190615259565b6001600160a01b0316146128db578186866128cc6001826158f5565b81811061283457612834615695565b6128e6883033614387565b60405163095ea7b360e01b81526001600160a01b038a81166004830152602482018a905282169063095ea7b3906044016020604051808303816000875af1158015612935573d6000803e3d6000fd5b505050506040513d601f19601f820116820180604052508101906129599190615908565b506040516370a0823160e01b81523060048201526000906001600160a01b038416906370a0823190602401602060405180830381865afa1580156129a1573d6000803e3d6000fd5b505050506040513d601f19601f820116820180604052508101906129c59190615925565b6040516338ed173960e01b81529091506001600160a01b038b16906338ed1739906129fe908c908c908c908c9030904290600401615a34565b6000604051808303816000875af1158015612a1d573d6000803e3d6000fd5b505050506040513d6000823e601f3d908101601f19168201604052612a4591908101906159af565b506040516370a0823160e01b81523060048201526000906001600160a01b038516906370a0823190602401602060405180830381865afa158015612a8d573d6000803e3d6000fd5b505050506040513d601f19601f82011682018060405250810190612ab19190615925565b9050612abd82826158f5565b955088861015612aea57604051633b5d56ed60e11b8152600481018a905260248101879052604401611655565b60408051808201909152600f546001600160801b038082168352600160801b9091041660208201526000612b1f828983613f8e565b9050612b3e82612b2e8a613d3c565b612b3784613d3c565b3033613da9565b604080516001600160a01b038f168152602081018e90529081018990526060810182905233907fe947f0f9b6255bdcf76d13d1257d34fbe380e0d5d4daa75e61c783a41e1607ba90608001612338565b612b96613044565b612b9e614003565b15612bbc5760405163b063a8a560e01b815260040160405180910390fd5b612bc46134fc565b50505050612bd333838361456b565b612bdd6001600655565b5050565b612be9613044565b33612bf26134fc565b505033600090815260126020526040902054159150612c17905057612c1561309d565b505b612c22838333614387565b600d54612c40908290600160201b90046001600160e01b03166141f7565b612c95576001600160a01b038116600090815260126020908152604091829020548251808401909352600f546001600160801b038082168552600160801b90910416918301919091526123bb91906001613ca0565b50612bdd6001600655565b6000612caa613edf565b604080518082018252600e546001600160801b038082168352600160801b9182900481166020808501919091528451808601909552600f548083168652929092048116918401919091529091908516600003612d13573060009081526020819052604090205494505b612d28826001600160801b0387166001613ca0565b92506000612d3683836149bb565b905083811015612d63576040516362ddb6d760e11b81526004810182905260248101859052604401611655565b8383600001818151612d759190615724565b6001600160801b0316905250602083018051879190612d95908390615724565b6001600160801b03908116909152612db19150309088166149db565b825160208401516001600160801b03908116600160801b02911617600e55612e036001600160a01b037f0000000000000000000000000000000000000000000000000000000000000000168686614b0a565b604080516001600160801b03881681526001600160a01b03871660208201529081018590527f14f6e172cd596e9f9c5d24e2d4010daa24f8f65f9274b259b66517b306c617b99060600160405180910390a150505092915050565b6001600160a01b03918216600090815260016020908152604080832093909416825291909152205490565b6000612e93614003565b15612eb15760405163b063a8a560e01b815260040160405180910390fd5b612eb9614058565b612ec1613044565b337f00000000000000000000000000000000000000000000000000000000000000008015612eff57503360009081526013602052604090205460ff16155b15612f1d576040516342f41ddd60e11b815260040160405180910390fd5b612f256134fc565b50505050612f3161309d565b508315612f4357612f4333853361456b565b612f55612f4f86613d3c565b8461463b565b600d54909250612f76908290600160201b90046001600160e01b03166141f7565b6126f5576001600160a01b038116600090815260126020908152604091829020548251808401909352600f546001600160801b038082168552600160801b90910416918301919091526123bb91906001613ca0565b612fd3613edf565b6001600160a01b0381166130385760405162461bcd60e51b815260206004820152602660248201527f4f776e61626c653a206e6577206f776e657220697320746865207a65726f206160448201526564647265737360d01b6064820152608401611655565b613041816141a5565b50565b6002600654036130965760405162461bcd60e51b815260206004820152601f60248201527f5265656e7472616e637947756172643a207265656e7472616e742063616c6c006044820152606401611655565b6002600655565b60408051808201909152600d5463ffffffff8116808352600160201b9091046001600160e01b03166020830152600091904290036130e757602001516001600160e01b0316919050565b6ec097ce7bc90715b34b9f10000000007f00000000000000000000000000000000000000000000000000000000000000006001600160a01b03161561320a5760007f00000000000000000000000000000000000000000000000000000000000000006001600160a01b031663feaf968c6040518163ffffffff1660e01b815260040160a060405180830381865afa158015613186573d6000803e3d6000fd5b505050506040513d601f19601f820116820180604052508101906131aa9190615abf565b505050915050600081136131fc576040516322ad99db60e21b81526001600160a01b037f0000000000000000000000000000000000000000000000000000000000000000166004820152602401611655565b61320681836156c4565b9150505b7f00000000000000000000000000000000000000000000000000000000000000006001600160a01b03161561331d5760007f00000000000000000000000000000000000000000000000000000000000000006001600160a01b031663feaf968c6040518163ffffffff1660e01b815260040160a060405180830381865afa158015613299573d6000803e3d6000fd5b505050506040513d601f19601f820116820180604052508101906132bd9190615abf565b5050509150506000811361330f576040516322ad99db60e21b81526001600160a01b037f0000000000000000000000000000000000000000000000000000000000000000166004820152602401611655565b61331981836156db565b9150505b6133477f0000000000000000000000000000000000000000000000000000000000000000826156db565b92506001600160e01b038311156133715760405163057b0e2160e41b815260040160405180910390fd5b6001600160e01b0383166020830181905263ffffffff4216808452600160201b90910217600d556040517f4fc1b45960547ee95894b08a284c3c066cf5aca706a7420639c42c3ec2e118a4906133ca9085815260200190565b60405180910390a1505090565b6001600160a01b0383166134395760405162461bcd60e51b8152602060048201526024808201527f45524332303a20617070726f76652066726f6d20746865207a65726f206164646044820152637265737360e01b6064820152608401611655565b6001600160a01b03821661349a5760405162461bcd60e51b815260206004820152602260248201527f45524332303a20617070726f766520746f20746865207a65726f206164647265604482015261737360f01b6064820152608401611655565b6001600160a01b0383811660008181526001602090815260408083209487168084529482529182902085905590518481527f8c5be1e5ebec7d5bd14f71427d1e84f3dd0314c0f7b2291e5b200ac8c7c3b92591015b60405180910390a3505050565b60408051608081018252600c546001600160401b038082168352600160401b820481166020840152600160801b82048116938301849052600160c01b9091041660608201526000918291829182919042900361355d57606001519050611025565b604080518082018252600e546001600160801b038082168352600160801b9182900481166020808501919091528451808601909552600f548083168652929092041690830181905290919015806135bd5750600554600160a01b900460ff165b1561365257600554600160a01b900460ff166135de5763096ba6c460608401525b6001600160401b0342811660408501819052438216808652600c8054602088015160608901518616600160c01b026001600160c01b03600160801b909602959095166001600160801b0391909616600160401b026001600160801b0319909216909317179190911692909217179055613a7f565b600083604001516001600160401b03164261366d91906158f5565b835183519192506000916001600160801b03918216916136919116620186a06156c4565b61369b91906156db565b90506136a5614003565b156136d2577f000000000000000000000000000000000000000000000000000000000000000095506137bf565b60008560600151838388600001516001600160401b0316436136f491906158f5565b604080516001600160401b0390951660208601528401929092526060830152608082015260a00160408051601f1981840301815290829052631b54c1a360e01b825291506001600160a01b037f00000000000000000000000000000000000000000000000000000000000000001690631b54c1a39061377a908490600890600401615b0f565b602060405180830381865afa158015613797573d6000803e3d6000fd5b505050506040513d601f19601f820116820180604052508101906137bb9190615baa565b9650505b606080860151604080516001600160401b03928316815260208101869052908101849052908816918101919091527fc63977c8e2362a31182dc8e89a52252f9836922738e0abcfc0de6924972eafe59060800160405180910390a16001600160401b038087166060870181905242821660408801524390911686528351670de0b6b3a7640000919061385a906001600160801b0316856156c4565b61386491906156c4565b61386e91906156db565b83519099506001600160801b03906138889082168b615682565b111580156138ab575083516001600160801b03906138a89082168b615682565b11155b156139e75788836000018181516138c29190615744565b6001600160801b03169052508351899085906138df908390615744565b6001600160801b031690525060208501516001600160401b03161561398a57620186a085602001516001600160401b03168a61391b91906156c4565b61392591906156db565b845190985061393e9089906001600160801b03166158f5565b6020850151613956906001600160801b03168a6156c4565b61396091906156db565b965086846020018181516139749190615744565b6001600160801b031690525061398a3088614b15565b606080860151604080518c81526001600160401b0390921660208301528101849052908101899052608081018890527f50225349cc7e3814c4fa5fe6baef7a3c4cac55e92c64b1f4a5d1ba55e65dcc829060a00160405180910390a15b505081516020808401516001600160801b03908116600160801b90810293821693909317600e558551600c80548885015160408a015160608b01516001600160401b03908116600160c01b026001600160c01b039282168a0292909216928116600160401b026001600160801b031994909416951694909417919091178416179190911790558351918401518116909202911617600f555b50505090919293565b6000613a948484612e5e565b9050600019811461262f5781811015613aef5760405162461bcd60e51b815260206004820152601d60248201527f45524332303a20696e73756666696369656e7420616c6c6f77616e63650000006044820152606401611655565b61262f84848484036133d7565b6001600160a01b038316613b605760405162461bcd60e51b815260206004820152602560248201527f45524332303a207472616e736665722066726f6d20746865207a65726f206164604482015264647265737360d81b6064820152608401611655565b6001600160a01b038216613bc25760405162461bcd60e51b815260206004820152602360248201527f45524332303a207472616e7366657220746f20746865207a65726f206164647260448201526265737360e81b6064820152608401611655565b6001600160a01b03831660009081526020819052604090205481811015613c3a5760405162461bcd60e51b815260206004820152602660248201527f45524332303a207472616e7366657220616d6f756e7420657863656564732062604482015265616c616e636560d01b6064820152608401611655565b6001600160a01b03848116600081815260208181526040808320878703905593871680835291849020805487019055925185815290927fddf252ad1be2c89b69c2b068fc378daa952ba7f163c4a11628f55a4df523b3ef910160405180910390a361262f565b600083602001516001600160801b0316600003613cbe57508161104a565b602084015184516001600160801b0391821691613cdc9116856156c4565b613ce691906156db565b9050818015613d2457508284600001516001600160801b031685602001516001600160801b031683613d1891906156c4565b613d2291906156db565b105b1561104a57613d34816001615682565b949350505050565b60006001600160801b03821115613da55760405162461bcd60e51b815260206004820152602760248201527f53616665436173743a2076616c756520646f65736e27742066697420696e20316044820152663238206269747360c81b6064820152608401611655565b5090565b8385600001818151613dbb9190615724565b6001600160801b0316905250602085018051849190613ddb908390615724565b6001600160801b039081169091526001600160a01b03831660009081526012602052604081208054928716935091613e149084906158f5565b9091555050845160208601516001600160801b03908116600160801b02911617600f556001600160a01b0382163014613e8557613e856001600160a01b037f00000000000000000000000000000000000000000000000000000000000000001683306001600160801b038816614bd4565b604080516001600160801b038087168252851660208201526001600160a01b0380841692908516917f9dc1449a0ff0c152e18e8289d865b47acc6e1b76b1ecb239c13d6ee22a9206a7910160405180910390a35050505050565b6005546001600160a01b0316331461136d5760405162461bcd60e51b815260206004820181905260248201527f4f776e61626c653a2063616c6c6572206973206e6f7420746865206f776e65726044820152606401611655565b613f41614be0565b6005805460ff60a01b191690557f5db9ee0a495bf2e6ff9c91a7834c1ba4fdd244a5e8aa4e537bd38aeae4b073aa335b6040516001600160a01b03909116815260200160405180910390a1565b82516000906001600160801b03168103613fa957508161104a565b835160208501516001600160801b0391821691613fc79116856156c4565b613fd191906156db565b9050818015613d2457508284602001516001600160801b031685600001516001600160801b031683613d1891906156c4565b60007f00000000000000000000000000000000000000000000000000000000000000001580159061405357507f000000000000000000000000000000000000000000000000000000000000000042115b905090565b600554600160a01b900460ff161561136d5760405162461bcd60e51b815260206004820152601060248201526f14185d5cd8589b194e881c185d5cd95960821b6044820152606401611655565b82846000018181516140b79190615744565b6001600160801b03169052506020840180518391906140d7908390615744565b6001600160801b039081169091526140f3915082908416614b15565b835160208501516001600160801b03908116600160801b0291811691909117600e5561414f906001600160a01b037f00000000000000000000000000000000000000000000000000000000000000001690339030908716614bd4565b604080516001600160801b038086168252841660208201526001600160a01b0383169133917fdcbc1c05240f31ff3ad067ef1ee35ce4997762752e3a095284754544f4c709d7910160405180910390a350505050565b600580546001600160a01b038381166001600160a01b0319831681179093556040519116919082907f8be0079c531659141344cd1fd0a4f28419497f9722a3daafe3b4186f6b6457e090600090a35050565b60007f000000000000000000000000000000000000000000000000000000000000000060000361422957506001610ff7565b6001600160a01b0383166000908152601260209081526040808320548151808301909252600f546001600160801b038082168452600160801b9091041692820192909252614278916001613ca0565b90508060000361428c576001915050610ff7565b6001600160a01b038416600090815260116020526040812054908190036142b857600092505050610ff7565b600081620186a0670de0b6b3a76400006142d288876156c4565b6142dc91906156db565b6142e691906156c4565b6142f091906156db565b7f000000000000000000000000000000000000000000000000000000000000000010159695505050505050565b60006001600160ff1b03821115613da55760405162461bcd60e51b815260206004820152602860248201527f53616665436173743a2076616c756520646f65736e27742066697420696e2061604482015267371034b73a191a9b60c11b6064820152608401611655565b6001600160a01b038116600090815260116020526040812080548592906143af9084906158f5565b9250508190555082601060008282546143c891906158f5565b90915550506001600160a01b0382163014614411576144116001600160a01b037f0000000000000000000000000000000000000000000000000000000000000000168385614b0a565b806001600160a01b0316826001600160a01b0316336001600160a01b03167fbc290bb45104f73cf92115c9603987c3f8fd30c182a13603d8cffa49b5f599528660405161446091815260200190565b60405180910390a4505050565b614475614058565b6005805460ff60a01b1916600160a01b1790557f62e78cea01bee320cd4e420270b5ea74000d11b0c9f74754ebdbfc544b05a258613f713390565b60408051600481526024810182526020810180516001600160e01b03166395d89b4160e01b179052905160609160009182916001600160a01b038616916144f79190615bd3565b600060405180830381855afa9150503d8060008114614532576040519150601f19603f3d011682016040523d82523d6000602084013e614537565b606091505b50915091508161456257604051806040016040528060038152602001623f3f3f60e81b815250613d34565b613d3481614c30565b6001600160a01b03811660009081526011602052604081208054849290614593908490615682565b9250508190555081601060008282546145ac9190615682565b90915550506001600160a01b03831630146145f6576145f66001600160a01b037f000000000000000000000000000000000000000000000000000000000000000016843085614bd4565b806001600160a01b0316836001600160a01b03167fa32435755c235de2976ed44a75a2f85cb01faf0c894f639fe0c32bb9455fea8f846040516134ef91815260200190565b604080518082018252600f546001600160801b038082168352600160801b9182900481166020808501919091528451808601909552600e548083168652929092041690830152600091829061469090836149bb565b9050846001600160801b03168110156146ce576040516362ddb6d760e11b8152600481018290526001600160801b0386166024820152604401611655565b6146e3826001600160801b0387166001613f8e565b925084826000018181516146f79190615744565b6001600160801b0316905250602082018051849190614717908390615744565b6001600160801b0390811690915283516020808601518316600160801b029190921617600f55336000908152601290915260408120805486935090919061475f908490615682565b90915550506001600160a01b03841630146147b1576147b16001600160a01b037f000000000000000000000000000000000000000000000000000000000000000016856001600160801b038816614b0a565b604080516001600160801b0387168152602081018590526001600160a01b0386169133917f01348584ec81ac7acd52b7d66d9ade986dd909f3d513881c190fc31c90527efe910160405180910390a3505092915050565b336001600160a01b038216146148495760006148248233612e5e565b9050600019811461484757614847823361106e6001600160801b038816856158f5565b505b60408051808201909152600f546001600160801b038082168352600160801b90910416602082015260009061487f9087906149bb565b9050846001600160801b03168110156148bd576040516362ddb6d760e11b8152600481018290526001600160801b0386166024820152604401611655565b84866000018181516148cf9190615724565b6001600160801b03169052506020860180518591906148ef908390615724565b6001600160801b03908116909152875160208901518216600160801b0290821617600e556149219150839086166149db565b61495e6001600160a01b037f000000000000000000000000000000000000000000000000000000000000000016846001600160801b038816614b0a565b604080516001600160801b038088168252861660208201526001600160a01b03808516929086169133917ffbde797d201c681b91056529119e0b02407c7bb96a4a2c75c01fc9667232c8db910160405180910390a4505050505050565b805182516000916149cb91615724565b6001600160801b03169392505050565b6001600160a01b038216614a3b5760405162461bcd60e51b815260206004820152602160248201527f45524332303a206275726e2066726f6d20746865207a65726f206164647265736044820152607360f81b6064820152608401611655565b6001600160a01b03821660009081526020819052604090205481811015614aaf5760405162461bcd60e51b815260206004820152602260248201527f45524332303a206275726e20616d6f756e7420657863656564732062616c616e604482015261636560f01b6064820152608401611655565b6001600160a01b0383166000818152602081815260408083208686039055600280548790039055518581529192917fddf252ad1be2c89b69c2b068fc378daa952ba7f163c4a11628f55a4df523b3ef91016134ef565b505050565b614b05838383614db2565b6001600160a01b038216614b6b5760405162461bcd60e51b815260206004820152601f60248201527f45524332303a206d696e7420746f20746865207a65726f2061646472657373006044820152606401611655565b8060026000828254614b7d9190615682565b90915550506001600160a01b038216600081815260208181526040808320805486019055518481527fddf252ad1be2c89b69c2b068fc378daa952ba7f163c4a11628f55a4df523b3ef910160405180910390a35050565b61262f84848484614e15565b600554600160a01b900460ff1661136d5760405162461bcd60e51b815260206004820152601460248201527314185d5cd8589b194e881b9bdd081c185d5cd95960621b6044820152606401611655565b60606040825110614c4f5781806020019051810190610ff79190615bef565b8151602003614d8e5760005b60208160ff16108015614c905750828160ff1681518110614c7e57614c7e615695565b01602001516001600160f81b03191615155b15614ca75780614c9f81615c82565b915050614c5b565b60008160ff166001600160401b03811115614cc457614cc46153f1565b6040519080825280601f01601f191660200182016040528015614cee576020820181803683370190505b509050600091505b60208260ff16108015614d2b5750838260ff1681518110614d1957614d19615695565b01602001516001600160f81b03191615155b1561104a57838260ff1681518110614d4557614d45615695565b602001015160f81c60f81b818360ff1681518110614d6557614d65615695565b60200101906001600160f81b031916908160001a90535081614d8681615c82565b925050614cf6565b50506040805180820190915260038152623f3f3f60e81b602082015290565b919050565b6040516001600160a01b038316602482015260448101829052614b0590849063a9059cbb60e01b906064015b60408051601f198184030181529190526020810180516001600160e01b03166001600160e01b031990931692909217909152614e4d565b6040516001600160a01b038085166024830152831660448201526064810182905261262f9085906323b872dd60e01b90608401614dde565b6000614ea2826040518060400160405280602081526020017f5361666545524332303a206c6f772d6c6576656c2063616c6c206661696c6564815250856001600160a01b0316614f1f9092919063ffffffff16565b805190915015614b055780806020019051810190614ec09190615908565b614b055760405162461bcd60e51b815260206004820152602a60248201527f5361666545524332303a204552433230206f7065726174696f6e20646964206e6044820152691bdd081cdd58d8d9595960b21b6064820152608401611655565b6060613d34848460008585600080866001600160a01b03168587604051614f469190615bd3565b60006040518083038185875af1925050503d8060008114614f83576040519150601f19603f3d011682016040523d82523d6000602084013e614f88565b606091505b5091509150614f9987838387614fa4565b979650505050505050565b6060831561501357825160000361500c576001600160a01b0385163b61500c5760405162461bcd60e51b815260206004820152601d60248201527f416464726573733a2063616c6c20746f206e6f6e2d636f6e74726163740000006044820152606401611655565b5081613d34565b613d3483838151156150285781518083602001fd5b8060405162461bcd60e51b81526004016116559190615092565b60005b8381101561505d578181015183820152602001615045565b50506000910152565b6000815180845261507e816020860160208601615042565b601f01601f19169290920160200192915050565b60208152600061104a6020830184615066565b80356001600160a01b0381168114614dad57600080fd5b600080604083850312156150cf57600080fd5b6150d8836150a5565b946020939093013593505050565b6000806000606084860312156150fb57600080fd5b615104846150a5565b9250615112602085016150a5565b9150604084013590509250925092565b60008083601f84011261513457600080fd5b5081356001600160401b0381111561514b57600080fd5b6020830191508360208260051b850101111561516657600080fd5b9250929050565b801515811461304157600080fd5b60008060006040848603121561519057600080fd5b83356001600160401b038111156151a657600080fd5b6151b286828701615122565b90945092505060208401356151c68161516d565b809150509250925092565b600080604083850312156151e457600080fd5b823591506151f4602084016150a5565b90509250929050565b6000806040838503121561521057600080fd5b615219836150a5565b915060208301356152298161516d565b809150509250929050565b6000806040838503121561524757600080fd5b8235915060208301356152298161516d565b60006020828403121561526b57600080fd5b61104a826150a5565b80356001600160801b0381168114614dad57600080fd5b6000806000606084860312156152a057600080fd5b6152a984615274565b9250602084013591506152be604085016150a5565b90509250925092565b6000602082840312156152d957600080fd5b813563ffffffff8116811461104a57600080fd5b60008083601f8401126152ff57600080fd5b5081356001600160401b0381111561531657600080fd5b60208301915083602082850101111561516657600080fd5b6000806000806000806000806080898b03121561534a57600080fd5b88356001600160401b038082111561536157600080fd5b61536d8c838d016152ed565b909a50985060208b013591508082111561538657600080fd5b6153928c838d01615122565b909850965060408b01359150808211156153ab57600080fd5b6153b78c838d01615122565b909650945060608b01359150808211156153d057600080fd5b506153dd8b828c016152ed565b999c989b5096995094979396929594505050565b634e487b7160e01b600052604160045260246000fd5b604051601f8201601f191681016001600160401b038111828210171561542f5761542f6153f1565b604052919050565b60006001600160401b03821115615450576154506153f1565b5060051b60200190565b600080600080600060a0868803121561547257600080fd5b61547b866150a5565b94506020808701359450604087013593506060870135925060808701356001600160401b038111156154ac57600080fd5b8701601f810189136154bd57600080fd5b80356154d06154cb82615437565b615407565b81815260059190911b8201830190838101908b8311156154ef57600080fd5b928401925b8284101561551457615505846150a5565b825292840192908401906154f4565b80955050505050509295509295909350565b60008060006060848603121561553b57600080fd5b8335925061554b602085016150a5565b91506152be604085016150a5565b60008060008060006080868803121561557157600080fd5b61557a866150a5565b9450602086013593506040860135925060608601356001600160401b038111156155a357600080fd5b6155af88828901615122565b969995985093965092949392505050565b600080604083850312156155d357600080fd5b6155dc83615274565b91506151f4602084016150a5565b600080604083850312156155fd57600080fd5b6155dc836150a5565b60008060006060848603121561561b57600080fd5b83359250602084013591506152be604085016150a5565b600181811c9082168061564657607f821691505b60208210810361566657634e487b7160e01b600052602260045260246000fd5b50919050565b634e487b7160e01b600052601160045260246000fd5b80820180821115610ff757610ff761566c565b634e487b7160e01b600052603260045260246000fd5b6000600182016156bd576156bd61566c565b5060010190565b8082028115828204841417610ff757610ff761566c565b6000826156f857634e487b7160e01b600052601260045260246000fd5b500490565b818103600083128015838313168383128216171561571d5761571d61566c565b5092915050565b6001600160801b0382811682821603908082111561571d5761571d61566c565b6001600160801b0381811683821601908082111561571d5761571d61566c565b6c0233930bc3632b7322b1890169609d1b81526000835161578c81600d850160208801615042565b602f60f81b600d9184019182015283516157ad81600e840160208801615042565b01600e01949350505050565b601f821115614b0557600081815260208120601f850160051c810160208610156157e05750805b601f850160051c820191505b818110156157ff578281556001016157ec565b505050505050565b6001600160401b0383111561581e5761581e6153f1565b6158328361582c8354615632565b836157b9565b6000601f841160018114615866576000851561584e5750838201355b600019600387901b1c1916600186901b17835561120f565b600083815260209020601f19861690835b828110156158975786850135825560209485019460019092019101615877565b50868210156158b45760001960f88860031b161c19848701351681555b505060018560011b0183555050505050565b60208152816020820152818360408301376000818301604090810191909152601f909201601f19160101919050565b81810381811115610ff757610ff761566c565b60006020828403121561591a57600080fd5b815161104a8161516d565b60006020828403121561593757600080fd5b5051919050565b600060a082018783526020878185015260a0604085015281875180845260c086019150828901935060005b8181101561598e5784516001600160a01b031683529383019391830191600101615969565b50506001600160a01b03969096166060850152505050608001529392505050565b600060208083850312156159c257600080fd5b82516001600160401b038111156159d857600080fd5b8301601f810185136159e957600080fd5b80516159f76154cb82615437565b81815260059190911b82018301908381019087831115615a1657600080fd5b928401925b82841015614f9957835182529284019290840190615a1b565b868152602080820187905260a0604083018190528201859052600090869060c08401835b88811015615a84576001600160a01b03615a71856150a5565b1682529282019290820190600101615a58565b506001600160a01b0396909616606085015250505060800152949350505050565b805169ffffffffffffffffffff81168114614dad57600080fd5b600080600080600060a08688031215615ad757600080fd5b615ae086615aa5565b9450602086015193506040860151925060608601519150615b0360808701615aa5565b90509295509295909350565b604081526000615b226040830185615066565b60208382038185015260008554615b3881615632565b80855260018281168015615b535760018114615b6d57615b9b565b60ff1984168787015282151560051b870186019450615b9b565b896000528560002060005b84811015615b93578154898201890152908301908701615b78565b880187019550505b50929998505050505050505050565b600060208284031215615bbc57600080fd5b81516001600160401b038116811461104a57600080fd5b60008251615be5818460208701615042565b9190910192915050565b600060208284031215615c0157600080fd5b81516001600160401b0380821115615c1857600080fd5b818401915084601f830112615c2c57600080fd5b815181811115615c3e57615c3e6153f1565b615c51601f8201601f1916602001615407565b9150808252856020828501011115615c6857600080fd5b615c79816020840160208601615042565b50949350505050565b600060ff821660ff8103615c9857615c9861566c565b6001019291505056fea264697066735822122005b78e73b6774601d7896aec422743fa153ac2d4027848994508564f3e03c19c64736f6c63430008110033",
    "linkReferences": {}
  },
  "methodIdentifiers": {
    "CIRCUIT_BREAKER_ADDRESS()": "ad0c3bb5",
    "COMPTROLLER_ADDRESS()": "fbaa8b85",
    "DEPLOYER_ADDRESS()": "d2a156e0",
    "FRAXLEND_WHITELIST_ADDRESS()": "ef14900d",
    "TIME_LOCK_ADDRESS()": "657a409c",
    "addCollateral(uint256,address)": "cadac479",
    "addInterest()": "0d09365c",
    "allowance(address,address)": "dd62ed3e",
    "approve(address,uint256)": "095ea7b3",
    "approvedBorrowers(address)": "c936c624",
    "approvedLenders(address)": "afa85de6",
    "asset()": "38d52e0f",
    "balanceOf(address)": "70a08231",
    "borrowAsset(uint256,uint256,address)": "e5f13b16",
    "borrowerWhitelistActive()": "2165d72f",
    "changeFee(uint32)": "8142dd53",
    "cleanLiquidationFee()": "11a2e4bc",
    "collateralContract()": "c6e1c7c9",
    "currentRateInfo()": "95d14ca8",
    "decimals()": "313ce567",
    "decreaseAllowance(address,uint256)": "a457c2d7",
    "deposit(uint256,address)": "6e553f65",
    "dirtyLiquidationFee()": "4732428c",
    "exchangeRateInfo()": "fbbbf94c",
    "getConstants()": "9a295e73",
    "getImmutableAddressBool()": "36fad62d",
    "getImmutableUint256()": "fea10d5d",
    "getPairAccounting()": "cdd72d52",
    "getUserSnapshot(address)": "b68d0a09",
    "increaseAllowance(address,uint256)": "39509351",
    "initialize(string,address[],address[],bytes)": "99024fc1",
    "lenderWhitelistActive()": "4962e494",
    "leveragedPosition(address,uint256,uint256,uint256,address[])": "a053db68",
    "liquidate(uint128,uint256,address)": "721b0a47",
    "maturityDate()": "d59624b4",
    "maxLTV()": "f384bd05",
    "name()": "06fdde03",
    "oracleDivide()": "0053f733",
    "oracleMultiply()": "9bdff2e6",
    "oracleNormalization()": "c10c92a1",
    "owner()": "8da5cb5b",
    "pause()": "8456cb59",
    "paused()": "5c975abb",
    "penaltyRate()": "d6b7494f",
    "rateContract()": "eee24219",
    "rateInitCallData()": "c7be9786",
    "redeem(uint256,address,address)": "ba087652",
    "removeCollateral(uint256,address)": "d41ddc96",
    "renounceOwnership()": "715018a6",
    "repayAsset(uint256,address)": "3d417d2d",
    "repayAssetWithCollateral(address,uint256,uint256,address[])": "ca2298fe",
    "setApprovedBorrowers(address[],bool)": "b054898b",
    "setApprovedLenders(address[],bool)": "3cc32aba",
    "setSwapper(address,bool)": "3f2617cb",
    "setTimeLock(address)": "891682d2",
    "swappers(address)": "8cad7fbe",
    "symbol()": "95d89b41",
    "toAssetAmount(uint256,bool)": "404ffa7a",
    "toAssetShares(uint256,bool)": "56968f97",
    "toBorrowAmount(uint256,bool)": "94e301e0",
    "toBorrowShares(uint256,bool)": "c270a544",
    "totalAsset()": "f9557ccb",
    "totalBorrow()": "8285ef40",
    "totalCollateral()": "4ac8eb5f",
    "totalSupply()": "18160ddd",
    "transfer(address,uint256)": "a9059cbb",
    "transferFrom(address,address,uint256)": "23b872dd",
    "transferOwnership(address)": "f2fde38b",
    "unpause()": "3f4ba83a",
    "updateExchangeRate()": "02ce728f",
    "userBorrowShares(address)": "4fd422df",
    "userCollateralBalance(address)": "b5af3062",
    "version()": "54fd4d50",
    "withdrawFees(uint128,address)": "daf33f2a"
  },
  "id": 21
}