{
  "abi": [
    {
      "inputs": [
        {
          "internalType": "contract IWETH9",
          "name": "_weth",
          "type": "address"
        },
        {
          "internalType": "address",
          "name": "_feeCollector",
          "type": "address"
        },
        {
          "internalType": "contract ISwapRouter",
          "name": "_swapRouter",
          "type": "address"
        },
        {
          "internalType": "address",
          "name": "_factory",
          "type": "address"
        },
        {
          "internalType": "bytes32",
          "name": "_pairCodeHash",
          "type": "bytes32"
        },
        {
          "internalType": "contract IStargateRouter",
          "name": "_stargateRouter",
          "type": "address"
        }
      ],
      "stateMutability": "nonpayable",
      "type": "constructor"
    },
    {
      "inputs": [],
      "name": "MoreThanZero",
      "type": "error"
    },
    {
      "inputs": [],
      "name": "MustBeGt0",
      "type": "error"
    },
    {
      "inputs": [],
      "name": "NotStgRouter",
      "type": "error"
    },
    {
      "inputs": [],
      "name": "WithdrawFailed",
      "type": "error"
    },
    {
      "anonymous": false,
      "inputs": [
        {
          "indexed": false,
          "internalType": "address",
          "name": "_token",
          "type": "address"
        },
        {
          "indexed": false,
          "internalType": "uint256",
          "name": "_fee",
          "type": "uint256"
        }
      ],
      "name": "FeePaid",
      "type": "event"
    },
    {
      "anonymous": false,
      "inputs": [
        {
          "indexed": true,
          "internalType": "address",
          "name": "token",
          "type": "address"
        },
        {
          "indexed": false,
          "internalType": "uint256",
          "name": "amountLD",
          "type": "uint256"
        },
        {
          "indexed": false,
          "internalType": "bool",
          "name": "failed",
          "type": "bool"
        },
        {
          "indexed": false,
          "internalType": "bool",
          "name": "dustSent",
          "type": "bool"
        }
      ],
      "name": "ReceivedOnDestination",
      "type": "event"
    },
    {
      "anonymous": false,
      "inputs": [
        {
          "indexed": false,
          "internalType": "bool",
          "name": "success",
          "type": "bool"
        }
      ],
      "name": "SuccessfulWithdraw",
      "type": "event"
    },
    {
      "inputs": [],
      "name": "factory",
      "outputs": [
        {
          "internalType": "address",
          "name": "",
          "type": "address"
        }
      ],
      "stateMutability": "view",
      "type": "function"
    },
    {
      "inputs": [],
      "name": "feeCollector",
      "outputs": [
        {
          "internalType": "address",
          "name": "",
          "type": "address"
        }
      ],
      "stateMutability": "view",
      "type": "function"
    },
    {
      "inputs": [],
      "name": "pairCodeHash",
      "outputs": [
        {
          "internalType": "bytes32",
          "name": "",
          "type": "bytes32"
        }
      ],
      "stateMutability": "view",
      "type": "function"
    },
    {
      "inputs": [
        {
          "internalType": "uint8[]",
          "name": "steps",
          "type": "uint8[]"
        },
        {
          "internalType": "bytes[]",
          "name": "data",
          "type": "bytes[]"
        }
      ],
      "name": "polygonSwaps",
      "outputs": [],
      "stateMutability": "payable",
      "type": "function"
    },
    {
      "inputs": [
        {
          "internalType": "uint16",
          "name": "",
          "type": "uint16"
        },
        {
          "internalType": "bytes",
          "name": "",
          "type": "bytes"
        },
        {
          "internalType": "uint256",
          "name": "",
          "type": "uint256"
        },
        {
          "internalType": "address",
          "name": "_token",
          "type": "address"
        },
        {
          "internalType": "uint256",
          "name": "amountLD",
          "type": "uint256"
        },
        {
          "internalType": "bytes",
          "name": "_payload",
          "type": "bytes"
        }
      ],
      "name": "sgReceive",
      "outputs": [],
      "stateMutability": "nonpayable",
      "type": "function"
    },
    {
      "inputs": [],
      "name": "stargateRouter",
      "outputs": [
        {
          "internalType": "contract IStargateRouter",
          "name": "",
          "type": "address"
        }
      ],
      "stateMutability": "view",
      "type": "function"
    },
    {
      "inputs": [],
      "name": "swapRouter",
      "outputs": [
        {
          "internalType": "contract ISwapRouter",
          "name": "",
          "type": "address"
        }
      ],
      "stateMutability": "view",
      "type": "function"
    },
    {
      "stateMutability": "payable",
      "type": "receive"
    }
  ],
  "bytecode": {
    "object": "0x6101006040523480156200001257600080fd5b50604051620031583803806200315883398101604081905262000035916200008c565b6001600160a01b03938416608052600080546001600160a01b03191693851693909317909255600155811660a05291821660c0521660e05262000114565b6001600160a01b03811681146200008957600080fd5b50565b60008060008060008060c08789031215620000a657600080fd5b8651620000b38162000073565b6020880151909650620000c68162000073565b6040880151909550620000d98162000073565b6060880151909450620000ec8162000073565b608088015160a08901519194509250620001068162000073565b809150509295509295509295565b60805160a05160c05160e051612fc5620001936000396000818161017001526106a201526000818161034201528181610795015261082801526000818160d0015281816109b901528181611247015261126e01526000818161013c01528181610c0d01528181610d4301528181610ddc0152610ec70152612fc56000f3fe6080604052600436106100745760003560e01c8063ab8236f31161004e578063ab8236f31461010a578063c31c9c071461012a578063c415b95c1461015e578063c45a01551461019257600080fd5b80638001f8b6146100805780639aab924814610095578063a9e56f3c146100be57600080fd5b3661007b57005b600080fd5b61009361008e366004611f9f565b6101b2565b005b3480156100a157600080fd5b506100ab60015481565b6040519081526020015b60405180910390f35b3480156100ca57600080fd5b506100f27f000000000000000000000000000000000000000000000000000000000000000081565b6040516001600160a01b0390911681526020016100b5565b34801561011657600080fd5b506100936101253660046121b8565b6109ae565b34801561013657600080fd5b506100f27f000000000000000000000000000000000000000000000000000000000000000081565b34801561016a57600080fd5b506100f27f000000000000000000000000000000000000000000000000000000000000000081565b34801561019e57600080fd5b506000546100f2906001600160a01b031681565b60005b838110156109a75760008585838181106101d1576101d1612252565b90506020020160208101906101e69190612277565b905060001960ff8216016102de5760008085858581811061020957610209612252565b905060200281019061021b9190612294565b810190610228919061236c565b9150915060005b82518110156102d657600082828151811061024c5761024c612252565b6020026020010151116102725760405163fe4155c760e01b815260040160405180910390fd5b6102c4333084848151811061028957610289612252565b60200260200101518685815181106102a3576102a3612252565b60200260200101516001600160a01b0316610b7b909392919063ffffffff16565b806102ce8161243c565b91505061022f565b505050610994565b60011960ff8216016103ba5760008484848181106102fe576102fe612252565b90506020028101906103109190612294565b81019061031d9190612455565b9050600081116103405760405163fe4155c760e01b815260040160405180910390fd5b7f00000000000000000000000000000000000000000000000000000000000000006001600160a01b031663d0e30db0826040518263ffffffff1660e01b81526004016000604051808303818588803b15801561039b57600080fd5b505af11580156103af573d6000803e3d6000fd5b505050505050610994565b60021960ff82160161044a5760008484848181106103da576103da612252565b90506020028101906103ec9190612294565b8101906103f99190612481565b905060005b815181101561044357600082828151811061041b5761041b612252565b6020026020010151905061042e81610bec565b5050808061043b9061243c565b9150506103fe565b5050610994565b60031960ff8216016104cc57600084848481811061046a5761046a612252565b905060200281019061047c9190612294565b810190610489919061256b565b905060005b8151811015610443576104b98282815181106104ac576104ac612252565b6020026020010151610dbb565b50806104c48161243c565b91505061048e565b60041960ff82160161054e5760008484848181106104ec576104ec612252565b90506020028101906104fe9190612294565b81019061050b919061267b565b905060005b81518110156104435761053b82828151811061052e5761052e612252565b6020026020010151610f11565b50806105468161243c565b915050610510565b600a1960ff82160161073457600084848481811061056e5761056e612252565b90506020028101906105809190612294565b81019061058d9190612788565b905060005b81518110156104435760008282815181106105af576105af612252565b602002602001015160000151905060008383815181106105d1576105d1612252565b602002602001015160400151905080600003610654576040516370a0823160e01b81523060048201526001600160a01b038316906370a0823190602401602060405180830381865afa15801561062b573d6000803e3d6000fd5b505050506040513d601f19601f8201168201806040525081019061064f919061284b565b610656565b805b9050600084848151811061066c5761066c612252565b60200260200101516020015190506000610685836110f6565b90506106918184612864565b92506106c76001600160a01b0385167f000000000000000000000000000000000000000000000000000000000000000083611121565b6106db6001600160a01b0385168385611121565b604080516001600160a01b0386168152602081018390527f075a2720282fdf622141dae0b048ef90a21a7e57c134c76912d19d006b3b3f6f910160405180910390a150505050808061072c9061243c565b915050610592565b600b1960ff82160161093d5760008085858581811061075557610755612252565b90506020028101906107679190612294565b8101906107749190612877565b915091508060000361080d576040516370a0823160e01b81523060048201527f00000000000000000000000000000000000000000000000000000000000000006001600160a01b0316906370a0823190602401602060405180830381865afa1580156107e4573d6000803e3d6000fd5b505050506040513d601f19601f82011682018060405250810190610808919061284b565b61080f565b805b604051632e1a7d4d60e01b8152600481018290529091507f00000000000000000000000000000000000000000000000000000000000000006001600160a01b031690632e1a7d4d90602401600060405180830381600087803b15801561087457600080fd5b505af1158015610888573d6000803e3d6000fd5b505050506000826001600160a01b03168260405160006040518083038185875af1925050503d80600081146108d9576040519150601f19603f3d011682016040523d82523d6000602084013e6108de565b606091505b505090508061090057604051631d42c86760e21b815260040160405180910390fd5b60405181151581527fecd574d247fc5a32601173682b0af34b454b7a0bf3e382d0efb3c6209e9443fa9060200160405180910390a1505050610994565b600c1960ff82160161099457600080600086868681811061096057610960612252565b90506020028101906109729190612294565b81019061097f9190612986565b925092509250610990838383611156565b5050505b508061099f8161243c565b9150506101b5565b5050505050565b336001600160a01b037f000000000000000000000000000000000000000000000000000000000000000016146109f757604051638afe477f60e01b815260040160405180910390fd5b600080600083806020019051810190610a109190612b72565b9250925092506000306001600160a01b0316638001f8b662030d4085856040518463ffffffff1660e01b8152600401610a4a929190612cff565b600060405180830381600088803b158015610a6457600080fd5b5087f193505050508015610a76575060015b610ac4573d808015610aa4576040519150601f19603f3d011682016040523d82523d6000602084013e610aa9565b606091505b50610abe6001600160a01b0389168689611121565b60019150505b60004715610b20576040516001600160a01b038616904790600081818185875af1925050503d8060008114610b15576040519150601f19603f3d011682016040523d82523d6000602084013e610b1a565b606091505b50909150505b6040805188815283151560208201528215158183015290516001600160a01b038a16917f7f345d6da48bd1339fd428ff45265a0f01258b14ca09dcf8db0c469f4f732fd3919081900360600190a25050505050505050505050565b6040516001600160a01b0380851660248301528316604482015260648101829052610be69085906323b872dd60e01b906084015b60408051601f198184030181529190526020810180516001600160e01b03166001600160e01b0319909316929092179091526113a4565b50505050565b60408181015190516370a0823160e01b8152306004820152600091610c88917f0000000000000000000000000000000000000000000000000000000000000000906001600160a01b038316906370a08231906024015b602060405180830381865afa158015610c5f573d6000803e3d6000fd5b505050506040513d601f19601f82011682018060405250810190610c83919061284b565b611476565b6040805161010081018252838201516001600160a01b0390811682526060808601518216602080850191825260808089015162ffffff90811687890190815230958801958652429288019283528a5160a08901908152938b015160c08901908152600060e08a01908152995163414bf38960e01b8152895189166004820152955188166024870152905190911660448501529351851660648401525160848301525160a4820152905160c48201529251811660e484015290917f00000000000000000000000000000000000000000000000000000000000000009091169063414bf38990610104015b6020604051808303816000875af1158015610d90573d6000803e3d6000fd5b505050506040513d601f19601f82011682018060405250810190610db4919061284b565b9392505050565b60408181015190516370a0823160e01b8152306004820152600091610e15917f0000000000000000000000000000000000000000000000000000000000000000906001600160a01b038316906370a0823190602401610c42565b6040805160a08082018352918401519184015160608086015160c08088015160808901516001600160601b031997851b8816928701929092526001600160e81b031960e895861b811660d488015292841b871660d787015290931b1660eb8401521b90911660ee8201526000908061010281016040516020818303038152906040528152602001306001600160a01b0316815260200142815260200184600001518152602001846020015181525090507f00000000000000000000000000000000000000000000000000000000000000006001600160a01b031663c04b8d59826040518263ffffffff1660e01b8152600401610d719190612d2d565b60008054825160408401516001548493610f38936001600160a01b0390911692909161156f565b90508060018251610f499190612864565b81518110610f5957610f59612252565b602002602001015191508260200151821015610fbc5760405162461bcd60e51b815260206004820152601760248201527f696e73756666696369656e742d616d6f756e742d6f757400000000000000000060448201526064015b60405180910390fd5b8260600151156110e15760008054604085015180516110e19361101f936001600160a01b03169291610ff057610ff0612252565b6020026020010151866040015160018151811061100f5761100f612252565b60200260200101516001546116fb565b846040015160008151811061103657611036612252565b60209081029190910101516040516370a0823160e01b81523060048201526001600160a01b03909116906370a0823190602401602060405180830381865afa158015611086573d6000803e3d6000fd5b505050506040513d601f19601f820116820180604052508101906110aa919061284b565b85604001516000815181106110c1576110c1612252565b60200260200101516001600160a01b03166111219092919063ffffffff16565b6110f0818460400151306117af565b50919050565b60006127106111078361270b612d85565b6111119190612d9c565b61111b9083612864565b92915050565b6040516001600160a01b03831660248201526044810182905261115190849063a9059cbb60e01b90606401610baf565b505050565b600034116111775760405163c9935ff960e01b815260040160405180910390fd5b6000836101000151838360405160200161119393929190612dbe565b604051602081830303815290604052905083608001516000036112235760208401516040516370a0823160e01b81523060048201526001600160a01b03909116906370a0823190602401602060405180830381865afa1580156111fa573d6000803e3d6000fd5b505050506040513d601f19601f8201168201806040525081019061121e919061284b565b611229565b83608001515b60808501819052602085015161126c916001600160a01b03909116907f000000000000000000000000000000000000000000000000000000000000000090611986565b7f00000000000000000000000000000000000000000000000000000000000000006001600160a01b0316639fbf10fc47866000015187604001518860600151308a608001518b60a0015160405180606001604052808e610120015181526020018e60c0015181526020018e60e001516040516020016112fe919060609190911b6001600160601b031916815260140190565b6040516020818303038152906040528152508d60e00151604051602001611338919060609190911b6001600160601b031916815260140190565b6040516020818303038152906040528b6040518b63ffffffff1660e01b815260040161136c99989796959493929190612dfe565b6000604051808303818588803b15801561138557600080fd5b505af1158015611399573d6000803e3d6000fd5b505050505050505050565b60006113f9826040518060400160405280602081526020017f5361666545524332303a206c6f772d6c6576656c2063616c6c206661696c6564815250856001600160a01b0316611a389092919063ffffffff16565b80519091501561115157808060200190518101906114179190612e9c565b6111515760405162461bcd60e51b815260206004820152602a60248201527f5361666545524332303a204552433230206f7065726174696f6e20646964206e6044820152691bdd081cdd58d8d9595960b21b6064820152608401610fb3565b604080516001600160a01b038481166024830152604480830185905283518084039091018152606490920183526020820180516001600160e01b031663095ea7b360e01b17905291516000928392908716916114d29190612eb9565b6000604051808303816000865af19150503d806000811461150f576040519150601f19603f3d011682016040523d82523d6000602084013e611514565b606091505b509150915081801561153e57508051158061153e57508080602001905181019061153e9190612e9c565b6109a75760405162461bcd60e51b8152602060048201526002602482015261534160f01b6044820152606401610fb3565b60606002835110156115c35760405162461bcd60e51b815260206004820152601e60248201527f556e697377617056324c6962726172793a20494e56414c49445f5041544800006044820152606401610fb3565b82516001600160401b038111156115dc576115dc612021565b604051908082528060200260200182016040528015611605578160200160208202803683370190505b509050838160008151811061161c5761161c612252565b60200260200101818152505060005b600184516116399190612864565b8110156116f25760008061168d8887858151811061165957611659612252565b60200260200101518886600161166f9190612ed5565b8151811061167f5761167f612252565b602002602001015188611a4f565b915091506116b58484815181106116a6576116a6612252565b60200260200101518383611b1b565b846116c1856001612ed5565b815181106116d1576116d1612252565b602002602001018181525050505080806116ea9061243c565b91505061162b565b50949350505050565b600080600061170a8686611c3a565b6040516001600160601b0319606084811b8216602084015283901b16603482015291935091508790604801604051602081830303815290604052805190602001208560405160200161178c939291906001600160f81b0319815260609390931b6001600160601b03191660018401526015830191909152603582015260550190565b60408051601f198184030181529190528051602090910120979650505050505050565b60005b600183516117c09190612864565b811015610be6576000808483815181106117dc576117dc612252565b6020026020010151858460016117f29190612ed5565b8151811061180257611802612252565b602002602001015191509150600061181a8383611c3a565b50905060008761182b866001612ed5565b8151811061183b5761183b612252565b60200260200101519050600080836001600160a01b0316866001600160a01b0316146118695782600061186d565b6000835b91509150600060028a516118819190612864565b881061188d57886118ba565b6000546118ba906001600160a01b0316878c6118aa8c6002612ed5565b8151811061100f5761100f612252565b90506118dd60008054906101000a90046001600160a01b031688886001546116fb565b6001600160a01b031663022c0d9f84848460006040519080825280601f01601f19166020018201604052801561191a576020820181803683370190505b506040518563ffffffff1660e01b815260040161193a9493929190612ee8565b600060405180830381600087803b15801561195457600080fd5b505af1158015611968573d6000803e3d6000fd5b5050505050505050505050808061197e9061243c565b9150506117b2565b604051636eb1769f60e11b81523060048201526001600160a01b038381166024830152600091839186169063dd62ed3e90604401602060405180830381865afa1580156119d7573d6000803e3d6000fd5b505050506040513d601f19601f820116820180604052508101906119fb919061284b565b611a059190612ed5565b6040516001600160a01b038516602482015260448101829052909150610be690859063095ea7b360e01b90606401610baf565b6060611a478484600085611d31565b949350505050565b6000806000611a5e8686611c3a565b509050600080611a70898989896116fb565b6001600160a01b0316630902f1ac6040518163ffffffff1660e01b8152600401606060405180830381865afa158015611aad573d6000803e3d6000fd5b505050506040513d601f19601f82011682018060405250810190611ad19190612f2c565b506001600160701b031691506001600160701b03169150826001600160a01b0316886001600160a01b031614611b08578082611b0b565b81815b909a909950975050505050505050565b6000808411611b805760405162461bcd60e51b815260206004820152602b60248201527f556e697377617056324c6962726172793a20494e53554646494349454e545f4960448201526a1394155517d05353d5539560aa1b6064820152608401610fb3565b600083118015611b905750600082115b611bed5760405162461bcd60e51b815260206004820152602860248201527f556e697377617056324c6962726172793a20494e53554646494349454e545f4c604482015267495155494449545960c01b6064820152608401610fb3565b6000611bfb856103e5611e01565b90506000611c098285611e01565b90506000611c2383611c1d886103e8611e01565b90611e68565b9050611c2f8183612d9c565b979650505050505050565b600080826001600160a01b0316846001600160a01b031603611cac5760405162461bcd60e51b815260206004820152602560248201527f556e697377617056324c6962726172793a204944454e544943414c5f41444452604482015264455353455360d81b6064820152608401610fb3565b826001600160a01b0316846001600160a01b031610611ccc578284611ccf565b83835b90925090506001600160a01b038216611d2a5760405162461bcd60e51b815260206004820152601e60248201527f556e697377617056324c6962726172793a205a45524f5f4144445245535300006044820152606401610fb3565b9250929050565b606082471015611d925760405162461bcd60e51b815260206004820152602660248201527f416464726573733a20696e73756666696369656e742062616c616e636520666f6044820152651c8818d85b1b60d21b6064820152608401610fb3565b600080866001600160a01b03168587604051611dae9190612eb9565b60006040518083038185875af1925050503d8060008114611deb576040519150601f19603f3d011682016040523d82523d6000602084013e611df0565b606091505b5091509150611c2f87838387611ebd565b6000811580611e2557508282611e178183612d85565b9250611e239083612d9c565b145b61111b5760405162461bcd60e51b815260206004820152601460248201527364732d6d6174682d6d756c2d6f766572666c6f7760601b6044820152606401610fb3565b600082611e758382612ed5565b915081101561111b5760405162461bcd60e51b815260206004820152601460248201527364732d6d6174682d6164642d6f766572666c6f7760601b6044820152606401610fb3565b60608315611f2c578251600003611f25576001600160a01b0385163b611f255760405162461bcd60e51b815260206004820152601d60248201527f416464726573733a2063616c6c20746f206e6f6e2d636f6e74726163740000006044820152606401610fb3565b5081611a47565b611a478383815115611f415781518083602001fd5b8060405162461bcd60e51b8152600401610fb39190612f7c565b60008083601f840112611f6d57600080fd5b5081356001600160401b03811115611f8457600080fd5b6020830191508360208260051b8501011115611d2a57600080fd5b60008060008060408587031215611fb557600080fd5b84356001600160401b0380821115611fcc57600080fd5b611fd888838901611f5b565b90965094506020870135915080821115611ff157600080fd5b50611ffe87828801611f5b565b95989497509550505050565b803561ffff8116811461201c57600080fd5b919050565b634e487b7160e01b600052604160045260246000fd5b60405160a081016001600160401b038111828210171561205957612059612021565b60405290565b60405160e081016001600160401b038111828210171561205957612059612021565b604051608081016001600160401b038111828210171561205957612059612021565b604051606081016001600160401b038111828210171561205957612059612021565b60405161016081016001600160401b038111828210171561205957612059612021565b604051601f8201601f191681016001600160401b038111828210171561211057612110612021565b604052919050565b60006001600160401b0382111561213157612131612021565b50601f01601f191660200190565b600082601f83011261215057600080fd5b813561216361215e82612118565b6120e8565b81815284602083860101111561217857600080fd5b816020850160208301376000918101602001919091529392505050565b6001600160a01b03811681146121aa57600080fd5b50565b803561201c81612195565b60008060008060008060c087890312156121d157600080fd5b6121da8761200a565b955060208701356001600160401b03808211156121f657600080fd5b6122028a838b0161213f565b9650604089013595506060890135915061221b82612195565b9093506080880135925060a0880135908082111561223857600080fd5b5061224589828a0161213f565b9150509295509295509295565b634e487b7160e01b600052603260045260246000fd5b60ff811681146121aa57600080fd5b60006020828403121561228957600080fd5b8135610db481612268565b6000808335601e198436030181126122ab57600080fd5b8301803591506001600160401b038211156122c557600080fd5b602001915036819003821315611d2a57600080fd5b60006001600160401b038211156122f3576122f3612021565b5060051b60200190565b600082601f83011261230e57600080fd5b8135602061231e61215e836122da565b82815260059290921b8401810191818101908684111561233d57600080fd5b8286015b8481101561236157803561235481612195565b8352918301918301612341565b509695505050505050565b6000806040838503121561237f57600080fd5b82356001600160401b038082111561239657600080fd5b6123a2868387016122fd565b93506020915081850135818111156123b957600080fd5b85019050601f810186136123cc57600080fd5b80356123da61215e826122da565b81815260059190911b820183019083810190888311156123f957600080fd5b928401925b82841015612417578335825292840192908401906123fe565b80955050505050509250929050565b634e487b7160e01b600052601160045260246000fd5b60006001820161244e5761244e612426565b5060010190565b60006020828403121561246757600080fd5b5035919050565b803562ffffff8116811461201c57600080fd5b6000602080838503121561249457600080fd5b82356001600160401b038111156124aa57600080fd5b8301601f810185136124bb57600080fd5b80356124c961215e826122da565b81815260a091820283018401918482019190888411156124e857600080fd5b938501935b8385101561255f5780858a0312156125055760008081fd5b61250d612037565b85358152868601358782015260408087013561252881612195565b9082015260608681013561253b81612195565b90820152608061254c87820161246e565b90820152835293840193918501916124ed565b50979650505050505050565b6000602080838503121561257e57600080fd5b82356001600160401b0381111561259457600080fd5b8301601f810185136125a557600080fd5b80356125b361215e826122da565b81815260e091820283018401918482019190888411156125d257600080fd5b938501935b8385101561255f5780858a0312156125ef5760008081fd5b6125f761205f565b85358152868601358782015260408087013561261281612195565b9082015260608681013561262581612195565b9082015260808681013561263881612195565b9082015260a061264987820161246e565b9082015260c061265a87820161246e565b90820152835293840193918501916125d7565b80151581146121aa57600080fd5b6000602080838503121561268e57600080fd5b82356001600160401b03808211156126a557600080fd5b818501915085601f8301126126b957600080fd5b81356126c761215e826122da565b81815260059190911b830184019084810190888311156126e657600080fd5b8585015b8381101561277b5780358581111561270157600080fd5b86016080818c03601f190112156127185760008081fd5b612720612081565b8882013581526040808301358a830152606080840135898111156127445760008081fd5b6127528f8d838801016122fd565b8385015250608084013593506127678461266d565b8201929092528452509186019186016126ea565b5098975050505050505050565b6000602080838503121561279b57600080fd5b82356001600160401b038111156127b157600080fd5b8301601f810185136127c257600080fd5b80356127d061215e826122da565b818152606091820283018401918482019190888411156127ef57600080fd5b938501935b8385101561255f5780858a03121561280c5760008081fd5b6128146120a3565b853561281f81612195565b81528587013561282e81612195565b8188015260408681013590820152835293840193918501916127f4565b60006020828403121561285d57600080fd5b5051919050565b8181038181111561111b5761111b612426565b6000806040838503121561288a57600080fd5b823561289581612195565b946020939093013593505050565b600082601f8301126128b457600080fd5b813560206128c461215e836122da565b82815260059290921b840181019181810190868411156128e357600080fd5b8286015b848110156123615780356128fa81612268565b83529183019183016128e7565b600082601f83011261291857600080fd5b8135602061292861215e836122da565b82815260059290921b8401810191818101908684111561294757600080fd5b8286015b848110156123615780356001600160401b0381111561296a5760008081fd5b6129788986838b010161213f565b84525091830191830161294b565b60008060008385036101a081121561299d57600080fd5b610160808212156129ad57600080fd5b6129b56120c5565b91506129c08661200a565b82526129ce602087016121ad565b602083015260408601356040830152606086013560608301526080860135608083015260a086013560a083015260c086013560c0830152612a1160e087016121ad565b60e0830152610100612a248188016121ad565b90830152610120868101359083015261014080870135908301529093508401356001600160401b0380821115612a5957600080fd5b612a65878388016128a3565b9350610180860135915080821115612a7c57600080fd5b50612a8986828701612907565b9150509250925092565b60005b83811015612aae578181015183820152602001612a96565b50506000910152565b600082601f830112612ac857600080fd5b81516020612ad861215e836122da565b82815260059290921b84018101918181019086841115612af757600080fd5b8286015b848110156123615780516001600160401b03811115612b1a5760008081fd5b8701603f81018913612b2c5760008081fd5b848101516040612b3e61215e83612118565b8281528b82848601011115612b535760008081fd5b612b6283898301848701612a93565b8652505050918301918301612afb565b600080600060608486031215612b8757600080fd5b8351612b9281612195565b809350506020808501516001600160401b0380821115612bb157600080fd5b818701915087601f830112612bc557600080fd5b8151612bd361215e826122da565b81815260059190911b8301840190848101908a831115612bf257600080fd5b938501935b82851015612c19578451612c0a81612268565b82529385019390850190612bf7565b60408a01519097509450505080831115612c3257600080fd5b5050612a8986828701612ab7565b600081518084526020808501945080840160005b83811015612c7357815160ff1687529582019590820190600101612c54565b509495945050505050565b60008151808452612c96816020860160208601612a93565b601f01601f19169290920160200192915050565b600081518084526020808501808196508360051b8101915082860160005b85811015612cf2578284038952612ce0848351612c7e565b98850198935090840190600101612cc8565b5091979650505050505050565b604081526000612d126040830185612c40565b8281036020840152612d248185612caa565b95945050505050565b602081526000825160a06020840152612d4960c0840182612c7e565b905060018060a01b0360208501511660408401526040840151606084015260608401516080840152608084015160a08401528091505092915050565b808202811582820484141761111b5761111b612426565b600082612db957634e487b7160e01b600052601260045260246000fd5b500490565b6001600160a01b0384168152606060208201819052600090612de290830185612c40565b8281036040840152612df48185612caa565b9695505050505050565b600061012061ffff8c1683528a602084015289604084015260018060a01b03891660608401528760808401528660a08401528060c084015285518184015250602085015161014083015260408501516060610160840152612e63610180840182612c7e565b905082810360e0840152612e778186612c7e565b9050828103610100840152612e8c8185612c7e565b9c9b505050505050505050505050565b600060208284031215612eae57600080fd5b8151610db48161266d565b60008251612ecb818460208701612a93565b9190910192915050565b8082018082111561111b5761111b612426565b84815283602082015260018060a01b0383166040820152608060608201526000612df46080830184612c7e565b80516001600160701b038116811461201c57600080fd5b600080600060608486031215612f4157600080fd5b612f4a84612f15565b9250612f5860208501612f15565b9150604084015163ffffffff81168114612f7157600080fd5b809150509250925092565b602081526000610db46020830184612c7e56fea2646970667358221220ac451b52224b0f63cd83ee1fa30466e2b7d5c4696fc6cc34d424d94438d68d9664736f6c63430008110033",
    "linkReferences": {}
  },
  "methodIdentifiers": {
    "factory()": "c45a0155",
    "feeCollector()": "c415b95c",
    "pairCodeHash()": "9aab9248",
    "polygonSwaps(uint8[],bytes[])": "8001f8b6",
    "sgReceive(uint16,bytes,uint256,address,uint256,bytes)": "ab8236f3",
    "stargateRouter()": "a9e56f3c",
    "swapRouter()": "c31c9c07"
  },
  "id": 57
}