{
  "abi": [
    {
      "inputs": [
        {
          "internalType": "contract IWETH9",
          "name": "_weth",
          "type": "address"
        },
        {
          "internalType": "address",
          "name": "_feeCollector",
          "type": "address"
        },
        {
          "internalType": "contract ISwapRouter",
          "name": "_swapRouter",
          "type": "address"
        },
        {
          "internalType": "address",
          "name": "_factory",
          "type": "address"
        },
        {
          "internalType": "bytes32",
          "name": "_pairCodeHash",
          "type": "bytes32"
        },
        {
          "internalType": "contract IStargateRouter",
          "name": "_stargateRouter",
          "type": "address"
        }
      ],
      "stateMutability": "nonpayable",
      "type": "constructor"
    },
    {
      "inputs": [],
      "name": "MismatchedLengths",
      "type": "error"
    },
    {
      "inputs": [],
      "name": "MoreThanZero",
      "type": "error"
    },
    {
      "inputs": [],
      "name": "NotEnoughGas",
      "type": "error"
    },
    {
      "inputs": [],
      "name": "NotStgRouter",
      "type": "error"
    },
    {
      "inputs": [],
      "name": "WithdrawFailed",
      "type": "error"
    },
    {
      "anonymous": false,
      "inputs": [
        {
          "indexed": false,
          "internalType": "address",
          "name": "_token",
          "type": "address"
        },
        {
          "indexed": false,
          "internalType": "uint256",
          "name": "_fee",
          "type": "uint256"
        }
      ],
      "name": "FeePaid",
      "type": "event"
    },
    {
      "anonymous": false,
      "inputs": [
        {
          "indexed": true,
          "internalType": "address",
          "name": "token",
          "type": "address"
        },
        {
          "indexed": false,
          "internalType": "uint256",
          "name": "amountLD",
          "type": "uint256"
        },
        {
          "indexed": false,
          "internalType": "bool",
          "name": "failed",
          "type": "bool"
        },
        {
          "indexed": false,
          "internalType": "bool",
          "name": "dustSent",
          "type": "bool"
        }
      ],
      "name": "ReceivedOnDestination",
      "type": "event"
    },
    {
      "inputs": [],
      "name": "factory",
      "outputs": [
        {
          "internalType": "address",
          "name": "",
          "type": "address"
        }
      ],
      "stateMutability": "view",
      "type": "function"
    },
    {
      "inputs": [],
      "name": "feeCollector",
      "outputs": [
        {
          "internalType": "address",
          "name": "",
          "type": "address"
        }
      ],
      "stateMutability": "view",
      "type": "function"
    },
    {
      "inputs": [
        {
          "components": [
            {
              "internalType": "uint16",
              "name": "dstChainId",
              "type": "uint16"
            },
            {
              "internalType": "address",
              "name": "token",
              "type": "address"
            },
            {
              "internalType": "uint256",
              "name": "srcPoolId",
              "type": "uint256"
            },
            {
              "internalType": "uint256",
              "name": "dstPoolId",
              "type": "uint256"
            },
            {
              "internalType": "uint256",
              "name": "amount",
              "type": "uint256"
            },
            {
              "internalType": "uint256",
              "name": "amountMin",
              "type": "uint256"
            },
            {
              "internalType": "uint256",
              "name": "dustAmount",
              "type": "uint256"
            },
            {
              "internalType": "address",
              "name": "receiver",
              "type": "address"
            },
            {
              "internalType": "address",
              "name": "to",
              "type": "address"
            },
            {
              "internalType": "uint256",
              "name": "gas",
              "type": "uint256"
            },
            {
              "internalType": "bytes32",
              "name": "srcContext",
              "type": "bytes32"
            }
          ],
          "internalType": "struct StargatePolygon.StargateParams",
          "name": "params",
          "type": "tuple"
        },
        {
          "internalType": "bytes",
          "name": "payload",
          "type": "bytes"
        }
      ],
      "name": "getFee",
      "outputs": [
        {
          "internalType": "uint256",
          "name": "_fee",
          "type": "uint256"
        }
      ],
      "stateMutability": "view",
      "type": "function"
    },
    {
      "inputs": [],
      "name": "pairCodeHash",
      "outputs": [
        {
          "internalType": "bytes32",
          "name": "",
          "type": "bytes32"
        }
      ],
      "stateMutability": "view",
      "type": "function"
    },
    {
      "inputs": [
        {
          "internalType": "uint8[]",
          "name": "steps",
          "type": "uint8[]"
        },
        {
          "internalType": "bytes[]",
          "name": "data",
          "type": "bytes[]"
        }
      ],
      "name": "polygonSwaps",
      "outputs": [],
      "stateMutability": "payable",
      "type": "function"
    },
    {
      "inputs": [
        {
          "internalType": "uint16",
          "name": "",
          "type": "uint16"
        },
        {
          "internalType": "bytes",
          "name": "",
          "type": "bytes"
        },
        {
          "internalType": "uint256",
          "name": "",
          "type": "uint256"
        },
        {
          "internalType": "address",
          "name": "_token",
          "type": "address"
        },
        {
          "internalType": "uint256",
          "name": "amountLD",
          "type": "uint256"
        },
        {
          "internalType": "bytes",
          "name": "_payload",
          "type": "bytes"
        }
      ],
      "name": "sgReceive",
      "outputs": [],
      "stateMutability": "nonpayable",
      "type": "function"
    },
    {
      "inputs": [],
      "name": "stargateRouter",
      "outputs": [
        {
          "internalType": "contract IStargateRouter",
          "name": "",
          "type": "address"
        }
      ],
      "stateMutability": "view",
      "type": "function"
    },
    {
      "inputs": [],
      "name": "swapRouter",
      "outputs": [
        {
          "internalType": "contract ISwapRouter",
          "name": "",
          "type": "address"
        }
      ],
      "stateMutability": "view",
      "type": "function"
    },
    {
      "stateMutability": "payable",
      "type": "receive"
    }
  ],
  "bytecode": {
    "object": "0x6101006040526002805460ff191660011790553480156200001f57600080fd5b506040516200361b3803806200361b833981016040819052620000429162000099565b6001600160a01b03938416608052600080546001600160a01b03191693851693909317909255600155811660a05291821660c0521660e05262000121565b6001600160a01b03811681146200009657600080fd5b50565b60008060008060008060c08789031215620000b357600080fd5b8651620000c08162000080565b6020880151909650620000d38162000080565b6040880151909550620000e68162000080565b6060880151909450620000f98162000080565b608088015160a08901519194509250620001138162000080565b809150509295509295509295565b60805160a05160c05160e051613458620001c36000396000818161019b0152818161093b01526113690152600081816104f10152818161081f01526108b201526000818160fb01528181610208015281816109e9015281816115910152818161162701526116a901526000818161016701528181610cab01528181610d2f01528181610e1101528181610f2d01528181610fb1015261108a01526134586000f3fe60806040526004361061007f5760003560e01c8063ab8236f31161004e578063ab8236f314610135578063c31c9c0714610155578063c415b95c14610189578063c45a0155146101bd57600080fd5b80634285f6e41461008b5780638001f8b6146100be5780639aab9248146100d3578063a9e56f3c146100e957600080fd5b3661008657005b600080fd5b34801561009757600080fd5b506100ab6100a6366004612546565b6101dd565b6040519081526020015b60405180910390f35b6100d16100cc3660046125da565b6102ee565b005b3480156100df57600080fd5b506100ab60015481565b3480156100f557600080fd5b5061011d7f000000000000000000000000000000000000000000000000000000000000000081565b6040516001600160a01b0390911681526020016100b5565b34801561014157600080fd5b506100d1610150366004612645565b6109de565b34801561016157600080fd5b5061011d7f000000000000000000000000000000000000000000000000000000000000000081565b34801561019557600080fd5b5061011d7f000000000000000000000000000000000000000000000000000000000000000081565b3480156101c957600080fd5b5060005461011d906001600160a01b031681565b6000808360e001516040516020016101f591906126df565b60405160208183030381529060405290507f00000000000000000000000000000000000000000000000000000000000000006001600160a01b0316630a51236985600001516001848760405180606001604052808b610120015181526020018b60c0015181526020018b60e0015160405160200161027391906126df565b6040516020818303038152906040528152506040518663ffffffff1660e01b81526004016102a5959493929190612770565b6040805180830381865afa1580156102c1573d6000803e3d6000fd5b505050506040513d601f19601f820116820180604052508101906102e591906127c8565b50949350505050565b60025460ff166001146103355760405162461bcd60e51b815260206004820152600a6024820152695245454e5452414e435960b01b60448201526064015b60405180910390fd5b6002805460ff191681179055828114610361576040516373f8993760e11b815260040160405180910390fd5b60005b838110156109ca576000858583818110610380576103806127ec565b90506020020160208101906103959190612811565b905060001960ff82160161048d576000808585858181106103b8576103b86127ec565b90506020028101906103ca919061282e565b8101906103d79190612906565b9150915060005b82518110156104855760008282815181106103fb576103fb6127ec565b6020026020010151116104215760405163fe4155c760e01b815260040160405180910390fd5b6104733330848481518110610438576104386127ec565b6020026020010151868581518110610452576104526127ec565b60200260200101516001600160a01b0316610b96909392919063ffffffff16565b8061047d816129d6565b9150506103de565b5050506109b7565b60011960ff8216016105695760008484848181106104ad576104ad6127ec565b90506020028101906104bf919061282e565b8101906104cc91906129ef565b9050600081116104ef5760405163fe4155c760e01b815260040160405180910390fd5b7f00000000000000000000000000000000000000000000000000000000000000006001600160a01b031663d0e30db0826040518263ffffffff1660e01b81526004016000604051808303818588803b15801561054a57600080fd5b505af115801561055e573d6000803e3d6000fd5b5050505050506109b7565b60021960ff8216016105f9576000848484818110610589576105896127ec565b905060200281019061059b919061282e565b8101906105a89190612a1b565b905060005b81518110156105f25760008282815181106105ca576105ca6127ec565b602002602001015190506105dd81610c07565b505080806105ea906129d6565b9150506105ad565b50506109b7565b60031960ff82160161067b576000848484818110610619576106196127ec565b905060200281019061062b919061282e565b8101906106389190612b05565b905060005b81518110156105f25761066882828151811061065b5761065b6127ec565b6020026020010151610e89565b5080610673816129d6565b91505061063d565b60041960ff8216016106fd57600084848481811061069b5761069b6127ec565b90506020028101906106ad919061282e565b8101906106ba9190612c15565b905060005b81518110156105f2576106ea8282815181106106dd576106dd6127ec565b60200260200101516110d4565b50806106f5816129d6565b9150506106bf565b600d1960ff8216016107be57600084848481811061071d5761071d6127ec565b905060200281019061072f919061282e565b81019061073c9190612d22565b905060005b81518110156105f2576107ac82828151811061075f5761075f6127ec565b60200260200101516000015183838151811061077d5761077d6127ec565b60200260200101516040015184848151811061079b5761079b6127ec565b6020026020010151602001516112c8565b806107b6816129d6565b915050610741565b600c1960ff821601610960576000808585858181106107df576107df6127ec565b90506020028101906107f1919061282e565b8101906107fe9190612de5565b9150915080600003610897576040516370a0823160e01b81523060048201527f00000000000000000000000000000000000000000000000000000000000000006001600160a01b0316906370a0823190602401602060405180830381865afa15801561086e573d6000803e3d6000fd5b505050506040513d601f19601f820116820180604052508101906108929190612e11565b610899565b805b604051632e1a7d4d60e01b8152600481018290529091507f00000000000000000000000000000000000000000000000000000000000000006001600160a01b031690632e1a7d4d90602401600060405180830381600087803b1580156108fe57600080fd5b505af1158015610912573d6000803e3d6000fd5b505050506000610921826113ea565b9050610936836109318385612e2a565b611415565b6104857f000000000000000000000000000000000000000000000000000000000000000082611415565b600e1960ff8216016109b7576000806000868686818110610983576109836127ec565b9050602002810190610995919061282e565b8101906109a29190612ebc565b9250925092506109b383838361146b565b5050505b50806109c2816129d6565b915050610364565b50506002805460ff19166001179055505050565b336001600160a01b037f00000000000000000000000000000000000000000000000000000000000000001614610a2757604051638afe477f60e01b815260040160405180910390fd5b600080620186a081815a610a3b9190612e2a565b9050600080600087806020019051810190610a56919061304f565b925092509250845a1015610a8857610a786001600160a01b038b16848b6117b9565b4715610a8857610a888347611415565b604051634000fc5b60e11b81523090638001f8b6908690610aaf90869086906004016131b3565b600060405180830381600088803b158015610ac957600080fd5b5087f193505050508015610adb575060015b610b29573d808015610b09576040519150601f19603f3d011682016040523d82523d6000602084013e610b0e565b606091505b50610b236001600160a01b038c16858c6117b9565b60019750505b4715610b3957610b398347611415565b604080518a815288151560208201528715158183015290516001600160a01b038c16917f7f345d6da48bd1339fd428ff45265a0f01258b14ca09dcf8db0c469f4f732fd3919081900360600190a250505050505050505050505050565b6040516001600160a01b0380851660248301528316604482015260648101829052610c019085906323b872dd60e01b906084015b60408051601f198184030181529190526020810180516001600160e01b03166001600160e01b0319909316929092179091526117e9565b50505050565b805160009015610c18578151610c86565b60408083015190516370a0823160e01b81523060048201526001600160a01b03909116906370a0823190602401602060405180830381865afa158015610c62573d6000803e3d6000fd5b505050506040513d601f19601f82011682018060405250810190610c869190612e11565b8083526040808401519051636eb1769f60e11b81523060048201526001600160a01b037f0000000000000000000000000000000000000000000000000000000000000000811660248301529091169063dd62ed3e90604401602060405180830381865afa158015610cfb573d6000803e3d6000fd5b505050506040513d601f19601f82011682018060405250810190610d1f9190612e11565b1015610d5657610d5682604001517f00000000000000000000000000000000000000000000000000000000000000006000196118bb565b6040805161010081018252838201516001600160a01b0390811682526060808601518216602080850191825260808089015162ffffff90811687890190815230958801958652429288019283528a5160a08901908152938b015160c08901908152600060e08a01908152995163414bf38960e01b8152895189166004820152955188166024870152905190911660448501529351851660648401525160848301525160a4820152905160c48201529251811660e484015290917f00000000000000000000000000000000000000000000000000000000000000009091169063414bf38990610104015b6020604051808303816000875af1158015610e5e573d6000803e3d6000fd5b505050506040513d601f19601f82011682018060405250810190610e829190612e11565b9392505050565b805160009015610e9a578151610f08565b60408083015190516370a0823160e01b81523060048201526001600160a01b03909116906370a0823190602401602060405180830381865afa158015610ee4573d6000803e3d6000fd5b505050506040513d601f19601f82011682018060405250810190610f089190612e11565b8083526040808401519051636eb1769f60e11b81523060048201526001600160a01b037f0000000000000000000000000000000000000000000000000000000000000000811660248301529091169063dd62ed3e90604401602060405180830381865afa158015610f7d573d6000803e3d6000fd5b505050506040513d601f19601f82011682018060405250810190610fa19190612e11565b1015610fd857610fd882604001517f00000000000000000000000000000000000000000000000000000000000000006000196118bb565b6040805160a08082018352918401519184015160608086015160c08088015160808901516001600160601b031997851b8816928701929092526001600160e81b031960e895861b811660d488015292841b871660d787015290931b1660eb8401521b90911660ee8201526000908061010281016040516020818303038152906040528152602001306001600160a01b0316815260200142815260200184600001518152602001846020015181525090507f00000000000000000000000000000000000000000000000000000000000000006001600160a01b031663c04b8d59826040518263ffffffff1660e01b8152600401610e3f91906131e1565b8051600090156110e5578151611170565b81604001516000815181106110fc576110fc6127ec565b60209081029190910101516040516370a0823160e01b81523060048201526001600160a01b03909116906370a0823190602401602060405180830381865afa15801561114c573d6000803e3d6000fd5b505050506040513d601f19601f820116820180604052508101906111709190612e11565b8083526000805460408501516001549293611199936001600160a01b03909316929091906119bb565b905080600182516111aa9190612e2a565b815181106111ba576111ba6127ec565b6020026020010151915082602001518210156112185760405162461bcd60e51b815260206004820152601760248201527f696e73756666696369656e742d616d6f756e742d6f7574000000000000000000604482015260640161032c565b8260600151156112b35760008054604085015180516112b39361127b936001600160a01b0316929161124c5761124c6127ec565b6020026020010151866040015160018151811061126b5761126b6127ec565b6020026020010151600154611b3e565b845160408601518051600090611293576112936127ec565b60200260200101516001600160a01b03166117b99092919063ffffffff16565b6112c281846040015130611bf2565b50919050565b8160000361133d576040516370a0823160e01b81523060048201526001600160a01b038416906370a0823190602401602060405180830381865afa158015611314573d6000803e3d6000fd5b505050506040513d601f19601f820116820180604052508101906113389190612e11565b61133f565b815b9150600061134c836113ea565b90506113588184612e2a565b925061138e6001600160a01b0385167f0000000000000000000000000000000000000000000000000000000000000000836117b9565b6113a26001600160a01b03851683856117b9565b604080516001600160a01b0386168152602081018390527f075a2720282fdf622141dae0b048ef90a21a7e57c134c76912d19d006b3b3f6f910160405180910390a150505050565b60006127106113fb8361270b613239565b6114059190613250565b61140f9083612e2a565b92915050565b600080600080600085875af19050806114665760405162461bcd60e51b815260206004820152601360248201527211551217d514905394d1915497d19052531151606a1b604482015260640161032c565b505050565b805182511461148d576040516373f8993760e11b815260040160405180910390fd5b620186a083610120015110156114b657604051636eb14fc360e11b815260040160405180910390fd5b600083610100015183836040516020016114d293929190613272565b604051602081830303815290604052905083608001516000036115625760208401516040516370a0823160e01b81523060048201526001600160a01b03909116906370a0823190602401602060405180830381865afa158015611539573d6000803e3d6000fd5b505050506040513d601f19601f8201168201806040525081019061155d9190612e11565b611568565b83608001515b608085018190526020850151604051636eb1769f60e11b81523060048201526001600160a01b037f0000000000000000000000000000000000000000000000000000000000000000811660248301529091169063dd62ed3e90604401602060405180830381865afa1580156115e1573d6000803e3d6000fd5b505050506040513d601f19601f820116820180604052508101906116059190612e11565b10156116a757602084015160405163095ea7b360e01b81526001600160a01b037f00000000000000000000000000000000000000000000000000000000000000008116600483015260001960248301529091169063095ea7b3906044016020604051808303816000875af1158015611681573d6000803e3d6000fd5b505050506040513d601f19601f820116820180604052508101906116a591906132b2565b505b7f00000000000000000000000000000000000000000000000000000000000000006001600160a01b0316639fbf10fc47866000015187604001518860600151338a608001518b60a0015160405180606001604052808e610120015181526020018e60c0015181526020018e60e0015160405160200161172691906126df565b6040516020818303038152906040528152508d60e0015160405160200161174d91906126df565b6040516020818303038152906040528b6040518b63ffffffff1660e01b8152600401611781999897969594939291906132cf565b6000604051808303818588803b15801561179a57600080fd5b505af11580156117ae573d6000803e3d6000fd5b505050505050505050565b6040516001600160a01b03831660248201526044810182905261146690849063a9059cbb60e01b90606401610bca565b600061183e826040518060400160405280602081526020017f5361666545524332303a206c6f772d6c6576656c2063616c6c206661696c6564815250856001600160a01b0316611dc99092919063ffffffff16565b805190915015611466578080602001905181019061185c91906132b2565b6114665760405162461bcd60e51b815260206004820152602a60248201527f5361666545524332303a204552433230206f7065726174696f6e20646964206e6044820152691bdd081cdd58d8d9595960b21b606482015260840161032c565b604080516001600160a01b038481166024830152604480830185905283518084039091018152606490920183526020820180516001600160e01b031663095ea7b360e01b1790529151600092839290871691611917919061334c565b6000604051808303816000865af19150503d8060008114611954576040519150601f19603f3d011682016040523d82523d6000602084013e611959565b606091505b509150915081801561198357508051158061198357508080602001905181019061198391906132b2565b6119b45760405162461bcd60e51b8152602060048201526002602482015261534160f01b604482015260640161032c565b5050505050565b6060600283511015611a0f5760405162461bcd60e51b815260206004820152601e60248201527f556e697377617056324c6962726172793a20494e56414c49445f504154480000604482015260640161032c565b82516001600160401b03811115611a2857611a286122ec565b604051908082528060200260200182016040528015611a51578160200160208202803683370190505b5090508381600081518110611a6857611a686127ec565b60200260200101818152505060005b60018451611a859190612e2a565b8110156102e557600080611ad988878581518110611aa557611aa56127ec565b602002602001015188866001611abb9190613368565b81518110611acb57611acb6127ec565b602002602001015188611de0565b91509150611b01848481518110611af257611af26127ec565b60200260200101518383611eac565b84611b0d856001613368565b81518110611b1d57611b1d6127ec565b60200260200101818152505050508080611b36906129d6565b915050611a77565b6000806000611b4d8686611fcb565b6040516001600160601b0319606084811b8216602084015283901b166034820152919350915087906048016040516020818303038152906040528051906020012085604051602001611bcf939291906001600160f81b0319815260609390931b6001600160601b03191660018401526015830191909152603582015260550190565b60408051601f198184030181529190528051602090910120979650505050505050565b60005b60018351611c039190612e2a565b811015610c0157600080848381518110611c1f57611c1f6127ec565b602002602001015185846001611c359190613368565b81518110611c4557611c456127ec565b6020026020010151915091506000611c5d8383611fcb565b509050600087611c6e866001613368565b81518110611c7e57611c7e6127ec565b60200260200101519050600080836001600160a01b0316866001600160a01b031614611cac57826000611cb0565b6000835b91509150600060028a51611cc49190612e2a565b8810611cd05788611cfd565b600054611cfd906001600160a01b0316878c611ced8c6002613368565b8151811061126b5761126b6127ec565b9050611d2060008054906101000a90046001600160a01b03168888600154611b3e565b6001600160a01b031663022c0d9f84848460006040519080825280601f01601f191660200182016040528015611d5d576020820181803683370190505b506040518563ffffffff1660e01b8152600401611d7d949392919061337b565b600060405180830381600087803b158015611d9757600080fd5b505af1158015611dab573d6000803e3d6000fd5b50505050505050505050508080611dc1906129d6565b915050611bf5565b6060611dd884846000856120c2565b949350505050565b6000806000611def8686611fcb565b509050600080611e0189898989611b3e565b6001600160a01b0316630902f1ac6040518163ffffffff1660e01b8152600401606060405180830381865afa158015611e3e573d6000803e3d6000fd5b505050506040513d601f19601f82011682018060405250810190611e6291906133bf565b506001600160701b031691506001600160701b03169150826001600160a01b0316886001600160a01b031614611e99578082611e9c565b81815b909a909950975050505050505050565b6000808411611f115760405162461bcd60e51b815260206004820152602b60248201527f556e697377617056324c6962726172793a20494e53554646494349454e545f4960448201526a1394155517d05353d5539560aa1b606482015260840161032c565b600083118015611f215750600082115b611f7e5760405162461bcd60e51b815260206004820152602860248201527f556e697377617056324c6962726172793a20494e53554646494349454e545f4c604482015267495155494449545960c01b606482015260840161032c565b6000611f8c856103e5612192565b90506000611f9a8285612192565b90506000611fb483611fae886103e8612192565b906121f9565b9050611fc08183613250565b979650505050505050565b600080826001600160a01b0316846001600160a01b03160361203d5760405162461bcd60e51b815260206004820152602560248201527f556e697377617056324c6962726172793a204944454e544943414c5f41444452604482015264455353455360d81b606482015260840161032c565b826001600160a01b0316846001600160a01b03161061205d578284612060565b83835b90925090506001600160a01b0382166120bb5760405162461bcd60e51b815260206004820152601e60248201527f556e697377617056324c6962726172793a205a45524f5f414444524553530000604482015260640161032c565b9250929050565b6060824710156121235760405162461bcd60e51b815260206004820152602660248201527f416464726573733a20696e73756666696369656e742062616c616e636520666f6044820152651c8818d85b1b60d21b606482015260840161032c565b600080866001600160a01b0316858760405161213f919061334c565b60006040518083038185875af1925050503d806000811461217c576040519150601f19603f3d011682016040523d82523d6000602084013e612181565b606091505b5091509150611fc08783838761224e565b60008115806121b6575082826121a88183613239565b92506121b49083613250565b145b61140f5760405162461bcd60e51b815260206004820152601460248201527364732d6d6174682d6d756c2d6f766572666c6f7760601b604482015260640161032c565b6000826122068382613368565b915081101561140f5760405162461bcd60e51b815260206004820152601460248201527364732d6d6174682d6164642d6f766572666c6f7760601b604482015260640161032c565b606083156122bd5782516000036122b6576001600160a01b0385163b6122b65760405162461bcd60e51b815260206004820152601d60248201527f416464726573733a2063616c6c20746f206e6f6e2d636f6e7472616374000000604482015260640161032c565b5081611dd8565b611dd883838151156122d25781518083602001fd5b8060405162461bcd60e51b815260040161032c919061340f565b634e487b7160e01b600052604160045260246000fd5b60405161016081016001600160401b0381118282101715612325576123256122ec565b60405290565b60405160a081016001600160401b0381118282101715612325576123256122ec565b60405160e081016001600160401b0381118282101715612325576123256122ec565b604051608081016001600160401b0381118282101715612325576123256122ec565b604051606081016001600160401b0381118282101715612325576123256122ec565b604051601f8201601f191681016001600160401b03811182821017156123db576123db6122ec565b604052919050565b803561ffff811681146123f557600080fd5b919050565b6001600160a01b038116811461240f57600080fd5b50565b80356123f5816123fa565b6000610160828403121561243057600080fd5b612438612302565b9050612443826123e3565b815261245160208301612412565b602082015260408201356040820152606082013560608201526080820135608082015260a082013560a082015260c082013560c082015261249460e08301612412565b60e08201526101006124a7818401612412565b9082015261012082810135908201526101409182013591810191909152919050565b60006001600160401b038211156124e2576124e26122ec565b50601f01601f191660200190565b600082601f83011261250157600080fd5b813561251461250f826124c9565b6123b3565b81815284602083860101111561252957600080fd5b816020850160208301376000918101602001919091529392505050565b600080610180838503121561255a57600080fd5b612564848461241d565b91506101608301356001600160401b0381111561258057600080fd5b61258c858286016124f0565b9150509250929050565b60008083601f8401126125a857600080fd5b5081356001600160401b038111156125bf57600080fd5b6020830191508360208260051b85010111156120bb57600080fd5b600080600080604085870312156125f057600080fd5b84356001600160401b038082111561260757600080fd5b61261388838901612596565b9096509450602087013591508082111561262c57600080fd5b5061263987828801612596565b95989497509550505050565b60008060008060008060c0878903121561265e57600080fd5b612667876123e3565b955060208701356001600160401b038082111561268357600080fd5b61268f8a838b016124f0565b965060408901359550606089013591506126a8826123fa565b9093506080880135925060a088013590808211156126c557600080fd5b506126d289828a016124f0565b9150509295509295509295565b60609190911b6001600160601b031916815260140190565b60005b838110156127125781810151838201526020016126fa565b50506000910152565b600081518084526127338160208601602086016126f7565b601f01601f19169290920160200192915050565b80518252602081015160208301526000604082015160606040850152611dd8606085018261271b565b61ffff8616815260ff8516602082015260a06040820152600061279660a083018661271b565b82810360608401526127a8818661271b565b905082810360808401526127bc8185612747565b98975050505050505050565b600080604083850312156127db57600080fd5b505080516020909101519092909150565b634e487b7160e01b600052603260045260246000fd5b60ff8116811461240f57600080fd5b60006020828403121561282357600080fd5b8135610e8281612802565b6000808335601e1984360301811261284557600080fd5b8301803591506001600160401b0382111561285f57600080fd5b6020019150368190038213156120bb57600080fd5b60006001600160401b0382111561288d5761288d6122ec565b5060051b60200190565b600082601f8301126128a857600080fd5b813560206128b861250f83612874565b82815260059290921b840181019181810190868411156128d757600080fd5b8286015b848110156128fb5780356128ee816123fa565b83529183019183016128db565b509695505050505050565b6000806040838503121561291957600080fd5b82356001600160401b038082111561293057600080fd5b61293c86838701612897565b935060209150818501358181111561295357600080fd5b85019050601f8101861361296657600080fd5b803561297461250f82612874565b81815260059190911b8201830190838101908883111561299357600080fd5b928401925b828410156129b157833582529284019290840190612998565b80955050505050509250929050565b634e487b7160e01b600052601160045260246000fd5b6000600182016129e8576129e86129c0565b5060010190565b600060208284031215612a0157600080fd5b5035919050565b803562ffffff811681146123f557600080fd5b60006020808385031215612a2e57600080fd5b82356001600160401b03811115612a4457600080fd5b8301601f81018513612a5557600080fd5b8035612a6361250f82612874565b81815260a09182028301840191848201919088841115612a8257600080fd5b938501935b83851015612af95780858a031215612a9f5760008081fd5b612aa761232b565b853581528686013587820152604080870135612ac2816123fa565b90820152606086810135612ad5816123fa565b908201526080612ae6878201612a08565b9082015283529384019391850191612a87565b50979650505050505050565b60006020808385031215612b1857600080fd5b82356001600160401b03811115612b2e57600080fd5b8301601f81018513612b3f57600080fd5b8035612b4d61250f82612874565b81815260e09182028301840191848201919088841115612b6c57600080fd5b938501935b83851015612af95780858a031215612b895760008081fd5b612b9161234d565b853581528686013587820152604080870135612bac816123fa565b90820152606086810135612bbf816123fa565b90820152608086810135612bd2816123fa565b9082015260a0612be3878201612a08565b9082015260c0612bf4878201612a08565b9082015283529384019391850191612b71565b801515811461240f57600080fd5b60006020808385031215612c2857600080fd5b82356001600160401b0380821115612c3f57600080fd5b818501915085601f830112612c5357600080fd5b8135612c6161250f82612874565b81815260059190911b83018401908481019088831115612c8057600080fd5b8585015b83811015612d1557803585811115612c9b57600080fd5b86016080818c03601f19011215612cb25760008081fd5b612cba61236f565b8882013581526040808301358a83015260608084013589811115612cde5760008081fd5b612cec8f8d83880101612897565b838501525060808401359350612d0184612c07565b820192909252845250918601918601612c84565b5098975050505050505050565b60006020808385031215612d3557600080fd5b82356001600160401b03811115612d4b57600080fd5b8301601f81018513612d5c57600080fd5b8035612d6a61250f82612874565b81815260609182028301840191848201919088841115612d8957600080fd5b938501935b83851015612af95780858a031215612da65760008081fd5b612dae612391565b8535612db9816123fa565b815285870135612dc8816123fa565b818801526040868101359082015283529384019391850191612d8e565b60008060408385031215612df857600080fd5b8235612e03816123fa565b946020939093013593505050565b600060208284031215612e2357600080fd5b5051919050565b8181038181111561140f5761140f6129c0565b600082601f830112612e4e57600080fd5b81356020612e5e61250f83612874565b82815260059290921b84018101918181019086841115612e7d57600080fd5b8286015b848110156128fb5780356001600160401b03811115612ea05760008081fd5b612eae8986838b01016124f0565b845250918301918301612e81565b60008060006101a08486031215612ed257600080fd5b612edc858561241d565b92506101608401356001600160401b0380821115612ef957600080fd5b818601915086601f830112612f0d57600080fd5b81356020612f1d61250f83612874565b82815260059290921b8401810191818101908a841115612f3c57600080fd5b948201945b83861015612f63578535612f5481612802565b82529482019490820190612f41565b9650505050610180860135915080821115612f7d57600080fd5b50612f8a86828701612e3d565b9150509250925092565b600082601f830112612fa557600080fd5b81516020612fb561250f83612874565b82815260059290921b84018101918181019086841115612fd457600080fd5b8286015b848110156128fb5780516001600160401b03811115612ff75760008081fd5b8701603f810189136130095760008081fd5b84810151604061301b61250f836124c9565b8281528b828486010111156130305760008081fd5b61303f838983018487016126f7565b8652505050918301918301612fd8565b60008060006060848603121561306457600080fd5b835161306f816123fa565b809350506020808501516001600160401b038082111561308e57600080fd5b818701915087601f8301126130a257600080fd5b81516130b061250f82612874565b81815260059190911b8301840190848101908a8311156130cf57600080fd5b938501935b828510156130f65784516130e781612802565b825293850193908501906130d4565b60408a0151909750945050508083111561310f57600080fd5b5050612f8a86828701612f94565b600081518084526020808501945080840160005b8381101561315057815160ff1687529582019590820190600101613131565b509495945050505050565b600082825180855260208086019550808260051b84010181860160005b848110156131a657601f1986840301895261319483835161271b565b98840198925090830190600101613178565b5090979650505050505050565b6040815260006131c6604083018561311d565b82810360208401526131d8818561315b565b95945050505050565b602081526000825160a060208401526131fd60c084018261271b565b905060018060a01b0360208501511660408401526040840151606084015260608401516080840152608084015160a08401528091505092915050565b808202811582820484141761140f5761140f6129c0565b60008261326d57634e487b7160e01b600052601260045260246000fd5b500490565b6001600160a01b03841681526060602082018190526000906132969083018561311d565b82810360408401526132a8818561315b565b9695505050505050565b6000602082840312156132c457600080fd5b8151610e8281612c07565b600061012061ffff8c1683528a602084015289604084015260018060a01b03891660608401528760808401528660a08401528060c084015261331381840187612747565b905082810360e0840152613327818661271b565b905082810361010084015261333c818561271b565b9c9b505050505050505050505050565b6000825161335e8184602087016126f7565b9190910192915050565b8082018082111561140f5761140f6129c0565b84815283602082015260018060a01b03831660408201526080606082015260006132a8608083018461271b565b80516001600160701b03811681146123f557600080fd5b6000806000606084860312156133d457600080fd5b6133dd846133a8565b92506133eb602085016133a8565b9150604084015163ffffffff8116811461340457600080fd5b809150509250925092565b602081526000610e82602083018461271b56fea26469706673582212209dbd1f75c1bd02bf0aeb1053b1bd2e90b77fcc28b1eb3a73a5cfecfee3af9df764736f6c63430008110033",
    "linkReferences": {}
  },
  "methodIdentifiers": {
    "factory()": "c45a0155",
    "feeCollector()": "c415b95c",
    "getFee((uint16,address,uint256,uint256,uint256,uint256,uint256,address,address,uint256,bytes32),bytes)": "4285f6e4",
    "pairCodeHash()": "9aab9248",
    "polygonSwaps(uint8[],bytes[])": "8001f8b6",
    "sgReceive(uint16,bytes,uint256,address,uint256,bytes)": "ab8236f3",
    "stargateRouter()": "a9e56f3c",
    "swapRouter()": "c31c9c07"
  },
  "id": 69
}