{
  "abi": [
    {
      "inputs": [
        {
          "internalType": "contract IWETH9",
          "name": "_weth",
          "type": "address"
        },
        {
          "internalType": "address",
          "name": "_feeCollector",
          "type": "address"
        },
        {
          "internalType": "contract ISwapRouter",
          "name": "_swapRouter",
          "type": "address"
        },
        {
          "internalType": "address",
          "name": "_factory",
          "type": "address"
        },
        {
          "internalType": "bytes32",
          "name": "_pairCodeHash",
          "type": "bytes32"
        },
        {
          "internalType": "contract IStargateRouter",
          "name": "_stargateRouter",
          "type": "address"
        }
      ],
      "stateMutability": "nonpayable",
      "type": "constructor"
    },
    {
      "inputs": [],
      "name": "MismatchedLengths",
      "type": "error"
    },
    {
      "inputs": [],
      "name": "MoreThanZero",
      "type": "error"
    },
    {
      "inputs": [],
      "name": "NotEnoughGas",
      "type": "error"
    },
    {
      "inputs": [],
      "name": "NotStgRouter",
      "type": "error"
    },
    {
      "inputs": [],
      "name": "WithdrawFailed",
      "type": "error"
    },
    {
      "anonymous": false,
      "inputs": [
        {
          "indexed": false,
          "internalType": "address",
          "name": "_token",
          "type": "address"
        },
        {
          "indexed": false,
          "internalType": "uint256",
          "name": "_fee",
          "type": "uint256"
        }
      ],
      "name": "FeePaid",
      "type": "event"
    },
    {
      "anonymous": false,
      "inputs": [
        {
          "indexed": true,
          "internalType": "address",
          "name": "token",
          "type": "address"
        },
        {
          "indexed": false,
          "internalType": "uint256",
          "name": "amountLD",
          "type": "uint256"
        },
        {
          "indexed": false,
          "internalType": "bool",
          "name": "failed",
          "type": "bool"
        },
        {
          "indexed": false,
          "internalType": "bool",
          "name": "dustSent",
          "type": "bool"
        }
      ],
      "name": "ReceivedOnDestination",
      "type": "event"
    },
    {
      "inputs": [],
      "name": "factory",
      "outputs": [
        {
          "internalType": "address",
          "name": "",
          "type": "address"
        }
      ],
      "stateMutability": "view",
      "type": "function"
    },
    {
      "inputs": [],
      "name": "feeCollector",
      "outputs": [
        {
          "internalType": "address",
          "name": "",
          "type": "address"
        }
      ],
      "stateMutability": "view",
      "type": "function"
    },
    {
      "inputs": [
        {
          "components": [
            {
              "internalType": "uint16",
              "name": "dstChainId",
              "type": "uint16"
            },
            {
              "internalType": "address",
              "name": "token",
              "type": "address"
            },
            {
              "internalType": "uint256",
              "name": "srcPoolId",
              "type": "uint256"
            },
            {
              "internalType": "uint256",
              "name": "dstPoolId",
              "type": "uint256"
            },
            {
              "internalType": "uint256",
              "name": "amount",
              "type": "uint256"
            },
            {
              "internalType": "uint256",
              "name": "amountMin",
              "type": "uint256"
            },
            {
              "internalType": "uint256",
              "name": "dustAmount",
              "type": "uint256"
            },
            {
              "internalType": "address",
              "name": "receiver",
              "type": "address"
            },
            {
              "internalType": "address",
              "name": "to",
              "type": "address"
            },
            {
              "internalType": "uint256",
              "name": "gas",
              "type": "uint256"
            },
            {
              "internalType": "bytes32",
              "name": "srcContext",
              "type": "bytes32"
            }
          ],
          "internalType": "struct StargatePolygon.StargateParams",
          "name": "params",
          "type": "tuple"
        },
        {
          "internalType": "bytes",
          "name": "payload",
          "type": "bytes"
        }
      ],
      "name": "getFee",
      "outputs": [
        {
          "internalType": "uint256",
          "name": "_fee",
          "type": "uint256"
        }
      ],
      "stateMutability": "view",
      "type": "function"
    },
    {
      "inputs": [],
      "name": "pairCodeHash",
      "outputs": [
        {
          "internalType": "bytes32",
          "name": "",
          "type": "bytes32"
        }
      ],
      "stateMutability": "view",
      "type": "function"
    },
    {
      "inputs": [
        {
          "internalType": "uint8[]",
          "name": "steps",
          "type": "uint8[]"
        },
        {
          "internalType": "bytes[]",
          "name": "data",
          "type": "bytes[]"
        }
      ],
      "name": "polygonSwaps",
      "outputs": [],
      "stateMutability": "payable",
      "type": "function"
    },
    {
      "inputs": [
        {
          "internalType": "uint16",
          "name": "",
          "type": "uint16"
        },
        {
          "internalType": "bytes",
          "name": "",
          "type": "bytes"
        },
        {
          "internalType": "uint256",
          "name": "",
          "type": "uint256"
        },
        {
          "internalType": "address",
          "name": "_token",
          "type": "address"
        },
        {
          "internalType": "uint256",
          "name": "amountLD",
          "type": "uint256"
        },
        {
          "internalType": "bytes",
          "name": "_payload",
          "type": "bytes"
        }
      ],
      "name": "sgReceive",
      "outputs": [],
      "stateMutability": "nonpayable",
      "type": "function"
    },
    {
      "inputs": [],
      "name": "stargateRouter",
      "outputs": [
        {
          "internalType": "contract IStargateRouter",
          "name": "",
          "type": "address"
        }
      ],
      "stateMutability": "view",
      "type": "function"
    },
    {
      "inputs": [],
      "name": "swapRouter",
      "outputs": [
        {
          "internalType": "contract ISwapRouter",
          "name": "",
          "type": "address"
        }
      ],
      "stateMutability": "view",
      "type": "function"
    },
    {
      "stateMutability": "payable",
      "type": "receive"
    }
  ],
  "bytecode": {
    "object": "0x6101006040526002805460ff191660011790553480156200001f57600080fd5b50604051620035b6380380620035b6833981016040819052620000429162000099565b6001600160a01b03938416608052600080546001600160a01b03191693851693909317909255600155811660a05291821660c0521660e05262000121565b6001600160a01b03811681146200009657600080fd5b50565b60008060008060008060c08789031215620000b357600080fd5b8651620000c08162000080565b6020880151909650620000d38162000080565b6040880151909550620000e68162000080565b6060880151909450620000f98162000080565b608088015160a08901519194509250620001138162000080565b809150509295509295509295565b60805160a05160c05160e0516133fa620001bc6000396000818161019b0152818161093b01526113550152600081816104f10152818161081f01526108b201526000818160fb01528181610208015281816109e901528181611572015261159901526000818161016701528181610cab01528181610d2f01528181610e1101528181610f2d01528181610fb1015261108a01526133fa6000f3fe60806040526004361061007f5760003560e01c8063ab8236f31161004e578063ab8236f314610135578063c31c9c0714610155578063c415b95c14610189578063c45a0155146101bd57600080fd5b80634285f6e41461008b5780638001f8b6146100be5780639aab9248146100d3578063a9e56f3c146100e957600080fd5b3661008657005b600080fd5b34801561009757600080fd5b506100ab6100a63660046124e8565b6101dd565b6040519081526020015b60405180910390f35b6100d16100cc36600461257c565b6102ee565b005b3480156100df57600080fd5b506100ab60015481565b3480156100f557600080fd5b5061011d7f000000000000000000000000000000000000000000000000000000000000000081565b6040516001600160a01b0390911681526020016100b5565b34801561014157600080fd5b506100d16101503660046125e7565b6109de565b34801561016157600080fd5b5061011d7f000000000000000000000000000000000000000000000000000000000000000081565b34801561019557600080fd5b5061011d7f000000000000000000000000000000000000000000000000000000000000000081565b3480156101c957600080fd5b5060005461011d906001600160a01b031681565b6000808360e001516040516020016101f59190612681565b60405160208183030381529060405290507f00000000000000000000000000000000000000000000000000000000000000006001600160a01b0316630a51236985600001516001848760405180606001604052808b610120015181526020018b60c0015181526020018b60e001516040516020016102739190612681565b6040516020818303038152906040528152506040518663ffffffff1660e01b81526004016102a5959493929190612712565b6040805180830381865afa1580156102c1573d6000803e3d6000fd5b505050506040513d601f19601f820116820180604052508101906102e5919061276a565b50949350505050565b60025460ff166001146103355760405162461bcd60e51b815260206004820152600a6024820152695245454e5452414e435960b01b60448201526064015b60405180910390fd5b6002805460ff191681179055828114610361576040516373f8993760e11b815260040160405180910390fd5b60005b838110156109ca5760008585838181106103805761038061278e565b905060200201602081019061039591906127b3565b905060001960ff82160161048d576000808585858181106103b8576103b861278e565b90506020028101906103ca91906127d0565b8101906103d791906128a8565b9150915060005b82518110156104855760008282815181106103fb576103fb61278e565b6020026020010151116104215760405163fe4155c760e01b815260040160405180910390fd5b61047333308484815181106104385761043861278e565b60200260200101518685815181106104525761045261278e565b60200260200101516001600160a01b0316610b96909392919063ffffffff16565b8061047d81612978565b9150506103de565b5050506109b7565b60011960ff8216016105695760008484848181106104ad576104ad61278e565b90506020028101906104bf91906127d0565b8101906104cc9190612991565b9050600081116104ef5760405163fe4155c760e01b815260040160405180910390fd5b7f00000000000000000000000000000000000000000000000000000000000000006001600160a01b031663d0e30db0826040518263ffffffff1660e01b81526004016000604051808303818588803b15801561054a57600080fd5b505af115801561055e573d6000803e3d6000fd5b5050505050506109b7565b60021960ff8216016105f95760008484848181106105895761058961278e565b905060200281019061059b91906127d0565b8101906105a891906129bd565b905060005b81518110156105f25760008282815181106105ca576105ca61278e565b602002602001015190506105dd81610c07565b505080806105ea90612978565b9150506105ad565b50506109b7565b60031960ff82160161067b5760008484848181106106195761061961278e565b905060200281019061062b91906127d0565b8101906106389190612aa7565b905060005b81518110156105f25761066882828151811061065b5761065b61278e565b6020026020010151610e89565b508061067381612978565b91505061063d565b60041960ff8216016106fd57600084848481811061069b5761069b61278e565b90506020028101906106ad91906127d0565b8101906106ba9190612bb7565b905060005b81518110156105f2576106ea8282815181106106dd576106dd61278e565b60200260200101516110d4565b50806106f581612978565b9150506106bf565b600d1960ff8216016107be57600084848481811061071d5761071d61278e565b905060200281019061072f91906127d0565b81019061073c9190612cc4565b905060005b81518110156105f2576107ac82828151811061075f5761075f61278e565b60200260200101516000015183838151811061077d5761077d61278e565b60200260200101516040015184848151811061079b5761079b61278e565b6020026020010151602001516112b4565b806107b681612978565b915050610741565b600c1960ff821601610960576000808585858181106107df576107df61278e565b90506020028101906107f191906127d0565b8101906107fe9190612d87565b9150915080600003610897576040516370a0823160e01b81523060048201527f00000000000000000000000000000000000000000000000000000000000000006001600160a01b0316906370a0823190602401602060405180830381865afa15801561086e573d6000803e3d6000fd5b505050506040513d601f19601f820116820180604052508101906108929190612db3565b610899565b805b604051632e1a7d4d60e01b8152600481018290529091507f00000000000000000000000000000000000000000000000000000000000000006001600160a01b031690632e1a7d4d90602401600060405180830381600087803b1580156108fe57600080fd5b505af1158015610912573d6000803e3d6000fd5b505050506000610921826113d6565b9050610936836109318385612dcc565b611401565b6104857f000000000000000000000000000000000000000000000000000000000000000082611401565b600e1960ff8216016109b75760008060008686868181106109835761098361278e565b905060200281019061099591906127d0565b8101906109a29190612e5e565b9250925092506109b3838383611457565b5050505b50806109c281612978565b915050610364565b50506002805460ff19166001179055505050565b336001600160a01b037f00000000000000000000000000000000000000000000000000000000000000001614610a2757604051638afe477f60e01b815260040160405180910390fd5b600080620186a081815a610a3b9190612dcc565b9050600080600087806020019051810190610a569190612ff1565b925092509250845a1015610a8857610a786001600160a01b038b16848b6116a9565b4715610a8857610a888347611401565b604051634000fc5b60e11b81523090638001f8b6908690610aaf9086908690600401613155565b600060405180830381600088803b158015610ac957600080fd5b5087f193505050508015610adb575060015b610b29573d808015610b09576040519150601f19603f3d011682016040523d82523d6000602084013e610b0e565b606091505b50610b236001600160a01b038c16858c6116a9565b60019750505b4715610b3957610b398347611401565b604080518a815288151560208201528715158183015290516001600160a01b038c16917f7f345d6da48bd1339fd428ff45265a0f01258b14ca09dcf8db0c469f4f732fd3919081900360600190a250505050505050505050505050565b6040516001600160a01b0380851660248301528316604482015260648101829052610c019085906323b872dd60e01b906084015b60408051601f198184030181529190526020810180516001600160e01b03166001600160e01b0319909316929092179091526116d9565b50505050565b805160009015610c18578151610c86565b60408083015190516370a0823160e01b81523060048201526001600160a01b03909116906370a0823190602401602060405180830381865afa158015610c62573d6000803e3d6000fd5b505050506040513d601f19601f82011682018060405250810190610c869190612db3565b8083526040808401519051636eb1769f60e11b81523060048201526001600160a01b037f0000000000000000000000000000000000000000000000000000000000000000811660248301529091169063dd62ed3e90604401602060405180830381865afa158015610cfb573d6000803e3d6000fd5b505050506040513d601f19601f82011682018060405250810190610d1f9190612db3565b1015610d5657610d5682604001517f00000000000000000000000000000000000000000000000000000000000000006000196117ab565b6040805161010081018252838201516001600160a01b0390811682526060808601518216602080850191825260808089015162ffffff90811687890190815230958801958652429288019283528a5160a08901908152938b015160c08901908152600060e08a01908152995163414bf38960e01b8152895189166004820152955188166024870152905190911660448501529351851660648401525160848301525160a4820152905160c48201529251811660e484015290917f00000000000000000000000000000000000000000000000000000000000000009091169063414bf38990610104015b6020604051808303816000875af1158015610e5e573d6000803e3d6000fd5b505050506040513d601f19601f82011682018060405250810190610e829190612db3565b9392505050565b805160009015610e9a578151610f08565b60408083015190516370a0823160e01b81523060048201526001600160a01b03909116906370a0823190602401602060405180830381865afa158015610ee4573d6000803e3d6000fd5b505050506040513d601f19601f82011682018060405250810190610f089190612db3565b8083526040808401519051636eb1769f60e11b81523060048201526001600160a01b037f0000000000000000000000000000000000000000000000000000000000000000811660248301529091169063dd62ed3e90604401602060405180830381865afa158015610f7d573d6000803e3d6000fd5b505050506040513d601f19601f82011682018060405250810190610fa19190612db3565b1015610fd857610fd882604001517f00000000000000000000000000000000000000000000000000000000000000006000196117ab565b6040805160a08082018352918401519184015160608086015160c08088015160808901516001600160601b031997851b8816928701929092526001600160e81b031960e895861b811660d488015292841b871660d787015290931b1660eb8401521b90911660ee8201526000908061010281016040516020818303038152906040528152602001306001600160a01b0316815260200142815260200184600001518152602001846020015181525090507f00000000000000000000000000000000000000000000000000000000000000006001600160a01b031663c04b8d59826040518263ffffffff1660e01b8152600401610e3f9190613183565b600080548251604084015160015484936110fb936001600160a01b039091169290916118ab565b9050806001825161110c9190612dcc565b8151811061111c5761111c61278e565b60200260200101519150826020015182101561117a5760405162461bcd60e51b815260206004820152601760248201527f696e73756666696369656e742d616d6f756e742d6f7574000000000000000000604482015260640161032c565b82606001511561129f57600080546040850151805161129f936111dd936001600160a01b031692916111ae576111ae61278e565b602002602001015186604001516001815181106111cd576111cd61278e565b6020026020010151600154611a2e565b84604001516000815181106111f4576111f461278e565b60209081029190910101516040516370a0823160e01b81523060048201526001600160a01b03909116906370a0823190602401602060405180830381865afa158015611244573d6000803e3d6000fd5b505050506040513d601f19601f820116820180604052508101906112689190612db3565b856040015160008151811061127f5761127f61278e565b60200260200101516001600160a01b03166116a99092919063ffffffff16565b6112ae81846040015130611ae2565b50919050565b81600003611329576040516370a0823160e01b81523060048201526001600160a01b038416906370a0823190602401602060405180830381865afa158015611300573d6000803e3d6000fd5b505050506040513d601f19601f820116820180604052508101906113249190612db3565b61132b565b815b91506000611338836113d6565b90506113448184612dcc565b925061137a6001600160a01b0385167f0000000000000000000000000000000000000000000000000000000000000000836116a9565b61138e6001600160a01b03851683856116a9565b604080516001600160a01b0386168152602081018390527f075a2720282fdf622141dae0b048ef90a21a7e57c134c76912d19d006b3b3f6f910160405180910390a150505050565b60006127106113e78361270b6131db565b6113f191906131f2565b6113fb9083612dcc565b92915050565b600080600080600085875af19050806114525760405162461bcd60e51b815260206004820152601360248201527211551217d514905394d1915497d19052531151606a1b604482015260640161032c565b505050565b8051825114611479576040516373f8993760e11b815260040160405180910390fd5b620186a083610120015110156114a257604051636eb14fc360e11b815260040160405180910390fd5b600083610100015183836040516020016114be93929190613214565b6040516020818303038152906040529050836080015160000361154e5760208401516040516370a0823160e01b81523060048201526001600160a01b03909116906370a0823190602401602060405180830381865afa158015611525573d6000803e3d6000fd5b505050506040513d601f19601f820116820180604052508101906115499190612db3565b611554565b83608001515b608085018190526020850151611597916001600160a01b03909116907f000000000000000000000000000000000000000000000000000000000000000090611cb9565b7f00000000000000000000000000000000000000000000000000000000000000006001600160a01b0316639fbf10fc47866000015187604001518860600151338a608001518b60a0015160405180606001604052808e610120015181526020018e60c0015181526020018e60e001516040516020016116169190612681565b6040516020818303038152906040528152508d60e0015160405160200161163d9190612681565b6040516020818303038152906040528b6040518b63ffffffff1660e01b815260040161167199989796959493929190613254565b6000604051808303818588803b15801561168a57600080fd5b505af115801561169e573d6000803e3d6000fd5b505050505050505050565b6040516001600160a01b03831660248201526044810182905261145290849063a9059cbb60e01b90606401610bca565b600061172e826040518060400160405280602081526020017f5361666545524332303a206c6f772d6c6576656c2063616c6c206661696c6564815250856001600160a01b0316611d6b9092919063ffffffff16565b805190915015611452578080602001905181019061174c91906132d1565b6114525760405162461bcd60e51b815260206004820152602a60248201527f5361666545524332303a204552433230206f7065726174696f6e20646964206e6044820152691bdd081cdd58d8d9595960b21b606482015260840161032c565b604080516001600160a01b038481166024830152604480830185905283518084039091018152606490920183526020820180516001600160e01b031663095ea7b360e01b179052915160009283929087169161180791906132ee565b6000604051808303816000865af19150503d8060008114611844576040519150601f19603f3d011682016040523d82523d6000602084013e611849565b606091505b509150915081801561187357508051158061187357508080602001905181019061187391906132d1565b6118a45760405162461bcd60e51b8152602060048201526002602482015261534160f01b604482015260640161032c565b5050505050565b60606002835110156118ff5760405162461bcd60e51b815260206004820152601e60248201527f556e697377617056324c6962726172793a20494e56414c49445f504154480000604482015260640161032c565b82516001600160401b038111156119185761191861228e565b604051908082528060200260200182016040528015611941578160200160208202803683370190505b50905083816000815181106119585761195861278e565b60200260200101818152505060005b600184516119759190612dcc565b8110156102e5576000806119c9888785815181106119955761199561278e565b6020026020010151888660016119ab919061330a565b815181106119bb576119bb61278e565b602002602001015188611d82565b915091506119f18484815181106119e2576119e261278e565b60200260200101518383611e4e565b846119fd85600161330a565b81518110611a0d57611a0d61278e565b60200260200101818152505050508080611a2690612978565b915050611967565b6000806000611a3d8686611f6d565b6040516001600160601b0319606084811b8216602084015283901b166034820152919350915087906048016040516020818303038152906040528051906020012085604051602001611abf939291906001600160f81b0319815260609390931b6001600160601b03191660018401526015830191909152603582015260550190565b60408051601f198184030181529190528051602090910120979650505050505050565b60005b60018351611af39190612dcc565b811015610c0157600080848381518110611b0f57611b0f61278e565b602002602001015185846001611b25919061330a565b81518110611b3557611b3561278e565b6020026020010151915091506000611b4d8383611f6d565b509050600087611b5e86600161330a565b81518110611b6e57611b6e61278e565b60200260200101519050600080836001600160a01b0316866001600160a01b031614611b9c57826000611ba0565b6000835b91509150600060028a51611bb49190612dcc565b8810611bc05788611bed565b600054611bed906001600160a01b0316878c611bdd8c600261330a565b815181106111cd576111cd61278e565b9050611c1060008054906101000a90046001600160a01b03168888600154611a2e565b6001600160a01b031663022c0d9f84848460006040519080825280601f01601f191660200182016040528015611c4d576020820181803683370190505b506040518563ffffffff1660e01b8152600401611c6d949392919061331d565b600060405180830381600087803b158015611c8757600080fd5b505af1158015611c9b573d6000803e3d6000fd5b50505050505050505050508080611cb190612978565b915050611ae5565b604051636eb1769f60e11b81523060048201526001600160a01b038381166024830152600091839186169063dd62ed3e90604401602060405180830381865afa158015611d0a573d6000803e3d6000fd5b505050506040513d601f19601f82011682018060405250810190611d2e9190612db3565b611d38919061330a565b6040516001600160a01b038516602482015260448101829052909150610c0190859063095ea7b360e01b90606401610bca565b6060611d7a8484600085612064565b949350505050565b6000806000611d918686611f6d565b509050600080611da389898989611a2e565b6001600160a01b0316630902f1ac6040518163ffffffff1660e01b8152600401606060405180830381865afa158015611de0573d6000803e3d6000fd5b505050506040513d601f19601f82011682018060405250810190611e049190613361565b506001600160701b031691506001600160701b03169150826001600160a01b0316886001600160a01b031614611e3b578082611e3e565b81815b909a909950975050505050505050565b6000808411611eb35760405162461bcd60e51b815260206004820152602b60248201527f556e697377617056324c6962726172793a20494e53554646494349454e545f4960448201526a1394155517d05353d5539560aa1b606482015260840161032c565b600083118015611ec35750600082115b611f205760405162461bcd60e51b815260206004820152602860248201527f556e697377617056324c6962726172793a20494e53554646494349454e545f4c604482015267495155494449545960c01b606482015260840161032c565b6000611f2e856103e5612134565b90506000611f3c8285612134565b90506000611f5683611f50886103e8612134565b9061219b565b9050611f6281836131f2565b979650505050505050565b600080826001600160a01b0316846001600160a01b031603611fdf5760405162461bcd60e51b815260206004820152602560248201527f556e697377617056324c6962726172793a204944454e544943414c5f41444452604482015264455353455360d81b606482015260840161032c565b826001600160a01b0316846001600160a01b031610611fff578284612002565b83835b90925090506001600160a01b03821661205d5760405162461bcd60e51b815260206004820152601e60248201527f556e697377617056324c6962726172793a205a45524f5f414444524553530000604482015260640161032c565b9250929050565b6060824710156120c55760405162461bcd60e51b815260206004820152602660248201527f416464726573733a20696e73756666696369656e742062616c616e636520666f6044820152651c8818d85b1b60d21b606482015260840161032c565b600080866001600160a01b031685876040516120e191906132ee565b60006040518083038185875af1925050503d806000811461211e576040519150601f19603f3d011682016040523d82523d6000602084013e612123565b606091505b5091509150611f62878383876121f0565b60008115806121585750828261214a81836131db565b925061215690836131f2565b145b6113fb5760405162461bcd60e51b815260206004820152601460248201527364732d6d6174682d6d756c2d6f766572666c6f7760601b604482015260640161032c565b6000826121a8838261330a565b91508110156113fb5760405162461bcd60e51b815260206004820152601460248201527364732d6d6174682d6164642d6f766572666c6f7760601b604482015260640161032c565b6060831561225f578251600003612258576001600160a01b0385163b6122585760405162461bcd60e51b815260206004820152601d60248201527f416464726573733a2063616c6c20746f206e6f6e2d636f6e7472616374000000604482015260640161032c565b5081611d7a565b611d7a83838151156122745781518083602001fd5b8060405162461bcd60e51b815260040161032c91906133b1565b634e487b7160e01b600052604160045260246000fd5b60405161016081016001600160401b03811182821017156122c7576122c761228e565b60405290565b60405160a081016001600160401b03811182821017156122c7576122c761228e565b60405160e081016001600160401b03811182821017156122c7576122c761228e565b604051608081016001600160401b03811182821017156122c7576122c761228e565b604051606081016001600160401b03811182821017156122c7576122c761228e565b604051601f8201601f191681016001600160401b038111828210171561237d5761237d61228e565b604052919050565b803561ffff8116811461239757600080fd5b919050565b6001600160a01b03811681146123b157600080fd5b50565b80356123978161239c565b600061016082840312156123d257600080fd5b6123da6122a4565b90506123e582612385565b81526123f3602083016123b4565b602082015260408201356040820152606082013560608201526080820135608082015260a082013560a082015260c082013560c082015261243660e083016123b4565b60e08201526101006124498184016123b4565b9082015261012082810135908201526101409182013591810191909152919050565b60006001600160401b038211156124845761248461228e565b50601f01601f191660200190565b600082601f8301126124a357600080fd5b81356124b66124b18261246b565b612355565b8181528460208386010111156124cb57600080fd5b816020850160208301376000918101602001919091529392505050565b60008061018083850312156124fc57600080fd5b61250684846123bf565b91506101608301356001600160401b0381111561252257600080fd5b61252e85828601612492565b9150509250929050565b60008083601f84011261254a57600080fd5b5081356001600160401b0381111561256157600080fd5b6020830191508360208260051b850101111561205d57600080fd5b6000806000806040858703121561259257600080fd5b84356001600160401b03808211156125a957600080fd5b6125b588838901612538565b909650945060208701359150808211156125ce57600080fd5b506125db87828801612538565b95989497509550505050565b60008060008060008060c0878903121561260057600080fd5b61260987612385565b955060208701356001600160401b038082111561262557600080fd5b6126318a838b01612492565b9650604089013595506060890135915061264a8261239c565b9093506080880135925060a0880135908082111561266757600080fd5b5061267489828a01612492565b9150509295509295509295565b60609190911b6001600160601b031916815260140190565b60005b838110156126b457818101518382015260200161269c565b50506000910152565b600081518084526126d5816020860160208601612699565b601f01601f19169290920160200192915050565b80518252602081015160208301526000604082015160606040850152611d7a60608501826126bd565b61ffff8616815260ff8516602082015260a06040820152600061273860a08301866126bd565b828103606084015261274a81866126bd565b9050828103608084015261275e81856126e9565b98975050505050505050565b6000806040838503121561277d57600080fd5b505080516020909101519092909150565b634e487b7160e01b600052603260045260246000fd5b60ff811681146123b157600080fd5b6000602082840312156127c557600080fd5b8135610e82816127a4565b6000808335601e198436030181126127e757600080fd5b8301803591506001600160401b0382111561280157600080fd5b60200191503681900382131561205d57600080fd5b60006001600160401b0382111561282f5761282f61228e565b5060051b60200190565b600082601f83011261284a57600080fd5b8135602061285a6124b183612816565b82815260059290921b8401810191818101908684111561287957600080fd5b8286015b8481101561289d5780356128908161239c565b835291830191830161287d565b509695505050505050565b600080604083850312156128bb57600080fd5b82356001600160401b03808211156128d257600080fd5b6128de86838701612839565b93506020915081850135818111156128f557600080fd5b85019050601f8101861361290857600080fd5b80356129166124b182612816565b81815260059190911b8201830190838101908883111561293557600080fd5b928401925b828410156129535783358252928401929084019061293a565b80955050505050509250929050565b634e487b7160e01b600052601160045260246000fd5b60006001820161298a5761298a612962565b5060010190565b6000602082840312156129a357600080fd5b5035919050565b803562ffffff8116811461239757600080fd5b600060208083850312156129d057600080fd5b82356001600160401b038111156129e657600080fd5b8301601f810185136129f757600080fd5b8035612a056124b182612816565b81815260a09182028301840191848201919088841115612a2457600080fd5b938501935b83851015612a9b5780858a031215612a415760008081fd5b612a496122cd565b853581528686013587820152604080870135612a648161239c565b90820152606086810135612a778161239c565b908201526080612a888782016129aa565b9082015283529384019391850191612a29565b50979650505050505050565b60006020808385031215612aba57600080fd5b82356001600160401b03811115612ad057600080fd5b8301601f81018513612ae157600080fd5b8035612aef6124b182612816565b81815260e09182028301840191848201919088841115612b0e57600080fd5b938501935b83851015612a9b5780858a031215612b2b5760008081fd5b612b336122ef565b853581528686013587820152604080870135612b4e8161239c565b90820152606086810135612b618161239c565b90820152608086810135612b748161239c565b9082015260a0612b858782016129aa565b9082015260c0612b968782016129aa565b9082015283529384019391850191612b13565b80151581146123b157600080fd5b60006020808385031215612bca57600080fd5b82356001600160401b0380821115612be157600080fd5b818501915085601f830112612bf557600080fd5b8135612c036124b182612816565b81815260059190911b83018401908481019088831115612c2257600080fd5b8585015b83811015612cb757803585811115612c3d57600080fd5b86016080818c03601f19011215612c545760008081fd5b612c5c612311565b8882013581526040808301358a83015260608084013589811115612c805760008081fd5b612c8e8f8d83880101612839565b838501525060808401359350612ca384612ba9565b820192909252845250918601918601612c26565b5098975050505050505050565b60006020808385031215612cd757600080fd5b82356001600160401b03811115612ced57600080fd5b8301601f81018513612cfe57600080fd5b8035612d0c6124b182612816565b81815260609182028301840191848201919088841115612d2b57600080fd5b938501935b83851015612a9b5780858a031215612d485760008081fd5b612d50612333565b8535612d5b8161239c565b815285870135612d6a8161239c565b818801526040868101359082015283529384019391850191612d30565b60008060408385031215612d9a57600080fd5b8235612da58161239c565b946020939093013593505050565b600060208284031215612dc557600080fd5b5051919050565b818103818111156113fb576113fb612962565b600082601f830112612df057600080fd5b81356020612e006124b183612816565b82815260059290921b84018101918181019086841115612e1f57600080fd5b8286015b8481101561289d5780356001600160401b03811115612e425760008081fd5b612e508986838b0101612492565b845250918301918301612e23565b60008060006101a08486031215612e7457600080fd5b612e7e85856123bf565b92506101608401356001600160401b0380821115612e9b57600080fd5b818601915086601f830112612eaf57600080fd5b81356020612ebf6124b183612816565b82815260059290921b8401810191818101908a841115612ede57600080fd5b948201945b83861015612f05578535612ef6816127a4565b82529482019490820190612ee3565b9650505050610180860135915080821115612f1f57600080fd5b50612f2c86828701612ddf565b9150509250925092565b600082601f830112612f4757600080fd5b81516020612f576124b183612816565b82815260059290921b84018101918181019086841115612f7657600080fd5b8286015b8481101561289d5780516001600160401b03811115612f995760008081fd5b8701603f81018913612fab5760008081fd5b848101516040612fbd6124b18361246b565b8281528b82848601011115612fd25760008081fd5b612fe183898301848701612699565b8652505050918301918301612f7a565b60008060006060848603121561300657600080fd5b83516130118161239c565b809350506020808501516001600160401b038082111561303057600080fd5b818701915087601f83011261304457600080fd5b81516130526124b182612816565b81815260059190911b8301840190848101908a83111561307157600080fd5b938501935b82851015613098578451613089816127a4565b82529385019390850190613076565b60408a015190975094505050808311156130b157600080fd5b5050612f2c86828701612f36565b600081518084526020808501945080840160005b838110156130f257815160ff16875295820195908201906001016130d3565b509495945050505050565b600082825180855260208086019550808260051b84010181860160005b8481101561314857601f198684030189526131368383516126bd565b9884019892509083019060010161311a565b5090979650505050505050565b60408152600061316860408301856130bf565b828103602084015261317a81856130fd565b95945050505050565b602081526000825160a0602084015261319f60c08401826126bd565b905060018060a01b0360208501511660408401526040840151606084015260608401516080840152608084015160a08401528091505092915050565b80820281158282048414176113fb576113fb612962565b60008261320f57634e487b7160e01b600052601260045260246000fd5b500490565b6001600160a01b0384168152606060208201819052600090613238908301856130bf565b828103604084015261324a81856130fd565b9695505050505050565b600061012061ffff8c1683528a602084015289604084015260018060a01b03891660608401528760808401528660a08401528060c0840152613298818401876126e9565b905082810360e08401526132ac81866126bd565b90508281036101008401526132c181856126bd565b9c9b505050505050505050505050565b6000602082840312156132e357600080fd5b8151610e8281612ba9565b60008251613300818460208701612699565b9190910192915050565b808201808211156113fb576113fb612962565b84815283602082015260018060a01b038316604082015260806060820152600061324a60808301846126bd565b80516001600160701b038116811461239757600080fd5b60008060006060848603121561337657600080fd5b61337f8461334a565b925061338d6020850161334a565b9150604084015163ffffffff811681146133a657600080fd5b809150509250925092565b602081526000610e8260208301846126bd56fea264697066735822122053d2ff5f9ae2559a2d2291af17d97b98262d37d9c32398d1e1fd4f733897d96c64736f6c63430008110033",
    "linkReferences": {}
  },
  "methodIdentifiers": {
    "factory()": "c45a0155",
    "feeCollector()": "c415b95c",
    "getFee((uint16,address,uint256,uint256,uint256,uint256,uint256,address,address,uint256,bytes32),bytes)": "4285f6e4",
    "pairCodeHash()": "9aab9248",
    "polygonSwaps(uint8[],bytes[])": "8001f8b6",
    "sgReceive(uint16,bytes,uint256,address,uint256,bytes)": "ab8236f3",
    "stargateRouter()": "a9e56f3c",
    "swapRouter()": "c31c9c07"
  },
  "id": 40
}